{
  "contractName": "BaseIndex",
  "abi": [
    {
      "inputs": [
        {
          "internalType": "uint256",
          "name": "_initialAmount",
          "type": "uint256"
        },
        {
          "internalType": "string",
          "name": "_tokenName",
          "type": "string"
        },
        {
          "internalType": "uint8",
          "name": "_decimalUnits",
          "type": "uint8"
        },
        {
          "internalType": "string",
          "name": "_tokenSymbol",
          "type": "string"
        },
        {
          "internalType": "uint256",
          "name": "_minimalFundAddition",
          "type": "uint256"
        },
        {
          "internalType": "string",
          "name": "_indexName",
          "type": "string"
        },
        {
          "internalType": "string",
          "name": "_indexSymbol",
          "type": "string"
        }
      ],
      "stateMutability": "nonpayable",
      "type": "constructor"
    },
    {
      "inputs": [],
      "name": "indexToken",
      "outputs": [
        {
          "internalType": "contract IndexToken",
          "name": "",
          "type": "address"
        }
      ],
      "stateMutability": "view",
      "type": "function"
    },
    {
      "inputs": [],
      "name": "minimalFundAddition",
      "outputs": [
        {
          "internalType": "uint256",
          "name": "",
          "type": "uint256"
        }
      ],
      "stateMutability": "view",
      "type": "function"
    },
    {
      "inputs": [],
      "name": "name",
      "outputs": [
        {
          "internalType": "string",
          "name": "",
          "type": "string"
        }
      ],
      "stateMutability": "view",
      "type": "function"
    },
    {
      "inputs": [],
      "name": "poolFee",
      "outputs": [
        {
          "internalType": "uint24",
          "name": "",
          "type": "uint24"
        }
      ],
      "stateMutability": "view",
      "type": "function"
    },
    {
      "inputs": [],
      "name": "symbol",
      "outputs": [
        {
          "internalType": "string",
          "name": "",
          "type": "string"
        }
      ],
      "stateMutability": "view",
      "type": "function"
    },
    {
      "inputs": [
        {
          "internalType": "uint256",
          "name": "",
          "type": "uint256"
        }
      ],
      "name": "tokenContracts",
      "outputs": [
        {
          "internalType": "address",
          "name": "",
          "type": "address"
        }
      ],
      "stateMutability": "view",
      "type": "function"
    },
    {
      "inputs": [],
      "name": "totalTokens",
      "outputs": [
        {
          "internalType": "uint256",
          "name": "",
          "type": "uint256"
        }
      ],
      "stateMutability": "view",
      "type": "function"
    },
    {
      "stateMutability": "payable",
      "type": "receive"
    },
    {
      "inputs": [
        {
          "internalType": "address",
          "name": "comparisonTokenAddress",
          "type": "address"
        }
      ],
      "name": "getTokenPrices",
      "outputs": [
        {
          "components": [
            {
              "internalType": "address",
              "name": "token",
              "type": "address"
            },
            {
              "internalType": "string",
              "name": "name",
              "type": "string"
            },
            {
              "internalType": "uint256",
              "name": "price",
              "type": "uint256"
            }
          ],
          "internalType": "struct BaseIndex.TokenPrice[]",
          "name": "",
          "type": "tuple[]"
        }
      ],
      "stateMutability": "view",
      "type": "function"
    },
    {
      "inputs": [
        {
          "internalType": "address",
          "name": "comparisonTokenAddress",
          "type": "address"
        }
      ],
      "name": "getIndexPrice",
      "outputs": [
        {
          "internalType": "uint256",
          "name": "",
          "type": "uint256"
        }
      ],
      "stateMutability": "view",
      "type": "function"
    },
    {
      "inputs": [],
      "name": "addFunds",
      "outputs": [],
      "stateMutability": "payable",
      "type": "function"
    },
    {
      "inputs": [
        {
          "internalType": "address",
          "name": "comparisonTokenAddress",
          "type": "address"
        }
      ],
      "name": "getTVL",
      "outputs": [
        {
          "internalType": "uint256",
          "name": "",
          "type": "uint256"
        }
      ],
      "stateMutability": "view",
      "type": "function"
    },
    {
      "inputs": [
        {
          "internalType": "address",
          "name": "comparisonTokenAddress",
          "type": "address"
        }
      ],
      "name": "getMyTokensPrice",
      "outputs": [
        {
          "internalType": "uint256",
          "name": "",
          "type": "uint256"
        }
      ],
      "stateMutability": "view",
      "type": "function"
    }
  ],
  "bytecode": "0x60c060405260405162000012906200010d565b604051809103906000f0801580156200002f573d6000803e3d6000fd5b50600480546001600160a01b0319166001600160a01b03929092169190911790553480156200005d57600080fd5b5060405162001f5138038062001f51833981016040819052620000809162000269565b8686868660405162000092906200011b565b620000a1949392919062000372565b604051809103906000f080158015620000be573d6000803e3d6000fd5b5060601b6001600160601b03191660a05260808390528151620000e990600190602085019062000129565b508051620000ff90600290602084019062000129565b5050505050505050620003e8565b610372806200122c83390190565b6109b3806200159e83390190565b828054600181600116156101000203166002900490600052602060002090601f016020900481019282620001615760008555620001ac565b82601f106200017c57805160ff1916838001178555620001ac565b82800160010185558215620001ac579182015b82811115620001ac5782518255916020019190600101906200018f565b50620001ba929150620001be565b5090565b5b80821115620001ba5760008155600101620001bf565b600082601f830112620001e6578081fd5b81516001600160401b0380821115620001fb57fe5b604051601f8301601f1916810160200182811182821017156200021a57fe5b6040528281529250828483016020018610156200023657600080fd5b62000249836020830160208801620003b5565b50505092915050565b805160ff811681146200026457600080fd5b919050565b600080600080600080600060e0888a03121562000284578283fd5b875160208901519097506001600160401b0380821115620002a3578485fd5b620002b18b838c01620001d5565b9750620002c160408b0162000252565b965060608a0151915080821115620002d7578485fd5b620002e58b838c01620001d5565b955060808a0151945060a08a015191508082111562000302578384fd5b620003108b838c01620001d5565b935060c08a015191508082111562000326578283fd5b50620003358a828b01620001d5565b91505092959891949750929550565b600081518084526200035e816020860160208601620003b5565b601f01601f19169290920160200192915050565b6000858252608060208301526200038d608083018662000344565b60ff851660408401528281036060840152620003aa818562000344565b979650505050505050565b60005b83811015620003d2578181015183820152602001620003b8565b83811115620003e2576000848401525b50505050565b60805160a05160601c610e0e6200041e6000398061031d528061069752806109f15250806104095280610a155250610e0e6000f3fe6080604052600436106100ab5760003560e01c806395d89b411161006457806395d89b4114610193578063a26759cb146101a8578063ab17f1eb146101b2578063b263e010146101df578063e7d015f2146101ff578063f3b755c714610214576100b2565b806306fdde03146100b7578063089fe6aa146100e25780630f40517a146101045780631d9fb3091461013157806341efd7d91461015e5780637e1c0c091461017e576100b2565b366100b257005b600080fd5b3480156100c357600080fd5b506100cc610229565b6040516100d99190610ccf565b60405180910390f35b3480156100ee57600080fd5b506100f76102b6565b6040516100d99190610d8f565b34801561011057600080fd5b5061012461011f366004610aa5565b6102bc565b6040516100d99190610d9f565b34801561013d57600080fd5b5061015161014c366004610b8a565b6102d1565b6040516100d99190610be6565b34801561016a57600080fd5b50610124610179366004610aa5565b6102fb565b34801561018a57600080fd5b506101246103a9565b34801561019f57600080fd5b506100cc6103af565b6101b0610407565b005b3480156101be57600080fd5b506101d26101cd366004610aa5565b610743565b6040516100d99190610c46565b3480156101eb57600080fd5b506101246101fa366004610aa5565b61090f565b34801561020b57600080fd5b506101516109ef565b34801561022057600080fd5b50610124610a13565b60018054604080516020600284861615610100026000190190941693909304601f810184900484028201840190925281815292918301828280156102ae5780601f10610283576101008083540402835291602001916102ae565b820191906000526020600020905b81548152906001019060200180831161029157829003601f168201915b505050505081565b610bb881565b60006102c78261090f565b6000540292915050565b600381815481106102e157600080fd5b6000918252602090912001546001600160a01b0316905081565b60006103068261090f565b6040516370a0823160e01b81526001600160a01b037f000000000000000000000000000000000000000000000000000000000000000016906370a0823190610352903390600401610be6565b60206040518083038186803b15801561036a57600080fd5b505afa15801561037e573d6000803e3d6000fd5b505050506040513d601f19601f820116820180604052508101906103a29190610ba2565b0292915050565b60005481565b6002805460408051602060018416156101000260001901909316849004601f810184900484028201840190925281815292918301828280156102ae5780601f10610283576101008083540402835291602001916102ae565b7f0000000000000000000000000000000000000000000000000000000000000000341161044f5760405162461bcd60e51b815260040161044690610ce2565b60405180910390fd5b60005b60035481101561066a57600354600090348161046a57fe5b0490506000600460009054906101000a90046001600160a01b03166001600160a01b0316634613d135600385815481106104a057fe5b6000918252602090912001546040516001600160e01b031960e084901b1681526104f0916001600160a01b03169073c02aaa39b223fe8d0a0e5c4f27ead9083c756cc290610bb890600401610c1e565b60206040518083038186803b15801561050857600080fd5b505afa15801561051c573d6000803e3d6000fd5b505050506040513d601f19601f820116820180604052508101906105409190610ba2565b905081810261054d610a37565b60405180610100016040528073c02aaa39b223fe8d0a0e5c4f27ead9083c756cc26001600160a01b031681526020016003878154811061058957fe5b60009182526020808320909101546001600160a01b03168352610bb890830152306040808401919091524260608401526080830188905260a0830186905260c0909201525163414bf38960e01b815290915073e592427a0aece92de3edee1f18e0157c058615649063414bf389903490610607908590600401610d26565b6020604051808303818588803b15801561062057600080fd5b505af1158015610634573d6000803e3d6000fd5b50505050506040513d601f19601f820116820180604052508101906106599190610ba2565b505060019093019250610452915050565b50600061068a73c02aaa39b223fe8d0a0e5c4f27ead9083c756cc261090f565b348161069257fe5b0490507f00000000000000000000000000000000000000000000000000000000000000006001600160a01b03166323b872dd3033846040518463ffffffff1660e01b81526004016106e593929190610bfa565b602060405180830381600087803b1580156106ff57600080fd5b505af1158015610713573d6000803e3d6000fd5b505050506040513d601f19601f820116820180604052508101906107379190610ad3565b50600080549091019055565b600354606090819067ffffffffffffffff8111801561076157600080fd5b5060405190808252806020026020018201604052801561079b57816020015b610788610a7b565b8152602001906001900390816107805790505b50905060005b600354811015610908576000600382815481106107ba57fe5b6000918252602080832090910154604080516060810182526001600160a01b0390921680835281516395d89b4160e01b815291519095508594929384019285926395d89b419260048083019392829003018186803b15801561081b57600080fd5b505afa15801561082f573d6000803e3d6000fd5b505050506040513d6000823e601f3d908101601f191682016040526108579190810190610af3565b815260048054604051634613d13560e01b81526020909301926001600160a01b0390911691634613d135916108949188918d91610bb89101610c1e565b60206040518083038186803b1580156108ac57600080fd5b505afa1580156108c0573d6000803e3d6000fd5b505050506040513d601f19601f820116820180604052508101906108e49190610ba2565b8152508484815181106108f357fe5b602090810291909101015250506001016107a1565b5092915050565b60008060005b6003548110156109db57600454600380546001600160a01b0390921691634613d13591908490811061094357fe5b6000918252602090912001546040516001600160e01b031960e084901b16815261097f916001600160a01b0316908890610bb890600401610c1e565b60206040518083038186803b15801561099757600080fd5b505afa1580156109ab573d6000803e3d6000fd5b505050506040513d601f19601f820116820180604052508101906109cf9190610ba2565b90910190600101610915565b5060035481816109e757fe5b049392505050565b7f000000000000000000000000000000000000000000000000000000000000000081565b7f000000000000000000000000000000000000000000000000000000000000000081565b6040805161010081018252600080825260208201819052918101829052606081018290526080810182905260a0810182905260c0810182905260e081019190915290565b604051806060016040528060006001600160a01b0316815260200160608152602001600081525090565b600060208284031215610ab6578081fd5b81356001600160a01b0381168114610acc578182fd5b9392505050565b600060208284031215610ae4578081fd5b81518015158114610acc578182fd5b600060208284031215610b04578081fd5b815167ffffffffffffffff80821115610b1b578283fd5b818401915084601f830112610b2e578283fd5b815181811115610b3a57fe5b604051601f8201601f191681016020018381118282101715610b5857fe5b604052818152838201602001871015610b6f578485fd5b610b80826020830160208701610da8565b9695505050505050565b600060208284031215610b9b578081fd5b5035919050565b600060208284031215610bb3578081fd5b5051919050565b60008151808452610bd2816020860160208601610da8565b601f01601f19169290920160200192915050565b6001600160a01b0391909116815260200190565b6001600160a01b039384168152919092166020820152604081019190915260600190565b6001600160a01b03938416815291909216602082015262ffffff909116604082015260600190565b60208082528251828201819052600091906040908185019080840286018301878501865b83811015610cc157888303603f19018552815180516001600160a01b0316845287810151606089860181905290610ca382870182610bba565b92890151958901959095525094870194925090860190600101610c6a565b509098975050505050505050565b600060208252610acc6020830184610bba565b60208082526024908201527f4e6f7420656e6f7567682066756e647320746f2061646420746f2074686520696040820152630dcc8caf60e31b606082015260800190565b81516001600160a01b03908116825260208084015182169083015260408084015162ffffff16908301526060808401518216908301526080808401519083015260a0838101519083015260c0808401519083015260e09283015116918101919091526101000190565b62ffffff91909116815260200190565b90815260200190565b60005b83811015610dc3578181015183820152602001610dab565b83811115610dd2576000848401525b5050505056fea264697066735822122002b0818d03075875192e1c4a7ffe6c6b3a18d79a0bd79f91e740cebea4c812d264736f6c634300070500336080604052600180546001600160a01b031916731f98431c8ad98523631ae4a59f267346ea31f98417905534801561003657600080fd5b5061032c806100466000396000f3fe608060405234801561001057600080fd5b506004361061002b5760003560e01c80634613d13514610030575b600080fd5b61004361003e3660046101bc565b610059565b60405161005091906102d5565b60405180910390f35b600154604051630b4c774160e11b815260009182916001600160a01b0390911690631698ee8290610092908890889088906004016102ad565b60206040518083038186803b1580156100aa57600080fd5b505afa1580156100be573d6000803e3d6000fd5b505050506040513d601f19601f820116820180604052508101906100e29190610199565b90506000816001600160a01b0316633850c7bd6040518163ffffffff1660e01b815260040160e06040518083038186803b15801561011f57600080fd5b505afa158015610133573d6000803e3d6000fd5b505050506040513d601f19601f82011682018060405250810190610157919061020d565b50505050506001600160a01b039091168002670de0b6b3a76400000260c01c93505050509392505050565b805161ffff8116811461019457600080fd5b919050565b6000602082840312156101aa578081fd5b81516101b5816102de565b9392505050565b6000806000606084860312156101d0578182fd5b83356101db816102de565b925060208401356101eb816102de565b9150604084013562ffffff81168114610202578182fd5b809150509250925092565b600080600080600080600060e0888a031215610227578283fd5b8751610232816102de565b8097505060208801518060020b8114610249578384fd5b955061025760408901610182565b945061026560608901610182565b935061027360808901610182565b925060a088015160ff81168114610288578283fd5b60c0890151909250801515811461029d578182fd5b8091505092959891949750929550565b6001600160a01b03938416815291909216602082015262ffffff909116604082015260600190565b90815260200190565b6001600160a01b03811681146102f357600080fd5b5056fea2646970667358221220a145a61ec31d9b4a33387e613ebbf4e8906abfbd25550f0a669cb6b0d0e2b60f64736f6c63430007050033608060405234801561001057600080fd5b506040516109b33803806109b38339818101604052608081101561003357600080fd5b81516020830180516040519294929383019291908464010000000082111561005a57600080fd5b90830190602082018581111561006f57600080fd5b825164010000000081118282018810171561008957600080fd5b82525081516020918201929091019080838360005b838110156100b657818101518382015260200161009e565b50505050905090810190601f1680156100e35780820380516001836020036101000a031916815260200191505b5060408181526020830151920180519294919391928464010000000082111561010b57600080fd5b90830190602082018581111561012057600080fd5b825164010000000081118282018810171561013a57600080fd5b82525081516020918201929091019080838360005b8381101561016757818101518382015260200161014f565b50505050905090810190601f1680156101945780820380516001836020036101000a031916815260200191505b506040908152336000908152602081815291812089905560025586516101c394506003935090870191506101f0565b506004805460ff191660ff841617905580516101e69060059060208401906101f0565b5050505050610291565b828054600181600116156101000203166002900490600052602060002090601f016020900481019282610226576000855561026c565b82601f1061023f57805160ff191683800117855561026c565b8280016001018555821561026c579182015b8281111561026c578251825591602001919060010190610251565b5061027892915061027c565b5090565b5b80821115610278576000815560010161027d565b610713806102a06000396000f3fe608060405234801561001057600080fd5b50600436106100a95760003560e01c8063313ce56711610071578063313ce567146101e15780635c658165146101ff57806370a082311461022d57806395d89b4114610253578063a9059cbb1461025b578063dd62ed3e14610287576100a9565b806306fdde03146100ae578063095ea7b31461012b57806318160ddd1461016b57806323b872dd1461018557806327e235e3146101bb575b600080fd5b6100b66102b5565b6040805160208082528351818301528351919283929083019185019080838360005b838110156100f05781810151838201526020016100d8565b50505050905090810190601f16801561011d5780820380516001836020036101000a031916815260200191505b509250505060405180910390f35b6101576004803603604081101561014157600080fd5b506001600160a01b038135169060200135610343565b604080519115158252519081900360200190f35b6101736103a9565b60408051918252519081900360200190f35b6101576004803603606081101561019b57600080fd5b506001600160a01b038135811691602081013590911690604001356103af565b610173600480360360208110156101d157600080fd5b50356001600160a01b03166104e2565b6101e96104f4565b6040805160ff9092168252519081900360200190f35b6101736004803603604081101561021557600080fd5b506001600160a01b03813581169160200135166104fd565b6101736004803603602081101561024357600080fd5b50356001600160a01b031661051a565b6100b6610535565b6101576004803603604081101561027157600080fd5b506001600160a01b038135169060200135610590565b6101736004803603604081101561029d57600080fd5b506001600160a01b038135811691602001351661064a565b6003805460408051602060026001851615610100026000190190941693909304601f8101849004840282018401909252818152929183018282801561033b5780601f106103105761010080835404028352916020019161033b565b820191906000526020600020905b81548152906001019060200180831161031e57829003601f168201915b505050505081565b3360008181526001602090815260408083206001600160a01b038716808552908352818420869055815186815291519394909390927f8c5be1e5ebec7d5bd14f71427d1e84f3dd0314c0f7b2291e5b200ac8c7c3b925928290030190a350600192915050565b60025481565b6001600160a01b03831660008181526001602090815260408083203384528252808320549383529082905281205490919083118015906103ef5750828110155b61042a5760405162461bcd60e51b81526004018080602001828103825260398152602001806106a56039913960400191505060405180910390fd5b6001600160a01b038085166000908152602081905260408082208054870190559187168152208054849003905560001981101561048c576001600160a01b03851660009081526001602090815260408083203384529091529020805484900390555b836001600160a01b0316856001600160a01b03167fddf252ad1be2c89b69c2b068fc378daa952ba7f163c4a11628f55a4df523b3ef856040518082815260200191505060405180910390a3506001949350505050565b60006020819052908152604090205481565b60045460ff1681565b600160209081526000928352604080842090915290825290205481565b6001600160a01b031660009081526020819052604090205490565b6005805460408051602060026001851615610100026000190190941693909304601f8101849004840282018401909252818152929183018282801561033b5780601f106103105761010080835404028352916020019161033b565b336000908152602081905260408120548211156105de5760405162461bcd60e51b815260040180806020018281038252602f815260200180610676602f913960400191505060405180910390fd5b33600081815260208181526040808320805487900390556001600160a01b03871680845292819020805487019055805186815290519293927fddf252ad1be2c89b69c2b068fc378daa952ba7f163c4a11628f55a4df523b3ef929181900390910190a350600192915050565b6001600160a01b0391821660009081526001602090815260408083209390941682529190915220549056fe746f6b656e2062616c616e6365206973206c6f776572207468616e207468652076616c756520726571756573746564746f6b656e2062616c616e6365206f7220616c6c6f77616e6365206973206c6f776572207468616e20616d6f756e7420726571756573746564a264697066735822122017c24565484d8a1abbbd2dcdc536821153113b39d7046d90604828e94a1a5d2b64736f6c63430007050033",
  "immutableReferences": {
    "2336": [
      {
        "length": 32,
        "start": 1033
      },
      {
        "length": 32,
        "start": 2581
      }
    ],
    "2363": [
      {
        "length": 32,
        "start": 797
      },
      {
        "length": 32,
        "start": 1687
      },
      {
        "length": 32,
        "start": 2545
      }
    ]
  },
  "source": "// SPDX-License-Identifier: MIT\npragma solidity >=0.7.5;\npragma abicoder v2;\n\nimport '@uniswap/v3-periphery/contracts/libraries/TransferHelper.sol';\nimport '@uniswap/v3-periphery/contracts/interfaces/ISwapRouter.sol';\nimport '@uniswap/v3-periphery/contracts/interfaces/IPeripheryPayments.sol';\nimport '@openzeppelin/contracts/token/ERC20/ERC20.sol';\n\nimport './PriceProtocol.sol';\nimport './IndexToken.sol';\n\n\ncontract BaseIndex {\n\n    uint256 public immutable minimalFundAddition;\n    uint256 public totalTokens;\n\n    string public name;\n    string public symbol;\n    address[] public tokenContracts;\n\n    uint24 public constant poolFee = 3000;\n    address private constant WETH = 0xC02aaA39b223FE8D0A0e5C4F27eAD9083C756Cc2;\n    ISwapRouter private constant uniswapRouter = ISwapRouter(0xE592427A0AEce92De3Edee1F18E0157C05861564);\n    PriceOracle private priceOracle = new PriceOracle();\n    IndexToken public immutable indexToken;\n\n    struct TokenPrice{\n        address token;\n        string name;\n        uint256 price;\n    }\n\n    constructor(\n        uint256 _initialAmount, string memory _tokenName,\n        uint8 _decimalUnits, string  memory _tokenSymbol,\n        uint _minimalFundAddition, string memory _indexName,\n        string memory _indexSymbol\n    ){\n        indexToken = new IndexToken(_initialAmount, _tokenName, _decimalUnits, _tokenSymbol);\n        minimalFundAddition = _minimalFundAddition;\n        name = _indexName;\n        symbol = _indexSymbol;\n    }\n\n    function getTokenPrices(address comparisonTokenAddress) public view returns (BaseIndex.TokenPrice[] memory) {\n        BaseIndex.TokenPrice[] memory tokenPrices = new BaseIndex.TokenPrice[](tokenContracts.length);\n\n        for (uint256 i = 0; i < tokenContracts.length; i++) {\n            address tokenAddress = tokenContracts[i];\n            ERC20 token = ERC20(tokenAddress);\n\n            tokenPrices[i] = BaseIndex.TokenPrice({\n                price: priceOracle.getPrice(tokenAddress, comparisonTokenAddress, poolFee),\n                name: token.symbol(),\n                token: tokenAddress\n            });\n        }\n\n        return tokenPrices;\n    }\n\n    function getIndexPrice(address comparisonTokenAddress) public view returns(uint){\n        uint indexPrice;\n\n        for (uint256 i = 0; i < tokenContracts.length; i++) {\n            indexPrice += priceOracle.getPrice(tokenContracts[i], comparisonTokenAddress, poolFee);\n        }\n\n        return indexPrice / tokenContracts.length;\n    }\n\n    function addFunds() public payable {\n        require(msg.value > minimalFundAddition, \"Not enough funds to add to the index\");\n\n        for (uint256 index = 0; index < tokenContracts.length; index++) {\n            uint _amountIn = msg.value / tokenContracts.length;\n            uint tokenPrice = priceOracle.getPrice(tokenContracts[index], WETH, poolFee);\n            uint amountOut = _amountIn * tokenPrice;\n\n            ISwapRouter.ExactInputSingleParams memory params = ISwapRouter.ExactInputSingleParams({\n                tokenIn: WETH,\n                tokenOut: tokenContracts[index],\n                fee: poolFee,\n                recipient: address(this),\n                deadline: block.timestamp,\n                amountIn: _amountIn,\n                amountOutMinimum: amountOut,\n                sqrtPriceLimitX96: 0\n            });\n\n            uniswapRouter.exactInputSingle{ value: msg.value }(params);   \n        }\n\n        uint tokensAmount = msg.value / getIndexPrice(WETH);\n        indexToken.transferFrom(address(this), msg.sender, tokensAmount);\n        totalTokens += tokensAmount;\n    }\n\n    receive() payable external {}\n\n    function getTVL(address comparisonTokenAddress) public view returns(uint256){\n        return totalTokens * getIndexPrice(comparisonTokenAddress);\n    }\n\n    function getMyTokensPrice(address comparisonTokenAddress) public view returns(uint256){\n        return indexToken.balanceOf(msg.sender) * getIndexPrice(comparisonTokenAddress);\n    }\n\n}\n",
  "sourcePath": "F:\\JavascriptProjects\\crypto-index\\contracts\\BaseIndex.sol",
  "compiler": {
    "name": "solc",
    "version": "0.7.5+commit.eb77ed08.Linux.g++"
  },
  "schemaVersion": "3.4.3",
  "updatedAt": "2022-03-09T10:36:06.516Z",
  "devdoc": {
    "kind": "dev",
    "methods": {},
    "version": 1
  },
  "userdoc": {
    "kind": "user",
    "methods": {},
    "version": 1
  }
}