{
  "contractName": "BaseIndex",
  "abi": [
    {
      "inputs": [],
      "stateMutability": "nonpayable",
      "type": "constructor"
    },
    {
      "anonymous": false,
      "inputs": [
        {
          "indexed": false,
          "internalType": "address",
          "name": "account",
          "type": "address"
        },
        {
          "indexed": false,
          "internalType": "uint256",
          "name": "debtAmount",
          "type": "uint256"
        }
      ],
      "name": "DebtRetrieval",
      "type": "event"
    },
    {
      "anonymous": false,
      "inputs": [
        {
          "indexed": true,
          "internalType": "address",
          "name": "previousOwner",
          "type": "address"
        },
        {
          "indexed": true,
          "internalType": "address",
          "name": "newOwner",
          "type": "address"
        }
      ],
      "name": "OwnershipTransferred",
      "type": "event"
    },
    {
      "anonymous": false,
      "inputs": [
        {
          "indexed": false,
          "internalType": "address",
          "name": "account",
          "type": "address"
        },
        {
          "indexed": false,
          "internalType": "uint256",
          "name": "buyTokenAmount",
          "type": "uint256"
        },
        {
          "indexed": false,
          "internalType": "uint256",
          "name": "indexTokenAmount",
          "type": "uint256"
        }
      ],
      "name": "ProductBuy",
      "type": "event"
    },
    {
      "anonymous": false,
      "inputs": [
        {
          "indexed": false,
          "internalType": "address",
          "name": "account",
          "type": "address"
        },
        {
          "indexed": false,
          "internalType": "uint256",
          "name": "buyTokenAmount",
          "type": "uint256"
        },
        {
          "indexed": false,
          "internalType": "uint256",
          "name": "indexTokenAmount",
          "type": "uint256"
        }
      ],
      "name": "ProductSell",
      "type": "event"
    },
    {
      "inputs": [],
      "name": "buyTokenAddress",
      "outputs": [
        {
          "internalType": "address",
          "name": "",
          "type": "address"
        }
      ],
      "stateMutability": "view",
      "type": "function"
    },
    {
      "inputs": [],
      "name": "indexToken",
      "outputs": [
        {
          "internalType": "contract IndexToken",
          "name": "",
          "type": "address"
        }
      ],
      "stateMutability": "view",
      "type": "function"
    },
    {
      "inputs": [],
      "name": "owner",
      "outputs": [
        {
          "internalType": "address",
          "name": "",
          "type": "address"
        }
      ],
      "stateMutability": "view",
      "type": "function"
    },
    {
      "inputs": [],
      "name": "renounceOwnership",
      "outputs": [],
      "stateMutability": "nonpayable",
      "type": "function"
    },
    {
      "inputs": [
        {
          "internalType": "uint256",
          "name": "",
          "type": "uint256"
        }
      ],
      "name": "tokens",
      "outputs": [
        {
          "internalType": "uint8",
          "name": "indexPercentage",
          "type": "uint8"
        },
        {
          "internalType": "uint24",
          "name": "poolFee",
          "type": "uint24"
        },
        {
          "internalType": "address",
          "name": "tokenAddress",
          "type": "address"
        },
        {
          "internalType": "address",
          "name": "priceOracleAddress",
          "type": "address"
        }
      ],
      "stateMutability": "view",
      "type": "function"
    },
    {
      "inputs": [],
      "name": "tokensToBuy",
      "outputs": [
        {
          "internalType": "uint256",
          "name": "",
          "type": "uint256"
        }
      ],
      "stateMutability": "view",
      "type": "function"
    },
    {
      "inputs": [],
      "name": "tokensToSell",
      "outputs": [
        {
          "internalType": "uint256",
          "name": "",
          "type": "uint256"
        }
      ],
      "stateMutability": "view",
      "type": "function"
    },
    {
      "inputs": [
        {
          "internalType": "address",
          "name": "newOwner",
          "type": "address"
        }
      ],
      "name": "transferOwnership",
      "outputs": [],
      "stateMutability": "nonpayable",
      "type": "function"
    },
    {
      "inputs": [
        {
          "internalType": "address",
          "name": "",
          "type": "address"
        }
      ],
      "name": "usersDebt",
      "outputs": [
        {
          "internalType": "uint256",
          "name": "",
          "type": "uint256"
        }
      ],
      "stateMutability": "view",
      "type": "function"
    },
    {
      "inputs": [],
      "name": "name",
      "outputs": [
        {
          "internalType": "string",
          "name": "",
          "type": "string"
        }
      ],
      "stateMutability": "pure",
      "type": "function"
    },
    {
      "inputs": [],
      "name": "symbol",
      "outputs": [
        {
          "internalType": "string",
          "name": "",
          "type": "string"
        }
      ],
      "stateMutability": "pure",
      "type": "function"
    },
    {
      "inputs": [],
      "name": "shortDescription",
      "outputs": [
        {
          "internalType": "string",
          "name": "",
          "type": "string"
        }
      ],
      "stateMutability": "pure",
      "type": "function"
    },
    {
      "inputs": [],
      "name": "longDescription",
      "outputs": [
        {
          "internalType": "string",
          "name": "",
          "type": "string"
        }
      ],
      "stateMutability": "pure",
      "type": "function"
    },
    {
      "inputs": [],
      "name": "getComponents",
      "outputs": [
        {
          "components": [
            {
              "internalType": "uint8",
              "name": "indexPercentage",
              "type": "uint8"
            },
            {
              "internalType": "uint24",
              "name": "poolFee",
              "type": "uint24"
            },
            {
              "internalType": "address",
              "name": "tokenAddress",
              "type": "address"
            },
            {
              "internalType": "address",
              "name": "priceOracleAddress",
              "type": "address"
            }
          ],
          "internalType": "struct BaseIndex.TokenInfo[]",
          "name": "",
          "type": "tuple[]"
        }
      ],
      "stateMutability": "view",
      "type": "function"
    },
    {
      "inputs": [
        {
          "internalType": "address",
          "name": "tokenOracleAddress",
          "type": "address"
        }
      ],
      "name": "getTokenPrice",
      "outputs": [
        {
          "internalType": "uint256",
          "name": "",
          "type": "uint256"
        }
      ],
      "stateMutability": "view",
      "type": "function"
    },
    {
      "inputs": [],
      "name": "image",
      "outputs": [
        {
          "internalType": "string",
          "name": "",
          "type": "string"
        }
      ],
      "stateMutability": "pure",
      "type": "function"
    },
    {
      "inputs": [],
      "name": "getTotalLockedValue",
      "outputs": [
        {
          "internalType": "uint256",
          "name": "",
          "type": "uint256"
        }
      ],
      "stateMutability": "view",
      "type": "function"
    },
    {
      "inputs": [
        {
          "internalType": "uint256",
          "name": "amount",
          "type": "uint256"
        }
      ],
      "name": "buy",
      "outputs": [],
      "stateMutability": "nonpayable",
      "type": "function"
    },
    {
      "inputs": [
        {
          "internalType": "uint256",
          "name": "amount",
          "type": "uint256"
        }
      ],
      "name": "retrieveDebt",
      "outputs": [],
      "stateMutability": "nonpayable",
      "type": "function"
    },
    {
      "inputs": [
        {
          "internalType": "uint256",
          "name": "amount",
          "type": "uint256"
        }
      ],
      "name": "sell",
      "outputs": [],
      "stateMutability": "nonpayable",
      "type": "function"
    },
    {
      "inputs": [
        {
          "internalType": "address",
          "name": "tokenAddress",
          "type": "address"
        }
      ],
      "name": "buyToken",
      "outputs": [],
      "stateMutability": "nonpayable",
      "type": "function"
    },
    {
      "inputs": [
        {
          "internalType": "address",
          "name": "tokenAddress",
          "type": "address"
        }
      ],
      "name": "sellToken",
      "outputs": [],
      "stateMutability": "nonpayable",
      "type": "function"
    },
    {
      "inputs": [],
      "name": "getPrice",
      "outputs": [
        {
          "internalType": "uint256",
          "name": "",
          "type": "uint256"
        }
      ],
      "stateMutability": "view",
      "type": "function"
    }
  ],
  "bytecode": "0x60a06040523480156200001157600080fd5b506000620000246200192660201b60201c565b9050806000806101000a81548173ffffffffffffffffffffffffffffffffffffffff021916908373ffffffffffffffffffffffffffffffffffffffff1602179055508073ffffffffffffffffffffffffffffffffffffffff16600073ffffffffffffffffffffffffffffffffffffffff167f8be0079c531659141344cd1fd0a4f28419497f9722a3daafe3b4186f6b6457e060405160405180910390a35073e592427a0aece92de3edee1f18e0157c0586156473ffffffffffffffffffffffffffffffffffffffff1660808173ffffffffffffffffffffffffffffffffffffffff1660601b81525050736b175474e89094c44da98b954eedeac495271d0f600160006101000a81548173ffffffffffffffffffffffffffffffffffffffff021916908373ffffffffffffffffffffffffffffffffffffffff1602179055506005600160146101000a81548160ff021916908360ff1602179055506103e86002819055506064600381905550306012604051620001a0906200192e565b620001ad929190620019f0565b604051809103906000f080158015620001ca573d6000803e3d6000fd5b50600660006101000a81548173ffffffffffffffffffffffffffffffffffffffff021916908373ffffffffffffffffffffffffffffffffffffffff16021790555060405162000219906200193c565b604051809103906000f08015801562000236573d6000803e3d6000fd5b50600560006101000a81548173ffffffffffffffffffffffffffffffffffffffff021916908373ffffffffffffffffffffffffffffffffffffffff16021790555060008060146101000a81548160ff02191690831515021790555060046040518060800160405280600560ff168152602001610bb862ffffff16815260200173c02aaa39b223fe8d0a0e5c4f27ead9083c756cc273ffffffffffffffffffffffffffffffffffffffff168152602001735f4ec3df9cbd43714fe2740f5e3616155c5b841973ffffffffffffffffffffffffffffffffffffffff16815250908060018154018082558091505060019003906000526020600020906002020160009091909190915060008201518160000160006101000a81548160ff021916908360ff16021790555060208201518160000160016101000a81548162ffffff021916908362ffffff16021790555060408201518160000160046101000a81548173ffffffffffffffffffffffffffffffffffffffff021916908373ffffffffffffffffffffffffffffffffffffffff16021790555060608201518160010160006101000a81548173ffffffffffffffffffffffffffffffffffffffff021916908373ffffffffffffffffffffffffffffffffffffffff160217905550505060046040518060800160405280600560ff168152602001610bb862ffffff16815260200173514910771af9ca656af840dff83e8264ecf986ca73ffffffffffffffffffffffffffffffffffffffff168152602001732c1d072e956affc0d435cb7ac38ef18d24d9127c73ffffffffffffffffffffffffffffffffffffffff16815250908060018154018082558091505060019003906000526020600020906002020160009091909190915060008201518160000160006101000a81548160ff021916908360ff16021790555060208201518160000160016101000a81548162ffffff021916908362ffffff16021790555060408201518160000160046101000a81548173ffffffffffffffffffffffffffffffffffffffff021916908373ffffffffffffffffffffffffffffffffffffffff16021790555060608201518160010160006101000a81548173ffffffffffffffffffffffffffffffffffffffff021916908373ffffffffffffffffffffffffffffffffffffffff160217905550505060046040518060800160405280600560ff168152602001610bb862ffffff16815260200173418d75f65a02b3d53b2418fb8e1fe493759c760573ffffffffffffffffffffffffffffffffffffffff1681526020017314e613ac84a31f709eadbdf89c6cc390fdc9540a73ffffffffffffffffffffffffffffffffffffffff16815250908060018154018082558091505060019003906000526020600020906002020160009091909190915060008201518160000160006101000a81548160ff021916908360ff16021790555060208201518160000160016101000a81548162ffffff021916908362ffffff16021790555060408201518160000160046101000a81548173ffffffffffffffffffffffffffffffffffffffff021916908373ffffffffffffffffffffffffffffffffffffffff16021790555060608201518160010160006101000a81548173ffffffffffffffffffffffffffffffffffffffff021916908373ffffffffffffffffffffffffffffffffffffffff160217905550505060046040518060800160405280600560ff168152602001610bb862ffffff168152602001731f9840a85d5af5bf1d1762f925bdaddc4201f98473ffffffffffffffffffffffffffffffffffffffff16815260200173553303d460ee0afb37edff9be42922d8ff63220e73ffffffffffffffffffffffffffffffffffffffff16815250908060018154018082558091505060019003906000526020600020906002020160009091909190915060008201518160000160006101000a81548160ff021916908360ff16021790555060208201518160000160016101000a81548162ffffff021916908362ffffff16021790555060408201518160000160046101000a81548173ffffffffffffffffffffffffffffffffffffffff021916908373ffffffffffffffffffffffffffffffffffffffff16021790555060608201518160010160006101000a81548173ffffffffffffffffffffffffffffffffffffffff021916908373ffffffffffffffffffffffffffffffffffffffff160217905550505060046040518060800160405280600560ff168152602001610bb862ffffff16815260200173111111111117dc0aa78b770fa6a738034120c30273ffffffffffffffffffffffffffffffffffffffff16815260200173c929ad75b72593967de83e7f7cda0493458261d973ffffffffffffffffffffffffffffffffffffffff16815250908060018154018082558091505060019003906000526020600020906002020160009091909190915060008201518160000160006101000a81548160ff021916908360ff16021790555060208201518160000160016101000a81548162ffffff021916908362ffffff16021790555060408201518160000160046101000a81548173ffffffffffffffffffffffffffffffffffffffff021916908373ffffffffffffffffffffffffffffffffffffffff16021790555060608201518160010160006101000a81548173ffffffffffffffffffffffffffffffffffffffff021916908373ffffffffffffffffffffffffffffffffffffffff160217905550505060046040518060800160405280600560ff168152602001610bb862ffffff16815260200173c011a73ee8576fb46f5e1c5751ca3b9fe0af2a6f73ffffffffffffffffffffffffffffffffffffffff16815260200173dc3ea94cd0ac27d9a86c180091e7f78c683d369973ffffffffffffffffffffffffffffffffffffffff16815250908060018154018082558091505060019003906000526020600020906002020160009091909190915060008201518160000160006101000a81548160ff021916908360ff16021790555060208201518160000160016101000a81548162ffffff021916908362ffffff16021790555060408201518160000160046101000a81548173ffffffffffffffffffffffffffffffffffffffff021916908373ffffffffffffffffffffffffffffffffffffffff16021790555060608201518160010160006101000a81548173ffffffffffffffffffffffffffffffffffffffff021916908373ffffffffffffffffffffffffffffffffffffffff160217905550505060046040518060800160405280600560ff168152602001610bb862ffffff168152602001730bc529c00c6401aef6d220be8c6ea1667f6ad93e73ffffffffffffffffffffffffffffffffffffffff16815260200173a027702dbb89fbd58938e4324ac03b58d812b0e173ffffffffffffffffffffffffffffffffffffffff16815250908060018154018082558091505060019003906000526020600020906002020160009091909190915060008201518160000160006101000a81548160ff021916908360ff16021790555060208201518160000160016101000a81548162ffffff021916908362ffffff16021790555060408201518160000160046101000a81548173ffffffffffffffffffffffffffffffffffffffff021916908373ffffffffffffffffffffffffffffffffffffffff16021790555060608201518160010160006101000a81548173ffffffffffffffffffffffffffffffffffffffff021916908373ffffffffffffffffffffffffffffffffffffffff160217905550505060046040518060800160405280600560ff168152602001610bb862ffffff16815260200173c00e94cb662c3520282e6f5717214004a7f2688873ffffffffffffffffffffffffffffffffffffffff16815260200173dbd020caef83efd542f4de03e3cf0c28a4428bd573ffffffffffffffffffffffffffffffffffffffff16815250908060018154018082558091505060019003906000526020600020906002020160009091909190915060008201518160000160006101000a81548160ff021916908360ff16021790555060208201518160000160016101000a81548162ffffff021916908362ffffff16021790555060408201518160000160046101000a81548173ffffffffffffffffffffffffffffffffffffffff021916908373ffffffffffffffffffffffffffffffffffffffff16021790555060608201518160010160006101000a81548173ffffffffffffffffffffffffffffffffffffffff021916908373ffffffffffffffffffffffffffffffffffffffff160217905550505060046040518060800160405280600560ff168152602001610bb862ffffff168152602001739f8f72aa9304c8b593d555f12ef6589cc3a579a273ffffffffffffffffffffffffffffffffffffffff16815260200173ec1d1b3b0443256cc3860e24a46f108e699484aa73ffffffffffffffffffffffffffffffffffffffff16815250908060018154018082558091505060019003906000526020600020906002020160009091909190915060008201518160000160006101000a81548160ff021916908360ff16021790555060208201518160000160016101000a81548162ffffff021916908362ffffff16021790555060408201518160000160046101000a81548173ffffffffffffffffffffffffffffffffffffffff021916908373ffffffffffffffffffffffffffffffffffffffff16021790555060608201518160010160006101000a81548173ffffffffffffffffffffffffffffffffffffffff021916908373ffffffffffffffffffffffffffffffffffffffff160217905550505060046040518060800160405280600560ff168152602001610bb862ffffff168152602001736b3595068778dd592e39a122f4f5a5cf09c90fe273ffffffffffffffffffffffffffffffffffffffff16815260200173cc70f09a6cc17553b2e31954cd36e4a2d89501f773ffffffffffffffffffffffffffffffffffffffff16815250908060018154018082558091505060019003906000526020600020906002020160009091909190915060008201518160000160006101000a81548160ff021916908360ff16021790555060208201518160000160016101000a81548162ffffff021916908362ffffff16021790555060408201518160000160046101000a81548173ffffffffffffffffffffffffffffffffffffffff021916908373ffffffffffffffffffffffffffffffffffffffff16021790555060608201518160010160006101000a81548173ffffffffffffffffffffffffffffffffffffffff021916908373ffffffffffffffffffffffffffffffffffffffff160217905550505060046040518060800160405280600560ff168152602001610bb862ffffff16815260200173ae9e8333a1bc59751e566bc43c91b48477eb41df73ffffffffffffffffffffffffffffffffffffffff16815260200173ced2660c6dd1ffd856a5a82c67f3482d88c50b1273ffffffffffffffffffffffffffffffffffffffff16815250908060018154018082558091505060019003906000526020600020906002020160009091909190915060008201518160000160006101000a81548160ff021916908360ff16021790555060208201518160000160016101000a81548162ffffff021916908362ffffff16021790555060408201518160000160046101000a81548173ffffffffffffffffffffffffffffffffffffffff021916908373ffffffffffffffffffffffffffffffffffffffff16021790555060608201518160010160006101000a81548173ffffffffffffffffffffffffffffffffffffffff021916908373ffffffffffffffffffffffffffffffffffffffff160217905550505060046040518060800160405280600560ff168152602001610bb862ffffff16815260200173d533a949740bb3306d119cc777fa900ba034cd5273ffffffffffffffffffffffffffffffffffffffff16815260200173cd627aa160a6fa45eb793d19ef54f5062f20f33f73ffffffffffffffffffffffffffffffffffffffff16815250908060018154018082558091505060019003906000526020600020906002020160009091909190915060008201518160000160006101000a81548160ff021916908360ff16021790555060208201518160000160016101000a81548162ffffff021916908362ffffff16021790555060408201518160000160046101000a81548173ffffffffffffffffffffffffffffffffffffffff021916908373ffffffffffffffffffffffffffffffffffffffff16021790555060608201518160010160006101000a81548173ffffffffffffffffffffffffffffffffffffffff021916908373ffffffffffffffffffffffffffffffffffffffff160217905550505060046040518060800160405280600560ff168152602001610bb862ffffff168152602001736f259637dcd74c767781e37bc6133cd6a68aa16173ffffffffffffffffffffffffffffffffffffffff16815260200173e1329b3f6513912caf589659777b66011aee588073ffffffffffffffffffffffffffffffffffffffff16815250908060018154018082558091505060019003906000526020600020906002020160009091909190915060008201518160000160006101000a81548160ff021916908360ff16021790555060208201518160000160016101000a81548162ffffff021916908362ffffff16021790555060408201518160000160046101000a81548173ffffffffffffffffffffffffffffffffffffffff021916908373ffffffffffffffffffffffffffffffffffffffff16021790555060608201518160010160006101000a81548173ffffffffffffffffffffffffffffffffffffffff021916908373ffffffffffffffffffffffffffffffffffffffff160217905550505060046040518060800160405280600560ff168152602001610bb862ffffff168152602001731f573d6fb3f13d689ff844b4ce37794d79a7ff1c73ffffffffffffffffffffffffffffffffffffffff168152602001731e6cf0d433de4fe882a437abc654f58e1e78548c73ffffffffffffffffffffffffffffffffffffffff16815250908060018154018082558091505060019003906000526020600020906002020160009091909190915060008201518160000160006101000a81548160ff021916908360ff16021790555060208201518160000160016101000a81548162ffffff021916908362ffffff16021790555060408201518160000160046101000a81548173ffffffffffffffffffffffffffffffffffffffff021916908373ffffffffffffffffffffffffffffffffffffffff16021790555060608201518160010160006101000a81548173ffffffffffffffffffffffffffffffffffffffff021916908373ffffffffffffffffffffffffffffffffffffffff160217905550505060046040518060800160405280600560ff168152602001610bb862ffffff16815260200173e28b3b32b6c345a34ff64674606124dd5aceca3073ffffffffffffffffffffffffffffffffffffffff16815260200173ae2ebe3c4d20ce13ce47cbb49b6d7ee631cd816e73ffffffffffffffffffffffffffffffffffffffff16815250908060018154018082558091505060019003906000526020600020906002020160009091909190915060008201518160000160006101000a81548160ff021916908360ff16021790555060208201518160000160016101000a81548162ffffff021916908362ffffff16021790555060408201518160000160046101000a81548173ffffffffffffffffffffffffffffffffffffffff021916908373ffffffffffffffffffffffffffffffffffffffff16021790555060608201518160010160006101000a81548173ffffffffffffffffffffffffffffffffffffffff021916908373ffffffffffffffffffffffffffffffffffffffff160217905550505062001aad565b600033905090565b6112e9806200481c83390190565b6101a68062005b0583390190565b620019558162001a58565b82525050565b620019668162001a99565b82525050565b60006200197b60078362001a47565b91507f43525950544958000000000000000000000000000000000000000000000000006000830152602082019050919050565b6000620019bd60128362001a47565b91507f43727970746f20696e64657820746f6b656e00000000000000000000000000006000830152602082019050919050565b600060808201905062001a0760008301856200194a565b818103602083015262001a1a81620019ae565b905062001a2b60408301846200195b565b818103606083015262001a3e816200196c565b90509392505050565b600082825260208201905092915050565b600062001a658262001a6c565b9050919050565b600073ffffffffffffffffffffffffffffffffffffffff82169050919050565b600060ff82169050919050565b600062001aa68262001a8c565b9050919050565b60805160601c612d4262001ada6000398061093f52806109c552806118b7528061191f5250612d426000f3fe608060405234801561001057600080fd5b506004361061011d5760003560e01c806306fdde03146101225780631da989601461014057806339cb683d1461015e5780633d9566911461017a5780634f64b2be1461019857806360ebbf81146101cb578063715018a6146101e95780637e72fb52146101f35780638da5cb5b1461020f5780638e96347b1461022d57806395d89b411461024b57806398d5fdca1461026957806399d50d5d14610287578063b7597914146102a5578063ba25d944146102c3578063d02641a0146102e1578063d96a094a14610311578063e4849b321461032d578063e7d015f214610349578063eab2995314610367578063ef5bf5c814610383578063f2fde38b146103b3578063f3ccaac0146103cf575b600080fd5b61012a6103ed565b6040516101379190612982565b60405180910390f35b61014861042a565b6040516101559190612982565b60405180910390f35b6101786004803603810190610173919061249e565b61044a565b005b610182610657565b60405161018f9190612a60565b60405180910390f35b6101b260048036038101906101ad919061249e565b61065d565b6040516101c29493929190612a7b565b60405180910390f35b6101d36106f9565b6040516101e091906128a1565b60405180910390f35b6101f161071f565b005b61020d6004803603810190610208919061244c565b61088c565b005b610217610bf4565b60405161022491906128a1565b60405180910390f35b610235610c1d565b6040516102429190612a60565b60405180910390f35b610253610c23565b6040516102609190612982565b60405180910390f35b610271610c60565b60405161027e9190612a60565b60405180910390f35b61028f610e7c565b60405161029c9190612945565b60405180910390f35b6102ad610fc7565b6040516102ba9190612a60565b60405180910390f35b6102cb611253565b6040516102d89190612982565b60405180910390f35b6102fb60048036038101906102f6919061244c565b611273565b6040516103089190612a60565b60405180910390f35b61032b6004803603810190610326919061249e565b611327565b005b6103476004803603810190610342919061249e565b61158b565b005b6103516117de565b60405161035e9190612967565b60405180910390f35b610381600480360381019061037c919061244c565b611804565b005b61039d6004803603810190610398919061244c565b611b47565b6040516103aa9190612a60565b60405180910390f35b6103cd60048036038101906103c8919061244c565b611b5f565b005b6103d7611d51565b6040516103e49190612982565b60405180910390f35b60606040518060400160405280600b81526020017f43727970746f496e646578000000000000000000000000000000000000000000815250905090565b6060604051806080016040528060498152602001612cc460499139905090565b600060149054906101000a900460ff161561049a576040517f08c379a000000000000000000000000000000000000000000000000000000000815260040161049190612a04565b60405180910390fd5b600081600960003373ffffffffffffffffffffffffffffffffffffffff1673ffffffffffffffffffffffffffffffffffffffff16815260200190815260200160002054031161051e576040517f08c379a0000000000000000000000000000000000000000000000000000000008152600401610515906129c4565b60405180910390fd5b80600960003373ffffffffffffffffffffffffffffffffffffffff1673ffffffffffffffffffffffffffffffffffffffff16815260200190815260200160002060008282540392505081905550600160009054906101000a900473ffffffffffffffffffffffffffffffffffffffff1673ffffffffffffffffffffffffffffffffffffffff1663a9059cbb33836040518363ffffffff1660e01b81526004016105c89291906128bc565b602060405180830381600087803b1580156105e257600080fd5b505af11580156105f6573d6000803e3d6000fd5b505050506040513d601f19601f8201168201806040525081019061061a9190612475565b507f33655115266a5ef63f6b804594fd41ca26be3cebaf41059df994cd6f24de1bae338260405161064c9291906128bc565b60405180910390a150565b60075481565b6004818154811061066d57600080fd5b90600052602060002090600202016000915090508060000160009054906101000a900460ff16908060000160019054906101000a900462ffffff16908060000160049054906101000a900473ffffffffffffffffffffffffffffffffffffffff16908060010160009054906101000a900473ffffffffffffffffffffffffffffffffffffffff16905084565b600160009054906101000a900473ffffffffffffffffffffffffffffffffffffffff1681565b610727611d71565b73ffffffffffffffffffffffffffffffffffffffff16610745610bf4565b73ffffffffffffffffffffffffffffffffffffffff16146107ce576040517f08c379a00000000000000000000000000000000000000000000000000000000081526004018080602001828103825260208152602001807f4f776e61626c653a2063616c6c6572206973206e6f7420746865206f776e657281525060200191505060405180910390fd5b600073ffffffffffffffffffffffffffffffffffffffff1660008054906101000a900473ffffffffffffffffffffffffffffffffffffffff1673ffffffffffffffffffffffffffffffffffffffff167f8be0079c531659141344cd1fd0a4f28419497f9722a3daafe3b4186f6b6457e060405160405180910390a360008060006101000a81548173ffffffffffffffffffffffffffffffffffffffff021916908373ffffffffffffffffffffffffffffffffffffffff160217905550565b610894611d71565b73ffffffffffffffffffffffffffffffffffffffff166108b2610bf4565b73ffffffffffffffffffffffffffffffffffffffff161461093b576040517f08c379a00000000000000000000000000000000000000000000000000000000081526004018080602001828103825260208152602001807f4f776e61626c653a2063616c6c6572206973206e6f7420746865206f776e657281525060200191505060405180910390fd5b60007f0000000000000000000000000000000000000000000000000000000000000000905061096861239c565b61097183611d79565b90506000816000015160ff1660646008548161098957fe5b04029050806008600082825403925050819055506109ea600160009054906101000a900473ffffffffffffffffffffffffffffffffffffffff167f000000000000000000000000000000000000000000000000000000000000000083611f3e565b8273ffffffffffffffffffffffffffffffffffffffff1663414bf389604051806101000160405280600160009054906101000a900473ffffffffffffffffffffffffffffffffffffffff1673ffffffffffffffffffffffffffffffffffffffff168152602001856040015173ffffffffffffffffffffffffffffffffffffffff168152602001856020015162ffffff1681526020013073ffffffffffffffffffffffffffffffffffffffff168152602001428152602001848152602001600560009054906101000a900473ffffffffffffffffffffffffffffffffffffffff1673ffffffffffffffffffffffffffffffffffffffff166341976e0987606001516040518263ffffffff1660e01b8152600401610b0691906128a1565b60206040518083038186803b158015610b1e57600080fd5b505afa158015610b32573d6000803e3d6000fd5b505050506040513d601f19601f82011682018060405250810190610b5691906124c7565b8581610b5e57fe5b048152602001600073ffffffffffffffffffffffffffffffffffffffff168152506040518263ffffffff1660e01b8152600401610b9b9190612a44565b602060405180830381600087803b158015610bb557600080fd5b505af1158015610bc9573d6000803e3d6000fd5b505050506040513d601f19601f82011682018060405250810190610bed91906124c7565b5050505050565b60008060009054906101000a900473ffffffffffffffffffffffffffffffffffffffff16905090565b60085481565b60606040518060400160405280600781526020017f4352595054495800000000000000000000000000000000000000000000000000815250905090565b60008060005b600480549050811015610e6957610c7b61239c565b60048281548110610c8857fe5b90600052602060002090600202016040518060800160405290816000820160009054906101000a900460ff1660ff1660ff1681526020016000820160019054906101000a900462ffffff1662ffffff1662ffffff1681526020016000820160049054906101000a900473ffffffffffffffffffffffffffffffffffffffff1673ffffffffffffffffffffffffffffffffffffffff1673ffffffffffffffffffffffffffffffffffffffff1681526020016001820160009054906101000a900473ffffffffffffffffffffffffffffffffffffffff1673ffffffffffffffffffffffffffffffffffffffff1673ffffffffffffffffffffffffffffffffffffffff168152505090506000600560009054906101000a900473ffffffffffffffffffffffffffffffffffffffff1673ffffffffffffffffffffffffffffffffffffffff166341976e0983606001516040518263ffffffff1660e01b8152600401610df091906128a1565b60206040518083038186803b158015610e0857600080fd5b505afa158015610e1c573d6000803e3d6000fd5b505050506040513d601f19601f82011682018060405250810190610e4091906124c7565b9050816000015160ff1660648281610e5457fe5b04028401935050508080600101915050610c66565b506003548181610e7557fe5b0491505090565b60606004805480602002602001604051908101604052809291908181526020016000905b82821015610fbe57838290600052602060002090600202016040518060800160405290816000820160009054906101000a900460ff1660ff1660ff1681526020016000820160019054906101000a900462ffffff1662ffffff1662ffffff1681526020016000820160049054906101000a900473ffffffffffffffffffffffffffffffffffffffff1673ffffffffffffffffffffffffffffffffffffffff1673ffffffffffffffffffffffffffffffffffffffff1681526020016001820160009054906101000a900473ffffffffffffffffffffffffffffffffffffffff1673ffffffffffffffffffffffffffffffffffffffff1673ffffffffffffffffffffffffffffffffffffffff168152505081526020019060010190610ea0565b50505050905090565b60008060005b60048054905081101561124b57610fe261239c565b60048281548110610fef57fe5b90600052602060002090600202016040518060800160405290816000820160009054906101000a900460ff1660ff1660ff1681526020016000820160019054906101000a900462ffffff1662ffffff1662ffffff1681526020016000820160049054906101000a900473ffffffffffffffffffffffffffffffffffffffff1673ffffffffffffffffffffffffffffffffffffffff1673ffffffffffffffffffffffffffffffffffffffff1681526020016001820160009054906101000a900473ffffffffffffffffffffffffffffffffffffffff1673ffffffffffffffffffffffffffffffffffffffff1673ffffffffffffffffffffffffffffffffffffffff16815250509050600081604001519050600560009054906101000a900473ffffffffffffffffffffffffffffffffffffffff1673ffffffffffffffffffffffffffffffffffffffff166341976e0983606001516040518263ffffffff1660e01b815260040161115e91906128a1565b60206040518083038186803b15801561117657600080fd5b505afa15801561118a573d6000803e3d6000fd5b505050506040513d601f19601f820116820180604052508101906111ae91906124c7565b8173ffffffffffffffffffffffffffffffffffffffff166370a08231306040518263ffffffff1660e01b81526004016111e791906128a1565b60206040518083038186803b1580156111ff57600080fd5b505afa158015611213573d6000803e3d6000fd5b505050506040513d601f19601f8201168201806040525081019061123791906124c7565b028401935050508080600101915050610fcd565b508091505090565b6060604051806080016040528060498152602001612cc460499139905090565b6000600560009054906101000a900473ffffffffffffffffffffffffffffffffffffffff1673ffffffffffffffffffffffffffffffffffffffff166341976e09836040518263ffffffff1660e01b81526004016112d091906128a1565b60206040518083038186803b1580156112e857600080fd5b505afa1580156112fc573d6000803e3d6000fd5b505050506040513d601f19601f8201168201806040525081019061132091906124c7565b9050919050565b6000611331610c60565b905060008061133f84612140565b91509150806008600082825401925050819055506000670de0b6b3a764000084838161136757fe5b04029050600081116113ae576040517f08c379a00000000000000000000000000000000000000000000000000000000081526004016113a5906129e4565b60405180910390fd5b6113dc600160009054906101000a900473ffffffffffffffffffffffffffffffffffffffff1633308861217b565b6000600160009054906101000a900473ffffffffffffffffffffffffffffffffffffffff1690508073ffffffffffffffffffffffffffffffffffffffff1663a9059cbb611427610bf4565b866040518363ffffffff1660e01b815260040161144592919061291c565b602060405180830381600087803b15801561145f57600080fd5b505af1158015611473573d6000803e3d6000fd5b505050506040513d601f19601f820116820180604052508101906114979190612475565b50600660009054906101000a900473ffffffffffffffffffffffffffffffffffffffff1673ffffffffffffffffffffffffffffffffffffffff1663a9059cbb33846040518363ffffffff1660e01b81526004016114f59291906128bc565b602060405180830381600087803b15801561150f57600080fd5b505af1158015611523573d6000803e3d6000fd5b505050506040513d601f19601f820116820180604052508101906115479190612475565b507f7ebc3084985b670898d058ca18fa1d6811ad46c72d545dc0af08c8946daaeb2133848460405161157b939291906128e5565b60405180910390a1505050505050565b600060149054906101000a900460ff16156115db576040517f08c379a00000000000000000000000000000000000000000000000000000000081526004016115d290612a04565b60405180910390fd5b670de0b6b3a7640000811015611626576040517f08c379a000000000000000000000000000000000000000000000000000000000815260040161161d90612a24565b60405180910390fd5b60008061163283612140565b91509150611664600660009054906101000a900473ffffffffffffffffffffffffffffffffffffffff1633308661217b565b600660009054906101000a900473ffffffffffffffffffffffffffffffffffffffff1673ffffffffffffffffffffffffffffffffffffffff1663a9059cbb6116aa610bf4565b846040518363ffffffff1660e01b81526004016116c892919061291c565b602060405180830381600087803b1580156116e257600080fd5b505af11580156116f6573d6000803e3d6000fd5b505050506040513d601f19601f8201168201806040525081019061171a9190612475565b506000611725610c60565b9050816007600082825401925050819055506000670de0b6b3a76400008284028161174c57fe5b04905080600960003373ffffffffffffffffffffffffffffffffffffffff1673ffffffffffffffffffffffffffffffffffffffff168152602001908152602001600020600082825401925050819055507f0d5a45cf7c9a0539a08a127c07e40d3d3b07823e2c09638a6415b83e59b2d9043382856040516117cf939291906128e5565b60405180910390a15050505050565b600660009054906101000a900473ffffffffffffffffffffffffffffffffffffffff1681565b61180c611d71565b73ffffffffffffffffffffffffffffffffffffffff1661182a610bf4565b73ffffffffffffffffffffffffffffffffffffffff16146118b3576040517f08c379a00000000000000000000000000000000000000000000000000000000081526004018080602001828103825260208152602001807f4f776e61626c653a2063616c6c6572206973206e6f7420746865206f776e657281525060200191505060405180910390fd5b60007f000000000000000000000000000000000000000000000000000000000000000090506118e061239c565b6118e983611d79565b90506000816000015160ff1660646007548161190157fe5b040290508060076000828254039250508190555061194482604001517f000000000000000000000000000000000000000000000000000000000000000083611f3e565b8273ffffffffffffffffffffffffffffffffffffffff1663414bf389604051806101000160405280856040015173ffffffffffffffffffffffffffffffffffffffff168152602001600160009054906101000a900473ffffffffffffffffffffffffffffffffffffffff1673ffffffffffffffffffffffffffffffffffffffff168152602001856020015162ffffff1681526020013073ffffffffffffffffffffffffffffffffffffffff168152602001428152602001848152602001600560009054906101000a900473ffffffffffffffffffffffffffffffffffffffff1673ffffffffffffffffffffffffffffffffffffffff166341976e0987606001516040518263ffffffff1660e01b8152600401611a6091906128a1565b60206040518083038186803b158015611a7857600080fd5b505afa158015611a8c573d6000803e3d6000fd5b505050506040513d601f19601f82011682018060405250810190611ab091906124c7565b85028152602001600073ffffffffffffffffffffffffffffffffffffffff168152506040518263ffffffff1660e01b8152600401611aee9190612a44565b602060405180830381600087803b158015611b0857600080fd5b505af1158015611b1c573d6000803e3d6000fd5b505050506040513d601f19601f82011682018060405250810190611b4091906124c7565b5050505050565b60096020528060005260406000206000915090505481565b611b67611d71565b73ffffffffffffffffffffffffffffffffffffffff16611b85610bf4565b73ffffffffffffffffffffffffffffffffffffffff1614611c0e576040517f08c379a00000000000000000000000000000000000000000000000000000000081526004018080602001828103825260208152602001807f4f776e61626c653a2063616c6c6572206973206e6f7420746865206f776e657281525060200191505060405180910390fd5b600073ffffffffffffffffffffffffffffffffffffffff168173ffffffffffffffffffffffffffffffffffffffff161415611c94576040517f08c379a0000000000000000000000000000000000000000000000000000000008152600401808060200182810382526026815260200180612c5d6026913960400191505060405180910390fd5b8073ffffffffffffffffffffffffffffffffffffffff1660008054906101000a900473ffffffffffffffffffffffffffffffffffffffff1673ffffffffffffffffffffffffffffffffffffffff167f8be0079c531659141344cd1fd0a4f28419497f9722a3daafe3b4186f6b6457e060405160405180910390a3806000806101000a81548173ffffffffffffffffffffffffffffffffffffffff021916908373ffffffffffffffffffffffffffffffffffffffff16021790555050565b6060604051806080016040528060418152602001612c8360419139905090565b600033905090565b611d8161239c565b60005b600480549050811015611efd57611d9961239c565b60048281548110611da657fe5b90600052602060002090600202016040518060800160405290816000820160009054906101000a900460ff1660ff1660ff1681526020016000820160019054906101000a900462ffffff1662ffffff1662ffffff1681526020016000820160049054906101000a900473ffffffffffffffffffffffffffffffffffffffff1673ffffffffffffffffffffffffffffffffffffffff1673ffffffffffffffffffffffffffffffffffffffff1681526020016001820160009054906101000a900473ffffffffffffffffffffffffffffffffffffffff1673ffffffffffffffffffffffffffffffffffffffff1673ffffffffffffffffffffffffffffffffffffffff168152505090508373ffffffffffffffffffffffffffffffffffffffff16816040015173ffffffffffffffffffffffffffffffffffffffff161415611eef578092505050611f39565b508080600101915050611d84565b506040517f08c379a0000000000000000000000000000000000000000000000000000000008152600401611f30906129a4565b60405180910390fd5b919050565b600060608473ffffffffffffffffffffffffffffffffffffffff1663095ea7b360e01b8585604051602401808373ffffffffffffffffffffffffffffffffffffffff16815260200182815260200192505050604051602081830303815290604052907bffffffffffffffffffffffffffffffffffffffffffffffffffffffff19166020820180517bffffffffffffffffffffffffffffffffffffffffffffffffffffffff83818316178352505050506040518082805190602001908083835b602083106120205780518252602082019150602081019050602083039250611ffd565b6001836020036101000a0380198251168184511680821785525050505050509050019150506000604051808303816000865af19150503d8060008114612082576040519150601f19603f3d011682016040523d82523d6000602084013e612087565b606091505b50915091508180156120c757506000815114806120c657508080602001905160208110156120b457600080fd5b81019080805190602001909291905050505b5b612139576040517f08c379a00000000000000000000000000000000000000000000000000000000081526004018080602001828103825260028152602001807f534100000000000000000000000000000000000000000000000000000000000081525060200191505060405180910390fd5b5050505050565b6000806000600160149054906101000a900460ff1660ff16600254858161216357fe5b04029050600081850390508181935093505050915091565b600060608573ffffffffffffffffffffffffffffffffffffffff166323b872dd60e01b868686604051602401808473ffffffffffffffffffffffffffffffffffffffff1681526020018373ffffffffffffffffffffffffffffffffffffffff1681526020018281526020019350505050604051602081830303815290604052907bffffffffffffffffffffffffffffffffffffffffffffffffffffffff19166020820180517bffffffffffffffffffffffffffffffffffffffffffffffffffffffff83818316178352505050506040518082805190602001908083835b6020831061227b5780518252602082019150602081019050602083039250612258565b6001836020036101000a0380198251168184511680821785525050505050509050019150506000604051808303816000865af19150503d80600081146122dd576040519150601f19603f3d011682016040523d82523d6000602084013e6122e2565b606091505b50915091508180156123225750600081511480612321575080806020019051602081101561230f57600080fd5b81019080805190602001909291905050505b5b612394576040517f08c379a00000000000000000000000000000000000000000000000000000000081526004018080602001828103825260038152602001807f535446000000000000000000000000000000000000000000000000000000000081525060200191505060405180910390fd5b505050505050565b6040518060800160405280600060ff168152602001600062ffffff168152602001600073ffffffffffffffffffffffffffffffffffffffff168152602001600073ffffffffffffffffffffffffffffffffffffffff1681525090565b60008135905061240781612c17565b92915050565b60008151905061241c81612c2e565b92915050565b60008135905061243181612c45565b92915050565b60008151905061244681612c45565b92915050565b60006020828403121561245e57600080fd5b600061246c848285016123f8565b91505092915050565b60006020828403121561248757600080fd5b60006124958482850161240d565b91505092915050565b6000602082840312156124b057600080fd5b60006124be84828501612422565b91505092915050565b6000602082840312156124d957600080fd5b60006124e784828501612437565b91505092915050565b60006124fc83836127e3565b60808301905092915050565b61251181612b79565b82525050565b61252081612b15565b82525050565b61252f81612b15565b82525050565b600061254082612ad0565b61254a8185612af3565b935061255583612ac0565b8060005b8381101561258657815161256d88826124f0565b975061257883612ae6565b925050600181019050612559565b5085935050505092915050565b61259c81612b8b565b82525050565b60006125ad82612adb565b6125b78185612b04565b93506125c7818560208601612bd3565b6125d081612c06565b840191505092915050565b60006125e8600d83612b04565b91507f4e6f207375636820746f6b656e000000000000000000000000000000000000006000830152602082019050919050565b6000612628602e83612b04565b91507f4e6f7420656e6f75676820646562742c207472792073656c6c696e6720796f7560008301527f7220746f6b656e732066697273740000000000000000000000000000000000006020830152604082019050919050565b600061268e601683612b04565b91507f4e6f7420656e6f75676820746f6b656e732073656e74000000000000000000006000830152602082019050919050565b60006126ce601183612b04565b91507f50726f64756374206973206c6f636b65640000000000000000000000000000006000830152602082019050919050565b600061270e601983612b04565b91507f596f75206d7573742073656c6c206d6f726520746f6b656e73000000000000006000830152602082019050919050565b610100820160008201516127586000850182612517565b50602082015161276b6020850182612517565b50604082015161277e6040850182612847565b5060608201516127916060850182612517565b5060808201516127a46080850182612865565b5060a08201516127b760a0850182612865565b5060c08201516127ca60c0850182612865565b5060e08201516127dd60e0850182612838565b50505050565b6080820160008201516127f96000850182612883565b50602082015161280c6020850182612847565b50604082015161281f6040850182612517565b5060608201516128326060850182612517565b50505050565b61284181612b33565b82525050565b61285081612b53565b82525050565b61285f81612b53565b82525050565b61286e81612b62565b82525050565b61287d81612b62565b82525050565b61288c81612b6c565b82525050565b61289b81612b6c565b82525050565b60006020820190506128b66000830184612526565b92915050565b60006040820190506128d16000830185612508565b6128de6020830184612874565b9392505050565b60006060820190506128fa6000830186612508565b6129076020830185612874565b6129146040830184612874565b949350505050565b60006040820190506129316000830185612526565b61293e6020830184612874565b9392505050565b6000602082019050818103600083015261295f8184612535565b905092915050565b600060208201905061297c6000830184612593565b92915050565b6000602082019050818103600083015261299c81846125a2565b905092915050565b600060208201905081810360008301526129bd816125db565b9050919050565b600060208201905081810360008301526129dd8161261b565b9050919050565b600060208201905081810360008301526129fd81612681565b9050919050565b60006020820190508181036000830152612a1d816126c1565b9050919050565b60006020820190508181036000830152612a3d81612701565b9050919050565b600061010082019050612a5a6000830184612741565b92915050565b6000602082019050612a756000830184612874565b92915050565b6000608082019050612a906000830187612892565b612a9d6020830186612856565b612aaa6040830185612526565b612ab76060830184612526565b95945050505050565b6000819050602082019050919050565b600081519050919050565b600081519050919050565b6000602082019050919050565b600082825260208201905092915050565b600082825260208201905092915050565b6000612b2082612b33565b9050919050565b60008115159050919050565b600073ffffffffffffffffffffffffffffffffffffffff82169050919050565b600062ffffff82169050919050565b6000819050919050565b600060ff82169050919050565b6000612b8482612baf565b9050919050565b6000612b9682612b9d565b9050919050565b6000612ba882612b33565b9050919050565b6000612bba82612bc1565b9050919050565b6000612bcc82612b33565b9050919050565b60005b83811015612bf1578082015181840152602081019050612bd6565b83811115612c00576000848401525b50505050565b6000601f19601f8301169050919050565b612c2081612b15565b8114612c2b57600080fd5b50565b612c3781612b27565b8114612c4257600080fd5b50565b612c4e81612b62565b8114612c5957600080fd5b5056fe4f776e61626c653a206e6577206f776e657220697320746865207a65726f206164647265737368747470733a2f2f63727970746f6c6f676f732e63632f6c6f676f732f706f6c796d6174682d6e6574776f726b2d706f6c792d6c6f676f2e706e673f763d303232436f7272656c6174696f6e20696e646578206973206120746f6f6c207468617420616c6c6f777320796f7520746f2064697665727369667920796f757220696e766573746d656e7473a264697066735822122042b8de5be71ce755cc29ec008a5ddb1d0b77fe23c60b4d87c707288b2393cf3064736f6c6343000705003360806040523480156200001157600080fd5b50604051620012e9380380620012e983398181016040528101906200003791906200020f565b83600560006101000a81548173ffffffffffffffffffffffffffffffffffffffff021916908373ffffffffffffffffffffffffffffffffffffffff160217905550826002908051906020019062000090929190620000cf565b5081600360006101000a81548160ff021916908360ff1602179055508060049080519060200190620000c4929190620000cf565b5050505050620003c1565b828054600181600116156101000203166002900490600052602060002090601f01602090048101928262000107576000855562000153565b82601f106200012257805160ff191683800117855562000153565b8280016001018555821562000153579182015b828111156200015257825182559160200191906001019062000135565b5b50905062000162919062000166565b5090565b5b808211156200018157600081600090555060010162000167565b5090565b60008151905062000196816200038d565b92915050565b600082601f830112620001ae57600080fd5b8151620001c5620001bf82620002e1565b620002ad565b91508082526020830160208301858383011115620001e257600080fd5b620001ef83828462000355565b50505092915050565b6000815190506200020981620003a7565b92915050565b600080600080608085870312156200022657600080fd5b6000620002368782880162000185565b945050602085015167ffffffffffffffff8111156200025457600080fd5b62000262878288016200019c565b93505060406200027587828801620001f8565b925050606085015167ffffffffffffffff8111156200029357600080fd5b620002a1878288016200019c565b91505092959194509250565b6000604051905081810181811067ffffffffffffffff82111715620002d757620002d66200038b565b5b8060405250919050565b600067ffffffffffffffff821115620002ff57620002fe6200038b565b5b601f19601f8301169050602081019050919050565b6000620003218262000328565b9050919050565b600073ffffffffffffffffffffffffffffffffffffffff82169050919050565b600060ff82169050919050565b60005b838110156200037557808201518184015260208101905062000358565b8381111562000385576000848401525b50505050565bfe5b620003988162000314565b8114620003a457600080fd5b50565b620003b28162000348565b8114620003be57600080fd5b50565b610f1880620003d16000396000f3fe608060405234801561001057600080fd5b50600436106100995760003560e01c806306fdde031461009e578063095ea7b3146100bc5780630cf1fd36146100ec57806323b872dd1461010a57806327e235e31461013a578063313ce5671461016a5780635c6581651461018857806370a08231146101b857806395d89b41146101e8578063a9059cbb14610206578063dd62ed3e14610236575b600080fd5b6100a6610266565b6040516100b39190610d67565b60405180910390f35b6100d660048036038101906100d19190610bb4565b610304565b6040516100e39190610d4c565b60405180910390f35b6100f46103f6565b6040516101019190610d31565b60405180910390f35b610124600480360381019061011f9190610b65565b61041c565b6040516101319190610d4c565b60405180910390f35b610154600480360381019061014f9190610b00565b6106e7565b6040516101619190610dc9565b60405180910390f35b6101726106ff565b60405161017f9190610de4565b60405180910390f35b6101a2600480360381019061019d9190610b29565b610712565b6040516101af9190610dc9565b60405180910390f35b6101d260048036038101906101cd9190610b00565b610737565b6040516101df9190610dc9565b60405180910390f35b6101f061077f565b6040516101fd9190610d67565b60405180910390f35b610220600480360381019061021b9190610bb4565b61081d565b60405161022d9190610d4c565b60405180910390f35b610250600480360381019061024b9190610b29565b610a4f565b60405161025d9190610dc9565b60405180910390f35b60028054600181600116156101000203166002900480601f0160208091040260200160405190810160405280929190818152602001828054600181600116156101000203166002900480156102fc5780601f106102d1576101008083540402835291602001916102fc565b820191906000526020600020905b8154815290600101906020018083116102df57829003601f168201915b505050505081565b600081600160003373ffffffffffffffffffffffffffffffffffffffff1673ffffffffffffffffffffffffffffffffffffffff16815260200190815260200160002060008573ffffffffffffffffffffffffffffffffffffffff1673ffffffffffffffffffffffffffffffffffffffff168152602001908152602001600020819055508273ffffffffffffffffffffffffffffffffffffffff163373ffffffffffffffffffffffffffffffffffffffff167f8c5be1e5ebec7d5bd14f71427d1e84f3dd0314c0f7b2291e5b200ac8c7c3b925846040516103e49190610dc9565b60405180910390a36001905092915050565b600560009054906101000a900473ffffffffffffffffffffffffffffffffffffffff1681565b600080600160008673ffffffffffffffffffffffffffffffffffffffff1673ffffffffffffffffffffffffffffffffffffffff16815260200190815260200160002060003373ffffffffffffffffffffffffffffffffffffffff1673ffffffffffffffffffffffffffffffffffffffff168152602001908152602001600020549050826000808773ffffffffffffffffffffffffffffffffffffffff1673ffffffffffffffffffffffffffffffffffffffff16815260200190815260200160002054101580156104ec5750828110155b61052b576040517f08c379a000000000000000000000000000000000000000000000000000000000815260040161052290610da9565b60405180910390fd5b826000808673ffffffffffffffffffffffffffffffffffffffff1673ffffffffffffffffffffffffffffffffffffffff16815260200190815260200160002060008282540192505081905550826000808773ffffffffffffffffffffffffffffffffffffffff1673ffffffffffffffffffffffffffffffffffffffff168152602001908152602001600020600082825403925050819055507fffffffffffffffffffffffffffffffffffffffffffffffffffffffffffffffff8110156106765782600160008773ffffffffffffffffffffffffffffffffffffffff1673ffffffffffffffffffffffffffffffffffffffff16815260200190815260200160002060003373ffffffffffffffffffffffffffffffffffffffff1673ffffffffffffffffffffffffffffffffffffffff168152602001908152602001600020600082825403925050819055505b8373ffffffffffffffffffffffffffffffffffffffff168573ffffffffffffffffffffffffffffffffffffffff167fddf252ad1be2c89b69c2b068fc378daa952ba7f163c4a11628f55a4df523b3ef856040516106d39190610dc9565b60405180910390a360019150509392505050565b60006020528060005260406000206000915090505481565b600360009054906101000a900460ff1681565b6001602052816000526040600020602052806000526040600020600091509150505481565b60008060008373ffffffffffffffffffffffffffffffffffffffff1673ffffffffffffffffffffffffffffffffffffffff168152602001908152602001600020549050919050565b60048054600181600116156101000203166002900480601f0160208091040260200160405190810160405280929190818152602001828054600181600116156101000203166002900480156108155780601f106107ea57610100808354040283529160200191610815565b820191906000526020600020905b8154815290600101906020018083116107f857829003601f168201915b505050505081565b6000600560009054906101000a900473ffffffffffffffffffffffffffffffffffffffff1673ffffffffffffffffffffffffffffffffffffffff163373ffffffffffffffffffffffffffffffffffffffff1614156108c657816000808573ffffffffffffffffffffffffffffffffffffffff1673ffffffffffffffffffffffffffffffffffffffff168152602001908152602001600020600082825401925050819055506109e0565b816000803373ffffffffffffffffffffffffffffffffffffffff1673ffffffffffffffffffffffffffffffffffffffff168152602001908152602001600020541015610947576040517f08c379a000000000000000000000000000000000000000000000000000000000815260040161093e90610d89565b60405180910390fd5b816000803373ffffffffffffffffffffffffffffffffffffffff1673ffffffffffffffffffffffffffffffffffffffff16815260200190815260200160002060008282540392505081905550816000808573ffffffffffffffffffffffffffffffffffffffff1673ffffffffffffffffffffffffffffffffffffffff168152602001908152602001600020600082825401925050819055505b8273ffffffffffffffffffffffffffffffffffffffff163373ffffffffffffffffffffffffffffffffffffffff167fddf252ad1be2c89b69c2b068fc378daa952ba7f163c4a11628f55a4df523b3ef84604051610a3d9190610dc9565b60405180910390a36001905092915050565b6000600160008473ffffffffffffffffffffffffffffffffffffffff1673ffffffffffffffffffffffffffffffffffffffff16815260200190815260200160002060008373ffffffffffffffffffffffffffffffffffffffff1673ffffffffffffffffffffffffffffffffffffffff16815260200190815260200160002054905092915050565b600081359050610ae581610eb4565b92915050565b600081359050610afa81610ecb565b92915050565b600060208284031215610b1257600080fd5b6000610b2084828501610ad6565b91505092915050565b60008060408385031215610b3c57600080fd5b6000610b4a85828601610ad6565b9250506020610b5b85828601610ad6565b9150509250929050565b600080600060608486031215610b7a57600080fd5b6000610b8886828701610ad6565b9350506020610b9986828701610ad6565b9250506040610baa86828701610aeb565b9150509250925092565b60008060408385031215610bc757600080fd5b6000610bd585828601610ad6565b9250506020610be685828601610aeb565b9150509250929050565b610bf981610e1b565b82525050565b610c0881610e2d565b82525050565b6000610c1982610dff565b610c238185610e0a565b9350610c33818560208601610e70565b610c3c81610ea3565b840191505092915050565b6000610c54602f83610e0a565b91507f746f6b656e2062616c616e6365206973206c6f776572207468616e207468652060008301527f76616c75652072657175657374656400000000000000000000000000000000006020830152604082019050919050565b6000610cba603983610e0a565b91507f746f6b656e2062616c616e6365206f7220616c6c6f77616e6365206973206c6f60008301527f776572207468616e20616d6f756e7420726571756573746564000000000000006020830152604082019050919050565b610d1c81610e59565b82525050565b610d2b81610e63565b82525050565b6000602082019050610d466000830184610bf0565b92915050565b6000602082019050610d616000830184610bff565b92915050565b60006020820190508181036000830152610d818184610c0e565b905092915050565b60006020820190508181036000830152610da281610c47565b9050919050565b60006020820190508181036000830152610dc281610cad565b9050919050565b6000602082019050610dde6000830184610d13565b92915050565b6000602082019050610df96000830184610d22565b92915050565b600081519050919050565b600082825260208201905092915050565b6000610e2682610e39565b9050919050565b60008115159050919050565b600073ffffffffffffffffffffffffffffffffffffffff82169050919050565b6000819050919050565b600060ff82169050919050565b60005b83811015610e8e578082015181840152602081019050610e73565b83811115610e9d576000848401525b50505050565b6000601f19601f8301169050919050565b610ebd81610e1b565b8114610ec857600080fd5b50565b610ed481610e59565b8114610edf57600080fd5b5056fea2646970667358221220261c7001b859f4cf8eed0764cb1d10c651594e8c83b8d6b3d68095d79987e69c64736f6c63430007050033608060405234801561001057600080fd5b50610186806100206000396000f3fe608060405234801561001057600080fd5b506004361061002b5760003560e01c806341976e0914610030575b600080fd5b6100726004803603602081101561004657600080fd5b81019080803573ffffffffffffffffffffffffffffffffffffffff169060200190929190505050610088565b6040518082815260200191505060405180910390f35b60008082905060008173ffffffffffffffffffffffffffffffffffffffff1663feaf968c6040518163ffffffff1660e01b815260040160a06040518083038186803b1580156100d657600080fd5b505afa1580156100ea573d6000803e3d6000fd5b505050506040513d60a081101561010057600080fd5b8101908080519060200190929190805190602001909291908051906020019092919080519060200190929190805190602001909291905050505050509150506402540be40081029250505091905056fea26469706673582212206d5d65f1308a1910b7d23c8605bc69c514616f5c2a551f23b4359202f9db03f964736f6c63430007050033",
  "immutableReferences": {
    "1484": [
      {
        "length": 32,
        "start": 2367
      },
      {
        "length": 32,
        "start": 2501
      },
      {
        "length": 32,
        "start": 6327
      },
      {
        "length": 32,
        "start": 6431
      }
    ]
  },
  "source": "// SPDX-License-Identifier: MIT\npragma solidity >=0.7.5;\npragma abicoder v2;\n\nimport \"@openzeppelin/contracts/token/ERC20/ERC20.sol\";\nimport \"@uniswap/v3-periphery/contracts/libraries/TransferHelper.sol\";\nimport \"@uniswap/v3-periphery/contracts/interfaces/ISwapRouter.sol\";\nimport \"@uniswap/v3-periphery/contracts/interfaces/IPeripheryPayments.sol\";\n\nimport \"./PriceOracle.sol\";\nimport \"./IndexToken.sol\";\nimport \"../management/BaseProduct.sol\";\n\ncontract BaseIndex is Product {\n    struct TokenInfo {\n        uint8 indexPercentage;\n        uint24 poolFee;\n        address tokenAddress;\n        address priceOracleAddress;\n    }\n\n    TokenInfo[] public tokens;\n    PriceOracle private priceOracle;\n    IndexToken public indexToken;\n    address private immutable dexRouterAddress;\n    uint public tokensToSell;\n    uint public tokensToBuy;\n    mapping(address => uint) public usersDebt;\n\n    event DebtRetrieval(address account, uint debtAmount);\n\n    function name() external pure override returns (string memory) {\n        return \"CryptoIndex\";\n    }\n\n    function symbol() external pure override returns (string memory) {\n        return \"CRYPTIX\";\n    }\n\n    function shortDescription() external pure override returns (string memory) {\n        return \"Correlation index is a tool that allows you to diversify your investments\";\n    }\n\n    function longDescription() external pure override returns (string memory) {\n        return \"Correlation index is a tool that allows you to diversify your investments\";\n    }\n\n    function getComponents() external view returns (TokenInfo[] memory) {\n        return tokens;\n    }\n\n    function getTokenPrice(address tokenOracleAddress) external view returns (uint256) {\n        return priceOracle.getPrice(tokenOracleAddress);\n    }\n\n    function image() external pure override returns (string memory) {\n        return \"https://cryptologos.cc/logos/polymath-network-poly-logo.png?v=022\";\n    }\n\n    function getTotalLockedValue() external view override returns (uint256) {\n        uint totalValue;\n\n        for (uint i = 0; i < tokens.length; i++) {\n            TokenInfo memory tokenInfo = tokens[i];\n            IERC20 token = IERC20(tokenInfo.tokenAddress);\n            totalValue += token.balanceOf(address(this)) * priceOracle.getPrice(tokenInfo.priceOracleAddress);\n        }\n\n        return totalValue;\n    }\n\n    constructor() {\n        dexRouterAddress = 0xE592427A0AEce92De3Edee1F18E0157C05861564; // Uniswap V3 Router\n        buyTokenAddress = 0x6B175474E89094C44Da98b954EedeAC495271d0F; // USDC\n        indexFee = 5;\n        indexFeeTotal = 1000;\n        indexPriceAdjustment = 100;\n        indexToken = new IndexToken( address(this), \"Crypto index token\", 18, \"CRYPTIX\");\n        priceOracle = new PriceOracle();\n        isLocked = false;\n\n        tokens.push(\n            TokenInfo({ // WETH\n                tokenAddress: 0xC02aaA39b223FE8D0A0e5C4F27eAD9083C756Cc2,\n                priceOracleAddress: 0x5f4eC3Df9cbd43714FE2740f5E3616155c5b8419,\n                poolFee: 3000,\n                indexPercentage: 5\n            })\n        );\n        tokens.push(\n            TokenInfo({ // LINK\n                tokenAddress: 0x514910771AF9Ca656af840dff83E8264EcF986CA,\n                priceOracleAddress: 0x2c1d072e956AFFC0D435Cb7AC38EF18d24d9127c,\n                poolFee: 3000,\n                indexPercentage: 5\n            })\n        );\n        tokens.push(\n            TokenInfo({ // BNB\n                tokenAddress: 0x418D75f65a02b3D53B2418FB8E1fe493759c7605,\n                priceOracleAddress: 0x14e613AC84a31f709eadbdF89C6CC390fDc9540A,\n                poolFee: 3000,\n                indexPercentage: 5\n            })\n        );\n        tokens.push(\n            TokenInfo({ // UNI\n                tokenAddress: 0x1f9840a85d5aF5bf1D1762F925BDADdC4201F984,\n                priceOracleAddress: 0x553303d460EE0afB37EdFf9bE42922D8FF63220e,\n                poolFee: 3000,\n                indexPercentage: 5\n            })\n        );\n        tokens.push(\n            TokenInfo({ //   1INCH\n                tokenAddress: 0x111111111117dC0aa78b770fA6A738034120C302,\n                priceOracleAddress: 0xc929ad75B72593967DE83E7F7Cda0493458261D9,\n                poolFee: 3000,\n                indexPercentage: 5\n            })\n        );\n        tokens.push(TokenInfo({    //   SNX\n            tokenAddress: 0xC011a73ee8576Fb46F5E1c5751cA3B9Fe0af2a6F,\n            priceOracleAddress: 0xDC3EA94CD0AC27d9A86C180091e7f78C683d3699,\n            poolFee: 3000,\n            indexPercentage: 5\n        }));\n        tokens.push(TokenInfo({    //   YFI\n            tokenAddress: 0x0bc529c00C6401aEF6D220BE8C6Ea1667F6Ad93e,\n            priceOracleAddress: 0xA027702dbb89fbd58938e4324ac03B58d812b0E1,\n            poolFee: 3000,\n            indexPercentage: 5\n        }));\n        tokens.push(TokenInfo({    //   COMP\n            tokenAddress: 0xc00e94Cb662C3520282E6f5717214004A7f26888,\n            priceOracleAddress: 0xdbd020CAeF83eFd542f4De03e3cF0C28A4428bd5,\n            poolFee: 3000,\n            indexPercentage: 5  \n        }));\n        tokens.push(TokenInfo({    //   MKR\n            tokenAddress: 0x9f8F72aA9304c8B593d555F12eF6589cC3A579A2,\n            priceOracleAddress: 0xec1D1B3b0443256cc3860e24a46F108e699484Aa,\n            poolFee: 3000,\n            indexPercentage: 5\n        }));\n        tokens.push(TokenInfo({    //   SUSHI\n            tokenAddress: 0x6B3595068778DD592e39A122f4f5a5cF09C90fE2,\n            priceOracleAddress: 0xCc70F09A6CC17553b2E31954cD36E4A2d89501f7,\n            poolFee: 3000,\n            indexPercentage: 5\n        }));\n        tokens.push(TokenInfo({    //   XRP\n            tokenAddress: 0xAE9e8333a1Bc59751E566bc43C91B48477EB41df,\n            priceOracleAddress: 0xCed2660c6Dd1Ffd856A5A82C67f3482d88C50b12,\n            poolFee: 3000,\n            indexPercentage: 5\n        }));\n        tokens.push(TokenInfo({    //   CRV\n            tokenAddress: 0xD533a949740bb3306d119CC777fa900bA034cd52,\n            priceOracleAddress: 0xCd627aA160A6fA45Eb793D19Ef54f5062F20f33f,\n            poolFee: 3000,\n            indexPercentage: 5\n        }));\n        tokens.push(TokenInfo({    //   Huobi Token\n            tokenAddress: 0x6f259637dcD74C767781E37Bc6133cd6A68aa161,\n            priceOracleAddress: 0xE1329B3f6513912CAf589659777b66011AEE5880,\n            poolFee: 3000,\n            indexPercentage: 5\n        }));\n        tokens.push(TokenInfo({    //   BNT\n            tokenAddress: 0x1F573D6Fb3F13d689FF844B4cE37794d79a7FF1C,\n            priceOracleAddress: 0x1E6cF0D433de4FE882A437ABC654F58E1e78548c,\n            poolFee: 3000,\n            indexPercentage: 5\n        }));\n        tokens.push(TokenInfo({    //   INJ\n            tokenAddress: 0xe28b3B32B6c345A34Ff64674606124Dd5Aceca30,\n            priceOracleAddress: 0xaE2EbE3c4D20cE13cE47cbb49b6d7ee631Cd816e,\n            poolFee: 3000,\n            indexPercentage: 5\n        }));\n    }\n\n    function buy(uint256 amount) external override {\n        uint256 indexPrice = getPrice();\n        (uint productFee, uint256 realAmount) = calculateFee(amount);\n        tokensToBuy += realAmount;\n\n        uint256 indexTokens = (realAmount / indexPrice) * 1 ether;\n        require(indexTokens > 0, \"Not enough tokens sent\");\n\n        TransferHelper.safeTransferFrom(buyTokenAddress, msg.sender, address(this), amount);\n        IERC20 buyToken = IERC20(buyTokenAddress);\n        buyToken.transfer(owner(), productFee);\n\n        indexToken.transfer(msg.sender, indexTokens);\n        emit ProductBuy(msg.sender, realAmount, indexTokens);\n    }\n\n    function retrieveDebt(uint amount) external checkUnlocked{\n        require(usersDebt[msg.sender] - amount > 0, \"Not enough debt, try selling your tokens first\");\n        \n        usersDebt[msg.sender] -= amount;\n        IERC20(buyTokenAddress).transfer(msg.sender, amount);\n        emit DebtRetrieval(msg.sender, amount);\n    }\n\n    function sell(uint amount) external override checkUnlocked {\n        require(amount >= 1 ether, \"You must sell more tokens\");\n        (uint productFee, uint256 realAmount) = calculateFee(amount);\n\n        TransferHelper.safeTransferFrom(address(indexToken), msg.sender, address(this), amount);\n        indexToken.transfer(owner(), productFee);\n\n        uint indexPrice = getPrice();\n        tokensToSell += realAmount;\n\n        uint newUserDebt = (realAmount * indexPrice) / 1 ether;\n        usersDebt[msg.sender] += newUserDebt;\n        emit ProductSell(msg.sender, newUserDebt, realAmount);\n    }\n\n    function findToken(address tokenAddress) private view returns(TokenInfo memory){\n        for (uint256 index = 0; index < tokens.length; index++) {\n            TokenInfo memory token = tokens[index];\n\n            if (token.tokenAddress == tokenAddress) {\n                return token;\n            }\n        }\n\n        revert(\"No such token\");\n    }\n\n    function buyToken(address tokenAddress) external onlyOwner {\n        ISwapRouter dexRouter = ISwapRouter(dexRouterAddress);\n\n        TokenInfo memory token = findToken(tokenAddress);\n        uint256 tokenAmount = (tokensToBuy / 100) * token.indexPercentage;\n        tokensToBuy -= tokenAmount;\n\n        TransferHelper.safeApprove(buyTokenAddress, dexRouterAddress, tokenAmount);\n        dexRouter.exactInputSingle(\n            ISwapRouter.ExactInputSingleParams({\n                tokenIn: buyTokenAddress,\n                tokenOut: token.tokenAddress,\n                fee: token.poolFee,\n                recipient: address(this),\n                deadline: block.timestamp,\n                amountIn: tokenAmount,\n                amountOutMinimum: tokenAmount / priceOracle.getPrice(token.priceOracleAddress),\n                sqrtPriceLimitX96: 0\n            })\n        );\n\n    }\n\n    function sellToken(address tokenAddress) external onlyOwner {\n        ISwapRouter dexRouter = ISwapRouter(dexRouterAddress);\n\n        TokenInfo memory token = findToken(tokenAddress);\n        uint256 tokenAmount = (tokensToSell / 100) * token.indexPercentage;\n        tokensToSell -= tokenAmount;\n\n        TransferHelper.safeApprove(token.tokenAddress, dexRouterAddress, tokenAmount);\n        dexRouter.exactInputSingle(\n            ISwapRouter.ExactInputSingleParams({\n                tokenIn: token.tokenAddress,\n                tokenOut: buyTokenAddress,\n                fee: token.poolFee,\n                recipient: address(this),\n                deadline: block.timestamp,\n                amountIn: tokenAmount,\n                amountOutMinimum: tokenAmount * priceOracle.getPrice(token.priceOracleAddress),\n                sqrtPriceLimitX96: 0\n            })\n        );\n    }\n\n    function getPrice() public view override returns (uint256) {\n        uint256 indexTotalPrice;\n\n        for (uint256 i = 0; i < tokens.length; i++) {\n            TokenInfo memory token = tokens[i];\n            uint256 price = priceOracle.getPrice(token.priceOracleAddress);\n            indexTotalPrice += (price / 100) * token.indexPercentage;\n        }\n\n        return indexTotalPrice / indexPriceAdjustment;\n    }\n\n}\n",
  "sourcePath": "D:\\JavascriptProjects\\crypto-index\\contracts\\indices\\BaseIndex.sol",
  "compiler": {
    "name": "solc",
    "version": "0.7.5+commit.eb77ed08.Linux.g++"
  },
  "schemaVersion": "3.4.6",
  "updatedAt": "2022-04-22T09:11:12.879Z",
  "devdoc": {
    "kind": "dev",
    "methods": {
      "owner()": {
        "details": "Returns the address of the current owner."
      },
      "renounceOwnership()": {
        "details": "Leaves the contract without owner. It will not be possible to call `onlyOwner` functions anymore. Can only be called by the current owner. NOTE: Renouncing ownership will leave the contract without an owner, thereby removing any functionality that is only available to the owner."
      },
      "transferOwnership(address)": {
        "details": "Transfers ownership of the contract to a new account (`newOwner`). Can only be called by the current owner."
      }
    },
    "version": 1
  },
  "userdoc": {
    "kind": "user",
    "methods": {},
    "version": 1
  }
}