{
  "contractName": "BaseIndex",
  "abi": [
    {
      "inputs": [
        {
          "internalType": "address",
          "name": "_fundsManager",
          "type": "address"
        }
      ],
      "stateMutability": "nonpayable",
      "type": "constructor"
    },
    {
      "anonymous": false,
      "inputs": [
        {
          "indexed": false,
          "internalType": "address",
          "name": "account",
          "type": "address"
        },
        {
          "indexed": false,
          "internalType": "uint256",
          "name": "debtAmount",
          "type": "uint256"
        }
      ],
      "name": "DebtRetrieved",
      "type": "event"
    },
    {
      "anonymous": false,
      "inputs": [
        {
          "indexed": true,
          "internalType": "address",
          "name": "previousOwner",
          "type": "address"
        },
        {
          "indexed": true,
          "internalType": "address",
          "name": "newOwner",
          "type": "address"
        }
      ],
      "name": "OwnershipTransferred",
      "type": "event"
    },
    {
      "anonymous": false,
      "inputs": [
        {
          "indexed": false,
          "internalType": "address",
          "name": "account",
          "type": "address"
        },
        {
          "indexed": false,
          "internalType": "uint256",
          "name": "buyTokenAmount",
          "type": "uint256"
        },
        {
          "indexed": false,
          "internalType": "uint256",
          "name": "indexTokenAmount",
          "type": "uint256"
        }
      ],
      "name": "ProductBought",
      "type": "event"
    },
    {
      "anonymous": false,
      "inputs": [
        {
          "indexed": false,
          "internalType": "address",
          "name": "account",
          "type": "address"
        },
        {
          "indexed": false,
          "internalType": "uint256",
          "name": "buyTokenAmount",
          "type": "uint256"
        },
        {
          "indexed": false,
          "internalType": "uint256",
          "name": "indexTokenAmount",
          "type": "uint256"
        }
      ],
      "name": "ProductSold",
      "type": "event"
    },
    {
      "inputs": [],
      "name": "buyTokenAddress",
      "outputs": [
        {
          "internalType": "address",
          "name": "",
          "type": "address"
        }
      ],
      "stateMutability": "view",
      "type": "function"
    },
    {
      "inputs": [
        {
          "internalType": "uint256",
          "name": "amount",
          "type": "uint256"
        }
      ],
      "name": "calculateFee",
      "outputs": [
        {
          "internalType": "uint256",
          "name": "",
          "type": "uint256"
        },
        {
          "internalType": "uint256",
          "name": "",
          "type": "uint256"
        }
      ],
      "stateMutability": "view",
      "type": "function"
    },
    {
      "inputs": [
        {
          "internalType": "uint8",
          "name": "_fee",
          "type": "uint8"
        },
        {
          "internalType": "uint256",
          "name": "_feeTotal",
          "type": "uint256"
        }
      ],
      "name": "changeFee",
      "outputs": [],
      "stateMutability": "nonpayable",
      "type": "function"
    },
    {
      "inputs": [],
      "name": "fundsManager",
      "outputs": [
        {
          "internalType": "address",
          "name": "",
          "type": "address"
        }
      ],
      "stateMutability": "view",
      "type": "function"
    },
    {
      "inputs": [],
      "name": "getFee",
      "outputs": [
        {
          "internalType": "uint256",
          "name": "",
          "type": "uint256"
        },
        {
          "internalType": "uint256",
          "name": "",
          "type": "uint256"
        }
      ],
      "stateMutability": "view",
      "type": "function"
    },
    {
      "inputs": [],
      "name": "indexToken",
      "outputs": [
        {
          "internalType": "contract IndexToken",
          "name": "",
          "type": "address"
        }
      ],
      "stateMutability": "view",
      "type": "function"
    },
    {
      "inputs": [],
      "name": "isLocked",
      "outputs": [
        {
          "internalType": "bool",
          "name": "",
          "type": "bool"
        }
      ],
      "stateMutability": "view",
      "type": "function"
    },
    {
      "inputs": [],
      "name": "isSettlementActive",
      "outputs": [
        {
          "internalType": "bool",
          "name": "",
          "type": "bool"
        }
      ],
      "stateMutability": "view",
      "type": "function"
    },
    {
      "inputs": [],
      "name": "lastManagedToken",
      "outputs": [
        {
          "internalType": "uint256",
          "name": "",
          "type": "uint256"
        }
      ],
      "stateMutability": "view",
      "type": "function"
    },
    {
      "inputs": [],
      "name": "owner",
      "outputs": [
        {
          "internalType": "address",
          "name": "",
          "type": "address"
        }
      ],
      "stateMutability": "view",
      "type": "function"
    },
    {
      "inputs": [],
      "name": "renounceOwnership",
      "outputs": [],
      "stateMutability": "nonpayable",
      "type": "function"
    },
    {
      "inputs": [
        {
          "internalType": "uint256",
          "name": "",
          "type": "uint256"
        }
      ],
      "name": "tokens",
      "outputs": [
        {
          "internalType": "uint8",
          "name": "indexPercentage",
          "type": "uint8"
        },
        {
          "internalType": "uint24",
          "name": "poolFee",
          "type": "uint24"
        },
        {
          "internalType": "address",
          "name": "tokenAddress",
          "type": "address"
        },
        {
          "internalType": "address",
          "name": "priceOracleAddress",
          "type": "address"
        }
      ],
      "stateMutability": "view",
      "type": "function"
    },
    {
      "inputs": [],
      "name": "tokensToBuy",
      "outputs": [
        {
          "internalType": "uint256",
          "name": "",
          "type": "uint256"
        }
      ],
      "stateMutability": "view",
      "type": "function"
    },
    {
      "inputs": [],
      "name": "tokensToSell",
      "outputs": [
        {
          "internalType": "uint256",
          "name": "",
          "type": "uint256"
        }
      ],
      "stateMutability": "view",
      "type": "function"
    },
    {
      "inputs": [],
      "name": "totalAvailableDebt",
      "outputs": [
        {
          "internalType": "uint256",
          "name": "",
          "type": "uint256"
        }
      ],
      "stateMutability": "view",
      "type": "function"
    },
    {
      "inputs": [
        {
          "internalType": "address",
          "name": "newOwner",
          "type": "address"
        }
      ],
      "name": "transferOwnership",
      "outputs": [],
      "stateMutability": "nonpayable",
      "type": "function"
    },
    {
      "inputs": [
        {
          "internalType": "address",
          "name": "",
          "type": "address"
        }
      ],
      "name": "usersDebt",
      "outputs": [
        {
          "internalType": "uint256",
          "name": "",
          "type": "uint256"
        }
      ],
      "stateMutability": "view",
      "type": "function"
    },
    {
      "inputs": [],
      "name": "name",
      "outputs": [
        {
          "internalType": "string",
          "name": "",
          "type": "string"
        }
      ],
      "stateMutability": "pure",
      "type": "function"
    },
    {
      "inputs": [],
      "name": "symbol",
      "outputs": [
        {
          "internalType": "string",
          "name": "",
          "type": "string"
        }
      ],
      "stateMutability": "pure",
      "type": "function"
    },
    {
      "inputs": [],
      "name": "shortDescription",
      "outputs": [
        {
          "internalType": "string",
          "name": "",
          "type": "string"
        }
      ],
      "stateMutability": "pure",
      "type": "function"
    },
    {
      "inputs": [],
      "name": "longDescription",
      "outputs": [
        {
          "internalType": "string",
          "name": "",
          "type": "string"
        }
      ],
      "stateMutability": "pure",
      "type": "function"
    },
    {
      "inputs": [],
      "name": "getComponents",
      "outputs": [
        {
          "components": [
            {
              "internalType": "uint8",
              "name": "indexPercentage",
              "type": "uint8"
            },
            {
              "internalType": "uint24",
              "name": "poolFee",
              "type": "uint24"
            },
            {
              "internalType": "address",
              "name": "tokenAddress",
              "type": "address"
            },
            {
              "internalType": "address",
              "name": "priceOracleAddress",
              "type": "address"
            }
          ],
          "internalType": "struct BaseIndex.TokenInfo[]",
          "name": "",
          "type": "tuple[]"
        }
      ],
      "stateMutability": "view",
      "type": "function"
    },
    {
      "inputs": [
        {
          "internalType": "address",
          "name": "tokenOracleAddress",
          "type": "address"
        }
      ],
      "name": "getTokenPrice",
      "outputs": [
        {
          "internalType": "uint256",
          "name": "",
          "type": "uint256"
        }
      ],
      "stateMutability": "view",
      "type": "function"
    },
    {
      "inputs": [],
      "name": "image",
      "outputs": [
        {
          "internalType": "string",
          "name": "",
          "type": "string"
        }
      ],
      "stateMutability": "pure",
      "type": "function"
    },
    {
      "inputs": [],
      "name": "getTotalLockedValue",
      "outputs": [
        {
          "internalType": "uint256",
          "name": "",
          "type": "uint256"
        }
      ],
      "stateMutability": "view",
      "type": "function"
    },
    {
      "inputs": [
        {
          "internalType": "uint256",
          "name": "amount",
          "type": "uint256"
        }
      ],
      "name": "buy",
      "outputs": [],
      "stateMutability": "nonpayable",
      "type": "function"
    },
    {
      "inputs": [
        {
          "internalType": "uint256",
          "name": "amount",
          "type": "uint256"
        }
      ],
      "name": "retrieveDebt",
      "outputs": [],
      "stateMutability": "nonpayable",
      "type": "function"
    },
    {
      "inputs": [
        {
          "internalType": "uint256",
          "name": "amount",
          "type": "uint256"
        }
      ],
      "name": "sell",
      "outputs": [],
      "stateMutability": "nonpayable",
      "type": "function"
    },
    {
      "inputs": [],
      "name": "beginSettlement",
      "outputs": [],
      "stateMutability": "nonpayable",
      "type": "function"
    },
    {
      "inputs": [],
      "name": "endSettlement",
      "outputs": [],
      "stateMutability": "nonpayable",
      "type": "function"
    },
    {
      "inputs": [],
      "name": "manageTokens",
      "outputs": [],
      "stateMutability": "payable",
      "type": "function"
    },
    {
      "inputs": [],
      "name": "getPrice",
      "outputs": [
        {
          "internalType": "uint256",
          "name": "",
          "type": "uint256"
        }
      ],
      "stateMutability": "view",
      "type": "function"
    }
  ],
  "bytecode": "0x60a06040526000600a553480156200001657600080fd5b5060405162006ad938038062006ad983398181016040528101906200003c9190620019d4565b60006200004e6200199960201b60201c565b9050806000806101000a81548173ffffffffffffffffffffffffffffffffffffffff021916908373ffffffffffffffffffffffffffffffffffffffff1602179055508073ffffffffffffffffffffffffffffffffffffffff16600073ffffffffffffffffffffffffffffffffffffffff167f8be0079c531659141344cd1fd0a4f28419497f9722a3daafe3b4186f6b6457e060405160405180910390a3506001808190555080600960006101000a81548173ffffffffffffffffffffffffffffffffffffffff021916908373ffffffffffffffffffffffffffffffffffffffff160217905550731111111254fb6c44bac0bed2854e76f90643097d73ffffffffffffffffffffffffffffffffffffffff1660808173ffffffffffffffffffffffffffffffffffffffff1660601b81525050736b175474e89094c44da98b954eedeac495271d0f600260016101000a81548173ffffffffffffffffffffffffffffffffffffffff021916908373ffffffffffffffffffffffffffffffffffffffff160217905550600a600260156101000a81548160ff021916908360ff160217905550606460038190555060646004819055503060126040516200021190620019a1565b6200021e92919062001aa6565b604051809103906000f0801580156200023b573d6000803e3d6000fd5b50600860006101000a81548173ffffffffffffffffffffffffffffffffffffffff021916908373ffffffffffffffffffffffffffffffffffffffff1602179055506040516200028a90620019af565b604051809103906000f080158015620002a7573d6000803e3d6000fd5b50600760006101000a81548173ffffffffffffffffffffffffffffffffffffffff021916908373ffffffffffffffffffffffffffffffffffffffff1602179055506000600260006101000a81548160ff02191690831515021790555060066040518060800160405280600f60ff168152602001610bb862ffffff16815260200173c02aaa39b223fe8d0a0e5c4f27ead9083c756cc273ffffffffffffffffffffffffffffffffffffffff168152602001735f4ec3df9cbd43714fe2740f5e3616155c5b841973ffffffffffffffffffffffffffffffffffffffff16815250908060018154018082558091505060019003906000526020600020906002020160009091909190915060008201518160000160006101000a81548160ff021916908360ff16021790555060208201518160000160016101000a81548162ffffff021916908362ffffff16021790555060408201518160000160046101000a81548173ffffffffffffffffffffffffffffffffffffffff021916908373ffffffffffffffffffffffffffffffffffffffff16021790555060608201518160010160006101000a81548173ffffffffffffffffffffffffffffffffffffffff021916908373ffffffffffffffffffffffffffffffffffffffff160217905550505060066040518060800160405280600560ff168152602001610bb862ffffff16815260200173514910771af9ca656af840dff83e8264ecf986ca73ffffffffffffffffffffffffffffffffffffffff168152602001732c1d072e956affc0d435cb7ac38ef18d24d9127c73ffffffffffffffffffffffffffffffffffffffff16815250908060018154018082558091505060019003906000526020600020906002020160009091909190915060008201518160000160006101000a81548160ff021916908360ff16021790555060208201518160000160016101000a81548162ffffff021916908362ffffff16021790555060408201518160000160046101000a81548173ffffffffffffffffffffffffffffffffffffffff021916908373ffffffffffffffffffffffffffffffffffffffff16021790555060608201518160010160006101000a81548173ffffffffffffffffffffffffffffffffffffffff021916908373ffffffffffffffffffffffffffffffffffffffff160217905550505060066040518060800160405280600560ff168152602001610bb862ffffff16815260200173b8c77482e45f1f44de1745f52c74426c631bdd5273ffffffffffffffffffffffffffffffffffffffff1681526020017314e613ac84a31f709eadbdf89c6cc390fdc9540a73ffffffffffffffffffffffffffffffffffffffff16815250908060018154018082558091505060019003906000526020600020906002020160009091909190915060008201518160000160006101000a81548160ff021916908360ff16021790555060208201518160000160016101000a81548162ffffff021916908362ffffff16021790555060408201518160000160046101000a81548173ffffffffffffffffffffffffffffffffffffffff021916908373ffffffffffffffffffffffffffffffffffffffff16021790555060608201518160010160006101000a81548173ffffffffffffffffffffffffffffffffffffffff021916908373ffffffffffffffffffffffffffffffffffffffff160217905550505060066040518060800160405280600a60ff168152602001610bb862ffffff168152602001731f9840a85d5af5bf1d1762f925bdaddc4201f98473ffffffffffffffffffffffffffffffffffffffff16815260200173553303d460ee0afb37edff9be42922d8ff63220e73ffffffffffffffffffffffffffffffffffffffff16815250908060018154018082558091505060019003906000526020600020906002020160009091909190915060008201518160000160006101000a81548160ff021916908360ff16021790555060208201518160000160016101000a81548162ffffff021916908362ffffff16021790555060408201518160000160046101000a81548173ffffffffffffffffffffffffffffffffffffffff021916908373ffffffffffffffffffffffffffffffffffffffff16021790555060608201518160010160006101000a81548173ffffffffffffffffffffffffffffffffffffffff021916908373ffffffffffffffffffffffffffffffffffffffff160217905550505060066040518060800160405280600560ff168152602001610bb862ffffff16815260200173111111111117dc0aa78b770fa6a738034120c30273ffffffffffffffffffffffffffffffffffffffff16815260200173c929ad75b72593967de83e7f7cda0493458261d973ffffffffffffffffffffffffffffffffffffffff16815250908060018154018082558091505060019003906000526020600020906002020160009091909190915060008201518160000160006101000a81548160ff021916908360ff16021790555060208201518160000160016101000a81548162ffffff021916908362ffffff16021790555060408201518160000160046101000a81548173ffffffffffffffffffffffffffffffffffffffff021916908373ffffffffffffffffffffffffffffffffffffffff16021790555060608201518160010160006101000a81548173ffffffffffffffffffffffffffffffffffffffff021916908373ffffffffffffffffffffffffffffffffffffffff160217905550505060066040518060800160405280600560ff16815260200161271062ffffff16815260200173c011a73ee8576fb46f5e1c5751ca3b9fe0af2a6f73ffffffffffffffffffffffffffffffffffffffff16815260200173dc3ea94cd0ac27d9a86c180091e7f78c683d369973ffffffffffffffffffffffffffffffffffffffff16815250908060018154018082558091505060019003906000526020600020906002020160009091909190915060008201518160000160006101000a81548160ff021916908360ff16021790555060208201518160000160016101000a81548162ffffff021916908362ffffff16021790555060408201518160000160046101000a81548173ffffffffffffffffffffffffffffffffffffffff021916908373ffffffffffffffffffffffffffffffffffffffff16021790555060608201518160010160006101000a81548173ffffffffffffffffffffffffffffffffffffffff021916908373ffffffffffffffffffffffffffffffffffffffff160217905550505060066040518060800160405280600560ff168152602001610bb862ffffff168152602001730bc529c00c6401aef6d220be8c6ea1667f6ad93e73ffffffffffffffffffffffffffffffffffffffff16815260200173a027702dbb89fbd58938e4324ac03b58d812b0e173ffffffffffffffffffffffffffffffffffffffff16815250908060018154018082558091505060019003906000526020600020906002020160009091909190915060008201518160000160006101000a81548160ff021916908360ff16021790555060208201518160000160016101000a81548162ffffff021916908362ffffff16021790555060408201518160000160046101000a81548173ffffffffffffffffffffffffffffffffffffffff021916908373ffffffffffffffffffffffffffffffffffffffff16021790555060608201518160010160006101000a81548173ffffffffffffffffffffffffffffffffffffffff021916908373ffffffffffffffffffffffffffffffffffffffff160217905550505060066040518060800160405280600560ff168152602001610bb862ffffff16815260200173c00e94cb662c3520282e6f5717214004a7f2688873ffffffffffffffffffffffffffffffffffffffff16815260200173dbd020caef83efd542f4de03e3cf0c28a4428bd573ffffffffffffffffffffffffffffffffffffffff16815250908060018154018082558091505060019003906000526020600020906002020160009091909190915060008201518160000160006101000a81548160ff021916908360ff16021790555060208201518160000160016101000a81548162ffffff021916908362ffffff16021790555060408201518160000160046101000a81548173ffffffffffffffffffffffffffffffffffffffff021916908373ffffffffffffffffffffffffffffffffffffffff16021790555060608201518160010160006101000a81548173ffffffffffffffffffffffffffffffffffffffff021916908373ffffffffffffffffffffffffffffffffffffffff160217905550505060066040518060800160405280600560ff168152602001610bb862ffffff168152602001739f8f72aa9304c8b593d555f12ef6589cc3a579a273ffffffffffffffffffffffffffffffffffffffff16815260200173ec1d1b3b0443256cc3860e24a46f108e699484aa73ffffffffffffffffffffffffffffffffffffffff16815250908060018154018082558091505060019003906000526020600020906002020160009091909190915060008201518160000160006101000a81548160ff021916908360ff16021790555060208201518160000160016101000a81548162ffffff021916908362ffffff16021790555060408201518160000160046101000a81548173ffffffffffffffffffffffffffffffffffffffff021916908373ffffffffffffffffffffffffffffffffffffffff16021790555060608201518160010160006101000a81548173ffffffffffffffffffffffffffffffffffffffff021916908373ffffffffffffffffffffffffffffffffffffffff160217905550505060066040518060800160405280600a60ff168152602001610bb862ffffff168152602001736b3595068778dd592e39a122f4f5a5cf09c90fe273ffffffffffffffffffffffffffffffffffffffff16815260200173cc70f09a6cc17553b2e31954cd36e4a2d89501f773ffffffffffffffffffffffffffffffffffffffff16815250908060018154018082558091505060019003906000526020600020906002020160009091909190915060008201518160000160006101000a81548160ff021916908360ff16021790555060208201518160000160016101000a81548162ffffff021916908362ffffff16021790555060408201518160000160046101000a81548173ffffffffffffffffffffffffffffffffffffffff021916908373ffffffffffffffffffffffffffffffffffffffff16021790555060608201518160010160006101000a81548173ffffffffffffffffffffffffffffffffffffffff021916908373ffffffffffffffffffffffffffffffffffffffff160217905550505060066040518060800160405280600a60ff168152602001610bb862ffffff16815260200173ae9e8333a1bc59751e566bc43c91b48477eb41df73ffffffffffffffffffffffffffffffffffffffff16815260200173ced2660c6dd1ffd856a5a82c67f3482d88c50b1273ffffffffffffffffffffffffffffffffffffffff16815250908060018154018082558091505060019003906000526020600020906002020160009091909190915060008201518160000160006101000a81548160ff021916908360ff16021790555060208201518160000160016101000a81548162ffffff021916908362ffffff16021790555060408201518160000160046101000a81548173ffffffffffffffffffffffffffffffffffffffff021916908373ffffffffffffffffffffffffffffffffffffffff16021790555060608201518160010160006101000a81548173ffffffffffffffffffffffffffffffffffffffff021916908373ffffffffffffffffffffffffffffffffffffffff160217905550505060066040518060800160405280600560ff168152602001610bb862ffffff16815260200173d533a949740bb3306d119cc777fa900ba034cd5273ffffffffffffffffffffffffffffffffffffffff16815260200173cd627aa160a6fa45eb793d19ef54f5062f20f33f73ffffffffffffffffffffffffffffffffffffffff16815250908060018154018082558091505060019003906000526020600020906002020160009091909190915060008201518160000160006101000a81548160ff021916908360ff16021790555060208201518160000160016101000a81548162ffffff021916908362ffffff16021790555060408201518160000160046101000a81548173ffffffffffffffffffffffffffffffffffffffff021916908373ffffffffffffffffffffffffffffffffffffffff16021790555060608201518160010160006101000a81548173ffffffffffffffffffffffffffffffffffffffff021916908373ffffffffffffffffffffffffffffffffffffffff160217905550505060066040518060800160405280600560ff168152602001610bb862ffffff168152602001736f259637dcd74c767781e37bc6133cd6a68aa16173ffffffffffffffffffffffffffffffffffffffff16815260200173e1329b3f6513912caf589659777b66011aee588073ffffffffffffffffffffffffffffffffffffffff16815250908060018154018082558091505060019003906000526020600020906002020160009091909190915060008201518160000160006101000a81548160ff021916908360ff16021790555060208201518160000160016101000a81548162ffffff021916908362ffffff16021790555060408201518160000160046101000a81548173ffffffffffffffffffffffffffffffffffffffff021916908373ffffffffffffffffffffffffffffffffffffffff16021790555060608201518160010160006101000a81548173ffffffffffffffffffffffffffffffffffffffff021916908373ffffffffffffffffffffffffffffffffffffffff160217905550505060066040518060800160405280600560ff168152602001610bb862ffffff168152602001731f573d6fb3f13d689ff844b4ce37794d79a7ff1c73ffffffffffffffffffffffffffffffffffffffff168152602001731e6cf0d433de4fe882a437abc654f58e1e78548c73ffffffffffffffffffffffffffffffffffffffff16815250908060018154018082558091505060019003906000526020600020906002020160009091909190915060008201518160000160006101000a81548160ff021916908360ff16021790555060208201518160000160016101000a81548162ffffff021916908362ffffff16021790555060408201518160000160046101000a81548173ffffffffffffffffffffffffffffffffffffffff021916908373ffffffffffffffffffffffffffffffffffffffff16021790555060608201518160010160006101000a81548173ffffffffffffffffffffffffffffffffffffffff021916908373ffffffffffffffffffffffffffffffffffffffff160217905550505060066040518060800160405280600560ff168152602001610bb862ffffff16815260200173e28b3b32b6c345a34ff64674606124dd5aceca3073ffffffffffffffffffffffffffffffffffffffff16815260200173ae2ebe3c4d20ce13ce47cbb49b6d7ee631cd816e73ffffffffffffffffffffffffffffffffffffffff16815250908060018154018082558091505060019003906000526020600020906002020160009091909190915060008201518160000160006101000a81548160ff021916908360ff16021790555060208201518160000160016101000a81548162ffffff021916908362ffffff16021790555060408201518160000160046101000a81548173ffffffffffffffffffffffffffffffffffffffff021916908373ffffffffffffffffffffffffffffffffffffffff16021790555060608201518160010160006101000a81548173ffffffffffffffffffffffffffffffffffffffff021916908373ffffffffffffffffffffffffffffffffffffffff16021790555050505062001b7d565b600033905090565b6112e9806200559383390190565b61025d806200687c83390190565b600081519050620019ce8162001b63565b92915050565b600060208284031215620019e757600080fd5b6000620019f784828501620019bd565b91505092915050565b62001a0b8162001b0e565b82525050565b62001a1c8162001b4f565b82525050565b600062001a3160078362001afd565b91507f43525950544958000000000000000000000000000000000000000000000000006000830152602082019050919050565b600062001a7360128362001afd565b91507f43727970746f20696e64657820746f6b656e00000000000000000000000000006000830152602082019050919050565b600060808201905062001abd600083018562001a00565b818103602083015262001ad08162001a64565b905062001ae1604083018462001a11565b818103606083015262001af48162001a22565b90509392505050565b600082825260208201905092915050565b600062001b1b8262001b22565b9050919050565b600073ffffffffffffffffffffffffffffffffffffffff82169050919050565b600060ff82169050919050565b600062001b5c8262001b42565b9050919050565b62001b6e8162001b0e565b811462001b7a57600080fd5b50565b60805160601c6139e962001baa6000398061201052806122cc52806127a852806127f752506139e96000f3fe6080604052600436106101735760003560e01c806306fdde03146101785780630d116652146101a357806313a7e54e146101ce5780631da98960146101f757806339cb683d146102225780633d9566911461024b5780634f64b2be1461027657806360ebbf81146102b657806366869d95146102e1578063715018a61461030c5780638da5cb5b146103235780638e96347b1461034e57806395d89b411461037957806398d5fdca146103a457806399a5d747146103cf57806399d50d5d1461040d578063a4e2d63414610438578063b759791414610463578063ba25d9441461048e578063c20120b5146104b9578063ced72f87146104e4578063d02641a014610510578063d96a094a1461054d578063e4849b3214610576578063e7d015f21461059f578063ea4c1b45146105ca578063eed8c66d146105d4578063ef5bf5c8146105ff578063f2fde38b1461063c578063f3ccaac014610665578063f510d90814610690578063fa2dcd93146106a7575b600080fd5b34801561018457600080fd5b5061018d6106be565b60405161019a91906135c8565b60405180910390f35b3480156101af57600080fd5b506101b86106fb565b6040516101c591906134cc565b60405180910390f35b3480156101da57600080fd5b506101f560048036038101906101f091906130aa565b610721565b005b34801561020357600080fd5b5061020c6107f6565b60405161021991906135c8565b60405180910390f35b34801561022e57600080fd5b5061024960048036038101906102449190613058565b610816565b005b34801561025757600080fd5b50610260610b6e565b60405161026d91906136a6565b60405180910390f35b34801561028257600080fd5b5061029d60048036038101906102989190613058565b610b74565b6040516102ad94939291906136ea565b60405180910390f35b3480156102c257600080fd5b506102cb610c10565b6040516102d891906134cc565b60405180910390f35b3480156102ed57600080fd5b506102f6610c36565b60405161030391906136a6565b60405180910390f35b34801561031857600080fd5b50610321610c3c565b005b34801561032f57600080fd5b50610338610da9565b60405161034591906134cc565b60405180910390f35b34801561035a57600080fd5b50610363610dd2565b60405161037091906136a6565b60405180910390f35b34801561038557600080fd5b5061038e610dd8565b60405161039b91906135c8565b60405180910390f35b3480156103b057600080fd5b506103b9610e15565b6040516103c691906136a6565b60405180910390f35b3480156103db57600080fd5b506103f660048036038101906103f19190613058565b61105d565b6040516104049291906136c1565b60405180910390f35b34801561041957600080fd5b506104226110c1565b60405161042f9190613570565b60405180910390f35b34801561044457600080fd5b5061044d61120c565b60405161045a9190613592565b60405180910390f35b34801561046f57600080fd5b5061047861121f565b60405161048591906136a6565b60405180910390f35b34801561049a57600080fd5b506104a36114eb565b6040516104b091906135c8565b60405180910390f35b3480156104c557600080fd5b506104ce61150b565b6040516104db9190613592565b60405180910390f35b3480156104f057600080fd5b506104f9611522565b6040516105079291906136c1565b60405180910390f35b34801561051c57600080fd5b5061053760048036038101906105329190613006565b611546565b60405161054491906136a6565b60405180910390f35b34801561055957600080fd5b50610574600480360381019061056f9190613058565b6115fa565b005b34801561058257600080fd5b5061059d60048036038101906105989190613058565b611a63565b005b3480156105ab57600080fd5b506105b4611ded565b6040516105c191906135ad565b60405180910390f35b6105d2611e13565b005b3480156105e057600080fd5b506105e9612486565b6040516105f691906136a6565b60405180910390f35b34801561060b57600080fd5b5061062660048036038101906106219190613006565b61248c565b60405161063391906136a6565b60405180910390f35b34801561064857600080fd5b50610663600480360381019061065e9190613006565b6124a4565b005b34801561067157600080fd5b5061067a612696565b60405161068791906135c8565b60405180910390f35b34801561069c57600080fd5b506106a56126b6565b005b3480156106b357600080fd5b506106bc612820565b005b60606040518060400160405280600b81526020017f43727970746f496e646578000000000000000000000000000000000000000000815250905090565b600960009054906101000a900473ffffffffffffffffffffffffffffffffffffffff1681565b6107296128fc565b73ffffffffffffffffffffffffffffffffffffffff16610747610da9565b73ffffffffffffffffffffffffffffffffffffffff16146107d0576040517f08c379a00000000000000000000000000000000000000000000000000000000081526004018080602001828103825260208152602001807f4f776e61626c653a2063616c6c6572206973206e6f7420746865206f776e657281525060200191505060405180910390fd5b81600260156101000a81548160ff021916908360ff160217905550806003819055505050565b606060405180608001604052806049815260200161396b60499139905090565b6002600154141561088f576040517f08c379a000000000000000000000000000000000000000000000000000000000815260040180806020018281038252601f8152602001807f5265656e7472616e637947756172643a207265656e7472616e742063616c6c0081525060200191505060405180910390fd5b6002600181905550600560009054906101000a900460ff16156108e7576040517f08c379a00000000000000000000000000000000000000000000000000000000081526004016108de9061362a565b60405180910390fd5b600260009054906101000a900460ff1615610937576040517f08c379a000000000000000000000000000000000000000000000000000000000815260040161092e9061364a565b60405180910390fd5b600061098b82600e60003373ffffffffffffffffffffffffffffffffffffffff1673ffffffffffffffffffffffffffffffffffffffff1681526020019081526020016000205461290490919063ffffffff16565b116109cb576040517f08c379a00000000000000000000000000000000000000000000000000000000081526004016109c2906135ea565b60405180910390fd5b610a1d81600e60003373ffffffffffffffffffffffffffffffffffffffff1673ffffffffffffffffffffffffffffffffffffffff1681526020019081526020016000205461290490919063ffffffff16565b600e60003373ffffffffffffffffffffffffffffffffffffffff1673ffffffffffffffffffffffffffffffffffffffff16815260200190815260200160002081905550610a7581600d5461290490919063ffffffff16565b600d81905550600260019054906101000a900473ffffffffffffffffffffffffffffffffffffffff1673ffffffffffffffffffffffffffffffffffffffff1663a9059cbb33836040518363ffffffff1660e01b8152600401610ad89291906134e7565b602060405180830381600087803b158015610af257600080fd5b505af1158015610b06573d6000803e3d6000fd5b505050506040513d601f19601f82011682018060405250810190610b2a919061302f565b507f152a793a1c0b3c4f63c36f92139ab735e60f27cd005a6dd2fd0154687bfeded13382604051610b5c9291906134e7565b60405180910390a16001808190555050565b600b5481565b60068181548110610b8457600080fd5b90600052602060002090600202016000915090508060000160009054906101000a900460ff16908060000160019054906101000a900462ffffff16908060000160049054906101000a900473ffffffffffffffffffffffffffffffffffffffff16908060010160009054906101000a900473ffffffffffffffffffffffffffffffffffffffff16905084565b600260019054906101000a900473ffffffffffffffffffffffffffffffffffffffff1681565b600d5481565b610c446128fc565b73ffffffffffffffffffffffffffffffffffffffff16610c62610da9565b73ffffffffffffffffffffffffffffffffffffffff1614610ceb576040517f08c379a00000000000000000000000000000000000000000000000000000000081526004018080602001828103825260208152602001807f4f776e61626c653a2063616c6c6572206973206e6f7420746865206f776e657281525060200191505060405180910390fd5b600073ffffffffffffffffffffffffffffffffffffffff1660008054906101000a900473ffffffffffffffffffffffffffffffffffffffff1673ffffffffffffffffffffffffffffffffffffffff167f8be0079c531659141344cd1fd0a4f28419497f9722a3daafe3b4186f6b6457e060405160405180910390a360008060006101000a81548173ffffffffffffffffffffffffffffffffffffffff021916908373ffffffffffffffffffffffffffffffffffffffff160217905550565b60008060009054906101000a900473ffffffffffffffffffffffffffffffffffffffff16905090565b600c5481565b60606040518060400160405280600781526020017f4352595054495800000000000000000000000000000000000000000000000000815250905090565b60008060005b60068054905081101561104157610e30612f41565b60068281548110610e3d57fe5b90600052602060002090600202016040518060800160405290816000820160009054906101000a900460ff1660ff1660ff1681526020016000820160019054906101000a900462ffffff1662ffffff1662ffffff1681526020016000820160049054906101000a900473ffffffffffffffffffffffffffffffffffffffff1673ffffffffffffffffffffffffffffffffffffffff1673ffffffffffffffffffffffffffffffffffffffff1681526020016001820160009054906101000a900473ffffffffffffffffffffffffffffffffffffffff1673ffffffffffffffffffffffffffffffffffffffff1673ffffffffffffffffffffffffffffffffffffffff16815250509050611031611022826000015160ff166110146064600760009054906101000a900473ffffffffffffffffffffffffffffffffffffffff1673ffffffffffffffffffffffffffffffffffffffff166341976e0987606001516040518263ffffffff1660e01b8152600401610fb691906134cc565b60206040518083038186803b158015610fce57600080fd5b505afa158015610fe2573d6000803e3d6000fd5b505050506040513d601f19601f820116820180604052508101906110069190613081565b61298790919063ffffffff16565b612a1090919063ffffffff16565b84612a9690919063ffffffff16565b9250508080600101915050610e1b565b506110576004548261298790919063ffffffff16565b91505090565b600080600061109b600260159054906101000a900460ff1660ff1661108d6003548761298790919063ffffffff16565b612a1090919063ffffffff16565b905060006110b2828661290490919063ffffffff16565b90508181935093505050915091565b60606006805480602002602001604051908101604052809291908181526020016000905b8282101561120357838290600052602060002090600202016040518060800160405290816000820160009054906101000a900460ff1660ff1660ff1681526020016000820160019054906101000a900462ffffff1662ffffff1662ffffff1681526020016000820160049054906101000a900473ffffffffffffffffffffffffffffffffffffffff1673ffffffffffffffffffffffffffffffffffffffff1673ffffffffffffffffffffffffffffffffffffffff1681526020016001820160009054906101000a900473ffffffffffffffffffffffffffffffffffffffff1673ffffffffffffffffffffffffffffffffffffffff1673ffffffffffffffffffffffffffffffffffffffff1681525050815260200190600101906110e5565b50505050905090565b600260009054906101000a900460ff1681565b60008060005b6006805490508110156114e35761123a612f41565b6006828154811061124757fe5b90600052602060002090600202016040518060800160405290816000820160009054906101000a900460ff1660ff1660ff1681526020016000820160019054906101000a900462ffffff1662ffffff1662ffffff1681526020016000820160049054906101000a900473ffffffffffffffffffffffffffffffffffffffff1673ffffffffffffffffffffffffffffffffffffffff1673ffffffffffffffffffffffffffffffffffffffff1681526020016001820160009054906101000a900473ffffffffffffffffffffffffffffffffffffffff1673ffffffffffffffffffffffffffffffffffffffff1673ffffffffffffffffffffffffffffffffffffffff1681525050905060008160400151905060006114a2600760009054906101000a900473ffffffffffffffffffffffffffffffffffffffff1673ffffffffffffffffffffffffffffffffffffffff166341976e0985606001516040518263ffffffff1660e01b81526004016113bb91906134cc565b60206040518083038186803b1580156113d357600080fd5b505afa1580156113e7573d6000803e3d6000fd5b505050506040513d601f19601f8201168201806040525081019061140b9190613081565b8373ffffffffffffffffffffffffffffffffffffffff166370a08231306040518263ffffffff1660e01b815260040161144491906134cc565b60206040518083038186803b15801561145c57600080fd5b505afa158015611470573d6000803e3d6000fd5b505050506040513d601f19601f820116820180604052508101906114949190613081565b612a1090919063ffffffff16565b90506114d16114c2670de0b6b3a76400008361298790919063ffffffff16565b86612a9690919063ffffffff16565b94505050508080600101915050611225565b508091505090565b606060405180608001604052806049815260200161396b60499139905090565b6000600560009054906101000a900460ff16905090565b600080600260159054906101000a900460ff166003548160ff169150915091509091565b6000600760009054906101000a900473ffffffffffffffffffffffffffffffffffffffff1673ffffffffffffffffffffffffffffffffffffffff166341976e09836040518263ffffffff1660e01b81526004016115a391906134cc565b60206040518083038186803b1580156115bb57600080fd5b505afa1580156115cf573d6000803e3d6000fd5b505050506040513d601f19601f820116820180604052508101906115f39190613081565b9050919050565b60026001541415611673576040517f08c379a000000000000000000000000000000000000000000000000000000000815260040180806020018281038252601f8152602001807f5265656e7472616e637947756172643a207265656e7472616e742063616c6c0081525060200191505060405180910390fd5b6002600181905550600560009054906101000a900460ff16156116cb576040517f08c379a00000000000000000000000000000000000000000000000000000000081526004016116c29061362a565b60405180910390fd5b60006116d5610e15565b90506000806116e38461105d565b91509150600181101561172b576040517f08c379a00000000000000000000000000000000000000000000000000000000081526004016117229061360a565b60405180910390fd5b600061175a670de0b6b3a764000061174c8685612a1090919063ffffffff16565b61298790919063ffffffff16565b905061177181600c54612a9690919063ffffffff16565b600c81905550600860009054906101000a900473ffffffffffffffffffffffffffffffffffffffff1673ffffffffffffffffffffffffffffffffffffffff1663a9059cbb33846040518363ffffffff1660e01b81526004016117d49291906134e7565b602060405180830381600087803b1580156117ee57600080fd5b505af1158015611802573d6000803e3d6000fd5b505050506040513d601f19601f82011682018060405250810190611826919061302f565b50611881600260019054906101000a900473ffffffffffffffffffffffffffffffffffffffff16333061187c670de0b6b3a764000061186e8a8c612a1090919063ffffffff16565b61298790919063ffffffff16565b612b1e565b6000600260019054906101000a900473ffffffffffffffffffffffffffffffffffffffff1690508073ffffffffffffffffffffffffffffffffffffffff1663a9059cbb6118cc610da9565b6118f9670de0b6b3a76400006118eb8a8a612a1090919063ffffffff16565b61298790919063ffffffff16565b6040518363ffffffff1660e01b8152600401611916929190613547565b602060405180830381600087803b15801561193057600080fd5b505af1158015611944573d6000803e3d6000fd5b505050506040513d601f19601f82011682018060405250810190611968919061302f565b508073ffffffffffffffffffffffffffffffffffffffff1663a9059cbb600960009054906101000a900473ffffffffffffffffffffffffffffffffffffffff16846040518363ffffffff1660e01b81526004016119c6929190613547565b602060405180830381600087803b1580156119e057600080fd5b505af11580156119f4573d6000803e3d6000fd5b505050506040513d601f19601f82011682018060405250810190611a18919061302f565b507fc032f62758cac23a902e648ab54b6825665b9bc19e7cd0a8ab915cbf3eea4fa0338385604051611a4c93929190613510565b60405180910390a150505050506001808190555050565b60026001541415611adc576040517f08c379a000000000000000000000000000000000000000000000000000000000815260040180806020018281038252601f8152602001807f5265656e7472616e637947756172643a207265656e7472616e742063616c6c0081525060200191505060405180910390fd5b6002600181905550600560009054906101000a900460ff1615611b34576040517f08c379a0000000000000000000000000000000000000000000000000000000008152600401611b2b9061362a565b60405180910390fd5b600260009054906101000a900460ff1615611b84576040517f08c379a0000000000000000000000000000000000000000000000000000000008152600401611b7b9061364a565b60405180910390fd5b600080611b908361105d565b915091506001811015611bd8576040517f08c379a0000000000000000000000000000000000000000000000000000000008152600401611bcf9061366a565b60405180910390fd5b6000611c0e670de0b6b3a7640000611c00611bf1610e15565b85612a1090919063ffffffff16565b61298790919063ffffffff16565b9050611c6281600e60003373ffffffffffffffffffffffffffffffffffffffff1673ffffffffffffffffffffffffffffffffffffffff16815260200190815260200160002054612a9690919063ffffffff16565b600e60003373ffffffffffffffffffffffffffffffffffffffff1673ffffffffffffffffffffffffffffffffffffffff16815260200190815260200160002081905550611cba600b5483612a9690919063ffffffff16565b600b81905550611cee600860009054906101000a900473ffffffffffffffffffffffffffffffffffffffff16333087612b1e565b600860009054906101000a900473ffffffffffffffffffffffffffffffffffffffff1673ffffffffffffffffffffffffffffffffffffffff1663a9059cbb611d34610da9565b856040518363ffffffff1660e01b8152600401611d52929190613547565b602060405180830381600087803b158015611d6c57600080fd5b505af1158015611d80573d6000803e3d6000fd5b505050506040513d601f19601f82011682018060405250810190611da4919061302f565b507fc779ed4173ee0a3293a6575326fb4fcb5c81023bbc481cf910100c0fbe836e33338284604051611dd893929190613510565b60405180910390a15050506001808190555050565b600860009054906101000a900473ffffffffffffffffffffffffffffffffffffffff1681565b611e1b6128fc565b73ffffffffffffffffffffffffffffffffffffffff16611e39610da9565b73ffffffffffffffffffffffffffffffffffffffff1614611ec2576040517f08c379a00000000000000000000000000000000000000000000000000000000081526004018080602001828103825260208152602001807f4f776e61626c653a2063616c6c6572206973206e6f7420746865206f776e657281525060200191505060405180910390fd5b6001600a60008282540192505081905550600160068054905003600a541115611eee576000600a819055505b611ef6612f41565b6006600a5481548110611f0557fe5b90600052602060002090600202016040518060800160405290816000820160009054906101000a900460ff1660ff1660ff1681526020016000820160019054906101000a900462ffffff1662ffffff1662ffffff1681526020016000820160049054906101000a900473ffffffffffffffffffffffffffffffffffffffff1673ffffffffffffffffffffffffffffffffffffffff1673ffffffffffffffffffffffffffffffffffffffff1681526020016001820160009054906101000a900473ffffffffffffffffffffffffffffffffffffffff1673ffffffffffffffffffffffffffffffffffffffff1673ffffffffffffffffffffffffffffffffffffffff1681525050905060007f000000000000000000000000000000000000000000000000000000000000000090506000612062836000015160ff166120546064600c5461298790919063ffffffff16565b612a1090919063ffffffff16565b90506000612095846000015160ff166120876064600b5461298790919063ffffffff16565b612a1090919063ffffffff16565b90506000600760009054906101000a900473ffffffffffffffffffffffffffffffffffffffff1673ffffffffffffffffffffffffffffffffffffffff166341976e0986606001516040518263ffffffff1660e01b81526004016120f891906134cc565b60206040518083038186803b15801561211057600080fd5b505afa158015612124573d6000803e3d6000fd5b505050506040513d601f19601f820116820180604052508101906121489190613081565b905060008311156122b9576000612168828561298790919063ffffffff16565b90508473ffffffffffffffffffffffffffffffffffffffff1663414bf389604051806101000160405280600260019054906101000a900473ffffffffffffffffffffffffffffffffffffffff1673ffffffffffffffffffffffffffffffffffffffff168152602001896040015173ffffffffffffffffffffffffffffffffffffffff168152602001896020015162ffffff1681526020013073ffffffffffffffffffffffffffffffffffffffff168152602001428152602001878152602001848152602001600073ffffffffffffffffffffffffffffffffffffffff168152506040518263ffffffff1660e01b8152600401612264919061368a565b602060405180830381600087803b15801561227e57600080fd5b505af1158015612292573d6000803e3d6000fd5b505050506040513d601f19601f820116820180604052508101906122b69190613081565b50505b600082111561247f576122f185604001517f000000000000000000000000000000000000000000000000000000000000000084612d3f565b61247d8473ffffffffffffffffffffffffffffffffffffffff1663414bf389604051806101000160405280896040015173ffffffffffffffffffffffffffffffffffffffff168152602001600260019054906101000a900473ffffffffffffffffffffffffffffffffffffffff1673ffffffffffffffffffffffffffffffffffffffff168152602001896020015162ffffff1681526020013073ffffffffffffffffffffffffffffffffffffffff1681526020014281526020018681526020016123de670de0b6b3a76400006123d0888a612a1090919063ffffffff16565b61298790919063ffffffff16565b8152602001600073ffffffffffffffffffffffffffffffffffffffff168152506040518263ffffffff1660e01b815260040161241a919061368a565b602060405180830381600087803b15801561243457600080fd5b505af1158015612448573d6000803e3d6000fd5b505050506040513d601f19601f8201168201806040525081019061246c9190613081565b600d54612a9690919063ffffffff16565b505b5050505050565b600a5481565b600e6020528060005260406000206000915090505481565b6124ac6128fc565b73ffffffffffffffffffffffffffffffffffffffff166124ca610da9565b73ffffffffffffffffffffffffffffffffffffffff1614612553576040517f08c379a00000000000000000000000000000000000000000000000000000000081526004018080602001828103825260208152602001807f4f776e61626c653a2063616c6c6572206973206e6f7420746865206f776e657281525060200191505060405180910390fd5b600073ffffffffffffffffffffffffffffffffffffffff168173ffffffffffffffffffffffffffffffffffffffff1614156125d9576040517f08c379a00000000000000000000000000000000000000000000000000000000081526004018080602001828103825260268152602001806138e36026913960400191505060405180910390fd5b8073ffffffffffffffffffffffffffffffffffffffff1660008054906101000a900473ffffffffffffffffffffffffffffffffffffffff1673ffffffffffffffffffffffffffffffffffffffff167f8be0079c531659141344cd1fd0a4f28419497f9722a3daafe3b4186f6b6457e060405160405180910390a3806000806101000a81548173ffffffffffffffffffffffffffffffffffffffff021916908373ffffffffffffffffffffffffffffffffffffffff16021790555050565b606060405180608001604052806041815260200161390960419139905090565b6126be6128fc565b73ffffffffffffffffffffffffffffffffffffffff166126dc610da9565b73ffffffffffffffffffffffffffffffffffffffff1614612765576040517f08c379a00000000000000000000000000000000000000000000000000000000081526004018080602001828103825260208152602001807f4f776e61626c653a2063616c6c6572206973206e6f7420746865206f776e657281525060200191505060405180910390fd5b6001600560006101000a81548160ff0219169083151502179055506127cf600260019054906101000a900473ffffffffffffffffffffffffffffffffffffffff167f0000000000000000000000000000000000000000000000000000000000000000600c54612d3f565b61281e600860009054906101000a900473ffffffffffffffffffffffffffffffffffffffff167f0000000000000000000000000000000000000000000000000000000000000000600b54612d3f565b565b6128286128fc565b73ffffffffffffffffffffffffffffffffffffffff16612846610da9565b73ffffffffffffffffffffffffffffffffffffffff16146128cf576040517f08c379a00000000000000000000000000000000000000000000000000000000081526004018080602001828103825260208152602001807f4f776e61626c653a2063616c6c6572206973206e6f7420746865206f776e657281525060200191505060405180910390fd5b6000600c819055506000600b819055506000600560006101000a81548160ff021916908315150217905550565b600033905090565b60008282111561297c576040517f08c379a000000000000000000000000000000000000000000000000000000000815260040180806020018281038252601e8152602001807f536166654d6174683a207375627472616374696f6e206f766572666c6f77000081525060200191505060405180910390fd5b818303905092915050565b60008082116129fe576040517f08c379a000000000000000000000000000000000000000000000000000000000815260040180806020018281038252601a8152602001807f536166654d6174683a206469766973696f6e206279207a65726f00000000000081525060200191505060405180910390fd5b818381612a0757fe5b04905092915050565b600080831415612a235760009050612a90565b6000828402905082848281612a3457fe5b0414612a8b576040517f08c379a000000000000000000000000000000000000000000000000000000000815260040180806020018281038252602181526020018061394a6021913960400191505060405180910390fd5b809150505b92915050565b600080828401905083811015612b14576040517f08c379a000000000000000000000000000000000000000000000000000000000815260040180806020018281038252601b8152602001807f536166654d6174683a206164646974696f6e206f766572666c6f77000000000081525060200191505060405180910390fd5b8091505092915050565b600060608573ffffffffffffffffffffffffffffffffffffffff166323b872dd60e01b868686604051602401808473ffffffffffffffffffffffffffffffffffffffff1681526020018373ffffffffffffffffffffffffffffffffffffffff1681526020018281526020019350505050604051602081830303815290604052907bffffffffffffffffffffffffffffffffffffffffffffffffffffffff19166020820180517bffffffffffffffffffffffffffffffffffffffffffffffffffffffff83818316178352505050506040518082805190602001908083835b60208310612c1e5780518252602082019150602081019050602083039250612bfb565b6001836020036101000a0380198251168184511680821785525050505050509050019150506000604051808303816000865af19150503d8060008114612c80576040519150601f19603f3d011682016040523d82523d6000602084013e612c85565b606091505b5091509150818015612cc55750600081511480612cc45750808060200190516020811015612cb257600080fd5b81019080805190602001909291905050505b5b612d37576040517f08c379a00000000000000000000000000000000000000000000000000000000081526004018080602001828103825260038152602001807f535446000000000000000000000000000000000000000000000000000000000081525060200191505060405180910390fd5b505050505050565b600060608473ffffffffffffffffffffffffffffffffffffffff1663095ea7b360e01b8585604051602401808373ffffffffffffffffffffffffffffffffffffffff16815260200182815260200192505050604051602081830303815290604052907bffffffffffffffffffffffffffffffffffffffffffffffffffffffff19166020820180517bffffffffffffffffffffffffffffffffffffffffffffffffffffffff83818316178352505050506040518082805190602001908083835b60208310612e215780518252602082019150602081019050602083039250612dfe565b6001836020036101000a0380198251168184511680821785525050505050509050019150506000604051808303816000865af19150503d8060008114612e83576040519150601f19603f3d011682016040523d82523d6000602084013e612e88565b606091505b5091509150818015612ec85750600081511480612ec75750808060200190516020811015612eb557600080fd5b81019080805190602001909291905050505b5b612f3a576040517f08c379a00000000000000000000000000000000000000000000000000000000081526004018080602001828103825260028152602001807f534100000000000000000000000000000000000000000000000000000000000081525060200191505060405180910390fd5b5050505050565b6040518060800160405280600060ff168152602001600062ffffff168152602001600073ffffffffffffffffffffffffffffffffffffffff168152602001600073ffffffffffffffffffffffffffffffffffffffff1681525090565b600081359050612fac81613886565b92915050565b600081519050612fc18161389d565b92915050565b600081359050612fd6816138b4565b92915050565b600081519050612feb816138b4565b92915050565b600081359050613000816138cb565b92915050565b60006020828403121561301857600080fd5b600061302684828501612f9d565b91505092915050565b60006020828403121561304157600080fd5b600061304f84828501612fb2565b91505092915050565b60006020828403121561306a57600080fd5b600061307884828501612fc7565b91505092915050565b60006020828403121561309357600080fd5b60006130a184828501612fdc565b91505092915050565b600080604083850312156130bd57600080fd5b60006130cb85828601612ff1565b92505060206130dc85828601612fc7565b9150509250929050565b60006130f2838361340e565b60808301905092915050565b613107816137e8565b82525050565b61311681613784565b82525050565b61312581613784565b82525050565b60006131368261373f565b6131408185613762565b935061314b8361372f565b8060005b8381101561317c57815161316388826130e6565b975061316e83613755565b92505060018101905061314f565b5085935050505092915050565b61319281613796565b82525050565b6131a1816137fa565b82525050565b60006131b28261374a565b6131bc8185613773565b93506131cc818560208601613842565b6131d581613875565b840191505092915050565b60006131ed602e83613773565b91507f4e6f7420656e6f75676820646562742c207472792073656c6c696e6720796f7560008301527f7220746f6b656e732066697273740000000000000000000000000000000000006020830152604082019050919050565b6000613253601683613773565b91507f4e6f7420656e6f75676820746f6b656e732073656e74000000000000000000006000830152602082019050919050565b6000613293602983613773565b91507f50726f64756374206973206265696e6720736574746c65642c2074727920616760008301527f61696e206c6174657200000000000000000000000000000000000000000000006020830152604082019050919050565b60006132f9601183613773565b91507f50726f64756374206973206c6f636b65640000000000000000000000000000006000830152602082019050919050565b6000613339601983613773565b91507f596f75206d7573742073656c6c206d6f726520746f6b656e73000000000000006000830152602082019050919050565b61010082016000820151613383600085018261310d565b506020820151613396602085018261310d565b5060408201516133a96040850182613472565b5060608201516133bc606085018261310d565b5060808201516133cf6080850182613490565b5060a08201516133e260a0850182613490565b5060c08201516133f560c0850182613490565b5060e082015161340860e0850182613463565b50505050565b60808201600082015161342460008501826134ae565b5060208201516134376020850182613472565b50604082015161344a604085018261310d565b50606082015161345d606085018261310d565b50505050565b61346c816137a2565b82525050565b61347b816137c2565b82525050565b61348a816137c2565b82525050565b613499816137d1565b82525050565b6134a8816137d1565b82525050565b6134b7816137db565b82525050565b6134c6816137db565b82525050565b60006020820190506134e1600083018461311c565b92915050565b60006040820190506134fc60008301856130fe565b613509602083018461349f565b9392505050565b600060608201905061352560008301866130fe565b613532602083018561349f565b61353f604083018461349f565b949350505050565b600060408201905061355c600083018561311c565b613569602083018461349f565b9392505050565b6000602082019050818103600083015261358a818461312b565b905092915050565b60006020820190506135a76000830184613189565b92915050565b60006020820190506135c26000830184613198565b92915050565b600060208201905081810360008301526135e281846131a7565b905092915050565b60006020820190508181036000830152613603816131e0565b9050919050565b6000602082019050818103600083015261362381613246565b9050919050565b6000602082019050818103600083015261364381613286565b9050919050565b60006020820190508181036000830152613663816132ec565b9050919050565b600060208201905081810360008301526136838161332c565b9050919050565b6000610100820190506136a0600083018461336c565b92915050565b60006020820190506136bb600083018461349f565b92915050565b60006040820190506136d6600083018561349f565b6136e3602083018461349f565b9392505050565b60006080820190506136ff60008301876134bd565b61370c6020830186613481565b613719604083018561311c565b613726606083018461311c565b95945050505050565b6000819050602082019050919050565b600081519050919050565b600081519050919050565b6000602082019050919050565b600082825260208201905092915050565b600082825260208201905092915050565b600061378f826137a2565b9050919050565b60008115159050919050565b600073ffffffffffffffffffffffffffffffffffffffff82169050919050565b600062ffffff82169050919050565b6000819050919050565b600060ff82169050919050565b60006137f38261381e565b9050919050565b60006138058261380c565b9050919050565b6000613817826137a2565b9050919050565b600061382982613830565b9050919050565b600061383b826137a2565b9050919050565b60005b83811015613860578082015181840152602081019050613845565b8381111561386f576000848401525b50505050565b6000601f19601f8301169050919050565b61388f81613784565b811461389a57600080fd5b50565b6138a681613796565b81146138b157600080fd5b50565b6138bd816137d1565b81146138c857600080fd5b50565b6138d4816137db565b81146138df57600080fd5b5056fe4f776e61626c653a206e6577206f776e657220697320746865207a65726f206164647265737368747470733a2f2f63727970746f6c6f676f732e63632f6c6f676f732f706f6c796d6174682d6e6574776f726b2d706f6c792d6c6f676f2e706e673f763d303232536166654d6174683a206d756c7469706c69636174696f6e206f766572666c6f77436f7272656c6174696f6e20696e646578206973206120746f6f6c207468617420616c6c6f777320796f7520746f2064697665727369667920796f757220696e766573746d656e7473a2646970667358221220fe8eb78ab74d8e58f86ea40487220d97fa7455b4dea4e63730cec4d38c71fa4e64736f6c6343000705003360806040523480156200001157600080fd5b50604051620012e9380380620012e983398181016040528101906200003791906200020f565b83600560006101000a81548173ffffffffffffffffffffffffffffffffffffffff021916908373ffffffffffffffffffffffffffffffffffffffff160217905550826002908051906020019062000090929190620000cf565b5081600360006101000a81548160ff021916908360ff1602179055508060049080519060200190620000c4929190620000cf565b5050505050620003c1565b828054600181600116156101000203166002900490600052602060002090601f01602090048101928262000107576000855562000153565b82601f106200012257805160ff191683800117855562000153565b8280016001018555821562000153579182015b828111156200015257825182559160200191906001019062000135565b5b50905062000162919062000166565b5090565b5b808211156200018157600081600090555060010162000167565b5090565b60008151905062000196816200038d565b92915050565b600082601f830112620001ae57600080fd5b8151620001c5620001bf82620002e1565b620002ad565b91508082526020830160208301858383011115620001e257600080fd5b620001ef83828462000355565b50505092915050565b6000815190506200020981620003a7565b92915050565b600080600080608085870312156200022657600080fd5b6000620002368782880162000185565b945050602085015167ffffffffffffffff8111156200025457600080fd5b62000262878288016200019c565b93505060406200027587828801620001f8565b925050606085015167ffffffffffffffff8111156200029357600080fd5b620002a1878288016200019c565b91505092959194509250565b6000604051905081810181811067ffffffffffffffff82111715620002d757620002d66200038b565b5b8060405250919050565b600067ffffffffffffffff821115620002ff57620002fe6200038b565b5b601f19601f8301169050602081019050919050565b6000620003218262000328565b9050919050565b600073ffffffffffffffffffffffffffffffffffffffff82169050919050565b600060ff82169050919050565b60005b838110156200037557808201518184015260208101905062000358565b8381111562000385576000848401525b50505050565bfe5b620003988162000314565b8114620003a457600080fd5b50565b620003b28162000348565b8114620003be57600080fd5b50565b610f1880620003d16000396000f3fe608060405234801561001057600080fd5b50600436106100995760003560e01c806306fdde031461009e578063095ea7b3146100bc5780630cf1fd36146100ec57806323b872dd1461010a57806327e235e31461013a578063313ce5671461016a5780635c6581651461018857806370a08231146101b857806395d89b41146101e8578063a9059cbb14610206578063dd62ed3e14610236575b600080fd5b6100a6610266565b6040516100b39190610d67565b60405180910390f35b6100d660048036038101906100d19190610bb4565b610304565b6040516100e39190610d4c565b60405180910390f35b6100f46103f6565b6040516101019190610d31565b60405180910390f35b610124600480360381019061011f9190610b65565b61041c565b6040516101319190610d4c565b60405180910390f35b610154600480360381019061014f9190610b00565b6106e7565b6040516101619190610dc9565b60405180910390f35b6101726106ff565b60405161017f9190610de4565b60405180910390f35b6101a2600480360381019061019d9190610b29565b610712565b6040516101af9190610dc9565b60405180910390f35b6101d260048036038101906101cd9190610b00565b610737565b6040516101df9190610dc9565b60405180910390f35b6101f061077f565b6040516101fd9190610d67565b60405180910390f35b610220600480360381019061021b9190610bb4565b61081d565b60405161022d9190610d4c565b60405180910390f35b610250600480360381019061024b9190610b29565b610a4f565b60405161025d9190610dc9565b60405180910390f35b60028054600181600116156101000203166002900480601f0160208091040260200160405190810160405280929190818152602001828054600181600116156101000203166002900480156102fc5780601f106102d1576101008083540402835291602001916102fc565b820191906000526020600020905b8154815290600101906020018083116102df57829003601f168201915b505050505081565b600081600160003373ffffffffffffffffffffffffffffffffffffffff1673ffffffffffffffffffffffffffffffffffffffff16815260200190815260200160002060008573ffffffffffffffffffffffffffffffffffffffff1673ffffffffffffffffffffffffffffffffffffffff168152602001908152602001600020819055508273ffffffffffffffffffffffffffffffffffffffff163373ffffffffffffffffffffffffffffffffffffffff167f8c5be1e5ebec7d5bd14f71427d1e84f3dd0314c0f7b2291e5b200ac8c7c3b925846040516103e49190610dc9565b60405180910390a36001905092915050565b600560009054906101000a900473ffffffffffffffffffffffffffffffffffffffff1681565b600080600160008673ffffffffffffffffffffffffffffffffffffffff1673ffffffffffffffffffffffffffffffffffffffff16815260200190815260200160002060003373ffffffffffffffffffffffffffffffffffffffff1673ffffffffffffffffffffffffffffffffffffffff168152602001908152602001600020549050826000808773ffffffffffffffffffffffffffffffffffffffff1673ffffffffffffffffffffffffffffffffffffffff16815260200190815260200160002054101580156104ec5750828110155b61052b576040517f08c379a000000000000000000000000000000000000000000000000000000000815260040161052290610da9565b60405180910390fd5b826000808673ffffffffffffffffffffffffffffffffffffffff1673ffffffffffffffffffffffffffffffffffffffff16815260200190815260200160002060008282540192505081905550826000808773ffffffffffffffffffffffffffffffffffffffff1673ffffffffffffffffffffffffffffffffffffffff168152602001908152602001600020600082825403925050819055507fffffffffffffffffffffffffffffffffffffffffffffffffffffffffffffffff8110156106765782600160008773ffffffffffffffffffffffffffffffffffffffff1673ffffffffffffffffffffffffffffffffffffffff16815260200190815260200160002060003373ffffffffffffffffffffffffffffffffffffffff1673ffffffffffffffffffffffffffffffffffffffff168152602001908152602001600020600082825403925050819055505b8373ffffffffffffffffffffffffffffffffffffffff168573ffffffffffffffffffffffffffffffffffffffff167fddf252ad1be2c89b69c2b068fc378daa952ba7f163c4a11628f55a4df523b3ef856040516106d39190610dc9565b60405180910390a360019150509392505050565b60006020528060005260406000206000915090505481565b600360009054906101000a900460ff1681565b6001602052816000526040600020602052806000526040600020600091509150505481565b60008060008373ffffffffffffffffffffffffffffffffffffffff1673ffffffffffffffffffffffffffffffffffffffff168152602001908152602001600020549050919050565b60048054600181600116156101000203166002900480601f0160208091040260200160405190810160405280929190818152602001828054600181600116156101000203166002900480156108155780601f106107ea57610100808354040283529160200191610815565b820191906000526020600020905b8154815290600101906020018083116107f857829003601f168201915b505050505081565b6000600560009054906101000a900473ffffffffffffffffffffffffffffffffffffffff1673ffffffffffffffffffffffffffffffffffffffff163373ffffffffffffffffffffffffffffffffffffffff1614156108c657816000808573ffffffffffffffffffffffffffffffffffffffff1673ffffffffffffffffffffffffffffffffffffffff168152602001908152602001600020600082825401925050819055506109e0565b816000803373ffffffffffffffffffffffffffffffffffffffff1673ffffffffffffffffffffffffffffffffffffffff168152602001908152602001600020541015610947576040517f08c379a000000000000000000000000000000000000000000000000000000000815260040161093e90610d89565b60405180910390fd5b816000803373ffffffffffffffffffffffffffffffffffffffff1673ffffffffffffffffffffffffffffffffffffffff16815260200190815260200160002060008282540392505081905550816000808573ffffffffffffffffffffffffffffffffffffffff1673ffffffffffffffffffffffffffffffffffffffff168152602001908152602001600020600082825401925050819055505b8273ffffffffffffffffffffffffffffffffffffffff163373ffffffffffffffffffffffffffffffffffffffff167fddf252ad1be2c89b69c2b068fc378daa952ba7f163c4a11628f55a4df523b3ef84604051610a3d9190610dc9565b60405180910390a36001905092915050565b6000600160008473ffffffffffffffffffffffffffffffffffffffff1673ffffffffffffffffffffffffffffffffffffffff16815260200190815260200160002060008373ffffffffffffffffffffffffffffffffffffffff1673ffffffffffffffffffffffffffffffffffffffff16815260200190815260200160002054905092915050565b600081359050610ae581610eb4565b92915050565b600081359050610afa81610ecb565b92915050565b600060208284031215610b1257600080fd5b6000610b2084828501610ad6565b91505092915050565b60008060408385031215610b3c57600080fd5b6000610b4a85828601610ad6565b9250506020610b5b85828601610ad6565b9150509250929050565b600080600060608486031215610b7a57600080fd5b6000610b8886828701610ad6565b9350506020610b9986828701610ad6565b9250506040610baa86828701610aeb565b9150509250925092565b60008060408385031215610bc757600080fd5b6000610bd585828601610ad6565b9250506020610be685828601610aeb565b9150509250929050565b610bf981610e1b565b82525050565b610c0881610e2d565b82525050565b6000610c1982610dff565b610c238185610e0a565b9350610c33818560208601610e70565b610c3c81610ea3565b840191505092915050565b6000610c54602f83610e0a565b91507f746f6b656e2062616c616e6365206973206c6f776572207468616e207468652060008301527f76616c75652072657175657374656400000000000000000000000000000000006020830152604082019050919050565b6000610cba603983610e0a565b91507f746f6b656e2062616c616e6365206f7220616c6c6f77616e6365206973206c6f60008301527f776572207468616e20616d6f756e7420726571756573746564000000000000006020830152604082019050919050565b610d1c81610e59565b82525050565b610d2b81610e63565b82525050565b6000602082019050610d466000830184610bf0565b92915050565b6000602082019050610d616000830184610bff565b92915050565b60006020820190508181036000830152610d818184610c0e565b905092915050565b60006020820190508181036000830152610da281610c47565b9050919050565b60006020820190508181036000830152610dc281610cad565b9050919050565b6000602082019050610dde6000830184610d13565b92915050565b6000602082019050610df96000830184610d22565b92915050565b600081519050919050565b600082825260208201905092915050565b6000610e2682610e39565b9050919050565b60008115159050919050565b600073ffffffffffffffffffffffffffffffffffffffff82169050919050565b6000819050919050565b600060ff82169050919050565b60005b83811015610e8e578082015181840152602081019050610e73565b83811115610e9d576000848401525b50505050565b6000601f19601f8301169050919050565b610ebd81610e1b565b8114610ec857600080fd5b50565b610ed481610e59565b8114610edf57600080fd5b5056fea2646970667358221220781e953a89882f00d397f0719fd4367e831cdd640dd456555fbc8c21ac4b60cf64736f6c63430007050033608060405234801561001057600080fd5b5061023d806100206000396000f3fe608060405234801561001057600080fd5b506004361061002b5760003560e01c806341976e0914610030575b600080fd5b6100726004803603602081101561004657600080fd5b81019080803573ffffffffffffffffffffffffffffffffffffffff169060200190929190505050610088565b6040518082815260200191505060405180910390f35b60008082905060008173ffffffffffffffffffffffffffffffffffffffff1663feaf968c6040518163ffffffff1660e01b815260040160a06040518083038186803b1580156100d657600080fd5b505afa1580156100ea573d6000803e3d6000fd5b505050506040513d60a081101561010057600080fd5b8101908080519060200190929190805190602001909291908051906020019092919080519060200190929190805190602001909291905050505050509150506101576402540be4008261016090919063ffffffff16565b92505050919050565b60008083141561017357600090506101e0565b600082840290508284828161018457fe5b04146101db576040517f08c379a00000000000000000000000000000000000000000000000000000000081526004018080602001828103825260218152602001806101e76021913960400191505060405180910390fd5b809150505b9291505056fe536166654d6174683a206d756c7469706c69636174696f6e206f766572666c6f77a2646970667358221220f371fb219942c072d9a9f75422d0ddd3437b8e588d416c36a9fbf948f52f590a64736f6c63430007050033",
  "immutableReferences": {
    "1542": [
      {
        "length": 32,
        "start": 8208
      },
      {
        "length": 32,
        "start": 8908
      },
      {
        "length": 32,
        "start": 10152
      },
      {
        "length": 32,
        "start": 10231
      }
    ]
  },
  "source": "// SPDX-License-Identifier: MIT\npragma solidity 0.7.5;\npragma abicoder v2;\n\nimport \"@openzeppelin/contracts/token/ERC20/ERC20.sol\";\nimport \"@openzeppelin/contracts/math/SafeMath.sol\";\nimport \"@uniswap/v3-periphery/contracts/libraries/TransferHelper.sol\";\nimport \"@uniswap/v3-periphery/contracts/interfaces/ISwapRouter.sol\";\nimport \"@uniswap/v3-periphery/contracts/interfaces/IPeripheryPayments.sol\";\n\nimport \"./PriceOracle.sol\";\nimport \"./IndexToken.sol\";\nimport \"../management/BaseProduct.sol\";\n\ncontract BaseIndex is Product {\n    using SafeMath for uint256;\n\n    modifier onlyManager{\n        require(msg.sender == fundsManager, \"Only funds manager can perform this action\");\n        _;\n    }\n\n    struct TokenInfo {\n        uint8 indexPercentage;\n        uint24 poolFee;\n        address tokenAddress;\n        address priceOracleAddress;\n    }\n\n    TokenInfo[] public tokens;\n    PriceOracle private priceOracle;\n    IndexToken public indexToken;\n    address public fundsManager;\n    address private immutable dexRouterAddress;\n\n    uint public lastManagedToken = 0;   // TODO: change the visibility\n    uint public tokensToSell;    // index tokens that will be sold\n    uint public tokensToBuy;    // usd tokens that will be bought\n    uint public totalAvailableDebt;    // total debt for the index\n    mapping(address => uint) public usersDebt;    // debt to each user\n\n    event DebtRetrieved(address account, uint debtAmount);\n\n    function name() external pure override returns (string memory) {\n        return \"CryptoIndex\";\n    }\n\n    function symbol() external pure override returns (string memory) {\n        return \"CRYPTIX\";\n    }\n\n    function shortDescription() external pure override returns (string memory) {\n        return \"Correlation index is a tool that allows you to diversify your investments\";\n    }\n\n    function longDescription() external pure override returns (string memory) {\n        return \"Correlation index is a tool that allows you to diversify your investments\";\n    }\n\n    function getComponents() external view returns (TokenInfo[] memory) {\n        return tokens;\n    }\n\n    function getTokenPrice(address tokenOracleAddress) external view returns (uint256) {\n        return priceOracle.getPrice(tokenOracleAddress);\n    }\n\n    function image() external pure override returns (string memory) {\n        return \"https://cryptologos.cc/logos/polymath-network-poly-logo.png?v=022\";\n    }\n\n    function getTotalLockedValue() external view override returns (uint256) {\n        uint totalValue;\n\n        for (uint i = 0; i < tokens.length; i++) {\n            TokenInfo memory tokenInfo = tokens[i];\n            IERC20 token = IERC20(tokenInfo.tokenAddress);\n\n            uint tokenBalance = token.balanceOf(address(this)).mul(priceOracle.getPrice(tokenInfo.priceOracleAddress));\n            totalValue = totalValue.add(tokenBalance.div(1 ether));\n        }\n\n        return totalValue;\n    }\n\n    constructor(address _fundsManager) {\n        fundsManager = _fundsManager;\n\n        dexRouterAddress = 0x1111111254fb6c44bAC0beD2854e76F90643097d;  // Uniswap V3 Router\n        buyTokenAddress =  0x6B175474E89094C44Da98b954EedeAC495271d0F; // DAI\n\n        productFee = 10;\n        productFeeTotal = 100;\n        indexPriceAdjustment = 100;\n        \n        indexToken = new IndexToken(address(this), \"Crypto index token\", 18, \"CRYPTIX\");\n        priceOracle = new PriceOracle();\n        isLocked = false;\n\n        tokens.push(\n            TokenInfo({ // WETH\n                tokenAddress: 0xC02aaA39b223FE8D0A0e5C4F27eAD9083C756Cc2,\n                priceOracleAddress: 0x5f4eC3Df9cbd43714FE2740f5E3616155c5b8419,\n                poolFee: 3000,\n                indexPercentage: 15\n            })\n        );\n        tokens.push(\n            TokenInfo({ // LINK\n                tokenAddress: 0x514910771AF9Ca656af840dff83E8264EcF986CA,\n                priceOracleAddress: 0x2c1d072e956AFFC0D435Cb7AC38EF18d24d9127c,\n                poolFee: 3000,\n                indexPercentage: 5\n            })\n        );\n        tokens.push(\n            TokenInfo({ // BNB\n                tokenAddress: 0xB8c77482e45F1F44dE1745F52C74426C631bDD52,\n                priceOracleAddress: 0x14e613AC84a31f709eadbdF89C6CC390fDc9540A,\n                poolFee: 3000,\n                indexPercentage: 5\n            })\n        );\n        tokens.push(\n            TokenInfo({ // UNI\n                tokenAddress: 0x1f9840a85d5aF5bf1D1762F925BDADdC4201F984,\n                priceOracleAddress: 0x553303d460EE0afB37EdFf9bE42922D8FF63220e,\n                poolFee: 3000,\n                indexPercentage: 10\n            })\n        );\n        tokens.push(\n            TokenInfo({ //   1INCH\n                tokenAddress: 0x111111111117dC0aa78b770fA6A738034120C302,\n                priceOracleAddress: 0xc929ad75B72593967DE83E7F7Cda0493458261D9,\n                poolFee: 3000,\n                indexPercentage: 5\n            })\n        );\n        tokens.push(TokenInfo({    //   SNX\n            tokenAddress: 0xC011a73ee8576Fb46F5E1c5751cA3B9Fe0af2a6F,\n            priceOracleAddress: 0xDC3EA94CD0AC27d9A86C180091e7f78C683d3699,\n            poolFee: 10000,\n            indexPercentage: 5\n        }));\n        tokens.push(TokenInfo({    //   YFI\n            tokenAddress: 0x0bc529c00C6401aEF6D220BE8C6Ea1667F6Ad93e,\n            priceOracleAddress: 0xA027702dbb89fbd58938e4324ac03B58d812b0E1,\n            poolFee: 3000,\n            indexPercentage: 5\n        }));\n        tokens.push(TokenInfo({    //   COMP\n            tokenAddress: 0xc00e94Cb662C3520282E6f5717214004A7f26888,\n            priceOracleAddress: 0xdbd020CAeF83eFd542f4De03e3cF0C28A4428bd5,\n            poolFee: 3000,\n            indexPercentage: 5\n        }));\n        tokens.push(TokenInfo({    //   MKR\n            tokenAddress: 0x9f8F72aA9304c8B593d555F12eF6589cC3A579A2,\n            priceOracleAddress: 0xec1D1B3b0443256cc3860e24a46F108e699484Aa,\n            poolFee: 3000,\n            indexPercentage: 5\n        }));\n        tokens.push(TokenInfo({    //   SUSHI\n            tokenAddress: 0x6B3595068778DD592e39A122f4f5a5cF09C90fE2,\n            priceOracleAddress: 0xCc70F09A6CC17553b2E31954cD36E4A2d89501f7,\n            poolFee: 3000,\n            indexPercentage: 10\n        }));\n        tokens.push(TokenInfo({    //   XRP\n            tokenAddress: 0xAE9e8333a1Bc59751E566bc43C91B48477EB41df,\n            priceOracleAddress: 0xCed2660c6Dd1Ffd856A5A82C67f3482d88C50b12,\n            poolFee: 3000,\n            indexPercentage: 10\n        }));\n        tokens.push(TokenInfo({    //   CRV\n            tokenAddress: 0xD533a949740bb3306d119CC777fa900bA034cd52,\n            priceOracleAddress: 0xCd627aA160A6fA45Eb793D19Ef54f5062F20f33f,\n            poolFee: 3000,\n            indexPercentage: 5\n        }));\n        tokens.push(TokenInfo({    //   Huobi Token\n            tokenAddress: 0x6f259637dcD74C767781E37Bc6133cd6A68aa161,\n            priceOracleAddress: 0xE1329B3f6513912CAf589659777b66011AEE5880,\n            poolFee: 3000,\n            indexPercentage: 5\n        }));\n        tokens.push(TokenInfo({    //   BNT\n            tokenAddress: 0x1F573D6Fb3F13d689FF844B4cE37794d79a7FF1C,\n            priceOracleAddress: 0x1E6cF0D433de4FE882A437ABC654F58E1e78548c,\n            poolFee: 3000,\n            indexPercentage: 5\n        }));\n        tokens.push(TokenInfo({    //   INJ\n            tokenAddress: 0xe28b3B32B6c345A34Ff64674606124Dd5Aceca30,\n            priceOracleAddress: 0xaE2EbE3c4D20cE13cE47cbb49b6d7ee631Cd816e,\n            poolFee: 3000,\n            indexPercentage: 5\n        }));\n    }\n\n    function buy(uint256 amount) external nonReentrant checkSettlement override {\n        uint256 indexPrice = getPrice();\n        (uint productFee, uint256 realAmount) = calculateFee(amount);\n        require(realAmount >= 1, \"Not enough tokens sent\");\n\n        uint buyTokenAmount = realAmount.mul(indexPrice).div(1 ether);\n        tokensToBuy = tokensToBuy.add(buyTokenAmount);\n\n        indexToken.transfer(msg.sender, realAmount);\n        TransferHelper.safeTransferFrom(\n            buyTokenAddress, msg.sender, address(this), amount.mul(indexPrice).div(1 ether)\n        );\n\n        IERC20 _buyToken = IERC20(buyTokenAddress);\n        _buyToken.transfer(owner(), productFee.mul(indexPrice).div(1 ether));\n        _buyToken.transfer(fundsManager, buyTokenAmount);\n\n        emit ProductBought(msg.sender, buyTokenAmount, realAmount);\n    }\n\n    function retrieveDebt(uint amount) external nonReentrant checkSettlement checkUnlocked{\n        require(usersDebt[msg.sender].sub(amount) > 0, \"Not enough debt, try selling your tokens first\");\n        \n        usersDebt[msg.sender] = usersDebt[msg.sender].sub(amount);\n        totalAvailableDebt = totalAvailableDebt.sub(amount);\n\n        IERC20(buyTokenAddress).transfer(msg.sender, amount);\n        emit DebtRetrieved(msg.sender, amount);\n    }\n\n    function sell(uint amount) external override nonReentrant checkSettlement checkUnlocked {\n        (uint productFee, uint256 realAmount) = calculateFee(amount);\n        require(realAmount >= 1, \"You must sell more tokens\");\n\n        uint newUserDebt = realAmount.mul(getPrice()).div(1 ether);\n        usersDebt[msg.sender] = usersDebt[msg.sender].add(newUserDebt);\n        tokensToSell = realAmount.add(tokensToSell);\n\n        TransferHelper.safeTransferFrom(address(indexToken), msg.sender, address(this), amount);\n        indexToken.transfer(owner(), productFee);\n\n        emit ProductSold(msg.sender, newUserDebt, realAmount);\n    }\n\n    function beginSettlement() override external onlyOwner{\n        isSettlement = true;\n        TransferHelper.safeApprove(buyTokenAddress, dexRouterAddress, tokensToBuy);\n        TransferHelper.safeApprove(address(indexToken), dexRouterAddress, tokensToSell);\n    }\n\n    function endSettlement() override external onlyOwner {\n        tokensToBuy = 0;\n        tokensToSell = 0;\n        isSettlement = false;\n    }\n\n    function manageTokens() external payable onlyOwner {\n        lastManagedToken += 1;\n        if(lastManagedToken > tokens.length - 1){\n            lastManagedToken = 0;\n        }\n\n        TokenInfo memory token = tokens[lastManagedToken];\n        ISwapRouter dexRouter = ISwapRouter(dexRouterAddress);\n\n        uint tokensToBuyAmount = tokensToBuy.div(100).mul(token.indexPercentage);\n        uint tokensToSellAmount = tokensToSell.div(100).mul(token.indexPercentage);\n        uint tokenPrice = priceOracle.getPrice(token.priceOracleAddress);\n\n        if(tokensToBuyAmount > 0){\n            uint minAmount = tokensToBuyAmount.div(tokenPrice);\n\n            dexRouter.exactInputSingle(\n                ISwapRouter.ExactInputSingleParams({\n                    tokenIn: buyTokenAddress,\n                    tokenOut: token.tokenAddress,\n                    fee: token.poolFee,\n                    recipient: address(this),\n                    deadline: block.timestamp,\n                    amountIn: tokensToBuyAmount,\n                    amountOutMinimum: minAmount,\n                    sqrtPriceLimitX96: 0\n                })\n            );\n        }\n\n        if(tokensToSellAmount > 0){\n            TransferHelper.safeApprove(token.tokenAddress, dexRouterAddress, tokensToSellAmount);\n            totalAvailableDebt.add(dexRouter.exactInputSingle(\n                ISwapRouter.ExactInputSingleParams({\n                    tokenIn: token.tokenAddress,\n                    tokenOut: buyTokenAddress,\n                    fee: token.poolFee,\n                    recipient: address(this),\n                    deadline: block.timestamp,\n                    amountIn: tokensToSellAmount,\n                    amountOutMinimum: tokensToSellAmount.mul(tokenPrice).div(1 ether),\n                    sqrtPriceLimitX96: 0\n                })\n            ));\n        }\n    }\n\n    function getPrice() public view override returns (uint256) {\n        uint256 indexTotalPrice;\n\n        for (uint256 i = 0; i < tokens.length; i++) {\n            TokenInfo memory token = tokens[i];\n            indexTotalPrice = indexTotalPrice.add(\n                priceOracle.getPrice(token.priceOracleAddress).div(100).mul(token.indexPercentage)\n            );\n        }\n\n        return indexTotalPrice.div(indexPriceAdjustment);\n    }\n\n}\n",
  "sourcePath": "D:\\JavascriptProjects\\crypto-index\\contracts\\indices\\BaseIndex.sol",
  "compiler": {
    "name": "solc",
    "version": "0.7.5+commit.eb77ed08.Linux.g++"
  },
  "schemaVersion": "3.4.6",
  "updatedAt": "2022-05-09T13:44:23.051Z",
  "devdoc": {
    "kind": "dev",
    "methods": {
      "owner()": {
        "details": "Returns the address of the current owner."
      },
      "renounceOwnership()": {
        "details": "Leaves the contract without owner. It will not be possible to call `onlyOwner` functions anymore. Can only be called by the current owner. NOTE: Renouncing ownership will leave the contract without an owner, thereby removing any functionality that is only available to the owner."
      },
      "transferOwnership(address)": {
        "details": "Transfers ownership of the contract to a new account (`newOwner`). Can only be called by the current owner."
      }
    },
    "version": 1
  },
  "userdoc": {
    "kind": "user",
    "methods": {},
    "version": 1
  }
}