{
  "contractName": "BaseIndex",
  "abi": [
    {
      "inputs": [],
      "stateMutability": "nonpayable",
      "type": "constructor"
    },
    {
      "anonymous": false,
      "inputs": [
        {
          "indexed": true,
          "internalType": "address",
          "name": "previousOwner",
          "type": "address"
        },
        {
          "indexed": true,
          "internalType": "address",
          "name": "newOwner",
          "type": "address"
        }
      ],
      "name": "OwnershipTransferred",
      "type": "event"
    },
    {
      "anonymous": false,
      "inputs": [
        {
          "indexed": false,
          "internalType": "address",
          "name": "account",
          "type": "address"
        },
        {
          "indexed": false,
          "internalType": "uint256",
          "name": "buyTokenAmount",
          "type": "uint256"
        },
        {
          "indexed": false,
          "internalType": "uint256",
          "name": "indexTokenAmount",
          "type": "uint256"
        }
      ],
      "name": "ProductBought",
      "type": "event"
    },
    {
      "anonymous": false,
      "inputs": [
        {
          "indexed": false,
          "internalType": "address",
          "name": "account",
          "type": "address"
        },
        {
          "indexed": false,
          "internalType": "uint256",
          "name": "buyTokenAmount",
          "type": "uint256"
        },
        {
          "indexed": false,
          "internalType": "uint256",
          "name": "indexTokenAmount",
          "type": "uint256"
        }
      ],
      "name": "ProductSold",
      "type": "event"
    },
    {
      "inputs": [],
      "name": "WETH",
      "outputs": [
        {
          "internalType": "address",
          "name": "",
          "type": "address"
        }
      ],
      "stateMutability": "view",
      "type": "function"
    },
    {
      "inputs": [],
      "name": "buyTokenAddress",
      "outputs": [
        {
          "internalType": "address",
          "name": "",
          "type": "address"
        }
      ],
      "stateMutability": "view",
      "type": "function"
    },
    {
      "inputs": [
        {
          "internalType": "uint256",
          "name": "amount",
          "type": "uint256"
        }
      ],
      "name": "calculateFee",
      "outputs": [
        {
          "internalType": "uint256",
          "name": "",
          "type": "uint256"
        },
        {
          "internalType": "uint256",
          "name": "",
          "type": "uint256"
        }
      ],
      "stateMutability": "view",
      "type": "function"
    },
    {
      "inputs": [
        {
          "internalType": "uint8",
          "name": "_fee",
          "type": "uint8"
        },
        {
          "internalType": "uint256",
          "name": "_feeTotal",
          "type": "uint256"
        }
      ],
      "name": "changeFee",
      "outputs": [],
      "stateMutability": "nonpayable",
      "type": "function"
    },
    {
      "inputs": [],
      "name": "getFee",
      "outputs": [
        {
          "internalType": "uint256",
          "name": "",
          "type": "uint256"
        },
        {
          "internalType": "uint256",
          "name": "",
          "type": "uint256"
        }
      ],
      "stateMutability": "view",
      "type": "function"
    },
    {
      "inputs": [],
      "name": "indexToken",
      "outputs": [
        {
          "internalType": "contract IndexToken",
          "name": "",
          "type": "address"
        }
      ],
      "stateMutability": "view",
      "type": "function"
    },
    {
      "inputs": [],
      "name": "isLocked",
      "outputs": [
        {
          "internalType": "bool",
          "name": "",
          "type": "bool"
        }
      ],
      "stateMutability": "view",
      "type": "function"
    },
    {
      "inputs": [],
      "name": "isSettlementActive",
      "outputs": [
        {
          "internalType": "bool",
          "name": "",
          "type": "bool"
        }
      ],
      "stateMutability": "view",
      "type": "function"
    },
    {
      "inputs": [],
      "name": "lastManagedToken",
      "outputs": [
        {
          "internalType": "uint256",
          "name": "",
          "type": "uint256"
        }
      ],
      "stateMutability": "view",
      "type": "function"
    },
    {
      "inputs": [],
      "name": "owner",
      "outputs": [
        {
          "internalType": "address",
          "name": "",
          "type": "address"
        }
      ],
      "stateMutability": "view",
      "type": "function"
    },
    {
      "inputs": [],
      "name": "renounceOwnership",
      "outputs": [],
      "stateMutability": "nonpayable",
      "type": "function"
    },
    {
      "inputs": [
        {
          "internalType": "uint256",
          "name": "",
          "type": "uint256"
        }
      ],
      "name": "tokens",
      "outputs": [
        {
          "internalType": "uint8",
          "name": "indexPercentage",
          "type": "uint8"
        },
        {
          "internalType": "address",
          "name": "tokenAddress",
          "type": "address"
        },
        {
          "internalType": "address",
          "name": "priceOracleAddress",
          "type": "address"
        },
        {
          "internalType": "address",
          "name": "intermediateToken",
          "type": "address"
        }
      ],
      "stateMutability": "view",
      "type": "function"
    },
    {
      "inputs": [],
      "name": "tokensToBuy",
      "outputs": [
        {
          "internalType": "uint256",
          "name": "",
          "type": "uint256"
        }
      ],
      "stateMutability": "view",
      "type": "function"
    },
    {
      "inputs": [],
      "name": "tokensToSell",
      "outputs": [
        {
          "internalType": "uint256",
          "name": "",
          "type": "uint256"
        }
      ],
      "stateMutability": "view",
      "type": "function"
    },
    {
      "inputs": [
        {
          "internalType": "address",
          "name": "newOwner",
          "type": "address"
        }
      ],
      "name": "transferOwnership",
      "outputs": [],
      "stateMutability": "nonpayable",
      "type": "function"
    },
    {
      "inputs": [],
      "name": "name",
      "outputs": [
        {
          "internalType": "string",
          "name": "",
          "type": "string"
        }
      ],
      "stateMutability": "pure",
      "type": "function"
    },
    {
      "inputs": [],
      "name": "symbol",
      "outputs": [
        {
          "internalType": "string",
          "name": "",
          "type": "string"
        }
      ],
      "stateMutability": "pure",
      "type": "function"
    },
    {
      "inputs": [],
      "name": "getComponents",
      "outputs": [
        {
          "components": [
            {
              "internalType": "uint8",
              "name": "indexPercentage",
              "type": "uint8"
            },
            {
              "internalType": "address",
              "name": "tokenAddress",
              "type": "address"
            },
            {
              "internalType": "address",
              "name": "priceOracleAddress",
              "type": "address"
            },
            {
              "internalType": "uint24[2]",
              "name": "poolFees",
              "type": "uint24[2]"
            },
            {
              "internalType": "address",
              "name": "intermediateToken",
              "type": "address"
            }
          ],
          "internalType": "struct BaseIndex.TokenInfo[]",
          "name": "",
          "type": "tuple[]"
        }
      ],
      "stateMutability": "view",
      "type": "function"
    },
    {
      "inputs": [],
      "name": "shortDescription",
      "outputs": [
        {
          "internalType": "string",
          "name": "",
          "type": "string"
        }
      ],
      "stateMutability": "pure",
      "type": "function"
    },
    {
      "inputs": [],
      "name": "longDescription",
      "outputs": [
        {
          "internalType": "string",
          "name": "",
          "type": "string"
        }
      ],
      "stateMutability": "pure",
      "type": "function"
    },
    {
      "inputs": [
        {
          "components": [
            {
              "internalType": "uint8",
              "name": "indexPercentage",
              "type": "uint8"
            },
            {
              "internalType": "address",
              "name": "tokenAddress",
              "type": "address"
            },
            {
              "internalType": "address",
              "name": "priceOracleAddress",
              "type": "address"
            },
            {
              "internalType": "uint24[2]",
              "name": "poolFees",
              "type": "uint24[2]"
            },
            {
              "internalType": "address",
              "name": "intermediateToken",
              "type": "address"
            }
          ],
          "internalType": "struct BaseIndex.TokenInfo",
          "name": "token",
          "type": "tuple"
        }
      ],
      "name": "getTokenPrice",
      "outputs": [
        {
          "internalType": "uint256",
          "name": "",
          "type": "uint256"
        }
      ],
      "stateMutability": "view",
      "type": "function"
    },
    {
      "inputs": [],
      "name": "image",
      "outputs": [
        {
          "internalType": "string",
          "name": "",
          "type": "string"
        }
      ],
      "stateMutability": "pure",
      "type": "function"
    },
    {
      "inputs": [],
      "name": "getTotalLockedValue",
      "outputs": [
        {
          "internalType": "uint256",
          "name": "",
          "type": "uint256"
        }
      ],
      "stateMutability": "view",
      "type": "function"
    },
    {
      "inputs": [
        {
          "internalType": "uint256",
          "name": "amount",
          "type": "uint256"
        }
      ],
      "name": "buy",
      "outputs": [],
      "stateMutability": "nonpayable",
      "type": "function"
    },
    {
      "inputs": [
        {
          "internalType": "uint256",
          "name": "amount",
          "type": "uint256"
        }
      ],
      "name": "sell",
      "outputs": [],
      "stateMutability": "nonpayable",
      "type": "function"
    },
    {
      "inputs": [
        {
          "internalType": "uint256",
          "name": "amount",
          "type": "uint256"
        },
        {
          "internalType": "bool",
          "name": "isBuyDebt",
          "type": "bool"
        }
      ],
      "name": "retrieveDebt",
      "outputs": [],
      "stateMutability": "nonpayable",
      "type": "function"
    },
    {
      "inputs": [
        {
          "internalType": "bool",
          "name": "isBuy",
          "type": "bool"
        }
      ],
      "name": "getTotalDebt",
      "outputs": [
        {
          "internalType": "uint256",
          "name": "",
          "type": "uint256"
        }
      ],
      "stateMutability": "view",
      "type": "function"
    },
    {
      "inputs": [
        {
          "internalType": "address",
          "name": "user",
          "type": "address"
        },
        {
          "internalType": "bool",
          "name": "isBuy",
          "type": "bool"
        }
      ],
      "name": "getUserDebt",
      "outputs": [
        {
          "internalType": "uint256",
          "name": "",
          "type": "uint256"
        }
      ],
      "stateMutability": "view",
      "type": "function"
    },
    {
      "inputs": [],
      "name": "beginSettlement",
      "outputs": [],
      "stateMutability": "nonpayable",
      "type": "function"
    },
    {
      "inputs": [],
      "name": "endSettlement",
      "outputs": [],
      "stateMutability": "nonpayable",
      "type": "function"
    },
    {
      "inputs": [],
      "name": "manageTokens",
      "outputs": [],
      "stateMutability": "nonpayable",
      "type": "function"
    },
    {
      "inputs": [],
      "name": "getPrice",
      "outputs": [
        {
          "internalType": "uint256",
          "name": "",
          "type": "uint256"
        }
      ],
      "stateMutability": "view",
      "type": "function"
    }
  ],
  "bytecode": "0x60a0604052604051620000129062001d28565b604051809103906000f0801580156200002f573d6000803e3d6000fd5b50600960006101000a81548173ffffffffffffffffffffffffffffffffffffffff021916908373ffffffffffffffffffffffffffffffffffffffff1602179055506040516200007e9062001d28565b604051809103906000f0801580156200009b573d6000803e3d6000fd5b50600a60006101000a81548173ffffffffffffffffffffffffffffffffffffffff021916908373ffffffffffffffffffffffffffffffffffffffff160217905550604051620000ea9062001d36565b604051809103906000f08015801562000107573d6000803e3d6000fd5b50600b60006101000a81548173ffffffffffffffffffffffffffffffffffffffff021916908373ffffffffffffffffffffffffffffffffffffffff1602179055506000600c553480156200015a57600080fd5b5060006200016d62001d2060201b60201c565b9050806000806101000a81548173ffffffffffffffffffffffffffffffffffffffff021916908373ffffffffffffffffffffffffffffffffffffffff1602179055508073ffffffffffffffffffffffffffffffffffffffff16600073ffffffffffffffffffffffffffffffffffffffff167f8be0079c531659141344cd1fd0a4f28419497f9722a3daafe3b4186f6b6457e060405160405180910390a3506001808190555073e592427a0aece92de3edee1f18e0157c0586156473ffffffffffffffffffffffffffffffffffffffff1660808173ffffffffffffffffffffffffffffffffffffffff1660601b81525050736b175474e89094c44da98b954eedeac495271d0f600260016101000a81548173ffffffffffffffffffffffffffffffffffffffff021916908373ffffffffffffffffffffffffffffffffffffffff16021790555073c02aaa39b223fe8d0a0e5c4f27ead9083c756cc2600860006101000a81548173ffffffffffffffffffffffffffffffffffffffff021916908373ffffffffffffffffffffffffffffffffffffffff160217905550600a600260156101000a81548160ff021916908360ff16021790555060646003819055506064600481905550306012604051620003449062001d44565b6200035192919062001ebe565b604051809103906000f0801580156200036e573d6000803e3d6000fd5b50600760006101000a81548173ffffffffffffffffffffffffffffffffffffffff021916908373ffffffffffffffffffffffffffffffffffffffff1602179055506000600260006101000a81548160ff02191690831515021790555060066040518060a00160405280600f60ff16815260200173c02aaa39b223fe8d0a0e5c4f27ead9083c756cc273ffffffffffffffffffffffffffffffffffffffff168152602001735f4ec3df9cbd43714fe2740f5e3616155c5b841973ffffffffffffffffffffffffffffffffffffffff1681526020016040518060400160405280610bb862ffffff1662ffffff168152602001610bb862ffffff1662ffffff168152508152602001600073ffffffffffffffffffffffffffffffffffffffff16815250908060018154018082558091505060019003906000526020600020906004020160009091909190915060008201518160000160006101000a81548160ff021916908360ff16021790555060208201518160000160016101000a81548173ffffffffffffffffffffffffffffffffffffffff021916908373ffffffffffffffffffffffffffffffffffffffff16021790555060408201518160010160006101000a81548173ffffffffffffffffffffffffffffffffffffffff021916908373ffffffffffffffffffffffffffffffffffffffff1602179055506060820151816002019060026200057f92919062001d52565b5060808201518160030160006101000a81548173ffffffffffffffffffffffffffffffffffffffff021916908373ffffffffffffffffffffffffffffffffffffffff160217905550505060066040518060a00160405280600560ff16815260200173514910771af9ca656af840dff83e8264ecf986ca73ffffffffffffffffffffffffffffffffffffffff168152602001732c1d072e956affc0d435cb7ac38ef18d24d9127c73ffffffffffffffffffffffffffffffffffffffff1681526020016040518060400160405280610bb862ffffff1662ffffff168152602001610bb862ffffff1662ffffff168152508152602001600860009054906101000a900473ffffffffffffffffffffffffffffffffffffffff1673ffffffffffffffffffffffffffffffffffffffff16815250908060018154018082558091505060019003906000526020600020906004020160009091909190915060008201518160000160006101000a81548160ff021916908360ff16021790555060208201518160000160016101000a81548173ffffffffffffffffffffffffffffffffffffffff021916908373ffffffffffffffffffffffffffffffffffffffff16021790555060408201518160010160006101000a81548173ffffffffffffffffffffffffffffffffffffffff021916908373ffffffffffffffffffffffffffffffffffffffff1602179055506060820151816002019060026200079f92919062001d52565b5060808201518160030160006101000a81548173ffffffffffffffffffffffffffffffffffffffff021916908373ffffffffffffffffffffffffffffffffffffffff160217905550505060066040518060a00160405280600a60ff16815260200173418d75f65a02b3d53b2418fb8e1fe493759c760573ffffffffffffffffffffffffffffffffffffffff1681526020017314e613ac84a31f709eadbdf89c6cc390fdc9540a73ffffffffffffffffffffffffffffffffffffffff1681526020016040518060400160405280610bb862ffffff1662ffffff168152602001610bb862ffffff1662ffffff168152508152602001600860009054906101000a900473ffffffffffffffffffffffffffffffffffffffff1673ffffffffffffffffffffffffffffffffffffffff16815250908060018154018082558091505060019003906000526020600020906004020160009091909190915060008201518160000160006101000a81548160ff021916908360ff16021790555060208201518160000160016101000a81548173ffffffffffffffffffffffffffffffffffffffff021916908373ffffffffffffffffffffffffffffffffffffffff16021790555060408201518160010160006101000a81548173ffffffffffffffffffffffffffffffffffffffff021916908373ffffffffffffffffffffffffffffffffffffffff160217905550606082015181600201906002620009bf92919062001d52565b5060808201518160030160006101000a81548173ffffffffffffffffffffffffffffffffffffffff021916908373ffffffffffffffffffffffffffffffffffffffff160217905550505060066040518060a00160405280600a60ff168152602001731f9840a85d5af5bf1d1762f925bdaddc4201f98473ffffffffffffffffffffffffffffffffffffffff16815260200173553303d460ee0afb37edff9be42922d8ff63220e73ffffffffffffffffffffffffffffffffffffffff1681526020016040518060400160405280610bb862ffffff1662ffffff168152602001610bb862ffffff1662ffffff168152508152602001600860009054906101000a900473ffffffffffffffffffffffffffffffffffffffff1673ffffffffffffffffffffffffffffffffffffffff16815250908060018154018082558091505060019003906000526020600020906004020160009091909190915060008201518160000160006101000a81548160ff021916908360ff16021790555060208201518160000160016101000a81548173ffffffffffffffffffffffffffffffffffffffff021916908373ffffffffffffffffffffffffffffffffffffffff16021790555060408201518160010160006101000a81548173ffffffffffffffffffffffffffffffffffffffff021916908373ffffffffffffffffffffffffffffffffffffffff16021790555060608201518160020190600262000bdf92919062001d52565b5060808201518160030160006101000a81548173ffffffffffffffffffffffffffffffffffffffff021916908373ffffffffffffffffffffffffffffffffffffffff160217905550505060066040518060a00160405280600a60ff16815260200173111111111117dc0aa78b770fa6a738034120c30273ffffffffffffffffffffffffffffffffffffffff16815260200173c929ad75b72593967de83e7f7cda0493458261d973ffffffffffffffffffffffffffffffffffffffff1681526020016040518060400160405280610bb862ffffff1662ffffff16815260200161271062ffffff168152508152602001600860009054906101000a900473ffffffffffffffffffffffffffffffffffffffff1673ffffffffffffffffffffffffffffffffffffffff16815250908060018154018082558091505060019003906000526020600020906004020160009091909190915060008201518160000160006101000a81548160ff021916908360ff16021790555060208201518160000160016101000a81548173ffffffffffffffffffffffffffffffffffffffff021916908373ffffffffffffffffffffffffffffffffffffffff16021790555060408201518160010160006101000a81548173ffffffffffffffffffffffffffffffffffffffff021916908373ffffffffffffffffffffffffffffffffffffffff16021790555060608201518160020190600262000dfa92919062001d52565b5060808201518160030160006101000a81548173ffffffffffffffffffffffffffffffffffffffff021916908373ffffffffffffffffffffffffffffffffffffffff160217905550505060066040518060a00160405280600560ff16815260200173c011a73ee8576fb46f5e1c5751ca3b9fe0af2a6f73ffffffffffffffffffffffffffffffffffffffff16815260200173dc3ea94cd0ac27d9a86c180091e7f78c683d369973ffffffffffffffffffffffffffffffffffffffff1681526020016040518060400160405280610bb862ffffff1662ffffff16815260200161271062ffffff168152508152602001600860009054906101000a900473ffffffffffffffffffffffffffffffffffffffff1673ffffffffffffffffffffffffffffffffffffffff16815250908060018154018082558091505060019003906000526020600020906004020160009091909190915060008201518160000160006101000a81548160ff021916908360ff16021790555060208201518160000160016101000a81548173ffffffffffffffffffffffffffffffffffffffff021916908373ffffffffffffffffffffffffffffffffffffffff16021790555060408201518160010160006101000a81548173ffffffffffffffffffffffffffffffffffffffff021916908373ffffffffffffffffffffffffffffffffffffffff1602179055506060820151816002019060026200101592919062001d52565b5060808201518160030160006101000a81548173ffffffffffffffffffffffffffffffffffffffff021916908373ffffffffffffffffffffffffffffffffffffffff160217905550505060066040518060a00160405280600560ff168152602001730bc529c00c6401aef6d220be8c6ea1667f6ad93e73ffffffffffffffffffffffffffffffffffffffff16815260200173a027702dbb89fbd58938e4324ac03b58d812b0e173ffffffffffffffffffffffffffffffffffffffff1681526020016040518060400160405280610bb862ffffff1662ffffff168152602001610bb862ffffff1662ffffff168152508152602001600860009054906101000a900473ffffffffffffffffffffffffffffffffffffffff1673ffffffffffffffffffffffffffffffffffffffff16815250908060018154018082558091505060019003906000526020600020906004020160009091909190915060008201518160000160006101000a81548160ff021916908360ff16021790555060208201518160000160016101000a81548173ffffffffffffffffffffffffffffffffffffffff021916908373ffffffffffffffffffffffffffffffffffffffff16021790555060408201518160010160006101000a81548173ffffffffffffffffffffffffffffffffffffffff021916908373ffffffffffffffffffffffffffffffffffffffff1602179055506060820151816002019060026200123592919062001d52565b5060808201518160030160006101000a81548173ffffffffffffffffffffffffffffffffffffffff021916908373ffffffffffffffffffffffffffffffffffffffff160217905550505060066040518060a00160405280600560ff16815260200173c00e94cb662c3520282e6f5717214004a7f2688873ffffffffffffffffffffffffffffffffffffffff16815260200173dbd020caef83efd542f4de03e3cf0c28a4428bd573ffffffffffffffffffffffffffffffffffffffff1681526020016040518060400160405280610bb862ffffff1662ffffff168152602001610bb862ffffff1662ffffff168152508152602001600860009054906101000a900473ffffffffffffffffffffffffffffffffffffffff1673ffffffffffffffffffffffffffffffffffffffff16815250908060018154018082558091505060019003906000526020600020906004020160009091909190915060008201518160000160006101000a81548160ff021916908360ff16021790555060208201518160000160016101000a81548173ffffffffffffffffffffffffffffffffffffffff021916908373ffffffffffffffffffffffffffffffffffffffff16021790555060408201518160010160006101000a81548173ffffffffffffffffffffffffffffffffffffffff021916908373ffffffffffffffffffffffffffffffffffffffff1602179055506060820151816002019060026200145592919062001d52565b5060808201518160030160006101000a81548173ffffffffffffffffffffffffffffffffffffffff021916908373ffffffffffffffffffffffffffffffffffffffff160217905550505060066040518060a00160405280600560ff168152602001739f8f72aa9304c8b593d555f12ef6589cc3a579a273ffffffffffffffffffffffffffffffffffffffff16815260200173ec1d1b3b0443256cc3860e24a46f108e699484aa73ffffffffffffffffffffffffffffffffffffffff1681526020016040518060400160405280610bb862ffffff1662ffffff168152602001610bb862ffffff1662ffffff168152508152602001600860009054906101000a900473ffffffffffffffffffffffffffffffffffffffff1673ffffffffffffffffffffffffffffffffffffffff16815250908060018154018082558091505060019003906000526020600020906004020160009091909190915060008201518160000160006101000a81548160ff021916908360ff16021790555060208201518160000160016101000a81548173ffffffffffffffffffffffffffffffffffffffff021916908373ffffffffffffffffffffffffffffffffffffffff16021790555060408201518160010160006101000a81548173ffffffffffffffffffffffffffffffffffffffff021916908373ffffffffffffffffffffffffffffffffffffffff1602179055506060820151816002019060026200167592919062001d52565b5060808201518160030160006101000a81548173ffffffffffffffffffffffffffffffffffffffff021916908373ffffffffffffffffffffffffffffffffffffffff160217905550505060066040518060a00160405280600a60ff168152602001736b3595068778dd592e39a122f4f5a5cf09c90fe273ffffffffffffffffffffffffffffffffffffffff16815260200173cc70f09a6cc17553b2e31954cd36e4a2d89501f773ffffffffffffffffffffffffffffffffffffffff1681526020016040518060400160405280610bb862ffffff1662ffffff168152602001610bb862ffffff1662ffffff168152508152602001600860009054906101000a900473ffffffffffffffffffffffffffffffffffffffff1673ffffffffffffffffffffffffffffffffffffffff16815250908060018154018082558091505060019003906000526020600020906004020160009091909190915060008201518160000160006101000a81548160ff021916908360ff16021790555060208201518160000160016101000a81548173ffffffffffffffffffffffffffffffffffffffff021916908373ffffffffffffffffffffffffffffffffffffffff16021790555060408201518160010160006101000a81548173ffffffffffffffffffffffffffffffffffffffff021916908373ffffffffffffffffffffffffffffffffffffffff1602179055506060820151816002019060026200189592919062001d52565b5060808201518160030160006101000a81548173ffffffffffffffffffffffffffffffffffffffff021916908373ffffffffffffffffffffffffffffffffffffffff160217905550505060066040518060a00160405280600a60ff168152602001734d224452801aced8b2f0aebe155379bb5d59438173ffffffffffffffffffffffffffffffffffffffff16815260200173d10abbc76679a20055e167bb80a24ac851b3705673ffffffffffffffffffffffffffffffffffffffff1681526020016040518060400160405280610bb862ffffff1662ffffff168152602001610bb862ffffff1662ffffff168152508152602001600860009054906101000a900473ffffffffffffffffffffffffffffffffffffffff1673ffffffffffffffffffffffffffffffffffffffff16815250908060018154018082558091505060019003906000526020600020906004020160009091909190915060008201518160000160006101000a81548160ff021916908360ff16021790555060208201518160000160016101000a81548173ffffffffffffffffffffffffffffffffffffffff021916908373ffffffffffffffffffffffffffffffffffffffff16021790555060408201518160010160006101000a81548173ffffffffffffffffffffffffffffffffffffffff021916908373ffffffffffffffffffffffffffffffffffffffff16021790555060608201518160020190600262001ab592919062001d52565b5060808201518160030160006101000a81548173ffffffffffffffffffffffffffffffffffffffff021916908373ffffffffffffffffffffffffffffffffffffffff160217905550505060066040518060a00160405280600a60ff16815260200173d533a949740bb3306d119cc777fa900ba034cd5273ffffffffffffffffffffffffffffffffffffffff16815260200173cd627aa160a6fa45eb793d19ef54f5062f20f33f73ffffffffffffffffffffffffffffffffffffffff1681526020016040518060400160405280610bb862ffffff1662ffffff16815260200161271062ffffff168152508152602001600860009054906101000a900473ffffffffffffffffffffffffffffffffffffffff1673ffffffffffffffffffffffffffffffffffffffff16815250908060018154018082558091505060019003906000526020600020906004020160009091909190915060008201518160000160006101000a81548160ff021916908360ff16021790555060208201518160000160016101000a81548173ffffffffffffffffffffffffffffffffffffffff021916908373ffffffffffffffffffffffffffffffffffffffff16021790555060408201518160010160006101000a81548173ffffffffffffffffffffffffffffffffffffffff021916908373ffffffffffffffffffffffffffffffffffffffff16021790555060608201518160020190600262001cd092919062001d52565b5060808201518160030160006101000a81548173ffffffffffffffffffffffffffffffffffffffff021916908373ffffffffffffffffffffffffffffffffffffffff160217905550505062001f7b565b600033905090565b610da2806200667983390190565b610fc7806200741b83390190565b6112ff80620083e283390190565b826002600901600a9004810192821562001de65791602002820160005b8382111562001db357835183826101000a81548162ffffff021916908362ffffff160217905550926020019260030160208160020104928301926001030262001d6f565b801562001de45782816101000a81549062ffffff021916905560030160208160020104928301926001030262001db3565b505b50905062001df5919062001df9565b5090565b5b8082111562001e1457600081600090555060010162001dfa565b5090565b62001e238162001f26565b82525050565b62001e348162001f67565b82525050565b600062001e4960078362001f15565b91507f43525950544958000000000000000000000000000000000000000000000000006000830152602082019050919050565b600062001e8b60128362001f15565b91507f43727970746f20696e64657820746f6b656e00000000000000000000000000006000830152602082019050919050565b600060808201905062001ed5600083018562001e18565b818103602083015262001ee88162001e7c565b905062001ef9604083018462001e29565b818103606083015262001f0c8162001e3a565b90509392505050565b600082825260208201905092915050565b600062001f338262001f3a565b9050919050565b600073ffffffffffffffffffffffffffffffffffffffff82169050919050565b600060ff82169050919050565b600062001f748262001f5a565b9050919050565b60805160601c6146d162001fa8600039806125705280612d3a52806130c7528061317252506146d16000f3fe608060405234801561001057600080fd5b50600436106101805760003560e01c806306fdde031461018557806313a7e54e146101a35780631da98960146101bf5780633d956691146101dd5780634f64b2be146101fb57806360ebbf811461022e578063715018a61461024c5780637805d4be14610256578063782fa9c9146102865780638da5cb5b146102a25780638e96347b146102c057806395d89b41146102de57806398d5fdca146102fc57806399a5d7471461031a57806399d50d5d1461034b578063a4e2d63414610369578063ad5c464814610387578063b7597914146103a5578063ba25d944146103c3578063c20120b5146103e1578063cd844554146103ff578063ced72f871461042f578063d96a094a1461044e578063e4849b321461046a578063e7d015f214610486578063ea4c1b45146104a4578063eed8c66d146104ae578063f2fde38b146104cc578063f3ccaac0146104e8578063f510d90814610506578063f76f691c14610510578063fa2dcd9314610540575b600080fd5b61018d61054a565b60405161019a9190614151565b60405180910390f35b6101bd60048036038101906101b89190613993565b610587565b005b6101c761065c565b6040516101d49190614151565b60405180910390f35b6101e561067c565b6040516101f29190614251565b60405180910390f35b61021560048036038101906102109190613905565b610682565b60405161022594939291906142be565b60405180910390f35b61023661072f565b6040516102439190613f95565b60405180910390f35b610254610755565b005b610270600480360381019061026b919061388a565b6108c2565b60405161027d9190614251565b60405180910390f35b6102a0600480360381019061029b9190613957565b610999565b005b6102aa610e2b565b6040516102b79190613f95565b60405180910390f35b6102c8610e54565b6040516102d59190614251565b60405180910390f35b6102e6610e5a565b6040516102f39190614151565b60405180910390f35b610304610e97565b6040516103119190614251565b60405180910390f35b610334600480360381019061032f9190613905565b611173565b604051610342929190614295565b60405180910390f35b6103536111d7565b60405161036091906140f9565b60405180910390f35b6103716113c4565b60405161037e919061411b565b60405180910390f35b61038f6113d7565b60405161039c9190613f95565b60405180910390f35b6103ad6113fd565b6040516103ba9190614251565b60405180910390f35b6103cb6116b9565b6040516103d89190614151565b60405180910390f35b6103e96116d9565b6040516103f6919061411b565b60405180910390f35b610419600480360381019061041491906138dc565b6116f0565b6040516104269190614251565b60405180910390f35b6104376117b4565b604051610445929190614295565b60405180910390f35b61046860048036038101906104639190613905565b6117d8565b005b610484600480360381019061047f9190613905565b611b80565b005b61048e611ec9565b60405161049b9190614136565b60405180910390f35b6104ac611eef565b005b6104b6612227565b6040516104c39190614251565b60405180910390f35b6104e660048036038101906104e19190613825565b61222d565b005b6104f061241f565b6040516104fd9190614151565b60405180910390f35b61050e61243f565b005b61052a6004803603810190610525919061384e565b6125ac565b6040516105379190614251565b60405180910390f35b61054861268f565b005b60606040518060400160405280600b81526020017f43727970746f496e646578000000000000000000000000000000000000000000815250905090565b61058f6128f4565b73ffffffffffffffffffffffffffffffffffffffff166105ad610e2b565b73ffffffffffffffffffffffffffffffffffffffff1614610636576040517f08c379a00000000000000000000000000000000000000000000000000000000081526004018080602001828103825260208152602001807f4f776e61626c653a2063616c6c6572206973206e6f7420746865206f776e657281525060200191505060405180910390fd5b81600260156101000a81548160ff021916908360ff160217905550806003819055505050565b606060405180608001604052806049815260200161465360499139905090565b600d5481565b6006818154811061069257600080fd5b90600052602060002090600402016000915090508060000160009054906101000a900460ff16908060000160019054906101000a900473ffffffffffffffffffffffffffffffffffffffff16908060010160009054906101000a900473ffffffffffffffffffffffffffffffffffffffff16908060030160009054906101000a900473ffffffffffffffffffffffffffffffffffffffff16905084565b600260019054906101000a900473ffffffffffffffffffffffffffffffffffffffff1681565b61075d6128f4565b73ffffffffffffffffffffffffffffffffffffffff1661077b610e2b565b73ffffffffffffffffffffffffffffffffffffffff1614610804576040517f08c379a00000000000000000000000000000000000000000000000000000000081526004018080602001828103825260208152602001807f4f776e61626c653a2063616c6c6572206973206e6f7420746865206f776e657281525060200191505060405180910390fd5b600073ffffffffffffffffffffffffffffffffffffffff1660008054906101000a900473ffffffffffffffffffffffffffffffffffffffff1673ffffffffffffffffffffffffffffffffffffffff167f8be0079c531659141344cd1fd0a4f28419497f9722a3daafe3b4186f6b6457e060405160405180910390a360008060006101000a81548173ffffffffffffffffffffffffffffffffffffffff021916908373ffffffffffffffffffffffffffffffffffffffff160217905550565b6000816108f157600960009054906101000a900473ffffffffffffffffffffffffffffffffffffffff16610915565b600a60009054906101000a900473ffffffffffffffffffffffffffffffffffffffff165b73ffffffffffffffffffffffffffffffffffffffff166334ce998a6040518163ffffffff1660e01b815260040160206040518083038186803b15801561095a57600080fd5b505afa15801561096e573d6000803e3d6000fd5b505050506040513d601f19601f82011682018060405250810190610992919061392e565b9050919050565b60026001541415610a12576040517f08c379a000000000000000000000000000000000000000000000000000000000815260040180806020018281038252601f8152602001807f5265656e7472616e637947756172643a207265656e7472616e742063616c6c0081525060200191505060405180910390fd5b6002600181905550600560009054906101000a900460ff1615610a6a576040517f08c379a0000000000000000000000000000000000000000000000000000000008152600401610a61906141b3565b60405180910390fd5b600260009054906101000a900460ff1615610aba576040517f08c379a0000000000000000000000000000000000000000000000000000000008152600401610ab1906141d3565b60405180910390fd5b600081610ae957600960009054906101000a900473ffffffffffffffffffffffffffffffffffffffff16610b0d565b600a60009054906101000a900473ffffffffffffffffffffffffffffffffffffffff165b9050828173ffffffffffffffffffffffffffffffffffffffff166334ce998a6040518163ffffffff1660e01b815260040160206040518083038186803b158015610b5657600080fd5b505afa158015610b6a573d6000803e3d6000fd5b505050506040513d601f19601f82011682018060405250810190610b8e919061392e565b10158015610c245750828173ffffffffffffffffffffffffffffffffffffffff1663e65896c9336040518263ffffffff1660e01b8152600401610bd19190613fb0565b60206040518083038186803b158015610be957600080fd5b505afa158015610bfd573d6000803e3d6000fd5b505050506040513d601f19601f82011682018060405250810190610c21919061392e565b10155b610c63576040517f08c379a0000000000000000000000000000000000000000000000000000000008152600401610c5a90614193565b60405180910390fd5b81610c9057600260019054906101000a900473ffffffffffffffffffffffffffffffffffffffff16610cb4565b600760009054906101000a900473ffffffffffffffffffffffffffffffffffffffff165b73ffffffffffffffffffffffffffffffffffffffff1663a9059cbb33856040518363ffffffff1660e01b8152600401610cee929190613fcb565b602060405180830381600087803b158015610d0857600080fd5b505af1158015610d1c573d6000803e3d6000fd5b505050506040513d601f19601f82011682018060405250810190610d4091906138b3565b508073ffffffffffffffffffffffffffffffffffffffff1663cca5e4b1338560006040518463ffffffff1660e01b8152600401610d7f93929190613ff4565b600060405180830381600087803b158015610d9957600080fd5b505af1158015610dad573d6000803e3d6000fd5b505050508073ffffffffffffffffffffffffffffffffffffffff1663f8c493d68460006040518363ffffffff1660e01b8152600401610ded92919061426c565b600060405180830381600087803b158015610e0757600080fd5b505af1158015610e1b573d6000803e3d6000fd5b5050505050600180819055505050565b60008060009054906101000a900473ffffffffffffffffffffffffffffffffffffffff16905090565b600e5481565b60606040518060400160405280600781526020017f4352595054495800000000000000000000000000000000000000000000000000815250905090565b60008060005b60068054905081101561116b57600060068281548110610eb957fe5b90600052602060002090600402016040518060a00160405290816000820160009054906101000a900460ff1660ff1660ff1681526020016000820160019054906101000a900473ffffffffffffffffffffffffffffffffffffffff1673ffffffffffffffffffffffffffffffffffffffff1673ffffffffffffffffffffffffffffffffffffffff1681526020016001820160009054906101000a900473ffffffffffffffffffffffffffffffffffffffff1673ffffffffffffffffffffffffffffffffffffffff1673ffffffffffffffffffffffffffffffffffffffff16815260200160028201600280602002604051908101604052809291908260028015611001576020028201916000905b82829054906101000a900462ffffff1662ffffff1681526020019060030190602082600201049283019260010382029150808411610fc65790505b505050505081526020016003820160009054906101000a900473ffffffffffffffffffffffffffffffffffffffff1673ffffffffffffffffffffffffffffffffffffffff1673ffffffffffffffffffffffffffffffffffffffff1681525050905061115b61114c606461113e846000015160ff16600b60009054906101000a900473ffffffffffffffffffffffffffffffffffffffff1673ffffffffffffffffffffffffffffffffffffffff1663ae5621b88760200151886060015189608001516040518463ffffffff1660e01b81526004016110e093929190614062565b60206040518083038186803b1580156110f857600080fd5b505afa15801561110c573d6000803e3d6000fd5b505050506040513d601f19601f82011682018060405250810190611130919061392e565b6128fc90919063ffffffff16565b61298290919063ffffffff16565b84612a0b90919063ffffffff16565b9250508080600101915050610e9d565b508091505090565b60008060006111b1600260159054906101000a900460ff1660ff166111a36003548761298290919063ffffffff16565b6128fc90919063ffffffff16565b905060006111c88286612a9390919063ffffffff16565b90508181935093505050915091565b60606006805480602002602001604051908101604052809291908181526020016000905b828210156113bb57838290600052602060002090600402016040518060a00160405290816000820160009054906101000a900460ff1660ff1660ff1681526020016000820160019054906101000a900473ffffffffffffffffffffffffffffffffffffffff1673ffffffffffffffffffffffffffffffffffffffff1673ffffffffffffffffffffffffffffffffffffffff1681526020016001820160009054906101000a900473ffffffffffffffffffffffffffffffffffffffff1673ffffffffffffffffffffffffffffffffffffffff1673ffffffffffffffffffffffffffffffffffffffff1681526020016002820160028060200260405190810160405280929190826002801561134d576020028201916000905b82829054906101000a900462ffffff1662ffffff16815260200190600301906020826002010492830192600103820291508084116113125790505b505050505081526020016003820160009054906101000a900473ffffffffffffffffffffffffffffffffffffffff1673ffffffffffffffffffffffffffffffffffffffff1673ffffffffffffffffffffffffffffffffffffffff1681525050815260200190600101906111fb565b50505050905090565b600260009054906101000a900460ff1681565b600860009054906101000a900473ffffffffffffffffffffffffffffffffffffffff1681565b60008060005b6006805490508110156116b15760006006828154811061141f57fe5b90600052602060002090600402016040518060a00160405290816000820160009054906101000a900460ff1660ff1660ff1681526020016000820160019054906101000a900473ffffffffffffffffffffffffffffffffffffffff1673ffffffffffffffffffffffffffffffffffffffff1673ffffffffffffffffffffffffffffffffffffffff1681526020016001820160009054906101000a900473ffffffffffffffffffffffffffffffffffffffff1673ffffffffffffffffffffffffffffffffffffffff1673ffffffffffffffffffffffffffffffffffffffff16815260200160028201600280602002604051908101604052809291908260028015611567576020028201916000905b82829054906101000a900462ffffff1662ffffff168152602001906003019060208260020104928301926001038202915080841161152c5790505b505050505081526020016003820160009054906101000a900473ffffffffffffffffffffffffffffffffffffffff1673ffffffffffffffffffffffffffffffffffffffff1673ffffffffffffffffffffffffffffffffffffffff1681525050905060006116716115d6836116f0565b836020015173ffffffffffffffffffffffffffffffffffffffff166370a08231306040518263ffffffff1660e01b81526004016116139190613f95565b60206040518083038186803b15801561162b57600080fd5b505afa15801561163f573d6000803e3d6000fd5b505050506040513d601f19601f82011682018060405250810190611663919061392e565b6128fc90919063ffffffff16565b90506116a0611691670de0b6b3a76400008361298290919063ffffffff16565b85612a0b90919063ffffffff16565b935050508080600101915050611403565b508091505090565b606060405180608001604052806049815260200161465360499139905090565b6000600560009054906101000a900460ff16905090565b6000600b60009054906101000a900473ffffffffffffffffffffffffffffffffffffffff1673ffffffffffffffffffffffffffffffffffffffff1663ae5621b88360200151846060015185608001516040518463ffffffff1660e01b815260040161175d93929190614062565b60206040518083038186803b15801561177557600080fd5b505afa158015611789573d6000803e3d6000fd5b505050506040513d601f19601f820116820180604052508101906117ad919061392e565b9050919050565b600080600260159054906101000a900460ff166003548160ff169150915091509091565b60026001541415611851576040517f08c379a000000000000000000000000000000000000000000000000000000000815260040180806020018281038252601f8152602001807f5265656e7472616e637947756172643a207265656e7472616e742063616c6c0081525060200191505060405180910390fd5b6002600181905550600560009054906101000a900460ff16156118a9576040517f08c379a00000000000000000000000000000000000000000000000000000000081526004016118a0906141b3565b60405180910390fd5b6000806118b583611173565b9150915060018110156118fd576040517f08c379a00000000000000000000000000000000000000000000000000000000081526004016118f490614173565b60405180910390fd5b6000611907610e97565b90506000611938670de0b6b3a764000061192a84866128fc90919063ffffffff16565b61298290919063ffffffff16565b905061194f81600e54612a0b90919063ffffffff16565b600e81905550600a60009054906101000a900473ffffffffffffffffffffffffffffffffffffffff1673ffffffffffffffffffffffffffffffffffffffff1663cca5e4b1338560016040518463ffffffff1660e01b81526004016119b593929190613ff4565b600060405180830381600087803b1580156119cf57600080fd5b505af11580156119e3573d6000803e3d6000fd5b50505050611a41600260019054906101000a900473ffffffffffffffffffffffffffffffffffffffff163330611a3c670de0b6b3a7640000611a2e888c6128fc90919063ffffffff16565b61298290919063ffffffff16565b612b16565b600260019054906101000a900473ffffffffffffffffffffffffffffffffffffffff1673ffffffffffffffffffffffffffffffffffffffff1663a9059cbb611a87610e2b565b611ac7670de0b6b3a7640000611ab96002611aab898c6128fc90919063ffffffff16565b61298290919063ffffffff16565b61298290919063ffffffff16565b6040518363ffffffff1660e01b8152600401611ae4929190614099565b602060405180830381600087803b158015611afe57600080fd5b505af1158015611b12573d6000803e3d6000fd5b505050506040513d601f19601f82011682018060405250810190611b3691906138b3565b507fc032f62758cac23a902e648ab54b6825665b9bc19e7cd0a8ab915cbf3eea4fa0338285604051611b6a9392919061402b565b60405180910390a1505050506001808190555050565b60026001541415611bf9576040517f08c379a000000000000000000000000000000000000000000000000000000000815260040180806020018281038252601f8152602001807f5265656e7472616e637947756172643a207265656e7472616e742063616c6c0081525060200191505060405180910390fd5b6002600181905550600560009054906101000a900460ff1615611c51576040517f08c379a0000000000000000000000000000000000000000000000000000000008152600401611c48906141b3565b60405180910390fd5b600260009054906101000a900460ff1615611ca1576040517f08c379a0000000000000000000000000000000000000000000000000000000008152600401611c98906141d3565b60405180910390fd5b600080611cad83611173565b915091506001811015611cf5576040517f08c379a0000000000000000000000000000000000000000000000000000000008152600401611cec906141f3565b60405180910390fd5b611d0a83600d54612a0b90919063ffffffff16565b600d81905550600960009054906101000a900473ffffffffffffffffffffffffffffffffffffffff1673ffffffffffffffffffffffffffffffffffffffff1663cca5e4b1338360016040518463ffffffff1660e01b8152600401611d7093929190613ff4565b600060405180830381600087803b158015611d8a57600080fd5b505af1158015611d9e573d6000803e3d6000fd5b50505050600960009054906101000a900473ffffffffffffffffffffffffffffffffffffffff1673ffffffffffffffffffffffffffffffffffffffff1663cca5e4b1611de8610e2b565b8460016040518463ffffffff1660e01b8152600401611e09939291906140c2565b600060405180830381600087803b158015611e2357600080fd5b505af1158015611e37573d6000803e3d6000fd5b50505050611e69600760009054906101000a900473ffffffffffffffffffffffffffffffffffffffff16333086612b16565b7fc779ed4173ee0a3293a6575326fb4fcb5c81023bbc481cf910100c0fbe836e3333611ea5611e96610e97565b846128fc90919063ffffffff16565b83604051611eb59392919061402b565b60405180910390a150506001808190555050565b600760009054906101000a900473ffffffffffffffffffffffffffffffffffffffff1681565b611ef76128f4565b73ffffffffffffffffffffffffffffffffffffffff16611f15610e2b565b73ffffffffffffffffffffffffffffffffffffffff1614611f9e576040517f08c379a00000000000000000000000000000000000000000000000000000000081526004018080602001828103825260208152602001807f4f776e61626c653a2063616c6c6572206973206e6f7420746865206f776e657281525060200191505060405180910390fd5b6001600c60008282540192505081905550600160068054905003600c541115611fca576000600c819055505b60006006600c5481548110611fdb57fe5b90600052602060002090600402016040518060a00160405290816000820160009054906101000a900460ff1660ff1660ff1681526020016000820160019054906101000a900473ffffffffffffffffffffffffffffffffffffffff1673ffffffffffffffffffffffffffffffffffffffff1673ffffffffffffffffffffffffffffffffffffffff1681526020016001820160009054906101000a900473ffffffffffffffffffffffffffffffffffffffff1673ffffffffffffffffffffffffffffffffffffffff1673ffffffffffffffffffffffffffffffffffffffff16815260200160028201600280602002604051908101604052809291908260028015612123576020028201916000905b82829054906101000a900462ffffff1662ffffff16815260200190600301906020826002010492830192600103820291508084116120e85790505b505050505081526020016003820160009054906101000a900473ffffffffffffffffffffffffffffffffffffffff1673ffffffffffffffffffffffffffffffffffffffff1673ffffffffffffffffffffffffffffffffffffffff1681525050905060006121b560646121a7846000015160ff16600e546128fc90919063ffffffff16565b61298290919063ffffffff16565b905060006121e860646121da856000015160ff16600d546128fc90919063ffffffff16565b61298290919063ffffffff16565b905060006121f5846116f0565b9050600083111561220c5761220b848483612d36565b5b6000821115612221576122208483836130c3565b5b50505050565b600c5481565b6122356128f4565b73ffffffffffffffffffffffffffffffffffffffff16612253610e2b565b73ffffffffffffffffffffffffffffffffffffffff16146122dc576040517f08c379a00000000000000000000000000000000000000000000000000000000081526004018080602001828103825260208152602001807f4f776e61626c653a2063616c6c6572206973206e6f7420746865206f776e657281525060200191505060405180910390fd5b600073ffffffffffffffffffffffffffffffffffffffff168173ffffffffffffffffffffffffffffffffffffffff161415612362576040517f08c379a00000000000000000000000000000000000000000000000000000000081526004018080602001828103825260268152602001806145cb6026913960400191505060405180910390fd5b8073ffffffffffffffffffffffffffffffffffffffff1660008054906101000a900473ffffffffffffffffffffffffffffffffffffffff1673ffffffffffffffffffffffffffffffffffffffff167f8be0079c531659141344cd1fd0a4f28419497f9722a3daafe3b4186f6b6457e060405160405180910390a3806000806101000a81548173ffffffffffffffffffffffffffffffffffffffff021916908373ffffffffffffffffffffffffffffffffffffffff16021790555050565b60606040518060800160405280604181526020016145f160419139905090565b6124476128f4565b73ffffffffffffffffffffffffffffffffffffffff16612465610e2b565b73ffffffffffffffffffffffffffffffffffffffff16146124ee576040517f08c379a00000000000000000000000000000000000000000000000000000000081526004018080602001828103825260208152602001807f4f776e61626c653a2063616c6c6572206973206e6f7420746865206f776e657281525060200191505060405180910390fd5b6001600560006101000a81548160ff0219169083151502179055506000612546600354612538600260159054906101000a900460ff1660ff16600e546128fc90919063ffffffff16565b61298290919063ffffffff16565b90506125a9600260019054906101000a900473ffffffffffffffffffffffffffffffffffffffff167f00000000000000000000000000000000000000000000000000000000000000006125a484600e54612a0b90919063ffffffff16565b61347f565b50565b6000816125db57600960009054906101000a900473ffffffffffffffffffffffffffffffffffffffff166125ff565b600a60009054906101000a900473ffffffffffffffffffffffffffffffffffffffff165b73ffffffffffffffffffffffffffffffffffffffff1663e65896c9846040518263ffffffff1660e01b81526004016126379190613f95565b60206040518083038186803b15801561264f57600080fd5b505afa158015612663573d6000803e3d6000fd5b505050506040513d601f19601f82011682018060405250810190612687919061392e565b905092915050565b6126976128f4565b73ffffffffffffffffffffffffffffffffffffffff166126b5610e2b565b73ffffffffffffffffffffffffffffffffffffffff161461273e576040517f08c379a00000000000000000000000000000000000000000000000000000000081526004018080602001828103825260208152602001807f4f776e61626c653a2063616c6c6572206973206e6f7420746865206f776e657281525060200191505060405180910390fd5b6000612748610e97565b9050600a60009054906101000a900473ffffffffffffffffffffffffffffffffffffffff1673ffffffffffffffffffffffffffffffffffffffff1663f8c493d66127b7836127a9670de0b6b3a7640000600e546128fc90919063ffffffff16565b61298290919063ffffffff16565b60016040518363ffffffff1660e01b81526004016127d692919061426c565b600060405180830381600087803b1580156127f057600080fd5b505af1158015612804573d6000803e3d6000fd5b50505050600960009054906101000a900473ffffffffffffffffffffffffffffffffffffffff1673ffffffffffffffffffffffffffffffffffffffff1663f8c493d661287583612867670de0b6b3a7640000600d546128fc90919063ffffffff16565b61298290919063ffffffff16565b60016040518363ffffffff1660e01b815260040161289492919061426c565b600060405180830381600087803b1580156128ae57600080fd5b505af11580156128c2573d6000803e3d6000fd5b505050506000600e819055506000600d819055506000600560006101000a81548160ff02191690831515021790555050565b600033905090565b60008083141561290f576000905061297c565b600082840290508284828161292057fe5b0414612977576040517f08c379a00000000000000000000000000000000000000000000000000000000081526004018080602001828103825260218152602001806146326021913960400191505060405180910390fd5b809150505b92915050565b60008082116129f9576040517f08c379a000000000000000000000000000000000000000000000000000000000815260040180806020018281038252601a8152602001807f536166654d6174683a206469766973696f6e206279207a65726f00000000000081525060200191505060405180910390fd5b818381612a0257fe5b04905092915050565b600080828401905083811015612a89576040517f08c379a000000000000000000000000000000000000000000000000000000000815260040180806020018281038252601b8152602001807f536166654d6174683a206164646974696f6e206f766572666c6f77000000000081525060200191505060405180910390fd5b8091505092915050565b600082821115612b0b576040517f08c379a000000000000000000000000000000000000000000000000000000000815260040180806020018281038252601e8152602001807f536166654d6174683a207375627472616374696f6e206f766572666c6f77000081525060200191505060405180910390fd5b818303905092915050565b6000808573ffffffffffffffffffffffffffffffffffffffff166323b872dd60e01b868686604051602401808473ffffffffffffffffffffffffffffffffffffffff1681526020018373ffffffffffffffffffffffffffffffffffffffff1681526020018281526020019350505050604051602081830303815290604052907bffffffffffffffffffffffffffffffffffffffffffffffffffffffff19166020820180517bffffffffffffffffffffffffffffffffffffffffffffffffffffffff83818316178352505050506040518082805190602001908083835b60208310612c155780518252602082019150602081019050602083039250612bf2565b6001836020036101000a0380198251168184511680821785525050505050509050019150506000604051808303816000865af19150503d8060008114612c77576040519150601f19603f3d011682016040523d82523d6000602084013e612c7c565b606091505b5091509150818015612cbc5750600081511480612cbb5750808060200190516020811015612ca957600080fd5b81019080805190602001909291905050505b5b612d2e576040517f08c379a00000000000000000000000000000000000000000000000000000000081526004018080602001828103825260038152602001807f535446000000000000000000000000000000000000000000000000000000000081525060200191505060405180910390fd5b505050505050565b60007f000000000000000000000000000000000000000000000000000000000000000090506000612d8a83612d7c670de0b6b3a7640000876128fc90919063ffffffff16565b61298290919063ffffffff16565b90506000612dd9612dca600354612dbc600260159054906101000a900460ff1660ff16896128fc90919063ffffffff16565b61298290919063ffffffff16565b86612a0b90919063ffffffff16565b9050600073ffffffffffffffffffffffffffffffffffffffff16866080015173ffffffffffffffffffffffffffffffffffffffff161415612f77578273ffffffffffffffffffffffffffffffffffffffff1663db3e2198604051806101000160405280600260019054906101000a900473ffffffffffffffffffffffffffffffffffffffff1673ffffffffffffffffffffffffffffffffffffffff168152602001896020015173ffffffffffffffffffffffffffffffffffffffff1681526020018960600151600060028110612eab57fe5b602002015162ffffff1681526020013073ffffffffffffffffffffffffffffffffffffffff168152602001428152602001858152602001848152602001600073ffffffffffffffffffffffffffffffffffffffff168152506040518263ffffffff1660e01b8152600401612f1f9190614235565b602060405180830381600087803b158015612f3957600080fd5b505af1158015612f4d573d6000803e3d6000fd5b505050506040513d601f19601f82011682018060405250810190612f71919061392e565b506130bb565b8273ffffffffffffffffffffffffffffffffffffffff1663f28c04986040518060a0016040528089602001518a60600151600160028110612fb457fe5b60200201518b608001518c60600151600060028110612fcf57fe5b6020020151600260019054906101000a900473ffffffffffffffffffffffffffffffffffffffff1660405160200161300b959493929190613f36565b60405160208183030381529060405281526020013073ffffffffffffffffffffffffffffffffffffffff168152602001428152602001858152602001848152506040518263ffffffff1660e01b81526004016130679190614213565b602060405180830381600087803b15801561308157600080fd5b505af1158015613095573d6000803e3d6000fd5b505050506040513d601f19601f820116820180604052508101906130b9919061392e565b505b505050505050565b60007f000000000000000000000000000000000000000000000000000000000000000090506000613117670de0b6b3a764000061310985876128fc90919063ffffffff16565b61298290919063ffffffff16565b90506000613166613157600354613149600260159054906101000a900460ff1660ff16896128fc90919063ffffffff16565b61298290919063ffffffff16565b86612a0b90919063ffffffff16565b905061319786602001517f00000000000000000000000000000000000000000000000000000000000000008461347f565b600073ffffffffffffffffffffffffffffffffffffffff16866080015173ffffffffffffffffffffffffffffffffffffffff161415613333578273ffffffffffffffffffffffffffffffffffffffff1663db3e2198604051806101000160405280896020015173ffffffffffffffffffffffffffffffffffffffff168152602001600260019054906101000a900473ffffffffffffffffffffffffffffffffffffffff1673ffffffffffffffffffffffffffffffffffffffff168152602001896060015160006002811061326757fe5b602002015162ffffff1681526020013073ffffffffffffffffffffffffffffffffffffffff168152602001428152602001858152602001848152602001600073ffffffffffffffffffffffffffffffffffffffff168152506040518263ffffffff1660e01b81526004016132db9190614235565b602060405180830381600087803b1580156132f557600080fd5b505af1158015613309573d6000803e3d6000fd5b505050506040513d601f19601f8201168201806040525081019061332d919061392e565b50613477565b8273ffffffffffffffffffffffffffffffffffffffff1663f28c04986040518060a00160405280600260019054906101000a900473ffffffffffffffffffffffffffffffffffffffff168a6060015160006002811061338e57fe5b60200201518b608001518c606001516001600281106133a957fe5b60200201518d602001516040516020016133c7959493929190613f36565b60405160208183030381529060405281526020013073ffffffffffffffffffffffffffffffffffffffff168152602001428152602001858152602001848152506040518263ffffffff1660e01b81526004016134239190614213565b602060405180830381600087803b15801561343d57600080fd5b505af1158015613451573d6000803e3d6000fd5b505050506040513d601f19601f82011682018060405250810190613475919061392e565b505b505050505050565b6000808473ffffffffffffffffffffffffffffffffffffffff1663095ea7b360e01b8585604051602401808373ffffffffffffffffffffffffffffffffffffffff16815260200182815260200192505050604051602081830303815290604052907bffffffffffffffffffffffffffffffffffffffffffffffffffffffff19166020820180517bffffffffffffffffffffffffffffffffffffffffffffffffffffffff83818316178352505050506040518082805190602001908083835b60208310613560578051825260208201915060208101905060208303925061353d565b6001836020036101000a0380198251168184511680821785525050505050509050019150506000604051808303816000865af19150503d80600081146135c2576040519150601f19603f3d011682016040523d82523d6000602084013e6135c7565b606091505b5091509150818015613607575060008151148061360657508080602001905160208110156135f457600080fd5b81019080805190602001909291905050505b5b613679576040517f08c379a00000000000000000000000000000000000000000000000000000000081526004018080602001828103825260028152602001807f534100000000000000000000000000000000000000000000000000000000000081525060200191505060405180910390fd5b5050505050565b600061369361368e84614334565b614303565b905080828560208602820111156136a957600080fd5b60005b858110156136d957816136bf88826137d1565b8452602084019350602083019250506001810190506136ac565b5050509392505050565b6000813590506136f281614557565b92915050565b600082601f83011261370957600080fd5b6002613716848285613680565b91505092915050565b60008135905061372e8161456e565b92915050565b6000815190506137438161456e565b92915050565b600060c0828403121561375b57600080fd5b61376560a0614303565b9050600061377584828501613810565b6000830152506020613789848285016136e3565b602083015250604061379d848285016136e3565b60408301525060606137b1848285016136f8565b60608301525060a06137c5848285016136e3565b60808301525092915050565b6000813590506137e081614585565b92915050565b6000813590506137f58161459c565b92915050565b60008151905061380a8161459c565b92915050565b60008135905061381f816145b3565b92915050565b60006020828403121561383757600080fd5b6000613845848285016136e3565b91505092915050565b6000806040838503121561386157600080fd5b600061386f858286016136e3565b92505060206138808582860161371f565b9150509250929050565b60006020828403121561389c57600080fd5b60006138aa8482850161371f565b91505092915050565b6000602082840312156138c557600080fd5b60006138d384828501613734565b91505092915050565b600060c082840312156138ee57600080fd5b60006138fc84828501613749565b91505092915050565b60006020828403121561391757600080fd5b6000613925848285016137e6565b91505092915050565b60006020828403121561394057600080fd5b600061394e848285016137fb565b91505092915050565b6000806040838503121561396a57600080fd5b6000613978858286016137e6565b92505060206139898582860161371f565b9150509250929050565b600080604083850312156139a657600080fd5b60006139b485828601613810565b92505060206139c5858286016137e6565b9150509250929050565b60006139db8383613e5d565b60c08301905092915050565b60006139f38383613ed4565b60208301905092915050565b613a0881614467565b82525050565b613a1781614403565b82525050565b613a2681614403565b82525050565b613a3d613a3882614403565b6144f4565b82525050565b6000613a4e82614374565b613a5881856143ba565b9350613a638361435a565b8060005b83811015613a94578151613a7b88826139cf565b9750613a86836143a0565b925050600181019050613a67565b5085935050505092915050565b613aaa8161437f565b613ab481846143cb565b9250613abf8261436a565b8060005b83811015613af0578151613ad787826139e7565b9650613ae2836143ad565b925050600181019050613ac3565b505050505050565b613b018161437f565b613b0b81846143d6565b9250613b168261436a565b8060005b83811015613b47578151613b2e87826139e7565b9650613b39836143ad565b925050600181019050613b1a565b505050505050565b613b5881614415565b82525050565b6000613b698261438a565b613b7381856143e1565b9350613b838185602086016144c1565b613b8c8161452c565b840191505092915050565b613ba081614479565b82525050565b6000613bb182614395565b613bbb81856143f2565b9350613bcb8185602086016144c1565b613bd48161452c565b840191505092915050565b6000613bec6016836143f2565b91507f4e6f7420656e6f75676820746f6b656e732073656e74000000000000000000006000830152602082019050919050565b6000613c2c600f836143f2565b91507f4e6f7420656e6f756768206465627400000000000000000000000000000000006000830152602082019050919050565b6000613c6c6029836143f2565b91507f50726f64756374206973206265696e6720736574746c65642c2074727920616760008301527f61696e206c6174657200000000000000000000000000000000000000000000006020830152604082019050919050565b6000613cd26011836143f2565b91507f50726f64756374206973206c6f636b65640000000000000000000000000000006000830152602082019050919050565b6000613d126019836143f2565b91507f596f75206d7573742073656c6c206d6f726520746f6b656e73000000000000006000830152602082019050919050565b600060a0830160008301518482036000860152613d628282613b5e565b9150506020830151613d776020860182613a0e565b506040830151613d8a6040860182613efa565b506060830151613d9d6060860182613efa565b506080830151613db06080860182613efa565b508091505092915050565b61010082016000820151613dd26000850182613a0e565b506020820151613de56020850182613a0e565b506040820151613df86040850182613ed4565b506060820151613e0b6060850182613a0e565b506080820151613e1e6080850182613efa565b5060a0820151613e3160a0850182613efa565b5060c0820151613e4460c0850182613efa565b5060e0820151613e5760e0850182613ec5565b50505050565b60c082016000820151613e736000850182613f18565b506020820151613e866020850182613a0e565b506040820151613e996040850182613a0e565b506060820151613eac6060850182613aa1565b506080820151613ebf60a0850182613a0e565b50505050565b613ece81614421565b82525050565b613edd81614441565b82525050565b613ef4613eef82614441565b614518565b82525050565b613f0381614450565b82525050565b613f1281614450565b82525050565b613f218161445a565b82525050565b613f308161445a565b82525050565b6000613f428288613a2c565b601482019150613f528287613ee3565b600382019150613f628286613a2c565b601482019150613f728285613ee3565b600382019150613f828284613a2c565b6014820191508190509695505050505050565b6000602082019050613faa6000830184613a1d565b92915050565b6000602082019050613fc560008301846139ff565b92915050565b6000604082019050613fe060008301856139ff565b613fed6020830184613f09565b9392505050565b600060608201905061400960008301866139ff565b6140166020830185613f09565b6140236040830184613b4f565b949350505050565b600060608201905061404060008301866139ff565b61404d6020830185613f09565b61405a6040830184613f09565b949350505050565b60006080820190506140776000830186613a1d565b6140846020830185613af8565b6140916060830184613a1d565b949350505050565b60006040820190506140ae6000830185613a1d565b6140bb6020830184613f09565b9392505050565b60006060820190506140d76000830186613a1d565b6140e46020830185613f09565b6140f16040830184613b4f565b949350505050565b600060208201905081810360008301526141138184613a43565b905092915050565b60006020820190506141306000830184613b4f565b92915050565b600060208201905061414b6000830184613b97565b92915050565b6000602082019050818103600083015261416b8184613ba6565b905092915050565b6000602082019050818103600083015261418c81613bdf565b9050919050565b600060208201905081810360008301526141ac81613c1f565b9050919050565b600060208201905081810360008301526141cc81613c5f565b9050919050565b600060208201905081810360008301526141ec81613cc5565b9050919050565b6000602082019050818103600083015261420c81613d05565b9050919050565b6000602082019050818103600083015261422d8184613d45565b905092915050565b60006101008201905061424b6000830184613dbb565b92915050565b60006020820190506142666000830184613f09565b92915050565b60006040820190506142816000830185613f09565b61428e6020830184613b4f565b9392505050565b60006040820190506142aa6000830185613f09565b6142b76020830184613f09565b9392505050565b60006080820190506142d36000830187613f27565b6142e06020830186613a1d565b6142ed6040830185613a1d565b6142fa6060830184613a1d565b95945050505050565b6000604051905081810181811067ffffffffffffffff8211171561432a5761432961452a565b5b8060405250919050565b600067ffffffffffffffff82111561434f5761434e61452a565b5b602082029050919050565b6000819050602082019050919050565b6000819050919050565b600081519050919050565b600060029050919050565b600081519050919050565b600081519050919050565b6000602082019050919050565b6000602082019050919050565b600082825260208201905092915050565b600081905092915050565b600081905092915050565b600082825260208201905092915050565b600082825260208201905092915050565b600061440e82614421565b9050919050565b60008115159050919050565b600073ffffffffffffffffffffffffffffffffffffffff82169050919050565b600062ffffff82169050919050565b6000819050919050565b600060ff82169050919050565b60006144728261449d565b9050919050565b60006144848261448b565b9050919050565b600061449682614421565b9050919050565b60006144a8826144af565b9050919050565b60006144ba82614421565b9050919050565b60005b838110156144df5780820151818401526020810190506144c4565b838111156144ee576000848401525b50505050565b60006144ff82614506565b9050919050565b60006145118261454a565b9050919050565b60006145238261453d565b9050919050565bfe5b6000601f19601f8301169050919050565b60008160e81b9050919050565b60008160601b9050919050565b61456081614403565b811461456b57600080fd5b50565b61457781614415565b811461458257600080fd5b50565b61458e81614441565b811461459957600080fd5b50565b6145a581614450565b81146145b057600080fd5b50565b6145bc8161445a565b81146145c757600080fd5b5056fe4f776e61626c653a206e6577206f776e657220697320746865207a65726f206164647265737368747470733a2f2f63727970746f6c6f676f732e63632f6c6f676f732f706f6c796d6174682d6e6574776f726b2d706f6c792d6c6f676f2e706e673f763d303232536166654d6174683a206d756c7469706c69636174696f6e206f766572666c6f77436f7272656c6174696f6e20696e646578206973206120746f6f6c207468617420616c6c6f777320796f7520746f2064697665727369667920796f757220696e766573746d656e7473a264697066735822122045519f11e18dc0969f5dd842486a6668529c09a73d9707f32c344b20ac18af3264736f6c6343000706003360806040526040516100109061007f565b604051809103906000f08015801561002c573d6000803e3d6000fd5b50600160006101000a81548173ffffffffffffffffffffffffffffffffffffffff021916908373ffffffffffffffffffffffffffffffffffffffff16021790555034801561007957600080fd5b5061008c565b6106928061071083390190565b6106758061009b6000396000f3fe608060405234801561001057600080fd5b50600436106100575760003560e01c806334ce998a1461005c578063cca5e4b11461007a578063e2842d79146100d4578063e65896c914610133578063f8c493d61461018b575b600080fd5b6100646101c5565b6040518082815260200191505060405180910390f35b6100d26004803603606081101561009057600080fd5b81019080803573ffffffffffffffffffffffffffffffffffffffff169060200190929190803590602001909291908035151590602001909291905050506101ce565b005b6100dc6102dd565b6040518080602001828103825283818151815260200191508051906020019060200280838360005b8381101561011f578082015181840152602081019050610104565b505050509050019250505060405180910390f35b6101756004803603602081101561014957600080fd5b81019080803573ffffffffffffffffffffffffffffffffffffffff169060200190929190505050610421565b6040518082815260200191505060405180910390f35b6101c3600480360360408110156101a157600080fd5b81019080803590602001909291908035151590602001909291905050506104ee565b005b60008054905090565b600160009054906101000a900473ffffffffffffffffffffffffffffffffffffffff1673ffffffffffffffffffffffffffffffffffffffff1663cca5e4b18484846040518463ffffffff1660e01b8152600401808473ffffffffffffffffffffffffffffffffffffffff16815260200183815260200182151581526020019350505050600060405180830381600087803b15801561026b57600080fd5b505af115801561027f573d6000803e3d6000fd5b505050507f206b7154b31a11c2b2e6152606cd086dfceae80d3b4e43cefa0f0b39ea0e1c638383604051808373ffffffffffffffffffffffffffffffffffffffff1681526020018281526020019250505060405180910390a1505050565b6060600160009054906101000a900473ffffffffffffffffffffffffffffffffffffffff1673ffffffffffffffffffffffffffffffffffffffff1663e2842d796040518163ffffffff1660e01b815260040160006040518083038186803b15801561034757600080fd5b505afa15801561035b573d6000803e3d6000fd5b505050506040513d6000823e3d601f19601f82011682018060405250602081101561038557600080fd5b81019080805160405193929190846401000000008211156103a557600080fd5b838201915060208201858111156103bb57600080fd5b82518660208202830111640100000000821117156103d857600080fd5b8083526020830192505050908051906020019060200280838360005b8381101561040f5780820151818401526020810190506103f4565b50505050905001604052505050905090565b6000600160009054906101000a900473ffffffffffffffffffffffffffffffffffffffff1673ffffffffffffffffffffffffffffffffffffffff1663e65896c9836040518263ffffffff1660e01b8152600401808273ffffffffffffffffffffffffffffffffffffffff16815260200191505060206040518083038186803b1580156104ac57600080fd5b505afa1580156104c0573d6000803e3d6000fd5b505050506040513d60208110156104d657600080fd5b81019080805190602001909291905050509050919050565b8015610514576105098260005461053490919063ffffffff16565b600081905550610530565b610529826000546105bc90919063ffffffff16565b6000819055505b5050565b6000808284019050838110156105b2576040517f08c379a000000000000000000000000000000000000000000000000000000000815260040180806020018281038252601b8152602001807f536166654d6174683a206164646974696f6e206f766572666c6f77000000000081525060200191505060405180910390fd5b8091505092915050565b600082821115610634576040517f08c379a000000000000000000000000000000000000000000000000000000000815260040180806020018281038252601e8152602001807f536166654d6174683a207375627472616374696f6e206f766572666c6f77000081525060200191505060405180910390fd5b81830390509291505056fea2646970667358221220b175b75cabd20a9ce180ef4c6f71d0a65c894b12c7a17f8ae8159a12b391254264736f6c63430007060033608060405234801561001057600080fd5b50610672806100206000396000f3fe608060405234801561001057600080fd5b50600436106100415760003560e01c8063cca5e4b114610046578063e2842d79146100a0578063e65896c9146100ff575b600080fd5b61009e6004803603606081101561005c57600080fd5b81019080803573ffffffffffffffffffffffffffffffffffffffff16906020019092919080359060200190929190803515159060200190929190505050610157565b005b6100a861034c565b6040518080602001828103825283818151815260200191508051906020019060200280838360005b838110156100eb5780820151818401526020810190506100d0565b505050509050019250505060405180910390f35b6101416004803603602081101561011557600080fd5b81019080803573ffffffffffffffffffffffffffffffffffffffff1690602001909291905050506103da565b6040518082815260200191505060405180910390f35b80156101f5576101ae826000808673ffffffffffffffffffffffffffffffffffffffff1673ffffffffffffffffffffffffffffffffffffffff1681526020019081526020016000205461042290919063ffffffff16565b6000808573ffffffffffffffffffffffffffffffffffffffff1673ffffffffffffffffffffffffffffffffffffffff16815260200190815260200160002081905550610289565b610246826000808673ffffffffffffffffffffffffffffffffffffffff1673ffffffffffffffffffffffffffffffffffffffff168152602001908152602001600020546104aa90919063ffffffff16565b6000808573ffffffffffffffffffffffffffffffffffffffff1673ffffffffffffffffffffffffffffffffffffffff168152602001908152602001600020819055505b6102928361052d565b60008060008573ffffffffffffffffffffffffffffffffffffffff1673ffffffffffffffffffffffffffffffffffffffff168152602001908152602001600020541015610347576040517f08c379a00000000000000000000000000000000000000000000000000000000081526004018080602001828103825260178152602001807f446562742063616e6e6f74206265206e6567617469766500000000000000000081525060200191505060405180910390fd5b505050565b606060028054806020026020016040519081016040528092919081815260200182805480156103d057602002820191906000526020600020905b8160009054906101000a900473ffffffffffffffffffffffffffffffffffffffff1673ffffffffffffffffffffffffffffffffffffffff1681526020019060010190808311610386575b5050505050905090565b60008060008373ffffffffffffffffffffffffffffffffffffffff1673ffffffffffffffffffffffffffffffffffffffff168152602001908152602001600020549050919050565b6000808284019050838110156104a0576040517f08c379a000000000000000000000000000000000000000000000000000000000815260040180806020018281038252601b8152602001807f536166654d6174683a206164646974696f6e206f766572666c6f77000000000081525060200191505060405180910390fd5b8091505092915050565b600082821115610522576040517f08c379a000000000000000000000000000000000000000000000000000000000815260040180806020018281038252601e8152602001807f536166654d6174683a207375627472616374696f6e206f766572666c6f77000081525060200191505060405180910390fd5b818303905092915050565b600160008273ffffffffffffffffffffffffffffffffffffffff1673ffffffffffffffffffffffffffffffffffffffff16815260200190815260200160002060009054906101000a900460ff166106395760018060008373ffffffffffffffffffffffffffffffffffffffff1673ffffffffffffffffffffffffffffffffffffffff16815260200190815260200160002060006101000a81548160ff0219169083151502179055506002819080600181540180825580915050600190039060005260206000200160009091909190916101000a81548173ffffffffffffffffffffffffffffffffffffffff021916908373ffffffffffffffffffffffffffffffffffffffff1602179055505b5056fea2646970667358221220f79b75dcb3bbf1bd65f99e6fb7a1ac8b8aab6ba30d0842d5343110101d3614a864736f6c63430007060033608060405234801561001057600080fd5b50731f98431c8ad98523631ae4a59f267346ea31f9846000806101000a81548173ffffffffffffffffffffffffffffffffffffffff021916908373ffffffffffffffffffffffffffffffffffffffff160217905550736b175474e89094c44da98b954eedeac495271d0f600160006101000a81548173ffffffffffffffffffffffffffffffffffffffff021916908373ffffffffffffffffffffffffffffffffffffffff16021790555073c02aaa39b223fe8d0a0e5c4f27ead9083c756cc2600260006101000a81548173ffffffffffffffffffffffffffffffffffffffff021916908373ffffffffffffffffffffffffffffffffffffffff160217905550610ea98061011e6000396000f3fe608060405234801561001057600080fd5b506004361061002b5760003560e01c8063ae5621b814610030575b600080fd5b6100d36004803603608081101561004657600080fd5b81019080803573ffffffffffffffffffffffffffffffffffffffff16906020019092919080604001906002806020026040519081016040528092919082600260200280828437600081840152601f19601f8201169050808301925050505050509192919290803573ffffffffffffffffffffffffffffffffffffffff1690602001909291905050506100e9565b6040518082815260200191505060405180910390f35b60008073ffffffffffffffffffffffffffffffffffffffff168273ffffffffffffffffffffffffffffffffffffffff16141561034a5760008060009054906101000a900473ffffffffffffffffffffffffffffffffffffffff1673ffffffffffffffffffffffffffffffffffffffff16631698ee82600160009054906101000a900473ffffffffffffffffffffffffffffffffffffffff16878760006002811061018f57fe5b60200201516040518463ffffffff1660e01b8152600401808473ffffffffffffffffffffffffffffffffffffffff1681526020018373ffffffffffffffffffffffffffffffffffffffff1681526020018262ffffff168152602001935050505060206040518083038186803b15801561020757600080fd5b505afa15801561021b573d6000803e3d6000fd5b505050506040513d602081101561023157600080fd5b8101908080519060200190929190505050905060008173ffffffffffffffffffffffffffffffffffffffff16633850c7bd6040518163ffffffff1660e01b815260040160e06040518083038186803b15801561028c57600080fd5b505afa1580156102a0573d6000803e3d6000fd5b505050506040513d60e08110156102b657600080fd5b8101908080519060200190929190805190602001909291908051906020019092919080519060200190929190805190602001909291908051906020019092919080519060200190929190505050505050505091505061034181670de0b6b3a764000088600160009054906101000a900473ffffffffffffffffffffffffffffffffffffffff1661075b565b92505050610754565b60008060009054906101000a900473ffffffffffffffffffffffffffffffffffffffff1673ffffffffffffffffffffffffffffffffffffffff16631698ee8284878760016002811061039857fe5b60200201516040518463ffffffff1660e01b8152600401808473ffffffffffffffffffffffffffffffffffffffff1681526020018373ffffffffffffffffffffffffffffffffffffffff1681526020018262ffffff168152602001935050505060206040518083038186803b15801561041057600080fd5b505afa158015610424573d6000803e3d6000fd5b505050506040513d602081101561043a57600080fd5b8101908080519060200190929190505050905060008173ffffffffffffffffffffffffffffffffffffffff16633850c7bd6040518163ffffffff1660e01b815260040160e06040518083038186803b15801561049557600080fd5b505afa1580156104a9573d6000803e3d6000fd5b505050506040513d60e08110156104bf57600080fd5b81019080805190602001909291908051906020019092919080519060200190929190805190602001909291908051906020019092919080519060200190929190805190602001909291905050505050505050915050600061052a82670de0b6b3a7640000898861075b565b905060008060009054906101000a900473ffffffffffffffffffffffffffffffffffffffff1673ffffffffffffffffffffffffffffffffffffffff16631698ee82600160009054906101000a900473ffffffffffffffffffffffffffffffffffffffff16888a60006002811061059c57fe5b60200201516040518463ffffffff1660e01b8152600401808473ffffffffffffffffffffffffffffffffffffffff1681526020018373ffffffffffffffffffffffffffffffffffffffff1681526020018262ffffff168152602001935050505060206040518083038186803b15801561061457600080fd5b505afa158015610628573d6000803e3d6000fd5b505050506040513d602081101561063e57600080fd5b8101908080519060200190929190505050905060008173ffffffffffffffffffffffffffffffffffffffff16633850c7bd6040518163ffffffff1660e01b815260040160e06040518083038186803b15801561069957600080fd5b505afa1580156106ad573d6000803e3d6000fd5b505050506040513d60e08110156106c357600080fd5b81019080805190602001909291908051906020019092919080519060200190929190805190602001909291908051906020019092919080519060200190929190805190602001909291905050505050505050915050600061074882858a600160009054906101000a900473ffffffffffffffffffffffffffffffffffffffff1661075b565b90508096505050505050505b9392505050565b6000806107678661095e565b90506fffffffffffffffffffffffffffffffff80168173ffffffffffffffffffffffffffffffffffffffff16116108785760008173ffffffffffffffffffffffffffffffffffffffff168273ffffffffffffffffffffffffffffffffffffffff160290508373ffffffffffffffffffffffffffffffffffffffff168573ffffffffffffffffffffffffffffffffffffffff1610610839576108347801000000000000000000000000000000000000000000000000876fffffffffffffffffffffffffffffffff1683610d99565b610870565b61086f81876fffffffffffffffffffffffffffffffff167801000000000000000000000000000000000000000000000000610d99565b5b925050610955565b60006108ba8273ffffffffffffffffffffffffffffffffffffffff168373ffffffffffffffffffffffffffffffffffffffff1668010000000000000000610d99565b90508373ffffffffffffffffffffffffffffffffffffffff168573ffffffffffffffffffffffffffffffffffffffff16106109225761091d700100000000000000000000000000000000876fffffffffffffffffffffffffffffffff1683610d99565b610951565b61095081876fffffffffffffffffffffffffffffffff16700100000000000000000000000000000000610d99565b5b9250505b50949350505050565b60008060008360020b12610975578260020b61097d565b8260020b6000035b90507ffffffffffffffffffffffffffffffffffffffffffffffffffffffffffff2761860000360020b811115610a1b576040517f08c379a00000000000000000000000000000000000000000000000000000000081526004018080602001828103825260018152602001807f540000000000000000000000000000000000000000000000000000000000000081525060200191505060405180910390fd5b600080600183161415610a3f57700100000000000000000000000000000000610a51565b6ffffcb933bd6fad37aa2d162d1a5940015b70ffffffffffffffffffffffffffffffffff16905060006002831614610a8b5760806ffff97272373d413259a46990580e213a8202901c90505b60006004831614610ab05760806ffff2e50f5f656932ef12357cf3c7fdcc8202901c90505b60006008831614610ad55760806fffe5caca7e10e4e61c3624eaa0941cd08202901c90505b60006010831614610afa5760806fffcb9843d60f6159c9db58835c9266448202901c90505b60006020831614610b1f5760806fff973b41fa98c081472e6896dfb254c08202901c90505b60006040831614610b445760806fff2ea16466c96a3843ec78b326b528618202901c90505b60006080831614610b695760806ffe5dee046a99a2a811c461f1969c30538202901c90505b6000610100831614610b8f5760806ffcbe86c7900a88aedcffc83b479aa3a48202901c90505b6000610200831614610bb55760806ff987a7253ac413176f2b074cf7815e548202901c90505b6000610400831614610bdb5760806ff3392b0822b70005940c7a398e4b70f38202901c90505b6000610800831614610c015760806fe7159475a2c29b7443b29c7fa6e889d98202901c90505b6000611000831614610c275760806fd097f3bdfd2022b8845ad8f792aa58258202901c90505b6000612000831614610c4d5760806fa9f746462d870fdf8a65dc1f90e061e58202901c90505b6000614000831614610c735760806f70d869a156d2a1b890bb3df62baf32f78202901c90505b6000618000831614610c995760806f31be135f97d08fd981231505542fcfa68202901c90505b600062010000831614610cc05760806f09aa508b5b7a84e1c677de54f3e99bc98202901c90505b600062020000831614610ce65760806e5d6af8dedb81196699c329225ee6048202901c90505b600062040000831614610d0b5760806d2216e584f5fa1ea926041bedfe988202901c90505b600062080000831614610d2e5760806b048a170391f7dc42444e8fa28202901c90505b60008460020b1315610d6757807fffffffffffffffffffffffffffffffffffffffffffffffffffffffffffffffff81610d6357fe5b0490505b60006401000000008281610d7757fe5b0614610d84576001610d87565b60005b60ff16602082901c0192505050919050565b600080600080198587098587029250828110838203039150506000811415610dd45760008411610dc857600080fd5b83820492505050610e6c565b808411610de057600080fd5b600084868809905082811182039150808303925060008586600003169050808604955080840493506001818260000304019050808302841793506000600287600302189050808702600203810290508087026002038102905080870260020381029050808702600203810290508087026002038102905080870260020381029050808502955050505050505b939250505056fea2646970667358221220655ce624b059ec4ceba6e21d2dcc8c4a7729e95d697bcbe03657b4e010a3e1fb64736f6c6343000706003360806040523480156200001157600080fd5b50604051620012ff380380620012ff833981810160405281019062000037919062000225565b83600560006101000a81548173ffffffffffffffffffffffffffffffffffffffff021916908373ffffffffffffffffffffffffffffffffffffffff160217905550826002908051906020019062000090929190620000cf565b5081600360006101000a81548160ff021916908360ff1602179055508060049080519060200190620000c4929190620000cf565b5050505050620003d7565b828054600181600116156101000203166002900490600052602060002090601f01602090048101928262000107576000855562000153565b82601f106200012257805160ff191683800117855562000153565b8280016001018555821562000153579182015b828111156200015257825182559160200191906001019062000135565b5b50905062000162919062000166565b5090565b5b808211156200018157600081600090555060010162000167565b5090565b60006200019c6200019684620002f7565b620002c3565b905082815260208101848484011115620001b557600080fd5b620001c28482856200036b565b509392505050565b600081519050620001db81620003a3565b92915050565b600082601f830112620001f357600080fd5b81516200020584826020860162000185565b91505092915050565b6000815190506200021f81620003bd565b92915050565b600080600080608085870312156200023c57600080fd5b60006200024c87828801620001ca565b945050602085015167ffffffffffffffff8111156200026a57600080fd5b6200027887828801620001e1565b93505060406200028b878288016200020e565b925050606085015167ffffffffffffffff811115620002a957600080fd5b620002b787828801620001e1565b91505092959194509250565b6000604051905081810181811067ffffffffffffffff82111715620002ed57620002ec620003a1565b5b8060405250919050565b600067ffffffffffffffff821115620003155762000314620003a1565b5b601f19601f8301169050602081019050919050565b600062000337826200033e565b9050919050565b600073ffffffffffffffffffffffffffffffffffffffff82169050919050565b600060ff82169050919050565b60005b838110156200038b5780820151818401526020810190506200036e565b838111156200039b576000848401525b50505050565bfe5b620003ae816200032a565b8114620003ba57600080fd5b50565b620003c8816200035e565b8114620003d457600080fd5b50565b610f1880620003e76000396000f3fe608060405234801561001057600080fd5b50600436106100995760003560e01c806306fdde031461009e578063095ea7b3146100bc5780630cf1fd36146100ec57806323b872dd1461010a57806327e235e31461013a578063313ce5671461016a5780635c6581651461018857806370a08231146101b857806395d89b41146101e8578063a9059cbb14610206578063dd62ed3e14610236575b600080fd5b6100a6610266565b6040516100b39190610d67565b60405180910390f35b6100d660048036038101906100d19190610bb4565b610304565b6040516100e39190610d4c565b60405180910390f35b6100f46103f6565b6040516101019190610d31565b60405180910390f35b610124600480360381019061011f9190610b65565b61041c565b6040516101319190610d4c565b60405180910390f35b610154600480360381019061014f9190610b00565b6106e7565b6040516101619190610dc9565b60405180910390f35b6101726106ff565b60405161017f9190610de4565b60405180910390f35b6101a2600480360381019061019d9190610b29565b610712565b6040516101af9190610dc9565b60405180910390f35b6101d260048036038101906101cd9190610b00565b610737565b6040516101df9190610dc9565b60405180910390f35b6101f061077f565b6040516101fd9190610d67565b60405180910390f35b610220600480360381019061021b9190610bb4565b61081d565b60405161022d9190610d4c565b60405180910390f35b610250600480360381019061024b9190610b29565b610a4f565b60405161025d9190610dc9565b60405180910390f35b60028054600181600116156101000203166002900480601f0160208091040260200160405190810160405280929190818152602001828054600181600116156101000203166002900480156102fc5780601f106102d1576101008083540402835291602001916102fc565b820191906000526020600020905b8154815290600101906020018083116102df57829003601f168201915b505050505081565b600081600160003373ffffffffffffffffffffffffffffffffffffffff1673ffffffffffffffffffffffffffffffffffffffff16815260200190815260200160002060008573ffffffffffffffffffffffffffffffffffffffff1673ffffffffffffffffffffffffffffffffffffffff168152602001908152602001600020819055508273ffffffffffffffffffffffffffffffffffffffff163373ffffffffffffffffffffffffffffffffffffffff167f8c5be1e5ebec7d5bd14f71427d1e84f3dd0314c0f7b2291e5b200ac8c7c3b925846040516103e49190610dc9565b60405180910390a36001905092915050565b600560009054906101000a900473ffffffffffffffffffffffffffffffffffffffff1681565b600080600160008673ffffffffffffffffffffffffffffffffffffffff1673ffffffffffffffffffffffffffffffffffffffff16815260200190815260200160002060003373ffffffffffffffffffffffffffffffffffffffff1673ffffffffffffffffffffffffffffffffffffffff168152602001908152602001600020549050826000808773ffffffffffffffffffffffffffffffffffffffff1673ffffffffffffffffffffffffffffffffffffffff16815260200190815260200160002054101580156104ec5750828110155b61052b576040517f08c379a000000000000000000000000000000000000000000000000000000000815260040161052290610da9565b60405180910390fd5b826000808673ffffffffffffffffffffffffffffffffffffffff1673ffffffffffffffffffffffffffffffffffffffff16815260200190815260200160002060008282540192505081905550826000808773ffffffffffffffffffffffffffffffffffffffff1673ffffffffffffffffffffffffffffffffffffffff168152602001908152602001600020600082825403925050819055507fffffffffffffffffffffffffffffffffffffffffffffffffffffffffffffffff8110156106765782600160008773ffffffffffffffffffffffffffffffffffffffff1673ffffffffffffffffffffffffffffffffffffffff16815260200190815260200160002060003373ffffffffffffffffffffffffffffffffffffffff1673ffffffffffffffffffffffffffffffffffffffff168152602001908152602001600020600082825403925050819055505b8373ffffffffffffffffffffffffffffffffffffffff168573ffffffffffffffffffffffffffffffffffffffff167fddf252ad1be2c89b69c2b068fc378daa952ba7f163c4a11628f55a4df523b3ef856040516106d39190610dc9565b60405180910390a360019150509392505050565b60006020528060005260406000206000915090505481565b600360009054906101000a900460ff1681565b6001602052816000526040600020602052806000526040600020600091509150505481565b60008060008373ffffffffffffffffffffffffffffffffffffffff1673ffffffffffffffffffffffffffffffffffffffff168152602001908152602001600020549050919050565b60048054600181600116156101000203166002900480601f0160208091040260200160405190810160405280929190818152602001828054600181600116156101000203166002900480156108155780601f106107ea57610100808354040283529160200191610815565b820191906000526020600020905b8154815290600101906020018083116107f857829003601f168201915b505050505081565b6000600560009054906101000a900473ffffffffffffffffffffffffffffffffffffffff1673ffffffffffffffffffffffffffffffffffffffff163373ffffffffffffffffffffffffffffffffffffffff1614156108c657816000808573ffffffffffffffffffffffffffffffffffffffff1673ffffffffffffffffffffffffffffffffffffffff168152602001908152602001600020600082825401925050819055506109e0565b816000803373ffffffffffffffffffffffffffffffffffffffff1673ffffffffffffffffffffffffffffffffffffffff168152602001908152602001600020541015610947576040517f08c379a000000000000000000000000000000000000000000000000000000000815260040161093e90610d89565b60405180910390fd5b816000803373ffffffffffffffffffffffffffffffffffffffff1673ffffffffffffffffffffffffffffffffffffffff16815260200190815260200160002060008282540392505081905550816000808573ffffffffffffffffffffffffffffffffffffffff1673ffffffffffffffffffffffffffffffffffffffff168152602001908152602001600020600082825401925050819055505b8273ffffffffffffffffffffffffffffffffffffffff163373ffffffffffffffffffffffffffffffffffffffff167fddf252ad1be2c89b69c2b068fc378daa952ba7f163c4a11628f55a4df523b3ef84604051610a3d9190610dc9565b60405180910390a36001905092915050565b6000600160008473ffffffffffffffffffffffffffffffffffffffff1673ffffffffffffffffffffffffffffffffffffffff16815260200190815260200160002060008373ffffffffffffffffffffffffffffffffffffffff1673ffffffffffffffffffffffffffffffffffffffff16815260200190815260200160002054905092915050565b600081359050610ae581610eb4565b92915050565b600081359050610afa81610ecb565b92915050565b600060208284031215610b1257600080fd5b6000610b2084828501610ad6565b91505092915050565b60008060408385031215610b3c57600080fd5b6000610b4a85828601610ad6565b9250506020610b5b85828601610ad6565b9150509250929050565b600080600060608486031215610b7a57600080fd5b6000610b8886828701610ad6565b9350506020610b9986828701610ad6565b9250506040610baa86828701610aeb565b9150509250925092565b60008060408385031215610bc757600080fd5b6000610bd585828601610ad6565b9250506020610be685828601610aeb565b9150509250929050565b610bf981610e1b565b82525050565b610c0881610e2d565b82525050565b6000610c1982610dff565b610c238185610e0a565b9350610c33818560208601610e70565b610c3c81610ea3565b840191505092915050565b6000610c54602f83610e0a565b91507f746f6b656e2062616c616e6365206973206c6f776572207468616e207468652060008301527f76616c75652072657175657374656400000000000000000000000000000000006020830152604082019050919050565b6000610cba603983610e0a565b91507f746f6b656e2062616c616e6365206f7220616c6c6f77616e6365206973206c6f60008301527f776572207468616e20616d6f756e7420726571756573746564000000000000006020830152604082019050919050565b610d1c81610e59565b82525050565b610d2b81610e63565b82525050565b6000602082019050610d466000830184610bf0565b92915050565b6000602082019050610d616000830184610bff565b92915050565b60006020820190508181036000830152610d818184610c0e565b905092915050565b60006020820190508181036000830152610da281610c47565b9050919050565b60006020820190508181036000830152610dc281610cad565b9050919050565b6000602082019050610dde6000830184610d13565b92915050565b6000602082019050610df96000830184610d22565b92915050565b600081519050919050565b600082825260208201905092915050565b6000610e2682610e39565b9050919050565b60008115159050919050565b600073ffffffffffffffffffffffffffffffffffffffff82169050919050565b6000819050919050565b600060ff82169050919050565b60005b83811015610e8e578082015181840152602081019050610e73565b83811115610e9d576000848401525b50505050565b6000601f19601f8301169050919050565b610ebd81610e1b565b8114610ec857600080fd5b50565b610ed481610e59565b8114610edf57600080fd5b5056fea26469706673582212206d7b471248b37aa2cced2e9e54fa45f3c316e94e0de8f17e320014f8e6608f3c64736f6c63430007060033",
  "immutableReferences": {
    "3348": [
      {
        "length": 32,
        "start": 9584
      },
      {
        "length": 32,
        "start": 11578
      },
      {
        "length": 32,
        "start": 12487
      },
      {
        "length": 32,
        "start": 12658
      }
    ]
  },
  "source": "// SPDX-License-Identifier: MIT\r\npragma solidity 0.7.6;\r\npragma abicoder v2;\r\n\r\nimport \"@openzeppelin/contracts/token/ERC20/ERC20.sol\";\r\nimport \"@openzeppelin/contracts/math/SafeMath.sol\";\r\nimport \"@uniswap/v3-periphery/contracts/libraries/TransferHelper.sol\";\r\nimport \"@uniswap/v3-periphery/contracts/interfaces/ISwapRouter.sol\";\r\nimport \"@uniswap/v3-periphery/contracts/interfaces/IPeripheryPayments.sol\";\r\n\r\nimport \"./PriceOracle.sol\";\r\nimport \"./IndexToken.sol\";\r\nimport \"./DebtManager.sol\";\r\nimport \"../management/BaseProduct.sol\";\r\n\r\n\r\ncontract BaseIndex is Product {\r\n    using SafeMath for uint256;\r\n\r\n    struct TokenInfo {\r\n        uint8 indexPercentage;\r\n        address tokenAddress;\r\n        address priceOracleAddress;\r\n        uint24[2] poolFees;\r\n        address intermediateToken;\r\n    }\r\n\r\n    TokenInfo[] public tokens;\r\n    IndexToken public indexToken;\r\n\r\n    address public WETH;\r\n    address private immutable dexRouterAddress;\r\n\r\n    DebtManager private sellDebtManager = new DebtManager();\r\n    DebtManager private buyDebtManager = new DebtManager();\r\n    PriceOracle private priceOracle = new PriceOracle();\r\n\r\n    uint public lastManagedToken = 0;   // TODO: change the visibility\r\n    uint public tokensToSell;    // index tokens that will be sold\r\n    uint public tokensToBuy;    // usd tokens that will be bought\r\n\r\n    function name() external pure override returns (string memory) { return \"CryptoIndex\"; }\r\n    function symbol() external pure override returns (string memory) { return \"CRYPTIX\"; }\r\n    function getComponents() external view returns (TokenInfo[] memory) { return tokens; }\r\n\r\n    function shortDescription() external pure override returns (string memory) {\r\n        return \"Correlation index is a tool that allows you to diversify your investments\";\r\n    }\r\n\r\n    function longDescription() external pure override returns (string memory) {\r\n        return \"Correlation index is a tool that allows you to diversify your investments\";\r\n    }\r\n\r\n    function getTokenPrice(TokenInfo memory token) public view returns (uint256) {\r\n        return priceOracle.getPrice(token.tokenAddress, token.poolFees, token.intermediateToken);\r\n    }\r\n\r\n    function image() external pure override returns (string memory) {\r\n        return \"https://cryptologos.cc/logos/polymath-network-poly-logo.png?v=022\";\r\n    }\r\n\r\n    function getTotalLockedValue() external view override returns (uint256) {\r\n        uint totalValue;\r\n\r\n        for (uint i = 0; i < tokens.length; i++) {\r\n            TokenInfo memory tokenInfo = tokens[i];\r\n            uint tokenBalance = IERC20(tokenInfo.tokenAddress).balanceOf(address(this)).mul(getTokenPrice(tokenInfo));\r\n            totalValue = totalValue.add(tokenBalance.div(1 ether));\r\n        }\r\n\r\n        return totalValue;\r\n    }\r\n\r\n    constructor() {\r\n        dexRouterAddress = 0xE592427A0AEce92De3Edee1F18E0157C05861564;      // Uniswap V3 Router\r\n        buyTokenAddress =  0x6B175474E89094C44Da98b954EedeAC495271d0F;      // DAI\r\n        WETH = 0xC02aaA39b223FE8D0A0e5C4F27eAD9083C756Cc2;\r\n\r\n        productFee = 10;\r\n        productFeeTotal = 100;\r\n        indexPriceAdjustment = 100;\r\n\r\n        indexToken = new IndexToken(address(this), \"Crypto index token\", 18, \"CRYPTIX\");\r\n        isLocked = false;\r\n\r\n        tokens.push(TokenInfo({ // 0) WETH\r\n            tokenAddress: 0xC02aaA39b223FE8D0A0e5C4F27eAD9083C756Cc2,\r\n            priceOracleAddress: 0x5f4eC3Df9cbd43714FE2740f5E3616155c5b8419,\r\n            poolFees: [uint24(3000), uint24(3000)],\r\n            intermediateToken: address(0),\r\n            indexPercentage: 15\r\n        }));\r\n        tokens.push(TokenInfo({ // 1) LINK\r\n            tokenAddress: 0x514910771AF9Ca656af840dff83E8264EcF986CA,\r\n            priceOracleAddress: 0x2c1d072e956AFFC0D435Cb7AC38EF18d24d9127c,\r\n            poolFees: [uint24(3000), uint24(3000)],\r\n            intermediateToken: WETH,\r\n            indexPercentage: 5\r\n        }));\r\n        tokens.push(TokenInfo({ // 2) WBNB\r\n            tokenAddress: 0x418D75f65a02b3D53B2418FB8E1fe493759c7605,\r\n            priceOracleAddress: 0x14e613AC84a31f709eadbdF89C6CC390fDc9540A,\r\n            poolFees: [uint24(3000), uint24(3000)],\r\n            intermediateToken: WETH,\r\n            indexPercentage: 10\r\n        }));\r\n        tokens.push(TokenInfo({ // 3) UNI\r\n            tokenAddress: 0x1f9840a85d5aF5bf1D1762F925BDADdC4201F984,\r\n            priceOracleAddress: 0x553303d460EE0afB37EdFf9bE42922D8FF63220e,\r\n            poolFees: [uint24(3000), uint24(3000)],\r\n            intermediateToken: WETH,\r\n            indexPercentage: 10\r\n        }));\r\n        tokens.push(TokenInfo({ // 4) 1INCH\r\n            tokenAddress: 0x111111111117dC0aa78b770fA6A738034120C302,\r\n            priceOracleAddress: 0xc929ad75B72593967DE83E7F7Cda0493458261D9,\r\n            poolFees: [uint24(3000), 10000],\r\n            intermediateToken: WETH,\r\n            indexPercentage: 10\r\n        }));\r\n        tokens.push(TokenInfo({ // 5) SNX\r\n            tokenAddress: 0xC011a73ee8576Fb46F5E1c5751cA3B9Fe0af2a6F,\r\n            priceOracleAddress: 0xDC3EA94CD0AC27d9A86C180091e7f78C683d3699,\r\n            poolFees: [uint24(3000), 10000],\r\n            intermediateToken: WETH,\r\n            indexPercentage: 5\r\n        }));\r\n        tokens.push(TokenInfo({ // 6) YFI\r\n            tokenAddress: 0x0bc529c00C6401aEF6D220BE8C6Ea1667F6Ad93e,\r\n            priceOracleAddress: 0xA027702dbb89fbd58938e4324ac03B58d812b0E1,\r\n            poolFees: [uint24(3000), uint24(3000)],\r\n            intermediateToken: WETH,\r\n            indexPercentage: 5\r\n        }));\r\n        tokens.push(TokenInfo({ // 7) COMP\r\n            tokenAddress: 0xc00e94Cb662C3520282E6f5717214004A7f26888,\r\n            priceOracleAddress: 0xdbd020CAeF83eFd542f4De03e3cF0C28A4428bd5,\r\n            poolFees: [uint24(3000), uint24(3000)],\r\n            intermediateToken: WETH,\r\n            indexPercentage: 5\r\n        }));\r\n        tokens.push(TokenInfo({ // 8) MKR\r\n            tokenAddress: 0x9f8F72aA9304c8B593d555F12eF6589cC3A579A2,\r\n            priceOracleAddress: 0xec1D1B3b0443256cc3860e24a46F108e699484Aa,\r\n            poolFees: [uint24(3000), uint24(3000)],\r\n            intermediateToken: WETH,\r\n            indexPercentage: 5\r\n        }));\r\n        tokens.push(TokenInfo({ // 9) SUSHI\r\n            tokenAddress: 0x6B3595068778DD592e39A122f4f5a5cF09C90fE2,\r\n            priceOracleAddress: 0xCc70F09A6CC17553b2E31954cD36E4A2d89501f7,\r\n            poolFees: [uint24(3000), uint24(3000)],\r\n            intermediateToken: WETH,\r\n            indexPercentage: 10\r\n        }));\r\n        tokens.push(TokenInfo({ // 10) APE\r\n            tokenAddress: 0x4d224452801ACEd8B2F0aebE155379bb5D594381,\r\n            priceOracleAddress: 0xD10aBbC76679a20055E167BB80A24ac851b37056,\r\n            poolFees: [uint24(3000), uint24(3000)],\r\n            intermediateToken: WETH,\r\n            indexPercentage: 10\r\n        }));\r\n        tokens.push(TokenInfo({ // 11) CRV\r\n            tokenAddress: 0xD533a949740bb3306d119CC777fa900bA034cd52,\r\n            priceOracleAddress: 0xCd627aA160A6fA45Eb793D19Ef54f5062F20f33f,\r\n            poolFees: [uint24(3000), 10000],\r\n            intermediateToken: WETH,\r\n            indexPercentage: 10\r\n        }));\r\n    }\r\n\r\n    function buy(uint256 amount) external override nonReentrant checkSettlement {\r\n        (uint productFee, uint256 realAmount) = calculateFee(amount);\r\n        require(realAmount >= 1, \"Not enough tokens sent\");\r\n\r\n        uint256 indexPrice = getPrice();\r\n        uint buyTokenAmount = realAmount.mul(indexPrice).div(1 ether);\r\n        tokensToBuy = tokensToBuy.add(buyTokenAmount);\r\n        buyDebtManager.changeDebt(msg.sender, realAmount, true);\r\n\r\n        TransferHelper.safeTransferFrom(\r\n            buyTokenAddress, msg.sender, address(this), amount.mul(indexPrice).div(1 ether)\r\n        );\r\n        IERC20(buyTokenAddress).transfer(owner(), productFee.mul(indexPrice).div(2).div(1 ether));\r\n        emit ProductBought(msg.sender, buyTokenAmount, realAmount);\r\n    }\r\n\r\n    function sell(uint amount) external override nonReentrant checkSettlement checkUnlocked {\r\n        (uint productFee, uint256 realAmount) = calculateFee(amount);\r\n        require(realAmount >= 1, \"You must sell more tokens\");\r\n\r\n        tokensToSell = tokensToSell.add(amount);\r\n        sellDebtManager.changeDebt(msg.sender, realAmount, true);\r\n        sellDebtManager.changeDebt(owner(), productFee, true);\r\n\r\n        TransferHelper.safeTransferFrom(address(indexToken), msg.sender, address(this), amount);\r\n        emit ProductSold(msg.sender, realAmount.mul(getPrice()), realAmount);\r\n    }\r\n\r\n    function retrieveDebt(uint amount, bool isBuyDebt) external nonReentrant checkSettlement checkUnlocked{\r\n        DebtManager manager = isBuyDebt ? buyDebtManager : sellDebtManager;\r\n        require(manager.getTotalDebt() >= amount && manager.getUserDebt(msg.sender) >= amount, \"Not enough debt\");\r\n\r\n        ERC20(isBuyDebt ? address(indexToken) : buyTokenAddress).transfer(msg.sender, amount);\r\n        manager.changeDebt(msg.sender, amount, false);\r\n        manager.changeTotalDebt(amount, false);\r\n    }\r\n\r\n    function getTotalDebt(bool isBuy) external view returns (uint) {\r\n        return (isBuy ? buyDebtManager : sellDebtManager).getTotalDebt();\r\n    }\r\n\r\n    function getUserDebt(address user, bool isBuy) external view returns (uint) {\r\n        return (isBuy ? buyDebtManager : sellDebtManager).getUserDebt(user);\r\n    }\r\n\r\n    function beginSettlement() override external onlyOwner{\r\n        isSettlement = true;\r\n\r\n        uint totalBuyFees = tokensToBuy.mul(productFee).div(productFeeTotal);\r\n        TransferHelper.safeApprove(buyTokenAddress, dexRouterAddress, tokensToBuy.add(totalBuyFees));\r\n    }\r\n\r\n    function endSettlement() override external onlyOwner {\r\n        uint productPrice = getPrice();\r\n\r\n        buyDebtManager.changeTotalDebt(tokensToBuy.mul(1 ether).div(productPrice), true);\r\n        sellDebtManager.changeTotalDebt(tokensToSell.mul(1 ether).div(productPrice), true);\r\n        tokensToBuy = 0;\r\n        tokensToSell = 0;\r\n        isSettlement = false;\r\n    }\r\n\r\n    function manageTokensSell(TokenInfo memory token, uint amount, uint tokenPrice) private {\r\n        ISwapRouter dexRouter = ISwapRouter(dexRouterAddress);\r\n        uint amountOut = amount.mul(tokenPrice).div(1 ether);\r\n        uint amountInMaximum = amount.add(amount.mul(productFee).div(productFeeTotal));\r\n        TransferHelper.safeApprove(token.tokenAddress, dexRouterAddress, amountOut);\r\n\r\n        if(token.intermediateToken == address(0)){\r\n            dexRouter.exactOutputSingle(\r\n                ISwapRouter.ExactOutputSingleParams({\r\n                    tokenIn: token.tokenAddress,\r\n                    tokenOut: buyTokenAddress,\r\n                    fee: token.poolFees[0],\r\n                    recipient: address(this),\r\n                    deadline: block.timestamp,\r\n                    amountOut: amountOut,\r\n                    amountInMaximum: amountInMaximum,\r\n                    sqrtPriceLimitX96: 0\r\n                })\r\n            );\r\n        }else{\r\n            dexRouter.exactOutput(\r\n                ISwapRouter.ExactOutputParams({\r\n                    path: abi.encodePacked(\r\n                        buyTokenAddress,\r\n                        token.poolFees[0],\r\n                        token.intermediateToken,\r\n                        token.poolFees[1],\r\n                        token.tokenAddress\r\n                    ),\r\n                    recipient: address(this),\r\n                    deadline: block.timestamp,\r\n                    amountOut: amountOut,\r\n                    amountInMaximum: amountInMaximum\r\n                })\r\n            );\r\n        }\r\n\r\n    }\r\n\r\n    function manageTokensBuy(TokenInfo memory token, uint amount, uint tokenPrice) private {\r\n        ISwapRouter dexRouter = ISwapRouter(dexRouterAddress);\r\n        uint amountOut = amount.mul(1 ether).div(tokenPrice);\r\n        uint amountInMaximum = amount.add(amount.mul(productFee).div(productFeeTotal));\r\n\r\n        if(token.intermediateToken == address(0)){\r\n            dexRouter.exactOutputSingle(\r\n                ISwapRouter.ExactOutputSingleParams({\r\n                    tokenIn: buyTokenAddress,\r\n                    tokenOut: token.tokenAddress,\r\n                    fee: token.poolFees[0],\r\n                    recipient: address(this),\r\n                    deadline: block.timestamp,\r\n                    amountOut: amountOut,\r\n                    amountInMaximum: amountInMaximum,\r\n                    sqrtPriceLimitX96: 0\r\n                })\r\n            );\r\n        }else{\r\n            dexRouter.exactOutput(\r\n                ISwapRouter.ExactOutputParams({\r\n                    path: abi.encodePacked(\r\n                        token.tokenAddress,\r\n                        token.poolFees[1],\r\n                        token.intermediateToken,\r\n                        token.poolFees[0],\r\n                        buyTokenAddress\r\n                    ),\r\n                    recipient: address(this),\r\n                    deadline: block.timestamp,\r\n                    amountOut: amountOut,\r\n                    amountInMaximum: amountInMaximum\r\n                })\r\n            );\r\n        }\r\n    }\r\n\r\n    function manageTokens() external onlyOwner {\r\n        lastManagedToken += 1;\r\n        if(lastManagedToken > tokens.length - 1){ lastManagedToken = 0; }\r\n\r\n        TokenInfo memory token = tokens[lastManagedToken];\r\n        uint tokensToBuyAmount = tokensToBuy.mul(token.indexPercentage).div(100);\r\n        uint tokensToSellAmount = tokensToSell.mul(token.indexPercentage).div(100);\r\n        uint tokenPrice = getTokenPrice(token);\r\n\r\n        if(tokensToBuyAmount > 0){ manageTokensBuy(token, tokensToBuyAmount, tokenPrice); }\r\n        if(tokensToSellAmount > 0){ manageTokensSell(token, tokensToSellAmount, tokenPrice); }\r\n    }\r\n\r\n    function getPrice() public view override returns (uint256) {\r\n        uint256 indexTotalPrice;\r\n\r\n        for (uint256 i = 0; i < tokens.length; i++) {\r\n            TokenInfo memory token = tokens[i];\r\n            indexTotalPrice = indexTotalPrice.add(\r\n                priceOracle.getPrice(token.tokenAddress, token.poolFees, \r\n                    token.intermediateToken).mul(token.indexPercentage).div(100)\r\n            );\r\n        }\r\n\r\n        return indexTotalPrice;//.div(indexPriceAdjustment);\r\n    }\r\n\r\n}\r\n",
  "sourcePath": "D:\\JavascriptProjects\\crypto-index\\contracts\\indices\\BaseIndex.sol",
  "compiler": {
    "name": "solc",
    "version": "0.7.6+commit.7338295f.Emscripten.clang"
  },
  "schemaVersion": "3.4.6",
  "updatedAt": "2022-05-27T09:01:49.172Z",
  "devdoc": {
    "kind": "dev",
    "methods": {
      "owner()": {
        "details": "Returns the address of the current owner."
      },
      "renounceOwnership()": {
        "details": "Leaves the contract without owner. It will not be possible to call `onlyOwner` functions anymore. Can only be called by the current owner. NOTE: Renouncing ownership will leave the contract without an owner, thereby removing any functionality that is only available to the owner."
      },
      "transferOwnership(address)": {
        "details": "Transfers ownership of the contract to a new account (`newOwner`). Can only be called by the current owner."
      }
    },
    "version": 1
  },
  "userdoc": {
    "kind": "user",
    "methods": {},
    "version": 1
  }
}