{
  "contractName": "BaseIndex",
  "abi": [
    {
      "inputs": [],
      "stateMutability": "nonpayable",
      "type": "constructor"
    },
    {
      "anonymous": false,
      "inputs": [
        {
          "indexed": true,
          "internalType": "address",
          "name": "previousOwner",
          "type": "address"
        },
        {
          "indexed": true,
          "internalType": "address",
          "name": "newOwner",
          "type": "address"
        }
      ],
      "name": "OwnershipTransferred",
      "type": "event"
    },
    {
      "anonymous": false,
      "inputs": [
        {
          "indexed": false,
          "internalType": "address",
          "name": "account",
          "type": "address"
        },
        {
          "indexed": false,
          "internalType": "uint256",
          "name": "buyTokenAmount",
          "type": "uint256"
        },
        {
          "indexed": false,
          "internalType": "uint256",
          "name": "indexTokenAmount",
          "type": "uint256"
        }
      ],
      "name": "ProductBuy",
      "type": "event"
    },
    {
      "anonymous": false,
      "inputs": [
        {
          "indexed": false,
          "internalType": "address",
          "name": "account",
          "type": "address"
        },
        {
          "indexed": false,
          "internalType": "uint256",
          "name": "buyTokenAmount",
          "type": "uint256"
        },
        {
          "indexed": false,
          "internalType": "uint256",
          "name": "indexTokenAmount",
          "type": "uint256"
        }
      ],
      "name": "ProductSell",
      "type": "event"
    },
    {
      "inputs": [],
      "name": "buyTokenAddress",
      "outputs": [
        {
          "internalType": "address",
          "name": "",
          "type": "address"
        }
      ],
      "stateMutability": "view",
      "type": "function"
    },
    {
      "inputs": [],
      "name": "indexToken",
      "outputs": [
        {
          "internalType": "contract IndexToken",
          "name": "",
          "type": "address"
        }
      ],
      "stateMutability": "view",
      "type": "function"
    },
    {
      "inputs": [],
      "name": "owner",
      "outputs": [
        {
          "internalType": "address",
          "name": "",
          "type": "address"
        }
      ],
      "stateMutability": "view",
      "type": "function"
    },
    {
      "inputs": [],
      "name": "renounceOwnership",
      "outputs": [],
      "stateMutability": "nonpayable",
      "type": "function"
    },
    {
      "inputs": [],
      "name": "retrieveFees",
      "outputs": [],
      "stateMutability": "nonpayable",
      "type": "function"
    },
    {
      "inputs": [
        {
          "internalType": "uint256",
          "name": "",
          "type": "uint256"
        }
      ],
      "name": "tokens",
      "outputs": [
        {
          "internalType": "address",
          "name": "tokenAddress",
          "type": "address"
        },
        {
          "internalType": "address",
          "name": "priceOracleAddress",
          "type": "address"
        },
        {
          "internalType": "uint24",
          "name": "poolFee",
          "type": "uint24"
        },
        {
          "internalType": "uint8",
          "name": "indexPercentage",
          "type": "uint8"
        }
      ],
      "stateMutability": "view",
      "type": "function"
    },
    {
      "inputs": [
        {
          "internalType": "address",
          "name": "newOwner",
          "type": "address"
        }
      ],
      "name": "transferOwnership",
      "outputs": [],
      "stateMutability": "nonpayable",
      "type": "function"
    },
    {
      "inputs": [],
      "name": "name",
      "outputs": [
        {
          "internalType": "string",
          "name": "",
          "type": "string"
        }
      ],
      "stateMutability": "pure",
      "type": "function"
    },
    {
      "inputs": [],
      "name": "symbol",
      "outputs": [
        {
          "internalType": "string",
          "name": "",
          "type": "string"
        }
      ],
      "stateMutability": "pure",
      "type": "function"
    },
    {
      "inputs": [],
      "name": "shortDescription",
      "outputs": [
        {
          "internalType": "string",
          "name": "",
          "type": "string"
        }
      ],
      "stateMutability": "pure",
      "type": "function"
    },
    {
      "inputs": [],
      "name": "longDescription",
      "outputs": [
        {
          "internalType": "string",
          "name": "",
          "type": "string"
        }
      ],
      "stateMutability": "pure",
      "type": "function"
    },
    {
      "inputs": [
        {
          "internalType": "uint256",
          "name": "amount",
          "type": "uint256"
        }
      ],
      "name": "buy",
      "outputs": [],
      "stateMutability": "nonpayable",
      "type": "function"
    },
    {
      "inputs": [],
      "name": "getPrice",
      "outputs": [
        {
          "internalType": "uint256",
          "name": "",
          "type": "uint256"
        }
      ],
      "stateMutability": "view",
      "type": "function"
    },
    {
      "inputs": [
        {
          "internalType": "uint256",
          "name": "amount",
          "type": "uint256"
        }
      ],
      "name": "sell",
      "outputs": [],
      "stateMutability": "nonpayable",
      "type": "function"
    }
  ],
  "bytecode": "0x60a06040523480156200001157600080fd5b506000620000246200059d60201b60201c565b9050806000806101000a81548173ffffffffffffffffffffffffffffffffffffffff021916908373ffffffffffffffffffffffffffffffffffffffff1602179055508073ffffffffffffffffffffffffffffffffffffffff16600073ffffffffffffffffffffffffffffffffffffffff167f8be0079c531659141344cd1fd0a4f28419497f9722a3daafe3b4186f6b6457e060405160405180910390a35073e592427a0aece92de3edee1f18e0157c0586156473ffffffffffffffffffffffffffffffffffffffff1660808173ffffffffffffffffffffffffffffffffffffffff1660601b81525050736b175474e89094c44da98b954eedeac495271d0f600460006101000a81548173ffffffffffffffffffffffffffffffffffffffff021916908373ffffffffffffffffffffffffffffffffffffffff1602179055506005600060146101000a81548160ff021916908360ff1602179055506103e86001819055506305f5e100600381905550306012604051620001a390620005a5565b620001b092919062000667565b604051809103906000f080158015620001cd573d6000803e3d6000fd5b50600760006101000a81548173ffffffffffffffffffffffffffffffffffffffff021916908373ffffffffffffffffffffffffffffffffffffffff1602179055506040516200021c90620005b3565b604051809103906000f08015801562000239573d6000803e3d6000fd5b50600660006101000a81548173ffffffffffffffffffffffffffffffffffffffff021916908373ffffffffffffffffffffffffffffffffffffffff1602179055506000600260006101000a81548160ff0219169083151502179055506005604051806080016040528073c02aaa39b223fe8d0a0e5c4f27ead9083c756cc273ffffffffffffffffffffffffffffffffffffffff168152602001735f4ec3df9cbd43714fe2740f5e3616155c5b841973ffffffffffffffffffffffffffffffffffffffff168152602001610bb862ffffff168152602001604660ff16815250908060018154018082558091505060019003906000526020600020906002020160009091909190915060008201518160000160006101000a81548173ffffffffffffffffffffffffffffffffffffffff021916908373ffffffffffffffffffffffffffffffffffffffff16021790555060208201518160010160006101000a81548173ffffffffffffffffffffffffffffffffffffffff021916908373ffffffffffffffffffffffffffffffffffffffff16021790555060408201518160010160146101000a81548162ffffff021916908362ffffff16021790555060608201518160010160176101000a81548160ff021916908360ff16021790555050506005604051806080016040528073514910771af9ca656af840dff83e8264ecf986ca73ffffffffffffffffffffffffffffffffffffffff168152602001732c1d072e956affc0d435cb7ac38ef18d24d9127c73ffffffffffffffffffffffffffffffffffffffff168152602001610bb862ffffff168152602001601e60ff16815250908060018154018082558091505060019003906000526020600020906002020160009091909190915060008201518160000160006101000a81548173ffffffffffffffffffffffffffffffffffffffff021916908373ffffffffffffffffffffffffffffffffffffffff16021790555060208201518160010160006101000a81548173ffffffffffffffffffffffffffffffffffffffff021916908373ffffffffffffffffffffffffffffffffffffffff16021790555060408201518160010160146101000a81548162ffffff021916908362ffffff16021790555060608201518160010160176101000a81548160ff021916908360ff160217905550505062000724565b600033905090565b6112e980620028d183390190565b61019f8062003bba83390190565b620005cc81620006cf565b82525050565b620005dd8162000710565b82525050565b6000620005f2600783620006be565b91507f43525950544958000000000000000000000000000000000000000000000000006000830152602082019050919050565b600062000634601283620006be565b91507f43727970746f20696e64657820746f6b656e00000000000000000000000000006000830152602082019050919050565b60006080820190506200067e6000830185620005c1565b8181036020830152620006918162000625565b9050620006a26040830184620005d2565b8181036060830152620006b581620005e3565b90509392505050565b600082825260208201905092915050565b6000620006dc82620006e3565b9050919050565b600073ffffffffffffffffffffffffffffffffffffffff82169050919050565b600060ff82169050919050565b60006200071d8262000703565b9050919050565b60805160601c61218062000751600039806109d75280610a005280610f55528061118052506121806000f3fe608060405234801561001057600080fd5b50600436106100ba5760003560e01c806306fdde03146100bf5780631da98960146100dd5780634f64b2be146100fb57806360ebbf811461012e578063715018a61461014c5780638da5cb5b1461015657806395d89b411461017457806398d5fdca14610192578063ba25d944146101b0578063bae8cae5146101ce578063d96a094a146101d8578063e4849b32146101f4578063e7d015f214610210578063f2fde38b1461022e575b600080fd5b6100c761024a565b6040516100d49190611edf565b60405180910390f35b6100e5610287565b6040516100f29190611edf565b60405180910390f35b61011560048036038101906101109190611b72565b6102a7565b6040516101259493929190611e56565b60405180910390f35b610136610343565b6040516101439190611ddb565b60405180910390f35b610154610369565b005b61015e6104d6565b60405161016b9190611ddb565b60405180910390f35b61017c6104ff565b6040516101899190611edf565b60405180910390f35b61019a61053c565b6040516101a79190611f5d565b60405180910390f35b6101b8610751565b6040516101c59190611edf565b60405180910390f35b6101d6610771565b005b6101f260048036038101906101ed9190611b72565b610967565b005b61020e60048036038101906102099190611b72565b610e89565b005b610218611351565b6040516102259190611ec4565b60405180910390f35b61024860048036038101906102439190611b20565b611377565b005b60606040518060400160405280600b81526020017f43727970746f496e646578000000000000000000000000000000000000000000815250905090565b606060405180608001604052806049815260200161210260499139905090565b600581815481106102b757600080fd5b90600052602060002090600202016000915090508060000160009054906101000a900473ffffffffffffffffffffffffffffffffffffffff16908060010160009054906101000a900473ffffffffffffffffffffffffffffffffffffffff16908060010160149054906101000a900462ffffff16908060010160179054906101000a900460ff16905084565b600460009054906101000a900473ffffffffffffffffffffffffffffffffffffffff1681565b610371611569565b73ffffffffffffffffffffffffffffffffffffffff1661038f6104d6565b73ffffffffffffffffffffffffffffffffffffffff1614610418576040517f08c379a00000000000000000000000000000000000000000000000000000000081526004018080602001828103825260208152602001807f4f776e61626c653a2063616c6c6572206973206e6f7420746865206f776e657281525060200191505060405180910390fd5b600073ffffffffffffffffffffffffffffffffffffffff1660008054906101000a900473ffffffffffffffffffffffffffffffffffffffff1673ffffffffffffffffffffffffffffffffffffffff167f8be0079c531659141344cd1fd0a4f28419497f9722a3daafe3b4186f6b6457e060405160405180910390a360008060006101000a81548173ffffffffffffffffffffffffffffffffffffffff021916908373ffffffffffffffffffffffffffffffffffffffff160217905550565b60008060009054906101000a900473ffffffffffffffffffffffffffffffffffffffff16905090565b60606040518060400160405280600781526020017f4352595054495800000000000000000000000000000000000000000000000000815250905090565b60008060005b600580549050811015610745576105576119ce565b6005828154811061056457fe5b90600052602060002090600202016040518060800160405290816000820160009054906101000a900473ffffffffffffffffffffffffffffffffffffffff1673ffffffffffffffffffffffffffffffffffffffff1673ffffffffffffffffffffffffffffffffffffffff1681526020016001820160009054906101000a900473ffffffffffffffffffffffffffffffffffffffff1673ffffffffffffffffffffffffffffffffffffffff1673ffffffffffffffffffffffffffffffffffffffff1681526020016001820160149054906101000a900462ffffff1662ffffff1662ffffff1681526020016001820160179054906101000a900460ff1660ff1660ff168152505090506000600660009054906101000a900473ffffffffffffffffffffffffffffffffffffffff1673ffffffffffffffffffffffffffffffffffffffff166341976e0983602001516040518263ffffffff1660e01b81526004016106cc9190611ddb565b60206040518083038186803b1580156106e457600080fd5b505afa1580156106f8573d6000803e3d6000fd5b505050506040513d601f19601f8201168201806040525081019061071c9190611b9b565b9050816060015160ff166064828161073057fe5b04028401935050508080600101915050610542565b50600354810291505090565b606060405180608001604052806049815260200161210260499139905090565b610779611569565b73ffffffffffffffffffffffffffffffffffffffff166107976104d6565b73ffffffffffffffffffffffffffffffffffffffff1614610820576040517f08c379a00000000000000000000000000000000000000000000000000000000081526004018080602001828103825260208152602001807f4f776e61626c653a2063616c6c6572206973206e6f7420746865206f776e657281525060200191505060405180910390fd5b6000600460009054906101000a900473ffffffffffffffffffffffffffffffffffffffff1690508073ffffffffffffffffffffffffffffffffffffffff1663a9059cbb61086b6104d6565b8373ffffffffffffffffffffffffffffffffffffffff166370a08231306040518263ffffffff1660e01b81526004016108a49190611ddb565b60206040518083038186803b1580156108bc57600080fd5b505afa1580156108d0573d6000803e3d6000fd5b505050506040513d601f19601f820116820180604052508101906108f49190611b9b565b6040518363ffffffff1660e01b8152600401610911929190611e9b565b602060405180830381600087803b15801561092b57600080fd5b505af115801561093f573d6000803e3d6000fd5b505050506040513d601f19601f820116820180604052508101906109639190611b49565b5050565b600061097161053c565b9050600061097e83611571565b9150506109af600460009054906101000a900473ffffffffffffffffffffffffffffffffffffffff163330866115ab565b6109fc600460009054906101000a900473ffffffffffffffffffffffffffffffffffffffff167f0000000000000000000000000000000000000000000000000000000000000000836117cc565b60007f00000000000000000000000000000000000000000000000000000000000000009050610a296119ce565b60005b600580549050811015610d875760058181548110610a4657fe5b90600052602060002090600202016040518060800160405290816000820160009054906101000a900473ffffffffffffffffffffffffffffffffffffffff1673ffffffffffffffffffffffffffffffffffffffff1673ffffffffffffffffffffffffffffffffffffffff1681526020016001820160009054906101000a900473ffffffffffffffffffffffffffffffffffffffff1673ffffffffffffffffffffffffffffffffffffffff1673ffffffffffffffffffffffffffffffffffffffff1681526020016001820160149054906101000a900462ffffff1662ffffff1662ffffff1681526020016001820160179054906101000a900460ff1660ff1660ff168152505091506000826060015160ff1660648681610b6157fe5b04029050610b6d611a2a565b604051806101000160405280600460009054906101000a900473ffffffffffffffffffffffffffffffffffffffff1673ffffffffffffffffffffffffffffffffffffffff168152602001856000015173ffffffffffffffffffffffffffffffffffffffff168152602001856040015162ffffff1681526020013073ffffffffffffffffffffffffffffffffffffffff168152602001428152602001838152602001600660009054906101000a900473ffffffffffffffffffffffffffffffffffffffff1673ffffffffffffffffffffffffffffffffffffffff166341976e0987602001516040518263ffffffff1660e01b8152600401610c6d9190611ddb565b60206040518083038186803b158015610c8557600080fd5b505afa158015610c99573d6000803e3d6000fd5b505050506040513d601f19601f82011682018060405250810190610cbd9190611b9b565b8481610cc557fe5b048152602001600073ffffffffffffffffffffffffffffffffffffffff16815250905060008573ffffffffffffffffffffffffffffffffffffffff1663414bf389836040518263ffffffff1660e01b8152600401610d239190611f41565b602060405180830381600087803b158015610d3d57600080fd5b505af1158015610d51573d6000803e3d6000fd5b505050506040513d601f19601f82011682018060405250810190610d759190611b9b565b90505050508080600101915050610a2c565b506000848481610d9357fe5b049050600760009054906101000a900473ffffffffffffffffffffffffffffffffffffffff1673ffffffffffffffffffffffffffffffffffffffff1663a9059cbb33836040518363ffffffff1660e01b8152600401610df3929190611df6565b602060405180830381600087803b158015610e0d57600080fd5b505af1158015610e21573d6000803e3d6000fd5b505050506040513d601f19601f82011682018060405250810190610e459190611b49565b507f7ebc3084985b670898d058ca18fa1d6811ad46c72d545dc0af08c8946daaeb21338583604051610e7993929190611e1f565b60405180910390a1505050505050565b600260009054906101000a900460ff1615610ed9576040517f08c379a0000000000000000000000000000000000000000000000000000000008152600401610ed090611f01565b60405180910390fd5b670de0b6b3a76400008111610f23576040517f08c379a0000000000000000000000000000000000000000000000000000000008152600401610f1a90611f21565b60405180910390fd5b610f51600760009054906101000a900473ffffffffffffffffffffffffffffffffffffffff163330846115ab565b60007f00000000000000000000000000000000000000000000000000000000000000009050600080600090505b60058054905081101561131057610f936119ce565b60058281548110610fa057fe5b90600052602060002090600202016040518060800160405290816000820160009054906101000a900473ffffffffffffffffffffffffffffffffffffffff1673ffffffffffffffffffffffffffffffffffffffff1673ffffffffffffffffffffffffffffffffffffffff1681526020016001820160009054906101000a900473ffffffffffffffffffffffffffffffffffffffff1673ffffffffffffffffffffffffffffffffffffffff1673ffffffffffffffffffffffffffffffffffffffff1681526020016001820160149054906101000a900462ffffff1662ffffff1662ffffff1681526020016001820160179054906101000a900460ff1660ff1660ff168152505090506000600660009054906101000a900473ffffffffffffffffffffffffffffffffffffffff1673ffffffffffffffffffffffffffffffffffffffff166341976e0983602001516040518263ffffffff1660e01b81526004016111089190611ddb565b60206040518083038186803b15801561112057600080fd5b505afa158015611134573d6000803e3d6000fd5b505050506040513d601f19601f820116820180604052508101906111589190611b9b565b826060015160ff16606488028161116b57fe5b048161117357fe5b0490506111a582600001517f0000000000000000000000000000000000000000000000000000000000000000836117cc565b6111ad611a2a565b604051806101000160405280846000015173ffffffffffffffffffffffffffffffffffffffff168152602001600460009054906101000a900473ffffffffffffffffffffffffffffffffffffffff1673ffffffffffffffffffffffffffffffffffffffff168152602001846040015162ffffff1681526020013373ffffffffffffffffffffffffffffffffffffffff168152602001428152602001838152602001838152602001600073ffffffffffffffffffffffffffffffffffffffff1681525090508573ffffffffffffffffffffffffffffffffffffffff1663414bf389826040518263ffffffff1660e01b81526004016112aa9190611f41565b602060405180830381600087803b1580156112c457600080fd5b505af11580156112d8573d6000803e3d6000fd5b505050506040513d601f19601f820116820180604052508101906112fc9190611b9b565b850194505050508080600101915050610f7e565b507f0d5a45cf7c9a0539a08a127c07e40d3d3b07823e2c09638a6415b83e59b2d90433828560405161134493929190611e1f565b60405180910390a1505050565b600760009054906101000a900473ffffffffffffffffffffffffffffffffffffffff1681565b61137f611569565b73ffffffffffffffffffffffffffffffffffffffff1661139d6104d6565b73ffffffffffffffffffffffffffffffffffffffff1614611426576040517f08c379a00000000000000000000000000000000000000000000000000000000081526004018080602001828103825260208152602001807f4f776e61626c653a2063616c6c6572206973206e6f7420746865206f776e657281525060200191505060405180910390fd5b600073ffffffffffffffffffffffffffffffffffffffff168173ffffffffffffffffffffffffffffffffffffffff1614156114ac576040517f08c379a00000000000000000000000000000000000000000000000000000000081526004018080602001828103825260268152602001806120dc6026913960400191505060405180910390fd5b8073ffffffffffffffffffffffffffffffffffffffff1660008054906101000a900473ffffffffffffffffffffffffffffffffffffffff1673ffffffffffffffffffffffffffffffffffffffff167f8be0079c531659141344cd1fd0a4f28419497f9722a3daafe3b4186f6b6457e060405160405180910390a3806000806101000a81548173ffffffffffffffffffffffffffffffffffffffff021916908373ffffffffffffffffffffffffffffffffffffffff16021790555050565b600033905090565b60008060008060149054906101000a900460ff1660ff16600154858161159357fe5b04029050600081850390508181935093505050915091565b600060608573ffffffffffffffffffffffffffffffffffffffff166323b872dd60e01b868686604051602401808473ffffffffffffffffffffffffffffffffffffffff1681526020018373ffffffffffffffffffffffffffffffffffffffff1681526020018281526020019350505050604051602081830303815290604052907bffffffffffffffffffffffffffffffffffffffffffffffffffffffff19166020820180517bffffffffffffffffffffffffffffffffffffffffffffffffffffffff83818316178352505050506040518082805190602001908083835b602083106116ab5780518252602082019150602081019050602083039250611688565b6001836020036101000a0380198251168184511680821785525050505050509050019150506000604051808303816000865af19150503d806000811461170d576040519150601f19603f3d011682016040523d82523d6000602084013e611712565b606091505b50915091508180156117525750600081511480611751575080806020019051602081101561173f57600080fd5b81019080805190602001909291905050505b5b6117c4576040517f08c379a00000000000000000000000000000000000000000000000000000000081526004018080602001828103825260038152602001807f535446000000000000000000000000000000000000000000000000000000000081525060200191505060405180910390fd5b505050505050565b600060608473ffffffffffffffffffffffffffffffffffffffff1663095ea7b360e01b8585604051602401808373ffffffffffffffffffffffffffffffffffffffff16815260200182815260200192505050604051602081830303815290604052907bffffffffffffffffffffffffffffffffffffffffffffffffffffffff19166020820180517bffffffffffffffffffffffffffffffffffffffffffffffffffffffff83818316178352505050506040518082805190602001908083835b602083106118ae578051825260208201915060208101905060208303925061188b565b6001836020036101000a0380198251168184511680821785525050505050509050019150506000604051808303816000865af19150503d8060008114611910576040519150601f19603f3d011682016040523d82523d6000602084013e611915565b606091505b50915091508180156119555750600081511480611954575080806020019051602081101561194257600080fd5b81019080805190602001909291905050505b5b6119c7576040517f08c379a00000000000000000000000000000000000000000000000000000000081526004018080602001828103825260028152602001807f534100000000000000000000000000000000000000000000000000000000000081525060200191505060405180910390fd5b5050505050565b6040518060800160405280600073ffffffffffffffffffffffffffffffffffffffff168152602001600073ffffffffffffffffffffffffffffffffffffffff168152602001600062ffffff168152602001600060ff1681525090565b604051806101000160405280600073ffffffffffffffffffffffffffffffffffffffff168152602001600073ffffffffffffffffffffffffffffffffffffffff168152602001600062ffffff168152602001600073ffffffffffffffffffffffffffffffffffffffff168152602001600081526020016000815260200160008152602001600073ffffffffffffffffffffffffffffffffffffffff1681525090565b600081359050611adb81612096565b92915050565b600081519050611af0816120ad565b92915050565b600081359050611b05816120c4565b92915050565b600081519050611b1a816120c4565b92915050565b600060208284031215611b3257600080fd5b6000611b4084828501611acc565b91505092915050565b600060208284031215611b5b57600080fd5b6000611b6984828501611ae1565b91505092915050565b600060208284031215611b8457600080fd5b6000611b9284828501611af6565b91505092915050565b600060208284031215611bad57600080fd5b6000611bbb84828501611b0b565b91505092915050565b611bcd81611ff8565b82525050565b611bdc81611f94565b82525050565b611beb81611f94565b82525050565b611bfa8161200a565b82525050565b6000611c0b82611f78565b611c158185611f83565b9350611c25818560208601612052565b611c2e81612085565b840191505092915050565b6000611c46601183611f83565b91507f50726f64756374206973206c6f636b65640000000000000000000000000000006000830152602082019050919050565b6000611c86602b83611f83565b91507f596f75206d757374207769746864726177206d6f72652066756e64732066726f60008301527f6d2074686520696e6465780000000000000000000000000000000000000000006020830152604082019050919050565b61010082016000820151611cf66000850182611bd3565b506020820151611d096020850182611bd3565b506040820151611d1c6040850182611d90565b506060820151611d2f6060850182611bd3565b506080820151611d426080850182611dae565b5060a0820151611d5560a0850182611dae565b5060c0820151611d6860c0850182611dae565b5060e0820151611d7b60e0850182611d81565b50505050565b611d8a81611fb2565b82525050565b611d9981611fd2565b82525050565b611da881611fd2565b82525050565b611db781611fe1565b82525050565b611dc681611fe1565b82525050565b611dd581611feb565b82525050565b6000602082019050611df06000830184611be2565b92915050565b6000604082019050611e0b6000830185611bc4565b611e186020830184611dbd565b9392505050565b6000606082019050611e346000830186611bc4565b611e416020830185611dbd565b611e4e6040830184611dbd565b949350505050565b6000608082019050611e6b6000830187611be2565b611e786020830186611be2565b611e856040830185611d9f565b611e926060830184611dcc565b95945050505050565b6000604082019050611eb06000830185611be2565b611ebd6020830184611dbd565b9392505050565b6000602082019050611ed96000830184611bf1565b92915050565b60006020820190508181036000830152611ef98184611c00565b905092915050565b60006020820190508181036000830152611f1a81611c39565b9050919050565b60006020820190508181036000830152611f3a81611c79565b9050919050565b600061010082019050611f576000830184611cdf565b92915050565b6000602082019050611f726000830184611dbd565b92915050565b600081519050919050565b600082825260208201905092915050565b6000611f9f82611fb2565b9050919050565b60008115159050919050565b600073ffffffffffffffffffffffffffffffffffffffff82169050919050565b600062ffffff82169050919050565b6000819050919050565b600060ff82169050919050565b60006120038261202e565b9050919050565b60006120158261201c565b9050919050565b600061202782611fb2565b9050919050565b600061203982612040565b9050919050565b600061204b82611fb2565b9050919050565b60005b83811015612070578082015181840152602081019050612055565b8381111561207f576000848401525b50505050565b6000601f19601f8301169050919050565b61209f81611f94565b81146120aa57600080fd5b50565b6120b681611fa6565b81146120c157600080fd5b50565b6120cd81611fe1565b81146120d857600080fd5b5056fe4f776e61626c653a206e6577206f776e657220697320746865207a65726f2061646472657373436f7272656c6174696f6e20696e646578206973206120746f6f6c207468617420616c6c6f777320796f7520746f2064697665727369667920796f757220696e766573746d656e7473a2646970667358221220125a0118320762fa45b6aaf0b709bd84348b856f33575a3006a45f60acf39c8e64736f6c6343000705003360806040523480156200001157600080fd5b50604051620012e9380380620012e983398181016040528101906200003791906200020f565b83600560006101000a81548173ffffffffffffffffffffffffffffffffffffffff021916908373ffffffffffffffffffffffffffffffffffffffff160217905550826002908051906020019062000090929190620000cf565b5081600360006101000a81548160ff021916908360ff1602179055508060049080519060200190620000c4929190620000cf565b5050505050620003c1565b828054600181600116156101000203166002900490600052602060002090601f01602090048101928262000107576000855562000153565b82601f106200012257805160ff191683800117855562000153565b8280016001018555821562000153579182015b828111156200015257825182559160200191906001019062000135565b5b50905062000162919062000166565b5090565b5b808211156200018157600081600090555060010162000167565b5090565b60008151905062000196816200038d565b92915050565b600082601f830112620001ae57600080fd5b8151620001c5620001bf82620002e1565b620002ad565b91508082526020830160208301858383011115620001e257600080fd5b620001ef83828462000355565b50505092915050565b6000815190506200020981620003a7565b92915050565b600080600080608085870312156200022657600080fd5b6000620002368782880162000185565b945050602085015167ffffffffffffffff8111156200025457600080fd5b62000262878288016200019c565b93505060406200027587828801620001f8565b925050606085015167ffffffffffffffff8111156200029357600080fd5b620002a1878288016200019c565b91505092959194509250565b6000604051905081810181811067ffffffffffffffff82111715620002d757620002d66200038b565b5b8060405250919050565b600067ffffffffffffffff821115620002ff57620002fe6200038b565b5b601f19601f8301169050602081019050919050565b6000620003218262000328565b9050919050565b600073ffffffffffffffffffffffffffffffffffffffff82169050919050565b600060ff82169050919050565b60005b838110156200037557808201518184015260208101905062000358565b8381111562000385576000848401525b50505050565bfe5b620003988162000314565b8114620003a457600080fd5b50565b620003b28162000348565b8114620003be57600080fd5b50565b610f1880620003d16000396000f3fe608060405234801561001057600080fd5b50600436106100995760003560e01c806306fdde031461009e578063095ea7b3146100bc5780630cf1fd36146100ec57806323b872dd1461010a57806327e235e31461013a578063313ce5671461016a5780635c6581651461018857806370a08231146101b857806395d89b41146101e8578063a9059cbb14610206578063dd62ed3e14610236575b600080fd5b6100a6610266565b6040516100b39190610d67565b60405180910390f35b6100d660048036038101906100d19190610bb4565b610304565b6040516100e39190610d4c565b60405180910390f35b6100f46103f6565b6040516101019190610d31565b60405180910390f35b610124600480360381019061011f9190610b65565b61041c565b6040516101319190610d4c565b60405180910390f35b610154600480360381019061014f9190610b00565b6106e7565b6040516101619190610dc9565b60405180910390f35b6101726106ff565b60405161017f9190610de4565b60405180910390f35b6101a2600480360381019061019d9190610b29565b610712565b6040516101af9190610dc9565b60405180910390f35b6101d260048036038101906101cd9190610b00565b610737565b6040516101df9190610dc9565b60405180910390f35b6101f061077f565b6040516101fd9190610d67565b60405180910390f35b610220600480360381019061021b9190610bb4565b61081d565b60405161022d9190610d4c565b60405180910390f35b610250600480360381019061024b9190610b29565b610a4f565b60405161025d9190610dc9565b60405180910390f35b60028054600181600116156101000203166002900480601f0160208091040260200160405190810160405280929190818152602001828054600181600116156101000203166002900480156102fc5780601f106102d1576101008083540402835291602001916102fc565b820191906000526020600020905b8154815290600101906020018083116102df57829003601f168201915b505050505081565b600081600160003373ffffffffffffffffffffffffffffffffffffffff1673ffffffffffffffffffffffffffffffffffffffff16815260200190815260200160002060008573ffffffffffffffffffffffffffffffffffffffff1673ffffffffffffffffffffffffffffffffffffffff168152602001908152602001600020819055508273ffffffffffffffffffffffffffffffffffffffff163373ffffffffffffffffffffffffffffffffffffffff167f8c5be1e5ebec7d5bd14f71427d1e84f3dd0314c0f7b2291e5b200ac8c7c3b925846040516103e49190610dc9565b60405180910390a36001905092915050565b600560009054906101000a900473ffffffffffffffffffffffffffffffffffffffff1681565b600080600160008673ffffffffffffffffffffffffffffffffffffffff1673ffffffffffffffffffffffffffffffffffffffff16815260200190815260200160002060003373ffffffffffffffffffffffffffffffffffffffff1673ffffffffffffffffffffffffffffffffffffffff168152602001908152602001600020549050826000808773ffffffffffffffffffffffffffffffffffffffff1673ffffffffffffffffffffffffffffffffffffffff16815260200190815260200160002054101580156104ec5750828110155b61052b576040517f08c379a000000000000000000000000000000000000000000000000000000000815260040161052290610da9565b60405180910390fd5b826000808673ffffffffffffffffffffffffffffffffffffffff1673ffffffffffffffffffffffffffffffffffffffff16815260200190815260200160002060008282540192505081905550826000808773ffffffffffffffffffffffffffffffffffffffff1673ffffffffffffffffffffffffffffffffffffffff168152602001908152602001600020600082825403925050819055507fffffffffffffffffffffffffffffffffffffffffffffffffffffffffffffffff8110156106765782600160008773ffffffffffffffffffffffffffffffffffffffff1673ffffffffffffffffffffffffffffffffffffffff16815260200190815260200160002060003373ffffffffffffffffffffffffffffffffffffffff1673ffffffffffffffffffffffffffffffffffffffff168152602001908152602001600020600082825403925050819055505b8373ffffffffffffffffffffffffffffffffffffffff168573ffffffffffffffffffffffffffffffffffffffff167fddf252ad1be2c89b69c2b068fc378daa952ba7f163c4a11628f55a4df523b3ef856040516106d39190610dc9565b60405180910390a360019150509392505050565b60006020528060005260406000206000915090505481565b600360009054906101000a900460ff1681565b6001602052816000526040600020602052806000526040600020600091509150505481565b60008060008373ffffffffffffffffffffffffffffffffffffffff1673ffffffffffffffffffffffffffffffffffffffff168152602001908152602001600020549050919050565b60048054600181600116156101000203166002900480601f0160208091040260200160405190810160405280929190818152602001828054600181600116156101000203166002900480156108155780601f106107ea57610100808354040283529160200191610815565b820191906000526020600020905b8154815290600101906020018083116107f857829003601f168201915b505050505081565b6000600560009054906101000a900473ffffffffffffffffffffffffffffffffffffffff1673ffffffffffffffffffffffffffffffffffffffff163373ffffffffffffffffffffffffffffffffffffffff1614156108c657816000808573ffffffffffffffffffffffffffffffffffffffff1673ffffffffffffffffffffffffffffffffffffffff16815260200190815260200160002060008282540192505081905550610994565b816000803373ffffffffffffffffffffffffffffffffffffffff1673ffffffffffffffffffffffffffffffffffffffff168152602001908152602001600020541015610947576040517f08c379a000000000000000000000000000000000000000000000000000000000815260040161093e90610d89565b60405180910390fd5b816000803373ffffffffffffffffffffffffffffffffffffffff1673ffffffffffffffffffffffffffffffffffffffff168152602001908152602001600020600082825403925050819055505b816000808573ffffffffffffffffffffffffffffffffffffffff1673ffffffffffffffffffffffffffffffffffffffff168152602001908152602001600020600082825401925050819055508273ffffffffffffffffffffffffffffffffffffffff163373ffffffffffffffffffffffffffffffffffffffff167fddf252ad1be2c89b69c2b068fc378daa952ba7f163c4a11628f55a4df523b3ef84604051610a3d9190610dc9565b60405180910390a36001905092915050565b6000600160008473ffffffffffffffffffffffffffffffffffffffff1673ffffffffffffffffffffffffffffffffffffffff16815260200190815260200160002060008373ffffffffffffffffffffffffffffffffffffffff1673ffffffffffffffffffffffffffffffffffffffff16815260200190815260200160002054905092915050565b600081359050610ae581610eb4565b92915050565b600081359050610afa81610ecb565b92915050565b600060208284031215610b1257600080fd5b6000610b2084828501610ad6565b91505092915050565b60008060408385031215610b3c57600080fd5b6000610b4a85828601610ad6565b9250506020610b5b85828601610ad6565b9150509250929050565b600080600060608486031215610b7a57600080fd5b6000610b8886828701610ad6565b9350506020610b9986828701610ad6565b9250506040610baa86828701610aeb565b9150509250925092565b60008060408385031215610bc757600080fd5b6000610bd585828601610ad6565b9250506020610be685828601610aeb565b9150509250929050565b610bf981610e1b565b82525050565b610c0881610e2d565b82525050565b6000610c1982610dff565b610c238185610e0a565b9350610c33818560208601610e70565b610c3c81610ea3565b840191505092915050565b6000610c54602f83610e0a565b91507f746f6b656e2062616c616e6365206973206c6f776572207468616e207468652060008301527f76616c75652072657175657374656400000000000000000000000000000000006020830152604082019050919050565b6000610cba603983610e0a565b91507f746f6b656e2062616c616e6365206f7220616c6c6f77616e6365206973206c6f60008301527f776572207468616e20616d6f756e7420726571756573746564000000000000006020830152604082019050919050565b610d1c81610e59565b82525050565b610d2b81610e63565b82525050565b6000602082019050610d466000830184610bf0565b92915050565b6000602082019050610d616000830184610bff565b92915050565b60006020820190508181036000830152610d818184610c0e565b905092915050565b60006020820190508181036000830152610da281610c47565b9050919050565b60006020820190508181036000830152610dc281610cad565b9050919050565b6000602082019050610dde6000830184610d13565b92915050565b6000602082019050610df96000830184610d22565b92915050565b600081519050919050565b600082825260208201905092915050565b6000610e2682610e39565b9050919050565b60008115159050919050565b600073ffffffffffffffffffffffffffffffffffffffff82169050919050565b6000819050919050565b600060ff82169050919050565b60005b83811015610e8e578082015181840152602081019050610e73565b83811115610e9d576000848401525b50505050565b6000601f19601f8301169050919050565b610ebd81610e1b565b8114610ec857600080fd5b50565b610ed481610e59565b8114610edf57600080fd5b5056fea2646970667358221220436d3543a213922d11dc974e97144f0938875094033c4fef647452f93c3f5b2764736f6c63430007050033608060405234801561001057600080fd5b5061017f806100206000396000f3fe608060405234801561001057600080fd5b506004361061002b5760003560e01c806341976e0914610030575b600080fd5b6100726004803603602081101561004657600080fd5b81019080803573ffffffffffffffffffffffffffffffffffffffff169060200190929190505050610088565b6040518082815260200191505060405180910390f35b60008082905060008173ffffffffffffffffffffffffffffffffffffffff1663feaf968c6040518163ffffffff1660e01b815260040160a06040518083038186803b1580156100d657600080fd5b505afa1580156100ea573d6000803e3d6000fd5b505050506040513d60a081101561010057600080fd5b810190808051906020019092919080519060200190929190805190602001909291908051906020019092919080519060200190929190505050505050915050809250505091905056fea264697066735822122091a6a7ae0028a114ff99e2284684fef05858df73df43f8e3873d1c9aeb3ae50664736f6c63430007050033",
  "immutableReferences": {
    "1435": [
      {
        "length": 32,
        "start": 2519
      },
      {
        "length": 32,
        "start": 2560
      },
      {
        "length": 32,
        "start": 3925
      },
      {
        "length": 32,
        "start": 4480
      }
    ]
  },
  "source": "// SPDX-License-Identifier: MIT\npragma solidity >=0.7.5;\npragma abicoder v2;\n\nimport \"@openzeppelin/contracts/token/ERC20/ERC20.sol\";\nimport \"@uniswap/v3-periphery/contracts/libraries/TransferHelper.sol\";\nimport \"@uniswap/v3-periphery/contracts/interfaces/ISwapRouter.sol\";\nimport \"@uniswap/v3-periphery/contracts/interfaces/IPeripheryPayments.sol\";\n\nimport \"./PriceOracle.sol\";\nimport \"./IndexToken.sol\";\nimport \"./BaseProduct.sol\";\n\n\ncontract BaseIndex is Product{\n    address private immutable dexRouterAddress;\n\n    struct TokenInfo{\n        address tokenAddress;\n        address priceOracleAddress;\n        uint24 poolFee;\n        uint8 indexPercentage;\n    }\n\n    TokenInfo[] public tokens;\n    PriceOracle private priceOracle;\n    IndexToken public indexToken;\n\n    function name() external override pure returns(string memory){\n        return 'CryptoIndex';\n    }\n\n    function symbol() external override pure returns(string memory){\n        return 'CRYPTIX';\n    }\n\n    function shortDescription() external override pure returns(string memory){\n        return 'Correlation index is a tool that allows you to diversify your investments';\n    }\n\n    function longDescription() external override pure returns(string memory){\n        return 'Correlation index is a tool that allows you to diversify your investments';\n    }\n\n\n    constructor(){\n        dexRouterAddress = 0xE592427A0AEce92De3Edee1F18E0157C05861564;     // Uniswap V3 Router\n        buyTokenAddress = 0x6B175474E89094C44Da98b954EedeAC495271d0F;     // USDC\n        indexFee = 5;\n        indexFeeTotal = 1000;\n        indexPriceAdjustment = 100000000;\n        indexToken = new IndexToken(address(this), \"Crypto index token\", 18, \"CRYPTIX\");\n        priceOracle = new PriceOracle();\n        isLocked = false;\n\n        tokens.push(TokenInfo({     // WETH\n            tokenAddress: 0xC02aaA39b223FE8D0A0e5C4F27eAD9083C756Cc2,\n            priceOracleAddress: 0x5f4eC3Df9cbd43714FE2740f5E3616155c5b8419,\n            poolFee: 3000,\n            indexPercentage: 70\n        }));\n        tokens.push(TokenInfo({    // LINK\n            tokenAddress: 0x514910771AF9Ca656af840dff83E8264EcF986CA,\n            priceOracleAddress: 0x2c1d072e956AFFC0D435Cb7AC38EF18d24d9127c,\n            poolFee: 3000,\n            indexPercentage: 30\n        }));\n\n        // tokens.push(TokenInfo({    // UNI\n        //     tokenAddress: 0x1f9840a85d5aF5bf1D1762F925BDADdC4201F984,\n        //     priceOracleAddress: 0x553303d460EE0afB37EdFf9bE42922D8FF63220e,\n        //     poolFee: 3000,\n        // }));\n        // tokens.push(TokenInfo({    // BNB\n        //     tokenAddress: 0xB8c77482e45F1F44dE1745F52C74426C631bDD52,\n        //     priceOracleAddress: 0x14e613AC84a31f709eadbdF89C6CC390fDc9540A,\n        //     poolFee: 3000,\n        // }));\n        // tokens.push(TokenInfo({    //   SNX\n        //     tokenAddress: 0xC011a73ee8576Fb46F5E1c5751cA3B9Fe0af2a6F,\n        //     priceOracleAddress: 0xDC3EA94CD0AC27d9A86C180091e7f78C683d3699,\n        //     poolFee: 3000,\n        // }));\n        // tokens.push(TokenInfo({    //   YFI\n        //     tokenAddress: 0x0bc529c00C6401aEF6D220BE8C6Ea1667F6Ad93e,\n        //     priceOracleAddress: 0xA027702dbb89fbd58938e4324ac03B58d812b0E1,\n        //     poolFee: 3000,\n        // }));\n        // tokens.push(TokenInfo({    //   COMP\n        //     tokenAddress: 0xc00e94Cb662C3520282E6f5717214004A7f26888,\n        //     priceOracleAddress: 0xdbd020CAeF83eFd542f4De03e3cF0C28A4428bd5,\n        //     poolFee: 3000,\n        // }));\n        // tokens.push(TokenInfo({    //   1INCH\n        //     tokenAddress: 0x111111111117dC0aa78b770fA6A738034120C302,\n        //     priceOracleAddress: 0xc929ad75B72593967DE83E7F7Cda0493458261D9,\n        //     poolFee: 3000,\n        // }));\n        // tokens.push(TokenInfo({    //   MKR\n        //     tokenAddress: 0x9f8F72aA9304c8B593d555F12eF6589cC3A579A2,\n        //     priceOracleAddress: 0xec1D1B3b0443256cc3860e24a46F108e699484Aa,\n        //     poolFee: 3000,\n        // }));\n    }\n\n    function buy(uint amount) external override{\n        uint indexPrice = getPrice();\n        (, uint realAmount) = calculateFee(amount);\n\n        TransferHelper.safeTransferFrom(buyTokenAddress, msg.sender, address(this), amount);\n        TransferHelper.safeApprove(buyTokenAddress, dexRouterAddress, realAmount);\n        ISwapRouter dexRouter = ISwapRouter(dexRouterAddress);\n        TokenInfo memory token;\n\n        for (uint256 index = 0; index < tokens.length; index++) {\n            token = tokens[index];\n            uint tokenAmount = (realAmount / 100) * token.indexPercentage;\n\n            ISwapRouter.ExactInputSingleParams memory params = ISwapRouter.ExactInputSingleParams({\n                tokenIn: buyTokenAddress,\n                tokenOut: token.tokenAddress,\n                fee: token.poolFee,\n                recipient: address(this),\n                deadline: block.timestamp,\n                amountIn: tokenAmount,\n                amountOutMinimum: tokenAmount / priceOracle.getPrice(token.priceOracleAddress),\n                sqrtPriceLimitX96: 0\n            });\n\n            uint out = dexRouter.exactInputSingle(params);\n        }\n\n        uint indexTokens = realAmount / indexPrice;\n        indexToken.transfer(msg.sender, indexTokens);\n        emit ProductBuy(msg.sender, realAmount, indexTokens);\n    }\n\n    function getPrice() public override view returns(uint){\n        uint indexTotalPrice;\n\n        for(uint i = 0; i < tokens.length; i++){\n            TokenInfo memory token = tokens[i];\n            uint price = priceOracle.getPrice(token.priceOracleAddress);\n            indexTotalPrice += (price / 100) * token.indexPercentage;\n        }\n\n        return indexTotalPrice * indexPriceAdjustment;\n    }\n\n    // 22175990000000\n    // 1000000000000000000\n\n    function sell(uint amount) external override checkUnlocked{\n\n        require(amount > 1 ether, \"You must withdraw more funds from the index\");\n        TransferHelper.safeTransferFrom(address(indexToken), msg.sender, address(this), amount);\n        ISwapRouter dexRouter = ISwapRouter(dexRouterAddress);\n\n        uint buyTokenAmount;\n\n        for (uint256 index = 0; index < tokens.length; index++) {\n            TokenInfo memory token = tokens[index];\n            uint tokenAmount = amount * 100 / token.indexPercentage / priceOracle.getPrice(token.priceOracleAddress);\n\n            TransferHelper.safeApprove(token.tokenAddress, dexRouterAddress, tokenAmount);\n            ISwapRouter.ExactInputSingleParams memory params = ISwapRouter.ExactInputSingleParams({\n                tokenIn: token.tokenAddress,\n                tokenOut: buyTokenAddress,\n                fee: token.poolFee,\n                recipient: msg.sender,\n                deadline: block.timestamp,\n                amountIn: tokenAmount,\n                amountOutMinimum: tokenAmount,\n                sqrtPriceLimitX96: 0\n            });\n\n            buyTokenAmount += dexRouter.exactInputSingle(params);\n        }\n\n        emit ProductSell(msg.sender, buyTokenAmount, amount);\n    }\n\n}\n",
  "sourcePath": "D:\\JavascriptProjects\\crypto-index\\contracts\\BaseIndex.sol",
  "compiler": {
    "name": "solc",
    "version": "0.7.5+commit.eb77ed08.Linux.g++"
  },
  "schemaVersion": "3.4.6",
  "updatedAt": "2022-04-11T09:52:40.257Z",
  "devdoc": {
    "kind": "dev",
    "methods": {
      "owner()": {
        "details": "Returns the address of the current owner."
      },
      "renounceOwnership()": {
        "details": "Leaves the contract without owner. It will not be possible to call `onlyOwner` functions anymore. Can only be called by the current owner. NOTE: Renouncing ownership will leave the contract without an owner, thereby removing any functionality that is only available to the owner."
      },
      "transferOwnership(address)": {
        "details": "Transfers ownership of the contract to a new account (`newOwner`). Can only be called by the current owner."
      }
    },
    "version": 1
  },
  "userdoc": {
    "kind": "user",
    "methods": {},
    "version": 1
  }
}