{
  "contractName": "BaseIndex",
  "abi": [
    {
      "inputs": [
        {
          "internalType": "address",
          "name": "_dexRouterAddress",
          "type": "address"
        },
        {
          "internalType": "address",
          "name": "_dexFactoryAddress",
          "type": "address"
        },
        {
          "internalType": "address",
          "name": "_WETH",
          "type": "address"
        },
        {
          "internalType": "address",
          "name": "_buyTokenAddress",
          "type": "address"
        },
        {
          "internalType": "string",
          "name": "_indexTokenName",
          "type": "string"
        },
        {
          "internalType": "string",
          "name": "_indexTokenSymbol",
          "type": "string"
        }
      ],
      "stateMutability": "nonpayable",
      "type": "constructor"
    },
    {
      "anonymous": false,
      "inputs": [
        {
          "indexed": true,
          "internalType": "address",
          "name": "previousOwner",
          "type": "address"
        },
        {
          "indexed": true,
          "internalType": "address",
          "name": "newOwner",
          "type": "address"
        }
      ],
      "name": "OwnershipTransferred",
      "type": "event"
    },
    {
      "anonymous": false,
      "inputs": [
        {
          "indexed": false,
          "internalType": "address",
          "name": "account",
          "type": "address"
        },
        {
          "indexed": false,
          "internalType": "uint256",
          "name": "buyTokenAmount",
          "type": "uint256"
        },
        {
          "indexed": false,
          "internalType": "uint256",
          "name": "indexTokenAmount",
          "type": "uint256"
        }
      ],
      "name": "ProductBought",
      "type": "event"
    },
    {
      "anonymous": false,
      "inputs": [
        {
          "indexed": false,
          "internalType": "address",
          "name": "account",
          "type": "address"
        },
        {
          "indexed": false,
          "internalType": "uint256",
          "name": "buyTokenAmount",
          "type": "uint256"
        },
        {
          "indexed": false,
          "internalType": "uint256",
          "name": "indexTokenAmount",
          "type": "uint256"
        }
      ],
      "name": "ProductSold",
      "type": "event"
    },
    {
      "inputs": [],
      "name": "buyTokenAddress",
      "outputs": [
        {
          "internalType": "address",
          "name": "",
          "type": "address"
        }
      ],
      "stateMutability": "view",
      "type": "function"
    },
    {
      "inputs": [
        {
          "internalType": "uint256",
          "name": "amount",
          "type": "uint256"
        }
      ],
      "name": "calculateFee",
      "outputs": [
        {
          "internalType": "uint256",
          "name": "",
          "type": "uint256"
        },
        {
          "internalType": "uint256",
          "name": "",
          "type": "uint256"
        }
      ],
      "stateMutability": "view",
      "type": "function"
    },
    {
      "inputs": [
        {
          "internalType": "uint8",
          "name": "_fee",
          "type": "uint8"
        },
        {
          "internalType": "uint256",
          "name": "_feeTotal",
          "type": "uint256"
        }
      ],
      "name": "changeFee",
      "outputs": [],
      "stateMutability": "nonpayable",
      "type": "function"
    },
    {
      "inputs": [],
      "name": "getFee",
      "outputs": [
        {
          "internalType": "uint256",
          "name": "",
          "type": "uint256"
        },
        {
          "internalType": "uint256",
          "name": "",
          "type": "uint256"
        }
      ],
      "stateMutability": "view",
      "type": "function"
    },
    {
      "inputs": [],
      "name": "indexToken",
      "outputs": [
        {
          "internalType": "contract IndexToken",
          "name": "",
          "type": "address"
        }
      ],
      "stateMutability": "view",
      "type": "function"
    },
    {
      "inputs": [],
      "name": "isSettlementActive",
      "outputs": [
        {
          "internalType": "bool",
          "name": "",
          "type": "bool"
        }
      ],
      "stateMutability": "view",
      "type": "function"
    },
    {
      "inputs": [],
      "name": "owner",
      "outputs": [
        {
          "internalType": "address",
          "name": "",
          "type": "address"
        }
      ],
      "stateMutability": "view",
      "type": "function"
    },
    {
      "inputs": [],
      "name": "renounceOwnership",
      "outputs": [],
      "stateMutability": "nonpayable",
      "type": "function"
    },
    {
      "inputs": [],
      "name": "tokensToBuy",
      "outputs": [
        {
          "internalType": "uint256",
          "name": "",
          "type": "uint256"
        }
      ],
      "stateMutability": "view",
      "type": "function"
    },
    {
      "inputs": [],
      "name": "tokensToSell",
      "outputs": [
        {
          "internalType": "uint256",
          "name": "",
          "type": "uint256"
        }
      ],
      "stateMutability": "view",
      "type": "function"
    },
    {
      "inputs": [
        {
          "internalType": "address",
          "name": "newOwner",
          "type": "address"
        }
      ],
      "name": "transferOwnership",
      "outputs": [],
      "stateMutability": "nonpayable",
      "type": "function"
    },
    {
      "inputs": [],
      "name": "name",
      "outputs": [
        {
          "internalType": "string",
          "name": "",
          "type": "string"
        }
      ],
      "stateMutability": "pure",
      "type": "function"
    },
    {
      "inputs": [],
      "name": "symbol",
      "outputs": [
        {
          "internalType": "string",
          "name": "",
          "type": "string"
        }
      ],
      "stateMutability": "pure",
      "type": "function"
    },
    {
      "inputs": [],
      "name": "getComponents",
      "outputs": [
        {
          "components": [
            {
              "internalType": "uint8",
              "name": "indexPercentage",
              "type": "uint8"
            },
            {
              "internalType": "address",
              "name": "tokenAddress",
              "type": "address"
            },
            {
              "internalType": "uint24[2]",
              "name": "poolFees",
              "type": "uint24[2]"
            },
            {
              "internalType": "address",
              "name": "intermediateToken",
              "type": "address"
            }
          ],
          "internalType": "struct BaseIndex.TokenInfo[]",
          "name": "",
          "type": "tuple[]"
        }
      ],
      "stateMutability": "view",
      "type": "function"
    },
    {
      "inputs": [],
      "name": "shortDescription",
      "outputs": [
        {
          "internalType": "string",
          "name": "",
          "type": "string"
        }
      ],
      "stateMutability": "pure",
      "type": "function"
    },
    {
      "inputs": [],
      "name": "longDescription",
      "outputs": [
        {
          "internalType": "string",
          "name": "",
          "type": "string"
        }
      ],
      "stateMutability": "pure",
      "type": "function"
    },
    {
      "inputs": [
        {
          "components": [
            {
              "internalType": "uint8",
              "name": "indexPercentage",
              "type": "uint8"
            },
            {
              "internalType": "address",
              "name": "tokenAddress",
              "type": "address"
            },
            {
              "internalType": "uint24[2]",
              "name": "poolFees",
              "type": "uint24[2]"
            },
            {
              "internalType": "address",
              "name": "intermediateToken",
              "type": "address"
            }
          ],
          "internalType": "struct BaseIndex.TokenInfo",
          "name": "token",
          "type": "tuple"
        }
      ],
      "name": "getTokenPrice",
      "outputs": [
        {
          "internalType": "uint256",
          "name": "",
          "type": "uint256"
        }
      ],
      "stateMutability": "view",
      "type": "function"
    },
    {
      "inputs": [],
      "name": "image",
      "outputs": [
        {
          "internalType": "string",
          "name": "",
          "type": "string"
        }
      ],
      "stateMutability": "pure",
      "type": "function"
    },
    {
      "inputs": [],
      "name": "getTotalLockedValue",
      "outputs": [
        {
          "internalType": "uint256",
          "name": "",
          "type": "uint256"
        }
      ],
      "stateMutability": "view",
      "type": "function"
    },
    {
      "inputs": [
        {
          "internalType": "uint256",
          "name": "amount",
          "type": "uint256"
        }
      ],
      "name": "buy",
      "outputs": [],
      "stateMutability": "nonpayable",
      "type": "function"
    },
    {
      "inputs": [
        {
          "internalType": "uint256",
          "name": "amount",
          "type": "uint256"
        }
      ],
      "name": "sell",
      "outputs": [],
      "stateMutability": "nonpayable",
      "type": "function"
    },
    {
      "inputs": [
        {
          "internalType": "uint256",
          "name": "amount",
          "type": "uint256"
        },
        {
          "internalType": "bool",
          "name": "isBuyDebt",
          "type": "bool"
        }
      ],
      "name": "retrieveDebt",
      "outputs": [],
      "stateMutability": "nonpayable",
      "type": "function"
    },
    {
      "inputs": [
        {
          "internalType": "bool",
          "name": "isBuy",
          "type": "bool"
        }
      ],
      "name": "getTotalDebt",
      "outputs": [
        {
          "internalType": "uint256",
          "name": "",
          "type": "uint256"
        }
      ],
      "stateMutability": "view",
      "type": "function"
    },
    {
      "inputs": [
        {
          "internalType": "address",
          "name": "user",
          "type": "address"
        },
        {
          "internalType": "bool",
          "name": "isBuy",
          "type": "bool"
        }
      ],
      "name": "getUserDebt",
      "outputs": [
        {
          "internalType": "uint256",
          "name": "",
          "type": "uint256"
        }
      ],
      "stateMutability": "view",
      "type": "function"
    },
    {
      "inputs": [],
      "name": "beginSettlement",
      "outputs": [],
      "stateMutability": "nonpayable",
      "type": "function"
    },
    {
      "inputs": [],
      "name": "endSettlement",
      "outputs": [],
      "stateMutability": "nonpayable",
      "type": "function"
    },
    {
      "inputs": [],
      "name": "manageTokens",
      "outputs": [],
      "stateMutability": "nonpayable",
      "type": "function"
    },
    {
      "inputs": [],
      "name": "getPrice",
      "outputs": [
        {
          "internalType": "uint256",
          "name": "",
          "type": "uint256"
        }
      ],
      "stateMutability": "view",
      "type": "function"
    }
  ],
  "bytecode": "0x610140604052604051620000139062001674565b604051809103906000f08015801562000030573d6000803e3d6000fd5b5073ffffffffffffffffffffffffffffffffffffffff1660e09073ffffffffffffffffffffffffffffffffffffffff1660601b815250604051620000749062001674565b604051809103906000f08015801562000091573d6000803e3d6000fd5b5073ffffffffffffffffffffffffffffffffffffffff166101009073ffffffffffffffffffffffffffffffffffffffff1660601b8152506000600755600060085560006009556000600a556000600b556000600c55348015620000f357600080fd5b5060405162008bb338038062008bb3833981810160405281019062000119919062001804565b60006200012b6200166c60201b60201c565b9050806000806101000a81548173ffffffffffffffffffffffffffffffffffffffff021916908373ffffffffffffffffffffffffffffffffffffffff1602179055508073ffffffffffffffffffffffffffffffffffffffff16600073ffffffffffffffffffffffffffffffffffffffff167f8be0079c531659141344cd1fd0a4f28419497f9722a3daafe3b4186f6b6457e060405160405180910390a350600180819055508573ffffffffffffffffffffffffffffffffffffffff1660c08173ffffffffffffffffffffffffffffffffffffffff1660601b8152505082600260006101000a81548173ffffffffffffffffffffffffffffffffffffffff021916908373ffffffffffffffffffffffffffffffffffffffff1602179055508373ffffffffffffffffffffffffffffffffffffffff1660a08173ffffffffffffffffffffffffffffffffffffffff1660601b81525050848385604051620002909062001682565b6200029e939291906200195b565b604051809103906000f080158015620002bb573d6000803e3d6000fd5b5073ffffffffffffffffffffffffffffffffffffffff166101208173ffffffffffffffffffffffffffffffffffffffff1660601b8152505060028060146101000a81548160ff021916908360ff16021790555060646003819055503082600260009054906101000a900473ffffffffffffffffffffffffffffffffffffffff1673ffffffffffffffffffffffffffffffffffffffff1663313ce5676040518163ffffffff1660e01b815260040160206040518083038186803b1580156200038157600080fd5b505afa15801562000396573d6000803e3d6000fd5b505050506040513d601f19601f82011682018060405250810190620003bc9190620018cc565b83604051620003cb9062001690565b620003da949392919062001998565b604051809103906000f080158015620003f7573d6000803e3d6000fd5b5073ffffffffffffffffffffffffffffffffffffffff1660808173ffffffffffffffffffffffffffffffffffffffff1660601b8152505060066040518060800160405280600f60ff1681526020018673ffffffffffffffffffffffffffffffffffffffff1681526020016040518060400160405280610bb862ffffff1662ffffff168152602001610bb862ffffff1662ffffff168152508152602001600073ffffffffffffffffffffffffffffffffffffffff16815250908060018154018082558091505060019003906000526020600020906003020160009091909190915060008201518160000160006101000a81548160ff021916908360ff16021790555060208201518160000160016101000a81548173ffffffffffffffffffffffffffffffffffffffff021916908373ffffffffffffffffffffffffffffffffffffffff160217905550604082015181600101906002620005589291906200169e565b5060608201518160020160006101000a81548173ffffffffffffffffffffffffffffffffffffffff021916908373ffffffffffffffffffffffffffffffffffffffff160217905550505060066040518060800160405280600560ff16815260200173514910771af9ca656af840dff83e8264ecf986ca73ffffffffffffffffffffffffffffffffffffffff1681526020016040518060400160405280610bb862ffffff1662ffffff168152602001610bb862ffffff1662ffffff1681525081526020018673ffffffffffffffffffffffffffffffffffffffff16815250908060018154018082558091505060019003906000526020600020906003020160009091909190915060008201518160000160006101000a81548160ff021916908360ff16021790555060208201518160000160016101000a81548173ffffffffffffffffffffffffffffffffffffffff021916908373ffffffffffffffffffffffffffffffffffffffff160217905550604082015181600101906002620006df9291906200169e565b5060608201518160020160006101000a81548173ffffffffffffffffffffffffffffffffffffffff021916908373ffffffffffffffffffffffffffffffffffffffff160217905550505060066040518060800160405280600a60ff16815260200173418d75f65a02b3d53b2418fb8e1fe493759c760573ffffffffffffffffffffffffffffffffffffffff1681526020016040518060400160405280610bb862ffffff1662ffffff168152602001610bb862ffffff1662ffffff1681525081526020018673ffffffffffffffffffffffffffffffffffffffff16815250908060018154018082558091505060019003906000526020600020906003020160009091909190915060008201518160000160006101000a81548160ff021916908360ff16021790555060208201518160000160016101000a81548173ffffffffffffffffffffffffffffffffffffffff021916908373ffffffffffffffffffffffffffffffffffffffff160217905550604082015181600101906002620008669291906200169e565b5060608201518160020160006101000a81548173ffffffffffffffffffffffffffffffffffffffff021916908373ffffffffffffffffffffffffffffffffffffffff160217905550505060066040518060800160405280600a60ff168152602001731f9840a85d5af5bf1d1762f925bdaddc4201f98473ffffffffffffffffffffffffffffffffffffffff1681526020016040518060400160405280610bb862ffffff1662ffffff168152602001610bb862ffffff1662ffffff1681525081526020018673ffffffffffffffffffffffffffffffffffffffff16815250908060018154018082558091505060019003906000526020600020906003020160009091909190915060008201518160000160006101000a81548160ff021916908360ff16021790555060208201518160000160016101000a81548173ffffffffffffffffffffffffffffffffffffffff021916908373ffffffffffffffffffffffffffffffffffffffff160217905550604082015181600101906002620009ed9291906200169e565b5060608201518160020160006101000a81548173ffffffffffffffffffffffffffffffffffffffff021916908373ffffffffffffffffffffffffffffffffffffffff160217905550505060066040518060800160405280600a60ff16815260200173111111111117dc0aa78b770fa6a738034120c30273ffffffffffffffffffffffffffffffffffffffff1681526020016040518060400160405280610bb862ffffff1662ffffff16815260200161271062ffffff1681525081526020018673ffffffffffffffffffffffffffffffffffffffff16815250908060018154018082558091505060019003906000526020600020906003020160009091909190915060008201518160000160006101000a81548160ff021916908360ff16021790555060208201518160000160016101000a81548173ffffffffffffffffffffffffffffffffffffffff021916908373ffffffffffffffffffffffffffffffffffffffff16021790555060408201518160010190600262000b6f9291906200169e565b5060608201518160020160006101000a81548173ffffffffffffffffffffffffffffffffffffffff021916908373ffffffffffffffffffffffffffffffffffffffff160217905550505060066040518060800160405280600560ff16815260200173c011a73ee8576fb46f5e1c5751ca3b9fe0af2a6f73ffffffffffffffffffffffffffffffffffffffff1681526020016040518060400160405280610bb862ffffff1662ffffff16815260200161271062ffffff1681525081526020018673ffffffffffffffffffffffffffffffffffffffff16815250908060018154018082558091505060019003906000526020600020906003020160009091909190915060008201518160000160006101000a81548160ff021916908360ff16021790555060208201518160000160016101000a81548173ffffffffffffffffffffffffffffffffffffffff021916908373ffffffffffffffffffffffffffffffffffffffff16021790555060408201518160010190600262000cf19291906200169e565b5060608201518160020160006101000a81548173ffffffffffffffffffffffffffffffffffffffff021916908373ffffffffffffffffffffffffffffffffffffffff160217905550505060066040518060800160405280600560ff168152602001730bc529c00c6401aef6d220be8c6ea1667f6ad93e73ffffffffffffffffffffffffffffffffffffffff1681526020016040518060400160405280610bb862ffffff1662ffffff168152602001610bb862ffffff1662ffffff1681525081526020018673ffffffffffffffffffffffffffffffffffffffff16815250908060018154018082558091505060019003906000526020600020906003020160009091909190915060008201518160000160006101000a81548160ff021916908360ff16021790555060208201518160000160016101000a81548173ffffffffffffffffffffffffffffffffffffffff021916908373ffffffffffffffffffffffffffffffffffffffff16021790555060408201518160010190600262000e789291906200169e565b5060608201518160020160006101000a81548173ffffffffffffffffffffffffffffffffffffffff021916908373ffffffffffffffffffffffffffffffffffffffff160217905550505060066040518060800160405280600560ff16815260200173c00e94cb662c3520282e6f5717214004a7f2688873ffffffffffffffffffffffffffffffffffffffff1681526020016040518060400160405280610bb862ffffff1662ffffff168152602001610bb862ffffff1662ffffff1681525081526020018673ffffffffffffffffffffffffffffffffffffffff16815250908060018154018082558091505060019003906000526020600020906003020160009091909190915060008201518160000160006101000a81548160ff021916908360ff16021790555060208201518160000160016101000a81548173ffffffffffffffffffffffffffffffffffffffff021916908373ffffffffffffffffffffffffffffffffffffffff16021790555060408201518160010190600262000fff9291906200169e565b5060608201518160020160006101000a81548173ffffffffffffffffffffffffffffffffffffffff021916908373ffffffffffffffffffffffffffffffffffffffff160217905550505060066040518060800160405280600560ff168152602001739f8f72aa9304c8b593d555f12ef6589cc3a579a273ffffffffffffffffffffffffffffffffffffffff1681526020016040518060400160405280610bb862ffffff1662ffffff168152602001610bb862ffffff1662ffffff1681525081526020018673ffffffffffffffffffffffffffffffffffffffff16815250908060018154018082558091505060019003906000526020600020906003020160009091909190915060008201518160000160006101000a81548160ff021916908360ff16021790555060208201518160000160016101000a81548173ffffffffffffffffffffffffffffffffffffffff021916908373ffffffffffffffffffffffffffffffffffffffff160217905550604082015181600101906002620011869291906200169e565b5060608201518160020160006101000a81548173ffffffffffffffffffffffffffffffffffffffff021916908373ffffffffffffffffffffffffffffffffffffffff160217905550505060066040518060800160405280600a60ff168152602001736b3595068778dd592e39a122f4f5a5cf09c90fe273ffffffffffffffffffffffffffffffffffffffff1681526020016040518060400160405280610bb862ffffff1662ffffff168152602001610bb862ffffff1662ffffff1681525081526020018673ffffffffffffffffffffffffffffffffffffffff16815250908060018154018082558091505060019003906000526020600020906003020160009091909190915060008201518160000160006101000a81548160ff021916908360ff16021790555060208201518160000160016101000a81548173ffffffffffffffffffffffffffffffffffffffff021916908373ffffffffffffffffffffffffffffffffffffffff1602179055506040820151816001019060026200130d9291906200169e565b5060608201518160020160006101000a81548173ffffffffffffffffffffffffffffffffffffffff021916908373ffffffffffffffffffffffffffffffffffffffff160217905550505060066040518060800160405280600a60ff168152602001734d224452801aced8b2f0aebe155379bb5d59438173ffffffffffffffffffffffffffffffffffffffff1681526020016040518060400160405280610bb862ffffff1662ffffff168152602001610bb862ffffff1662ffffff1681525081526020018673ffffffffffffffffffffffffffffffffffffffff16815250908060018154018082558091505060019003906000526020600020906003020160009091909190915060008201518160000160006101000a81548160ff021916908360ff16021790555060208201518160000160016101000a81548173ffffffffffffffffffffffffffffffffffffffff021916908373ffffffffffffffffffffffffffffffffffffffff160217905550604082015181600101906002620014949291906200169e565b5060608201518160020160006101000a81548173ffffffffffffffffffffffffffffffffffffffff021916908373ffffffffffffffffffffffffffffffffffffffff160217905550505060066040518060800160405280600a60ff16815260200173d533a949740bb3306d119cc777fa900ba034cd5273ffffffffffffffffffffffffffffffffffffffff1681526020016040518060400160405280610bb862ffffff1662ffffff16815260200161271062ffffff1681525081526020018673ffffffffffffffffffffffffffffffffffffffff16815250908060018154018082558091505060019003906000526020600020906003020160009091909190915060008201518160000160006101000a81548160ff021916908360ff16021790555060208201518160000160016101000a81548173ffffffffffffffffffffffffffffffffffffffff021916908373ffffffffffffffffffffffffffffffffffffffff160217905550604082015181600101906002620016169291906200169e565b5060608201518160020160006101000a81548173ffffffffffffffffffffffffffffffffffffffff021916908373ffffffffffffffffffffffffffffffffffffffff160217905550505050505050505062001b34565b600033905090565b610cc38062005f5883390190565b610c998062006c1b83390190565b6112ff80620078b483390190565b826002600901600a90048101928215620017325791602002820160005b83821115620016ff57835183826101000a81548162ffffff021916908362ffffff1602179055509260200192600301602081600201049283019260010302620016bb565b8015620017305782816101000a81549062ffffff0219169055600301602081600201049283019260010302620016ff565b505b50905062001741919062001745565b5090565b5b808211156200176057600081600090555060010162001746565b5090565b60006200177b620017758462001a27565b620019f3565b9050828152602081018484840111156200179457600080fd5b620017a184828562001ab7565b509392505050565b600081519050620017ba8162001b00565b92915050565b600082601f830112620017d257600080fd5b8151620017e484826020860162001764565b91505092915050565b600081519050620017fe8162001b1a565b92915050565b60008060008060008060c087890312156200181e57600080fd5b60006200182e89828a01620017a9565b96505060206200184189828a01620017a9565b95505060406200185489828a01620017a9565b94505060606200186789828a01620017a9565b935050608087015167ffffffffffffffff8111156200188557600080fd5b6200189389828a01620017c0565b92505060a087015167ffffffffffffffff811115620018b157600080fd5b620018bf89828a01620017c0565b9150509295509295509295565b600060208284031215620018df57600080fd5b6000620018ef84828501620017ed565b91505092915050565b620019038162001a76565b82525050565b6000620019168262001a5a565b62001922818562001a65565b93506200193481856020860162001ab7565b6200193f8162001aef565b840191505092915050565b620019558162001aaa565b82525050565b6000606082019050620019726000830186620018f8565b620019816020830185620018f8565b620019906040830184620018f8565b949350505050565b6000608082019050620019af6000830187620018f8565b8181036020830152620019c3818662001909565b9050620019d460408301856200194a565b8181036060830152620019e8818462001909565b905095945050505050565b6000604051905081810181811067ffffffffffffffff8211171562001a1d5762001a1c62001aed565b5b8060405250919050565b600067ffffffffffffffff82111562001a455762001a4462001aed565b5b601f19601f8301169050602081019050919050565b600081519050919050565b600082825260208201905092915050565b600062001a838262001a8a565b9050919050565b600073ffffffffffffffffffffffffffffffffffffffff82169050919050565b600060ff82169050919050565b60005b8381101562001ad757808201518184015260208101905062001aba565b8381111562001ae7576000848401525b50505050565bfe5b6000601f19601f8301169050919050565b62001b0b8162001a76565b811462001b1757600080fd5b50565b62001b258162001aaa565b811462001b3157600080fd5b50565b60805160601c60a05160601c60c05160601c60e05160601c6101005160601c6101205160601c61438762001bd16000398061160e52508061078b528061092f528061147852806120b352806122145250806107655280610909528061182552806118e1528061208d52806122b852508061204852806129d25280612db65280612e9452505080610ad652806119a75280611a3152506143876000f3fe608060405234801561001057600080fd5b50600436106101545760003560e01c806306fdde031461015957806313a7e54e146101775780631da98960146101935780633d956691146101b157806360ebbf81146101cf578063715018a6146101ed5780637805d4be146101f7578063782fa9c9146102275780638da5cb5b146102435780638e96347b1461026157806395d89b411461027f57806398d5fdca1461029d57806399a5d747146102bb57806399d50d5d146102ec578063b75979141461030a578063ba25d94414610328578063c20120b514610346578063ced72f8714610364578063d96a094a14610383578063e43e38031461039f578063e4849b32146103cf578063e7d015f2146103eb578063ea4c1b4514610409578063f2fde38b14610413578063f3ccaac01461042f578063f510d9081461044d578063f76f691c14610457578063fa2dcd9314610487575b600080fd5b610161610491565b60405161016e9190613de2565b60405180910390f35b610191600480360381019061018c91906136d8565b6104ce565b005b61019b6105a3565b6040516101a89190613de2565b60405180910390f35b6101b96105c3565b6040516101c69190613ec2565b60405180910390f35b6101d76105c9565b6040516101e49190613c78565b60405180910390f35b6101f56105ef565b005b610211600480360381019061020c91906135f8565b61075c565b60405161021e9190613ec2565b60405180910390f35b610241600480360381019061023c919061369c565b61082f565b005b61024b610bee565b6040516102589190613c78565b60405180910390f35b610269610c17565b6040516102769190613ec2565b60405180910390f35b610287610c1d565b6040516102949190613de2565b60405180910390f35b6102a5610c5a565b6040516102b29190613ec2565b60405180910390f35b6102d560048036038101906102d0919061364a565b610e32565b6040516102e3929190613f06565b60405180910390f35b6102f4610e96565b6040516103019190613d8a565b60405180910390f35b61031261102d565b60405161031f9190613ec2565b60405180910390f35b610330611293565b60405161033d9190613de2565b60405180910390f35b61034e6112b3565b60405161035b9190613dac565b60405180910390f35b61036c6112ca565b60405161037a929190613f06565b60405180910390f35b61039d6004803603810190610398919061364a565b6112ee565b005b6103b960048036038101906103b49190613621565b61160a565b6040516103c69190613ec2565b60405180910390f35b6103e960048036038101906103e4919061364a565b6116cc565b005b6103f3611a2f565b6040516104009190613dc7565b60405180910390f35b610411611a53565b005b61042d60048036038101906104289190613593565b611d05565b005b610437611ef7565b6040516104449190613de2565b60405180910390f35b610455611f17565b005b610471600480360381019061046c91906135bc565b612084565b60405161047e9190613ec2565b60405180910390f35b61048f612163565b005b60606040518060400160405280600581526020017f496e646578000000000000000000000000000000000000000000000000000000815250905090565b6104d661238b565b73ffffffffffffffffffffffffffffffffffffffff166104f4610bee565b73ffffffffffffffffffffffffffffffffffffffff161461057d576040517f08c379a00000000000000000000000000000000000000000000000000000000081526004018080602001828103825260208152602001807f4f776e61626c653a2063616c6c6572206973206e6f7420746865206f776e657281525060200191505060405180910390fd5b81600260146101000a81548160ff021916908360ff160217905550806003819055505050565b606060405180606001604052806028815260200161427f60289139905090565b60085481565b600260009054906101000a900473ffffffffffffffffffffffffffffffffffffffff1681565b6105f761238b565b73ffffffffffffffffffffffffffffffffffffffff16610615610bee565b73ffffffffffffffffffffffffffffffffffffffff161461069e576040517f08c379a00000000000000000000000000000000000000000000000000000000081526004018080602001828103825260208152602001807f4f776e61626c653a2063616c6c6572206973206e6f7420746865206f776e657281525060200191505060405180910390fd5b600073ffffffffffffffffffffffffffffffffffffffff1660008054906101000a900473ffffffffffffffffffffffffffffffffffffffff1673ffffffffffffffffffffffffffffffffffffffff167f8be0079c531659141344cd1fd0a4f28419497f9722a3daafe3b4186f6b6457e060405160405180910390a360008060006101000a81548173ffffffffffffffffffffffffffffffffffffffff021916908373ffffffffffffffffffffffffffffffffffffffff160217905550565b600081610789577f00000000000000000000000000000000000000000000000000000000000000006107ab565b7f00000000000000000000000000000000000000000000000000000000000000005b73ffffffffffffffffffffffffffffffffffffffff166334ce998a6040518163ffffffff1660e01b815260040160206040518083038186803b1580156107f057600080fd5b505afa158015610804573d6000803e3d6000fd5b505050506040513d601f19601f820116820180604052508101906108289190613673565b9050919050565b600260015414156108a8576040517f08c379a000000000000000000000000000000000000000000000000000000000815260040180806020018281038252601f8152602001807f5265656e7472616e637947756172643a207265656e7472616e742063616c6c0081525060200191505060405180910390fd5b6002600181905550600560009054906101000a900460ff1615610900576040517f08c379a00000000000000000000000000000000000000000000000000000000081526004016108f790613e44565b60405180910390fd5b60008161092d577f000000000000000000000000000000000000000000000000000000000000000061094f565b7f00000000000000000000000000000000000000000000000000000000000000005b9050828173ffffffffffffffffffffffffffffffffffffffff166334ce998a6040518163ffffffff1660e01b815260040160206040518083038186803b15801561099857600080fd5b505afa1580156109ac573d6000803e3d6000fd5b505050506040513d601f19601f820116820180604052508101906109d09190613673565b10158015610a665750828173ffffffffffffffffffffffffffffffffffffffff1663e65896c9336040518263ffffffff1660e01b8152600401610a139190613c93565b60206040518083038186803b158015610a2b57600080fd5b505afa158015610a3f573d6000803e3d6000fd5b505050506040513d601f19601f82011682018060405250810190610a639190613673565b10155b610aa5576040517f08c379a0000000000000000000000000000000000000000000000000000000008152600401610a9c90613e24565b60405180910390fd5b600082610ad457600260009054906101000a900473ffffffffffffffffffffffffffffffffffffffff16610af6565b7f00000000000000000000000000000000000000000000000000000000000000005b9050610b03813386612393565b8173ffffffffffffffffffffffffffffffffffffffff1663cca5e4b1338660006040518463ffffffff1660e01b8152600401610b4193929190613cae565b600060405180830381600087803b158015610b5b57600080fd5b505af1158015610b6f573d6000803e3d6000fd5b505050508173ffffffffffffffffffffffffffffffffffffffff1663f8c493d68560006040518363ffffffff1660e01b8152600401610baf929190613edd565b600060405180830381600087803b158015610bc957600080fd5b505af1158015610bdd573d6000803e3d6000fd5b505050505050600180819055505050565b60008060009054906101000a900473ffffffffffffffffffffffffffffffffffffffff16905090565b60095481565b60606040518060400160405280600381526020017f5649440000000000000000000000000000000000000000000000000000000000815250905090565b6000806000905060005b600680549050811015610e2a57600060068281548110610c8057fe5b90600052602060002090600302016040518060800160405290816000820160009054906101000a900460ff1660ff1660ff1681526020016000820160019054906101000a900473ffffffffffffffffffffffffffffffffffffffff1673ffffffffffffffffffffffffffffffffffffffff1673ffffffffffffffffffffffffffffffffffffffff16815260200160018201600280602002604051908101604052809291908260028015610d72576020028201916000905b82829054906101000a900462ffffff1662ffffff1681526020019060030190602082600201049283019260010382029150808411610d375790505b505050505081526020016002820160009054906101000a900473ffffffffffffffffffffffffffffffffffffffff1673ffffffffffffffffffffffffffffffffffffffff1673ffffffffffffffffffffffffffffffffffffffff16815250509050610e1a610e0b6064610dfd846000015160ff16610def8661160a565b61259490919063ffffffff16565b61261a90919063ffffffff16565b846126a390919063ffffffff16565b9250508080600101915050610c64565b508091505090565b6000806000610e70600260149054906101000a900460ff1660ff16610e626003548761261a90919063ffffffff16565b61259490919063ffffffff16565b90506000610e87828661272b90919063ffffffff16565b90508181935093505050915091565b60606006805480602002602001604051908101604052809291908181526020016000905b8282101561102457838290600052602060002090600302016040518060800160405290816000820160009054906101000a900460ff1660ff1660ff1681526020016000820160019054906101000a900473ffffffffffffffffffffffffffffffffffffffff1673ffffffffffffffffffffffffffffffffffffffff1673ffffffffffffffffffffffffffffffffffffffff16815260200160018201600280602002604051908101604052809291908260028015610fb6576020028201916000905b82829054906101000a900462ffffff1662ffffff1681526020019060030190602082600201049283019260010382029150808411610f7b5790505b505050505081526020016002820160009054906101000a900473ffffffffffffffffffffffffffffffffffffffff1673ffffffffffffffffffffffffffffffffffffffff1673ffffffffffffffffffffffffffffffffffffffff168152505081526020019060010190610eba565b50505050905090565b60008060005b60068054905081101561128b5760006006828154811061104f57fe5b90600052602060002090600302016040518060800160405290816000820160009054906101000a900460ff1660ff1660ff1681526020016000820160019054906101000a900473ffffffffffffffffffffffffffffffffffffffff1673ffffffffffffffffffffffffffffffffffffffff1673ffffffffffffffffffffffffffffffffffffffff16815260200160018201600280602002604051908101604052809291908260028015611141576020028201916000905b82829054906101000a900462ffffff1662ffffff16815260200190600301906020826002010492830192600103820291508084116111065790505b505050505081526020016002820160009054906101000a900473ffffffffffffffffffffffffffffffffffffffff1673ffffffffffffffffffffffffffffffffffffffff1673ffffffffffffffffffffffffffffffffffffffff16815250509050600061124b6111b08361160a565b836020015173ffffffffffffffffffffffffffffffffffffffff166370a08231306040518263ffffffff1660e01b81526004016111ed9190613c78565b60206040518083038186803b15801561120557600080fd5b505afa158015611219573d6000803e3d6000fd5b505050506040513d601f19601f8201168201806040525081019061123d9190613673565b61259490919063ffffffff16565b905061127a61126b670de0b6b3a76400008361261a90919063ffffffff16565b856126a390919063ffffffff16565b935050508080600101915050611033565b508091505090565b60606040518060e0016040528060ab81526020016142a760ab9139905090565b6000600560009054906101000a900460ff16905090565b600080600260149054906101000a900460ff166003548160ff169150915091509091565b60026001541415611367576040517f08c379a000000000000000000000000000000000000000000000000000000000815260040180806020018281038252601f8152602001807f5265656e7472616e637947756172643a207265656e7472616e742063616c6c0081525060200191505060405180910390fd5b6002600181905550600560009054906101000a900460ff16156113bf576040517f08c379a00000000000000000000000000000000000000000000000000000000081526004016113b690613e44565b60405180910390fd5b6000806113cb83610e32565b915091506000811180156113df5750600082115b61141e576040517f08c379a000000000000000000000000000000000000000000000000000000000815260040161141590613e04565b60405180910390fd5b6000611428610c5a565b90506000611459670de0b6b3a764000061144b848661259490919063ffffffff16565b61261a90919063ffffffff16565b9050611470816009546126a390919063ffffffff16565b6009819055507f000000000000000000000000000000000000000000000000000000000000000073ffffffffffffffffffffffffffffffffffffffff1663cca5e4b1338560016040518463ffffffff1660e01b81526004016114d493929190613cae565b600060405180830381600087803b1580156114ee57600080fd5b505af1158015611502573d6000803e3d6000fd5b50505050611560600260009054906101000a900473ffffffffffffffffffffffffffffffffffffffff16333061155b670de0b6b3a764000061154d888c61259490919063ffffffff16565b61261a90919063ffffffff16565b6127ae565b6115c1600260009054906101000a900473ffffffffffffffffffffffffffffffffffffffff163061158f610bee565b6115bc671bc16d674ec800006115ae888b61259490919063ffffffff16565b61261a90919063ffffffff16565b6127ae565b7fc032f62758cac23a902e648ab54b6825665b9bc19e7cd0a8ab915cbf3eea4fa03382856040516115f493929190613ce5565b60405180910390a1505050506001808190555050565b60007f000000000000000000000000000000000000000000000000000000000000000073ffffffffffffffffffffffffffffffffffffffff1663ae5621b88360200151846040015185606001516040518463ffffffff1660e01b815260040161167593929190613d1c565b60206040518083038186803b15801561168d57600080fd5b505afa1580156116a1573d6000803e3d6000fd5b505050506040513d601f19601f820116820180604052508101906116c59190613673565b9050919050565b60026001541415611745576040517f08c379a000000000000000000000000000000000000000000000000000000000815260040180806020018281038252601f8152602001807f5265656e7472616e637947756172643a207265656e7472616e742063616c6c0081525060200191505060405180910390fd5b6002600181905550600560009054906101000a900460ff161561179d576040517f08c379a000000000000000000000000000000000000000000000000000000000815260040161179490613e44565b60405180910390fd5b6000806117a983610e32565b915091506000811180156117bd5750600082115b6117fc576040517f08c379a00000000000000000000000000000000000000000000000000000000081526004016117f390613e64565b60405180910390fd5b6000611806610c5a565b905061181d846008546126a390919063ffffffff16565b6008819055507f000000000000000000000000000000000000000000000000000000000000000073ffffffffffffffffffffffffffffffffffffffff1663cca5e4b13361188d670de0b6b3a764000061187f868861259490919063ffffffff16565b61261a90919063ffffffff16565b60016040518463ffffffff1660e01b81526004016118ad93929190613cae565b600060405180830381600087803b1580156118c757600080fd5b505af11580156118db573d6000803e3d6000fd5b505050507f000000000000000000000000000000000000000000000000000000000000000073ffffffffffffffffffffffffffffffffffffffff1663cca5e4b1611923610bee565b611950670de0b6b3a7640000611942868961259490919063ffffffff16565b61261a90919063ffffffff16565b60016040518463ffffffff1660e01b815260040161197093929190613d53565b600060405180830381600087803b15801561198a57600080fd5b505af115801561199e573d6000803e3d6000fd5b505050506119ce7f00000000000000000000000000000000000000000000000000000000000000003330876127ae565b7fc779ed4173ee0a3293a6575326fb4fcb5c81023bbc481cf910100c0fbe836e3333611a0a6119fb610c5a565b8561259490919063ffffffff16565b84604051611a1a93929190613ce5565b60405180910390a15050506001808190555050565b7f000000000000000000000000000000000000000000000000000000000000000081565b611a5b61238b565b73ffffffffffffffffffffffffffffffffffffffff16611a79610bee565b73ffffffffffffffffffffffffffffffffffffffff1614611b02576040517f08c379a00000000000000000000000000000000000000000000000000000000081526004018080602001828103825260208152602001807f4f776e61626c653a2063616c6c6572206973206e6f7420746865206f776e657281525060200191505060405180910390fd5b60016007600082825401925050819055506001600680549050036007541115611b2e5760006007819055505b6000600660075481548110611b3f57fe5b90600052602060002090600302016040518060800160405290816000820160009054906101000a900460ff1660ff1660ff1681526020016000820160019054906101000a900473ffffffffffffffffffffffffffffffffffffffff1673ffffffffffffffffffffffffffffffffffffffff1673ffffffffffffffffffffffffffffffffffffffff16815260200160018201600280602002604051908101604052809291908260028015611c31576020028201916000905b82829054906101000a900462ffffff1662ffffff1681526020019060030190602082600201049283019260010382029150808411611bf65790505b505050505081526020016002820160009054906101000a900473ffffffffffffffffffffffffffffffffffffffff1673ffffffffffffffffffffffffffffffffffffffff1673ffffffffffffffffffffffffffffffffffffffff168152505090506000611cc36064611cb5846000015160ff1660095461259490919063ffffffff16565b61261a90919063ffffffff16565b90506000611cd08361160a565b90506000821115611ce757611ce68383836129ce565b5b60006008541115611d0057611cff8360085483612db2565b5b505050565b611d0d61238b565b73ffffffffffffffffffffffffffffffffffffffff16611d2b610bee565b73ffffffffffffffffffffffffffffffffffffffff1614611db4576040517f08c379a00000000000000000000000000000000000000000000000000000000081526004018080602001828103825260208152602001807f4f776e61626c653a2063616c6c6572206973206e6f7420746865206f776e657281525060200191505060405180910390fd5b600073ffffffffffffffffffffffffffffffffffffffff168173ffffffffffffffffffffffffffffffffffffffff161415611e3a576040517f08c379a00000000000000000000000000000000000000000000000000000000081526004018080602001828103825260268152602001806141f76026913960400191505060405180910390fd5b8073ffffffffffffffffffffffffffffffffffffffff1660008054906101000a900473ffffffffffffffffffffffffffffffffffffffff1673ffffffffffffffffffffffffffffffffffffffff167f8be0079c531659141344cd1fd0a4f28419497f9722a3daafe3b4186f6b6457e060405160405180910390a3806000806101000a81548173ffffffffffffffffffffffffffffffffffffffff021916908373ffffffffffffffffffffffffffffffffffffffff16021790555050565b606060405180608001604052806041815260200161421d60419139905090565b611f1f61238b565b73ffffffffffffffffffffffffffffffffffffffff16611f3d610bee565b73ffffffffffffffffffffffffffffffffffffffff1614611fc6576040517f08c379a00000000000000000000000000000000000000000000000000000000081526004018080602001828103825260208152602001807f4f776e61626c653a2063616c6c6572206973206e6f7420746865206f776e657281525060200191505060405180910390fd5b6001600560006101000a81548160ff021916908315150217905550600061201e600354612010600260149054906101000a900460ff1660ff1660095461259490919063ffffffff16565b61261a90919063ffffffff16565b9050612081600260009054906101000a900473ffffffffffffffffffffffffffffffffffffffff167f000000000000000000000000000000000000000000000000000000000000000061207c846009546126a390919063ffffffff16565b6131c1565b50565b6000816120b1577f00000000000000000000000000000000000000000000000000000000000000006120d3565b7f00000000000000000000000000000000000000000000000000000000000000005b73ffffffffffffffffffffffffffffffffffffffff1663e65896c9846040518263ffffffff1660e01b815260040161210b9190613c78565b60206040518083038186803b15801561212357600080fd5b505afa158015612137573d6000803e3d6000fd5b505050506040513d601f19601f8201168201806040525081019061215b9190613673565b905092915050565b61216b61238b565b73ffffffffffffffffffffffffffffffffffffffff16612189610bee565b73ffffffffffffffffffffffffffffffffffffffff1614612212576040517f08c379a00000000000000000000000000000000000000000000000000000000081526004018080602001828103825260208152602001807f4f776e61626c653a2063616c6c6572206973206e6f7420746865206f776e657281525060200191505060405180910390fd5b7f000000000000000000000000000000000000000000000000000000000000000073ffffffffffffffffffffffffffffffffffffffff1663f8c493d6612265600c54600b5461261a90919063ffffffff16565b60016040518363ffffffff1660e01b8152600401612284929190613edd565b600060405180830381600087803b15801561229e57600080fd5b505af11580156122b2573d6000803e3d6000fd5b505050507f000000000000000000000000000000000000000000000000000000000000000073ffffffffffffffffffffffffffffffffffffffff1663f8c493d6600a5460016040518363ffffffff1660e01b8152600401612314929190613edd565b600060405180830381600087803b15801561232e57600080fd5b505af1158015612342573d6000803e3d6000fd5b50505050600060098190555060006008819055506000600a819055506000600b819055506000600c819055506000600560006101000a81548160ff021916908315150217905550565b600033905090565b6000808473ffffffffffffffffffffffffffffffffffffffff1663a9059cbb60e01b8585604051602401808373ffffffffffffffffffffffffffffffffffffffff16815260200182815260200192505050604051602081830303815290604052907bffffffffffffffffffffffffffffffffffffffffffffffffffffffff19166020820180517bffffffffffffffffffffffffffffffffffffffffffffffffffffffff83818316178352505050506040518082805190602001908083835b602083106124745780518252602082019150602081019050602083039250612451565b6001836020036101000a0380198251168184511680821785525050505050509050019150506000604051808303816000865af19150503d80600081146124d6576040519150601f19603f3d011682016040523d82523d6000602084013e6124db565b606091505b509150915081801561251b575060008151148061251a575080806020019051602081101561250857600080fd5b81019080805190602001909291905050505b5b61258d576040517f08c379a00000000000000000000000000000000000000000000000000000000081526004018080602001828103825260028152602001807f535400000000000000000000000000000000000000000000000000000000000081525060200191505060405180910390fd5b5050505050565b6000808314156125a75760009050612614565b60008284029050828482816125b857fe5b041461260f576040517f08c379a000000000000000000000000000000000000000000000000000000000815260040180806020018281038252602181526020018061425e6021913960400191505060405180910390fd5b809150505b92915050565b6000808211612691576040517f08c379a000000000000000000000000000000000000000000000000000000000815260040180806020018281038252601a8152602001807f536166654d6174683a206469766973696f6e206279207a65726f00000000000081525060200191505060405180910390fd5b81838161269a57fe5b04905092915050565b600080828401905083811015612721576040517f08c379a000000000000000000000000000000000000000000000000000000000815260040180806020018281038252601b8152602001807f536166654d6174683a206164646974696f6e206f766572666c6f77000000000081525060200191505060405180910390fd5b8091505092915050565b6000828211156127a3576040517f08c379a000000000000000000000000000000000000000000000000000000000815260040180806020018281038252601e8152602001807f536166654d6174683a207375627472616374696f6e206f766572666c6f77000081525060200191505060405180910390fd5b818303905092915050565b6000808573ffffffffffffffffffffffffffffffffffffffff166323b872dd60e01b868686604051602401808473ffffffffffffffffffffffffffffffffffffffff1681526020018373ffffffffffffffffffffffffffffffffffffffff1681526020018281526020019350505050604051602081830303815290604052907bffffffffffffffffffffffffffffffffffffffffffffffffffffffff19166020820180517bffffffffffffffffffffffffffffffffffffffffffffffffffffffff83818316178352505050506040518082805190602001908083835b602083106128ad578051825260208201915060208101905060208303925061288a565b6001836020036101000a0380198251168184511680821785525050505050509050019150506000604051808303816000865af19150503d806000811461290f576040519150601f19603f3d011682016040523d82523d6000602084013e612914565b606091505b50915091508180156129545750600081511480612953575080806020019051602081101561294157600080fd5b81019080805190602001909291905050505b5b6129c6576040517f08c379a00000000000000000000000000000000000000000000000000000000081526004018080602001828103825260038152602001807f535446000000000000000000000000000000000000000000000000000000000081525060200191505060405180910390fd5b505050505050565b60007f000000000000000000000000000000000000000000000000000000000000000090506000612a2283612a14670de0b6b3a76400008761259490919063ffffffff16565b61261a90919063ffffffff16565b90506000612a41612a32836133c2565b8361272b90919063ffffffff16565b905060008073ffffffffffffffffffffffffffffffffffffffff16876060015173ffffffffffffffffffffffffffffffffffffffff161415612be1578373ffffffffffffffffffffffffffffffffffffffff1663414bf389604051806101000160405280600260009054906101000a900473ffffffffffffffffffffffffffffffffffffffff1673ffffffffffffffffffffffffffffffffffffffff1681526020018a6020015173ffffffffffffffffffffffffffffffffffffffff1681526020018a60400151600060028110612b1457fe5b602002015162ffffff1681526020013073ffffffffffffffffffffffffffffffffffffffff168152602001428152602001868152602001858152602001600073ffffffffffffffffffffffffffffffffffffffff168152506040518263ffffffff1660e01b8152600401612b889190613ea6565b602060405180830381600087803b158015612ba257600080fd5b505af1158015612bb6573d6000803e3d6000fd5b505050506040513d601f19601f82011682018060405250810190612bda9190613673565b9050612d26565b8373ffffffffffffffffffffffffffffffffffffffff1663c04b8d596040518060a00160405280600260009054906101000a900473ffffffffffffffffffffffffffffffffffffffff168b60400151600060028110612c3c57fe5b60200201518c606001518d60400151600160028110612c5757fe5b60200201518e60200151604051602001612c75959493929190613c19565b60405160208183030381529060405281526020013073ffffffffffffffffffffffffffffffffffffffff168152602001428152602001868152602001858152506040518263ffffffff1660e01b8152600401612cd19190613e84565b602060405180830381600087803b158015612ceb57600080fd5b505af1158015612cff573d6000803e3d6000fd5b505050506040513d601f19601f82011682018060405250810190612d239190613673565b90505b612d53670de0b6b3a7640000612d45878461259490919063ffffffff16565b61261a90919063ffffffff16565b600b60008282540192505081905550612da3612d926064612d848a6000015160ff168961259490919063ffffffff16565b61261a90919063ffffffff16565b600c546126a390919063ffffffff16565b600c8190555050505050505050565b60007f000000000000000000000000000000000000000000000000000000000000000090506000612e1f6064612e11876000015160ff16612e03612df4610c5a565b8961259490919063ffffffff16565b61259490919063ffffffff16565b61261a90919063ffffffff16565b90506000612e36848361261a90919063ffffffff16565b90506000612e67670de0b6b3a7640000612e59878561259490919063ffffffff16565b61261a90919063ffffffff16565b90506000612e86612e77836133c2565b8361272b90919063ffffffff16565b90506000612eb989602001517f0000000000000000000000000000000000000000000000000000000000000000866131c1565b600073ffffffffffffffffffffffffffffffffffffffff16896060015173ffffffffffffffffffffffffffffffffffffffff161415613056578573ffffffffffffffffffffffffffffffffffffffff1663414bf3896040518061010001604052808c6020015173ffffffffffffffffffffffffffffffffffffffff168152602001600260009054906101000a900473ffffffffffffffffffffffffffffffffffffffff1673ffffffffffffffffffffffffffffffffffffffff1681526020018c60400151600060028110612f8957fe5b602002015162ffffff1681526020013073ffffffffffffffffffffffffffffffffffffffff168152602001428152602001878152602001858152602001600073ffffffffffffffffffffffffffffffffffffffff168152506040518263ffffffff1660e01b8152600401612ffd9190613ea6565b602060405180830381600087803b15801561301757600080fd5b505af115801561302b573d6000803e3d6000fd5b505050506040513d601f19601f8201168201806040525081019061304f9190613673565b905061319b565b8573ffffffffffffffffffffffffffffffffffffffff1663c04b8d596040518060a001604052808c602001518d6040015160016002811061309357fe5b60200201518e606001518f604001516000600281106130ae57fe5b6020020151600260009054906101000a900473ffffffffffffffffffffffffffffffffffffffff166040516020016130ea959493929190613c19565b60405160208183030381529060405281526020013073ffffffffffffffffffffffffffffffffffffffff168152602001428152602001878152602001858152506040518263ffffffff1660e01b81526004016131469190613e84565b602060405180830381600087803b15801561316057600080fd5b505af1158015613174573d6000803e3d6000fd5b505050506040513d601f19601f820116820180604052508101906131989190613673565b90505b6131b081600a546126a390919063ffffffff16565b600a81905550505050505050505050565b6000808473ffffffffffffffffffffffffffffffffffffffff1663095ea7b360e01b8585604051602401808373ffffffffffffffffffffffffffffffffffffffff16815260200182815260200192505050604051602081830303815290604052907bffffffffffffffffffffffffffffffffffffffffffffffffffffffff19166020820180517bffffffffffffffffffffffffffffffffffffffffffffffffffffffff83818316178352505050506040518082805190602001908083835b602083106132a2578051825260208201915060208101905060208303925061327f565b6001836020036101000a0380198251168184511680821785525050505050509050019150506000604051808303816000865af19150503d8060008114613304576040519150601f19603f3d011682016040523d82523d6000602084013e613309565b606091505b50915091508180156133495750600081511480613348575080806020019051602081101561333657600080fd5b81019080805190602001909291905050505b5b6133bb576040517f08c379a00000000000000000000000000000000000000000000000000000000081526004018080602001828103825260028152602001807f534100000000000000000000000000000000000000000000000000000000000081525060200191505060405180910390fd5b5050505050565b600061341060035461340260026133f4600260149054906101000a900460ff1660ff168761259490919063ffffffff16565b61261a90919063ffffffff16565b61261a90919063ffffffff16565b9050919050565b600061342a61342584613f60565b613f2f565b9050808285602086028201111561344057600080fd5b60005b858110156134705781613456888261353f565b845260208401935060208301925050600181019050613443565b5050509392505050565b60008135905061348981614183565b92915050565b600082601f8301126134a057600080fd5b60026134ad848285613417565b91505092915050565b6000813590506134c58161419a565b92915050565b600060a082840312156134dd57600080fd5b6134e76080613f2f565b905060006134f78482850161357e565b600083015250602061350b8482850161347a565b602083015250604061351f8482850161348f565b60408301525060806135338482850161347a565b60608301525092915050565b60008135905061354e816141b1565b92915050565b600081359050613563816141c8565b92915050565b600081519050613578816141c8565b92915050565b60008135905061358d816141df565b92915050565b6000602082840312156135a557600080fd5b60006135b38482850161347a565b91505092915050565b600080604083850312156135cf57600080fd5b60006135dd8582860161347a565b92505060206135ee858286016134b6565b9150509250929050565b60006020828403121561360a57600080fd5b6000613618848285016134b6565b91505092915050565b600060a0828403121561363357600080fd5b6000613641848285016134cb565b91505092915050565b60006020828403121561365c57600080fd5b600061366a84828501613554565b91505092915050565b60006020828403121561368557600080fd5b600061369384828501613569565b91505092915050565b600080604083850312156136af57600080fd5b60006136bd85828601613554565b92505060206136ce858286016134b6565b9150509250929050565b600080604083850312156136eb57600080fd5b60006136f98582860161357e565b925050602061370a85828601613554565b9150509250929050565b60006137208383613b62565b60a08301905092915050565b60006137388383613bc6565b60208301905092915050565b61374d81614093565b82525050565b61375c8161402f565b82525050565b61376b8161402f565b82525050565b61378261377d8261402f565b614120565b82525050565b600061379382613fa0565b61379d8185613fe6565b93506137a883613f86565b8060005b838110156137d95781516137c08882613714565b97506137cb83613fcc565b9250506001810190506137ac565b5085935050505092915050565b6137ef81613fab565b6137f98184613ff7565b925061380482613f96565b8060005b8381101561383557815161381c878261372c565b965061382783613fd9565b925050600181019050613808565b505050505050565b61384681613fab565b6138508184614002565b925061385b82613f96565b8060005b8381101561388c578151613873878261372c565b965061387e83613fd9565b92505060018101905061385f565b505050505050565b61389d81614041565b82525050565b60006138ae82613fb6565b6138b8818561400d565b93506138c88185602086016140ed565b6138d181614158565b840191505092915050565b6138e5816140a5565b82525050565b60006138f682613fc1565b613900818561401e565b93506139108185602086016140ed565b61391981614158565b840191505092915050565b600061393160168361401e565b91507f4e6f7420656e6f75676820746f6b656e732073656e74000000000000000000006000830152602082019050919050565b6000613971600f8361401e565b91507f4e6f7420656e6f756768206465627400000000000000000000000000000000006000830152602082019050919050565b60006139b160298361401e565b91507f50726f64756374206973206265696e6720736574746c65642c2074727920616760008301527f61696e206c6174657200000000000000000000000000000000000000000000006020830152604082019050919050565b6000613a1760198361401e565b91507f596f75206d7573742073656c6c206d6f726520746f6b656e73000000000000006000830152602082019050919050565b600060a0830160008301518482036000860152613a6782826138a3565b9150506020830151613a7c6020860182613753565b506040830151613a8f6040860182613bec565b506060830151613aa26060860182613bec565b506080830151613ab56080860182613bec565b508091505092915050565b61010082016000820151613ad76000850182613753565b506020820151613aea6020850182613753565b506040820151613afd6040850182613bc6565b506060820151613b106060850182613753565b506080820151613b236080850182613bec565b5060a0820151613b3660a0850182613bec565b5060c0820151613b4960c0850182613bec565b5060e0820151613b5c60e0850182613bb7565b50505050565b60a082016000820151613b786000850182613c0a565b506020820151613b8b6020850182613753565b506040820151613b9e60408501826137e6565b506060820151613bb16080850182613753565b50505050565b613bc08161404d565b82525050565b613bcf8161406d565b82525050565b613be6613be18261406d565b614144565b82525050565b613bf58161407c565b82525050565b613c048161407c565b82525050565b613c1381614086565b82525050565b6000613c258288613771565b601482019150613c358287613bd5565b600382019150613c458286613771565b601482019150613c558285613bd5565b600382019150613c658284613771565b6014820191508190509695505050505050565b6000602082019050613c8d6000830184613762565b92915050565b6000602082019050613ca86000830184613744565b92915050565b6000606082019050613cc36000830186613744565b613cd06020830185613bfb565b613cdd6040830184613894565b949350505050565b6000606082019050613cfa6000830186613744565b613d076020830185613bfb565b613d146040830184613bfb565b949350505050565b6000608082019050613d316000830186613762565b613d3e602083018561383d565b613d4b6060830184613762565b949350505050565b6000606082019050613d686000830186613762565b613d756020830185613bfb565b613d826040830184613894565b949350505050565b60006020820190508181036000830152613da48184613788565b905092915050565b6000602082019050613dc16000830184613894565b92915050565b6000602082019050613ddc60008301846138dc565b92915050565b60006020820190508181036000830152613dfc81846138eb565b905092915050565b60006020820190508181036000830152613e1d81613924565b9050919050565b60006020820190508181036000830152613e3d81613964565b9050919050565b60006020820190508181036000830152613e5d816139a4565b9050919050565b60006020820190508181036000830152613e7d81613a0a565b9050919050565b60006020820190508181036000830152613e9e8184613a4a565b905092915050565b600061010082019050613ebc6000830184613ac0565b92915050565b6000602082019050613ed76000830184613bfb565b92915050565b6000604082019050613ef26000830185613bfb565b613eff6020830184613894565b9392505050565b6000604082019050613f1b6000830185613bfb565b613f286020830184613bfb565b9392505050565b6000604051905081810181811067ffffffffffffffff82111715613f5657613f55614156565b5b8060405250919050565b600067ffffffffffffffff821115613f7b57613f7a614156565b5b602082029050919050565b6000819050602082019050919050565b6000819050919050565b600081519050919050565b600060029050919050565b600081519050919050565b600081519050919050565b6000602082019050919050565b6000602082019050919050565b600082825260208201905092915050565b600081905092915050565b600081905092915050565b600082825260208201905092915050565b600082825260208201905092915050565b600061403a8261404d565b9050919050565b60008115159050919050565b600073ffffffffffffffffffffffffffffffffffffffff82169050919050565b600062ffffff82169050919050565b6000819050919050565b600060ff82169050919050565b600061409e826140c9565b9050919050565b60006140b0826140b7565b9050919050565b60006140c28261404d565b9050919050565b60006140d4826140db565b9050919050565b60006140e68261404d565b9050919050565b60005b8381101561410b5780820151818401526020810190506140f0565b8381111561411a576000848401525b50505050565b600061412b82614132565b9050919050565b600061413d82614176565b9050919050565b600061414f82614169565b9050919050565bfe5b6000601f19601f8301169050919050565b60008160e81b9050919050565b60008160601b9050919050565b61418c8161402f565b811461419757600080fd5b50565b6141a381614041565b81146141ae57600080fd5b50565b6141ba8161406d565b81146141c557600080fd5b50565b6141d18161407c565b81146141dc57600080fd5b50565b6141e881614086565b81146141f357600080fd5b5056fe4f776e61626c653a206e6577206f776e657220697320746865207a65726f206164647265737368747470733a2f2f63727970746f6c6f676f732e63632f6c6f676f732f706f6c796d6174682d6e6574776f726b2d706f6c792d6c6f676f2e706e673f763d303232536166654d6174683a206d756c7469706c69636174696f6e206f766572666c6f77566f696420496e646578202d2064697665727369667920796f757220696e766573746d656e74732e566f696420496e646578202d2064697665727369667920796f757220696e766573746d656e74732e20497420666561747572657320323020746f6b656e732066726f6d20556e697377617020616e6420616c6c6f777320796f7520746f2062757920616c6c206f66207468656d206174206f6e63652e20596f7520726563656976652056494420746f6b656e7320617320612070726f6f66206f662066756e6473206f776e657273686970a2646970667358221220dd31817eb8c00008f89aa3c0f9ed695baec211af34bff5e89ba67b854d5882c064736f6c6343000706003360806040526040516100109061007f565b604051809103906000f08015801561002c573d6000803e3d6000fd5b50600160006101000a81548173ffffffffffffffffffffffffffffffffffffffff021916908373ffffffffffffffffffffffffffffffffffffffff16021790555034801561007957600080fd5b5061008c565b6105688061075b83390190565b6106c08061009b6000396000f3fe608060405234801561001057600080fd5b50600436106100575760003560e01c806334ce998a1461005c578063cca5e4b11461007a578063e2842d79146100d4578063e65896c914610133578063f8c493d61461018b575b600080fd5b6100646101c5565b6040518082815260200191505060405180910390f35b6100d26004803603606081101561009057600080fd5b81019080803573ffffffffffffffffffffffffffffffffffffffff169060200190929190803590602001909291908035151590602001909291905050506101ce565b005b6100dc6102dd565b6040518080602001828103825283818151815260200191508051906020019060200280838360005b8381101561011f578082015181840152602081019050610104565b505050509050019250505060405180910390f35b6101756004803603602081101561014957600080fd5b81019080803573ffffffffffffffffffffffffffffffffffffffff169060200190929190505050610421565b6040518082815260200191505060405180910390f35b6101c3600480360360408110156101a157600080fd5b81019080803590602001909291908035151590602001909291905050506104ee565b005b60008054905090565b600160009054906101000a900473ffffffffffffffffffffffffffffffffffffffff1673ffffffffffffffffffffffffffffffffffffffff1663cca5e4b18484846040518463ffffffff1660e01b8152600401808473ffffffffffffffffffffffffffffffffffffffff16815260200183815260200182151581526020019350505050600060405180830381600087803b15801561026b57600080fd5b505af115801561027f573d6000803e3d6000fd5b505050507fbdbcd24495abd6f63a1ff87418df04429000c6f9d53015ef4d5c91f353d827428383604051808373ffffffffffffffffffffffffffffffffffffffff1681526020018281526020019250505060405180910390a1505050565b6060600160009054906101000a900473ffffffffffffffffffffffffffffffffffffffff1673ffffffffffffffffffffffffffffffffffffffff1663e2842d796040518163ffffffff1660e01b815260040160006040518083038186803b15801561034757600080fd5b505afa15801561035b573d6000803e3d6000fd5b505050506040513d6000823e3d601f19601f82011682018060405250602081101561038557600080fd5b81019080805160405193929190846401000000008211156103a557600080fd5b838201915060208201858111156103bb57600080fd5b82518660208202830111640100000000821117156103d857600080fd5b8083526020830192505050908051906020019060200280838360005b8381101561040f5780820151818401526020810190506103f4565b50505050905001604052505050905090565b6000600160009054906101000a900473ffffffffffffffffffffffffffffffffffffffff1673ffffffffffffffffffffffffffffffffffffffff1663e65896c9836040518263ffffffff1660e01b8152600401808273ffffffffffffffffffffffffffffffffffffffff16815260200191505060206040518083038186803b1580156104ac57600080fd5b505afa1580156104c0573d6000803e3d6000fd5b505050506040513d60208110156104d657600080fd5b81019080805190602001909291905050509050919050565b8015610514576105098260005461057f90919063ffffffff16565b600081905550610530565b6105298260005461060790919063ffffffff16565b6000819055505b7fe3a346931856fab43b7f9bcf4167ed53663e69d0195323a374d0f89a432d0f436000548383604051808481526020018381526020018215158152602001935050505060405180910390a15050565b6000808284019050838110156105fd576040517f08c379a000000000000000000000000000000000000000000000000000000000815260040180806020018281038252601b8152602001807f536166654d6174683a206164646974696f6e206f766572666c6f77000000000081525060200191505060405180910390fd5b8091505092915050565b60008282111561067f576040517f08c379a000000000000000000000000000000000000000000000000000000000815260040180806020018281038252601e8152602001807f536166654d6174683a207375627472616374696f6e206f766572666c6f77000081525060200191505060405180910390fd5b81830390509291505056fea26469706673582212204a33ecacfe95dfdd6fc7b3c256850d270b0b9b7010d2cf48428ea7cb7e29837164736f6c63430007060033608060405234801561001057600080fd5b50610548806100206000396000f3fe608060405234801561001057600080fd5b50600436106100415760003560e01c8063cca5e4b114610046578063e2842d79146100a0578063e65896c9146100ff575b600080fd5b61009e6004803603606081101561005c57600080fd5b81019080803573ffffffffffffffffffffffffffffffffffffffff16906020019092919080359060200190929190803515159060200190929190505050610157565b005b6100a8610222565b6040518080602001828103825283818151815260200191508051906020019060200280838360005b838110156100eb5780820151818401526020810190506100d0565b505050509050019250505060405180910390f35b6101416004803603602081101561011557600080fd5b81019080803573ffffffffffffffffffffffffffffffffffffffff1690602001909291905050506102b0565b6040518082815260200191505060405180910390f35b60008060008573ffffffffffffffffffffffffffffffffffffffff1673ffffffffffffffffffffffffffffffffffffffff16815260200190815260200160002054905081156101ba576101b383826102f890919063ffffffff16565b90506101d0565b6101cd838261038090919063ffffffff16565b90505b806000808673ffffffffffffffffffffffffffffffffffffffff1673ffffffffffffffffffffffffffffffffffffffff1681526020019081526020016000208190555061021c84610403565b50505050565b606060028054806020026020016040519081016040528092919081815260200182805480156102a657602002820191906000526020600020905b8160009054906101000a900473ffffffffffffffffffffffffffffffffffffffff1673ffffffffffffffffffffffffffffffffffffffff168152602001906001019080831161025c575b5050505050905090565b60008060008373ffffffffffffffffffffffffffffffffffffffff1673ffffffffffffffffffffffffffffffffffffffff168152602001908152602001600020549050919050565b600080828401905083811015610376576040517f08c379a000000000000000000000000000000000000000000000000000000000815260040180806020018281038252601b8152602001807f536166654d6174683a206164646974696f6e206f766572666c6f77000000000081525060200191505060405180910390fd5b8091505092915050565b6000828211156103f8576040517f08c379a000000000000000000000000000000000000000000000000000000000815260040180806020018281038252601e8152602001807f536166654d6174683a207375627472616374696f6e206f766572666c6f77000081525060200191505060405180910390fd5b818303905092915050565b600160008273ffffffffffffffffffffffffffffffffffffffff1673ffffffffffffffffffffffffffffffffffffffff16815260200190815260200160002060009054906101000a900460ff1661050f5760018060008373ffffffffffffffffffffffffffffffffffffffff1673ffffffffffffffffffffffffffffffffffffffff16815260200190815260200160002060006101000a81548160ff0219169083151502179055506002819080600181540180825580915050600190039060005260206000200160009091909190916101000a81548173ffffffffffffffffffffffffffffffffffffffff021916908373ffffffffffffffffffffffffffffffffffffffff1602179055505b5056fea26469706673582212203959871efe3a9e212aeec78cc26f3642dd8091beba1752abf674871417ded03e64736f6c63430007060033608060405234801561001057600080fd5b50604051610c99380380610c998339818101604052606081101561003357600080fd5b81019080805190602001909291908051906020019092919080519060200190929190505050826000806101000a81548173ffffffffffffffffffffffffffffffffffffffff021916908373ffffffffffffffffffffffffffffffffffffffff16021790555081600160006101000a81548173ffffffffffffffffffffffffffffffffffffffff021916908373ffffffffffffffffffffffffffffffffffffffff16021790555080600260006101000a81548173ffffffffffffffffffffffffffffffffffffffff021916908373ffffffffffffffffffffffffffffffffffffffff160217905550505050610b6d8061012c6000396000f3fe608060405234801561001057600080fd5b506004361061002b5760003560e01c8063ae5621b814610030575b600080fd5b6100d36004803603608081101561004657600080fd5b81019080803573ffffffffffffffffffffffffffffffffffffffff16906020019092919080604001906002806020026040519081016040528092919082600260200280828437600081840152601f19601f8201169050808301925050505050509192919290803573ffffffffffffffffffffffffffffffffffffffff1690602001909291905050506100e9565b6040518082815260200191505060405180910390f35b60008073ffffffffffffffffffffffffffffffffffffffff168273ffffffffffffffffffffffffffffffffffffffff16141561019f57600061015f600160009054906101000a900473ffffffffffffffffffffffffffffffffffffffff16868660006002811061015557fe5b602002015161025a565b905061019781670de0b6b3a764000087600160009054906101000a900473ffffffffffffffffffffffffffffffffffffffff1661041f565b915050610253565b60006101bd8386866001600281106101b357fe5b602002015161025a565b905060006101d582670de0b6b3a7640000888761041f565b90506000610217600160009054906101000a900473ffffffffffffffffffffffffffffffffffffffff16868860006002811061020d57fe5b602002015161025a565b90506000610249828488600160009054906101000a900473ffffffffffffffffffffffffffffffffffffffff1661041f565b9050809450505050505b9392505050565b60008060008054906101000a900473ffffffffffffffffffffffffffffffffffffffff1673ffffffffffffffffffffffffffffffffffffffff16631698ee828686866040518463ffffffff1660e01b8152600401808473ffffffffffffffffffffffffffffffffffffffff1681526020018373ffffffffffffffffffffffffffffffffffffffff1681526020018262ffffff168152602001935050505060206040518083038186803b15801561030f57600080fd5b505afa158015610323573d6000803e3d6000fd5b505050506040513d602081101561033957600080fd5b8101908080519060200190929190505050905060008173ffffffffffffffffffffffffffffffffffffffff16633850c7bd6040518163ffffffff1660e01b815260040160e06040518083038186803b15801561039457600080fd5b505afa1580156103a8573d6000803e3d6000fd5b505050506040513d60e08110156103be57600080fd5b8101908080519060200190929190805190602001909291908051906020019092919080519060200190929190805190602001909291908051906020019092919080519060200190929190505050505050505091505080925050509392505050565b60008061042b86610622565b90506fffffffffffffffffffffffffffffffff80168173ffffffffffffffffffffffffffffffffffffffff161161053c5760008173ffffffffffffffffffffffffffffffffffffffff168273ffffffffffffffffffffffffffffffffffffffff160290508373ffffffffffffffffffffffffffffffffffffffff168573ffffffffffffffffffffffffffffffffffffffff16106104fd576104f87801000000000000000000000000000000000000000000000000876fffffffffffffffffffffffffffffffff1683610a5d565b610534565b61053381876fffffffffffffffffffffffffffffffff167801000000000000000000000000000000000000000000000000610a5d565b5b925050610619565b600061057e8273ffffffffffffffffffffffffffffffffffffffff168373ffffffffffffffffffffffffffffffffffffffff1668010000000000000000610a5d565b90508373ffffffffffffffffffffffffffffffffffffffff168573ffffffffffffffffffffffffffffffffffffffff16106105e6576105e1700100000000000000000000000000000000876fffffffffffffffffffffffffffffffff1683610a5d565b610615565b61061481876fffffffffffffffffffffffffffffffff16700100000000000000000000000000000000610a5d565b5b9250505b50949350505050565b60008060008360020b12610639578260020b610641565b8260020b6000035b90507ffffffffffffffffffffffffffffffffffffffffffffffffffffffffffff2761860000360020b8111156106df576040517f08c379a00000000000000000000000000000000000000000000000000000000081526004018080602001828103825260018152602001807f540000000000000000000000000000000000000000000000000000000000000081525060200191505060405180910390fd5b60008060018316141561070357700100000000000000000000000000000000610715565b6ffffcb933bd6fad37aa2d162d1a5940015b70ffffffffffffffffffffffffffffffffff1690506000600283161461074f5760806ffff97272373d413259a46990580e213a8202901c90505b600060048316146107745760806ffff2e50f5f656932ef12357cf3c7fdcc8202901c90505b600060088316146107995760806fffe5caca7e10e4e61c3624eaa0941cd08202901c90505b600060108316146107be5760806fffcb9843d60f6159c9db58835c9266448202901c90505b600060208316146107e35760806fff973b41fa98c081472e6896dfb254c08202901c90505b600060408316146108085760806fff2ea16466c96a3843ec78b326b528618202901c90505b6000608083161461082d5760806ffe5dee046a99a2a811c461f1969c30538202901c90505b60006101008316146108535760806ffcbe86c7900a88aedcffc83b479aa3a48202901c90505b60006102008316146108795760806ff987a7253ac413176f2b074cf7815e548202901c90505b600061040083161461089f5760806ff3392b0822b70005940c7a398e4b70f38202901c90505b60006108008316146108c55760806fe7159475a2c29b7443b29c7fa6e889d98202901c90505b60006110008316146108eb5760806fd097f3bdfd2022b8845ad8f792aa58258202901c90505b60006120008316146109115760806fa9f746462d870fdf8a65dc1f90e061e58202901c90505b60006140008316146109375760806f70d869a156d2a1b890bb3df62baf32f78202901c90505b600061800083161461095d5760806f31be135f97d08fd981231505542fcfa68202901c90505b6000620100008316146109845760806f09aa508b5b7a84e1c677de54f3e99bc98202901c90505b6000620200008316146109aa5760806e5d6af8dedb81196699c329225ee6048202901c90505b6000620400008316146109cf5760806d2216e584f5fa1ea926041bedfe988202901c90505b6000620800008316146109f25760806b048a170391f7dc42444e8fa28202901c90505b60008460020b1315610a2b57807fffffffffffffffffffffffffffffffffffffffffffffffffffffffffffffffff81610a2757fe5b0490505b60006401000000008281610a3b57fe5b0614610a48576001610a4b565b60005b60ff16602082901c0192505050919050565b600080600080198587098587029250828110838203039150506000811415610a985760008411610a8c57600080fd5b83820492505050610b30565b808411610aa457600080fd5b600084868809905082811182039150808303925060008586600003169050808604955080840493506001818260000304019050808302841793506000600287600302189050808702600203810290508087026002038102905080870260020381029050808702600203810290508087026002038102905080870260020381029050808502955050505050505b939250505056fea2646970667358221220f3eb44a4de793a52cb4590303905922ce2e6e87017c369c9660e70b0c2c8994164736f6c6343000706003360806040523480156200001157600080fd5b50604051620012ff380380620012ff833981810160405281019062000037919062000225565b83600560006101000a81548173ffffffffffffffffffffffffffffffffffffffff021916908373ffffffffffffffffffffffffffffffffffffffff160217905550826002908051906020019062000090929190620000cf565b5081600360006101000a81548160ff021916908360ff1602179055508060049080519060200190620000c4929190620000cf565b5050505050620003d7565b828054600181600116156101000203166002900490600052602060002090601f01602090048101928262000107576000855562000153565b82601f106200012257805160ff191683800117855562000153565b8280016001018555821562000153579182015b828111156200015257825182559160200191906001019062000135565b5b50905062000162919062000166565b5090565b5b808211156200018157600081600090555060010162000167565b5090565b60006200019c6200019684620002f7565b620002c3565b905082815260208101848484011115620001b557600080fd5b620001c28482856200036b565b509392505050565b600081519050620001db81620003a3565b92915050565b600082601f830112620001f357600080fd5b81516200020584826020860162000185565b91505092915050565b6000815190506200021f81620003bd565b92915050565b600080600080608085870312156200023c57600080fd5b60006200024c87828801620001ca565b945050602085015167ffffffffffffffff8111156200026a57600080fd5b6200027887828801620001e1565b93505060406200028b878288016200020e565b925050606085015167ffffffffffffffff811115620002a957600080fd5b620002b787828801620001e1565b91505092959194509250565b6000604051905081810181811067ffffffffffffffff82111715620002ed57620002ec620003a1565b5b8060405250919050565b600067ffffffffffffffff821115620003155762000314620003a1565b5b601f19601f8301169050602081019050919050565b600062000337826200033e565b9050919050565b600073ffffffffffffffffffffffffffffffffffffffff82169050919050565b600060ff82169050919050565b60005b838110156200038b5780820151818401526020810190506200036e565b838111156200039b576000848401525b50505050565bfe5b620003ae816200032a565b8114620003ba57600080fd5b50565b620003c8816200035e565b8114620003d457600080fd5b50565b610f1880620003e76000396000f3fe608060405234801561001057600080fd5b50600436106100995760003560e01c806306fdde031461009e578063095ea7b3146100bc5780630cf1fd36146100ec57806323b872dd1461010a57806327e235e31461013a578063313ce5671461016a5780635c6581651461018857806370a08231146101b857806395d89b41146101e8578063a9059cbb14610206578063dd62ed3e14610236575b600080fd5b6100a6610266565b6040516100b39190610d67565b60405180910390f35b6100d660048036038101906100d19190610bb4565b610304565b6040516100e39190610d4c565b60405180910390f35b6100f46103f6565b6040516101019190610d31565b60405180910390f35b610124600480360381019061011f9190610b65565b61041c565b6040516101319190610d4c565b60405180910390f35b610154600480360381019061014f9190610b00565b6106e7565b6040516101619190610dc9565b60405180910390f35b6101726106ff565b60405161017f9190610de4565b60405180910390f35b6101a2600480360381019061019d9190610b29565b610712565b6040516101af9190610dc9565b60405180910390f35b6101d260048036038101906101cd9190610b00565b610737565b6040516101df9190610dc9565b60405180910390f35b6101f061077f565b6040516101fd9190610d67565b60405180910390f35b610220600480360381019061021b9190610bb4565b61081d565b60405161022d9190610d4c565b60405180910390f35b610250600480360381019061024b9190610b29565b610a4f565b60405161025d9190610dc9565b60405180910390f35b60028054600181600116156101000203166002900480601f0160208091040260200160405190810160405280929190818152602001828054600181600116156101000203166002900480156102fc5780601f106102d1576101008083540402835291602001916102fc565b820191906000526020600020905b8154815290600101906020018083116102df57829003601f168201915b505050505081565b600081600160003373ffffffffffffffffffffffffffffffffffffffff1673ffffffffffffffffffffffffffffffffffffffff16815260200190815260200160002060008573ffffffffffffffffffffffffffffffffffffffff1673ffffffffffffffffffffffffffffffffffffffff168152602001908152602001600020819055508273ffffffffffffffffffffffffffffffffffffffff163373ffffffffffffffffffffffffffffffffffffffff167f8c5be1e5ebec7d5bd14f71427d1e84f3dd0314c0f7b2291e5b200ac8c7c3b925846040516103e49190610dc9565b60405180910390a36001905092915050565b600560009054906101000a900473ffffffffffffffffffffffffffffffffffffffff1681565b600080600160008673ffffffffffffffffffffffffffffffffffffffff1673ffffffffffffffffffffffffffffffffffffffff16815260200190815260200160002060003373ffffffffffffffffffffffffffffffffffffffff1673ffffffffffffffffffffffffffffffffffffffff168152602001908152602001600020549050826000808773ffffffffffffffffffffffffffffffffffffffff1673ffffffffffffffffffffffffffffffffffffffff16815260200190815260200160002054101580156104ec5750828110155b61052b576040517f08c379a000000000000000000000000000000000000000000000000000000000815260040161052290610da9565b60405180910390fd5b826000808673ffffffffffffffffffffffffffffffffffffffff1673ffffffffffffffffffffffffffffffffffffffff16815260200190815260200160002060008282540192505081905550826000808773ffffffffffffffffffffffffffffffffffffffff1673ffffffffffffffffffffffffffffffffffffffff168152602001908152602001600020600082825403925050819055507fffffffffffffffffffffffffffffffffffffffffffffffffffffffffffffffff8110156106765782600160008773ffffffffffffffffffffffffffffffffffffffff1673ffffffffffffffffffffffffffffffffffffffff16815260200190815260200160002060003373ffffffffffffffffffffffffffffffffffffffff1673ffffffffffffffffffffffffffffffffffffffff168152602001908152602001600020600082825403925050819055505b8373ffffffffffffffffffffffffffffffffffffffff168573ffffffffffffffffffffffffffffffffffffffff167fddf252ad1be2c89b69c2b068fc378daa952ba7f163c4a11628f55a4df523b3ef856040516106d39190610dc9565b60405180910390a360019150509392505050565b60006020528060005260406000206000915090505481565b600360009054906101000a900460ff1681565b6001602052816000526040600020602052806000526040600020600091509150505481565b60008060008373ffffffffffffffffffffffffffffffffffffffff1673ffffffffffffffffffffffffffffffffffffffff168152602001908152602001600020549050919050565b60048054600181600116156101000203166002900480601f0160208091040260200160405190810160405280929190818152602001828054600181600116156101000203166002900480156108155780601f106107ea57610100808354040283529160200191610815565b820191906000526020600020905b8154815290600101906020018083116107f857829003601f168201915b505050505081565b6000600560009054906101000a900473ffffffffffffffffffffffffffffffffffffffff1673ffffffffffffffffffffffffffffffffffffffff163373ffffffffffffffffffffffffffffffffffffffff1614156108c657816000808573ffffffffffffffffffffffffffffffffffffffff1673ffffffffffffffffffffffffffffffffffffffff168152602001908152602001600020600082825401925050819055506109e0565b816000803373ffffffffffffffffffffffffffffffffffffffff1673ffffffffffffffffffffffffffffffffffffffff168152602001908152602001600020541015610947576040517f08c379a000000000000000000000000000000000000000000000000000000000815260040161093e90610d89565b60405180910390fd5b816000803373ffffffffffffffffffffffffffffffffffffffff1673ffffffffffffffffffffffffffffffffffffffff16815260200190815260200160002060008282540392505081905550816000808573ffffffffffffffffffffffffffffffffffffffff1673ffffffffffffffffffffffffffffffffffffffff168152602001908152602001600020600082825401925050819055505b8273ffffffffffffffffffffffffffffffffffffffff163373ffffffffffffffffffffffffffffffffffffffff167fddf252ad1be2c89b69c2b068fc378daa952ba7f163c4a11628f55a4df523b3ef84604051610a3d9190610dc9565b60405180910390a36001905092915050565b6000600160008473ffffffffffffffffffffffffffffffffffffffff1673ffffffffffffffffffffffffffffffffffffffff16815260200190815260200160002060008373ffffffffffffffffffffffffffffffffffffffff1673ffffffffffffffffffffffffffffffffffffffff16815260200190815260200160002054905092915050565b600081359050610ae581610eb4565b92915050565b600081359050610afa81610ecb565b92915050565b600060208284031215610b1257600080fd5b6000610b2084828501610ad6565b91505092915050565b60008060408385031215610b3c57600080fd5b6000610b4a85828601610ad6565b9250506020610b5b85828601610ad6565b9150509250929050565b600080600060608486031215610b7a57600080fd5b6000610b8886828701610ad6565b9350506020610b9986828701610ad6565b9250506040610baa86828701610aeb565b9150509250925092565b60008060408385031215610bc757600080fd5b6000610bd585828601610ad6565b9250506020610be685828601610aeb565b9150509250929050565b610bf981610e1b565b82525050565b610c0881610e2d565b82525050565b6000610c1982610dff565b610c238185610e0a565b9350610c33818560208601610e70565b610c3c81610ea3565b840191505092915050565b6000610c54602f83610e0a565b91507f746f6b656e2062616c616e6365206973206c6f776572207468616e207468652060008301527f76616c75652072657175657374656400000000000000000000000000000000006020830152604082019050919050565b6000610cba603983610e0a565b91507f746f6b656e2062616c616e6365206f7220616c6c6f77616e6365206973206c6f60008301527f776572207468616e20616d6f756e7420726571756573746564000000000000006020830152604082019050919050565b610d1c81610e59565b82525050565b610d2b81610e63565b82525050565b6000602082019050610d466000830184610bf0565b92915050565b6000602082019050610d616000830184610bff565b92915050565b60006020820190508181036000830152610d818184610c0e565b905092915050565b60006020820190508181036000830152610da281610c47565b9050919050565b60006020820190508181036000830152610dc281610cad565b9050919050565b6000602082019050610dde6000830184610d13565b92915050565b6000602082019050610df96000830184610d22565b92915050565b600081519050919050565b600082825260208201905092915050565b6000610e2682610e39565b9050919050565b60008115159050919050565b600073ffffffffffffffffffffffffffffffffffffffff82169050919050565b6000819050919050565b600060ff82169050919050565b60005b83811015610e8e578082015181840152602081019050610e73565b83811115610e9d576000848401525b50505050565b6000601f19601f8301169050919050565b610ebd81610e1b565b8114610ec857600080fd5b50565b610ed481610e59565b8114610edf57600080fd5b5056fea26469706673582212206d7b471248b37aa2cced2e9e54fa45f3c316e94e0de8f17e320014f8e6608f3c64736f6c63430007060033",
  "immutableReferences": {
    "3342": [
      {
        "length": 32,
        "start": 2774
      },
      {
        "length": 32,
        "start": 6567
      },
      {
        "length": 32,
        "start": 6705
      }
    ],
    "3346": [
      {
        "length": 32,
        "start": 8264
      },
      {
        "length": 32,
        "start": 10706
      },
      {
        "length": 32,
        "start": 11702
      },
      {
        "length": 32,
        "start": 11924
      }
    ],
    "3351": [
      {
        "length": 32,
        "start": 1893
      },
      {
        "length": 32,
        "start": 2313
      },
      {
        "length": 32,
        "start": 6181
      },
      {
        "length": 32,
        "start": 6369
      },
      {
        "length": 32,
        "start": 8333
      },
      {
        "length": 32,
        "start": 8888
      }
    ],
    "3356": [
      {
        "length": 32,
        "start": 1931
      },
      {
        "length": 32,
        "start": 2351
      },
      {
        "length": 32,
        "start": 5240
      },
      {
        "length": 32,
        "start": 8371
      },
      {
        "length": 32,
        "start": 8724
      }
    ],
    "3358": [
      {
        "length": 32,
        "start": 5646
      }
    ]
  },
  "source": "// SPDX-License-Identifier: MIT\r\npragma solidity 0.7.6;\r\npragma abicoder v2;\r\n\r\nimport \"@openzeppelin/contracts/token/ERC20/ERC20.sol\";\r\nimport \"@openzeppelin/contracts/math/SafeMath.sol\";\r\nimport \"@uniswap/v3-periphery/contracts/libraries/TransferHelper.sol\";\r\nimport \"@uniswap/v3-periphery/contracts/interfaces/ISwapRouter.sol\";\r\nimport \"@uniswap/v3-periphery/contracts/interfaces/IPeripheryPayments.sol\";\r\n\r\nimport \"./PriceOracle.sol\";\r\nimport \"./IndexToken.sol\";\r\nimport \"./DebtManager.sol\";\r\nimport \"../management/BaseProduct.sol\";\r\n\r\n\r\ncontract BaseIndex is Product {\r\n    using SafeMath for uint256;\r\n\r\n    struct TokenInfo {\r\n        uint8 indexPercentage;\r\n        address tokenAddress;\r\n        uint24[2] poolFees;\r\n        address intermediateToken;\r\n    }\r\n\r\n    TokenInfo[] private tokens;\r\n    IndexToken public immutable indexToken;\r\n\r\n    address private immutable WETH;\r\n    address private immutable dexRouterAddress;\r\n\r\n    DebtManager private immutable sellDebtManager = new DebtManager();\r\n    DebtManager private immutable buyDebtManager = new DebtManager();\r\n    PriceOracle private immutable priceOracle;\r\n\r\n    uint private lastManagedToken = 0;\r\n    uint public tokensToSell = 0;\r\n    uint public tokensToBuy = 0;\r\n    uint private tokensSold = 0;\r\n    uint private tokensBought = 0;\r\n    uint private tokensBoughtPrice = 0;\r\n\r\n    function name() external pure override returns (string memory) { return \"Index\"; }\r\n    function symbol() external pure override returns (string memory) { return \"VID\"; }\r\n    function getComponents() external view returns (TokenInfo[] memory) { return tokens; }\r\n\r\n    function shortDescription() external pure override returns (string memory) {\r\n        return \"Void Index - diversify your investments.\";\r\n    }\r\n\r\n    function longDescription() external pure override returns (string memory) {\r\n        return \"Void Index - diversify your investments. It features 20 tokens from Uniswap and allows you to buy all of them at once. You receive VID tokens as a proof of funds ownership\";\r\n    }\r\n\r\n    function getTokenPrice(TokenInfo memory token) public view returns (uint256) {\r\n        return priceOracle.getPrice(token.tokenAddress, token.poolFees, token.intermediateToken);\r\n    }\r\n\r\n    function image() external pure override returns (string memory) {\r\n        return \"https://cryptologos.cc/logos/polymath-network-poly-logo.png?v=022\";\r\n        // TODO: change image to public url\r\n    }\r\n\r\n    function getTotalLockedValue() external view override returns (uint256) {\r\n        uint totalValue;\r\n\r\n        for (uint i = 0; i < tokens.length; i++) {\r\n            TokenInfo memory tokenInfo = tokens[i];\r\n            uint tokenUsdBalance = IERC20(tokenInfo.tokenAddress).balanceOf(address(this)).mul(getTokenPrice(tokenInfo));\r\n            totalValue = totalValue.add(tokenUsdBalance.div(1 ether));\r\n        }\r\n\r\n        return totalValue;\r\n    }\r\n\r\n    constructor(\r\n        address _dexRouterAddress,\r\n        address _dexFactoryAddress,\r\n        address _WETH,\r\n        address _buyTokenAddress,\r\n        string memory _indexTokenName,\r\n        string memory _indexTokenSymbol\r\n    ) {\r\n        dexRouterAddress = _dexRouterAddress; // 0xE592427A0AEce92De3Edee1F18E0157C05861564;\r\n        buyTokenAddress = _buyTokenAddress; // 0x6B175474E89094C44Da98b954EedeAC495271d0F;\r\n        WETH = _WETH; // 0xC02aaA39b223FE8D0A0e5C4F27eAD9083C756Cc2;\r\n        priceOracle = new PriceOracle(_dexFactoryAddress, _buyTokenAddress, _WETH);\r\n\r\n        productFee = 2;\r\n        productFeeTotal = 100;\r\n        indexToken = new IndexToken(\r\n            address(this),\r\n            _indexTokenName,\r\n            ERC20(buyTokenAddress).decimals(),\r\n            _indexTokenSymbol\r\n        );\r\n\r\n        tokens.push(TokenInfo({ // 0) WETH\r\n            tokenAddress: _WETH,\r\n            poolFees: [uint24(3000), uint24(3000)],\r\n            intermediateToken: address(0),\r\n            indexPercentage: 15\r\n        }));\r\n        tokens.push(TokenInfo({ // 1) LINK\r\n            tokenAddress: 0x514910771AF9Ca656af840dff83E8264EcF986CA,\r\n            poolFees: [uint24(3000), uint24(3000)],\r\n            intermediateToken: _WETH,\r\n            indexPercentage: 5\r\n        }));\r\n        tokens.push(TokenInfo({ // 2) WBNB\r\n            tokenAddress: 0x418D75f65a02b3D53B2418FB8E1fe493759c7605,\r\n            poolFees: [uint24(3000), uint24(3000)],\r\n            intermediateToken: _WETH,\r\n            indexPercentage: 10\r\n        }));\r\n        tokens.push(TokenInfo({ // 3) UNI\r\n            tokenAddress: 0x1f9840a85d5aF5bf1D1762F925BDADdC4201F984,\r\n            poolFees: [uint24(3000), uint24(3000)],\r\n            intermediateToken: _WETH,\r\n            indexPercentage: 10\r\n        }));\r\n        tokens.push(TokenInfo({ // 4) 1INCH\r\n            tokenAddress: 0x111111111117dC0aa78b770fA6A738034120C302,\r\n            poolFees: [uint24(3000), 10000],\r\n            intermediateToken: _WETH,\r\n            indexPercentage: 10\r\n        }));\r\n        tokens.push(TokenInfo({ // 5) SNX\r\n            tokenAddress: 0xC011a73ee8576Fb46F5E1c5751cA3B9Fe0af2a6F,\r\n            poolFees: [uint24(3000), 10000],\r\n            intermediateToken: _WETH,\r\n            indexPercentage: 5\r\n        }));\r\n        tokens.push(TokenInfo({ // 6) YFI\r\n            tokenAddress: 0x0bc529c00C6401aEF6D220BE8C6Ea1667F6Ad93e,\r\n            poolFees: [uint24(3000), uint24(3000)],\r\n            intermediateToken: _WETH,\r\n            indexPercentage: 5\r\n        }));\r\n        tokens.push(TokenInfo({ // 7) COMP\r\n            tokenAddress: 0xc00e94Cb662C3520282E6f5717214004A7f26888,\r\n            poolFees: [uint24(3000), uint24(3000)],\r\n            intermediateToken: _WETH,\r\n            indexPercentage: 5\r\n        }));\r\n        tokens.push(TokenInfo({ // 8) MKR\r\n            tokenAddress: 0x9f8F72aA9304c8B593d555F12eF6589cC3A579A2,\r\n            poolFees: [uint24(3000), uint24(3000)],\r\n            intermediateToken: _WETH,\r\n            indexPercentage: 5\r\n        }));\r\n        tokens.push(TokenInfo({ // 9) SUSHI\r\n            tokenAddress: 0x6B3595068778DD592e39A122f4f5a5cF09C90fE2,\r\n            poolFees: [uint24(3000), uint24(3000)],\r\n            intermediateToken: _WETH,\r\n            indexPercentage: 10\r\n        }));\r\n        tokens.push(TokenInfo({ // 10) APE\r\n            tokenAddress: 0x4d224452801ACEd8B2F0aebE155379bb5D594381,\r\n            poolFees: [uint24(3000), uint24(3000)],\r\n            intermediateToken: _WETH,\r\n            indexPercentage: 10\r\n        }));\r\n        tokens.push(TokenInfo({ // 11) CRV\r\n            tokenAddress: 0xD533a949740bb3306d119CC777fa900bA034cd52,\r\n            poolFees: [uint24(3000), 10000],\r\n            intermediateToken: _WETH,\r\n            indexPercentage: 10\r\n        }));\r\n    }\r\n\r\n    function buy(uint256 amount) external override nonReentrant checkSettlement {\r\n        (uint productFee, uint256 realAmount) = calculateFee(amount);\r\n        require(realAmount > 0 && productFee > 0, \"Not enough tokens sent\");\r\n\r\n        uint256 indexPrice = getPrice();\r\n        uint buyTokenAmount = realAmount.mul(indexPrice).div(1 ether);\r\n\r\n        tokensToBuy = tokensToBuy.add(buyTokenAmount);\r\n        buyDebtManager.changeDebt(msg.sender, realAmount, true);\r\n\r\n        TransferHelper.safeTransferFrom(buyTokenAddress, msg.sender, address(this), amount.mul(indexPrice).div(1 ether));\r\n        TransferHelper.safeTransferFrom(buyTokenAddress, address(this), owner(), productFee.mul(indexPrice).div(2 ether));\r\n\r\n        emit ProductBought(msg.sender, buyTokenAmount, realAmount);\r\n    }\r\n\r\n    function sell(uint amount) external override nonReentrant checkSettlement{\r\n        (uint productFee, uint256 realAmount) = calculateFee(amount);\r\n        require(realAmount > 0 && productFee > 0, \"You must sell more tokens\");\r\n\r\n        uint indexPrice = getPrice();\r\n\r\n        tokensToSell = tokensToSell.add(amount);\r\n        sellDebtManager.changeDebt(msg.sender, realAmount.mul(indexPrice).div(1 ether), true);\r\n        sellDebtManager.changeDebt(owner(), productFee.mul(indexPrice).div(1 ether), true);\r\n\r\n        TransferHelper.safeTransferFrom(address(indexToken), msg.sender, address(this), amount);\r\n        emit ProductSold(msg.sender, realAmount.mul(getPrice()), realAmount);\r\n    }\r\n\r\n    function retrieveDebt(uint amount, bool isBuyDebt) external nonReentrant checkSettlement{\r\n        DebtManager manager = isBuyDebt ? buyDebtManager : sellDebtManager;\r\n        require(manager.getTotalDebt() >= amount && manager.getUserDebt(msg.sender) >= amount, \"Not enough debt\");\r\n\r\n        address token = isBuyDebt ? address(indexToken) : buyTokenAddress;\r\n\r\n        TransferHelper.safeTransfer(token, msg.sender, amount);\r\n        manager.changeDebt(msg.sender, amount, false);\r\n        manager.changeTotalDebt(amount, false);\r\n    }\r\n\r\n    function getTotalDebt(bool isBuy) external view returns (uint) {\r\n        return (isBuy ? buyDebtManager : sellDebtManager).getTotalDebt();\r\n    }\r\n\r\n    function getUserDebt(address user, bool isBuy) external view returns (uint) {\r\n        return (isBuy ? buyDebtManager : sellDebtManager).getUserDebt(user);\r\n    }\r\n\r\n    function beginSettlement() override external onlyOwner{\r\n        isSettlement = true;\r\n\r\n        uint totalBuyFees = tokensToBuy.mul(productFee).div(productFeeTotal);\r\n        TransferHelper.safeApprove(buyTokenAddress, dexRouterAddress, tokensToBuy.add(totalBuyFees));\r\n    }\r\n\r\n    function endSettlement() override external onlyOwner {\r\n        buyDebtManager.changeTotalDebt(tokensBought.div(tokensBoughtPrice), true);\r\n        sellDebtManager.changeTotalDebt(tokensSold, true);\r\n\r\n        tokensToBuy = 0;\r\n        tokensToSell = 0;\r\n        tokensSold = 0;\r\n        tokensBought = 0;\r\n        tokensBoughtPrice = 0;\r\n        isSettlement = false;\r\n    }\r\n\r\n    function getTokensDrawdown(uint amount) private view returns(uint){\r\n        return amount.mul(productFee).div(2).div(productFeeTotal);\r\n    }\r\n\r\n    function manageTokensSell(TokenInfo memory token, uint amount, uint tokenPrice) private {\r\n        ISwapRouter dexRouter = ISwapRouter(dexRouterAddress);\r\n\r\n        uint tokenPercentage = amount.mul(getPrice()).mul(token.indexPercentage).div(100);\r\n        uint amountIn = tokenPercentage.div(tokenPrice);\r\n\r\n        uint usdAmountIn = amountIn.mul(tokenPrice).div(1 ether);\r\n        uint amountOutMinimum = usdAmountIn.sub(getTokensDrawdown(usdAmountIn));\r\n\r\n        uint amountOut;\r\n        TransferHelper.safeApprove(token.tokenAddress, dexRouterAddress, amountIn);\r\n\r\n        if(token.intermediateToken == address(0)){\r\n            amountOut = dexRouter.exactInputSingle(\r\n                ISwapRouter.ExactInputSingleParams({\r\n                    tokenIn: token.tokenAddress,\r\n                    tokenOut: buyTokenAddress,\r\n                    fee: token.poolFees[0],\r\n                    recipient: address(this),\r\n                    deadline: block.timestamp,\r\n                    amountIn: amountIn,\r\n                    amountOutMinimum: amountOutMinimum,\r\n                    sqrtPriceLimitX96: 0\r\n                })\r\n            );\r\n        }else{\r\n            amountOut = dexRouter.exactInput(\r\n                ISwapRouter.ExactInputParams({\r\n                    path: abi.encodePacked(\r\n                        token.tokenAddress,\r\n                        token.poolFees[1],\r\n                        token.intermediateToken,\r\n                        token.poolFees[0],\r\n                        buyTokenAddress\r\n                    ),\r\n                    recipient: address(this),\r\n                    deadline: block.timestamp,\r\n                    amountIn: amountIn,\r\n                    amountOutMinimum: amountOutMinimum\r\n                })\r\n            );\r\n        }\r\n\r\n        tokensSold = tokensSold.add(amountOut);\r\n    }\r\n\r\n    function manageTokensBuy(TokenInfo memory token, uint amount, uint tokenPrice) private {\r\n        ISwapRouter dexRouter = ISwapRouter(dexRouterAddress);\r\n        uint amountIn = amount.mul(1 ether).div(tokenPrice);\r\n        uint amountOutMinimum = amountIn.sub(getTokensDrawdown(amountIn));\r\n        uint amountOut;\r\n\r\n        if(token.intermediateToken == address(0)){\r\n            amountOut = dexRouter.exactInputSingle(\r\n                ISwapRouter.ExactInputSingleParams({\r\n                    tokenIn: buyTokenAddress,\r\n                    tokenOut: token.tokenAddress,\r\n                    fee: token.poolFees[0],\r\n                    recipient: address(this),\r\n                    deadline: block.timestamp,\r\n                    amountIn: amountIn,\r\n                    amountOutMinimum: amountOutMinimum,\r\n                    sqrtPriceLimitX96: 0\r\n                })\r\n            );\r\n        }else{\r\n            amountOut = dexRouter.exactInput(\r\n                ISwapRouter.ExactInputParams({\r\n                    path: abi.encodePacked(\r\n                        buyTokenAddress,\r\n                        token.poolFees[0],\r\n                        token.intermediateToken,\r\n                        token.poolFees[1],\r\n                        token.tokenAddress\r\n                    ),\r\n                    recipient: address(this),\r\n                    deadline: block.timestamp,\r\n                    amountIn: amountIn,\r\n                    amountOutMinimum: amountOutMinimum\r\n                })\r\n            );\r\n        }\r\n\r\n        tokensBought += amountOut.mul(tokenPrice).div(1 ether);\r\n        tokensBoughtPrice = tokensBoughtPrice.add(tokenPrice.mul(token.indexPercentage).div(100));\r\n    }\r\n\r\n    function manageTokens() external onlyOwner {\r\n        lastManagedToken += 1;\r\n        if(lastManagedToken > tokens.length - 1){ lastManagedToken = 0; }\r\n\r\n        TokenInfo memory token = tokens[lastManagedToken];\r\n        uint tokensToBuyAmount = tokensToBuy.mul(token.indexPercentage).div(100);\r\n        uint tokenPrice = getTokenPrice(token);\r\n\r\n        if(tokensToBuyAmount > 0){\r\n            manageTokensBuy(token, tokensToBuyAmount, tokenPrice);\r\n        }\r\n        if(tokensToSell > 0){\r\n            manageTokensSell(token, tokensToSell, tokenPrice);\r\n        }\r\n    }\r\n\r\n    function getPrice() public view override returns (uint) {\r\n        uint indexTotalPrice = 0;\r\n\r\n        for (uint i = 0; i < tokens.length; i++) {\r\n            TokenInfo memory token = tokens[i];\r\n            indexTotalPrice = indexTotalPrice.add(getTokenPrice(token).mul(token.indexPercentage).div(100));\r\n        }\r\n\r\n        return indexTotalPrice;\r\n    }\r\n\r\n}\r\n",
  "sourcePath": "D:\\JavascriptProjects\\crypto-index\\contracts\\indices\\BaseIndex.sol",
  "compiler": {
    "name": "solc",
    "version": "0.7.6+commit.7338295f.Emscripten.clang"
  },
  "schemaVersion": "3.4.6",
  "updatedAt": "2022-05-31T09:56:50.968Z",
  "devdoc": {
    "kind": "dev",
    "methods": {
      "owner()": {
        "details": "Returns the address of the current owner."
      },
      "renounceOwnership()": {
        "details": "Leaves the contract without owner. It will not be possible to call `onlyOwner` functions anymore. Can only be called by the current owner. NOTE: Renouncing ownership will leave the contract without an owner, thereby removing any functionality that is only available to the owner."
      },
      "transferOwnership(address)": {
        "details": "Transfers ownership of the contract to a new account (`newOwner`). Can only be called by the current owner."
      }
    },
    "version": 1
  },
  "userdoc": {
    "kind": "user",
    "methods": {},
    "version": 1
  }
}