{
  "contractName": "BaseIndex",
  "abi": [
    {
      "inputs": [],
      "stateMutability": "nonpayable",
      "type": "constructor"
    },
    {
      "anonymous": false,
      "inputs": [
        {
          "indexed": true,
          "internalType": "address",
          "name": "previousOwner",
          "type": "address"
        },
        {
          "indexed": true,
          "internalType": "address",
          "name": "newOwner",
          "type": "address"
        }
      ],
      "name": "OwnershipTransferred",
      "type": "event"
    },
    {
      "anonymous": false,
      "inputs": [
        {
          "indexed": false,
          "internalType": "address",
          "name": "account",
          "type": "address"
        },
        {
          "indexed": false,
          "internalType": "uint256",
          "name": "buyTokenAmount",
          "type": "uint256"
        },
        {
          "indexed": false,
          "internalType": "uint256",
          "name": "indexTokenAmount",
          "type": "uint256"
        }
      ],
      "name": "ProductBuy",
      "type": "event"
    },
    {
      "anonymous": false,
      "inputs": [
        {
          "indexed": false,
          "internalType": "address",
          "name": "account",
          "type": "address"
        },
        {
          "indexed": false,
          "internalType": "uint256",
          "name": "buyTokenAmount",
          "type": "uint256"
        },
        {
          "indexed": false,
          "internalType": "uint256",
          "name": "indexTokenAmount",
          "type": "uint256"
        }
      ],
      "name": "ProductSell",
      "type": "event"
    },
    {
      "inputs": [],
      "name": "buyTokenAddress",
      "outputs": [
        {
          "internalType": "address",
          "name": "",
          "type": "address"
        }
      ],
      "stateMutability": "view",
      "type": "function"
    },
    {
      "inputs": [],
      "name": "indexToken",
      "outputs": [
        {
          "internalType": "contract IndexToken",
          "name": "",
          "type": "address"
        }
      ],
      "stateMutability": "view",
      "type": "function"
    },
    {
      "inputs": [],
      "name": "owner",
      "outputs": [
        {
          "internalType": "address",
          "name": "",
          "type": "address"
        }
      ],
      "stateMutability": "view",
      "type": "function"
    },
    {
      "inputs": [],
      "name": "renounceOwnership",
      "outputs": [],
      "stateMutability": "nonpayable",
      "type": "function"
    },
    {
      "inputs": [],
      "name": "retrieveFees",
      "outputs": [],
      "stateMutability": "nonpayable",
      "type": "function"
    },
    {
      "inputs": [
        {
          "internalType": "uint256",
          "name": "",
          "type": "uint256"
        }
      ],
      "name": "tokens",
      "outputs": [
        {
          "internalType": "uint8",
          "name": "indexPercentage",
          "type": "uint8"
        },
        {
          "internalType": "uint24",
          "name": "poolFee",
          "type": "uint24"
        },
        {
          "internalType": "address",
          "name": "tokenAddress",
          "type": "address"
        },
        {
          "internalType": "address",
          "name": "priceOracleAddress",
          "type": "address"
        }
      ],
      "stateMutability": "view",
      "type": "function"
    },
    {
      "inputs": [
        {
          "internalType": "address",
          "name": "newOwner",
          "type": "address"
        }
      ],
      "name": "transferOwnership",
      "outputs": [],
      "stateMutability": "nonpayable",
      "type": "function"
    },
    {
      "inputs": [],
      "name": "name",
      "outputs": [
        {
          "internalType": "string",
          "name": "",
          "type": "string"
        }
      ],
      "stateMutability": "pure",
      "type": "function"
    },
    {
      "inputs": [],
      "name": "symbol",
      "outputs": [
        {
          "internalType": "string",
          "name": "",
          "type": "string"
        }
      ],
      "stateMutability": "pure",
      "type": "function"
    },
    {
      "inputs": [],
      "name": "shortDescription",
      "outputs": [
        {
          "internalType": "string",
          "name": "",
          "type": "string"
        }
      ],
      "stateMutability": "pure",
      "type": "function"
    },
    {
      "inputs": [],
      "name": "longDescription",
      "outputs": [
        {
          "internalType": "string",
          "name": "",
          "type": "string"
        }
      ],
      "stateMutability": "pure",
      "type": "function"
    },
    {
      "inputs": [],
      "name": "getComponents",
      "outputs": [
        {
          "components": [
            {
              "internalType": "uint8",
              "name": "indexPercentage",
              "type": "uint8"
            },
            {
              "internalType": "uint24",
              "name": "poolFee",
              "type": "uint24"
            },
            {
              "internalType": "address",
              "name": "tokenAddress",
              "type": "address"
            },
            {
              "internalType": "address",
              "name": "priceOracleAddress",
              "type": "address"
            }
          ],
          "internalType": "struct BaseIndex.TokenInfo[]",
          "name": "",
          "type": "tuple[]"
        }
      ],
      "stateMutability": "view",
      "type": "function"
    },
    {
      "inputs": [
        {
          "internalType": "address",
          "name": "tokenOracleAddress",
          "type": "address"
        }
      ],
      "name": "getTokenPrice",
      "outputs": [
        {
          "internalType": "uint256",
          "name": "",
          "type": "uint256"
        }
      ],
      "stateMutability": "view",
      "type": "function"
    },
    {
      "inputs": [],
      "name": "image",
      "outputs": [
        {
          "internalType": "string",
          "name": "",
          "type": "string"
        }
      ],
      "stateMutability": "pure",
      "type": "function"
    },
    {
      "inputs": [],
      "name": "getTotalLockedValue",
      "outputs": [
        {
          "internalType": "uint256",
          "name": "",
          "type": "uint256"
        }
      ],
      "stateMutability": "view",
      "type": "function"
    },
    {
      "inputs": [
        {
          "internalType": "uint256",
          "name": "amount",
          "type": "uint256"
        }
      ],
      "name": "buy",
      "outputs": [],
      "stateMutability": "nonpayable",
      "type": "function"
    },
    {
      "inputs": [],
      "name": "getPrice",
      "outputs": [
        {
          "internalType": "uint256",
          "name": "",
          "type": "uint256"
        }
      ],
      "stateMutability": "view",
      "type": "function"
    },
    {
      "inputs": [
        {
          "internalType": "uint256",
          "name": "amount",
          "type": "uint256"
        }
      ],
      "name": "sell",
      "outputs": [],
      "stateMutability": "nonpayable",
      "type": "function"
    }
  ],
  "bytecode": "0x60a06040523480156200001157600080fd5b506000620000246200071a60201b60201c565b9050806000806101000a81548173ffffffffffffffffffffffffffffffffffffffff021916908373ffffffffffffffffffffffffffffffffffffffff1602179055508073ffffffffffffffffffffffffffffffffffffffff16600073ffffffffffffffffffffffffffffffffffffffff167f8be0079c531659141344cd1fd0a4f28419497f9722a3daafe3b4186f6b6457e060405160405180910390a35073e592427a0aece92de3edee1f18e0157c0586156473ffffffffffffffffffffffffffffffffffffffff1660808173ffffffffffffffffffffffffffffffffffffffff1660601b81525050736b175474e89094c44da98b954eedeac495271d0f600160006101000a81548173ffffffffffffffffffffffffffffffffffffffff021916908373ffffffffffffffffffffffffffffffffffffffff1602179055506005600160146101000a81548160ff021916908360ff1602179055506103e86002819055506064600381905550306012604051620001a09062000722565b620001ad929190620007e4565b604051809103906000f080158015620001ca573d6000803e3d6000fd5b50600660006101000a81548173ffffffffffffffffffffffffffffffffffffffff021916908373ffffffffffffffffffffffffffffffffffffffff160217905550604051620002199062000730565b604051809103906000f08015801562000236573d6000803e3d6000fd5b50600560006101000a81548173ffffffffffffffffffffffffffffffffffffffff021916908373ffffffffffffffffffffffffffffffffffffffff16021790555060008060146101000a81548160ff02191690831515021790555060046040518060800160405280601460ff168152602001610bb862ffffff16815260200173c02aaa39b223fe8d0a0e5c4f27ead9083c756cc273ffffffffffffffffffffffffffffffffffffffff168152602001735f4ec3df9cbd43714fe2740f5e3616155c5b841973ffffffffffffffffffffffffffffffffffffffff16815250908060018154018082558091505060019003906000526020600020906002020160009091909190915060008201518160000160006101000a81548160ff021916908360ff16021790555060208201518160000160016101000a81548162ffffff021916908362ffffff16021790555060408201518160000160046101000a81548173ffffffffffffffffffffffffffffffffffffffff021916908373ffffffffffffffffffffffffffffffffffffffff16021790555060608201518160010160006101000a81548173ffffffffffffffffffffffffffffffffffffffff021916908373ffffffffffffffffffffffffffffffffffffffff160217905550505060046040518060800160405280600a60ff168152602001610bb862ffffff16815260200173514910771af9ca656af840dff83e8264ecf986ca73ffffffffffffffffffffffffffffffffffffffff168152602001732c1d072e956affc0d435cb7ac38ef18d24d9127c73ffffffffffffffffffffffffffffffffffffffff16815250908060018154018082558091505060019003906000526020600020906002020160009091909190915060008201518160000160006101000a81548160ff021916908360ff16021790555060208201518160000160016101000a81548162ffffff021916908362ffffff16021790555060408201518160000160046101000a81548173ffffffffffffffffffffffffffffffffffffffff021916908373ffffffffffffffffffffffffffffffffffffffff16021790555060608201518160010160006101000a81548173ffffffffffffffffffffffffffffffffffffffff021916908373ffffffffffffffffffffffffffffffffffffffff160217905550505060046040518060800160405280601460ff168152602001610bb862ffffff16815260200173418d75f65a02b3d53b2418fb8e1fe493759c760573ffffffffffffffffffffffffffffffffffffffff1681526020017314e613ac84a31f709eadbdf89c6cc390fdc9540a73ffffffffffffffffffffffffffffffffffffffff16815250908060018154018082558091505060019003906000526020600020906002020160009091909190915060008201518160000160006101000a81548160ff021916908360ff16021790555060208201518160000160016101000a81548162ffffff021916908362ffffff16021790555060408201518160000160046101000a81548173ffffffffffffffffffffffffffffffffffffffff021916908373ffffffffffffffffffffffffffffffffffffffff16021790555060608201518160010160006101000a81548173ffffffffffffffffffffffffffffffffffffffff021916908373ffffffffffffffffffffffffffffffffffffffff1602179055505050620008a1565b600033905090565b6112e98062002b0a83390190565b6101a68062003df383390190565b62000749816200084c565b82525050565b6200075a816200088d565b82525050565b60006200076f6007836200083b565b91507f43525950544958000000000000000000000000000000000000000000000000006000830152602082019050919050565b6000620007b16012836200083b565b91507f43727970746f20696e64657820746f6b656e00000000000000000000000000006000830152602082019050919050565b6000608082019050620007fb60008301856200073e565b81810360208301526200080e81620007a2565b90506200081f60408301846200074f565b8181036060830152620008328162000760565b90509392505050565b600082825260208201905092915050565b6000620008598262000860565b9050919050565b600073ffffffffffffffffffffffffffffffffffffffff82169050919050565b600060ff82169050919050565b60006200089a8262000880565b9050919050565b60805160601c612241620008c960003980610cf75280610ed9528061104a52506122416000f3fe608060405234801561001057600080fd5b50600436106100e65760003560e01c806306fdde03146100eb5780631da98960146101095780634f64b2be1461012757806360ebbf811461015a578063715018a6146101785780638da5cb5b1461018257806395d89b41146101a057806398d5fdca146101be57806399d50d5d146101dc578063b7597914146101fa578063ba25d94414610218578063bae8cae514610236578063d02641a014610240578063d96a094a14610270578063e4849b321461028c578063e7d015f2146102a8578063f2fde38b146102c6578063f3ccaac0146102e2575b600080fd5b6100f3610300565b6040516101009190611ec1565b60405180910390f35b61011161033d565b60405161011e9190611ec1565b60405180910390f35b610141600480360381019061013c9190611a5d565b61035d565b6040516101519493929190611f7a565b60405180910390f35b6101626103f9565b60405161016f9190611de0565b60405180910390f35b61018061041f565b005b61018a61058c565b6040516101979190611de0565b60405180910390f35b6101a86105b5565b6040516101b59190611ec1565b60405180910390f35b6101c66105f2565b6040516101d39190611f5f565b60405180910390f35b6101e461080e565b6040516101f19190611e84565b60405180910390f35b610202610959565b60405161020f9190611f5f565b60405180910390f35b610220610962565b60405161022d9190611ec1565b60405180910390f35b61023e610982565b005b61025a60048036038101906102559190611a0b565b610b78565b6040516102679190611f5f565b60405180910390f35b61028a60048036038101906102859190611a5d565b610c2c565b005b6102a660048036038101906102a19190611a5d565b610e0d565b005b6102b061121b565b6040516102bd9190611ea6565b60405180910390f35b6102e060048036038101906102db9190611a0b565b611241565b005b6102ea611433565b6040516102f79190611ec1565b60405180910390f35b60606040518060400160405280600b81526020017f43727970746f496e646578000000000000000000000000000000000000000000815250905090565b60606040518060800160405280604981526020016121c360499139905090565b6004818154811061036d57600080fd5b90600052602060002090600202016000915090508060000160009054906101000a900460ff16908060000160019054906101000a900462ffffff16908060000160049054906101000a900473ffffffffffffffffffffffffffffffffffffffff16908060010160009054906101000a900473ffffffffffffffffffffffffffffffffffffffff16905084565b600160009054906101000a900473ffffffffffffffffffffffffffffffffffffffff1681565b610427611453565b73ffffffffffffffffffffffffffffffffffffffff1661044561058c565b73ffffffffffffffffffffffffffffffffffffffff16146104ce576040517f08c379a00000000000000000000000000000000000000000000000000000000081526004018080602001828103825260208152602001807f4f776e61626c653a2063616c6c6572206973206e6f7420746865206f776e657281525060200191505060405180910390fd5b600073ffffffffffffffffffffffffffffffffffffffff1660008054906101000a900473ffffffffffffffffffffffffffffffffffffffff1673ffffffffffffffffffffffffffffffffffffffff167f8be0079c531659141344cd1fd0a4f28419497f9722a3daafe3b4186f6b6457e060405160405180910390a360008060006101000a81548173ffffffffffffffffffffffffffffffffffffffff021916908373ffffffffffffffffffffffffffffffffffffffff160217905550565b60008060009054906101000a900473ffffffffffffffffffffffffffffffffffffffff16905090565b60606040518060400160405280600781526020017f4352595054495800000000000000000000000000000000000000000000000000815250905090565b60008060005b6004805490508110156107fb5761060d6118b9565b6004828154811061061a57fe5b90600052602060002090600202016040518060800160405290816000820160009054906101000a900460ff1660ff1660ff1681526020016000820160019054906101000a900462ffffff1662ffffff1662ffffff1681526020016000820160049054906101000a900473ffffffffffffffffffffffffffffffffffffffff1673ffffffffffffffffffffffffffffffffffffffff1673ffffffffffffffffffffffffffffffffffffffff1681526020016001820160009054906101000a900473ffffffffffffffffffffffffffffffffffffffff1673ffffffffffffffffffffffffffffffffffffffff1673ffffffffffffffffffffffffffffffffffffffff168152505090506000600560009054906101000a900473ffffffffffffffffffffffffffffffffffffffff1673ffffffffffffffffffffffffffffffffffffffff166341976e0983606001516040518263ffffffff1660e01b81526004016107829190611de0565b60206040518083038186803b15801561079a57600080fd5b505afa1580156107ae573d6000803e3d6000fd5b505050506040513d601f19601f820116820180604052508101906107d29190611a86565b9050816000015160ff16606482816107e657fe5b040284019350505080806001019150506105f8565b50600354818161080757fe5b0491505090565b60606004805480602002602001604051908101604052809291908181526020016000905b8282101561095057838290600052602060002090600202016040518060800160405290816000820160009054906101000a900460ff1660ff1660ff1681526020016000820160019054906101000a900462ffffff1662ffffff1662ffffff1681526020016000820160049054906101000a900473ffffffffffffffffffffffffffffffffffffffff1673ffffffffffffffffffffffffffffffffffffffff1673ffffffffffffffffffffffffffffffffffffffff1681526020016001820160009054906101000a900473ffffffffffffffffffffffffffffffffffffffff1673ffffffffffffffffffffffffffffffffffffffff1673ffffffffffffffffffffffffffffffffffffffff168152505081526020019060010190610832565b50505050905090565b6000601e905090565b60606040518060800160405280604981526020016121c360499139905090565b61098a611453565b73ffffffffffffffffffffffffffffffffffffffff166109a861058c565b73ffffffffffffffffffffffffffffffffffffffff1614610a31576040517f08c379a00000000000000000000000000000000000000000000000000000000081526004018080602001828103825260208152602001807f4f776e61626c653a2063616c6c6572206973206e6f7420746865206f776e657281525060200191505060405180910390fd5b6000600160009054906101000a900473ffffffffffffffffffffffffffffffffffffffff1690508073ffffffffffffffffffffffffffffffffffffffff1663a9059cbb610a7c61058c565b8373ffffffffffffffffffffffffffffffffffffffff166370a08231306040518263ffffffff1660e01b8152600401610ab59190611de0565b60206040518083038186803b158015610acd57600080fd5b505afa158015610ae1573d6000803e3d6000fd5b505050506040513d601f19601f82011682018060405250810190610b059190611a86565b6040518363ffffffff1660e01b8152600401610b22929190611e5b565b602060405180830381600087803b158015610b3c57600080fd5b505af1158015610b50573d6000803e3d6000fd5b505050506040513d601f19601f82011682018060405250810190610b749190611a34565b5050565b6000600560009054906101000a900473ffffffffffffffffffffffffffffffffffffffff1673ffffffffffffffffffffffffffffffffffffffff166341976e09836040518263ffffffff1660e01b8152600401610bd59190611de0565b60206040518083038186803b158015610bed57600080fd5b505afa158015610c01573d6000803e3d6000fd5b505050506040513d601f19601f82011682018060405250810190610c259190611a86565b9050919050565b6000610c366105f2565b90506000610c438361145b565b9150506000670de0b6b3a7640000838381610c5a57fe5b0402905060008111610ca1576040517f08c379a0000000000000000000000000000000000000000000000000000000008152600401610c9890611ee3565b60405180910390fd5b610ccf600160009054906101000a900473ffffffffffffffffffffffffffffffffffffffff16333087611496565b610d1c600160009054906101000a900473ffffffffffffffffffffffffffffffffffffffff167f0000000000000000000000000000000000000000000000000000000000000000846116b7565b600660009054906101000a900473ffffffffffffffffffffffffffffffffffffffff1673ffffffffffffffffffffffffffffffffffffffff1663a9059cbb33836040518363ffffffff1660e01b8152600401610d79929190611dfb565b602060405180830381600087803b158015610d9357600080fd5b505af1158015610da7573d6000803e3d6000fd5b505050506040513d601f19601f82011682018060405250810190610dcb9190611a34565b507f7ebc3084985b670898d058ca18fa1d6811ad46c72d545dc0af08c8946daaeb21338383604051610dff93929190611e24565b60405180910390a150505050565b600060149054906101000a900460ff1615610e5d576040517f08c379a0000000000000000000000000000000000000000000000000000000008152600401610e5490611f03565b60405180910390fd5b670de0b6b3a76400008111610ea7576040517f08c379a0000000000000000000000000000000000000000000000000000000008152600401610e9e90611f23565b60405180910390fd5b610ed5600660009054906101000a900473ffffffffffffffffffffffffffffffffffffffff16333084611496565b60007f000000000000000000000000000000000000000000000000000000000000000090506000610f046118b9565b60005b6004805490508110156111d95760048181548110610f2157fe5b90600052602060002090600202016040518060800160405290816000820160009054906101000a900460ff1660ff1660ff1681526020016000820160019054906101000a900462ffffff1662ffffff1662ffffff1681526020016000820160049054906101000a900473ffffffffffffffffffffffffffffffffffffffff1673ffffffffffffffffffffffffffffffffffffffff1673ffffffffffffffffffffffffffffffffffffffff1681526020016001820160009054906101000a900473ffffffffffffffffffffffffffffffffffffffff1673ffffffffffffffffffffffffffffffffffffffff1673ffffffffffffffffffffffffffffffffffffffff168152505091506000826000015160ff166064878161103c57fe5b0402905061106f83604001517f0000000000000000000000000000000000000000000000000000000000000000836116b7565b611077611915565b604051806101000160405280856040015173ffffffffffffffffffffffffffffffffffffffff168152602001600160009054906101000a900473ffffffffffffffffffffffffffffffffffffffff1673ffffffffffffffffffffffffffffffffffffffff168152602001856020015162ffffff1681526020013373ffffffffffffffffffffffffffffffffffffffff168152602001428152602001838152602001838152602001600073ffffffffffffffffffffffffffffffffffffffff1681525090508573ffffffffffffffffffffffffffffffffffffffff1663414bf389826040518263ffffffff1660e01b81526004016111749190611f43565b602060405180830381600087803b15801561118e57600080fd5b505af11580156111a2573d6000803e3d6000fd5b505050506040513d601f19601f820116820180604052508101906111c69190611a86565b8501945050508080600101915050610f07565b507f0d5a45cf7c9a0539a08a127c07e40d3d3b07823e2c09638a6415b83e59b2d90433838660405161120d93929190611e24565b60405180910390a150505050565b600660009054906101000a900473ffffffffffffffffffffffffffffffffffffffff1681565b611249611453565b73ffffffffffffffffffffffffffffffffffffffff1661126761058c565b73ffffffffffffffffffffffffffffffffffffffff16146112f0576040517f08c379a00000000000000000000000000000000000000000000000000000000081526004018080602001828103825260208152602001807f4f776e61626c653a2063616c6c6572206973206e6f7420746865206f776e657281525060200191505060405180910390fd5b600073ffffffffffffffffffffffffffffffffffffffff168173ffffffffffffffffffffffffffffffffffffffff161415611376576040517f08c379a000000000000000000000000000000000000000000000000000000000815260040180806020018281038252602681526020018061215c6026913960400191505060405180910390fd5b8073ffffffffffffffffffffffffffffffffffffffff1660008054906101000a900473ffffffffffffffffffffffffffffffffffffffff1673ffffffffffffffffffffffffffffffffffffffff167f8be0079c531659141344cd1fd0a4f28419497f9722a3daafe3b4186f6b6457e060405160405180910390a3806000806101000a81548173ffffffffffffffffffffffffffffffffffffffff021916908373ffffffffffffffffffffffffffffffffffffffff16021790555050565b606060405180608001604052806041815260200161218260419139905090565b600033905090565b6000806000600160149054906101000a900460ff1660ff16600254858161147e57fe5b04029050600081850390508181935093505050915091565b600060608573ffffffffffffffffffffffffffffffffffffffff166323b872dd60e01b868686604051602401808473ffffffffffffffffffffffffffffffffffffffff1681526020018373ffffffffffffffffffffffffffffffffffffffff1681526020018281526020019350505050604051602081830303815290604052907bffffffffffffffffffffffffffffffffffffffffffffffffffffffff19166020820180517bffffffffffffffffffffffffffffffffffffffffffffffffffffffff83818316178352505050506040518082805190602001908083835b602083106115965780518252602082019150602081019050602083039250611573565b6001836020036101000a0380198251168184511680821785525050505050509050019150506000604051808303816000865af19150503d80600081146115f8576040519150601f19603f3d011682016040523d82523d6000602084013e6115fd565b606091505b509150915081801561163d575060008151148061163c575080806020019051602081101561162a57600080fd5b81019080805190602001909291905050505b5b6116af576040517f08c379a00000000000000000000000000000000000000000000000000000000081526004018080602001828103825260038152602001807f535446000000000000000000000000000000000000000000000000000000000081525060200191505060405180910390fd5b505050505050565b600060608473ffffffffffffffffffffffffffffffffffffffff1663095ea7b360e01b8585604051602401808373ffffffffffffffffffffffffffffffffffffffff16815260200182815260200192505050604051602081830303815290604052907bffffffffffffffffffffffffffffffffffffffffffffffffffffffff19166020820180517bffffffffffffffffffffffffffffffffffffffffffffffffffffffff83818316178352505050506040518082805190602001908083835b602083106117995780518252602082019150602081019050602083039250611776565b6001836020036101000a0380198251168184511680821785525050505050509050019150506000604051808303816000865af19150503d80600081146117fb576040519150601f19603f3d011682016040523d82523d6000602084013e611800565b606091505b5091509150818015611840575060008151148061183f575080806020019051602081101561182d57600080fd5b81019080805190602001909291905050505b5b6118b2576040517f08c379a00000000000000000000000000000000000000000000000000000000081526004018080602001828103825260028152602001807f534100000000000000000000000000000000000000000000000000000000000081525060200191505060405180910390fd5b5050505050565b6040518060800160405280600060ff168152602001600062ffffff168152602001600073ffffffffffffffffffffffffffffffffffffffff168152602001600073ffffffffffffffffffffffffffffffffffffffff1681525090565b604051806101000160405280600073ffffffffffffffffffffffffffffffffffffffff168152602001600073ffffffffffffffffffffffffffffffffffffffff168152602001600062ffffff168152602001600073ffffffffffffffffffffffffffffffffffffffff168152602001600081526020016000815260200160008152602001600073ffffffffffffffffffffffffffffffffffffffff1681525090565b6000813590506119c681612116565b92915050565b6000815190506119db8161212d565b92915050565b6000813590506119f081612144565b92915050565b600081519050611a0581612144565b92915050565b600060208284031215611a1d57600080fd5b6000611a2b848285016119b7565b91505092915050565b600060208284031215611a4657600080fd5b6000611a54848285016119cc565b91505092915050565b600060208284031215611a6f57600080fd5b6000611a7d848285016119e1565b91505092915050565b600060208284031215611a9857600080fd5b6000611aa6848285016119f6565b91505092915050565b6000611abb8383611d22565b60808301905092915050565b611ad081612078565b82525050565b611adf81612014565b82525050565b611aee81612014565b82525050565b6000611aff82611fcf565b611b098185611ff2565b9350611b1483611fbf565b8060005b83811015611b45578151611b2c8882611aaf565b9750611b3783611fe5565b925050600181019050611b18565b5085935050505092915050565b611b5b8161208a565b82525050565b6000611b6c82611fda565b611b768185612003565b9350611b868185602086016120d2565b611b8f81612105565b840191505092915050565b6000611ba7601683612003565b91507f4e6f7420656e6f75676820746f6b656e732073656e74000000000000000000006000830152602082019050919050565b6000611be7601183612003565b91507f50726f64756374206973206c6f636b65640000000000000000000000000000006000830152602082019050919050565b6000611c27602b83612003565b91507f596f75206d757374207769746864726177206d6f72652066756e64732066726f60008301527f6d2074686520696e6465780000000000000000000000000000000000000000006020830152604082019050919050565b61010082016000820151611c976000850182611ad6565b506020820151611caa6020850182611ad6565b506040820151611cbd6040850182611d86565b506060820151611cd06060850182611ad6565b506080820151611ce36080850182611da4565b5060a0820151611cf660a0850182611da4565b5060c0820151611d0960c0850182611da4565b5060e0820151611d1c60e0850182611d77565b50505050565b608082016000820151611d386000850182611dc2565b506020820151611d4b6020850182611d86565b506040820151611d5e6040850182611ad6565b506060820151611d716060850182611ad6565b50505050565b611d8081612032565b82525050565b611d8f81612052565b82525050565b611d9e81612052565b82525050565b611dad81612061565b82525050565b611dbc81612061565b82525050565b611dcb8161206b565b82525050565b611dda8161206b565b82525050565b6000602082019050611df56000830184611ae5565b92915050565b6000604082019050611e106000830185611ac7565b611e1d6020830184611db3565b9392505050565b6000606082019050611e396000830186611ac7565b611e466020830185611db3565b611e536040830184611db3565b949350505050565b6000604082019050611e706000830185611ae5565b611e7d6020830184611db3565b9392505050565b60006020820190508181036000830152611e9e8184611af4565b905092915050565b6000602082019050611ebb6000830184611b52565b92915050565b60006020820190508181036000830152611edb8184611b61565b905092915050565b60006020820190508181036000830152611efc81611b9a565b9050919050565b60006020820190508181036000830152611f1c81611bda565b9050919050565b60006020820190508181036000830152611f3c81611c1a565b9050919050565b600061010082019050611f596000830184611c80565b92915050565b6000602082019050611f746000830184611db3565b92915050565b6000608082019050611f8f6000830187611dd1565b611f9c6020830186611d95565b611fa96040830185611ae5565b611fb66060830184611ae5565b95945050505050565b6000819050602082019050919050565b600081519050919050565b600081519050919050565b6000602082019050919050565b600082825260208201905092915050565b600082825260208201905092915050565b600061201f82612032565b9050919050565b60008115159050919050565b600073ffffffffffffffffffffffffffffffffffffffff82169050919050565b600062ffffff82169050919050565b6000819050919050565b600060ff82169050919050565b6000612083826120ae565b9050919050565b60006120958261209c565b9050919050565b60006120a782612032565b9050919050565b60006120b9826120c0565b9050919050565b60006120cb82612032565b9050919050565b60005b838110156120f05780820151818401526020810190506120d5565b838111156120ff576000848401525b50505050565b6000601f19601f8301169050919050565b61211f81612014565b811461212a57600080fd5b50565b61213681612026565b811461214157600080fd5b50565b61214d81612061565b811461215857600080fd5b5056fe4f776e61626c653a206e6577206f776e657220697320746865207a65726f206164647265737368747470733a2f2f63727970746f6c6f676f732e63632f6c6f676f732f706f6c796d6174682d6e6574776f726b2d706f6c792d6c6f676f2e706e673f763d303232436f7272656c6174696f6e20696e646578206973206120746f6f6c207468617420616c6c6f777320796f7520746f2064697665727369667920796f757220696e766573746d656e7473a26469706673582212208e8c0bb4f97f2227b256d5cdad3079ca178bf419b759249b956e7c18bcbea63a64736f6c6343000705003360806040523480156200001157600080fd5b50604051620012e9380380620012e983398181016040528101906200003791906200020f565b83600560006101000a81548173ffffffffffffffffffffffffffffffffffffffff021916908373ffffffffffffffffffffffffffffffffffffffff160217905550826002908051906020019062000090929190620000cf565b5081600360006101000a81548160ff021916908360ff1602179055508060049080519060200190620000c4929190620000cf565b5050505050620003c1565b828054600181600116156101000203166002900490600052602060002090601f01602090048101928262000107576000855562000153565b82601f106200012257805160ff191683800117855562000153565b8280016001018555821562000153579182015b828111156200015257825182559160200191906001019062000135565b5b50905062000162919062000166565b5090565b5b808211156200018157600081600090555060010162000167565b5090565b60008151905062000196816200038d565b92915050565b600082601f830112620001ae57600080fd5b8151620001c5620001bf82620002e1565b620002ad565b91508082526020830160208301858383011115620001e257600080fd5b620001ef83828462000355565b50505092915050565b6000815190506200020981620003a7565b92915050565b600080600080608085870312156200022657600080fd5b6000620002368782880162000185565b945050602085015167ffffffffffffffff8111156200025457600080fd5b62000262878288016200019c565b93505060406200027587828801620001f8565b925050606085015167ffffffffffffffff8111156200029357600080fd5b620002a1878288016200019c565b91505092959194509250565b6000604051905081810181811067ffffffffffffffff82111715620002d757620002d66200038b565b5b8060405250919050565b600067ffffffffffffffff821115620002ff57620002fe6200038b565b5b601f19601f8301169050602081019050919050565b6000620003218262000328565b9050919050565b600073ffffffffffffffffffffffffffffffffffffffff82169050919050565b600060ff82169050919050565b60005b838110156200037557808201518184015260208101905062000358565b8381111562000385576000848401525b50505050565bfe5b620003988162000314565b8114620003a457600080fd5b50565b620003b28162000348565b8114620003be57600080fd5b50565b610f1880620003d16000396000f3fe608060405234801561001057600080fd5b50600436106100995760003560e01c806306fdde031461009e578063095ea7b3146100bc5780630cf1fd36146100ec57806323b872dd1461010a57806327e235e31461013a578063313ce5671461016a5780635c6581651461018857806370a08231146101b857806395d89b41146101e8578063a9059cbb14610206578063dd62ed3e14610236575b600080fd5b6100a6610266565b6040516100b39190610d67565b60405180910390f35b6100d660048036038101906100d19190610bb4565b610304565b6040516100e39190610d4c565b60405180910390f35b6100f46103f6565b6040516101019190610d31565b60405180910390f35b610124600480360381019061011f9190610b65565b61041c565b6040516101319190610d4c565b60405180910390f35b610154600480360381019061014f9190610b00565b6106e7565b6040516101619190610dc9565b60405180910390f35b6101726106ff565b60405161017f9190610de4565b60405180910390f35b6101a2600480360381019061019d9190610b29565b610712565b6040516101af9190610dc9565b60405180910390f35b6101d260048036038101906101cd9190610b00565b610737565b6040516101df9190610dc9565b60405180910390f35b6101f061077f565b6040516101fd9190610d67565b60405180910390f35b610220600480360381019061021b9190610bb4565b61081d565b60405161022d9190610d4c565b60405180910390f35b610250600480360381019061024b9190610b29565b610a4f565b60405161025d9190610dc9565b60405180910390f35b60028054600181600116156101000203166002900480601f0160208091040260200160405190810160405280929190818152602001828054600181600116156101000203166002900480156102fc5780601f106102d1576101008083540402835291602001916102fc565b820191906000526020600020905b8154815290600101906020018083116102df57829003601f168201915b505050505081565b600081600160003373ffffffffffffffffffffffffffffffffffffffff1673ffffffffffffffffffffffffffffffffffffffff16815260200190815260200160002060008573ffffffffffffffffffffffffffffffffffffffff1673ffffffffffffffffffffffffffffffffffffffff168152602001908152602001600020819055508273ffffffffffffffffffffffffffffffffffffffff163373ffffffffffffffffffffffffffffffffffffffff167f8c5be1e5ebec7d5bd14f71427d1e84f3dd0314c0f7b2291e5b200ac8c7c3b925846040516103e49190610dc9565b60405180910390a36001905092915050565b600560009054906101000a900473ffffffffffffffffffffffffffffffffffffffff1681565b600080600160008673ffffffffffffffffffffffffffffffffffffffff1673ffffffffffffffffffffffffffffffffffffffff16815260200190815260200160002060003373ffffffffffffffffffffffffffffffffffffffff1673ffffffffffffffffffffffffffffffffffffffff168152602001908152602001600020549050826000808773ffffffffffffffffffffffffffffffffffffffff1673ffffffffffffffffffffffffffffffffffffffff16815260200190815260200160002054101580156104ec5750828110155b61052b576040517f08c379a000000000000000000000000000000000000000000000000000000000815260040161052290610da9565b60405180910390fd5b826000808673ffffffffffffffffffffffffffffffffffffffff1673ffffffffffffffffffffffffffffffffffffffff16815260200190815260200160002060008282540192505081905550826000808773ffffffffffffffffffffffffffffffffffffffff1673ffffffffffffffffffffffffffffffffffffffff168152602001908152602001600020600082825403925050819055507fffffffffffffffffffffffffffffffffffffffffffffffffffffffffffffffff8110156106765782600160008773ffffffffffffffffffffffffffffffffffffffff1673ffffffffffffffffffffffffffffffffffffffff16815260200190815260200160002060003373ffffffffffffffffffffffffffffffffffffffff1673ffffffffffffffffffffffffffffffffffffffff168152602001908152602001600020600082825403925050819055505b8373ffffffffffffffffffffffffffffffffffffffff168573ffffffffffffffffffffffffffffffffffffffff167fddf252ad1be2c89b69c2b068fc378daa952ba7f163c4a11628f55a4df523b3ef856040516106d39190610dc9565b60405180910390a360019150509392505050565b60006020528060005260406000206000915090505481565b600360009054906101000a900460ff1681565b6001602052816000526040600020602052806000526040600020600091509150505481565b60008060008373ffffffffffffffffffffffffffffffffffffffff1673ffffffffffffffffffffffffffffffffffffffff168152602001908152602001600020549050919050565b60048054600181600116156101000203166002900480601f0160208091040260200160405190810160405280929190818152602001828054600181600116156101000203166002900480156108155780601f106107ea57610100808354040283529160200191610815565b820191906000526020600020905b8154815290600101906020018083116107f857829003601f168201915b505050505081565b6000600560009054906101000a900473ffffffffffffffffffffffffffffffffffffffff1673ffffffffffffffffffffffffffffffffffffffff163373ffffffffffffffffffffffffffffffffffffffff1614156108c657816000808573ffffffffffffffffffffffffffffffffffffffff1673ffffffffffffffffffffffffffffffffffffffff16815260200190815260200160002060008282540192505081905550610994565b816000803373ffffffffffffffffffffffffffffffffffffffff1673ffffffffffffffffffffffffffffffffffffffff168152602001908152602001600020541015610947576040517f08c379a000000000000000000000000000000000000000000000000000000000815260040161093e90610d89565b60405180910390fd5b816000803373ffffffffffffffffffffffffffffffffffffffff1673ffffffffffffffffffffffffffffffffffffffff168152602001908152602001600020600082825403925050819055505b816000808573ffffffffffffffffffffffffffffffffffffffff1673ffffffffffffffffffffffffffffffffffffffff168152602001908152602001600020600082825401925050819055508273ffffffffffffffffffffffffffffffffffffffff163373ffffffffffffffffffffffffffffffffffffffff167fddf252ad1be2c89b69c2b068fc378daa952ba7f163c4a11628f55a4df523b3ef84604051610a3d9190610dc9565b60405180910390a36001905092915050565b6000600160008473ffffffffffffffffffffffffffffffffffffffff1673ffffffffffffffffffffffffffffffffffffffff16815260200190815260200160002060008373ffffffffffffffffffffffffffffffffffffffff1673ffffffffffffffffffffffffffffffffffffffff16815260200190815260200160002054905092915050565b600081359050610ae581610eb4565b92915050565b600081359050610afa81610ecb565b92915050565b600060208284031215610b1257600080fd5b6000610b2084828501610ad6565b91505092915050565b60008060408385031215610b3c57600080fd5b6000610b4a85828601610ad6565b9250506020610b5b85828601610ad6565b9150509250929050565b600080600060608486031215610b7a57600080fd5b6000610b8886828701610ad6565b9350506020610b9986828701610ad6565b9250506040610baa86828701610aeb565b9150509250925092565b60008060408385031215610bc757600080fd5b6000610bd585828601610ad6565b9250506020610be685828601610aeb565b9150509250929050565b610bf981610e1b565b82525050565b610c0881610e2d565b82525050565b6000610c1982610dff565b610c238185610e0a565b9350610c33818560208601610e70565b610c3c81610ea3565b840191505092915050565b6000610c54602f83610e0a565b91507f746f6b656e2062616c616e6365206973206c6f776572207468616e207468652060008301527f76616c75652072657175657374656400000000000000000000000000000000006020830152604082019050919050565b6000610cba603983610e0a565b91507f746f6b656e2062616c616e6365206f7220616c6c6f77616e6365206973206c6f60008301527f776572207468616e20616d6f756e7420726571756573746564000000000000006020830152604082019050919050565b610d1c81610e59565b82525050565b610d2b81610e63565b82525050565b6000602082019050610d466000830184610bf0565b92915050565b6000602082019050610d616000830184610bff565b92915050565b60006020820190508181036000830152610d818184610c0e565b905092915050565b60006020820190508181036000830152610da281610c47565b9050919050565b60006020820190508181036000830152610dc281610cad565b9050919050565b6000602082019050610dde6000830184610d13565b92915050565b6000602082019050610df96000830184610d22565b92915050565b600081519050919050565b600082825260208201905092915050565b6000610e2682610e39565b9050919050565b60008115159050919050565b600073ffffffffffffffffffffffffffffffffffffffff82169050919050565b6000819050919050565b600060ff82169050919050565b60005b83811015610e8e578082015181840152602081019050610e73565b83811115610e9d576000848401525b50505050565b6000601f19601f8301169050919050565b610ebd81610e1b565b8114610ec857600080fd5b50565b610ed481610e59565b8114610edf57600080fd5b5056fea2646970667358221220695925455ddca55c2f538fea0d42eb98e9d1851a8c3083fb34a3317ae282bc5d64736f6c63430007050033608060405234801561001057600080fd5b50610186806100206000396000f3fe608060405234801561001057600080fd5b506004361061002b5760003560e01c806341976e0914610030575b600080fd5b6100726004803603602081101561004657600080fd5b81019080803573ffffffffffffffffffffffffffffffffffffffff169060200190929190505050610088565b6040518082815260200191505060405180910390f35b60008082905060008173ffffffffffffffffffffffffffffffffffffffff1663feaf968c6040518163ffffffff1660e01b815260040160a06040518083038186803b1580156100d657600080fd5b505afa1580156100ea573d6000803e3d6000fd5b505050506040513d60a081101561010057600080fd5b8101908080519060200190929190805190602001909291908051906020019092919080519060200190929190805190602001909291905050505050509150506402540be40081029250505091905056fea26469706673582212206d5d65f1308a1910b7d23c8605bc69c514616f5c2a551f23b4359202f9db03f964736f6c63430007050033",
  "immutableReferences": {
    "1468": [
      {
        "length": 32,
        "start": 3319
      },
      {
        "length": 32,
        "start": 3801
      },
      {
        "length": 32,
        "start": 4170
      }
    ]
  },
  "source": "// SPDX-License-Identifier: MIT\npragma solidity >=0.7.5;\npragma abicoder v2;\n\nimport \"@openzeppelin/contracts/token/ERC20/ERC20.sol\";\nimport \"@uniswap/v3-periphery/contracts/libraries/TransferHelper.sol\";\nimport \"@uniswap/v3-periphery/contracts/interfaces/ISwapRouter.sol\";\nimport \"@uniswap/v3-periphery/contracts/interfaces/IPeripheryPayments.sol\";\n\nimport \"./PriceOracle.sol\";\nimport \"./IndexToken.sol\";\nimport \"../management/BaseProduct.sol\";\n\ncontract BaseIndex is Product {\n    address private immutable dexRouterAddress;\n\n    struct TokenInfo {\n        uint8 indexPercentage;\n        uint24 poolFee;\n        address tokenAddress;\n        address priceOracleAddress;\n    }\n\n    TokenInfo[] public tokens;\n    PriceOracle private priceOracle;\n    IndexToken public indexToken;\n\n    function name() external pure override returns (string memory) {\n        return \"CryptoIndex\";\n    }\n\n    function symbol() external pure override returns (string memory) {\n        return \"CRYPTIX\";\n    }\n\n    function shortDescription() external pure override returns (string memory) {\n        return \"Correlation index is a tool that allows you to diversify your investments\";\n    }\n\n    function longDescription() external pure override returns (string memory) {\n        return \"Correlation index is a tool that allows you to diversify your investments\";\n    }\n\n    function getComponents() external view returns (TokenInfo[] memory) {\n        return tokens;\n    }\n\n    function getTokenPrice(address tokenOracleAddress) external view returns (uint256) {\n        return priceOracle.getPrice(tokenOracleAddress);\n    }\n\n    function image() external pure override returns (string memory) {\n        return \"https://cryptologos.cc/logos/polymath-network-poly-logo.png?v=022\";\n    }\n\n    function getTotalLockedValue() external view override returns (uint256) {\n        return 10 + 20;\n    }\n\n    constructor() {\n        dexRouterAddress = 0xE592427A0AEce92De3Edee1F18E0157C05861564; // Uniswap V3 Router\n        buyTokenAddress = 0x6B175474E89094C44Da98b954EedeAC495271d0F; // USDC\n        indexFee = 5;\n        indexFeeTotal = 1000;\n        indexPriceAdjustment = 100;\n        indexToken = new IndexToken(\n            address(this),\n            \"Crypto index token\",\n            18,\n            \"CRYPTIX\"\n        );\n        priceOracle = new PriceOracle();\n        isLocked = false;\n\n        tokens.push(\n            TokenInfo({ // WETH\n                tokenAddress: 0xC02aaA39b223FE8D0A0e5C4F27eAD9083C756Cc2,\n                priceOracleAddress: 0x5f4eC3Df9cbd43714FE2740f5E3616155c5b8419,\n                poolFee: 3000,\n                indexPercentage: 20\n            })\n        );\n        tokens.push(\n            TokenInfo({ // LINK\n                tokenAddress: 0x514910771AF9Ca656af840dff83E8264EcF986CA,\n                priceOracleAddress: 0x2c1d072e956AFFC0D435Cb7AC38EF18d24d9127c,\n                poolFee: 3000,\n                indexPercentage: 10\n            })\n        );\n        tokens.push(\n            TokenInfo({    // BNB\n                tokenAddress: 0x418D75f65a02b3D53B2418FB8E1fe493759c7605,\n                priceOracleAddress: 0x14e613AC84a31f709eadbdF89C6CC390fDc9540A,\n                poolFee: 3000,\n                indexPercentage: 20\n            })\n        );\n        // tokens.push(\n        //     TokenInfo({ // UNI\n        //         tokenAddress: 0x1f9840a85d5aF5bf1D1762F925BDADdC4201F984,\n        //         priceOracleAddress: 0x553303d460EE0afB37EdFf9bE42922D8FF63220e,\n        //         poolFee: 3000,\n        //         indexPercentage: 10\n        //     })\n        // );\n        // tokens.push(\n        //     TokenInfo({ //   1INCH\n        //         tokenAddress: 0x111111111117dC0aa78b770fA6A738034120C302,\n        //         priceOracleAddress: 0xc929ad75B72593967DE83E7F7Cda0493458261D9,\n        //         poolFee: 3000,\n        //         indexPercentage: 10\n        //     })\n        // );\n        // tokens.push(TokenInfo({    //   SNX\n        //     tokenAddress: 0xC011a73ee8576Fb46F5E1c5751cA3B9Fe0af2a6F,\n        //     priceOracleAddress: 0xDC3EA94CD0AC27d9A86C180091e7f78C683d3699,\n        //     poolFee: 3000,\n        //     indexPercentage: 10\n        // }));\n        // tokens.push(TokenInfo({    //   YFI\n        //     tokenAddress: 0x0bc529c00C6401aEF6D220BE8C6Ea1667F6Ad93e,\n        //     priceOracleAddress: 0xA027702dbb89fbd58938e4324ac03B58d812b0E1,\n        //     poolFee: 3000,\n        //     indexPercentage: 10\n        // }));\n        // tokens.push(TokenInfo({    //   COMP\n        //     tokenAddress: 0xc00e94Cb662C3520282E6f5717214004A7f26888,\n        //     priceOracleAddress: 0xdbd020CAeF83eFd542f4De03e3cF0C28A4428bd5,\n        //     poolFee: 3000,\n        //     indexPercentage: 10\n        // }));\n        // tokens.push(TokenInfo({    //   MKR\n        //     tokenAddress: 0x9f8F72aA9304c8B593d555F12eF6589cC3A579A2,\n        //     priceOracleAddress: 0xec1D1B3b0443256cc3860e24a46F108e699484Aa,\n        //     poolFee: 3000,\n        //     indexPercentage: 10\n        // }));\n    }\n\n    function buy(uint256 amount) external override {\n        uint256 indexPrice = getPrice();\n        (, uint256 realAmount) = calculateFee(amount);\n\n        uint256 indexTokens = (realAmount / indexPrice) * 1 ether;\n        require(indexTokens > 0, \"Not enough tokens sent\");\n\n        TransferHelper.safeTransferFrom(buyTokenAddress, msg.sender, address(this), amount);\n        TransferHelper.safeApprove(buyTokenAddress, dexRouterAddress, realAmount);\n\n        indexToken.transfer(msg.sender, indexTokens);\n        emit ProductBuy(msg.sender, realAmount, indexTokens);\n    }\n\n    function getPrice() public view override returns (uint256) {\n        uint256 indexTotalPrice;\n\n        for (uint256 i = 0; i < tokens.length; i++) {\n            TokenInfo memory token = tokens[i];\n            uint256 price = priceOracle.getPrice(token.priceOracleAddress);\n            indexTotalPrice += (price / 100) * token.indexPercentage;\n        }\n\n        return indexTotalPrice / indexPriceAdjustment;\n    }\n\n    function sell(uint256 amount) external override checkUnlocked {\n        require(\n            amount > 1 ether,\n            \"You must withdraw more funds from the index\"\n        );\n\n        TransferHelper.safeTransferFrom(\n            address(indexToken),\n            msg.sender,\n            address(this),\n            amount\n        );\n        ISwapRouter dexRouter = ISwapRouter(dexRouterAddress);\n        uint256 buyTokenAmount;\n        TokenInfo memory token;\n\n        for (uint256 index = 0; index < tokens.length; index++) {\n            token = tokens[index];\n            uint256 tokenAmount = (amount / 100) * token.indexPercentage;\n\n            TransferHelper.safeApprove(\n                token.tokenAddress,\n                dexRouterAddress,\n                tokenAmount\n            );\n\n            ISwapRouter.ExactInputSingleParams memory params = ISwapRouter\n                .ExactInputSingleParams({\n                    tokenIn: token.tokenAddress,\n                    tokenOut: buyTokenAddress,\n                    fee: token.poolFee,\n                    recipient: msg.sender,\n                    deadline: block.timestamp,\n                    amountIn: tokenAmount,\n                    amountOutMinimum: tokenAmount,\n                    sqrtPriceLimitX96: 0\n                });\n\n            buyTokenAmount += dexRouter.exactInputSingle(params);\n        }\n\n        emit ProductSell(msg.sender, buyTokenAmount, amount);\n    }\n}\n",
  "sourcePath": "D:\\JavascriptProjects\\crypto-index\\contracts\\indices\\BaseIndex.sol",
  "compiler": {
    "name": "solc",
    "version": "0.7.5+commit.eb77ed08.Linux.g++"
  },
  "schemaVersion": "3.4.6",
  "updatedAt": "2022-04-20T10:27:39.065Z",
  "devdoc": {
    "kind": "dev",
    "methods": {
      "owner()": {
        "details": "Returns the address of the current owner."
      },
      "renounceOwnership()": {
        "details": "Leaves the contract without owner. It will not be possible to call `onlyOwner` functions anymore. Can only be called by the current owner. NOTE: Renouncing ownership will leave the contract without an owner, thereby removing any functionality that is only available to the owner."
      },
      "transferOwnership(address)": {
        "details": "Transfers ownership of the contract to a new account (`newOwner`). Can only be called by the current owner."
      }
    },
    "version": 1
  },
  "userdoc": {
    "kind": "user",
    "methods": {},
    "version": 1
  }
}