{
  "contractName": "BaseIndex",
  "abi": [
    {
      "inputs": [
        {
          "internalType": "address",
          "name": "_dexRouterAddress",
          "type": "address"
        },
        {
          "internalType": "address",
          "name": "_dexFactoryAddress",
          "type": "address"
        },
        {
          "internalType": "address",
          "name": "_WETH",
          "type": "address"
        },
        {
          "internalType": "address",
          "name": "_buyTokenAddress",
          "type": "address"
        },
        {
          "internalType": "string",
          "name": "_indexTokenName",
          "type": "string"
        },
        {
          "internalType": "string",
          "name": "_indexTokenSymbol",
          "type": "string"
        }
      ],
      "stateMutability": "nonpayable",
      "type": "constructor"
    },
    {
      "anonymous": false,
      "inputs": [
        {
          "indexed": true,
          "internalType": "address",
          "name": "previousOwner",
          "type": "address"
        },
        {
          "indexed": true,
          "internalType": "address",
          "name": "newOwner",
          "type": "address"
        }
      ],
      "name": "OwnershipTransferred",
      "type": "event"
    },
    {
      "anonymous": false,
      "inputs": [
        {
          "indexed": false,
          "internalType": "address",
          "name": "account",
          "type": "address"
        },
        {
          "indexed": false,
          "internalType": "uint256",
          "name": "buyTokenAmount",
          "type": "uint256"
        },
        {
          "indexed": false,
          "internalType": "uint256",
          "name": "indexTokenAmount",
          "type": "uint256"
        }
      ],
      "name": "ProductBought",
      "type": "event"
    },
    {
      "anonymous": false,
      "inputs": [
        {
          "indexed": false,
          "internalType": "address",
          "name": "account",
          "type": "address"
        },
        {
          "indexed": false,
          "internalType": "uint256",
          "name": "buyTokenAmount",
          "type": "uint256"
        },
        {
          "indexed": false,
          "internalType": "uint256",
          "name": "indexTokenAmount",
          "type": "uint256"
        }
      ],
      "name": "ProductSold",
      "type": "event"
    },
    {
      "inputs": [],
      "name": "buyTokenAddress",
      "outputs": [
        {
          "internalType": "address",
          "name": "",
          "type": "address"
        }
      ],
      "stateMutability": "view",
      "type": "function"
    },
    {
      "inputs": [
        {
          "internalType": "uint256",
          "name": "amount",
          "type": "uint256"
        }
      ],
      "name": "calculateFee",
      "outputs": [
        {
          "internalType": "uint256",
          "name": "",
          "type": "uint256"
        },
        {
          "internalType": "uint256",
          "name": "",
          "type": "uint256"
        }
      ],
      "stateMutability": "view",
      "type": "function"
    },
    {
      "inputs": [
        {
          "internalType": "uint8",
          "name": "_fee",
          "type": "uint8"
        },
        {
          "internalType": "uint256",
          "name": "_feeTotal",
          "type": "uint256"
        }
      ],
      "name": "changeFee",
      "outputs": [],
      "stateMutability": "nonpayable",
      "type": "function"
    },
    {
      "inputs": [],
      "name": "getFee",
      "outputs": [
        {
          "internalType": "uint256",
          "name": "",
          "type": "uint256"
        },
        {
          "internalType": "uint256",
          "name": "",
          "type": "uint256"
        }
      ],
      "stateMutability": "view",
      "type": "function"
    },
    {
      "inputs": [],
      "name": "indexToken",
      "outputs": [
        {
          "internalType": "contract IndexToken",
          "name": "",
          "type": "address"
        }
      ],
      "stateMutability": "view",
      "type": "function"
    },
    {
      "inputs": [],
      "name": "isSettlementActive",
      "outputs": [
        {
          "internalType": "bool",
          "name": "",
          "type": "bool"
        }
      ],
      "stateMutability": "view",
      "type": "function"
    },
    {
      "inputs": [],
      "name": "owner",
      "outputs": [
        {
          "internalType": "address",
          "name": "",
          "type": "address"
        }
      ],
      "stateMutability": "view",
      "type": "function"
    },
    {
      "inputs": [],
      "name": "renounceOwnership",
      "outputs": [],
      "stateMutability": "nonpayable",
      "type": "function"
    },
    {
      "inputs": [
        {
          "internalType": "address",
          "name": "newOwner",
          "type": "address"
        }
      ],
      "name": "transferOwnership",
      "outputs": [],
      "stateMutability": "nonpayable",
      "type": "function"
    },
    {
      "inputs": [],
      "name": "name",
      "outputs": [
        {
          "internalType": "string",
          "name": "",
          "type": "string"
        }
      ],
      "stateMutability": "pure",
      "type": "function"
    },
    {
      "inputs": [],
      "name": "symbol",
      "outputs": [
        {
          "internalType": "string",
          "name": "",
          "type": "string"
        }
      ],
      "stateMutability": "pure",
      "type": "function"
    },
    {
      "inputs": [],
      "name": "getComponents",
      "outputs": [
        {
          "components": [
            {
              "internalType": "uint8",
              "name": "indexPercentage",
              "type": "uint8"
            },
            {
              "internalType": "address",
              "name": "tokenAddress",
              "type": "address"
            },
            {
              "internalType": "uint24[2]",
              "name": "poolFees",
              "type": "uint24[2]"
            },
            {
              "internalType": "address",
              "name": "intermediateToken",
              "type": "address"
            }
          ],
          "internalType": "struct BaseIndex.TokenInfo[]",
          "name": "",
          "type": "tuple[]"
        }
      ],
      "stateMutability": "view",
      "type": "function"
    },
    {
      "inputs": [],
      "name": "shortDescription",
      "outputs": [
        {
          "internalType": "string",
          "name": "",
          "type": "string"
        }
      ],
      "stateMutability": "pure",
      "type": "function"
    },
    {
      "inputs": [],
      "name": "longDescription",
      "outputs": [
        {
          "internalType": "string",
          "name": "",
          "type": "string"
        }
      ],
      "stateMutability": "pure",
      "type": "function"
    },
    {
      "inputs": [
        {
          "components": [
            {
              "internalType": "uint8",
              "name": "indexPercentage",
              "type": "uint8"
            },
            {
              "internalType": "address",
              "name": "tokenAddress",
              "type": "address"
            },
            {
              "internalType": "uint24[2]",
              "name": "poolFees",
              "type": "uint24[2]"
            },
            {
              "internalType": "address",
              "name": "intermediateToken",
              "type": "address"
            }
          ],
          "internalType": "struct BaseIndex.TokenInfo",
          "name": "token",
          "type": "tuple"
        }
      ],
      "name": "getTokenPrice",
      "outputs": [
        {
          "internalType": "uint256",
          "name": "",
          "type": "uint256"
        }
      ],
      "stateMutability": "view",
      "type": "function"
    },
    {
      "inputs": [],
      "name": "image",
      "outputs": [
        {
          "internalType": "string",
          "name": "",
          "type": "string"
        }
      ],
      "stateMutability": "pure",
      "type": "function"
    },
    {
      "inputs": [],
      "name": "getTotalLockedValue",
      "outputs": [
        {
          "internalType": "uint256",
          "name": "",
          "type": "uint256"
        }
      ],
      "stateMutability": "view",
      "type": "function"
    },
    {
      "inputs": [
        {
          "internalType": "uint256",
          "name": "amount",
          "type": "uint256"
        }
      ],
      "name": "buy",
      "outputs": [],
      "stateMutability": "nonpayable",
      "type": "function"
    },
    {
      "inputs": [
        {
          "internalType": "uint256",
          "name": "amount",
          "type": "uint256"
        }
      ],
      "name": "sell",
      "outputs": [],
      "stateMutability": "nonpayable",
      "type": "function"
    },
    {
      "inputs": [
        {
          "internalType": "uint256",
          "name": "amount",
          "type": "uint256"
        },
        {
          "internalType": "bool",
          "name": "isBuyDebt",
          "type": "bool"
        }
      ],
      "name": "retrieveDebt",
      "outputs": [],
      "stateMutability": "nonpayable",
      "type": "function"
    },
    {
      "inputs": [
        {
          "internalType": "bool",
          "name": "isBuy",
          "type": "bool"
        }
      ],
      "name": "getTotalDebt",
      "outputs": [
        {
          "internalType": "uint256",
          "name": "",
          "type": "uint256"
        }
      ],
      "stateMutability": "view",
      "type": "function"
    },
    {
      "inputs": [
        {
          "internalType": "address",
          "name": "user",
          "type": "address"
        },
        {
          "internalType": "bool",
          "name": "isBuy",
          "type": "bool"
        }
      ],
      "name": "getUserDebt",
      "outputs": [
        {
          "internalType": "uint256",
          "name": "",
          "type": "uint256"
        }
      ],
      "stateMutability": "view",
      "type": "function"
    },
    {
      "inputs": [],
      "name": "beginSettlement",
      "outputs": [],
      "stateMutability": "nonpayable",
      "type": "function"
    },
    {
      "inputs": [],
      "name": "endSettlement",
      "outputs": [],
      "stateMutability": "nonpayable",
      "type": "function"
    },
    {
      "inputs": [],
      "name": "manageTokens",
      "outputs": [],
      "stateMutability": "nonpayable",
      "type": "function"
    },
    {
      "inputs": [],
      "name": "getPrice",
      "outputs": [
        {
          "internalType": "uint256",
          "name": "",
          "type": "uint256"
        }
      ],
      "stateMutability": "view",
      "type": "function"
    }
  ],
  "bytecode": "0x61014060405260405162000013906200166a565b604051809103906000f08015801562000030573d6000803e3d6000fd5b5073ffffffffffffffffffffffffffffffffffffffff1660e09073ffffffffffffffffffffffffffffffffffffffff1660601b81525060405162000074906200166a565b604051809103906000f08015801562000091573d6000803e3d6000fd5b5073ffffffffffffffffffffffffffffffffffffffff166101009073ffffffffffffffffffffffffffffffffffffffff1660601b8152506000600755600060085560006009556000600a55348015620000e957600080fd5b50604051620089b0380380620089b083398181016040528101906200010f9190620017fa565b6000620001216200166260201b60201c565b9050806000806101000a81548173ffffffffffffffffffffffffffffffffffffffff021916908373ffffffffffffffffffffffffffffffffffffffff1602179055508073ffffffffffffffffffffffffffffffffffffffff16600073ffffffffffffffffffffffffffffffffffffffff167f8be0079c531659141344cd1fd0a4f28419497f9722a3daafe3b4186f6b6457e060405160405180910390a350600180819055508573ffffffffffffffffffffffffffffffffffffffff1660c08173ffffffffffffffffffffffffffffffffffffffff1660601b8152505082600260006101000a81548173ffffffffffffffffffffffffffffffffffffffff021916908373ffffffffffffffffffffffffffffffffffffffff1602179055508373ffffffffffffffffffffffffffffffffffffffff1660a08173ffffffffffffffffffffffffffffffffffffffff1660601b81525050848385604051620002869062001678565b620002949392919062001951565b604051809103906000f080158015620002b1573d6000803e3d6000fd5b5073ffffffffffffffffffffffffffffffffffffffff166101208173ffffffffffffffffffffffffffffffffffffffff1660601b8152505060028060146101000a81548160ff021916908360ff16021790555060646003819055503082600260009054906101000a900473ffffffffffffffffffffffffffffffffffffffff1673ffffffffffffffffffffffffffffffffffffffff1663313ce5676040518163ffffffff1660e01b815260040160206040518083038186803b1580156200037757600080fd5b505afa1580156200038c573d6000803e3d6000fd5b505050506040513d601f19601f82011682018060405250810190620003b29190620018c2565b83604051620003c19062001686565b620003d094939291906200198e565b604051809103906000f080158015620003ed573d6000803e3d6000fd5b5073ffffffffffffffffffffffffffffffffffffffff1660808173ffffffffffffffffffffffffffffffffffffffff1660601b8152505060066040518060800160405280600f60ff1681526020018673ffffffffffffffffffffffffffffffffffffffff1681526020016040518060400160405280610bb862ffffff1662ffffff168152602001610bb862ffffff1662ffffff168152508152602001600073ffffffffffffffffffffffffffffffffffffffff16815250908060018154018082558091505060019003906000526020600020906003020160009091909190915060008201518160000160006101000a81548160ff021916908360ff16021790555060208201518160000160016101000a81548173ffffffffffffffffffffffffffffffffffffffff021916908373ffffffffffffffffffffffffffffffffffffffff1602179055506040820151816001019060026200054e92919062001694565b5060608201518160020160006101000a81548173ffffffffffffffffffffffffffffffffffffffff021916908373ffffffffffffffffffffffffffffffffffffffff160217905550505060066040518060800160405280600560ff16815260200173514910771af9ca656af840dff83e8264ecf986ca73ffffffffffffffffffffffffffffffffffffffff1681526020016040518060400160405280610bb862ffffff1662ffffff168152602001610bb862ffffff1662ffffff1681525081526020018673ffffffffffffffffffffffffffffffffffffffff16815250908060018154018082558091505060019003906000526020600020906003020160009091909190915060008201518160000160006101000a81548160ff021916908360ff16021790555060208201518160000160016101000a81548173ffffffffffffffffffffffffffffffffffffffff021916908373ffffffffffffffffffffffffffffffffffffffff160217905550604082015181600101906002620006d592919062001694565b5060608201518160020160006101000a81548173ffffffffffffffffffffffffffffffffffffffff021916908373ffffffffffffffffffffffffffffffffffffffff160217905550505060066040518060800160405280600a60ff16815260200173418d75f65a02b3d53b2418fb8e1fe493759c760573ffffffffffffffffffffffffffffffffffffffff1681526020016040518060400160405280610bb862ffffff1662ffffff168152602001610bb862ffffff1662ffffff1681525081526020018673ffffffffffffffffffffffffffffffffffffffff16815250908060018154018082558091505060019003906000526020600020906003020160009091909190915060008201518160000160006101000a81548160ff021916908360ff16021790555060208201518160000160016101000a81548173ffffffffffffffffffffffffffffffffffffffff021916908373ffffffffffffffffffffffffffffffffffffffff1602179055506040820151816001019060026200085c92919062001694565b5060608201518160020160006101000a81548173ffffffffffffffffffffffffffffffffffffffff021916908373ffffffffffffffffffffffffffffffffffffffff160217905550505060066040518060800160405280600a60ff168152602001731f9840a85d5af5bf1d1762f925bdaddc4201f98473ffffffffffffffffffffffffffffffffffffffff1681526020016040518060400160405280610bb862ffffff1662ffffff168152602001610bb862ffffff1662ffffff1681525081526020018673ffffffffffffffffffffffffffffffffffffffff16815250908060018154018082558091505060019003906000526020600020906003020160009091909190915060008201518160000160006101000a81548160ff021916908360ff16021790555060208201518160000160016101000a81548173ffffffffffffffffffffffffffffffffffffffff021916908373ffffffffffffffffffffffffffffffffffffffff160217905550604082015181600101906002620009e392919062001694565b5060608201518160020160006101000a81548173ffffffffffffffffffffffffffffffffffffffff021916908373ffffffffffffffffffffffffffffffffffffffff160217905550505060066040518060800160405280600a60ff16815260200173111111111117dc0aa78b770fa6a738034120c30273ffffffffffffffffffffffffffffffffffffffff1681526020016040518060400160405280610bb862ffffff1662ffffff16815260200161271062ffffff1681525081526020018673ffffffffffffffffffffffffffffffffffffffff16815250908060018154018082558091505060019003906000526020600020906003020160009091909190915060008201518160000160006101000a81548160ff021916908360ff16021790555060208201518160000160016101000a81548173ffffffffffffffffffffffffffffffffffffffff021916908373ffffffffffffffffffffffffffffffffffffffff16021790555060408201518160010190600262000b6592919062001694565b5060608201518160020160006101000a81548173ffffffffffffffffffffffffffffffffffffffff021916908373ffffffffffffffffffffffffffffffffffffffff160217905550505060066040518060800160405280600560ff16815260200173c011a73ee8576fb46f5e1c5751ca3b9fe0af2a6f73ffffffffffffffffffffffffffffffffffffffff1681526020016040518060400160405280610bb862ffffff1662ffffff16815260200161271062ffffff1681525081526020018673ffffffffffffffffffffffffffffffffffffffff16815250908060018154018082558091505060019003906000526020600020906003020160009091909190915060008201518160000160006101000a81548160ff021916908360ff16021790555060208201518160000160016101000a81548173ffffffffffffffffffffffffffffffffffffffff021916908373ffffffffffffffffffffffffffffffffffffffff16021790555060408201518160010190600262000ce792919062001694565b5060608201518160020160006101000a81548173ffffffffffffffffffffffffffffffffffffffff021916908373ffffffffffffffffffffffffffffffffffffffff160217905550505060066040518060800160405280600560ff168152602001730bc529c00c6401aef6d220be8c6ea1667f6ad93e73ffffffffffffffffffffffffffffffffffffffff1681526020016040518060400160405280610bb862ffffff1662ffffff168152602001610bb862ffffff1662ffffff1681525081526020018673ffffffffffffffffffffffffffffffffffffffff16815250908060018154018082558091505060019003906000526020600020906003020160009091909190915060008201518160000160006101000a81548160ff021916908360ff16021790555060208201518160000160016101000a81548173ffffffffffffffffffffffffffffffffffffffff021916908373ffffffffffffffffffffffffffffffffffffffff16021790555060408201518160010190600262000e6e92919062001694565b5060608201518160020160006101000a81548173ffffffffffffffffffffffffffffffffffffffff021916908373ffffffffffffffffffffffffffffffffffffffff160217905550505060066040518060800160405280600560ff16815260200173c00e94cb662c3520282e6f5717214004a7f2688873ffffffffffffffffffffffffffffffffffffffff1681526020016040518060400160405280610bb862ffffff1662ffffff168152602001610bb862ffffff1662ffffff1681525081526020018673ffffffffffffffffffffffffffffffffffffffff16815250908060018154018082558091505060019003906000526020600020906003020160009091909190915060008201518160000160006101000a81548160ff021916908360ff16021790555060208201518160000160016101000a81548173ffffffffffffffffffffffffffffffffffffffff021916908373ffffffffffffffffffffffffffffffffffffffff16021790555060408201518160010190600262000ff592919062001694565b5060608201518160020160006101000a81548173ffffffffffffffffffffffffffffffffffffffff021916908373ffffffffffffffffffffffffffffffffffffffff160217905550505060066040518060800160405280600560ff168152602001739f8f72aa9304c8b593d555f12ef6589cc3a579a273ffffffffffffffffffffffffffffffffffffffff1681526020016040518060400160405280610bb862ffffff1662ffffff168152602001610bb862ffffff1662ffffff1681525081526020018673ffffffffffffffffffffffffffffffffffffffff16815250908060018154018082558091505060019003906000526020600020906003020160009091909190915060008201518160000160006101000a81548160ff021916908360ff16021790555060208201518160000160016101000a81548173ffffffffffffffffffffffffffffffffffffffff021916908373ffffffffffffffffffffffffffffffffffffffff1602179055506040820151816001019060026200117c92919062001694565b5060608201518160020160006101000a81548173ffffffffffffffffffffffffffffffffffffffff021916908373ffffffffffffffffffffffffffffffffffffffff160217905550505060066040518060800160405280600a60ff168152602001736b3595068778dd592e39a122f4f5a5cf09c90fe273ffffffffffffffffffffffffffffffffffffffff1681526020016040518060400160405280610bb862ffffff1662ffffff168152602001610bb862ffffff1662ffffff1681525081526020018673ffffffffffffffffffffffffffffffffffffffff16815250908060018154018082558091505060019003906000526020600020906003020160009091909190915060008201518160000160006101000a81548160ff021916908360ff16021790555060208201518160000160016101000a81548173ffffffffffffffffffffffffffffffffffffffff021916908373ffffffffffffffffffffffffffffffffffffffff1602179055506040820151816001019060026200130392919062001694565b5060608201518160020160006101000a81548173ffffffffffffffffffffffffffffffffffffffff021916908373ffffffffffffffffffffffffffffffffffffffff160217905550505060066040518060800160405280600a60ff168152602001734d224452801aced8b2f0aebe155379bb5d59438173ffffffffffffffffffffffffffffffffffffffff1681526020016040518060400160405280610bb862ffffff1662ffffff168152602001610bb862ffffff1662ffffff1681525081526020018673ffffffffffffffffffffffffffffffffffffffff16815250908060018154018082558091505060019003906000526020600020906003020160009091909190915060008201518160000160006101000a81548160ff021916908360ff16021790555060208201518160000160016101000a81548173ffffffffffffffffffffffffffffffffffffffff021916908373ffffffffffffffffffffffffffffffffffffffff1602179055506040820151816001019060026200148a92919062001694565b5060608201518160020160006101000a81548173ffffffffffffffffffffffffffffffffffffffff021916908373ffffffffffffffffffffffffffffffffffffffff160217905550505060066040518060800160405280600a60ff16815260200173d533a949740bb3306d119cc777fa900ba034cd5273ffffffffffffffffffffffffffffffffffffffff1681526020016040518060400160405280610bb862ffffff1662ffffff16815260200161271062ffffff1681525081526020018673ffffffffffffffffffffffffffffffffffffffff16815250908060018154018082558091505060019003906000526020600020906003020160009091909190915060008201518160000160006101000a81548160ff021916908360ff16021790555060208201518160000160016101000a81548173ffffffffffffffffffffffffffffffffffffffff021916908373ffffffffffffffffffffffffffffffffffffffff1602179055506040820151816001019060026200160c92919062001694565b5060608201518160020160006101000a81548173ffffffffffffffffffffffffffffffffffffffff021916908373ffffffffffffffffffffffffffffffffffffffff160217905550505050505050505062001b2a565b600033905090565b610cc38062005d5583390190565b610c998062006a1883390190565b6112ff80620076b183390190565b826002600901600a90048101928215620017285791602002820160005b83821115620016f557835183826101000a81548162ffffff021916908362ffffff1602179055509260200192600301602081600201049283019260010302620016b1565b8015620017265782816101000a81549062ffffff0219169055600301602081600201049283019260010302620016f5565b505b5090506200173791906200173b565b5090565b5b80821115620017565760008160009055506001016200173c565b5090565b6000620017716200176b8462001a1d565b620019e9565b9050828152602081018484840111156200178a57600080fd5b6200179784828562001aad565b509392505050565b600081519050620017b08162001af6565b92915050565b600082601f830112620017c857600080fd5b8151620017da8482602086016200175a565b91505092915050565b600081519050620017f48162001b10565b92915050565b60008060008060008060c087890312156200181457600080fd5b60006200182489828a016200179f565b96505060206200183789828a016200179f565b95505060406200184a89828a016200179f565b94505060606200185d89828a016200179f565b935050608087015167ffffffffffffffff8111156200187b57600080fd5b6200188989828a01620017b6565b92505060a087015167ffffffffffffffff811115620018a757600080fd5b620018b589828a01620017b6565b9150509295509295509295565b600060208284031215620018d557600080fd5b6000620018e584828501620017e3565b91505092915050565b620018f98162001a6c565b82525050565b60006200190c8262001a50565b62001918818562001a5b565b93506200192a81856020860162001aad565b620019358162001ae5565b840191505092915050565b6200194b8162001aa0565b82525050565b6000606082019050620019686000830186620018ee565b620019776020830185620018ee565b620019866040830184620018ee565b949350505050565b6000608082019050620019a56000830187620018ee565b8181036020830152620019b98186620018ff565b9050620019ca604083018562001940565b8181036060830152620019de8184620018ff565b905095945050505050565b6000604051905081810181811067ffffffffffffffff8211171562001a135762001a1262001ae3565b5b8060405250919050565b600067ffffffffffffffff82111562001a3b5762001a3a62001ae3565b5b601f19601f8301169050602081019050919050565b600081519050919050565b600082825260208201905092915050565b600062001a798262001a80565b9050919050565b600073ffffffffffffffffffffffffffffffffffffffff82169050919050565b600060ff82169050919050565b60005b8381101562001acd57808201518184015260208101905062001ab0565b8381111562001add576000848401525b50505050565bfe5b6000601f19601f8301169050919050565b62001b018162001a6c565b811462001b0d57600080fd5b50565b62001b1b8162001aa0565b811462001b2757600080fd5b50565b60805160601c60a05160601c60c05160601c60e05160601c6101005160601c6101205160601c61418e62001bc7600039806115b152508061073352806108d7528061141b528061205652806121c352508061070d52806108b152806117c852806118845280612030528061227f525080611feb52806127895280612b165280612c2452505080610a7e528061194a52806119d4525061418e6000f3fe608060405234801561001057600080fd5b506004361061013e5760003560e01c806306fdde031461014357806313a7e54e146101615780631da989601461017d57806360ebbf811461019b578063715018a6146101b95780637805d4be146101c3578063782fa9c9146101f35780638da5cb5b1461020f57806395d89b411461022d57806398d5fdca1461024b57806399a5d7471461026957806399d50d5d1461029a578063b7597914146102b8578063ba25d944146102d6578063c20120b5146102f4578063ced72f8714610312578063d96a094a14610331578063e43e38031461034d578063e4849b321461037d578063e7d015f214610399578063ea4c1b45146103b7578063f2fde38b146103c1578063f3ccaac0146103dd578063f510d908146103fb578063f76f691c14610405578063fa2dcd9314610435575b600080fd5b61014b61043f565b6040516101589190613c35565b60405180910390f35b61017b60048036038101906101769190613413565b61047c565b005b610185610551565b6040516101929190613c35565b60405180910390f35b6101a3610571565b6040516101b09190613acb565b60405180910390f35b6101c1610597565b005b6101dd60048036038101906101d89190613333565b610704565b6040516101ea9190613d53565b60405180910390f35b61020d600480360381019061020891906133d7565b6107d7565b005b610217610b97565b6040516102249190613acb565b60405180910390f35b610235610bc0565b6040516102429190613c35565b60405180910390f35b610253610bfd565b6040516102609190613d53565b60405180910390f35b610283600480360381019061027e9190613385565b610dd5565b604051610291929190613d97565b60405180910390f35b6102a2610e39565b6040516102af9190613bdd565b60405180910390f35b6102c0610fd0565b6040516102cd9190613d53565b60405180910390f35b6102de611236565b6040516102eb9190613c35565b60405180910390f35b6102fc611256565b6040516103099190613bff565b60405180910390f35b61031a61126d565b604051610328929190613d97565b60405180910390f35b61034b60048036038101906103469190613385565b611291565b005b6103676004803603810190610362919061335c565b6115ad565b6040516103749190613d53565b60405180910390f35b61039760048036038101906103929190613385565b61166f565b005b6103a16119d2565b6040516103ae9190613c1a565b60405180910390f35b6103bf6119f6565b005b6103db60048036038101906103d691906132ce565b611ca8565b005b6103e5611e9a565b6040516103f29190613c35565b60405180910390f35b610403611eba565b005b61041f600480360381019061041a91906132f7565b612027565b60405161042c9190613d53565b60405180910390f35b61043d612106565b005b60606040518060400160405280600b81526020017f43727970746f496e646578000000000000000000000000000000000000000000815250905090565b610484612343565b73ffffffffffffffffffffffffffffffffffffffff166104a2610b97565b73ffffffffffffffffffffffffffffffffffffffff161461052b576040517f08c379a00000000000000000000000000000000000000000000000000000000081526004018080602001828103825260208152602001807f4f776e61626c653a2063616c6c6572206973206e6f7420746865206f776e657281525060200191505060405180910390fd5b81600260146101000a81548160ff021916908360ff160217905550806003819055505050565b606060405180608001604052806049815260200161411060499139905090565b600260009054906101000a900473ffffffffffffffffffffffffffffffffffffffff1681565b61059f612343565b73ffffffffffffffffffffffffffffffffffffffff166105bd610b97565b73ffffffffffffffffffffffffffffffffffffffff1614610646576040517f08c379a00000000000000000000000000000000000000000000000000000000081526004018080602001828103825260208152602001807f4f776e61626c653a2063616c6c6572206973206e6f7420746865206f776e657281525060200191505060405180910390fd5b600073ffffffffffffffffffffffffffffffffffffffff1660008054906101000a900473ffffffffffffffffffffffffffffffffffffffff1673ffffffffffffffffffffffffffffffffffffffff167f8be0079c531659141344cd1fd0a4f28419497f9722a3daafe3b4186f6b6457e060405160405180910390a360008060006101000a81548173ffffffffffffffffffffffffffffffffffffffff021916908373ffffffffffffffffffffffffffffffffffffffff160217905550565b600081610731577f0000000000000000000000000000000000000000000000000000000000000000610753565b7f00000000000000000000000000000000000000000000000000000000000000005b73ffffffffffffffffffffffffffffffffffffffff166334ce998a6040518163ffffffff1660e01b815260040160206040518083038186803b15801561079857600080fd5b505afa1580156107ac573d6000803e3d6000fd5b505050506040513d601f19601f820116820180604052508101906107d091906133ae565b9050919050565b60026001541415610850576040517f08c379a000000000000000000000000000000000000000000000000000000000815260040180806020018281038252601f8152602001807f5265656e7472616e637947756172643a207265656e7472616e742063616c6c0081525060200191505060405180910390fd5b6002600181905550600560009054906101000a900460ff16156108a8576040517f08c379a000000000000000000000000000000000000000000000000000000000815260040161089f90613c97565b60405180910390fd5b6000816108d5577f00000000000000000000000000000000000000000000000000000000000000006108f7565b7f00000000000000000000000000000000000000000000000000000000000000005b9050828173ffffffffffffffffffffffffffffffffffffffff166334ce998a6040518163ffffffff1660e01b815260040160206040518083038186803b15801561094057600080fd5b505afa158015610954573d6000803e3d6000fd5b505050506040513d601f19601f8201168201806040525081019061097891906133ae565b10158015610a0e5750828173ffffffffffffffffffffffffffffffffffffffff1663e65896c9336040518263ffffffff1660e01b81526004016109bb9190613ae6565b60206040518083038186803b1580156109d357600080fd5b505afa1580156109e7573d6000803e3d6000fd5b505050506040513d601f19601f82011682018060405250810190610a0b91906133ae565b10155b610a4d576040517f08c379a0000000000000000000000000000000000000000000000000000000008152600401610a4490613c77565b60405180910390fd5b600082610a7c57600260009054906101000a900473ffffffffffffffffffffffffffffffffffffffff16610a9e565b7f00000000000000000000000000000000000000000000000000000000000000005b9050610aac8130338761234b565b8173ffffffffffffffffffffffffffffffffffffffff1663cca5e4b1338660006040518463ffffffff1660e01b8152600401610aea93929190613b01565b600060405180830381600087803b158015610b0457600080fd5b505af1158015610b18573d6000803e3d6000fd5b505050508173ffffffffffffffffffffffffffffffffffffffff1663f8c493d68560006040518363ffffffff1660e01b8152600401610b58929190613d6e565b600060405180830381600087803b158015610b7257600080fd5b505af1158015610b86573d6000803e3d6000fd5b505050505050600180819055505050565b60008060009054906101000a900473ffffffffffffffffffffffffffffffffffffffff16905090565b60606040518060400160405280600781526020017f4352595054495800000000000000000000000000000000000000000000000000815250905090565b6000806000905060005b600680549050811015610dcd57600060068281548110610c2357fe5b90600052602060002090600302016040518060800160405290816000820160009054906101000a900460ff1660ff1660ff1681526020016000820160019054906101000a900473ffffffffffffffffffffffffffffffffffffffff1673ffffffffffffffffffffffffffffffffffffffff1673ffffffffffffffffffffffffffffffffffffffff16815260200160018201600280602002604051908101604052809291908260028015610d15576020028201916000905b82829054906101000a900462ffffff1662ffffff1681526020019060030190602082600201049283019260010382029150808411610cda5790505b505050505081526020016002820160009054906101000a900473ffffffffffffffffffffffffffffffffffffffff1673ffffffffffffffffffffffffffffffffffffffff1673ffffffffffffffffffffffffffffffffffffffff16815250509050610dbd610dae6064610da0846000015160ff16610d92866115ad565b61256b90919063ffffffff16565b6125f190919063ffffffff16565b8461267a90919063ffffffff16565b9250508080600101915050610c07565b508091505090565b6000806000610e13600260149054906101000a900460ff1660ff16610e05600354876125f190919063ffffffff16565b61256b90919063ffffffff16565b90506000610e2a828661270290919063ffffffff16565b90508181935093505050915091565b60606006805480602002602001604051908101604052809291908181526020016000905b82821015610fc757838290600052602060002090600302016040518060800160405290816000820160009054906101000a900460ff1660ff1660ff1681526020016000820160019054906101000a900473ffffffffffffffffffffffffffffffffffffffff1673ffffffffffffffffffffffffffffffffffffffff1673ffffffffffffffffffffffffffffffffffffffff16815260200160018201600280602002604051908101604052809291908260028015610f59576020028201916000905b82829054906101000a900462ffffff1662ffffff1681526020019060030190602082600201049283019260010382029150808411610f1e5790505b505050505081526020016002820160009054906101000a900473ffffffffffffffffffffffffffffffffffffffff1673ffffffffffffffffffffffffffffffffffffffff1673ffffffffffffffffffffffffffffffffffffffff168152505081526020019060010190610e5d565b50505050905090565b60008060005b60068054905081101561122e57600060068281548110610ff257fe5b90600052602060002090600302016040518060800160405290816000820160009054906101000a900460ff1660ff1660ff1681526020016000820160019054906101000a900473ffffffffffffffffffffffffffffffffffffffff1673ffffffffffffffffffffffffffffffffffffffff1673ffffffffffffffffffffffffffffffffffffffff168152602001600182016002806020026040519081016040528092919082600280156110e4576020028201916000905b82829054906101000a900462ffffff1662ffffff16815260200190600301906020826002010492830192600103820291508084116110a95790505b505050505081526020016002820160009054906101000a900473ffffffffffffffffffffffffffffffffffffffff1673ffffffffffffffffffffffffffffffffffffffff1673ffffffffffffffffffffffffffffffffffffffff1681525050905060006111ee611153836115ad565b836020015173ffffffffffffffffffffffffffffffffffffffff166370a08231306040518263ffffffff1660e01b81526004016111909190613acb565b60206040518083038186803b1580156111a857600080fd5b505afa1580156111bc573d6000803e3d6000fd5b505050506040513d601f19601f820116820180604052508101906111e091906133ae565b61256b90919063ffffffff16565b905061121d61120e670de0b6b3a7640000836125f190919063ffffffff16565b8561267a90919063ffffffff16565b935050508080600101915050610fd6565b508091505090565b606060405180608001604052806049815260200161411060499139905090565b6000600560009054906101000a900460ff16905090565b600080600260149054906101000a900460ff166003548160ff169150915091509091565b6002600154141561130a576040517f08c379a000000000000000000000000000000000000000000000000000000000815260040180806020018281038252601f8152602001807f5265656e7472616e637947756172643a207265656e7472616e742063616c6c0081525060200191505060405180910390fd5b6002600181905550600560009054906101000a900460ff1615611362576040517f08c379a000000000000000000000000000000000000000000000000000000000815260040161135990613c97565b60405180910390fd5b60008061136e83610dd5565b915091506000811180156113825750600082115b6113c1576040517f08c379a00000000000000000000000000000000000000000000000000000000081526004016113b890613c57565b60405180910390fd5b60006113cb610bfd565b905060006113fc670de0b6b3a76400006113ee848661256b90919063ffffffff16565b6125f190919063ffffffff16565b90506114138160095461267a90919063ffffffff16565b6009819055507f000000000000000000000000000000000000000000000000000000000000000073ffffffffffffffffffffffffffffffffffffffff1663cca5e4b1338560016040518463ffffffff1660e01b815260040161147793929190613b01565b600060405180830381600087803b15801561149157600080fd5b505af11580156114a5573d6000803e3d6000fd5b50505050611503600260009054906101000a900473ffffffffffffffffffffffffffffffffffffffff1633306114fe670de0b6b3a76400006114f0888c61256b90919063ffffffff16565b6125f190919063ffffffff16565b61234b565b611564600260009054906101000a900473ffffffffffffffffffffffffffffffffffffffff1630611532610b97565b61155f671bc16d674ec80000611551888b61256b90919063ffffffff16565b6125f190919063ffffffff16565b61234b565b7fc032f62758cac23a902e648ab54b6825665b9bc19e7cd0a8ab915cbf3eea4fa033828560405161159793929190613b38565b60405180910390a1505050506001808190555050565b60007f000000000000000000000000000000000000000000000000000000000000000073ffffffffffffffffffffffffffffffffffffffff1663ae5621b88360200151846040015185606001516040518463ffffffff1660e01b815260040161161893929190613b6f565b60206040518083038186803b15801561163057600080fd5b505afa158015611644573d6000803e3d6000fd5b505050506040513d601f19601f8201168201806040525081019061166891906133ae565b9050919050565b600260015414156116e8576040517f08c379a000000000000000000000000000000000000000000000000000000000815260040180806020018281038252601f8152602001807f5265656e7472616e637947756172643a207265656e7472616e742063616c6c0081525060200191505060405180910390fd5b6002600181905550600560009054906101000a900460ff1615611740576040517f08c379a000000000000000000000000000000000000000000000000000000000815260040161173790613c97565b60405180910390fd5b60008061174c83610dd5565b915091506000811180156117605750600082115b61179f576040517f08c379a000000000000000000000000000000000000000000000000000000000815260040161179690613cb7565b60405180910390fd5b60006117a9610bfd565b90506117c08460085461267a90919063ffffffff16565b6008819055507f000000000000000000000000000000000000000000000000000000000000000073ffffffffffffffffffffffffffffffffffffffff1663cca5e4b133611830670de0b6b3a7640000611822868861256b90919063ffffffff16565b6125f190919063ffffffff16565b60016040518463ffffffff1660e01b815260040161185093929190613b01565b600060405180830381600087803b15801561186a57600080fd5b505af115801561187e573d6000803e3d6000fd5b505050507f000000000000000000000000000000000000000000000000000000000000000073ffffffffffffffffffffffffffffffffffffffff1663cca5e4b16118c6610b97565b6118f3670de0b6b3a76400006118e5868961256b90919063ffffffff16565b6125f190919063ffffffff16565b60016040518463ffffffff1660e01b815260040161191393929190613ba6565b600060405180830381600087803b15801561192d57600080fd5b505af1158015611941573d6000803e3d6000fd5b505050506119717f000000000000000000000000000000000000000000000000000000000000000033308761234b565b7fc779ed4173ee0a3293a6575326fb4fcb5c81023bbc481cf910100c0fbe836e33336119ad61199e610bfd565b8561256b90919063ffffffff16565b846040516119bd93929190613b38565b60405180910390a15050506001808190555050565b7f000000000000000000000000000000000000000000000000000000000000000081565b6119fe612343565b73ffffffffffffffffffffffffffffffffffffffff16611a1c610b97565b73ffffffffffffffffffffffffffffffffffffffff1614611aa5576040517f08c379a00000000000000000000000000000000000000000000000000000000081526004018080602001828103825260208152602001807f4f776e61626c653a2063616c6c6572206973206e6f7420746865206f776e657281525060200191505060405180910390fd5b60016007600082825401925050819055506001600680549050036007541115611ad15760006007819055505b6000600660075481548110611ae257fe5b90600052602060002090600302016040518060800160405290816000820160009054906101000a900460ff1660ff1660ff1681526020016000820160019054906101000a900473ffffffffffffffffffffffffffffffffffffffff1673ffffffffffffffffffffffffffffffffffffffff1673ffffffffffffffffffffffffffffffffffffffff16815260200160018201600280602002604051908101604052809291908260028015611bd4576020028201916000905b82829054906101000a900462ffffff1662ffffff1681526020019060030190602082600201049283019260010382029150808411611b995790505b505050505081526020016002820160009054906101000a900473ffffffffffffffffffffffffffffffffffffffff1673ffffffffffffffffffffffffffffffffffffffff1673ffffffffffffffffffffffffffffffffffffffff168152505090506000611c666064611c58846000015160ff1660095461256b90919063ffffffff16565b6125f190919063ffffffff16565b90506000611c73836115ad565b90506000821115611c8a57611c89838383612785565b5b60006008541115611ca357611ca28360085483612b12565b5b505050565b611cb0612343565b73ffffffffffffffffffffffffffffffffffffffff16611cce610b97565b73ffffffffffffffffffffffffffffffffffffffff1614611d57576040517f08c379a00000000000000000000000000000000000000000000000000000000081526004018080602001828103825260208152602001807f4f776e61626c653a2063616c6c6572206973206e6f7420746865206f776e657281525060200191505060405180910390fd5b600073ffffffffffffffffffffffffffffffffffffffff168173ffffffffffffffffffffffffffffffffffffffff161415611ddd576040517f08c379a00000000000000000000000000000000000000000000000000000000081526004018080602001828103825260268152602001806140886026913960400191505060405180910390fd5b8073ffffffffffffffffffffffffffffffffffffffff1660008054906101000a900473ffffffffffffffffffffffffffffffffffffffff1673ffffffffffffffffffffffffffffffffffffffff167f8be0079c531659141344cd1fd0a4f28419497f9722a3daafe3b4186f6b6457e060405160405180910390a3806000806101000a81548173ffffffffffffffffffffffffffffffffffffffff021916908373ffffffffffffffffffffffffffffffffffffffff16021790555050565b60606040518060800160405280604181526020016140ae60419139905090565b611ec2612343565b73ffffffffffffffffffffffffffffffffffffffff16611ee0610b97565b73ffffffffffffffffffffffffffffffffffffffff1614611f69576040517f08c379a00000000000000000000000000000000000000000000000000000000081526004018080602001828103825260208152602001807f4f776e61626c653a2063616c6c6572206973206e6f7420746865206f776e657281525060200191505060405180910390fd5b6001600560006101000a81548160ff0219169083151502179055506000611fc1600354611fb3600260149054906101000a900460ff1660ff1660095461256b90919063ffffffff16565b6125f190919063ffffffff16565b9050612024600260009054906101000a900473ffffffffffffffffffffffffffffffffffffffff167f000000000000000000000000000000000000000000000000000000000000000061201f8460095461267a90919063ffffffff16565b612f51565b50565b600081612054577f0000000000000000000000000000000000000000000000000000000000000000612076565b7f00000000000000000000000000000000000000000000000000000000000000005b73ffffffffffffffffffffffffffffffffffffffff1663e65896c9846040518263ffffffff1660e01b81526004016120ae9190613acb565b60206040518083038186803b1580156120c657600080fd5b505afa1580156120da573d6000803e3d6000fd5b505050506040513d601f19601f820116820180604052508101906120fe91906133ae565b905092915050565b61210e612343565b73ffffffffffffffffffffffffffffffffffffffff1661212c610b97565b73ffffffffffffffffffffffffffffffffffffffff16146121b5576040517f08c379a00000000000000000000000000000000000000000000000000000000081526004018080602001828103825260208152602001807f4f776e61626c653a2063616c6c6572206973206e6f7420746865206f776e657281525060200191505060405180910390fd5b60006121bf610bfd565b90507f000000000000000000000000000000000000000000000000000000000000000073ffffffffffffffffffffffffffffffffffffffff1663f8c493d661222c8361221e670de0b6b3a764000060095461256b90919063ffffffff16565b6125f190919063ffffffff16565b60016040518363ffffffff1660e01b815260040161224b929190613d6e565b600060405180830381600087803b15801561226557600080fd5b505af1158015612279573d6000803e3d6000fd5b505050507f000000000000000000000000000000000000000000000000000000000000000073ffffffffffffffffffffffffffffffffffffffff1663f8c493d6600a5460016040518363ffffffff1660e01b81526004016122db929190613d6e565b600060405180830381600087803b1580156122f557600080fd5b505af1158015612309573d6000803e3d6000fd5b50505050600060098190555060006008819055506000600a819055506000600560006101000a81548160ff02191690831515021790555050565b600033905090565b6000808573ffffffffffffffffffffffffffffffffffffffff166323b872dd60e01b868686604051602401808473ffffffffffffffffffffffffffffffffffffffff1681526020018373ffffffffffffffffffffffffffffffffffffffff1681526020018281526020019350505050604051602081830303815290604052907bffffffffffffffffffffffffffffffffffffffffffffffffffffffff19166020820180517bffffffffffffffffffffffffffffffffffffffffffffffffffffffff83818316178352505050506040518082805190602001908083835b6020831061244a5780518252602082019150602081019050602083039250612427565b6001836020036101000a0380198251168184511680821785525050505050509050019150506000604051808303816000865af19150503d80600081146124ac576040519150601f19603f3d011682016040523d82523d6000602084013e6124b1565b606091505b50915091508180156124f157506000815114806124f057508080602001905160208110156124de57600080fd5b81019080805190602001909291905050505b5b612563576040517f08c379a00000000000000000000000000000000000000000000000000000000081526004018080602001828103825260038152602001807f535446000000000000000000000000000000000000000000000000000000000081525060200191505060405180910390fd5b505050505050565b60008083141561257e57600090506125eb565b600082840290508284828161258f57fe5b04146125e6576040517f08c379a00000000000000000000000000000000000000000000000000000000081526004018080602001828103825260218152602001806140ef6021913960400191505060405180910390fd5b809150505b92915050565b6000808211612668576040517f08c379a000000000000000000000000000000000000000000000000000000000815260040180806020018281038252601a8152602001807f536166654d6174683a206469766973696f6e206279207a65726f00000000000081525060200191505060405180910390fd5b81838161267157fe5b04905092915050565b6000808284019050838110156126f8576040517f08c379a000000000000000000000000000000000000000000000000000000000815260040180806020018281038252601b8152602001807f536166654d6174683a206164646974696f6e206f766572666c6f77000000000081525060200191505060405180910390fd5b8091505092915050565b60008282111561277a576040517f08c379a000000000000000000000000000000000000000000000000000000000815260040180806020018281038252601e8152602001807f536166654d6174683a207375627472616374696f6e206f766572666c6f77000081525060200191505060405180910390fd5b818303905092915050565b60007f0000000000000000000000000000000000000000000000000000000000000000905060006127d9836127cb670de0b6b3a76400008761256b90919063ffffffff16565b6125f190919063ffffffff16565b9050600061282861281960035461280b600260149054906101000a900460ff1660ff168961256b90919063ffffffff16565b6125f190919063ffffffff16565b8661267a90919063ffffffff16565b9050600073ffffffffffffffffffffffffffffffffffffffff16866060015173ffffffffffffffffffffffffffffffffffffffff1614156129c6578273ffffffffffffffffffffffffffffffffffffffff1663db3e2198604051806101000160405280600260009054906101000a900473ffffffffffffffffffffffffffffffffffffffff1673ffffffffffffffffffffffffffffffffffffffff168152602001896020015173ffffffffffffffffffffffffffffffffffffffff16815260200189604001516000600281106128fa57fe5b602002015162ffffff1681526020013073ffffffffffffffffffffffffffffffffffffffff168152602001428152602001858152602001848152602001600073ffffffffffffffffffffffffffffffffffffffff168152506040518263ffffffff1660e01b815260040161296e9190613d37565b602060405180830381600087803b15801561298857600080fd5b505af115801561299c573d6000803e3d6000fd5b505050506040513d601f19601f820116820180604052508101906129c091906133ae565b50612b0a565b8273ffffffffffffffffffffffffffffffffffffffff1663f28c04986040518060a0016040528089602001518a60400151600160028110612a0357fe5b60200201518b606001518c60400151600060028110612a1e57fe5b6020020151600260009054906101000a900473ffffffffffffffffffffffffffffffffffffffff16604051602001612a5a959493929190613a6c565b60405160208183030381529060405281526020013073ffffffffffffffffffffffffffffffffffffffff168152602001428152602001858152602001848152506040518263ffffffff1660e01b8152600401612ab69190613d15565b602060405180830381600087803b158015612ad057600080fd5b505af1158015612ae4573d6000803e3d6000fd5b505050506040513d601f19601f82011682018060405250810190612b0891906133ae565b505b505050505050565b60007f000000000000000000000000000000000000000000000000000000000000000090506000612b7f6064612b71876000015160ff16612b63612b54610bfd565b8961256b90919063ffffffff16565b61256b90919063ffffffff16565b6125f190919063ffffffff16565b90506000612b9684836125f190919063ffffffff16565b90506000612bc7670de0b6b3a7640000612bb9878561256b90919063ffffffff16565b6125f190919063ffffffff16565b90506000612c16612c07600354612bf9600260149054906101000a900460ff1660ff168661256b90919063ffffffff16565b6125f190919063ffffffff16565b8361270290919063ffffffff16565b90506000612c4989602001517f000000000000000000000000000000000000000000000000000000000000000086612f51565b600073ffffffffffffffffffffffffffffffffffffffff16896060015173ffffffffffffffffffffffffffffffffffffffff161415612de6578573ffffffffffffffffffffffffffffffffffffffff1663414bf3896040518061010001604052808c6020015173ffffffffffffffffffffffffffffffffffffffff168152602001600260009054906101000a900473ffffffffffffffffffffffffffffffffffffffff1673ffffffffffffffffffffffffffffffffffffffff1681526020018c60400151600060028110612d1957fe5b602002015162ffffff1681526020013073ffffffffffffffffffffffffffffffffffffffff168152602001428152602001878152602001858152602001600073ffffffffffffffffffffffffffffffffffffffff168152506040518263ffffffff1660e01b8152600401612d8d9190613cf9565b602060405180830381600087803b158015612da757600080fd5b505af1158015612dbb573d6000803e3d6000fd5b505050506040513d601f19601f82011682018060405250810190612ddf91906133ae565b9050612f2b565b8573ffffffffffffffffffffffffffffffffffffffff1663c04b8d596040518060a001604052808c602001518d60400151600160028110612e2357fe5b60200201518e606001518f60400151600060028110612e3e57fe5b6020020151600260009054906101000a900473ffffffffffffffffffffffffffffffffffffffff16604051602001612e7a959493929190613a6c565b60405160208183030381529060405281526020013073ffffffffffffffffffffffffffffffffffffffff168152602001428152602001878152602001858152506040518263ffffffff1660e01b8152600401612ed69190613cd7565b602060405180830381600087803b158015612ef057600080fd5b505af1158015612f04573d6000803e3d6000fd5b505050506040513d601f19601f82011682018060405250810190612f2891906133ae565b90505b612f4081600a5461267a90919063ffffffff16565b600a81905550505050505050505050565b6000808473ffffffffffffffffffffffffffffffffffffffff1663095ea7b360e01b8585604051602401808373ffffffffffffffffffffffffffffffffffffffff16815260200182815260200192505050604051602081830303815290604052907bffffffffffffffffffffffffffffffffffffffffffffffffffffffff19166020820180517bffffffffffffffffffffffffffffffffffffffffffffffffffffffff83818316178352505050506040518082805190602001908083835b60208310613032578051825260208201915060208101905060208303925061300f565b6001836020036101000a0380198251168184511680821785525050505050509050019150506000604051808303816000865af19150503d8060008114613094576040519150601f19603f3d011682016040523d82523d6000602084013e613099565b606091505b50915091508180156130d957506000815114806130d857508080602001905160208110156130c657600080fd5b81019080805190602001909291905050505b5b61314b576040517f08c379a00000000000000000000000000000000000000000000000000000000081526004018080602001828103825260028152602001807f534100000000000000000000000000000000000000000000000000000000000081525060200191505060405180910390fd5b5050505050565b600061316561316084613df1565b613dc0565b9050808285602086028201111561317b57600080fd5b60005b858110156131ab5781613191888261327a565b84526020840193506020830192505060018101905061317e565b5050509392505050565b6000813590506131c481614014565b92915050565b600082601f8301126131db57600080fd5b60026131e8848285613152565b91505092915050565b6000813590506132008161402b565b92915050565b600060a0828403121561321857600080fd5b6132226080613dc0565b90506000613232848285016132b9565b6000830152506020613246848285016131b5565b602083015250604061325a848285016131ca565b604083015250608061326e848285016131b5565b60608301525092915050565b60008135905061328981614042565b92915050565b60008135905061329e81614059565b92915050565b6000815190506132b381614059565b92915050565b6000813590506132c881614070565b92915050565b6000602082840312156132e057600080fd5b60006132ee848285016131b5565b91505092915050565b6000806040838503121561330a57600080fd5b6000613318858286016131b5565b9250506020613329858286016131f1565b9150509250929050565b60006020828403121561334557600080fd5b6000613353848285016131f1565b91505092915050565b600060a0828403121561336e57600080fd5b600061337c84828501613206565b91505092915050565b60006020828403121561339757600080fd5b60006133a58482850161328f565b91505092915050565b6000602082840312156133c057600080fd5b60006133ce848285016132a4565b91505092915050565b600080604083850312156133ea57600080fd5b60006133f88582860161328f565b9250506020613409858286016131f1565b9150509250929050565b6000806040838503121561342657600080fd5b6000613434858286016132b9565b92505060206134458582860161328f565b9150509250929050565b600061345b83836139b5565b60a08301905092915050565b60006134738383613a19565b60208301905092915050565b61348881613f24565b82525050565b61349781613ec0565b82525050565b6134a681613ec0565b82525050565b6134bd6134b882613ec0565b613fb1565b82525050565b60006134ce82613e31565b6134d88185613e77565b93506134e383613e17565b8060005b838110156135145781516134fb888261344f565b975061350683613e5d565b9250506001810190506134e7565b5085935050505092915050565b61352a81613e3c565b6135348184613e88565b925061353f82613e27565b8060005b838110156135705781516135578782613467565b965061356283613e6a565b925050600181019050613543565b505050505050565b61358181613e3c565b61358b8184613e93565b925061359682613e27565b8060005b838110156135c75781516135ae8782613467565b96506135b983613e6a565b92505060018101905061359a565b505050505050565b6135d881613ed2565b82525050565b60006135e982613e47565b6135f38185613e9e565b9350613603818560208601613f7e565b61360c81613fe9565b840191505092915050565b61362081613f36565b82525050565b600061363182613e52565b61363b8185613eaf565b935061364b818560208601613f7e565b61365481613fe9565b840191505092915050565b600061366c601683613eaf565b91507f4e6f7420656e6f75676820746f6b656e732073656e74000000000000000000006000830152602082019050919050565b60006136ac600f83613eaf565b91507f4e6f7420656e6f756768206465627400000000000000000000000000000000006000830152602082019050919050565b60006136ec602983613eaf565b91507f50726f64756374206973206265696e6720736574746c65642c2074727920616760008301527f61696e206c6174657200000000000000000000000000000000000000000000006020830152604082019050919050565b6000613752601983613eaf565b91507f596f75206d7573742073656c6c206d6f726520746f6b656e73000000000000006000830152602082019050919050565b600060a08301600083015184820360008601526137a282826135de565b91505060208301516137b7602086018261348e565b5060408301516137ca6040860182613a3f565b5060608301516137dd6060860182613a3f565b5060808301516137f06080860182613a3f565b508091505092915050565b61010082016000820151613812600085018261348e565b506020820151613825602085018261348e565b5060408201516138386040850182613a19565b50606082015161384b606085018261348e565b50608082015161385e6080850182613a3f565b5060a082015161387160a0850182613a3f565b5060c082015161388460c0850182613a3f565b5060e082015161389760e0850182613a0a565b50505050565b600060a08301600083015184820360008601526138ba82826135de565b91505060208301516138cf602086018261348e565b5060408301516138e26040860182613a3f565b5060608301516138f56060860182613a3f565b5060808301516139086080860182613a3f565b508091505092915050565b6101008201600082015161392a600085018261348e565b50602082015161393d602085018261348e565b5060408201516139506040850182613a19565b506060820151613963606085018261348e565b5060808201516139766080850182613a3f565b5060a082015161398960a0850182613a3f565b5060c082015161399c60c0850182613a3f565b5060e08201516139af60e0850182613a0a565b50505050565b60a0820160008201516139cb6000850182613a5d565b5060208201516139de602085018261348e565b5060408201516139f16040850182613521565b506060820151613a04608085018261348e565b50505050565b613a1381613ede565b82525050565b613a2281613efe565b82525050565b613a39613a3482613efe565b613fd5565b82525050565b613a4881613f0d565b82525050565b613a5781613f0d565b82525050565b613a6681613f17565b82525050565b6000613a7882886134ac565b601482019150613a888287613a28565b600382019150613a9882866134ac565b601482019150613aa88285613a28565b600382019150613ab882846134ac565b6014820191508190509695505050505050565b6000602082019050613ae0600083018461349d565b92915050565b6000602082019050613afb600083018461347f565b92915050565b6000606082019050613b16600083018661347f565b613b236020830185613a4e565b613b3060408301846135cf565b949350505050565b6000606082019050613b4d600083018661347f565b613b5a6020830185613a4e565b613b676040830184613a4e565b949350505050565b6000608082019050613b84600083018661349d565b613b916020830185613578565b613b9e606083018461349d565b949350505050565b6000606082019050613bbb600083018661349d565b613bc86020830185613a4e565b613bd560408301846135cf565b949350505050565b60006020820190508181036000830152613bf781846134c3565b905092915050565b6000602082019050613c1460008301846135cf565b92915050565b6000602082019050613c2f6000830184613617565b92915050565b60006020820190508181036000830152613c4f8184613626565b905092915050565b60006020820190508181036000830152613c708161365f565b9050919050565b60006020820190508181036000830152613c908161369f565b9050919050565b60006020820190508181036000830152613cb0816136df565b9050919050565b60006020820190508181036000830152613cd081613745565b9050919050565b60006020820190508181036000830152613cf18184613785565b905092915050565b600061010082019050613d0f60008301846137fb565b92915050565b60006020820190508181036000830152613d2f818461389d565b905092915050565b600061010082019050613d4d6000830184613913565b92915050565b6000602082019050613d686000830184613a4e565b92915050565b6000604082019050613d836000830185613a4e565b613d9060208301846135cf565b9392505050565b6000604082019050613dac6000830185613a4e565b613db96020830184613a4e565b9392505050565b6000604051905081810181811067ffffffffffffffff82111715613de757613de6613fe7565b5b8060405250919050565b600067ffffffffffffffff821115613e0c57613e0b613fe7565b5b602082029050919050565b6000819050602082019050919050565b6000819050919050565b600081519050919050565b600060029050919050565b600081519050919050565b600081519050919050565b6000602082019050919050565b6000602082019050919050565b600082825260208201905092915050565b600081905092915050565b600081905092915050565b600082825260208201905092915050565b600082825260208201905092915050565b6000613ecb82613ede565b9050919050565b60008115159050919050565b600073ffffffffffffffffffffffffffffffffffffffff82169050919050565b600062ffffff82169050919050565b6000819050919050565b600060ff82169050919050565b6000613f2f82613f5a565b9050919050565b6000613f4182613f48565b9050919050565b6000613f5382613ede565b9050919050565b6000613f6582613f6c565b9050919050565b6000613f7782613ede565b9050919050565b60005b83811015613f9c578082015181840152602081019050613f81565b83811115613fab576000848401525b50505050565b6000613fbc82613fc3565b9050919050565b6000613fce82614007565b9050919050565b6000613fe082613ffa565b9050919050565bfe5b6000601f19601f8301169050919050565b60008160e81b9050919050565b60008160601b9050919050565b61401d81613ec0565b811461402857600080fd5b50565b61403481613ed2565b811461403f57600080fd5b50565b61404b81613efe565b811461405657600080fd5b50565b61406281613f0d565b811461406d57600080fd5b50565b61407981613f17565b811461408457600080fd5b5056fe4f776e61626c653a206e6577206f776e657220697320746865207a65726f206164647265737368747470733a2f2f63727970746f6c6f676f732e63632f6c6f676f732f706f6c796d6174682d6e6574776f726b2d706f6c792d6c6f676f2e706e673f763d303232536166654d6174683a206d756c7469706c69636174696f6e206f766572666c6f77436f7272656c6174696f6e20696e646578206973206120746f6f6c207468617420616c6c6f777320796f7520746f2064697665727369667920796f757220696e766573746d656e7473a2646970667358221220b0cf69d66199053762a2806a7f0f37444e18d25a444b84a784c8dde0d8b9e94664736f6c6343000706003360806040526040516100109061007f565b604051809103906000f08015801561002c573d6000803e3d6000fd5b50600160006101000a81548173ffffffffffffffffffffffffffffffffffffffff021916908373ffffffffffffffffffffffffffffffffffffffff16021790555034801561007957600080fd5b5061008c565b6105688061075b83390190565b6106c08061009b6000396000f3fe608060405234801561001057600080fd5b50600436106100575760003560e01c806334ce998a1461005c578063cca5e4b11461007a578063e2842d79146100d4578063e65896c914610133578063f8c493d61461018b575b600080fd5b6100646101c5565b6040518082815260200191505060405180910390f35b6100d26004803603606081101561009057600080fd5b81019080803573ffffffffffffffffffffffffffffffffffffffff169060200190929190803590602001909291908035151590602001909291905050506101ce565b005b6100dc6102dd565b6040518080602001828103825283818151815260200191508051906020019060200280838360005b8381101561011f578082015181840152602081019050610104565b505050509050019250505060405180910390f35b6101756004803603602081101561014957600080fd5b81019080803573ffffffffffffffffffffffffffffffffffffffff169060200190929190505050610421565b6040518082815260200191505060405180910390f35b6101c3600480360360408110156101a157600080fd5b81019080803590602001909291908035151590602001909291905050506104ee565b005b60008054905090565b600160009054906101000a900473ffffffffffffffffffffffffffffffffffffffff1673ffffffffffffffffffffffffffffffffffffffff1663cca5e4b18484846040518463ffffffff1660e01b8152600401808473ffffffffffffffffffffffffffffffffffffffff16815260200183815260200182151581526020019350505050600060405180830381600087803b15801561026b57600080fd5b505af115801561027f573d6000803e3d6000fd5b505050507fbdbcd24495abd6f63a1ff87418df04429000c6f9d53015ef4d5c91f353d827428383604051808373ffffffffffffffffffffffffffffffffffffffff1681526020018281526020019250505060405180910390a1505050565b6060600160009054906101000a900473ffffffffffffffffffffffffffffffffffffffff1673ffffffffffffffffffffffffffffffffffffffff1663e2842d796040518163ffffffff1660e01b815260040160006040518083038186803b15801561034757600080fd5b505afa15801561035b573d6000803e3d6000fd5b505050506040513d6000823e3d601f19601f82011682018060405250602081101561038557600080fd5b81019080805160405193929190846401000000008211156103a557600080fd5b838201915060208201858111156103bb57600080fd5b82518660208202830111640100000000821117156103d857600080fd5b8083526020830192505050908051906020019060200280838360005b8381101561040f5780820151818401526020810190506103f4565b50505050905001604052505050905090565b6000600160009054906101000a900473ffffffffffffffffffffffffffffffffffffffff1673ffffffffffffffffffffffffffffffffffffffff1663e65896c9836040518263ffffffff1660e01b8152600401808273ffffffffffffffffffffffffffffffffffffffff16815260200191505060206040518083038186803b1580156104ac57600080fd5b505afa1580156104c0573d6000803e3d6000fd5b505050506040513d60208110156104d657600080fd5b81019080805190602001909291905050509050919050565b8015610514576105098260005461057f90919063ffffffff16565b600081905550610530565b6105298260005461060790919063ffffffff16565b6000819055505b7fe3a346931856fab43b7f9bcf4167ed53663e69d0195323a374d0f89a432d0f436000548383604051808481526020018381526020018215158152602001935050505060405180910390a15050565b6000808284019050838110156105fd576040517f08c379a000000000000000000000000000000000000000000000000000000000815260040180806020018281038252601b8152602001807f536166654d6174683a206164646974696f6e206f766572666c6f77000000000081525060200191505060405180910390fd5b8091505092915050565b60008282111561067f576040517f08c379a000000000000000000000000000000000000000000000000000000000815260040180806020018281038252601e8152602001807f536166654d6174683a207375627472616374696f6e206f766572666c6f77000081525060200191505060405180910390fd5b81830390509291505056fea26469706673582212204a33ecacfe95dfdd6fc7b3c256850d270b0b9b7010d2cf48428ea7cb7e29837164736f6c63430007060033608060405234801561001057600080fd5b50610548806100206000396000f3fe608060405234801561001057600080fd5b50600436106100415760003560e01c8063cca5e4b114610046578063e2842d79146100a0578063e65896c9146100ff575b600080fd5b61009e6004803603606081101561005c57600080fd5b81019080803573ffffffffffffffffffffffffffffffffffffffff16906020019092919080359060200190929190803515159060200190929190505050610157565b005b6100a8610222565b6040518080602001828103825283818151815260200191508051906020019060200280838360005b838110156100eb5780820151818401526020810190506100d0565b505050509050019250505060405180910390f35b6101416004803603602081101561011557600080fd5b81019080803573ffffffffffffffffffffffffffffffffffffffff1690602001909291905050506102b0565b6040518082815260200191505060405180910390f35b60008060008573ffffffffffffffffffffffffffffffffffffffff1673ffffffffffffffffffffffffffffffffffffffff16815260200190815260200160002054905081156101ba576101b383826102f890919063ffffffff16565b90506101d0565b6101cd838261038090919063ffffffff16565b90505b806000808673ffffffffffffffffffffffffffffffffffffffff1673ffffffffffffffffffffffffffffffffffffffff1681526020019081526020016000208190555061021c84610403565b50505050565b606060028054806020026020016040519081016040528092919081815260200182805480156102a657602002820191906000526020600020905b8160009054906101000a900473ffffffffffffffffffffffffffffffffffffffff1673ffffffffffffffffffffffffffffffffffffffff168152602001906001019080831161025c575b5050505050905090565b60008060008373ffffffffffffffffffffffffffffffffffffffff1673ffffffffffffffffffffffffffffffffffffffff168152602001908152602001600020549050919050565b600080828401905083811015610376576040517f08c379a000000000000000000000000000000000000000000000000000000000815260040180806020018281038252601b8152602001807f536166654d6174683a206164646974696f6e206f766572666c6f77000000000081525060200191505060405180910390fd5b8091505092915050565b6000828211156103f8576040517f08c379a000000000000000000000000000000000000000000000000000000000815260040180806020018281038252601e8152602001807f536166654d6174683a207375627472616374696f6e206f766572666c6f77000081525060200191505060405180910390fd5b818303905092915050565b600160008273ffffffffffffffffffffffffffffffffffffffff1673ffffffffffffffffffffffffffffffffffffffff16815260200190815260200160002060009054906101000a900460ff1661050f5760018060008373ffffffffffffffffffffffffffffffffffffffff1673ffffffffffffffffffffffffffffffffffffffff16815260200190815260200160002060006101000a81548160ff0219169083151502179055506002819080600181540180825580915050600190039060005260206000200160009091909190916101000a81548173ffffffffffffffffffffffffffffffffffffffff021916908373ffffffffffffffffffffffffffffffffffffffff1602179055505b5056fea26469706673582212203959871efe3a9e212aeec78cc26f3642dd8091beba1752abf674871417ded03e64736f6c63430007060033608060405234801561001057600080fd5b50604051610c99380380610c998339818101604052606081101561003357600080fd5b81019080805190602001909291908051906020019092919080519060200190929190505050826000806101000a81548173ffffffffffffffffffffffffffffffffffffffff021916908373ffffffffffffffffffffffffffffffffffffffff16021790555081600160006101000a81548173ffffffffffffffffffffffffffffffffffffffff021916908373ffffffffffffffffffffffffffffffffffffffff16021790555080600260006101000a81548173ffffffffffffffffffffffffffffffffffffffff021916908373ffffffffffffffffffffffffffffffffffffffff160217905550505050610b6d8061012c6000396000f3fe608060405234801561001057600080fd5b506004361061002b5760003560e01c8063ae5621b814610030575b600080fd5b6100d36004803603608081101561004657600080fd5b81019080803573ffffffffffffffffffffffffffffffffffffffff16906020019092919080604001906002806020026040519081016040528092919082600260200280828437600081840152601f19601f8201169050808301925050505050509192919290803573ffffffffffffffffffffffffffffffffffffffff1690602001909291905050506100e9565b6040518082815260200191505060405180910390f35b60008073ffffffffffffffffffffffffffffffffffffffff168273ffffffffffffffffffffffffffffffffffffffff16141561019f57600061015f600160009054906101000a900473ffffffffffffffffffffffffffffffffffffffff16868660006002811061015557fe5b602002015161025a565b905061019781670de0b6b3a764000087600160009054906101000a900473ffffffffffffffffffffffffffffffffffffffff1661041f565b915050610253565b60006101bd8386866001600281106101b357fe5b602002015161025a565b905060006101d582670de0b6b3a7640000888761041f565b90506000610217600160009054906101000a900473ffffffffffffffffffffffffffffffffffffffff16868860006002811061020d57fe5b602002015161025a565b90506000610249828488600160009054906101000a900473ffffffffffffffffffffffffffffffffffffffff1661041f565b9050809450505050505b9392505050565b60008060008054906101000a900473ffffffffffffffffffffffffffffffffffffffff1673ffffffffffffffffffffffffffffffffffffffff16631698ee828686866040518463ffffffff1660e01b8152600401808473ffffffffffffffffffffffffffffffffffffffff1681526020018373ffffffffffffffffffffffffffffffffffffffff1681526020018262ffffff168152602001935050505060206040518083038186803b15801561030f57600080fd5b505afa158015610323573d6000803e3d6000fd5b505050506040513d602081101561033957600080fd5b8101908080519060200190929190505050905060008173ffffffffffffffffffffffffffffffffffffffff16633850c7bd6040518163ffffffff1660e01b815260040160e06040518083038186803b15801561039457600080fd5b505afa1580156103a8573d6000803e3d6000fd5b505050506040513d60e08110156103be57600080fd5b8101908080519060200190929190805190602001909291908051906020019092919080519060200190929190805190602001909291908051906020019092919080519060200190929190505050505050505091505080925050509392505050565b60008061042b86610622565b90506fffffffffffffffffffffffffffffffff80168173ffffffffffffffffffffffffffffffffffffffff161161053c5760008173ffffffffffffffffffffffffffffffffffffffff168273ffffffffffffffffffffffffffffffffffffffff160290508373ffffffffffffffffffffffffffffffffffffffff168573ffffffffffffffffffffffffffffffffffffffff16106104fd576104f87801000000000000000000000000000000000000000000000000876fffffffffffffffffffffffffffffffff1683610a5d565b610534565b61053381876fffffffffffffffffffffffffffffffff167801000000000000000000000000000000000000000000000000610a5d565b5b925050610619565b600061057e8273ffffffffffffffffffffffffffffffffffffffff168373ffffffffffffffffffffffffffffffffffffffff1668010000000000000000610a5d565b90508373ffffffffffffffffffffffffffffffffffffffff168573ffffffffffffffffffffffffffffffffffffffff16106105e6576105e1700100000000000000000000000000000000876fffffffffffffffffffffffffffffffff1683610a5d565b610615565b61061481876fffffffffffffffffffffffffffffffff16700100000000000000000000000000000000610a5d565b5b9250505b50949350505050565b60008060008360020b12610639578260020b610641565b8260020b6000035b90507ffffffffffffffffffffffffffffffffffffffffffffffffffffffffffff2761860000360020b8111156106df576040517f08c379a00000000000000000000000000000000000000000000000000000000081526004018080602001828103825260018152602001807f540000000000000000000000000000000000000000000000000000000000000081525060200191505060405180910390fd5b60008060018316141561070357700100000000000000000000000000000000610715565b6ffffcb933bd6fad37aa2d162d1a5940015b70ffffffffffffffffffffffffffffffffff1690506000600283161461074f5760806ffff97272373d413259a46990580e213a8202901c90505b600060048316146107745760806ffff2e50f5f656932ef12357cf3c7fdcc8202901c90505b600060088316146107995760806fffe5caca7e10e4e61c3624eaa0941cd08202901c90505b600060108316146107be5760806fffcb9843d60f6159c9db58835c9266448202901c90505b600060208316146107e35760806fff973b41fa98c081472e6896dfb254c08202901c90505b600060408316146108085760806fff2ea16466c96a3843ec78b326b528618202901c90505b6000608083161461082d5760806ffe5dee046a99a2a811c461f1969c30538202901c90505b60006101008316146108535760806ffcbe86c7900a88aedcffc83b479aa3a48202901c90505b60006102008316146108795760806ff987a7253ac413176f2b074cf7815e548202901c90505b600061040083161461089f5760806ff3392b0822b70005940c7a398e4b70f38202901c90505b60006108008316146108c55760806fe7159475a2c29b7443b29c7fa6e889d98202901c90505b60006110008316146108eb5760806fd097f3bdfd2022b8845ad8f792aa58258202901c90505b60006120008316146109115760806fa9f746462d870fdf8a65dc1f90e061e58202901c90505b60006140008316146109375760806f70d869a156d2a1b890bb3df62baf32f78202901c90505b600061800083161461095d5760806f31be135f97d08fd981231505542fcfa68202901c90505b6000620100008316146109845760806f09aa508b5b7a84e1c677de54f3e99bc98202901c90505b6000620200008316146109aa5760806e5d6af8dedb81196699c329225ee6048202901c90505b6000620400008316146109cf5760806d2216e584f5fa1ea926041bedfe988202901c90505b6000620800008316146109f25760806b048a170391f7dc42444e8fa28202901c90505b60008460020b1315610a2b57807fffffffffffffffffffffffffffffffffffffffffffffffffffffffffffffffff81610a2757fe5b0490505b60006401000000008281610a3b57fe5b0614610a48576001610a4b565b60005b60ff16602082901c0192505050919050565b600080600080198587098587029250828110838203039150506000811415610a985760008411610a8c57600080fd5b83820492505050610b30565b808411610aa457600080fd5b600084868809905082811182039150808303925060008586600003169050808604955080840493506001818260000304019050808302841793506000600287600302189050808702600203810290508087026002038102905080870260020381029050808702600203810290508087026002038102905080870260020381029050808502955050505050505b939250505056fea2646970667358221220825c3c3a6750c86d9eed7536aa3f9a49df4dcd9fec5b17768d943dea9de0f8e864736f6c6343000706003360806040523480156200001157600080fd5b50604051620012ff380380620012ff833981810160405281019062000037919062000225565b83600560006101000a81548173ffffffffffffffffffffffffffffffffffffffff021916908373ffffffffffffffffffffffffffffffffffffffff160217905550826002908051906020019062000090929190620000cf565b5081600360006101000a81548160ff021916908360ff1602179055508060049080519060200190620000c4929190620000cf565b5050505050620003d7565b828054600181600116156101000203166002900490600052602060002090601f01602090048101928262000107576000855562000153565b82601f106200012257805160ff191683800117855562000153565b8280016001018555821562000153579182015b828111156200015257825182559160200191906001019062000135565b5b50905062000162919062000166565b5090565b5b808211156200018157600081600090555060010162000167565b5090565b60006200019c6200019684620002f7565b620002c3565b905082815260208101848484011115620001b557600080fd5b620001c28482856200036b565b509392505050565b600081519050620001db81620003a3565b92915050565b600082601f830112620001f357600080fd5b81516200020584826020860162000185565b91505092915050565b6000815190506200021f81620003bd565b92915050565b600080600080608085870312156200023c57600080fd5b60006200024c87828801620001ca565b945050602085015167ffffffffffffffff8111156200026a57600080fd5b6200027887828801620001e1565b93505060406200028b878288016200020e565b925050606085015167ffffffffffffffff811115620002a957600080fd5b620002b787828801620001e1565b91505092959194509250565b6000604051905081810181811067ffffffffffffffff82111715620002ed57620002ec620003a1565b5b8060405250919050565b600067ffffffffffffffff821115620003155762000314620003a1565b5b601f19601f8301169050602081019050919050565b600062000337826200033e565b9050919050565b600073ffffffffffffffffffffffffffffffffffffffff82169050919050565b600060ff82169050919050565b60005b838110156200038b5780820151818401526020810190506200036e565b838111156200039b576000848401525b50505050565bfe5b620003ae816200032a565b8114620003ba57600080fd5b50565b620003c8816200035e565b8114620003d457600080fd5b50565b610f1880620003e76000396000f3fe608060405234801561001057600080fd5b50600436106100995760003560e01c806306fdde031461009e578063095ea7b3146100bc5780630cf1fd36146100ec57806323b872dd1461010a57806327e235e31461013a578063313ce5671461016a5780635c6581651461018857806370a08231146101b857806395d89b41146101e8578063a9059cbb14610206578063dd62ed3e14610236575b600080fd5b6100a6610266565b6040516100b39190610d67565b60405180910390f35b6100d660048036038101906100d19190610bb4565b610304565b6040516100e39190610d4c565b60405180910390f35b6100f46103f6565b6040516101019190610d31565b60405180910390f35b610124600480360381019061011f9190610b65565b61041c565b6040516101319190610d4c565b60405180910390f35b610154600480360381019061014f9190610b00565b6106e7565b6040516101619190610dc9565b60405180910390f35b6101726106ff565b60405161017f9190610de4565b60405180910390f35b6101a2600480360381019061019d9190610b29565b610712565b6040516101af9190610dc9565b60405180910390f35b6101d260048036038101906101cd9190610b00565b610737565b6040516101df9190610dc9565b60405180910390f35b6101f061077f565b6040516101fd9190610d67565b60405180910390f35b610220600480360381019061021b9190610bb4565b61081d565b60405161022d9190610d4c565b60405180910390f35b610250600480360381019061024b9190610b29565b610a4f565b60405161025d9190610dc9565b60405180910390f35b60028054600181600116156101000203166002900480601f0160208091040260200160405190810160405280929190818152602001828054600181600116156101000203166002900480156102fc5780601f106102d1576101008083540402835291602001916102fc565b820191906000526020600020905b8154815290600101906020018083116102df57829003601f168201915b505050505081565b600081600160003373ffffffffffffffffffffffffffffffffffffffff1673ffffffffffffffffffffffffffffffffffffffff16815260200190815260200160002060008573ffffffffffffffffffffffffffffffffffffffff1673ffffffffffffffffffffffffffffffffffffffff168152602001908152602001600020819055508273ffffffffffffffffffffffffffffffffffffffff163373ffffffffffffffffffffffffffffffffffffffff167f8c5be1e5ebec7d5bd14f71427d1e84f3dd0314c0f7b2291e5b200ac8c7c3b925846040516103e49190610dc9565b60405180910390a36001905092915050565b600560009054906101000a900473ffffffffffffffffffffffffffffffffffffffff1681565b600080600160008673ffffffffffffffffffffffffffffffffffffffff1673ffffffffffffffffffffffffffffffffffffffff16815260200190815260200160002060003373ffffffffffffffffffffffffffffffffffffffff1673ffffffffffffffffffffffffffffffffffffffff168152602001908152602001600020549050826000808773ffffffffffffffffffffffffffffffffffffffff1673ffffffffffffffffffffffffffffffffffffffff16815260200190815260200160002054101580156104ec5750828110155b61052b576040517f08c379a000000000000000000000000000000000000000000000000000000000815260040161052290610da9565b60405180910390fd5b826000808673ffffffffffffffffffffffffffffffffffffffff1673ffffffffffffffffffffffffffffffffffffffff16815260200190815260200160002060008282540192505081905550826000808773ffffffffffffffffffffffffffffffffffffffff1673ffffffffffffffffffffffffffffffffffffffff168152602001908152602001600020600082825403925050819055507fffffffffffffffffffffffffffffffffffffffffffffffffffffffffffffffff8110156106765782600160008773ffffffffffffffffffffffffffffffffffffffff1673ffffffffffffffffffffffffffffffffffffffff16815260200190815260200160002060003373ffffffffffffffffffffffffffffffffffffffff1673ffffffffffffffffffffffffffffffffffffffff168152602001908152602001600020600082825403925050819055505b8373ffffffffffffffffffffffffffffffffffffffff168573ffffffffffffffffffffffffffffffffffffffff167fddf252ad1be2c89b69c2b068fc378daa952ba7f163c4a11628f55a4df523b3ef856040516106d39190610dc9565b60405180910390a360019150509392505050565b60006020528060005260406000206000915090505481565b600360009054906101000a900460ff1681565b6001602052816000526040600020602052806000526040600020600091509150505481565b60008060008373ffffffffffffffffffffffffffffffffffffffff1673ffffffffffffffffffffffffffffffffffffffff168152602001908152602001600020549050919050565b60048054600181600116156101000203166002900480601f0160208091040260200160405190810160405280929190818152602001828054600181600116156101000203166002900480156108155780601f106107ea57610100808354040283529160200191610815565b820191906000526020600020905b8154815290600101906020018083116107f857829003601f168201915b505050505081565b6000600560009054906101000a900473ffffffffffffffffffffffffffffffffffffffff1673ffffffffffffffffffffffffffffffffffffffff163373ffffffffffffffffffffffffffffffffffffffff1614156108c657816000808573ffffffffffffffffffffffffffffffffffffffff1673ffffffffffffffffffffffffffffffffffffffff168152602001908152602001600020600082825401925050819055506109e0565b816000803373ffffffffffffffffffffffffffffffffffffffff1673ffffffffffffffffffffffffffffffffffffffff168152602001908152602001600020541015610947576040517f08c379a000000000000000000000000000000000000000000000000000000000815260040161093e90610d89565b60405180910390fd5b816000803373ffffffffffffffffffffffffffffffffffffffff1673ffffffffffffffffffffffffffffffffffffffff16815260200190815260200160002060008282540392505081905550816000808573ffffffffffffffffffffffffffffffffffffffff1673ffffffffffffffffffffffffffffffffffffffff168152602001908152602001600020600082825401925050819055505b8273ffffffffffffffffffffffffffffffffffffffff163373ffffffffffffffffffffffffffffffffffffffff167fddf252ad1be2c89b69c2b068fc378daa952ba7f163c4a11628f55a4df523b3ef84604051610a3d9190610dc9565b60405180910390a36001905092915050565b6000600160008473ffffffffffffffffffffffffffffffffffffffff1673ffffffffffffffffffffffffffffffffffffffff16815260200190815260200160002060008373ffffffffffffffffffffffffffffffffffffffff1673ffffffffffffffffffffffffffffffffffffffff16815260200190815260200160002054905092915050565b600081359050610ae581610eb4565b92915050565b600081359050610afa81610ecb565b92915050565b600060208284031215610b1257600080fd5b6000610b2084828501610ad6565b91505092915050565b60008060408385031215610b3c57600080fd5b6000610b4a85828601610ad6565b9250506020610b5b85828601610ad6565b9150509250929050565b600080600060608486031215610b7a57600080fd5b6000610b8886828701610ad6565b9350506020610b9986828701610ad6565b9250506040610baa86828701610aeb565b9150509250925092565b60008060408385031215610bc757600080fd5b6000610bd585828601610ad6565b9250506020610be685828601610aeb565b9150509250929050565b610bf981610e1b565b82525050565b610c0881610e2d565b82525050565b6000610c1982610dff565b610c238185610e0a565b9350610c33818560208601610e70565b610c3c81610ea3565b840191505092915050565b6000610c54602f83610e0a565b91507f746f6b656e2062616c616e6365206973206c6f776572207468616e207468652060008301527f76616c75652072657175657374656400000000000000000000000000000000006020830152604082019050919050565b6000610cba603983610e0a565b91507f746f6b656e2062616c616e6365206f7220616c6c6f77616e6365206973206c6f60008301527f776572207468616e20616d6f756e7420726571756573746564000000000000006020830152604082019050919050565b610d1c81610e59565b82525050565b610d2b81610e63565b82525050565b6000602082019050610d466000830184610bf0565b92915050565b6000602082019050610d616000830184610bff565b92915050565b60006020820190508181036000830152610d818184610c0e565b905092915050565b60006020820190508181036000830152610da281610c47565b9050919050565b60006020820190508181036000830152610dc281610cad565b9050919050565b6000602082019050610dde6000830184610d13565b92915050565b6000602082019050610df96000830184610d22565b92915050565b600081519050919050565b600082825260208201905092915050565b6000610e2682610e39565b9050919050565b60008115159050919050565b600073ffffffffffffffffffffffffffffffffffffffff82169050919050565b6000819050919050565b600060ff82169050919050565b60005b83811015610e8e578082015181840152602081019050610e73565b83811115610e9d576000848401525b50505050565b6000601f19601f8301169050919050565b610ebd81610e1b565b8114610ec857600080fd5b50565b610ed481610e59565b8114610edf57600080fd5b5056fea26469706673582212206d7b471248b37aa2cced2e9e54fa45f3c316e94e0de8f17e320014f8e6608f3c64736f6c63430007060033",
  "immutableReferences": {
    "3342": [
      {
        "length": 32,
        "start": 2686
      },
      {
        "length": 32,
        "start": 6474
      },
      {
        "length": 32,
        "start": 6612
      }
    ],
    "3346": [
      {
        "length": 32,
        "start": 8171
      },
      {
        "length": 32,
        "start": 10121
      },
      {
        "length": 32,
        "start": 11030
      },
      {
        "length": 32,
        "start": 11300
      }
    ],
    "3351": [
      {
        "length": 32,
        "start": 1805
      },
      {
        "length": 32,
        "start": 2225
      },
      {
        "length": 32,
        "start": 6088
      },
      {
        "length": 32,
        "start": 6276
      },
      {
        "length": 32,
        "start": 8240
      },
      {
        "length": 32,
        "start": 8831
      }
    ],
    "3356": [
      {
        "length": 32,
        "start": 1843
      },
      {
        "length": 32,
        "start": 2263
      },
      {
        "length": 32,
        "start": 5147
      },
      {
        "length": 32,
        "start": 8278
      },
      {
        "length": 32,
        "start": 8643
      }
    ],
    "3358": [
      {
        "length": 32,
        "start": 5553
      }
    ]
  },
  "source": "// SPDX-License-Identifier: MIT\r\npragma solidity 0.7.6;\r\npragma abicoder v2;\r\n\r\nimport \"@openzeppelin/contracts/token/ERC20/ERC20.sol\";\r\nimport \"@openzeppelin/contracts/math/SafeMath.sol\";\r\nimport \"@uniswap/v3-periphery/contracts/libraries/TransferHelper.sol\";\r\nimport \"@uniswap/v3-periphery/contracts/interfaces/ISwapRouter.sol\";\r\nimport \"@uniswap/v3-periphery/contracts/interfaces/IPeripheryPayments.sol\";\r\n\r\nimport \"./PriceOracle.sol\";\r\nimport \"./IndexToken.sol\";\r\nimport \"./DebtManager.sol\";\r\nimport \"../management/BaseProduct.sol\";\r\n\r\n\r\ncontract BaseIndex is Product {\r\n    using SafeMath for uint256;\r\n\r\n    struct TokenInfo {\r\n        uint8 indexPercentage;\r\n        address tokenAddress;\r\n        uint24[2] poolFees;\r\n        address intermediateToken;\r\n    }\r\n\r\n    TokenInfo[] private tokens;\r\n    IndexToken public immutable indexToken;\r\n\r\n    address private immutable WETH;\r\n    address private immutable dexRouterAddress;\r\n\r\n    DebtManager private immutable sellDebtManager = new DebtManager();\r\n    DebtManager private immutable buyDebtManager = new DebtManager();\r\n    PriceOracle private immutable priceOracle;\r\n\r\n    uint private lastManagedToken = 0;\r\n    uint private tokensToSell = 0;\r\n    uint private tokensToBuy = 0;\r\n    uint private tokensSold = 0;\r\n\r\n    function name() external pure override returns (string memory) { return \"CryptoIndex\"; }\r\n    function symbol() external pure override returns (string memory) { return \"CRYPTIX\"; }\r\n    function getComponents() external view returns (TokenInfo[] memory) { return tokens; }\r\n\r\n    function shortDescription() external pure override returns (string memory) {\r\n        return \"Correlation index is a tool that allows you to diversify your investments\";\r\n    }\r\n\r\n    function longDescription() external pure override returns (string memory) {\r\n        return \"Correlation index is a tool that allows you to diversify your investments\";\r\n    }\r\n\r\n    function getTokenPrice(TokenInfo memory token) public view returns (uint256) {\r\n        return priceOracle.getPrice(token.tokenAddress, token.poolFees, token.intermediateToken);\r\n    }\r\n\r\n    function image() external pure override returns (string memory) {\r\n        return \"https://cryptologos.cc/logos/polymath-network-poly-logo.png?v=022\";\r\n    }\r\n\r\n    function getTotalLockedValue() external view override returns (uint256) {\r\n        uint totalValue;\r\n\r\n        for (uint i = 0; i < tokens.length; i++) {\r\n            TokenInfo memory tokenInfo = tokens[i];\r\n            uint tokenUsdBalance = IERC20(tokenInfo.tokenAddress).balanceOf(address(this)).mul(getTokenPrice(tokenInfo));\r\n            totalValue = totalValue.add(tokenUsdBalance.div(1 ether));\r\n        }\r\n\r\n        return totalValue;\r\n    }\r\n\r\n    constructor(\r\n        address _dexRouterAddress,\r\n        address _dexFactoryAddress,\r\n        address _WETH,\r\n        address _buyTokenAddress,\r\n        string memory _indexTokenName,\r\n        string memory _indexTokenSymbol\r\n    ) {\r\n        dexRouterAddress = _dexRouterAddress; // 0xE592427A0AEce92De3Edee1F18E0157C05861564;\r\n        buyTokenAddress = _buyTokenAddress; // 0x6B175474E89094C44Da98b954EedeAC495271d0F;\r\n        WETH = _WETH; // 0xC02aaA39b223FE8D0A0e5C4F27eAD9083C756Cc2;\r\n        priceOracle = new PriceOracle(_dexFactoryAddress, _buyTokenAddress, _WETH);\r\n\r\n        productFee = 2;\r\n        productFeeTotal = 100;\r\n        indexToken = new IndexToken(\r\n            address(this),\r\n            _indexTokenName,\r\n            ERC20(buyTokenAddress).decimals(),\r\n            _indexTokenSymbol\r\n        );\r\n\r\n        tokens.push(TokenInfo({ // 0) WETH\r\n            tokenAddress: _WETH,\r\n            poolFees: [uint24(3000), uint24(3000)],\r\n            intermediateToken: address(0),\r\n            indexPercentage: 15\r\n        }));\r\n        tokens.push(TokenInfo({ // 1) LINK\r\n            tokenAddress: 0x514910771AF9Ca656af840dff83E8264EcF986CA,\r\n            poolFees: [uint24(3000), uint24(3000)],\r\n            intermediateToken: _WETH,\r\n            indexPercentage: 5\r\n        }));\r\n        tokens.push(TokenInfo({ // 2) WBNB\r\n            tokenAddress: 0x418D75f65a02b3D53B2418FB8E1fe493759c7605,\r\n            poolFees: [uint24(3000), uint24(3000)],\r\n            intermediateToken: _WETH,\r\n            indexPercentage: 10\r\n        }));\r\n        tokens.push(TokenInfo({ // 3) UNI\r\n            tokenAddress: 0x1f9840a85d5aF5bf1D1762F925BDADdC4201F984,\r\n            poolFees: [uint24(3000), uint24(3000)],\r\n            intermediateToken: _WETH,\r\n            indexPercentage: 10\r\n        }));\r\n        tokens.push(TokenInfo({ // 4) 1INCH\r\n            tokenAddress: 0x111111111117dC0aa78b770fA6A738034120C302,\r\n            poolFees: [uint24(3000), 10000],\r\n            intermediateToken: _WETH,\r\n            indexPercentage: 10\r\n        }));\r\n        tokens.push(TokenInfo({ // 5) SNX\r\n            tokenAddress: 0xC011a73ee8576Fb46F5E1c5751cA3B9Fe0af2a6F,\r\n            poolFees: [uint24(3000), 10000],\r\n            intermediateToken: _WETH,\r\n            indexPercentage: 5\r\n        }));\r\n        tokens.push(TokenInfo({ // 6) YFI\r\n            tokenAddress: 0x0bc529c00C6401aEF6D220BE8C6Ea1667F6Ad93e,\r\n            poolFees: [uint24(3000), uint24(3000)],\r\n            intermediateToken: _WETH,\r\n            indexPercentage: 5\r\n        }));\r\n        tokens.push(TokenInfo({ // 7) COMP\r\n            tokenAddress: 0xc00e94Cb662C3520282E6f5717214004A7f26888,\r\n            poolFees: [uint24(3000), uint24(3000)],\r\n            intermediateToken: _WETH,\r\n            indexPercentage: 5\r\n        }));\r\n        tokens.push(TokenInfo({ // 8) MKR\r\n            tokenAddress: 0x9f8F72aA9304c8B593d555F12eF6589cC3A579A2,\r\n            poolFees: [uint24(3000), uint24(3000)],\r\n            intermediateToken: _WETH,\r\n            indexPercentage: 5\r\n        }));\r\n        tokens.push(TokenInfo({ // 9) SUSHI\r\n            tokenAddress: 0x6B3595068778DD592e39A122f4f5a5cF09C90fE2,\r\n            poolFees: [uint24(3000), uint24(3000)],\r\n            intermediateToken: _WETH,\r\n            indexPercentage: 10\r\n        }));\r\n        tokens.push(TokenInfo({ // 10) APE\r\n            tokenAddress: 0x4d224452801ACEd8B2F0aebE155379bb5D594381,\r\n            poolFees: [uint24(3000), uint24(3000)],\r\n            intermediateToken: _WETH,\r\n            indexPercentage: 10\r\n        }));\r\n        tokens.push(TokenInfo({ // 11) CRV\r\n            tokenAddress: 0xD533a949740bb3306d119CC777fa900bA034cd52,\r\n            poolFees: [uint24(3000), 10000],\r\n            intermediateToken: _WETH,\r\n            indexPercentage: 10\r\n        }));\r\n    }\r\n\r\n    function buy(uint256 amount) external override nonReentrant checkSettlement {\r\n        (uint productFee, uint256 realAmount) = calculateFee(amount);\r\n        require(realAmount > 0 && productFee > 0, \"Not enough tokens sent\");\r\n\r\n        uint256 indexPrice = getPrice();\r\n        uint buyTokenAmount = realAmount.mul(indexPrice).div(1 ether);\r\n\r\n        tokensToBuy = tokensToBuy.add(buyTokenAmount);\r\n        buyDebtManager.changeDebt(msg.sender, realAmount, true);\r\n\r\n        TransferHelper.safeTransferFrom(buyTokenAddress, msg.sender, address(this), amount.mul(indexPrice).div(1 ether));\r\n        TransferHelper.safeTransferFrom(buyTokenAddress, address(this), owner(), productFee.mul(indexPrice).div(2 ether));\r\n\r\n        emit ProductBought(msg.sender, buyTokenAmount, realAmount);\r\n    }\r\n\r\n    function sell(uint amount) external override nonReentrant checkSettlement{\r\n        (uint productFee, uint256 realAmount) = calculateFee(amount);\r\n        require(realAmount > 0 && productFee > 0, \"You must sell more tokens\");\r\n\r\n        uint indexPrice = getPrice();\r\n\r\n        tokensToSell = tokensToSell.add(amount);\r\n        sellDebtManager.changeDebt(msg.sender, realAmount.mul(indexPrice).div(1 ether), true);\r\n        sellDebtManager.changeDebt(owner(), productFee.mul(indexPrice).div(1 ether), true);\r\n\r\n        TransferHelper.safeTransferFrom(address(indexToken), msg.sender, address(this), amount);\r\n        emit ProductSold(msg.sender, realAmount.mul(getPrice()), realAmount);\r\n    }\r\n\r\n    function retrieveDebt(uint amount, bool isBuyDebt) external nonReentrant checkSettlement{\r\n        DebtManager manager = isBuyDebt ? buyDebtManager : sellDebtManager;\r\n        require(manager.getTotalDebt() >= amount && manager.getUserDebt(msg.sender) >= amount, \"Not enough debt\");\r\n\r\n        address token = isBuyDebt ? address(indexToken) : buyTokenAddress;\r\n\r\n        TransferHelper.safeTransferFrom(token, address(this), msg.sender, amount);\r\n        manager.changeDebt(msg.sender, amount, false);\r\n        manager.changeTotalDebt(amount, false);\r\n    }\r\n\r\n    function getTotalDebt(bool isBuy) external view returns (uint) {\r\n        return (isBuy ? buyDebtManager : sellDebtManager).getTotalDebt();\r\n    }\r\n\r\n    function getUserDebt(address user, bool isBuy) external view returns (uint) {\r\n        return (isBuy ? buyDebtManager : sellDebtManager).getUserDebt(user);\r\n    }\r\n\r\n    function beginSettlement() override external onlyOwner{\r\n        isSettlement = true;\r\n\r\n        uint totalBuyFees = tokensToBuy.mul(productFee).div(productFeeTotal);\r\n        TransferHelper.safeApprove(buyTokenAddress, dexRouterAddress, tokensToBuy.add(totalBuyFees));\r\n    }\r\n\r\n    function endSettlement() override external onlyOwner {\r\n        uint productPrice = getPrice();\r\n\r\n        buyDebtManager.changeTotalDebt(tokensToBuy.mul(1 ether).div(productPrice), true);\r\n        sellDebtManager.changeTotalDebt(tokensSold, true);  // TODO: what if the price changes for tokensToBuy?\r\n\r\n        tokensToBuy = 0;\r\n        tokensToSell = 0;\r\n        tokensSold = 0;\r\n        isSettlement = false;\r\n    }\r\n\r\n    function manageTokensSell(TokenInfo memory token, uint amount, uint tokenPrice) private {\r\n        ISwapRouter dexRouter = ISwapRouter(dexRouterAddress);\r\n\r\n        uint tokenPercentage = amount.mul(getPrice()).mul(token.indexPercentage).div(100);\r\n        uint amountIn = tokenPercentage.div(tokenPrice);\r\n\r\n        uint usdAmountIn = amountIn.mul(tokenPrice).div(1 ether);\r\n        uint amountOutMinimum = usdAmountIn.sub(usdAmountIn.mul(productFee).div(productFeeTotal));\r\n\r\n        uint amountOut;\r\n        TransferHelper.safeApprove(token.tokenAddress, dexRouterAddress, amountIn);\r\n\r\n        if(token.intermediateToken == address(0)){\r\n            amountOut = dexRouter.exactInputSingle(\r\n                ISwapRouter.ExactInputSingleParams({\r\n                    tokenIn: token.tokenAddress,\r\n                    tokenOut: buyTokenAddress,\r\n                    fee: token.poolFees[0],\r\n                    recipient: address(this),\r\n                    deadline: block.timestamp,\r\n                    amountIn: amountIn,\r\n                    amountOutMinimum: amountOutMinimum,\r\n                    sqrtPriceLimitX96: 0\r\n                })\r\n            );\r\n        }else{\r\n            amountOut = dexRouter.exactInput(\r\n                ISwapRouter.ExactInputParams({\r\n                    path: abi.encodePacked(\r\n                        token.tokenAddress,\r\n                        token.poolFees[1],\r\n                        token.intermediateToken,\r\n                        token.poolFees[0],\r\n                        buyTokenAddress\r\n                    ),\r\n                    recipient: address(this),\r\n                    deadline: block.timestamp,\r\n                    amountIn: amountIn,\r\n                    amountOutMinimum: amountOutMinimum\r\n                })\r\n            );\r\n        }\r\n\r\n        tokensSold = tokensSold.add(amountOut);\r\n    }\r\n\r\n    function manageTokensBuy(TokenInfo memory token, uint amount, uint tokenPrice) private {\r\n        ISwapRouter dexRouter = ISwapRouter(dexRouterAddress);\r\n        uint amountOut = amount.mul(1 ether).div(tokenPrice);\r\n        uint amountInMaximum = amount.add(amount.mul(productFee).div(productFeeTotal));\r\n\r\n        if(token.intermediateToken == address(0)){\r\n            dexRouter.exactOutputSingle(\r\n                ISwapRouter.ExactOutputSingleParams({\r\n                    tokenIn: buyTokenAddress,\r\n                    tokenOut: token.tokenAddress,\r\n                    fee: token.poolFees[0],\r\n                    recipient: address(this),\r\n                    deadline: block.timestamp,\r\n                    amountOut: amountOut,\r\n                    amountInMaximum: amountInMaximum,\r\n                    sqrtPriceLimitX96: 0\r\n                })\r\n            );\r\n        }else{\r\n            dexRouter.exactOutput(\r\n                ISwapRouter.ExactOutputParams({\r\n                    path: abi.encodePacked(\r\n                        token.tokenAddress,\r\n                        token.poolFees[1],\r\n                        token.intermediateToken,\r\n                        token.poolFees[0],\r\n                        buyTokenAddress\r\n                    ),\r\n                    recipient: address(this),\r\n                    deadline: block.timestamp,\r\n                    amountOut: amountOut,\r\n                    amountInMaximum: amountInMaximum\r\n                })\r\n            );\r\n        }\r\n\r\n    }\r\n\r\n    function manageTokens() external onlyOwner {\r\n        lastManagedToken += 1;\r\n        if(lastManagedToken > tokens.length - 1){ lastManagedToken = 0; }\r\n\r\n        TokenInfo memory token = tokens[lastManagedToken];\r\n        uint tokensToBuyAmount = tokensToBuy.mul(token.indexPercentage).div(100);\r\n        uint tokenPrice = getTokenPrice(token);\r\n\r\n        if(tokensToBuyAmount > 0){\r\n            manageTokensBuy(token, tokensToBuyAmount, tokenPrice);\r\n        }\r\n        if(tokensToSell > 0){\r\n            manageTokensSell(token, tokensToSell, tokenPrice);\r\n        }\r\n    }\r\n\r\n    function getPrice() public view override returns (uint) {\r\n        uint indexTotalPrice = 0;\r\n\r\n        for (uint i = 0; i < tokens.length; i++) {\r\n            TokenInfo memory token = tokens[i];\r\n            indexTotalPrice = indexTotalPrice.add(getTokenPrice(token).mul(token.indexPercentage).div(100));\r\n        }\r\n\r\n        return indexTotalPrice;\r\n    }\r\n\r\n}\r\n",
  "sourcePath": "D:\\JavascriptProjects\\crypto-index\\contracts\\indices\\BaseIndex.sol",
  "compiler": {
    "name": "solc",
    "version": "0.7.6+commit.7338295f.Emscripten.clang"
  },
  "schemaVersion": "3.4.6",
  "updatedAt": "2022-05-30T13:47:40.215Z",
  "devdoc": {
    "kind": "dev",
    "methods": {
      "owner()": {
        "details": "Returns the address of the current owner."
      },
      "renounceOwnership()": {
        "details": "Leaves the contract without owner. It will not be possible to call `onlyOwner` functions anymore. Can only be called by the current owner. NOTE: Renouncing ownership will leave the contract without an owner, thereby removing any functionality that is only available to the owner."
      },
      "transferOwnership(address)": {
        "details": "Transfers ownership of the contract to a new account (`newOwner`). Can only be called by the current owner."
      }
    },
    "version": 1
  },
  "userdoc": {
    "kind": "user",
    "methods": {},
    "version": 1
  }
}