{
  "contractName": "BaseIndex",
  "abi": [
    {
      "inputs": [],
      "stateMutability": "nonpayable",
      "type": "constructor"
    },
    {
      "anonymous": false,
      "inputs": [
        {
          "indexed": false,
          "internalType": "address",
          "name": "account",
          "type": "address"
        },
        {
          "indexed": false,
          "internalType": "uint256",
          "name": "debtAmount",
          "type": "uint256"
        }
      ],
      "name": "DebtRetrieved",
      "type": "event"
    },
    {
      "anonymous": false,
      "inputs": [
        {
          "indexed": true,
          "internalType": "address",
          "name": "previousOwner",
          "type": "address"
        },
        {
          "indexed": true,
          "internalType": "address",
          "name": "newOwner",
          "type": "address"
        }
      ],
      "name": "OwnershipTransferred",
      "type": "event"
    },
    {
      "anonymous": false,
      "inputs": [
        {
          "indexed": false,
          "internalType": "address",
          "name": "account",
          "type": "address"
        },
        {
          "indexed": false,
          "internalType": "uint256",
          "name": "buyTokenAmount",
          "type": "uint256"
        },
        {
          "indexed": false,
          "internalType": "uint256",
          "name": "indexTokenAmount",
          "type": "uint256"
        }
      ],
      "name": "ProductBought",
      "type": "event"
    },
    {
      "anonymous": false,
      "inputs": [
        {
          "indexed": false,
          "internalType": "address",
          "name": "account",
          "type": "address"
        },
        {
          "indexed": false,
          "internalType": "uint256",
          "name": "buyTokenAmount",
          "type": "uint256"
        },
        {
          "indexed": false,
          "internalType": "uint256",
          "name": "indexTokenAmount",
          "type": "uint256"
        }
      ],
      "name": "ProductSold",
      "type": "event"
    },
    {
      "inputs": [],
      "name": "WETH",
      "outputs": [
        {
          "internalType": "address",
          "name": "",
          "type": "address"
        }
      ],
      "stateMutability": "view",
      "type": "function"
    },
    {
      "inputs": [],
      "name": "buyTokenAddress",
      "outputs": [
        {
          "internalType": "address",
          "name": "",
          "type": "address"
        }
      ],
      "stateMutability": "view",
      "type": "function"
    },
    {
      "inputs": [
        {
          "internalType": "uint256",
          "name": "amount",
          "type": "uint256"
        }
      ],
      "name": "calculateFee",
      "outputs": [
        {
          "internalType": "uint256",
          "name": "",
          "type": "uint256"
        },
        {
          "internalType": "uint256",
          "name": "",
          "type": "uint256"
        }
      ],
      "stateMutability": "view",
      "type": "function"
    },
    {
      "inputs": [
        {
          "internalType": "uint8",
          "name": "_fee",
          "type": "uint8"
        },
        {
          "internalType": "uint256",
          "name": "_feeTotal",
          "type": "uint256"
        }
      ],
      "name": "changeFee",
      "outputs": [],
      "stateMutability": "nonpayable",
      "type": "function"
    },
    {
      "inputs": [],
      "name": "getFee",
      "outputs": [
        {
          "internalType": "uint256",
          "name": "",
          "type": "uint256"
        },
        {
          "internalType": "uint256",
          "name": "",
          "type": "uint256"
        }
      ],
      "stateMutability": "view",
      "type": "function"
    },
    {
      "inputs": [],
      "name": "indexToken",
      "outputs": [
        {
          "internalType": "contract IndexToken",
          "name": "",
          "type": "address"
        }
      ],
      "stateMutability": "view",
      "type": "function"
    },
    {
      "inputs": [],
      "name": "isLocked",
      "outputs": [
        {
          "internalType": "bool",
          "name": "",
          "type": "bool"
        }
      ],
      "stateMutability": "view",
      "type": "function"
    },
    {
      "inputs": [],
      "name": "isSettlementActive",
      "outputs": [
        {
          "internalType": "bool",
          "name": "",
          "type": "bool"
        }
      ],
      "stateMutability": "view",
      "type": "function"
    },
    {
      "inputs": [],
      "name": "lastManagedToken",
      "outputs": [
        {
          "internalType": "uint256",
          "name": "",
          "type": "uint256"
        }
      ],
      "stateMutability": "view",
      "type": "function"
    },
    {
      "inputs": [],
      "name": "owner",
      "outputs": [
        {
          "internalType": "address",
          "name": "",
          "type": "address"
        }
      ],
      "stateMutability": "view",
      "type": "function"
    },
    {
      "inputs": [],
      "name": "renounceOwnership",
      "outputs": [],
      "stateMutability": "nonpayable",
      "type": "function"
    },
    {
      "inputs": [
        {
          "internalType": "uint256",
          "name": "",
          "type": "uint256"
        }
      ],
      "name": "tokens",
      "outputs": [
        {
          "internalType": "uint8",
          "name": "indexPercentage",
          "type": "uint8"
        },
        {
          "internalType": "address",
          "name": "tokenAddress",
          "type": "address"
        },
        {
          "internalType": "address",
          "name": "priceOracleAddress",
          "type": "address"
        },
        {
          "internalType": "address",
          "name": "intermediateToken",
          "type": "address"
        }
      ],
      "stateMutability": "view",
      "type": "function"
    },
    {
      "inputs": [],
      "name": "tokensToBuy",
      "outputs": [
        {
          "internalType": "uint256",
          "name": "",
          "type": "uint256"
        }
      ],
      "stateMutability": "view",
      "type": "function"
    },
    {
      "inputs": [],
      "name": "tokensToSell",
      "outputs": [
        {
          "internalType": "uint256",
          "name": "",
          "type": "uint256"
        }
      ],
      "stateMutability": "view",
      "type": "function"
    },
    {
      "inputs": [],
      "name": "totalAvailableDebt",
      "outputs": [
        {
          "internalType": "uint256",
          "name": "",
          "type": "uint256"
        }
      ],
      "stateMutability": "view",
      "type": "function"
    },
    {
      "inputs": [
        {
          "internalType": "address",
          "name": "newOwner",
          "type": "address"
        }
      ],
      "name": "transferOwnership",
      "outputs": [],
      "stateMutability": "nonpayable",
      "type": "function"
    },
    {
      "inputs": [
        {
          "internalType": "address",
          "name": "",
          "type": "address"
        }
      ],
      "name": "usersDebt",
      "outputs": [
        {
          "internalType": "uint256",
          "name": "",
          "type": "uint256"
        }
      ],
      "stateMutability": "view",
      "type": "function"
    },
    {
      "inputs": [],
      "name": "name",
      "outputs": [
        {
          "internalType": "string",
          "name": "",
          "type": "string"
        }
      ],
      "stateMutability": "pure",
      "type": "function"
    },
    {
      "inputs": [],
      "name": "symbol",
      "outputs": [
        {
          "internalType": "string",
          "name": "",
          "type": "string"
        }
      ],
      "stateMutability": "pure",
      "type": "function"
    },
    {
      "inputs": [],
      "name": "getComponents",
      "outputs": [
        {
          "components": [
            {
              "internalType": "uint8",
              "name": "indexPercentage",
              "type": "uint8"
            },
            {
              "internalType": "address",
              "name": "tokenAddress",
              "type": "address"
            },
            {
              "internalType": "address",
              "name": "priceOracleAddress",
              "type": "address"
            },
            {
              "internalType": "uint24[2]",
              "name": "poolFees",
              "type": "uint24[2]"
            },
            {
              "internalType": "address",
              "name": "intermediateToken",
              "type": "address"
            }
          ],
          "internalType": "struct BaseIndex.TokenInfo[]",
          "name": "",
          "type": "tuple[]"
        }
      ],
      "stateMutability": "view",
      "type": "function"
    },
    {
      "inputs": [],
      "name": "shortDescription",
      "outputs": [
        {
          "internalType": "string",
          "name": "",
          "type": "string"
        }
      ],
      "stateMutability": "pure",
      "type": "function"
    },
    {
      "inputs": [],
      "name": "longDescription",
      "outputs": [
        {
          "internalType": "string",
          "name": "",
          "type": "string"
        }
      ],
      "stateMutability": "pure",
      "type": "function"
    },
    {
      "inputs": [
        {
          "components": [
            {
              "internalType": "uint8",
              "name": "indexPercentage",
              "type": "uint8"
            },
            {
              "internalType": "address",
              "name": "tokenAddress",
              "type": "address"
            },
            {
              "internalType": "address",
              "name": "priceOracleAddress",
              "type": "address"
            },
            {
              "internalType": "uint24[2]",
              "name": "poolFees",
              "type": "uint24[2]"
            },
            {
              "internalType": "address",
              "name": "intermediateToken",
              "type": "address"
            }
          ],
          "internalType": "struct BaseIndex.TokenInfo",
          "name": "token",
          "type": "tuple"
        }
      ],
      "name": "getTokenPrice",
      "outputs": [
        {
          "internalType": "uint256",
          "name": "",
          "type": "uint256"
        }
      ],
      "stateMutability": "view",
      "type": "function"
    },
    {
      "inputs": [],
      "name": "image",
      "outputs": [
        {
          "internalType": "string",
          "name": "",
          "type": "string"
        }
      ],
      "stateMutability": "pure",
      "type": "function"
    },
    {
      "inputs": [],
      "name": "getTotalLockedValue",
      "outputs": [
        {
          "internalType": "uint256",
          "name": "",
          "type": "uint256"
        }
      ],
      "stateMutability": "view",
      "type": "function"
    },
    {
      "inputs": [
        {
          "internalType": "uint256",
          "name": "amount",
          "type": "uint256"
        }
      ],
      "name": "buy",
      "outputs": [],
      "stateMutability": "nonpayable",
      "type": "function"
    },
    {
      "inputs": [
        {
          "internalType": "uint256",
          "name": "amount",
          "type": "uint256"
        }
      ],
      "name": "retrieveDebt",
      "outputs": [],
      "stateMutability": "nonpayable",
      "type": "function"
    },
    {
      "inputs": [
        {
          "internalType": "uint256",
          "name": "amount",
          "type": "uint256"
        }
      ],
      "name": "sell",
      "outputs": [],
      "stateMutability": "nonpayable",
      "type": "function"
    },
    {
      "inputs": [],
      "name": "beginSettlement",
      "outputs": [],
      "stateMutability": "nonpayable",
      "type": "function"
    },
    {
      "inputs": [],
      "name": "endSettlement",
      "outputs": [],
      "stateMutability": "nonpayable",
      "type": "function"
    },
    {
      "inputs": [],
      "name": "manageTokens",
      "outputs": [],
      "stateMutability": "nonpayable",
      "type": "function"
    },
    {
      "inputs": [],
      "name": "getPrice",
      "outputs": [
        {
          "internalType": "uint256",
          "name": "",
          "type": "uint256"
        }
      ],
      "stateMutability": "view",
      "type": "function"
    }
  ],
  "bytecode": "0x60a06040526000600a553480156200001657600080fd5b5060006200002962001c8d60201b60201c565b9050806000806101000a81548173ffffffffffffffffffffffffffffffffffffffff021916908373ffffffffffffffffffffffffffffffffffffffff1602179055508073ffffffffffffffffffffffffffffffffffffffff16600073ffffffffffffffffffffffffffffffffffffffff167f8be0079c531659141344cd1fd0a4f28419497f9722a3daafe3b4186f6b6457e060405160405180910390a3506001808190555073e592427a0aece92de3edee1f18e0157c0586156473ffffffffffffffffffffffffffffffffffffffff1660808173ffffffffffffffffffffffffffffffffffffffff1660601b81525050736b175474e89094c44da98b954eedeac495271d0f600260016101000a81548173ffffffffffffffffffffffffffffffffffffffff021916908373ffffffffffffffffffffffffffffffffffffffff16021790555073c02aaa39b223fe8d0a0e5c4f27ead9083c756cc2600960006101000a81548173ffffffffffffffffffffffffffffffffffffffff021916908373ffffffffffffffffffffffffffffffffffffffff160217905550600a600260156101000a81548160ff021916908360ff16021790555060646003819055506064600481905550306012604051620002009062001c95565b6200020d92919062001e5b565b604051809103906000f0801580156200022a573d6000803e3d6000fd5b50600860006101000a81548173ffffffffffffffffffffffffffffffffffffffff021916908373ffffffffffffffffffffffffffffffffffffffff160217905550731f98431c8ad98523631ae4a59f267346ea31f984600260019054906101000a900473ffffffffffffffffffffffffffffffffffffffff16604051620002b19062001ca3565b620002be92919062001e2e565b604051809103906000f080158015620002db573d6000803e3d6000fd5b50600760006101000a81548173ffffffffffffffffffffffffffffffffffffffff021916908373ffffffffffffffffffffffffffffffffffffffff1602179055506000600260006101000a81548160ff02191690831515021790555060066040518060a00160405280600f60ff16815260200173c02aaa39b223fe8d0a0e5c4f27ead9083c756cc273ffffffffffffffffffffffffffffffffffffffff168152602001735f4ec3df9cbd43714fe2740f5e3616155c5b841973ffffffffffffffffffffffffffffffffffffffff1681526020016040518060400160405280610bb862ffffff1662ffffff168152602001610bb862ffffff1662ffffff168152508152602001600073ffffffffffffffffffffffffffffffffffffffff16815250908060018154018082558091505060019003906000526020600020906004020160009091909190915060008201518160000160006101000a81548160ff021916908360ff16021790555060208201518160000160016101000a81548173ffffffffffffffffffffffffffffffffffffffff021916908373ffffffffffffffffffffffffffffffffffffffff16021790555060408201518160010160006101000a81548173ffffffffffffffffffffffffffffffffffffffff021916908373ffffffffffffffffffffffffffffffffffffffff160217905550606082015181600201906002620004ec92919062001cb1565b5060808201518160030160006101000a81548173ffffffffffffffffffffffffffffffffffffffff021916908373ffffffffffffffffffffffffffffffffffffffff160217905550505060066040518060a00160405280600560ff16815260200173514910771af9ca656af840dff83e8264ecf986ca73ffffffffffffffffffffffffffffffffffffffff168152602001732c1d072e956affc0d435cb7ac38ef18d24d9127c73ffffffffffffffffffffffffffffffffffffffff1681526020016040518060400160405280610bb862ffffff1662ffffff168152602001610bb862ffffff1662ffffff168152508152602001600960009054906101000a900473ffffffffffffffffffffffffffffffffffffffff1673ffffffffffffffffffffffffffffffffffffffff16815250908060018154018082558091505060019003906000526020600020906004020160009091909190915060008201518160000160006101000a81548160ff021916908360ff16021790555060208201518160000160016101000a81548173ffffffffffffffffffffffffffffffffffffffff021916908373ffffffffffffffffffffffffffffffffffffffff16021790555060408201518160010160006101000a81548173ffffffffffffffffffffffffffffffffffffffff021916908373ffffffffffffffffffffffffffffffffffffffff1602179055506060820151816002019060026200070c92919062001cb1565b5060808201518160030160006101000a81548173ffffffffffffffffffffffffffffffffffffffff021916908373ffffffffffffffffffffffffffffffffffffffff160217905550505060066040518060a00160405280600560ff16815260200173418d75f65a02b3d53b2418fb8e1fe493759c760573ffffffffffffffffffffffffffffffffffffffff1681526020017314e613ac84a31f709eadbdf89c6cc390fdc9540a73ffffffffffffffffffffffffffffffffffffffff1681526020016040518060400160405280610bb862ffffff1662ffffff168152602001610bb862ffffff1662ffffff168152508152602001600960009054906101000a900473ffffffffffffffffffffffffffffffffffffffff1673ffffffffffffffffffffffffffffffffffffffff16815250908060018154018082558091505060019003906000526020600020906004020160009091909190915060008201518160000160006101000a81548160ff021916908360ff16021790555060208201518160000160016101000a81548173ffffffffffffffffffffffffffffffffffffffff021916908373ffffffffffffffffffffffffffffffffffffffff16021790555060408201518160010160006101000a81548173ffffffffffffffffffffffffffffffffffffffff021916908373ffffffffffffffffffffffffffffffffffffffff1602179055506060820151816002019060026200092c92919062001cb1565b5060808201518160030160006101000a81548173ffffffffffffffffffffffffffffffffffffffff021916908373ffffffffffffffffffffffffffffffffffffffff160217905550505060066040518060a00160405280600a60ff168152602001731f9840a85d5af5bf1d1762f925bdaddc4201f98473ffffffffffffffffffffffffffffffffffffffff16815260200173553303d460ee0afb37edff9be42922d8ff63220e73ffffffffffffffffffffffffffffffffffffffff1681526020016040518060400160405280610bb862ffffff1662ffffff168152602001610bb862ffffff1662ffffff168152508152602001600960009054906101000a900473ffffffffffffffffffffffffffffffffffffffff1673ffffffffffffffffffffffffffffffffffffffff16815250908060018154018082558091505060019003906000526020600020906004020160009091909190915060008201518160000160006101000a81548160ff021916908360ff16021790555060208201518160000160016101000a81548173ffffffffffffffffffffffffffffffffffffffff021916908373ffffffffffffffffffffffffffffffffffffffff16021790555060408201518160010160006101000a81548173ffffffffffffffffffffffffffffffffffffffff021916908373ffffffffffffffffffffffffffffffffffffffff16021790555060608201518160020190600262000b4c92919062001cb1565b5060808201518160030160006101000a81548173ffffffffffffffffffffffffffffffffffffffff021916908373ffffffffffffffffffffffffffffffffffffffff160217905550505060066040518060a00160405280600560ff16815260200173111111111117dc0aa78b770fa6a738034120c30273ffffffffffffffffffffffffffffffffffffffff16815260200173c929ad75b72593967de83e7f7cda0493458261d973ffffffffffffffffffffffffffffffffffffffff1681526020016040518060400160405280610bb862ffffff1662ffffff16815260200161271062ffffff168152508152602001600960009054906101000a900473ffffffffffffffffffffffffffffffffffffffff1673ffffffffffffffffffffffffffffffffffffffff16815250908060018154018082558091505060019003906000526020600020906004020160009091909190915060008201518160000160006101000a81548160ff021916908360ff16021790555060208201518160000160016101000a81548173ffffffffffffffffffffffffffffffffffffffff021916908373ffffffffffffffffffffffffffffffffffffffff16021790555060408201518160010160006101000a81548173ffffffffffffffffffffffffffffffffffffffff021916908373ffffffffffffffffffffffffffffffffffffffff16021790555060608201518160020190600262000d6792919062001cb1565b5060808201518160030160006101000a81548173ffffffffffffffffffffffffffffffffffffffff021916908373ffffffffffffffffffffffffffffffffffffffff160217905550505060066040518060a00160405280600560ff16815260200173c011a73ee8576fb46f5e1c5751ca3b9fe0af2a6f73ffffffffffffffffffffffffffffffffffffffff16815260200173dc3ea94cd0ac27d9a86c180091e7f78c683d369973ffffffffffffffffffffffffffffffffffffffff1681526020016040518060400160405280610bb862ffffff1662ffffff16815260200161271062ffffff168152508152602001600960009054906101000a900473ffffffffffffffffffffffffffffffffffffffff1673ffffffffffffffffffffffffffffffffffffffff16815250908060018154018082558091505060019003906000526020600020906004020160009091909190915060008201518160000160006101000a81548160ff021916908360ff16021790555060208201518160000160016101000a81548173ffffffffffffffffffffffffffffffffffffffff021916908373ffffffffffffffffffffffffffffffffffffffff16021790555060408201518160010160006101000a81548173ffffffffffffffffffffffffffffffffffffffff021916908373ffffffffffffffffffffffffffffffffffffffff16021790555060608201518160020190600262000f8292919062001cb1565b5060808201518160030160006101000a81548173ffffffffffffffffffffffffffffffffffffffff021916908373ffffffffffffffffffffffffffffffffffffffff160217905550505060066040518060a00160405280600560ff168152602001730bc529c00c6401aef6d220be8c6ea1667f6ad93e73ffffffffffffffffffffffffffffffffffffffff16815260200173a027702dbb89fbd58938e4324ac03b58d812b0e173ffffffffffffffffffffffffffffffffffffffff1681526020016040518060400160405280610bb862ffffff1662ffffff168152602001610bb862ffffff1662ffffff168152508152602001600960009054906101000a900473ffffffffffffffffffffffffffffffffffffffff1673ffffffffffffffffffffffffffffffffffffffff16815250908060018154018082558091505060019003906000526020600020906004020160009091909190915060008201518160000160006101000a81548160ff021916908360ff16021790555060208201518160000160016101000a81548173ffffffffffffffffffffffffffffffffffffffff021916908373ffffffffffffffffffffffffffffffffffffffff16021790555060408201518160010160006101000a81548173ffffffffffffffffffffffffffffffffffffffff021916908373ffffffffffffffffffffffffffffffffffffffff160217905550606082015181600201906002620011a292919062001cb1565b5060808201518160030160006101000a81548173ffffffffffffffffffffffffffffffffffffffff021916908373ffffffffffffffffffffffffffffffffffffffff160217905550505060066040518060a00160405280600560ff16815260200173c00e94cb662c3520282e6f5717214004a7f2688873ffffffffffffffffffffffffffffffffffffffff16815260200173dbd020caef83efd542f4de03e3cf0c28a4428bd573ffffffffffffffffffffffffffffffffffffffff1681526020016040518060400160405280610bb862ffffff1662ffffff168152602001610bb862ffffff1662ffffff168152508152602001600960009054906101000a900473ffffffffffffffffffffffffffffffffffffffff1673ffffffffffffffffffffffffffffffffffffffff16815250908060018154018082558091505060019003906000526020600020906004020160009091909190915060008201518160000160006101000a81548160ff021916908360ff16021790555060208201518160000160016101000a81548173ffffffffffffffffffffffffffffffffffffffff021916908373ffffffffffffffffffffffffffffffffffffffff16021790555060408201518160010160006101000a81548173ffffffffffffffffffffffffffffffffffffffff021916908373ffffffffffffffffffffffffffffffffffffffff160217905550606082015181600201906002620013c292919062001cb1565b5060808201518160030160006101000a81548173ffffffffffffffffffffffffffffffffffffffff021916908373ffffffffffffffffffffffffffffffffffffffff160217905550505060066040518060a00160405280600560ff168152602001739f8f72aa9304c8b593d555f12ef6589cc3a579a273ffffffffffffffffffffffffffffffffffffffff16815260200173ec1d1b3b0443256cc3860e24a46f108e699484aa73ffffffffffffffffffffffffffffffffffffffff1681526020016040518060400160405280610bb862ffffff1662ffffff168152602001610bb862ffffff1662ffffff168152508152602001600960009054906101000a900473ffffffffffffffffffffffffffffffffffffffff1673ffffffffffffffffffffffffffffffffffffffff16815250908060018154018082558091505060019003906000526020600020906004020160009091909190915060008201518160000160006101000a81548160ff021916908360ff16021790555060208201518160000160016101000a81548173ffffffffffffffffffffffffffffffffffffffff021916908373ffffffffffffffffffffffffffffffffffffffff16021790555060408201518160010160006101000a81548173ffffffffffffffffffffffffffffffffffffffff021916908373ffffffffffffffffffffffffffffffffffffffff160217905550606082015181600201906002620015e292919062001cb1565b5060808201518160030160006101000a81548173ffffffffffffffffffffffffffffffffffffffff021916908373ffffffffffffffffffffffffffffffffffffffff160217905550505060066040518060a00160405280600a60ff168152602001736b3595068778dd592e39a122f4f5a5cf09c90fe273ffffffffffffffffffffffffffffffffffffffff16815260200173cc70f09a6cc17553b2e31954cd36e4a2d89501f773ffffffffffffffffffffffffffffffffffffffff1681526020016040518060400160405280610bb862ffffff1662ffffff168152602001610bb862ffffff1662ffffff168152508152602001600960009054906101000a900473ffffffffffffffffffffffffffffffffffffffff1673ffffffffffffffffffffffffffffffffffffffff16815250908060018154018082558091505060019003906000526020600020906004020160009091909190915060008201518160000160006101000a81548160ff021916908360ff16021790555060208201518160000160016101000a81548173ffffffffffffffffffffffffffffffffffffffff021916908373ffffffffffffffffffffffffffffffffffffffff16021790555060408201518160010160006101000a81548173ffffffffffffffffffffffffffffffffffffffff021916908373ffffffffffffffffffffffffffffffffffffffff1602179055506060820151816002019060026200180292919062001cb1565b5060808201518160030160006101000a81548173ffffffffffffffffffffffffffffffffffffffff021916908373ffffffffffffffffffffffffffffffffffffffff160217905550505060066040518060a00160405280600a60ff168152602001734d224452801aced8b2f0aebe155379bb5d59438173ffffffffffffffffffffffffffffffffffffffff16815260200173d10abbc76679a20055e167bb80a24ac851b3705673ffffffffffffffffffffffffffffffffffffffff1681526020016040518060400160405280610bb862ffffff1662ffffff168152602001610bb862ffffff1662ffffff168152508152602001600960009054906101000a900473ffffffffffffffffffffffffffffffffffffffff1673ffffffffffffffffffffffffffffffffffffffff16815250908060018154018082558091505060019003906000526020600020906004020160009091909190915060008201518160000160006101000a81548160ff021916908360ff16021790555060208201518160000160016101000a81548173ffffffffffffffffffffffffffffffffffffffff021916908373ffffffffffffffffffffffffffffffffffffffff16021790555060408201518160010160006101000a81548173ffffffffffffffffffffffffffffffffffffffff021916908373ffffffffffffffffffffffffffffffffffffffff16021790555060608201518160020190600262001a2292919062001cb1565b5060808201518160030160006101000a81548173ffffffffffffffffffffffffffffffffffffffff021916908373ffffffffffffffffffffffffffffffffffffffff160217905550505060066040518060a00160405280600560ff16815260200173d533a949740bb3306d119cc777fa900ba034cd5273ffffffffffffffffffffffffffffffffffffffff16815260200173cd627aa160a6fa45eb793d19ef54f5062f20f33f73ffffffffffffffffffffffffffffffffffffffff1681526020016040518060400160405280610bb862ffffff1662ffffff16815260200161271062ffffff168152508152602001600960009054906101000a900473ffffffffffffffffffffffffffffffffffffffff1673ffffffffffffffffffffffffffffffffffffffff16815250908060018154018082558091505060019003906000526020600020906004020160009091909190915060008201518160000160006101000a81548160ff021916908360ff16021790555060208201518160000160016101000a81548173ffffffffffffffffffffffffffffffffffffffff021916908373ffffffffffffffffffffffffffffffffffffffff16021790555060408201518160010160006101000a81548173ffffffffffffffffffffffffffffffffffffffff021916908373ffffffffffffffffffffffffffffffffffffffff16021790555060608201518160020190600262001c3d92919062001cb1565b5060808201518160030160006101000a81548173ffffffffffffffffffffffffffffffffffffffff021916908373ffffffffffffffffffffffffffffffffffffffff160217905550505062001f54565b600033905090565b6112ff806200631083390190565b61126b806200760f83390190565b826002600901600a9004810192821562001d455791602002820160005b8382111562001d1257835183826101000a81548162ffffff021916908362ffffff160217905550926020019260030160208160020104928301926001030262001cce565b801562001d435782816101000a81549062ffffff021916905560030160208160020104928301926001030262001d12565b505b50905062001d54919062001d58565b5090565b5b8082111562001d7357600081600090555060010162001d59565b5090565b62001d828162001f04565b82525050565b62001d938162001ec3565b82525050565b62001da48162001f18565b82525050565b600062001db960078362001eb2565b91507f43525950544958000000000000000000000000000000000000000000000000006000830152602082019050919050565b600062001dfb60128362001eb2565b91507f43727970746f20696e64657820746f6b656e00000000000000000000000000006000830152602082019050919050565b600060408201905062001e45600083018562001d77565b62001e54602083018462001d88565b9392505050565b600060808201905062001e72600083018562001d88565b818103602083015262001e858162001dec565b905062001e96604083018462001d99565b818103606083015262001ea98162001daa565b90509392505050565b600082825260208201905092915050565b600062001ed08262001ed7565b9050919050565b600073ffffffffffffffffffffffffffffffffffffffff82169050919050565b600060ff82169050919050565b600062001f118262001f2c565b9050919050565b600062001f258262001ef7565b9050919050565b600062001f398262001f40565b9050919050565b600062001f4d8262001ed7565b9050919050565b60805160601c61438f62001f816000398061252852806125775280612ac25280612e3d525061438f6000f3fe608060405234801561001057600080fd5b50600436106101805760003560e01c806306fdde031461018557806313a7e54e146101a35780631da98960146101bf57806339cb683d146101dd5780633d956691146101f95780634f64b2be1461021757806360ebbf811461024a57806366869d9514610268578063715018a6146102865780638da5cb5b146102905780638e96347b146102ae57806395d89b41146102cc57806398d5fdca146102ea57806399a5d7471461030857806399d50d5d14610339578063a4e2d63414610357578063ad5c464814610375578063b759791414610393578063ba25d944146103b1578063c20120b5146103cf578063cd844554146103ed578063ced72f871461041d578063d96a094a1461043c578063e4849b3214610458578063e7d015f214610474578063ea4c1b4514610492578063eed8c66d1461049c578063ef5bf5c8146104ba578063f2fde38b146104ea578063f3ccaac014610506578063f510d90814610524578063fa2dcd931461052e575b600080fd5b61018d610538565b60405161019a9190613e05565b60405180910390f35b6101bd60048036038101906101b891906135e8565b610575565b005b6101c761064a565b6040516101d49190613e05565b60405180910390f35b6101f760048036038101906101f29190613596565b61066a565b005b6102016109c2565b60405161020e9190613f43565b60405180910390f35b610231600480360381019061022c9190613596565b6109c8565b6040516102419493929190613f87565b60405180910390f35b610252610a75565b60405161025f9190613ce0565b60405180910390f35b610270610a9b565b60405161027d9190613f43565b60405180910390f35b61028e610aa1565b005b610298610c0e565b6040516102a59190613ce0565b60405180910390f35b6102b6610c37565b6040516102c39190613f43565b60405180910390f35b6102d4610c3d565b6040516102e19190613e05565b60405180910390f35b6102f2610c7a565b6040516102ff9190613f43565b60405180910390f35b610322600480360381019061031d9190613596565b610f75565b604051610330929190613f5e565b60405180910390f35b610341610fd9565b60405161034e9190613dad565b60405180910390f35b61035f6111c6565b60405161036c9190613dcf565b60405180910390f35b61037d6111d9565b60405161038a9190613ce0565b60405180910390f35b61039b6111ff565b6040516103a89190613f43565b60405180910390f35b6103b961157e565b6040516103c69190613e05565b60405180910390f35b6103d761159e565b6040516103e49190613dcf565b60405180910390f35b6104076004803603810190610402919061356d565b6115b5565b6040516104149190613f43565b60405180910390f35b610425611684565b604051610433929190613f5e565b60405180910390f35b61045660048036038101906104519190613596565b6116a8565b005b610472600480360381019061046d9190613596565b611a61565b005b61047c611deb565b6040516104899190613dea565b60405180910390f35b61049a611e11565b005b6104a4612206565b6040516104b19190613f43565b60405180910390f35b6104d460048036038101906104cf919061351b565b61220c565b6040516104e19190613f43565b60405180910390f35b61050460048036038101906104ff919061351b565b612224565b005b61050e612416565b60405161051b9190613e05565b60405180910390f35b61052c612436565b005b6105366125a0565b005b60606040518060400160405280600b81526020017f43727970746f496e646578000000000000000000000000000000000000000000815250905090565b61057d61267c565b73ffffffffffffffffffffffffffffffffffffffff1661059b610c0e565b73ffffffffffffffffffffffffffffffffffffffff1614610624576040517f08c379a00000000000000000000000000000000000000000000000000000000081526004018080602001828103825260208152602001807f4f776e61626c653a2063616c6c6572206973206e6f7420746865206f776e657281525060200191505060405180910390fd5b81600260156101000a81548160ff021916908360ff160217905550806003819055505050565b606060405180608001604052806049815260200161431160499139905090565b600260015414156106e3576040517f08c379a000000000000000000000000000000000000000000000000000000000815260040180806020018281038252601f8152602001807f5265656e7472616e637947756172643a207265656e7472616e742063616c6c0081525060200191505060405180910390fd5b6002600181905550600560009054906101000a900460ff161561073b576040517f08c379a000000000000000000000000000000000000000000000000000000000815260040161073290613e67565b60405180910390fd5b600260009054906101000a900460ff161561078b576040517f08c379a000000000000000000000000000000000000000000000000000000000815260040161078290613e87565b60405180910390fd5b60006107df82600e60003373ffffffffffffffffffffffffffffffffffffffff1673ffffffffffffffffffffffffffffffffffffffff1681526020019081526020016000205461268490919063ffffffff16565b1161081f576040517f08c379a000000000000000000000000000000000000000000000000000000000815260040161081690613e27565b60405180910390fd5b61087181600e60003373ffffffffffffffffffffffffffffffffffffffff1673ffffffffffffffffffffffffffffffffffffffff1681526020019081526020016000205461268490919063ffffffff16565b600e60003373ffffffffffffffffffffffffffffffffffffffff1673ffffffffffffffffffffffffffffffffffffffff168152602001908152602001600020819055506108c981600d5461268490919063ffffffff16565b600d81905550600260019054906101000a900473ffffffffffffffffffffffffffffffffffffffff1673ffffffffffffffffffffffffffffffffffffffff1663a9059cbb33836040518363ffffffff1660e01b815260040161092c929190613cfb565b602060405180830381600087803b15801561094657600080fd5b505af115801561095a573d6000803e3d6000fd5b505050506040513d601f19601f8201168201806040525081019061097e9190613544565b507f152a793a1c0b3c4f63c36f92139ab735e60f27cd005a6dd2fd0154687bfeded133826040516109b0929190613cfb565b60405180910390a16001808190555050565b600b5481565b600681815481106109d857600080fd5b90600052602060002090600402016000915090508060000160009054906101000a900460ff16908060000160019054906101000a900473ffffffffffffffffffffffffffffffffffffffff16908060010160009054906101000a900473ffffffffffffffffffffffffffffffffffffffff16908060030160009054906101000a900473ffffffffffffffffffffffffffffffffffffffff16905084565b600260019054906101000a900473ffffffffffffffffffffffffffffffffffffffff1681565b600d5481565b610aa961267c565b73ffffffffffffffffffffffffffffffffffffffff16610ac7610c0e565b73ffffffffffffffffffffffffffffffffffffffff1614610b50576040517f08c379a00000000000000000000000000000000000000000000000000000000081526004018080602001828103825260208152602001807f4f776e61626c653a2063616c6c6572206973206e6f7420746865206f776e657281525060200191505060405180910390fd5b600073ffffffffffffffffffffffffffffffffffffffff1660008054906101000a900473ffffffffffffffffffffffffffffffffffffffff1673ffffffffffffffffffffffffffffffffffffffff167f8be0079c531659141344cd1fd0a4f28419497f9722a3daafe3b4186f6b6457e060405160405180910390a360008060006101000a81548173ffffffffffffffffffffffffffffffffffffffff021916908373ffffffffffffffffffffffffffffffffffffffff160217905550565b60008060009054906101000a900473ffffffffffffffffffffffffffffffffffffffff16905090565b600c5481565b60606040518060400160405280600781526020017f4352595054495800000000000000000000000000000000000000000000000000815250905090565b60008060005b600680549050811015610f5957600060068281548110610c9c57fe5b90600052602060002090600402016040518060a00160405290816000820160009054906101000a900460ff1660ff1660ff1681526020016000820160019054906101000a900473ffffffffffffffffffffffffffffffffffffffff1673ffffffffffffffffffffffffffffffffffffffff1673ffffffffffffffffffffffffffffffffffffffff1681526020016001820160009054906101000a900473ffffffffffffffffffffffffffffffffffffffff1673ffffffffffffffffffffffffffffffffffffffff1673ffffffffffffffffffffffffffffffffffffffff16815260200160028201600280602002604051908101604052809291908260028015610de4576020028201916000905b82829054906101000a900462ffffff1662ffffff1681526020019060030190602082600201049283019260010382029150808411610da95790505b505050505081526020016003820160009054906101000a900473ffffffffffffffffffffffffffffffffffffffff1673ffffffffffffffffffffffffffffffffffffffff1673ffffffffffffffffffffffffffffffffffffffff16815250509050610f49610f3a6064610f2c846000015160ff16600760009054906101000a900473ffffffffffffffffffffffffffffffffffffffff1673ffffffffffffffffffffffffffffffffffffffff16633292054887604001518860600151600060028110610eac57fe5b60200201516040518363ffffffff1660e01b8152600401610ece929190613d5b565b60206040518083038186803b158015610ee657600080fd5b505afa158015610efa573d6000803e3d6000fd5b505050506040513d601f19601f82011682018060405250810190610f1e91906135bf565b61270790919063ffffffff16565b61278d90919063ffffffff16565b8461281690919063ffffffff16565b9250508080600101915050610c80565b50610f6f6004548261278d90919063ffffffff16565b91505090565b6000806000610fb3600260159054906101000a900460ff1660ff16610fa56003548761278d90919063ffffffff16565b61270790919063ffffffff16565b90506000610fca828661268490919063ffffffff16565b90508181935093505050915091565b60606006805480602002602001604051908101604052809291908181526020016000905b828210156111bd57838290600052602060002090600402016040518060a00160405290816000820160009054906101000a900460ff1660ff1660ff1681526020016000820160019054906101000a900473ffffffffffffffffffffffffffffffffffffffff1673ffffffffffffffffffffffffffffffffffffffff1673ffffffffffffffffffffffffffffffffffffffff1681526020016001820160009054906101000a900473ffffffffffffffffffffffffffffffffffffffff1673ffffffffffffffffffffffffffffffffffffffff1673ffffffffffffffffffffffffffffffffffffffff1681526020016002820160028060200260405190810160405280929190826002801561114f576020028201916000905b82829054906101000a900462ffffff1662ffffff16815260200190600301906020826002010492830192600103820291508084116111145790505b505050505081526020016003820160009054906101000a900473ffffffffffffffffffffffffffffffffffffffff1673ffffffffffffffffffffffffffffffffffffffff1673ffffffffffffffffffffffffffffffffffffffff168152505081526020019060010190610ffd565b50505050905090565b600260009054906101000a900460ff1681565b600960009054906101000a900473ffffffffffffffffffffffffffffffffffffffff1681565b60008060005b6006805490508110156115765760006006828154811061122157fe5b90600052602060002090600402016040518060a00160405290816000820160009054906101000a900460ff1660ff1660ff1681526020016000820160019054906101000a900473ffffffffffffffffffffffffffffffffffffffff1673ffffffffffffffffffffffffffffffffffffffff1673ffffffffffffffffffffffffffffffffffffffff1681526020016001820160009054906101000a900473ffffffffffffffffffffffffffffffffffffffff1673ffffffffffffffffffffffffffffffffffffffff1673ffffffffffffffffffffffffffffffffffffffff16815260200160028201600280602002604051908101604052809291908260028015611369576020028201916000905b82829054906101000a900462ffffff1662ffffff168152602001906003019060208260020104928301926001038202915080841161132e5790505b505050505081526020016003820160009054906101000a900473ffffffffffffffffffffffffffffffffffffffff1673ffffffffffffffffffffffffffffffffffffffff1673ffffffffffffffffffffffffffffffffffffffff168152505090506000816020015190506000611535600760009054906101000a900473ffffffffffffffffffffffffffffffffffffffff1673ffffffffffffffffffffffffffffffffffffffff1663329205488560400151866060015160006002811061142c57fe5b60200201516040518363ffffffff1660e01b815260040161144e929190613d5b565b60206040518083038186803b15801561146657600080fd5b505afa15801561147a573d6000803e3d6000fd5b505050506040513d601f19601f8201168201806040525081019061149e91906135bf565b8373ffffffffffffffffffffffffffffffffffffffff166370a08231306040518263ffffffff1660e01b81526004016114d79190613ce0565b60206040518083038186803b1580156114ef57600080fd5b505afa158015611503573d6000803e3d6000fd5b505050506040513d601f19601f8201168201806040525081019061152791906135bf565b61270790919063ffffffff16565b9050611564611555670de0b6b3a76400008361278d90919063ffffffff16565b8661281690919063ffffffff16565b94505050508080600101915050611205565b508091505090565b606060405180608001604052806049815260200161431160499139905090565b6000600560009054906101000a900460ff16905090565b6000600760009054906101000a900473ffffffffffffffffffffffffffffffffffffffff1673ffffffffffffffffffffffffffffffffffffffff1663329205488360400151846060015160006002811061160b57fe5b60200201516040518363ffffffff1660e01b815260040161162d929190613d5b565b60206040518083038186803b15801561164557600080fd5b505afa158015611659573d6000803e3d6000fd5b505050506040513d601f19601f8201168201806040525081019061167d91906135bf565b9050919050565b600080600260159054906101000a900460ff166003548160ff169150915091509091565b60026001541415611721576040517f08c379a000000000000000000000000000000000000000000000000000000000815260040180806020018281038252601f8152602001807f5265656e7472616e637947756172643a207265656e7472616e742063616c6c0081525060200191505060405180910390fd5b6002600181905550600560009054906101000a900460ff1615611779576040517f08c379a000000000000000000000000000000000000000000000000000000000815260040161177090613e67565b60405180910390fd5b6000611783610c7a565b905060008061179184610f75565b9150915060018110156117d9576040517f08c379a00000000000000000000000000000000000000000000000000000000081526004016117d090613e47565b60405180910390fd5b6000611808670de0b6b3a76400006117fa868561270790919063ffffffff16565b61278d90919063ffffffff16565b905061181f81600c5461281690919063ffffffff16565b600c81905550600860009054906101000a900473ffffffffffffffffffffffffffffffffffffffff1673ffffffffffffffffffffffffffffffffffffffff1663a9059cbb33846040518363ffffffff1660e01b8152600401611882929190613cfb565b602060405180830381600087803b15801561189c57600080fd5b505af11580156118b0573d6000803e3d6000fd5b505050506040513d601f19601f820116820180604052508101906118d49190613544565b5061192f600260019054906101000a900473ffffffffffffffffffffffffffffffffffffffff16333061192a670de0b6b3a764000061191c8a8c61270790919063ffffffff16565b61278d90919063ffffffff16565b61289e565b6000600260019054906101000a900473ffffffffffffffffffffffffffffffffffffffff1690508073ffffffffffffffffffffffffffffffffffffffff1663a9059cbb61197a610c0e565b6119a7670de0b6b3a76400006119998a8a61270790919063ffffffff16565b61278d90919063ffffffff16565b6040518363ffffffff1660e01b81526004016119c4929190613d84565b602060405180830381600087803b1580156119de57600080fd5b505af11580156119f2573d6000803e3d6000fd5b505050506040513d601f19601f82011682018060405250810190611a169190613544565b507fc032f62758cac23a902e648ab54b6825665b9bc19e7cd0a8ab915cbf3eea4fa0338385604051611a4a93929190613d24565b60405180910390a150505050506001808190555050565b60026001541415611ada576040517f08c379a000000000000000000000000000000000000000000000000000000000815260040180806020018281038252601f8152602001807f5265656e7472616e637947756172643a207265656e7472616e742063616c6c0081525060200191505060405180910390fd5b6002600181905550600560009054906101000a900460ff1615611b32576040517f08c379a0000000000000000000000000000000000000000000000000000000008152600401611b2990613e67565b60405180910390fd5b600260009054906101000a900460ff1615611b82576040517f08c379a0000000000000000000000000000000000000000000000000000000008152600401611b7990613e87565b60405180910390fd5b600080611b8e83610f75565b915091506001811015611bd6576040517f08c379a0000000000000000000000000000000000000000000000000000000008152600401611bcd90613ea7565b60405180910390fd5b6000611c0c670de0b6b3a7640000611bfe611bef610c7a565b8561270790919063ffffffff16565b61278d90919063ffffffff16565b9050611c6081600e60003373ffffffffffffffffffffffffffffffffffffffff1673ffffffffffffffffffffffffffffffffffffffff1681526020019081526020016000205461281690919063ffffffff16565b600e60003373ffffffffffffffffffffffffffffffffffffffff1673ffffffffffffffffffffffffffffffffffffffff16815260200190815260200160002081905550611cb8600b548361281690919063ffffffff16565b600b81905550611cec600860009054906101000a900473ffffffffffffffffffffffffffffffffffffffff1633308761289e565b600860009054906101000a900473ffffffffffffffffffffffffffffffffffffffff1673ffffffffffffffffffffffffffffffffffffffff1663a9059cbb611d32610c0e565b856040518363ffffffff1660e01b8152600401611d50929190613d84565b602060405180830381600087803b158015611d6a57600080fd5b505af1158015611d7e573d6000803e3d6000fd5b505050506040513d601f19601f82011682018060405250810190611da29190613544565b507fc779ed4173ee0a3293a6575326fb4fcb5c81023bbc481cf910100c0fbe836e33338284604051611dd693929190613d24565b60405180910390a15050506001808190555050565b600860009054906101000a900473ffffffffffffffffffffffffffffffffffffffff1681565b611e1961267c565b73ffffffffffffffffffffffffffffffffffffffff16611e37610c0e565b73ffffffffffffffffffffffffffffffffffffffff1614611ec0576040517f08c379a00000000000000000000000000000000000000000000000000000000081526004018080602001828103825260208152602001807f4f776e61626c653a2063616c6c6572206973206e6f7420746865206f776e657281525060200191505060405180910390fd5b6001600a60008282540192505081905550600160068054905003600a541115611eec576000600a819055505b60006006600a5481548110611efd57fe5b90600052602060002090600402016040518060a00160405290816000820160009054906101000a900460ff1660ff1660ff1681526020016000820160019054906101000a900473ffffffffffffffffffffffffffffffffffffffff1673ffffffffffffffffffffffffffffffffffffffff1673ffffffffffffffffffffffffffffffffffffffff1681526020016001820160009054906101000a900473ffffffffffffffffffffffffffffffffffffffff1673ffffffffffffffffffffffffffffffffffffffff1673ffffffffffffffffffffffffffffffffffffffff16815260200160028201600280602002604051908101604052809291908260028015612045576020028201916000905b82829054906101000a900462ffffff1662ffffff168152602001906003019060208260020104928301926001038202915080841161200a5790505b505050505081526020016003820160009054906101000a900473ffffffffffffffffffffffffffffffffffffffff1673ffffffffffffffffffffffffffffffffffffffff1673ffffffffffffffffffffffffffffffffffffffff1681525050905060006120d7826000015160ff166120c96064600c5461278d90919063ffffffff16565b61270790919063ffffffff16565b9050600061210a836000015160ff166120fc6064600b5461278d90919063ffffffff16565b61270790919063ffffffff16565b90506000600760009054906101000a900473ffffffffffffffffffffffffffffffffffffffff1673ffffffffffffffffffffffffffffffffffffffff1663329205488560400151866060015160006002811061216257fe5b60200201516040518363ffffffff1660e01b8152600401612184929190613d5b565b60206040518083038186803b15801561219c57600080fd5b505afa1580156121b0573d6000803e3d6000fd5b505050506040513d601f19601f820116820180604052508101906121d491906135bf565b905060008311156121eb576121ea848483612abe565b5b6000821115612200576121ff848383612e39565b5b50505050565b600a5481565b600e6020528060005260406000206000915090505481565b61222c61267c565b73ffffffffffffffffffffffffffffffffffffffff1661224a610c0e565b73ffffffffffffffffffffffffffffffffffffffff16146122d3576040517f08c379a00000000000000000000000000000000000000000000000000000000081526004018080602001828103825260208152602001807f4f776e61626c653a2063616c6c6572206973206e6f7420746865206f776e657281525060200191505060405180910390fd5b600073ffffffffffffffffffffffffffffffffffffffff168173ffffffffffffffffffffffffffffffffffffffff161415612359576040517f08c379a00000000000000000000000000000000000000000000000000000000081526004018080602001828103825260268152602001806142896026913960400191505060405180910390fd5b8073ffffffffffffffffffffffffffffffffffffffff1660008054906101000a900473ffffffffffffffffffffffffffffffffffffffff1673ffffffffffffffffffffffffffffffffffffffff167f8be0079c531659141344cd1fd0a4f28419497f9722a3daafe3b4186f6b6457e060405160405180910390a3806000806101000a81548173ffffffffffffffffffffffffffffffffffffffff021916908373ffffffffffffffffffffffffffffffffffffffff16021790555050565b60606040518060800160405280604181526020016142af60419139905090565b61243e61267c565b73ffffffffffffffffffffffffffffffffffffffff1661245c610c0e565b73ffffffffffffffffffffffffffffffffffffffff16146124e5576040517f08c379a00000000000000000000000000000000000000000000000000000000081526004018080602001828103825260208152602001807f4f776e61626c653a2063616c6c6572206973206e6f7420746865206f776e657281525060200191505060405180910390fd5b6001600560006101000a81548160ff02191690831515021790555061254f600260019054906101000a900473ffffffffffffffffffffffffffffffffffffffff167f0000000000000000000000000000000000000000000000000000000000000000600c5461318a565b61259e600860009054906101000a900473ffffffffffffffffffffffffffffffffffffffff167f0000000000000000000000000000000000000000000000000000000000000000600b5461318a565b565b6125a861267c565b73ffffffffffffffffffffffffffffffffffffffff166125c6610c0e565b73ffffffffffffffffffffffffffffffffffffffff161461264f576040517f08c379a00000000000000000000000000000000000000000000000000000000081526004018080602001828103825260208152602001807f4f776e61626c653a2063616c6c6572206973206e6f7420746865206f776e657281525060200191505060405180910390fd5b6000600c819055506000600b819055506000600560006101000a81548160ff021916908315150217905550565b600033905090565b6000828211156126fc576040517f08c379a000000000000000000000000000000000000000000000000000000000815260040180806020018281038252601e8152602001807f536166654d6174683a207375627472616374696f6e206f766572666c6f77000081525060200191505060405180910390fd5b818303905092915050565b60008083141561271a5760009050612787565b600082840290508284828161272b57fe5b0414612782576040517f08c379a00000000000000000000000000000000000000000000000000000000081526004018080602001828103825260218152602001806142f06021913960400191505060405180910390fd5b809150505b92915050565b6000808211612804576040517f08c379a000000000000000000000000000000000000000000000000000000000815260040180806020018281038252601a8152602001807f536166654d6174683a206469766973696f6e206279207a65726f00000000000081525060200191505060405180910390fd5b81838161280d57fe5b04905092915050565b600080828401905083811015612894576040517f08c379a000000000000000000000000000000000000000000000000000000000815260040180806020018281038252601b8152602001807f536166654d6174683a206164646974696f6e206f766572666c6f77000000000081525060200191505060405180910390fd5b8091505092915050565b6000808573ffffffffffffffffffffffffffffffffffffffff166323b872dd60e01b868686604051602401808473ffffffffffffffffffffffffffffffffffffffff1681526020018373ffffffffffffffffffffffffffffffffffffffff1681526020018281526020019350505050604051602081830303815290604052907bffffffffffffffffffffffffffffffffffffffffffffffffffffffff19166020820180517bffffffffffffffffffffffffffffffffffffffffffffffffffffffff83818316178352505050506040518082805190602001908083835b6020831061299d578051825260208201915060208101905060208303925061297a565b6001836020036101000a0380198251168184511680821785525050505050509050019150506000604051808303816000865af19150503d80600081146129ff576040519150601f19603f3d011682016040523d82523d6000602084013e612a04565b606091505b5091509150818015612a445750600081511480612a435750808060200190516020811015612a3157600080fd5b81019080805190602001909291905050505b5b612ab6576040517f08c379a00000000000000000000000000000000000000000000000000000000081526004018080602001828103825260038152602001807f535446000000000000000000000000000000000000000000000000000000000081525060200191505060405180910390fd5b505050505050565b60007f000000000000000000000000000000000000000000000000000000000000000090506000612b1283612b04670de0b6b3a76400008761270790919063ffffffff16565b61278d90919063ffffffff16565b90506000612b4f612b406064612b3260018961270790919063ffffffff16565b61278d90919063ffffffff16565b8661281690919063ffffffff16565b9050600073ffffffffffffffffffffffffffffffffffffffff16866080015173ffffffffffffffffffffffffffffffffffffffff161415612ced578273ffffffffffffffffffffffffffffffffffffffff1663db3e2198604051806101000160405280600260019054906101000a900473ffffffffffffffffffffffffffffffffffffffff1673ffffffffffffffffffffffffffffffffffffffff168152602001896020015173ffffffffffffffffffffffffffffffffffffffff1681526020018960600151600060028110612c2157fe5b602002015162ffffff1681526020013073ffffffffffffffffffffffffffffffffffffffff168152602001428152602001858152602001848152602001600073ffffffffffffffffffffffffffffffffffffffff168152506040518263ffffffff1660e01b8152600401612c959190613f27565b602060405180830381600087803b158015612caf57600080fd5b505af1158015612cc3573d6000803e3d6000fd5b505050506040513d601f19601f82011682018060405250810190612ce791906135bf565b50612e31565b8273ffffffffffffffffffffffffffffffffffffffff1663f28c04986040518060a0016040528089602001518a60600151600160028110612d2a57fe5b60200201518b608001518c60600151600060028110612d4557fe5b6020020151600260019054906101000a900473ffffffffffffffffffffffffffffffffffffffff16604051602001612d81959493929190613c81565b60405160208183030381529060405281526020013073ffffffffffffffffffffffffffffffffffffffff168152602001428152602001858152602001848152506040518263ffffffff1660e01b8152600401612ddd9190613f05565b602060405180830381600087803b158015612df757600080fd5b505af1158015612e0b573d6000803e3d6000fd5b505050506040513d601f19601f82011682018060405250810190612e2f91906135bf565b505b505050505050565b60007f000000000000000000000000000000000000000000000000000000000000000090506000612e8d670de0b6b3a7640000612e7f858761270790919063ffffffff16565b61270790919063ffffffff16565b9050600073ffffffffffffffffffffffffffffffffffffffff16856080015173ffffffffffffffffffffffffffffffffffffffff16141561302b578173ffffffffffffffffffffffffffffffffffffffff1663414bf389604051806101000160405280600260019054906101000a900473ffffffffffffffffffffffffffffffffffffffff1673ffffffffffffffffffffffffffffffffffffffff168152602001886020015173ffffffffffffffffffffffffffffffffffffffff1681526020018860600151600060028110612f5f57fe5b602002015162ffffff1681526020013073ffffffffffffffffffffffffffffffffffffffff168152602001428152602001878152602001848152602001600073ffffffffffffffffffffffffffffffffffffffff168152506040518263ffffffff1660e01b8152600401612fd39190613ee9565b602060405180830381600087803b158015612fed57600080fd5b505af1158015613001573d6000803e3d6000fd5b505050506040513d601f19601f8201168201806040525081019061302591906135bf565b50613183565b6131818273ffffffffffffffffffffffffffffffffffffffff1663c04b8d596040518060a0016040528089602001518a6060015160016002811061306b57fe5b60200201518b608001518c6060015160006002811061308657fe5b6020020151600260019054906101000a900473ffffffffffffffffffffffffffffffffffffffff166040516020016130c2959493929190613c81565b60405160208183030381529060405281526020013073ffffffffffffffffffffffffffffffffffffffff168152602001428152602001888152602001858152506040518263ffffffff1660e01b815260040161311e9190613ec7565b602060405180830381600087803b15801561313857600080fd5b505af115801561314c573d6000803e3d6000fd5b505050506040513d601f19601f8201168201806040525081019061317091906135bf565b600d5461281690919063ffffffff16565b505b5050505050565b6000808473ffffffffffffffffffffffffffffffffffffffff1663095ea7b360e01b8585604051602401808373ffffffffffffffffffffffffffffffffffffffff16815260200182815260200192505050604051602081830303815290604052907bffffffffffffffffffffffffffffffffffffffffffffffffffffffff19166020820180517bffffffffffffffffffffffffffffffffffffffffffffffffffffffff83818316178352505050506040518082805190602001908083835b6020831061326b5780518252602082019150602081019050602083039250613248565b6001836020036101000a0380198251168184511680821785525050505050509050019150506000604051808303816000865af19150503d80600081146132cd576040519150601f19603f3d011682016040523d82523d6000602084013e6132d2565b606091505b5091509150818015613312575060008151148061331157508080602001905160208110156132ff57600080fd5b81019080805190602001909291905050505b5b613384576040517f08c379a00000000000000000000000000000000000000000000000000000000081526004018080602001828103825260028152602001807f534100000000000000000000000000000000000000000000000000000000000081525060200191505060405180910390fd5b5050505050565b600061339e61339984613ffd565b613fcc565b905080828560208602820111156133b457600080fd5b60005b858110156133e457816133ca88826134c7565b8452602084019350602083019250506001810190506133b7565b5050509392505050565b6000813590506133fd81614215565b92915050565b600082601f83011261341457600080fd5b600261342184828561338b565b91505092915050565b6000815190506134398161422c565b92915050565b600060c0828403121561345157600080fd5b61345b60a0613fcc565b9050600061346b84828501613506565b600083015250602061347f848285016133ee565b6020830152506040613493848285016133ee565b60408301525060606134a784828501613403565b60608301525060a06134bb848285016133ee565b60808301525092915050565b6000813590506134d681614243565b92915050565b6000813590506134eb8161425a565b92915050565b6000815190506135008161425a565b92915050565b60008135905061351581614271565b92915050565b60006020828403121561352d57600080fd5b600061353b848285016133ee565b91505092915050565b60006020828403121561355657600080fd5b60006135648482850161342a565b91505092915050565b600060c0828403121561357f57600080fd5b600061358d8482850161343f565b91505092915050565b6000602082840312156135a857600080fd5b60006135b6848285016134dc565b91505092915050565b6000602082840312156135d157600080fd5b60006135df848285016134f1565b91505092915050565b600080604083850312156135fb57600080fd5b600061360985828601613506565b925050602061361a858286016134dc565b9150509250929050565b60006136308383613b99565b60c08301905092915050565b60006136488383613c10565b60208301905092915050565b61365d81614125565b82525050565b61366c816140c1565b82525050565b61367b816140c1565b82525050565b61369261368d826140c1565b6141b2565b82525050565b60006136a38261403d565b6136ad8185614083565b93506136b883614023565b8060005b838110156136e95781516136d08882613624565b97506136db83614069565b9250506001810190506136bc565b5085935050505092915050565b6136ff81614048565b6137098184614094565b925061371482614033565b8060005b8381101561374557815161372c878261363c565b965061373783614076565b925050600181019050613718565b505050505050565b613756816140d3565b82525050565b600061376782614053565b613771818561409f565b935061378181856020860161417f565b61378a816141ea565b840191505092915050565b61379e81614137565b82525050565b60006137af8261405e565b6137b981856140b0565b93506137c981856020860161417f565b6137d2816141ea565b840191505092915050565b60006137ea602e836140b0565b91507f4e6f7420656e6f75676820646562742c207472792073656c6c696e6720796f7560008301527f7220746f6b656e732066697273740000000000000000000000000000000000006020830152604082019050919050565b60006138506016836140b0565b91507f4e6f7420656e6f75676820746f6b656e732073656e74000000000000000000006000830152602082019050919050565b60006138906029836140b0565b91507f50726f64756374206973206265696e6720736574746c65642c2074727920616760008301527f61696e206c6174657200000000000000000000000000000000000000000000006020830152604082019050919050565b60006138f66011836140b0565b91507f50726f64756374206973206c6f636b65640000000000000000000000000000006000830152602082019050919050565b60006139366019836140b0565b91507f596f75206d7573742073656c6c206d6f726520746f6b656e73000000000000006000830152602082019050919050565b600060a0830160008301518482036000860152613986828261375c565b915050602083015161399b6020860182613663565b5060408301516139ae6040860182613c45565b5060608301516139c16060860182613c45565b5060808301516139d46080860182613c45565b508091505092915050565b610100820160008201516139f66000850182613663565b506020820151613a096020850182613663565b506040820151613a1c6040850182613c10565b506060820151613a2f6060850182613663565b506080820151613a426080850182613c45565b5060a0820151613a5560a0850182613c45565b5060c0820151613a6860c0850182613c45565b5060e0820151613a7b60e0850182613c01565b50505050565b600060a0830160008301518482036000860152613a9e828261375c565b9150506020830151613ab36020860182613663565b506040830151613ac66040860182613c45565b506060830151613ad96060860182613c45565b506080830151613aec6080860182613c45565b508091505092915050565b61010082016000820151613b0e6000850182613663565b506020820151613b216020850182613663565b506040820151613b346040850182613c10565b506060820151613b476060850182613663565b506080820151613b5a6080850182613c45565b5060a0820151613b6d60a0850182613c45565b5060c0820151613b8060c0850182613c45565b5060e0820151613b9360e0850182613c01565b50505050565b60c082016000820151613baf6000850182613c63565b506020820151613bc26020850182613663565b506040820151613bd56040850182613663565b506060820151613be860608501826136f6565b506080820151613bfb60a0850182613663565b50505050565b613c0a816140df565b82525050565b613c19816140ff565b82525050565b613c28816140ff565b82525050565b613c3f613c3a826140ff565b6141d6565b82525050565b613c4e8161410e565b82525050565b613c5d8161410e565b82525050565b613c6c81614118565b82525050565b613c7b81614118565b82525050565b6000613c8d8288613681565b601482019150613c9d8287613c2e565b600382019150613cad8286613681565b601482019150613cbd8285613c2e565b600382019150613ccd8284613681565b6014820191508190509695505050505050565b6000602082019050613cf56000830184613672565b92915050565b6000604082019050613d106000830185613654565b613d1d6020830184613c54565b9392505050565b6000606082019050613d396000830186613654565b613d466020830185613c54565b613d536040830184613c54565b949350505050565b6000604082019050613d706000830185613672565b613d7d6020830184613c1f565b9392505050565b6000604082019050613d996000830185613672565b613da66020830184613c54565b9392505050565b60006020820190508181036000830152613dc78184613698565b905092915050565b6000602082019050613de4600083018461374d565b92915050565b6000602082019050613dff6000830184613795565b92915050565b60006020820190508181036000830152613e1f81846137a4565b905092915050565b60006020820190508181036000830152613e40816137dd565b9050919050565b60006020820190508181036000830152613e6081613843565b9050919050565b60006020820190508181036000830152613e8081613883565b9050919050565b60006020820190508181036000830152613ea0816138e9565b9050919050565b60006020820190508181036000830152613ec081613929565b9050919050565b60006020820190508181036000830152613ee18184613969565b905092915050565b600061010082019050613eff60008301846139df565b92915050565b60006020820190508181036000830152613f1f8184613a81565b905092915050565b600061010082019050613f3d6000830184613af7565b92915050565b6000602082019050613f586000830184613c54565b92915050565b6000604082019050613f736000830185613c54565b613f806020830184613c54565b9392505050565b6000608082019050613f9c6000830187613c72565b613fa96020830186613672565b613fb66040830185613672565b613fc36060830184613672565b95945050505050565b6000604051905081810181811067ffffffffffffffff82111715613ff357613ff26141e8565b5b8060405250919050565b600067ffffffffffffffff821115614018576140176141e8565b5b602082029050919050565b6000819050602082019050919050565b6000819050919050565b600081519050919050565b600060029050919050565b600081519050919050565b600081519050919050565b6000602082019050919050565b6000602082019050919050565b600082825260208201905092915050565b600081905092915050565b600082825260208201905092915050565b600082825260208201905092915050565b60006140cc826140df565b9050919050565b60008115159050919050565b600073ffffffffffffffffffffffffffffffffffffffff82169050919050565b600062ffffff82169050919050565b6000819050919050565b600060ff82169050919050565b60006141308261415b565b9050919050565b600061414282614149565b9050919050565b6000614154826140df565b9050919050565b60006141668261416d565b9050919050565b6000614178826140df565b9050919050565b60005b8381101561419d578082015181840152602081019050614182565b838111156141ac576000848401525b50505050565b60006141bd826141c4565b9050919050565b60006141cf82614208565b9050919050565b60006141e1826141fb565b9050919050565bfe5b6000601f19601f8301169050919050565b60008160e81b9050919050565b60008160601b9050919050565b61421e816140c1565b811461422957600080fd5b50565b614235816140d3565b811461424057600080fd5b50565b61424c816140ff565b811461425757600080fd5b50565b6142638161410e565b811461426e57600080fd5b50565b61427a81614118565b811461428557600080fd5b5056fe4f776e61626c653a206e6577206f776e657220697320746865207a65726f206164647265737368747470733a2f2f63727970746f6c6f676f732e63632f6c6f676f732f706f6c796d6174682d6e6574776f726b2d706f6c792d6c6f676f2e706e673f763d303232536166654d6174683a206d756c7469706c69636174696f6e206f766572666c6f77436f7272656c6174696f6e20696e646578206973206120746f6f6c207468617420616c6c6f777320796f7520746f2064697665727369667920796f757220696e766573746d656e7473a26469706673582212208783cb7fe21d78ef6e5386e4136b1589c05b59dd28414fdad5507c84fb696dbf64736f6c6343000706003360806040523480156200001157600080fd5b50604051620012ff380380620012ff833981810160405281019062000037919062000225565b83600560006101000a81548173ffffffffffffffffffffffffffffffffffffffff021916908373ffffffffffffffffffffffffffffffffffffffff160217905550826002908051906020019062000090929190620000cf565b5081600360006101000a81548160ff021916908360ff1602179055508060049080519060200190620000c4929190620000cf565b5050505050620003d7565b828054600181600116156101000203166002900490600052602060002090601f01602090048101928262000107576000855562000153565b82601f106200012257805160ff191683800117855562000153565b8280016001018555821562000153579182015b828111156200015257825182559160200191906001019062000135565b5b50905062000162919062000166565b5090565b5b808211156200018157600081600090555060010162000167565b5090565b60006200019c6200019684620002f7565b620002c3565b905082815260208101848484011115620001b557600080fd5b620001c28482856200036b565b509392505050565b600081519050620001db81620003a3565b92915050565b600082601f830112620001f357600080fd5b81516200020584826020860162000185565b91505092915050565b6000815190506200021f81620003bd565b92915050565b600080600080608085870312156200023c57600080fd5b60006200024c87828801620001ca565b945050602085015167ffffffffffffffff8111156200026a57600080fd5b6200027887828801620001e1565b93505060406200028b878288016200020e565b925050606085015167ffffffffffffffff811115620002a957600080fd5b620002b787828801620001e1565b91505092959194509250565b6000604051905081810181811067ffffffffffffffff82111715620002ed57620002ec620003a1565b5b8060405250919050565b600067ffffffffffffffff821115620003155762000314620003a1565b5b601f19601f8301169050602081019050919050565b600062000337826200033e565b9050919050565b600073ffffffffffffffffffffffffffffffffffffffff82169050919050565b600060ff82169050919050565b60005b838110156200038b5780820151818401526020810190506200036e565b838111156200039b576000848401525b50505050565bfe5b620003ae816200032a565b8114620003ba57600080fd5b50565b620003c8816200035e565b8114620003d457600080fd5b50565b610f1880620003e76000396000f3fe608060405234801561001057600080fd5b50600436106100995760003560e01c806306fdde031461009e578063095ea7b3146100bc5780630cf1fd36146100ec57806323b872dd1461010a57806327e235e31461013a578063313ce5671461016a5780635c6581651461018857806370a08231146101b857806395d89b41146101e8578063a9059cbb14610206578063dd62ed3e14610236575b600080fd5b6100a6610266565b6040516100b39190610d67565b60405180910390f35b6100d660048036038101906100d19190610bb4565b610304565b6040516100e39190610d4c565b60405180910390f35b6100f46103f6565b6040516101019190610d31565b60405180910390f35b610124600480360381019061011f9190610b65565b61041c565b6040516101319190610d4c565b60405180910390f35b610154600480360381019061014f9190610b00565b6106e7565b6040516101619190610dc9565b60405180910390f35b6101726106ff565b60405161017f9190610de4565b60405180910390f35b6101a2600480360381019061019d9190610b29565b610712565b6040516101af9190610dc9565b60405180910390f35b6101d260048036038101906101cd9190610b00565b610737565b6040516101df9190610dc9565b60405180910390f35b6101f061077f565b6040516101fd9190610d67565b60405180910390f35b610220600480360381019061021b9190610bb4565b61081d565b60405161022d9190610d4c565b60405180910390f35b610250600480360381019061024b9190610b29565b610a4f565b60405161025d9190610dc9565b60405180910390f35b60028054600181600116156101000203166002900480601f0160208091040260200160405190810160405280929190818152602001828054600181600116156101000203166002900480156102fc5780601f106102d1576101008083540402835291602001916102fc565b820191906000526020600020905b8154815290600101906020018083116102df57829003601f168201915b505050505081565b600081600160003373ffffffffffffffffffffffffffffffffffffffff1673ffffffffffffffffffffffffffffffffffffffff16815260200190815260200160002060008573ffffffffffffffffffffffffffffffffffffffff1673ffffffffffffffffffffffffffffffffffffffff168152602001908152602001600020819055508273ffffffffffffffffffffffffffffffffffffffff163373ffffffffffffffffffffffffffffffffffffffff167f8c5be1e5ebec7d5bd14f71427d1e84f3dd0314c0f7b2291e5b200ac8c7c3b925846040516103e49190610dc9565b60405180910390a36001905092915050565b600560009054906101000a900473ffffffffffffffffffffffffffffffffffffffff1681565b600080600160008673ffffffffffffffffffffffffffffffffffffffff1673ffffffffffffffffffffffffffffffffffffffff16815260200190815260200160002060003373ffffffffffffffffffffffffffffffffffffffff1673ffffffffffffffffffffffffffffffffffffffff168152602001908152602001600020549050826000808773ffffffffffffffffffffffffffffffffffffffff1673ffffffffffffffffffffffffffffffffffffffff16815260200190815260200160002054101580156104ec5750828110155b61052b576040517f08c379a000000000000000000000000000000000000000000000000000000000815260040161052290610da9565b60405180910390fd5b826000808673ffffffffffffffffffffffffffffffffffffffff1673ffffffffffffffffffffffffffffffffffffffff16815260200190815260200160002060008282540192505081905550826000808773ffffffffffffffffffffffffffffffffffffffff1673ffffffffffffffffffffffffffffffffffffffff168152602001908152602001600020600082825403925050819055507fffffffffffffffffffffffffffffffffffffffffffffffffffffffffffffffff8110156106765782600160008773ffffffffffffffffffffffffffffffffffffffff1673ffffffffffffffffffffffffffffffffffffffff16815260200190815260200160002060003373ffffffffffffffffffffffffffffffffffffffff1673ffffffffffffffffffffffffffffffffffffffff168152602001908152602001600020600082825403925050819055505b8373ffffffffffffffffffffffffffffffffffffffff168573ffffffffffffffffffffffffffffffffffffffff167fddf252ad1be2c89b69c2b068fc378daa952ba7f163c4a11628f55a4df523b3ef856040516106d39190610dc9565b60405180910390a360019150509392505050565b60006020528060005260406000206000915090505481565b600360009054906101000a900460ff1681565b6001602052816000526040600020602052806000526040600020600091509150505481565b60008060008373ffffffffffffffffffffffffffffffffffffffff1673ffffffffffffffffffffffffffffffffffffffff168152602001908152602001600020549050919050565b60048054600181600116156101000203166002900480601f0160208091040260200160405190810160405280929190818152602001828054600181600116156101000203166002900480156108155780601f106107ea57610100808354040283529160200191610815565b820191906000526020600020905b8154815290600101906020018083116107f857829003601f168201915b505050505081565b6000600560009054906101000a900473ffffffffffffffffffffffffffffffffffffffff1673ffffffffffffffffffffffffffffffffffffffff163373ffffffffffffffffffffffffffffffffffffffff1614156108c657816000808573ffffffffffffffffffffffffffffffffffffffff1673ffffffffffffffffffffffffffffffffffffffff168152602001908152602001600020600082825401925050819055506109e0565b816000803373ffffffffffffffffffffffffffffffffffffffff1673ffffffffffffffffffffffffffffffffffffffff168152602001908152602001600020541015610947576040517f08c379a000000000000000000000000000000000000000000000000000000000815260040161093e90610d89565b60405180910390fd5b816000803373ffffffffffffffffffffffffffffffffffffffff1673ffffffffffffffffffffffffffffffffffffffff16815260200190815260200160002060008282540392505081905550816000808573ffffffffffffffffffffffffffffffffffffffff1673ffffffffffffffffffffffffffffffffffffffff168152602001908152602001600020600082825401925050819055505b8273ffffffffffffffffffffffffffffffffffffffff163373ffffffffffffffffffffffffffffffffffffffff167fddf252ad1be2c89b69c2b068fc378daa952ba7f163c4a11628f55a4df523b3ef84604051610a3d9190610dc9565b60405180910390a36001905092915050565b6000600160008473ffffffffffffffffffffffffffffffffffffffff1673ffffffffffffffffffffffffffffffffffffffff16815260200190815260200160002060008373ffffffffffffffffffffffffffffffffffffffff1673ffffffffffffffffffffffffffffffffffffffff16815260200190815260200160002054905092915050565b600081359050610ae581610eb4565b92915050565b600081359050610afa81610ecb565b92915050565b600060208284031215610b1257600080fd5b6000610b2084828501610ad6565b91505092915050565b60008060408385031215610b3c57600080fd5b6000610b4a85828601610ad6565b9250506020610b5b85828601610ad6565b9150509250929050565b600080600060608486031215610b7a57600080fd5b6000610b8886828701610ad6565b9350506020610b9986828701610ad6565b9250506040610baa86828701610aeb565b9150509250925092565b60008060408385031215610bc757600080fd5b6000610bd585828601610ad6565b9250506020610be685828601610aeb565b9150509250929050565b610bf981610e1b565b82525050565b610c0881610e2d565b82525050565b6000610c1982610dff565b610c238185610e0a565b9350610c33818560208601610e70565b610c3c81610ea3565b840191505092915050565b6000610c54602f83610e0a565b91507f746f6b656e2062616c616e6365206973206c6f776572207468616e207468652060008301527f76616c75652072657175657374656400000000000000000000000000000000006020830152604082019050919050565b6000610cba603983610e0a565b91507f746f6b656e2062616c616e6365206f7220616c6c6f77616e6365206973206c6f60008301527f776572207468616e20616d6f756e7420726571756573746564000000000000006020830152604082019050919050565b610d1c81610e59565b82525050565b610d2b81610e63565b82525050565b6000602082019050610d466000830184610bf0565b92915050565b6000602082019050610d616000830184610bff565b92915050565b60006020820190508181036000830152610d818184610c0e565b905092915050565b60006020820190508181036000830152610da281610c47565b9050919050565b60006020820190508181036000830152610dc281610cad565b9050919050565b6000602082019050610dde6000830184610d13565b92915050565b6000602082019050610df96000830184610d22565b92915050565b600081519050919050565b600082825260208201905092915050565b6000610e2682610e39565b9050919050565b60008115159050919050565b600073ffffffffffffffffffffffffffffffffffffffff82169050919050565b6000819050919050565b600060ff82169050919050565b60005b83811015610e8e578082015181840152602081019050610e73565b83811115610e9d576000848401525b50505050565b6000601f19601f8301169050919050565b610ebd81610e1b565b8114610ec857600080fd5b50565b610ed481610e59565b8114610edf57600080fd5b5056fea26469706673582212206d7b471248b37aa2cced2e9e54fa45f3c316e94e0de8f17e320014f8e6608f3c64736f6c63430007060033608060405234801561001057600080fd5b5060405161126b38038061126b8339818101604052604081101561003357600080fd5b810190808051906020019092919080519060200190929190505050816000806101000a81548173ffffffffffffffffffffffffffffffffffffffff021916908373ffffffffffffffffffffffffffffffffffffffff16021790555080600160006101000a81548173ffffffffffffffffffffffffffffffffffffffff021916908373ffffffffffffffffffffffffffffffffffffffff160217905550505061118b806100e06000396000f3fe608060405234801561001057600080fd5b50600436106100365760003560e01c8063282be0c41461003b57806332920548146100a9575b600080fd5b61008c6004803603604081101561005157600080fd5b81019080803573ffffffffffffffffffffffffffffffffffffffff169060200190929190803562ffffff169060200190929190505050610110565b604051808381526020018281526020019250505060405180910390f35b6100fa600480360360408110156100bf57600080fd5b81019080803573ffffffffffffffffffffffffffffffffffffffff169060200190929190803562ffffff1690602001909291905050506106ca565b6040518082815260200191505060405180910390f35b60008060008060009054906101000a900473ffffffffffffffffffffffffffffffffffffffff1673ffffffffffffffffffffffffffffffffffffffff16631698ee82600160009054906101000a900473ffffffffffffffffffffffffffffffffffffffff1687876040518463ffffffff1660e01b8152600401808473ffffffffffffffffffffffffffffffffffffffff1681526020018373ffffffffffffffffffffffffffffffffffffffff1681526020018262ffffff168152602001935050505060206040518083038186803b1580156101ea57600080fd5b505afa1580156101fe573d6000803e3d6000fd5b505050506040513d602081101561021457600080fd5b810190808051906020019092919050505090506000600267ffffffffffffffff8111801561024157600080fd5b506040519080825280602002602001820160405280156102705781602001602082028036833780820191505090505b50905060018160008151811061028257fe5b602002602001019063ffffffff16908163ffffffff16815250506000816001815181106102ab57fe5b602002602001019063ffffffff16908163ffffffff168152505060008273ffffffffffffffffffffffffffffffffffffffff1663883bdbfd836040518263ffffffff1660e01b81526004018080602001828103825283818151815260200191508051906020019060200280838360005b8381101561033657808201518184015260208101905061031b565b505050509050019250505060006040518083038186803b15801561035957600080fd5b505afa15801561036d573d6000803e3d6000fd5b505050506040513d6000823e3d601f19601f82011682018060405250604081101561039757600080fd5b81019080805160405193929190846401000000008211156103b757600080fd5b838201915060208201858111156103cd57600080fd5b82518660208202830111640100000000821117156103ea57600080fd5b8083526020830192505050908051906020019060200280838360005b83811015610421578082015181840152602081019050610406565b505050509050016040526020018051604051939291908464010000000082111561044a57600080fd5b8382019150602082018581111561046057600080fd5b825186602082028301116401000000008211171561047d57600080fd5b8083526020830192505050908051906020019060200280838360005b838110156104b4578082015181840152602081019050610499565b505050509050016040525050505090506000816000815181106104d357fe5b6020026020010151826001815181106104e857fe5b602002602001015103905060008360018151811061050257fe5b60200260200101518460008151811061051757fe5b60200260200101510363ffffffff16905060008160000360060b8360060b8161053c57fe5b05905060008673ffffffffffffffffffffffffffffffffffffffff16630dfe16816040518163ffffffff1660e01b815260040160206040518083038186803b15801561058757600080fd5b505afa15801561059b573d6000803e3d6000fd5b505050506040513d60208110156105b157600080fd5b810190808051906020019092919050505073ffffffffffffffffffffffffffffffffffffffff1663313ce5676040518163ffffffff1660e01b815260040160206040518083038186803b15801561060757600080fd5b505afa15801561061b573d6000803e3d6000fd5b505050506040513d602081101561063157600080fd5b81019080805190602001909291905050509050600061064f83610c73565b905060008173ffffffffffffffffffffffffffffffffffffffff168273ffffffffffffffffffffffffffffffffffffffff16029050600060c06106a3670de0b6b3a7640000846110ae90919063ffffffff16565b901c905060008460ff16600a0a905081819c509c5050505050505050505050509250929050565b60008060008054906101000a900473ffffffffffffffffffffffffffffffffffffffff1673ffffffffffffffffffffffffffffffffffffffff16631698ee82600160009054906101000a900473ffffffffffffffffffffffffffffffffffffffff1686866040518463ffffffff1660e01b8152600401808473ffffffffffffffffffffffffffffffffffffffff1681526020018373ffffffffffffffffffffffffffffffffffffffff1681526020018262ffffff168152602001935050505060206040518083038186803b1580156107a157600080fd5b505afa1580156107b5573d6000803e3d6000fd5b505050506040513d60208110156107cb57600080fd5b810190808051906020019092919050505090506000600267ffffffffffffffff811180156107f857600080fd5b506040519080825280602002602001820160405280156108275781602001602082028036833780820191505090505b50905060018160008151811061083957fe5b602002602001019063ffffffff16908163ffffffff168152505060008160018151811061086257fe5b602002602001019063ffffffff16908163ffffffff168152505060008273ffffffffffffffffffffffffffffffffffffffff1663883bdbfd836040518263ffffffff1660e01b81526004018080602001828103825283818151815260200191508051906020019060200280838360005b838110156108ed5780820151818401526020810190506108d2565b505050509050019250505060006040518083038186803b15801561091057600080fd5b505afa158015610924573d6000803e3d6000fd5b505050506040513d6000823e3d601f19601f82011682018060405250604081101561094e57600080fd5b810190808051604051939291908464010000000082111561096e57600080fd5b8382019150602082018581111561098457600080fd5b82518660208202830111640100000000821117156109a157600080fd5b8083526020830192505050908051906020019060200280838360005b838110156109d85780820151818401526020810190506109bd565b5050505090500160405260200180516040519392919084640100000000821115610a0157600080fd5b83820191506020820185811115610a1757600080fd5b8251866020820283011164010000000082111715610a3457600080fd5b8083526020830192505050908051906020019060200280838360005b83811015610a6b578082015181840152602081019050610a50565b50505050905001604052505050509050600081600081518110610a8a57fe5b602002602001015182600181518110610a9f57fe5b6020026020010151039050600083600181518110610ab957fe5b602002602001015184600081518110610ace57fe5b60200260200101510363ffffffff16905060008160000360060b8360060b81610af357fe5b05905060008673ffffffffffffffffffffffffffffffffffffffff16630dfe16816040518163ffffffff1660e01b815260040160206040518083038186803b158015610b3e57600080fd5b505afa158015610b52573d6000803e3d6000fd5b505050506040513d6020811015610b6857600080fd5b810190808051906020019092919050505073ffffffffffffffffffffffffffffffffffffffff1663313ce5676040518163ffffffff1660e01b815260040160206040518083038186803b158015610bbe57600080fd5b505afa158015610bd2573d6000803e3d6000fd5b505050506040513d6020811015610be857600080fd5b810190808051906020019092919050505090506000610c0683610c73565b905060008173ffffffffffffffffffffffffffffffffffffffff168273ffffffffffffffffffffffffffffffffffffffff16029050600060c0670de0b6b3a76400008302901c905060008460ff16600a0a90508163ffffffff169b50505050505050505050505092915050565b60008060008360020b12610c8a578260020b610c92565b8260020b6000035b90507ffffffffffffffffffffffffffffffffffffffffffffffffffffffffffff2761860000360020b811115610d30576040517f08c379a00000000000000000000000000000000000000000000000000000000081526004018080602001828103825260018152602001807f540000000000000000000000000000000000000000000000000000000000000081525060200191505060405180910390fd5b600080600183161415610d5457700100000000000000000000000000000000610d66565b6ffffcb933bd6fad37aa2d162d1a5940015b70ffffffffffffffffffffffffffffffffff16905060006002831614610da05760806ffff97272373d413259a46990580e213a8202901c90505b60006004831614610dc55760806ffff2e50f5f656932ef12357cf3c7fdcc8202901c90505b60006008831614610dea5760806fffe5caca7e10e4e61c3624eaa0941cd08202901c90505b60006010831614610e0f5760806fffcb9843d60f6159c9db58835c9266448202901c90505b60006020831614610e345760806fff973b41fa98c081472e6896dfb254c08202901c90505b60006040831614610e595760806fff2ea16466c96a3843ec78b326b528618202901c90505b60006080831614610e7e5760806ffe5dee046a99a2a811c461f1969c30538202901c90505b6000610100831614610ea45760806ffcbe86c7900a88aedcffc83b479aa3a48202901c90505b6000610200831614610eca5760806ff987a7253ac413176f2b074cf7815e548202901c90505b6000610400831614610ef05760806ff3392b0822b70005940c7a398e4b70f38202901c90505b6000610800831614610f165760806fe7159475a2c29b7443b29c7fa6e889d98202901c90505b6000611000831614610f3c5760806fd097f3bdfd2022b8845ad8f792aa58258202901c90505b6000612000831614610f625760806fa9f746462d870fdf8a65dc1f90e061e58202901c90505b6000614000831614610f885760806f70d869a156d2a1b890bb3df62baf32f78202901c90505b6000618000831614610fae5760806f31be135f97d08fd981231505542fcfa68202901c90505b600062010000831614610fd55760806f09aa508b5b7a84e1c677de54f3e99bc98202901c90505b600062020000831614610ffb5760806e5d6af8dedb81196699c329225ee6048202901c90505b6000620400008316146110205760806d2216e584f5fa1ea926041bedfe988202901c90505b6000620800008316146110435760806b048a170391f7dc42444e8fa28202901c90505b60008460020b131561107c57807fffffffffffffffffffffffffffffffffffffffffffffffffffffffffffffffff8161107857fe5b0490505b6000640100000000828161108c57fe5b061461109957600161109c565b60005b60ff16602082901c0192505050919050565b6000808314156110c1576000905061112e565b60008284029050828482816110d257fe5b0414611129576040517f08c379a00000000000000000000000000000000000000000000000000000000081526004018080602001828103825260218152602001806111356021913960400191505060405180910390fd5b809150505b9291505056fe536166654d6174683a206d756c7469706c69636174696f6e206f766572666c6f77a2646970667358221220918ecd2bb66b1adf60645d4372d84405f6fcee9e147a53593755427fe2a59eae64736f6c63430007060033",
  "immutableReferences": {
    "2639": [
      {
        "length": 32,
        "start": 9512
      },
      {
        "length": 32,
        "start": 9591
      },
      {
        "length": 32,
        "start": 10946
      },
      {
        "length": 32,
        "start": 11837
      }
    ]
  },
  "source": "// SPDX-License-Identifier: MIT\r\npragma solidity 0.7.6;\r\npragma abicoder v2;\r\n\r\nimport \"@openzeppelin/contracts/token/ERC20/ERC20.sol\";\r\nimport \"@openzeppelin/contracts/math/SafeMath.sol\";\r\nimport \"@uniswap/v3-periphery/contracts/libraries/TransferHelper.sol\";\r\nimport \"@uniswap/v3-periphery/contracts/interfaces/ISwapRouter.sol\";\r\nimport \"@uniswap/v3-periphery/contracts/interfaces/IPeripheryPayments.sol\";\r\n\r\nimport \"./PriceOracle.sol\";\r\nimport \"./IndexToken.sol\";\r\nimport \"../management/BaseProduct.sol\";\r\n\r\ncontract BaseIndex is Product {\r\n    using SafeMath for uint256;\r\n\r\n    struct TokenInfo {\r\n        uint8 indexPercentage;\r\n        address tokenAddress;\r\n        address priceOracleAddress;\r\n        uint24[2] poolFees;\r\n        address intermediateToken;\r\n    }\r\n\r\n    TokenInfo[] public tokens;\r\n    PriceOracle private priceOracle;\r\n    IndexToken public indexToken;\r\n\r\n    address public WETH;\r\n    address private immutable dexRouterAddress;\r\n\r\n    uint public lastManagedToken = 0;   // TODO: change the visibility\r\n    uint public tokensToSell;    // index tokens that will be sold\r\n    uint public tokensToBuy;    // usd tokens that will be bought\r\n    uint public totalAvailableDebt;    // total debt for the index\r\n    mapping(address => uint) public usersDebt;    // debt to each user\r\n\r\n    event DebtRetrieved(address account, uint debtAmount);\r\n\r\n    function name() external pure override returns (string memory) { return \"CryptoIndex\"; }\r\n    function symbol() external pure override returns (string memory) { return \"CRYPTIX\"; }\r\n    function getComponents() external view returns (TokenInfo[] memory) { return tokens; }\r\n\r\n    function shortDescription() external pure override returns (string memory) {\r\n        return \"Correlation index is a tool that allows you to diversify your investments\";\r\n    }\r\n\r\n    function longDescription() external pure override returns (string memory) {\r\n        return \"Correlation index is a tool that allows you to diversify your investments\";\r\n    }\r\n\r\n    function getTokenPrice(TokenInfo memory token) external view returns (uint256) {\r\n        return priceOracle.getPrice(token.priceOracleAddress, token.poolFees[0]);\r\n    }\r\n\r\n    function image() external pure override returns (string memory) {\r\n        return \"https://cryptologos.cc/logos/polymath-network-poly-logo.png?v=022\";\r\n    }\r\n\r\n    function getTotalLockedValue() external view override returns (uint256) {\r\n        uint totalValue;\r\n\r\n        for (uint i = 0; i < tokens.length; i++) {\r\n            TokenInfo memory tokenInfo = tokens[i];\r\n            IERC20 token = IERC20(tokenInfo.tokenAddress);\r\n\r\n            uint tokenBalance = token.balanceOf(address(this)).mul(\r\n                priceOracle.getPrice(tokenInfo.priceOracleAddress, tokenInfo.poolFees[0])\r\n            );\r\n            totalValue = totalValue.add(tokenBalance.div(1 ether));\r\n        }\r\n\r\n        return totalValue;\r\n    }\r\n\r\n    constructor() {\r\n        dexRouterAddress = 0xE592427A0AEce92De3Edee1F18E0157C05861564;  // Uniswap V3 Router\r\n        buyTokenAddress =  0x6B175474E89094C44Da98b954EedeAC495271d0F; // DAI\r\n        WETH = 0xC02aaA39b223FE8D0A0e5C4F27eAD9083C756Cc2;\r\n\r\n        productFee = 10;\r\n        productFeeTotal = 100;\r\n        indexPriceAdjustment = 100;\r\n        \r\n        indexToken = new IndexToken(address(this), \"Crypto index token\", 18, \"CRYPTIX\");\r\n        priceOracle = new PriceOracle(0x1F98431c8aD98523631AE4a59f267346ea31F984, buyTokenAddress);\r\n        isLocked = false;\r\n\r\n        tokens.push(TokenInfo({ // 0) WETH\r\n            tokenAddress: 0xC02aaA39b223FE8D0A0e5C4F27eAD9083C756Cc2,\r\n            priceOracleAddress: 0x5f4eC3Df9cbd43714FE2740f5E3616155c5b8419,\r\n            poolFees: [uint24(3000), uint24(3000)],\r\n            intermediateToken: address(0),\r\n            indexPercentage: 15\r\n        }));\r\n        tokens.push(TokenInfo({ // 1) LINK\r\n            tokenAddress: 0x514910771AF9Ca656af840dff83E8264EcF986CA,\r\n            priceOracleAddress: 0x2c1d072e956AFFC0D435Cb7AC38EF18d24d9127c,\r\n            poolFees: [uint24(3000), uint24(3000)],\r\n            intermediateToken: WETH,\r\n            indexPercentage: 5\r\n        }));\r\n        tokens.push(TokenInfo({ // 2) WBNB\r\n            tokenAddress: 0x418D75f65a02b3D53B2418FB8E1fe493759c7605,\r\n            priceOracleAddress: 0x14e613AC84a31f709eadbdF89C6CC390fDc9540A,\r\n            poolFees: [uint24(3000), uint24(3000)],\r\n            intermediateToken: WETH,\r\n            indexPercentage: 5\r\n        }));\r\n        tokens.push(TokenInfo({ // 3) UNI\r\n            tokenAddress: 0x1f9840a85d5aF5bf1D1762F925BDADdC4201F984,\r\n            priceOracleAddress: 0x553303d460EE0afB37EdFf9bE42922D8FF63220e,\r\n            poolFees: [uint24(3000), uint24(3000)],\r\n            intermediateToken: WETH,\r\n            indexPercentage: 10\r\n        }));\r\n        tokens.push(TokenInfo({ // 4) 1INCH\r\n            tokenAddress: 0x111111111117dC0aa78b770fA6A738034120C302,\r\n            priceOracleAddress: 0xc929ad75B72593967DE83E7F7Cda0493458261D9,\r\n            poolFees: [uint24(3000), 10000],\r\n            intermediateToken: WETH,\r\n            indexPercentage: 5\r\n        }));\r\n        tokens.push(TokenInfo({ // 5) SNX\r\n            tokenAddress: 0xC011a73ee8576Fb46F5E1c5751cA3B9Fe0af2a6F,\r\n            priceOracleAddress: 0xDC3EA94CD0AC27d9A86C180091e7f78C683d3699,\r\n            poolFees: [uint24(3000), 10000],\r\n            intermediateToken: WETH,\r\n            indexPercentage: 5\r\n        }));\r\n        tokens.push(TokenInfo({ // 6) YFI\r\n            tokenAddress: 0x0bc529c00C6401aEF6D220BE8C6Ea1667F6Ad93e,\r\n            priceOracleAddress: 0xA027702dbb89fbd58938e4324ac03B58d812b0E1,\r\n            poolFees: [uint24(3000), uint24(3000)],\r\n            intermediateToken: WETH,\r\n            indexPercentage: 5\r\n        }));\r\n        tokens.push(TokenInfo({ // 7) COMP\r\n            tokenAddress: 0xc00e94Cb662C3520282E6f5717214004A7f26888,\r\n            priceOracleAddress: 0xdbd020CAeF83eFd542f4De03e3cF0C28A4428bd5,\r\n            poolFees: [uint24(3000), uint24(3000)],\r\n            intermediateToken: WETH,\r\n            indexPercentage: 5\r\n        }));\r\n        tokens.push(TokenInfo({ // 8) MKR\r\n            tokenAddress: 0x9f8F72aA9304c8B593d555F12eF6589cC3A579A2,\r\n            priceOracleAddress: 0xec1D1B3b0443256cc3860e24a46F108e699484Aa,\r\n            poolFees: [uint24(3000), uint24(3000)],\r\n            intermediateToken: WETH,\r\n            indexPercentage: 5\r\n        }));\r\n        tokens.push(TokenInfo({ // 9) SUSHI\r\n            tokenAddress: 0x6B3595068778DD592e39A122f4f5a5cF09C90fE2,\r\n            priceOracleAddress: 0xCc70F09A6CC17553b2E31954cD36E4A2d89501f7,\r\n            poolFees: [uint24(3000), uint24(3000)],\r\n            intermediateToken: WETH,\r\n            indexPercentage: 10\r\n        }));\r\n        tokens.push(TokenInfo({ // 10) APE\r\n            tokenAddress: 0x4d224452801ACEd8B2F0aebE155379bb5D594381,\r\n            priceOracleAddress: 0xD10aBbC76679a20055E167BB80A24ac851b37056,\r\n            poolFees: [uint24(3000), uint24(3000)],\r\n            intermediateToken: WETH,\r\n            indexPercentage: 10\r\n        }));\r\n        tokens.push(TokenInfo({ // 11) CRV\r\n            tokenAddress: 0xD533a949740bb3306d119CC777fa900bA034cd52,\r\n            priceOracleAddress: 0xCd627aA160A6fA45Eb793D19Ef54f5062F20f33f,\r\n            poolFees: [uint24(3000), 10000],\r\n            intermediateToken: WETH,\r\n            indexPercentage: 5\r\n        }));\r\n        // tokens.push(TokenInfo({    //   Huobi Token\r\n        //     tokenAddress: 0x6f259637dcD74C767781E37Bc6133cd6A68aa161,\r\n        //     priceOracleAddress: 0xE1329B3f6513912CAf589659777b66011AEE5880,\r\n        //     poolFees: [10000, uint24(3000)],\r\n        //     intermediateToken: 0xA0b86991c6218b36c1d19D4a2e9Eb0cE3606eB48,\r\n        //     indexPercentage: 5\r\n        // }));\r\n        // tokens.push(TokenInfo({    //   BNT\r\n        //     tokenAddress: 0x1F573D6Fb3F13d689FF844B4cE37794d79a7FF1C,\r\n        //     priceOracleAddress: 0x1E6cF0D433de4FE882A437ABC654F58E1e78548c,\r\n        //     poolFee: uint24(3000),\r\n        //     indexPercentage: 5\r\n        // }));\r\n        // tokens.push(TokenInfo({    //   INJ\r\n        //     tokenAddress: 0xe28b3B32B6c345A34Ff64674606124Dd5Aceca30,\r\n        //     priceOracleAddress: 0xaE2EbE3c4D20cE13cE47cbb49b6d7ee631Cd816e,\r\n        //     poolFees: [uint24(3000), uint24(3000)],\r\n        //     intermediateToken: WETH,\r\n        //     indexPercentage: 5\r\n        // }));\r\n    }\r\n\r\n    function buy(uint256 amount) external nonReentrant checkSettlement override {\r\n        uint256 indexPrice = getPrice();\r\n        (uint productFee, uint256 realAmount) = calculateFee(amount);\r\n        require(realAmount >= 1, \"Not enough tokens sent\");\r\n\r\n        uint buyTokenAmount = realAmount.mul(indexPrice).div(1 ether);\r\n        tokensToBuy = tokensToBuy.add(buyTokenAmount);\r\n\r\n        indexToken.transfer(msg.sender, realAmount);\r\n        TransferHelper.safeTransferFrom(\r\n            buyTokenAddress, msg.sender, address(this), amount.mul(indexPrice).div(1 ether)\r\n        );\r\n\r\n        IERC20 _buyToken = IERC20(buyTokenAddress);\r\n        _buyToken.transfer(owner(), productFee.mul(indexPrice).div(1 ether));\r\n\r\n        emit ProductBought(msg.sender, buyTokenAmount, realAmount);\r\n    }\r\n\r\n    function retrieveDebt(uint amount) external nonReentrant checkSettlement checkUnlocked{\r\n        require(usersDebt[msg.sender].sub(amount) > 0, \"Not enough debt, try selling your tokens first\");\r\n        \r\n        usersDebt[msg.sender] = usersDebt[msg.sender].sub(amount);\r\n        totalAvailableDebt = totalAvailableDebt.sub(amount);\r\n\r\n        IERC20(buyTokenAddress).transfer(msg.sender, amount);\r\n        emit DebtRetrieved(msg.sender, amount);\r\n    }\r\n\r\n    function sell(uint amount) external override nonReentrant checkSettlement checkUnlocked {\r\n        (uint productFee, uint256 realAmount) = calculateFee(amount);\r\n        require(realAmount >= 1, \"You must sell more tokens\");\r\n\r\n        uint newUserDebt = realAmount.mul(getPrice()).div(1 ether);\r\n        usersDebt[msg.sender] = usersDebt[msg.sender].add(newUserDebt);\r\n        tokensToSell = realAmount.add(tokensToSell);\r\n\r\n        TransferHelper.safeTransferFrom(address(indexToken), msg.sender, address(this), amount);\r\n        indexToken.transfer(owner(), productFee);\r\n\r\n        emit ProductSold(msg.sender, newUserDebt, realAmount);\r\n    }\r\n\r\n    function beginSettlement() override external onlyOwner{\r\n        isSettlement = true;\r\n        TransferHelper.safeApprove(buyTokenAddress, dexRouterAddress, tokensToBuy);\r\n        TransferHelper.safeApprove(address(indexToken), dexRouterAddress, tokensToSell);\r\n    }\r\n\r\n    function endSettlement() override external onlyOwner {\r\n        tokensToBuy = 0;\r\n        tokensToSell = 0;\r\n        isSettlement = false;\r\n    }\r\n\r\n    function manageTokensSell(TokenInfo memory token, uint amount, uint tokenPrice) private {\r\n        ISwapRouter dexRouter = ISwapRouter(dexRouterAddress);\r\n        uint minOutAmount = amount.mul(tokenPrice).mul(1 ether);\r\n\r\n        if(token.intermediateToken == address(0)){\r\n            dexRouter.exactInputSingle(\r\n                ISwapRouter.ExactInputSingleParams({\r\n                    tokenIn: buyTokenAddress,\r\n                    tokenOut: token.tokenAddress,\r\n                    fee: token.poolFees[0],\r\n                    recipient: address(this),\r\n                    deadline: block.timestamp,\r\n                    amountIn: amount,\r\n                    amountOutMinimum: minOutAmount,\r\n                    sqrtPriceLimitX96: 0\r\n                })\r\n            );\r\n        }else{\r\n            totalAvailableDebt.add(dexRouter.exactInput(\r\n                ISwapRouter.ExactInputParams({\r\n                    path: abi.encodePacked(\r\n                        token.tokenAddress,\r\n                        token.poolFees[1],\r\n                        token.intermediateToken,\r\n                        token.poolFees[0],\r\n                        buyTokenAddress\r\n                    ),\r\n                    recipient: address(this),\r\n                    deadline: block.timestamp,\r\n                    amountIn: amount,\r\n                    amountOutMinimum: minOutAmount\r\n                })\r\n            ));\r\n        }\r\n    }\r\n\r\n    function manageTokensBuy(TokenInfo memory token, uint amount, uint tokenPrice) private {\r\n        ISwapRouter dexRouter = ISwapRouter(dexRouterAddress);\r\n        uint amountOut = amount.mul(1 ether).div(tokenPrice);\r\n        uint amountInMaximum = amount.add(amount.mul(1).div(100));\r\n\r\n        if(token.intermediateToken == address(0)){\r\n            dexRouter.exactOutputSingle(\r\n                ISwapRouter.ExactOutputSingleParams({\r\n                    tokenIn: buyTokenAddress,\r\n                    tokenOut: token.tokenAddress,\r\n                    fee: token.poolFees[0],\r\n                    recipient: address(this),\r\n                    deadline: block.timestamp,\r\n                    amountOut: amountOut,\r\n                    amountInMaximum: amountInMaximum,\r\n                    sqrtPriceLimitX96: 0\r\n                })\r\n            );\r\n        }else{\r\n            dexRouter.exactOutput(\r\n                ISwapRouter.ExactOutputParams({\r\n                    path: abi.encodePacked(\r\n                        token.tokenAddress,\r\n                        token.poolFees[1],\r\n                        token.intermediateToken,\r\n                        token.poolFees[0],\r\n                        buyTokenAddress\r\n                    ),\r\n                    recipient: address(this),\r\n                    deadline: block.timestamp,\r\n                    amountOut: amountOut,\r\n                    amountInMaximum: amountInMaximum\r\n                })\r\n            );\r\n        }\r\n    }\r\n\r\n    function manageTokens() external onlyOwner {\r\n        lastManagedToken += 1;\r\n        if(lastManagedToken > tokens.length - 1){\r\n            lastManagedToken = 0;\r\n        }\r\n\r\n        TokenInfo memory token = tokens[lastManagedToken];\r\n        uint tokensToBuyAmount = tokensToBuy.div(100).mul(token.indexPercentage);\r\n        uint tokensToSellAmount = tokensToSell.div(100).mul(token.indexPercentage);\r\n        uint tokenPrice = priceOracle.getPrice(token.priceOracleAddress, token.poolFees[0]);\r\n\r\n        if(tokensToBuyAmount > 0){ manageTokensBuy(token, tokensToBuyAmount, tokenPrice); }\r\n        if(tokensToSellAmount > 0){ manageTokensSell(token, tokensToSellAmount, tokenPrice); }\r\n\r\n    }\r\n\r\n    function getPrice() public view override returns (uint256) {\r\n        uint256 indexTotalPrice;\r\n\r\n        for (uint256 i = 0; i < tokens.length; i++) {\r\n            TokenInfo memory token = tokens[i];\r\n            indexTotalPrice = indexTotalPrice.add(\r\n                priceOracle.getPrice(token.priceOracleAddress, token.poolFees[0]).mul(token.indexPercentage).div(100)\r\n            );\r\n        }\r\n\r\n        return indexTotalPrice.div(indexPriceAdjustment);\r\n    }\r\n\r\n}\r\n",
  "sourcePath": "D:\\JavascriptProjects\\crypto-index\\contracts\\indices\\BaseIndex.sol",
  "compiler": {
    "name": "solc",
    "version": "0.7.6+commit.7338295f.Linux.g++"
  },
  "schemaVersion": "3.4.6",
  "updatedAt": "2022-05-11T19:17:43.018Z",
  "devdoc": {
    "kind": "dev",
    "methods": {
      "owner()": {
        "details": "Returns the address of the current owner."
      },
      "renounceOwnership()": {
        "details": "Leaves the contract without owner. It will not be possible to call `onlyOwner` functions anymore. Can only be called by the current owner. NOTE: Renouncing ownership will leave the contract without an owner, thereby removing any functionality that is only available to the owner."
      },
      "transferOwnership(address)": {
        "details": "Transfers ownership of the contract to a new account (`newOwner`). Can only be called by the current owner."
      }
    },
    "version": 1
  },
  "userdoc": {
    "kind": "user",
    "methods": {},
    "version": 1
  }
}