{
  "contractName": "BaseIndex",
  "abi": [
    {
      "anonymous": false,
      "inputs": [
        {
          "indexed": true,
          "internalType": "address",
          "name": "previousOwner",
          "type": "address"
        },
        {
          "indexed": true,
          "internalType": "address",
          "name": "newOwner",
          "type": "address"
        }
      ],
      "name": "OwnershipTransferred",
      "type": "event"
    },
    {
      "inputs": [],
      "name": "minimalFundAddition",
      "outputs": [
        {
          "internalType": "uint256",
          "name": "",
          "type": "uint256"
        }
      ],
      "stateMutability": "view",
      "type": "function"
    },
    {
      "inputs": [],
      "name": "name",
      "outputs": [
        {
          "internalType": "string",
          "name": "",
          "type": "string"
        }
      ],
      "stateMutability": "view",
      "type": "function"
    },
    {
      "inputs": [],
      "name": "owner",
      "outputs": [
        {
          "internalType": "address",
          "name": "",
          "type": "address"
        }
      ],
      "stateMutability": "view",
      "type": "function"
    },
    {
      "inputs": [
        {
          "internalType": "uint256",
          "name": "",
          "type": "uint256"
        }
      ],
      "name": "priceConsumers",
      "outputs": [
        {
          "internalType": "address",
          "name": "",
          "type": "address"
        }
      ],
      "stateMutability": "view",
      "type": "function"
    },
    {
      "inputs": [],
      "name": "renounceOwnership",
      "outputs": [],
      "stateMutability": "nonpayable",
      "type": "function"
    },
    {
      "inputs": [],
      "name": "symbol",
      "outputs": [
        {
          "internalType": "string",
          "name": "",
          "type": "string"
        }
      ],
      "stateMutability": "view",
      "type": "function"
    },
    {
      "inputs": [
        {
          "internalType": "uint256",
          "name": "",
          "type": "uint256"
        }
      ],
      "name": "tokenContracts",
      "outputs": [
        {
          "internalType": "address",
          "name": "",
          "type": "address"
        }
      ],
      "stateMutability": "view",
      "type": "function"
    },
    {
      "inputs": [
        {
          "internalType": "uint256",
          "name": "",
          "type": "uint256"
        }
      ],
      "name": "tokens",
      "outputs": [
        {
          "internalType": "string",
          "name": "",
          "type": "string"
        }
      ],
      "stateMutability": "view",
      "type": "function"
    },
    {
      "inputs": [
        {
          "internalType": "address",
          "name": "newOwner",
          "type": "address"
        }
      ],
      "name": "transferOwnership",
      "outputs": [],
      "stateMutability": "nonpayable",
      "type": "function"
    },
    {
      "inputs": [],
      "name": "uniswapRouter",
      "outputs": [
        {
          "internalType": "contract IUniswapV2Router02",
          "name": "",
          "type": "address"
        }
      ],
      "stateMutability": "view",
      "type": "function"
    },
    {
      "inputs": [],
      "name": "getPrice",
      "outputs": [
        {
          "internalType": "uint256",
          "name": "",
          "type": "uint256"
        }
      ],
      "stateMutability": "view",
      "type": "function"
    },
    {
      "inputs": [],
      "name": "addFunds",
      "outputs": [],
      "stateMutability": "payable",
      "type": "function"
    },
    {
      "inputs": [],
      "name": "getTVL",
      "outputs": [
        {
          "internalType": "uint256",
          "name": "",
          "type": "uint256"
        }
      ],
      "stateMutability": "view",
      "type": "function"
    },
    {
      "inputs": [],
      "name": "getMyTokensPrice",
      "outputs": [
        {
          "internalType": "uint256",
          "name": "",
          "type": "uint256"
        }
      ],
      "stateMutability": "view",
      "type": "function"
    },
    {
      "inputs": [],
      "name": "getMyTokens",
      "outputs": [
        {
          "internalType": "uint256",
          "name": "",
          "type": "uint256"
        }
      ],
      "stateMutability": "view",
      "type": "function"
    }
  ],
  "bytecode": "0x608060405260098054600160a060020a031916737a250d5630b4cf539739df2c5dacb4c659f2488d17905534801561003657600080fd5b5061005961004b64010000000061005e810204565b640100000000610062810204565b6100b2565b3390565b60008054600160a060020a03838116600160a060020a0319831681178455604051919092169283917f8be0079c531659141344cd1fd0a4f28419497f9722a3daafe3b4186f6b6457e09190a35050565b610af1806100c16000396000f3fe608060405260043610610105576000357c010000000000000000000000000000000000000000000000000000000090048063735de9f7116100a757806398d5fdca1161007657806398d5fdca14610271578063a26759cb14610286578063f2fde38b1461028e578063f3b755c7146102ae57600080fd5b8063735de9f7146102095780638da5cb5b1461022957806395d89b411461024757806397b3fcaa1461025c57600080fd5b80634f64b2be116100e35780634f64b2be146101905780635b3b136a146101b057806367ebf886146101d2578063715018a6146101f257600080fd5b806306fdde031461010a5780631d85b415146101355780631d9fb30914610158575b600080fd5b34801561011657600080fd5b5061011f6102c4565b60405161012c919061096a565b60405180910390f35b34801561014157600080fd5b5061014a610352565b60405190815260200161012c565b34801561016457600080fd5b50610178610173366004610901565b61037b565b604051600160a060020a03909116815260200161012c565b34801561019c57600080fd5b5061011f6101ab366004610901565b6103a5565b3480156101bc57600080fd5b503360009081526002602052604090205461014a565b3480156101de57600080fd5b506101786101ed366004610901565b6103d0565b3480156101fe57600080fd5b506102076103e0565b005b34801561021557600080fd5b5060095461017890600160a060020a031681565b34801561023557600080fd5b50600054600160a060020a0316610178565b34801561025357600080fd5b5061011f610465565b34801561026857600080fd5b5061014a610472565b34801561027d57600080fd5b5061014a610489565b610207610599565b34801561029a57600080fd5b506102076102a936600461089e565b61070c565b3480156102ba57600080fd5b5061014a60035481565b600580546102d190610a1b565b80601f01602080910402602001604051908101604052809291908181526020018280546102fd90610a1b565b801561034a5780601f1061031f5761010080835404028352916020019161034a565b820191906000526020600020905b81548152906001019060200180831161032d57829003601f168201915b505050505081565b600061035c610489565b3360009081526002602052604090205461037691906109fc565b905090565b6008818154811061038b57600080fd5b600091825260209091200154600160a060020a0316905081565b600481815481106103b557600080fd5b9060005260206000200160009150905080546102d190610a1b565b6007818154811061038b57600080fd5b600054600160a060020a03163314610459576040517f08c379a000000000000000000000000000000000000000000000000000000000815260206004820181905260248201527f4f776e61626c653a2063616c6c6572206973206e6f7420746865206f776e657260448201526064015b60405180910390fd5b6104636000610822565b565b600680546102d190610a1b565b600061047c610489565b60015461037691906109fc565b600080805b600754811015610585576000600782815481106104ad576104ad610a8d565b9060005260206000200160009054906101000a9004600160a060020a03169050600081600160a060020a031663feaf968c6040518163ffffffff167c010000000000000000000000000000000000000000000000000000000002815260040160a06040518083038186803b15801561052457600080fd5b505afa158015610538573d6000803e3d6000fd5b505050506040513d601f19601f8201168201806040525081019061055c919061091a565b505050915050808461056e91906109bf565b93505050808061057d90610a59565b91505061048e565b5060075461059390826109d7565b91505090565b34600160008282546105ab91906109bf565b90915550503360009081526002602052604081208054600192906105d09084906109bf565b9091555050600954604080517fad5c46480000000000000000000000000000000000000000000000000000000081529051600160a060020a0390921691829163ad5c4648916004808301926020929190829003018186803b15801561063457600080fd5b505afa158015610648573d6000803e3d6000fd5b505050506040513d601f19601f8201168201806040525081019061066c91906108c2565b6040517f095ea7b3000000000000000000000000000000000000000000000000000000008152600160a060020a038381166004830152346024830152919091169063095ea7b390604401602060405180830381600087803b1580156106d057600080fd5b505af11580156106e4573d6000803e3d6000fd5b505050506040513d601f19601f8201168201806040525081019061070891906108df565b5050565b600054600160a060020a03163314610780576040517f08c379a000000000000000000000000000000000000000000000000000000000815260206004820181905260248201527f4f776e61626c653a2063616c6c6572206973206e6f7420746865206f776e65726044820152606401610450565b600160a060020a038116610816576040517f08c379a000000000000000000000000000000000000000000000000000000000815260206004820152602660248201527f4f776e61626c653a206e6577206f776e657220697320746865207a65726f206160448201527f64647265737300000000000000000000000000000000000000000000000000006064820152608401610450565b61081f81610822565b50565b60008054600160a060020a0383811673ffffffffffffffffffffffffffffffffffffffff19831681178455604051919092169283917f8be0079c531659141344cd1fd0a4f28419497f9722a3daafe3b4186f6b6457e09190a35050565b805169ffffffffffffffffffff8116811461089957600080fd5b919050565b6000602082840312156108b057600080fd5b81356108bb81610aa6565b9392505050565b6000602082840312156108d457600080fd5b81516108bb81610aa6565b6000602082840312156108f157600080fd5b815180151581146108bb57600080fd5b60006020828403121561091357600080fd5b5035919050565b600080600080600060a0868803121561093257600080fd5b61093b8661087f565b945060208601519350604086015192506060860151915061095e6080870161087f565b90509295509295909350565b600060208083528351808285015260005b818110156109975785810183015185820160400152820161097b565b818111156109a9576000604083870101525b50601f01601f1916929092016040019392505050565b600082198211156109d2576109d2610a74565b500190565b6000826109f75760e060020a634e487b7102600052601260045260246000fd5b500490565b6000816000190483118215151615610a1657610a16610a74565b500290565b600281046001821680610a2f57607f821691505b60208210811415610a535760e060020a634e487b7102600052602260045260246000fd5b50919050565b6000600019821415610a6d57610a6d610a74565b5060010190565b60e060020a634e487b7102600052601160045260246000fd5b60e060020a634e487b7102600052603260045260246000fd5b600160a060020a038116811461081f57600080fdfea26469706673582212207fd78b4d2e70969403eea7bfbbd82f6f0847ff9b13fbef808b18e7ae1a9cbaa664736f6c63430008070033",
  "immutableReferences": {},
  "source": "// SPDX-License-Identifier: MIT\npragma solidity ^0.8.7;\n\nimport './PriceProtocol.sol';\nimport \"@openzeppelin/contracts/access/Ownable.sol\";\nimport \"@openzeppelin/contracts/utils/Strings.sol\";\nimport \"@chainlink/contracts/src/v0.8/interfaces/AggregatorV3Interface.sol\";\nimport \"@uniswap/v2-periphery/contracts/interfaces/IUniswapV2Router02.sol\";\nimport \"@uniswap/v2-core/contracts/interfaces/IERC20.sol\";\n\n\ncontract BaseIndex is Ownable {\n\n    uint256 private totalFunds;\n    mapping(address => uint256) private investors;\n    uint256 public minimalFundAddition;\n\n    string[] public tokens;\n    string public name;\n    string public symbol;\n\n    address[] public priceConsumers;\n    address[] public tokenContracts;\n    IUniswapV2Router02 public uniswapRouter = IUniswapV2Router02(0x7a250d5630B4cF539739dF2C5dAcb4c659F2488D);\n\n    function getPrice() public view returns (uint) {\n        uint totalPrice = 0;\n\n        for (uint index = 0; index < priceConsumers.length; index++) {\n            AggregatorV3Interface consumer = AggregatorV3Interface(priceConsumers[index]);\n            (, int answer, , ,) = consumer.latestRoundData();\n            totalPrice += uint(answer);\n        }\n\n        return totalPrice / priceConsumers.length;\n    }\n\n    function addFunds() public payable {\n        // require(msg.value > minimalFundAddition, \"Not enough funds to add to the index\");\n        totalFunds += msg.value;\n        investors[msg.sender] += 1;//msg.value / getPrice();\n\n        address uniswapRouterAddress = address(uniswapRouter);\n        // address indexAddress = address(this);\n\n        IERC20(uniswapRouter.WETH()).approve(uniswapRouterAddress, msg.value);\n        \n        // address[] memory path;\n        // path = new address[](2);\n        // path[0] = address(uniswapRouter.WETH());\n        // path[1] = address(tokenContracts[0]);\n\n        // uniswapRouter.swapETHForExactTokens(1, path, indexAddress, block.timestamp);\n\n        // for(uint index = 0; index < tokenContracts.length; index++) {\n        //     IERC20 token = IERC20(tokenContracts[index]);\n        //     uint256 tokenETHQuantity = msg.value / tokenContracts.length;\n        //     uint256 tokenQuantity = tokenETHQuantity;\n        //     token.approve(routerAddress, tokenETHQuantity);\n// \n        //     address[] memory path = new address[](2);\n        //     path[0] = address(uniswapRouter.WETH());\n        //     path[1] = address(token);\n// \n        //     uniswapRouter.swapExactETHForTokens(tokenQuantity, path, indexAddress, block.timestamp + 3600);\n        // }\n    }\n\n    function getTVL() public view returns(uint256){\n        return totalFunds * getPrice();\n    }\n\n    function getMyTokensPrice() public view returns(uint256){\n        return getMyTokens() * getPrice();\n    }\n\n    function getMyTokens() public view returns(uint256){\n        return investors[msg.sender];\n    }\n\n}\n\n\ncontract CorrelationIndex is BaseIndex {\n\n    constructor(){\n        minimalFundAddition = 100;\n        tokens = [\"BTC\", \"ETH\", \"BNB\", \"LINK\", \"DOT\"];\n        name = \"Correlation Index\";\n        symbol = \"CI\";\n\n        priceConsumers = [\n            // BSC mainnet\n            // PriceConsumerV3(0x0567F2323251f0Aab15c8dFb1967E4e8A7D42aeE),    // BNB\n            // PriceConsumerV3(0x7CA57b0cA6367191c94C8914d7Df09A57655905f),    // MATIC\n            // PriceConsumerV3(0x264990fbd0A4796A3E3d8E37C4d5F87a3aCa5Ebf),    // WBTC\n            // PriceConsumerV3(0xca236E327F629f9Fc2c30A4E95775EbF0B89fac8),    // LINK\n            // PriceConsumerV3(0xF4C5e535756D11994fCBB12Ba8adD0192D9b88be),    // TRX\n            // PriceConsumerV3(0xb57f259E7C24e56a1dA00F66b55A5640d9f9E7e4)    // UNI\n\n            // ETH mainnet\n            0x5f4eC3Df9cbd43714FE2740f5E3616155c5b8419,    // ETH\n            0xF4030086522a5bEEa4988F8cA5B36dbC97BeE88c,    // BTC\n            0x2c1d072e956AFFC0D435Cb7AC38EF18d24d9127c    // LINK\n        ];\n\n        tokenContracts = [\n            // ETH mainnet\n            // IERC20(0xB8c77482e45F1F44dE1745F52C74426C631bDD52),     // BNB\n            // IERC20(0x7D1AfA7B718fb893dB30A3aBc0Cfc608AaCfeBB0),     // MATIC\n            // IERC20(0xE1Be5D3f34e89dE342Ee97E6e90D405884dA6c67),     // TRX\n            // IERC20(0x1f9840a85d5aF5bf1D1762F925BDADdC4201F984)     // UNI\n\n            0xC02aaA39b223FE8D0A0e5C4F27eAD9083C756Cc2,    // WETH\n            0x2260FAC5E5542a773Aa44fBCfeDf7C193bc2C599,     // WBTC\n            0x514910771AF9Ca656af840dff83E8264EcF986CA     // LINK\n        ];\n    }\n\n}\n",
  "sourcePath": "F:\\JavascriptProjects\\crypto-index\\contracts\\Index.sol",
  "compiler": {
    "name": "solc",
    "version": "0.8.7+commit.e28d00a7.Linux.g++"
  },
  "schemaVersion": "3.4.3",
  "updatedAt": "2022-03-02T15:48:19.423Z",
  "devdoc": {
    "kind": "dev",
    "methods": {
      "owner()": {
        "details": "Returns the address of the current owner."
      },
      "renounceOwnership()": {
        "details": "Leaves the contract without owner. It will not be possible to call `onlyOwner` functions anymore. Can only be called by the current owner. NOTE: Renouncing ownership will leave the contract without an owner, thereby removing any functionality that is only available to the owner."
      },
      "transferOwnership(address)": {
        "details": "Transfers ownership of the contract to a new account (`newOwner`). Can only be called by the current owner."
      }
    },
    "version": 1
  },
  "userdoc": {
    "kind": "user",
    "methods": {},
    "version": 1
  }
}