{
  "contractName": "BaseIndex",
  "abi": [
    {
      "inputs": [
        {
          "components": [
            {
              "internalType": "string",
              "name": "tokenName",
              "type": "string"
            },
            {
              "internalType": "uint8",
              "name": "decimalUnits",
              "type": "uint8"
            },
            {
              "internalType": "uint256",
              "name": "initialAmount",
              "type": "uint256"
            },
            {
              "internalType": "string",
              "name": "tokenSymbol",
              "type": "string"
            },
            {
              "internalType": "uint256",
              "name": "minimalFundAddition",
              "type": "uint256"
            }
          ],
          "internalType": "struct BaseIndex.IndexInitialParameters",
          "name": "params",
          "type": "tuple"
        },
        {
          "internalType": "address",
          "name": "uniswapAddress",
          "type": "address"
        },
        {
          "internalType": "address",
          "name": "_buyToken",
          "type": "address"
        }
      ],
      "stateMutability": "nonpayable",
      "type": "constructor"
    },
    {
      "inputs": [],
      "name": "buyToken",
      "outputs": [
        {
          "internalType": "address",
          "name": "",
          "type": "address"
        }
      ],
      "stateMutability": "view",
      "type": "function"
    },
    {
      "inputs": [],
      "name": "indexToken",
      "outputs": [
        {
          "internalType": "contract IndexToken",
          "name": "",
          "type": "address"
        }
      ],
      "stateMutability": "view",
      "type": "function"
    },
    {
      "inputs": [],
      "name": "minimalFundAddition",
      "outputs": [
        {
          "internalType": "uint256",
          "name": "",
          "type": "uint256"
        }
      ],
      "stateMutability": "view",
      "type": "function"
    },
    {
      "inputs": [
        {
          "internalType": "uint256",
          "name": "",
          "type": "uint256"
        }
      ],
      "name": "tokenContracts",
      "outputs": [
        {
          "internalType": "address",
          "name": "tokenAddress",
          "type": "address"
        },
        {
          "internalType": "uint24",
          "name": "poolFee",
          "type": "uint24"
        },
        {
          "internalType": "address",
          "name": "priceOracleAddress",
          "type": "address"
        }
      ],
      "stateMutability": "view",
      "type": "function"
    },
    {
      "inputs": [],
      "name": "test",
      "outputs": [],
      "stateMutability": "nonpayable",
      "type": "function"
    },
    {
      "inputs": [],
      "name": "a",
      "outputs": [
        {
          "internalType": "uint256",
          "name": "",
          "type": "uint256"
        }
      ],
      "stateMutability": "view",
      "type": "function"
    },
    {
      "inputs": [
        {
          "internalType": "uint256",
          "name": "amountIn",
          "type": "uint256"
        }
      ],
      "name": "addFunds",
      "outputs": [
        {
          "internalType": "uint256",
          "name": "",
          "type": "uint256"
        }
      ],
      "stateMutability": "nonpayable",
      "type": "function"
    },
    {
      "inputs": [],
      "name": "getIndexPrice",
      "outputs": [
        {
          "internalType": "uint256",
          "name": "",
          "type": "uint256"
        }
      ],
      "stateMutability": "view",
      "type": "function"
    },
    {
      "inputs": [],
      "name": "getTotalLockedValue",
      "outputs": [
        {
          "internalType": "uint256",
          "name": "",
          "type": "uint256"
        }
      ],
      "stateMutability": "view",
      "type": "function"
    },
    {
      "inputs": [],
      "name": "getMyTokensPrice",
      "outputs": [
        {
          "internalType": "uint256",
          "name": "",
          "type": "uint256"
        }
      ],
      "stateMutability": "view",
      "type": "function"
    }
  ],
  "bytecode": "0x6101206040526040516200001390620001a4565b604051809103906000f08015801562000030573d6000803e3d6000fd5b5073ffffffffffffffffffffffffffffffffffffffff1660e09073ffffffffffffffffffffffffffffffffffffffff1660601b8152503480156200007357600080fd5b5060405162002e8f38038062002e8f833981810160405281019062000099919062000328565b826040015130846000015185602001518660600151604051620000bc90620001b2565b620000cc9594939291906200040b565b604051809103906000f080158015620000e9573d6000803e3d6000fd5b5073ffffffffffffffffffffffffffffffffffffffff1660808173ffffffffffffffffffffffffffffffffffffffff1660601b81525050826080015160a081815250508173ffffffffffffffffffffffffffffffffffffffff1660c08173ffffffffffffffffffffffffffffffffffffffff1660601b815250508073ffffffffffffffffffffffffffffffffffffffff166101008173ffffffffffffffffffffffffffffffffffffffff1660601b81525050505050620005db565b61019f8062001c6383390190565b61108d8062001e0283390190565b600081519050620001d1816200058d565b92915050565b600082601f830112620001e957600080fd5b815162000200620001fa82620004aa565b62000476565b915080825260208301602083018583830111156200021d57600080fd5b6200022a83828462000544565b50505092915050565b600060a082840312156200024657600080fd5b6200025260a062000476565b9050600082015167ffffffffffffffff8111156200026f57600080fd5b6200027d84828501620001d7565b6000830152506020620002938482850162000311565b6020830152506040620002a984828501620002fa565b604083015250606082015167ffffffffffffffff811115620002ca57600080fd5b620002d884828501620001d7565b6060830152506080620002ee84828501620002fa565b60808301525092915050565b6000815190506200030b81620005a7565b92915050565b6000815190506200032281620005c1565b92915050565b6000806000606084860312156200033e57600080fd5b600084015167ffffffffffffffff8111156200035957600080fd5b620003678682870162000233565b93505060206200037a86828701620001c0565b92505060406200038d86828701620001c0565b9150509250925092565b620003a281620004f9565b82525050565b6000620003b582620004dd565b620003c18185620004e8565b9350620003d381856020860162000544565b620003de816200057c565b840191505092915050565b620003f4816200052d565b82525050565b620004058162000537565b82525050565b600060a082019050620004226000830188620003e9565b62000431602083018762000397565b8181036040830152620004458186620003a8565b9050620004566060830185620003fa565b81810360808301526200046a8184620003a8565b90509695505050505050565b6000604051905081810181811067ffffffffffffffff82111715620004a0576200049f6200057a565b5b8060405250919050565b600067ffffffffffffffff821115620004c857620004c76200057a565b5b601f19601f8301169050602081019050919050565b600081519050919050565b600082825260208201905092915050565b600062000506826200050d565b9050919050565b600073ffffffffffffffffffffffffffffffffffffffff82169050919050565b6000819050919050565b600060ff82169050919050565b60005b838110156200056457808201518184015260208101905062000547565b8381111562000574576000848401525b50505050565bfe5b6000601f19601f8301169050919050565b6200059881620004f9565b8114620005a457600080fd5b50565b620005b2816200052d565b8114620005be57600080fd5b50565b620005cc8162000537565b8114620005d857600080fd5b50565b60805160601c60a05160c05160601c60e05160601c6101005160601c6115fb62000668600039806101e552806105be528061077c528061082c5280610ad75280610d4c5280610dfd5250806104e95280610a0b5250806108685280610b8d5280610e395250806105f75280610d2852508061029f52806106835280610c4a5280610d0452506115fb6000f3fe608060405234801561001057600080fd5b506004361061009e5760003560e01c8063b759791411610066578063b75979141461014d578063be9997051461016b578063e7d015f21461019b578063f3b755c7146101b9578063f8a8fd6d146101d75761009e565b80630dbe671f146100a35780631d85b415146100c15780631d9fb309146100df57806358c0994a14610111578063a48217191461012f575b600080fd5b6100ab6101e1565b6040516100b891906114a8565b60405180910390f35b6100c9610293565b6040516100d691906114a8565b60405180910390f35b6100f960048036038101906100f49190611028565b61034c565b604051610108939291906113d1565b60405180910390f35b6101196103d5565b60405161012691906114a8565b60405180910390f35b6101376105bc565b60405161014491906112a4565b60405180910390f35b6101556105e0565b60405161016291906114a8565b60405180910390f35b61018560048036038101906101809190611028565b6105f3565b60405161019291906114a8565b60405180910390f35b6101a3610d02565b6040516101b09190611431565b60405180910390f35b6101c1610d26565b6040516101ce91906114a8565b60405180910390f35b6101df610d4a565b005b60007f000000000000000000000000000000000000000000000000000000000000000073ffffffffffffffffffffffffffffffffffffffff1663dd62ed3e33306040518363ffffffff1660e01b815260040161023e9291906112da565b60206040518083038186803b15801561025657600080fd5b505afa15801561026a573d6000803e3d6000fd5b505050506040513d601f19601f8201168201806040525081019061028e9190611051565b905090565b600061029d6103d5565b7f000000000000000000000000000000000000000000000000000000000000000073ffffffffffffffffffffffffffffffffffffffff166370a08231336040518263ffffffff1660e01b81526004016102f691906112bf565b60206040518083038186803b15801561030e57600080fd5b505afa158015610322573d6000803e3d6000fd5b505050506040513d601f19601f820116820180604052508101906103469190611051565b02905090565b6001818154811061035c57600080fd5b90600052602060002090600202016000915090508060000160009054906101000a900473ffffffffffffffffffffffffffffffffffffffff16908060000160149054906101000a900462ffffff16908060010160009054906101000a900473ffffffffffffffffffffffffffffffffffffffff16905083565b60008060005b6001805490508110156105a6576103f0610ecc565b600182815481106103fd57fe5b90600052602060002090600202016040518060600160405290816000820160009054906101000a900473ffffffffffffffffffffffffffffffffffffffff1673ffffffffffffffffffffffffffffffffffffffff1673ffffffffffffffffffffffffffffffffffffffff1681526020016000820160149054906101000a900462ffffff1662ffffff1662ffffff1681526020016001820160009054906101000a900473ffffffffffffffffffffffffffffffffffffffff1673ffffffffffffffffffffffffffffffffffffffff1673ffffffffffffffffffffffffffffffffffffffff168152505090507f000000000000000000000000000000000000000000000000000000000000000073ffffffffffffffffffffffffffffffffffffffff166341976e0982604001516040518263ffffffff1660e01b815260040161054491906112a4565b60206040518083038186803b15801561055c57600080fd5b505afa158015610570573d6000803e3d6000fd5b505050506040513d601f19601f820116820180604052508101906105949190611051565b830192505080806001019150506103db565b5060018054905081816105b557fe5b0491505090565b7f000000000000000000000000000000000000000000000000000000000000000081565b60006105ea6103d5565b60005402905090565b60007f0000000000000000000000000000000000000000000000000000000000000000821015610658576040517f08c379a000000000000000000000000000000000000000000000000000000000815260040161064f9061146c565b60405180910390fd5b6000600180549050838161066857fe5b04905060006106756103d5565b848161067d57fe5b049050807f000000000000000000000000000000000000000000000000000000000000000073ffffffffffffffffffffffffffffffffffffffff166370a08231306040518263ffffffff1660e01b81526004016106da91906112a4565b60206040518083038186803b1580156106f257600080fd5b505afa158015610706573d6000803e3d6000fd5b505050506040513d601f19601f8201168201806040525081019061072a9190611051565b101561076b576040517f08c379a00000000000000000000000000000000000000000000000000000000081526004016107629061144c565b60405180910390fd5b8060008082825401925050819055507f000000000000000000000000000000000000000000000000000000000000000073ffffffffffffffffffffffffffffffffffffffff166323b872dd3330876040518463ffffffff1660e01b81526004016107d79392919061133a565b602060405180830381600087803b1580156107f157600080fd5b505af1158015610805573d6000803e3d6000fd5b505050506040513d601f19601f820116820180604052508101906108299190610fff565b507f000000000000000000000000000000000000000000000000000000000000000073ffffffffffffffffffffffffffffffffffffffff1663095ea7b37f0000000000000000000000000000000000000000000000000000000000000000866040518363ffffffff1660e01b81526004016108a5929190611408565b602060405180830381600087803b1580156108bf57600080fd5b505af11580156108d3573d6000803e3d6000fd5b505050506040513d601f19601f820116820180604052508101906108f79190610fff565b5060005b600180549050811015610c4757610910610ecc565b6001828154811061091d57fe5b90600052602060002090600202016040518060600160405290816000820160009054906101000a900473ffffffffffffffffffffffffffffffffffffffff1673ffffffffffffffffffffffffffffffffffffffff1673ffffffffffffffffffffffffffffffffffffffff1681526020016000820160149054906101000a900462ffffff1662ffffff1662ffffff1681526020016001820160009054906101000a900473ffffffffffffffffffffffffffffffffffffffff1673ffffffffffffffffffffffffffffffffffffffff1673ffffffffffffffffffffffffffffffffffffffff1681525050905060007f000000000000000000000000000000000000000000000000000000000000000073ffffffffffffffffffffffffffffffffffffffff166341976e0983604001516040518263ffffffff1660e01b8152600401610a6691906112a4565b60206040518083038186803b158015610a7e57600080fd5b505afa158015610a92573d6000803e3d6000fd5b505050506040513d601f19601f82011682018060405250810190610ab69190611051565b8581610abe57fe5b049050610ac9610f1e565b6040518061010001604052807f000000000000000000000000000000000000000000000000000000000000000073ffffffffffffffffffffffffffffffffffffffff168152602001846000015173ffffffffffffffffffffffffffffffffffffffff168152602001846020015162ffffff1681526020013073ffffffffffffffffffffffffffffffffffffffff168152602001428152602001878152602001838152602001600073ffffffffffffffffffffffffffffffffffffffff1681525090507f000000000000000000000000000000000000000000000000000000000000000073ffffffffffffffffffffffffffffffffffffffff1663414bf389826040518263ffffffff1660e01b8152600401610be4919061148c565b602060405180830381600087803b158015610bfe57600080fd5b505af1158015610c12573d6000803e3d6000fd5b505050506040513d601f19601f82011682018060405250810190610c369190611051565b5050505080806001019150506108fb565b507f000000000000000000000000000000000000000000000000000000000000000073ffffffffffffffffffffffffffffffffffffffff166323b872dd3033846040518463ffffffff1660e01b8152600401610ca593929190611371565b602060405180830381600087803b158015610cbf57600080fd5b505af1158015610cd3573d6000803e3d6000fd5b505050506040513d601f19601f82011682018060405250810190610cf79190610fff565b508092505050919050565b7f000000000000000000000000000000000000000000000000000000000000000081565b7f000000000000000000000000000000000000000000000000000000000000000081565b7f000000000000000000000000000000000000000000000000000000000000000073ffffffffffffffffffffffffffffffffffffffff166323b872dd333060646040518463ffffffff1660e01b8152600401610da893929190611303565b602060405180830381600087803b158015610dc257600080fd5b505af1158015610dd6573d6000803e3d6000fd5b505050506040513d601f19601f82011682018060405250810190610dfa9190610fff565b507f000000000000000000000000000000000000000000000000000000000000000073ffffffffffffffffffffffffffffffffffffffff1663095ea7b37f000000000000000000000000000000000000000000000000000000000000000060646040518363ffffffff1660e01b8152600401610e779291906113a8565b602060405180830381600087803b158015610e9157600080fd5b505af1158015610ea5573d6000803e3d6000fd5b505050506040513d601f19601f82011682018060405250810190610ec99190610fff565b50565b6040518060600160405280600073ffffffffffffffffffffffffffffffffffffffff168152602001600062ffffff168152602001600073ffffffffffffffffffffffffffffffffffffffff1681525090565b604051806101000160405280600073ffffffffffffffffffffffffffffffffffffffff168152602001600073ffffffffffffffffffffffffffffffffffffffff168152602001600062ffffff168152602001600073ffffffffffffffffffffffffffffffffffffffff168152602001600081526020016000815260200160008152602001600073ffffffffffffffffffffffffffffffffffffffff1681525090565b600081519050610fcf81611597565b92915050565b600081359050610fe4816115ae565b92915050565b600081519050610ff9816115ae565b92915050565b60006020828403121561101157600080fd5b600061101f84828501610fc0565b91505092915050565b60006020828403121561103a57600080fd5b600061104884828501610fd5565b91505092915050565b60006020828403121561106357600080fd5b600061107184828501610fea565b91505092915050565b6110838161152b565b82525050565b611092816114d4565b82525050565b6110a1816114d4565b82525050565b6110b08161153d565b82525050565b6110bf81611561565b82525050565b60006110d26048836114c3565b91507f4e6f7420656e6f75676820746f6b656e7320696e2074686520696e6465782c2060008301527f796f752063616e206f6e6c7920627579206974206f6e207365636f6e6461727960208301527f206d61726b6574730000000000000000000000000000000000000000000000006040830152606082019050919050565b600061115e6024836114c3565b91507f4e6f7420656e6f7567682066756e647320746f2061646420746f20746865206960008301527f6e646578000000000000000000000000000000000000000000000000000000006020830152604082019050919050565b610100820160008201516111ce6000850182611089565b5060208201516111e16020850182611089565b5060408201516111f46040850182611268565b5060608201516112076060850182611089565b50608082015161121a6080850182611286565b5060a082015161122d60a0850182611286565b5060c082015161124060c0850182611286565b5060e082015161125360e0850182611259565b50505050565b611262816114f2565b82525050565b61127181611512565b82525050565b61128081611512565b82525050565b61128f81611521565b82525050565b61129e81611521565b82525050565b60006020820190506112b96000830184611098565b92915050565b60006020820190506112d4600083018461107a565b92915050565b60006040820190506112ef600083018561107a565b6112fc6020830184611098565b9392505050565b6000606082019050611318600083018661107a565b6113256020830185611098565b61133260408301846110b6565b949350505050565b600060608201905061134f600083018661107a565b61135c6020830185611098565b6113696040830184611295565b949350505050565b60006060820190506113866000830186611098565b611393602083018561107a565b6113a06040830184611295565b949350505050565b60006040820190506113bd6000830185611098565b6113ca60208301846110b6565b9392505050565b60006060820190506113e66000830186611098565b6113f36020830185611277565b6114006040830184611098565b949350505050565b600060408201905061141d6000830185611098565b61142a6020830184611295565b9392505050565b600060208201905061144660008301846110a7565b92915050565b60006020820190508181036000830152611465816110c5565b9050919050565b6000602082019050818103600083015261148581611151565b9050919050565b6000610100820190506114a260008301846111b7565b92915050565b60006020820190506114bd6000830184611295565b92915050565b600082825260208201905092915050565b60006114df826114f2565b9050919050565b60008115159050919050565b600073ffffffffffffffffffffffffffffffffffffffff82169050919050565b600062ffffff82169050919050565b6000819050919050565b600061153682611573565b9050919050565b60006115488261154f565b9050919050565b600061155a826114f2565b9050919050565b600061156c82611521565b9050919050565b600061157e82611585565b9050919050565b6000611590826114f2565b9050919050565b6115a0816114e6565b81146115ab57600080fd5b50565b6115b781611521565b81146115c257600080fd5b5056fea26469706673582212208e21b2aad8f21d910cc0e242ae7ad7aa532fef227e18e59224d347192e09ee1664736f6c63430007050033608060405234801561001057600080fd5b5061017f806100206000396000f3fe608060405234801561001057600080fd5b506004361061002b5760003560e01c806341976e0914610030575b600080fd5b6100726004803603602081101561004657600080fd5b81019080803573ffffffffffffffffffffffffffffffffffffffff169060200190929190505050610088565b6040518082815260200191505060405180910390f35b60008082905060008173ffffffffffffffffffffffffffffffffffffffff1663feaf968c6040518163ffffffff1660e01b815260040160a06040518083038186803b1580156100d657600080fd5b505afa1580156100ea573d6000803e3d6000fd5b505050506040513d60a081101561010057600080fd5b810190808051906020019092919080519060200190929190805190602001909291908051906020019092919080519060200190929190505050505050915050809250505091905056fea26469706673582212204ef8f33cef2d9ab55791ad48d2d9535fc93d8a36662b48939a4489c62bd4b7c864736f6c6343000705003360806040523480156200001157600080fd5b506040516200108d3803806200108d833981810160405260a08110156200003757600080fd5b810190808051906020019092919080519060200190929190805160405193929190846401000000008211156200006c57600080fd5b838201915060208201858111156200008357600080fd5b8251866001820283011164010000000082111715620000a157600080fd5b8083526020830192505050908051906020019080838360005b83811015620000d7578082015181840152602081019050620000ba565b50505050905090810190601f168015620001055780820380516001836020036101000a031916815260200191505b5060405260200180519060200190929190805160405193929190846401000000008211156200013357600080fd5b838201915060208201858111156200014a57600080fd5b82518660018202830111640100000000821117156200016857600080fd5b8083526020830192505050908051906020019080838360005b838110156200019e57808201518184015260208101905062000181565b50505050905090810190601f168015620001cc5780820380516001836020036101000a031916815260200191505b50604052505050846000808673ffffffffffffffffffffffffffffffffffffffff1673ffffffffffffffffffffffffffffffffffffffff16815260200190815260200160002081905550600060028190555082600390805190602001906200023692919062000276565b5081600460006101000a81548160ff021916908360ff16021790555080600590805190602001906200026a92919062000276565b5050505050506200032c565b828054600181600116156101000203166002900490600052602060002090601f016020900481019282620002ae5760008555620002fa565b82601f10620002c957805160ff1916838001178555620002fa565b82800160010185558215620002fa579182015b82811115620002f9578251825591602001919060010190620002dc565b5b5090506200030991906200030d565b5090565b5b80821115620003285760008160009055506001016200030e565b5090565b610d51806200033c6000396000f3fe608060405234801561001057600080fd5b50600436106100a95760003560e01c8063313ce56711610071578063313ce5671461028f5780635c658165146102b057806370a082311461032857806395d89b4114610380578063a9059cbb14610403578063dd62ed3e14610467576100a9565b806306fdde03146100ae578063095ea7b31461013157806318160ddd1461019557806323b872dd146101b357806327e235e314610237575b600080fd5b6100b66104df565b6040518080602001828103825283818151815260200191508051906020019080838360005b838110156100f65780820151818401526020810190506100db565b50505050905090810190601f1680156101235780820380516001836020036101000a031916815260200191505b509250505060405180910390f35b61017d6004803603604081101561014757600080fd5b81019080803573ffffffffffffffffffffffffffffffffffffffff1690602001909291908035906020019092919050505061057d565b60405180821515815260200191505060405180910390f35b61019d61066f565b6040518082815260200191505060405180910390f35b61021f600480360360608110156101c957600080fd5b81019080803573ffffffffffffffffffffffffffffffffffffffff169060200190929190803573ffffffffffffffffffffffffffffffffffffffff16906020019092919080359060200190929190505050610675565b60405180821515815260200191505060405180910390f35b6102796004803603602081101561024d57600080fd5b81019080803573ffffffffffffffffffffffffffffffffffffffff169060200190929190505050610956565b6040518082815260200191505060405180910390f35b61029761096e565b604051808260ff16815260200191505060405180910390f35b610312600480360360408110156102c657600080fd5b81019080803573ffffffffffffffffffffffffffffffffffffffff169060200190929190803573ffffffffffffffffffffffffffffffffffffffff169060200190929190505050610981565b6040518082815260200191505060405180910390f35b61036a6004803603602081101561033e57600080fd5b81019080803573ffffffffffffffffffffffffffffffffffffffff1690602001909291905050506109a6565b6040518082815260200191505060405180910390f35b6103886109ee565b6040518080602001828103825283818151815260200191508051906020019080838360005b838110156103c85780820151818401526020810190506103ad565b50505050905090810190601f1680156103f55780820380516001836020036101000a031916815260200191505b509250505060405180910390f35b61044f6004803603604081101561041957600080fd5b81019080803573ffffffffffffffffffffffffffffffffffffffff16906020019092919080359060200190929190505050610a8c565b60405180821515815260200191505060405180910390f35b6104c96004803603604081101561047d57600080fd5b81019080803573ffffffffffffffffffffffffffffffffffffffff169060200190929190803573ffffffffffffffffffffffffffffffffffffffff169060200190929190505050610c2c565b6040518082815260200191505060405180910390f35b60038054600181600116156101000203166002900480601f0160208091040260200160405190810160405280929190818152602001828054600181600116156101000203166002900480156105755780601f1061054a57610100808354040283529160200191610575565b820191906000526020600020905b81548152906001019060200180831161055857829003601f168201915b505050505081565b600081600160003373ffffffffffffffffffffffffffffffffffffffff1673ffffffffffffffffffffffffffffffffffffffff16815260200190815260200160002060008573ffffffffffffffffffffffffffffffffffffffff1673ffffffffffffffffffffffffffffffffffffffff168152602001908152602001600020819055508273ffffffffffffffffffffffffffffffffffffffff163373ffffffffffffffffffffffffffffffffffffffff167f8c5be1e5ebec7d5bd14f71427d1e84f3dd0314c0f7b2291e5b200ac8c7c3b925846040518082815260200191505060405180910390a36001905092915050565b60025481565b600080600160008673ffffffffffffffffffffffffffffffffffffffff1673ffffffffffffffffffffffffffffffffffffffff16815260200190815260200160002060003373ffffffffffffffffffffffffffffffffffffffff1673ffffffffffffffffffffffffffffffffffffffff168152602001908152602001600020549050826000808773ffffffffffffffffffffffffffffffffffffffff1673ffffffffffffffffffffffffffffffffffffffff16815260200190815260200160002054101580156107455750828110155b61079a576040517f08c379a0000000000000000000000000000000000000000000000000000000008152600401808060200182810382526039815260200180610ce36039913960400191505060405180910390fd5b826000808673ffffffffffffffffffffffffffffffffffffffff1673ffffffffffffffffffffffffffffffffffffffff16815260200190815260200160002060008282540192505081905550826000808773ffffffffffffffffffffffffffffffffffffffff1673ffffffffffffffffffffffffffffffffffffffff168152602001908152602001600020600082825403925050819055507fffffffffffffffffffffffffffffffffffffffffffffffffffffffffffffffff8110156108e55782600160008773ffffffffffffffffffffffffffffffffffffffff1673ffffffffffffffffffffffffffffffffffffffff16815260200190815260200160002060003373ffffffffffffffffffffffffffffffffffffffff1673ffffffffffffffffffffffffffffffffffffffff168152602001908152602001600020600082825403925050819055505b8373ffffffffffffffffffffffffffffffffffffffff168573ffffffffffffffffffffffffffffffffffffffff167fddf252ad1be2c89b69c2b068fc378daa952ba7f163c4a11628f55a4df523b3ef856040518082815260200191505060405180910390a360019150509392505050565b60006020528060005260406000206000915090505481565b600460009054906101000a900460ff1681565b6001602052816000526040600020602052806000526040600020600091509150505481565b60008060008373ffffffffffffffffffffffffffffffffffffffff1673ffffffffffffffffffffffffffffffffffffffff168152602001908152602001600020549050919050565b60058054600181600116156101000203166002900480601f016020809104026020016040519081016040528092919081815260200182805460018160011615610100020316600290048015610a845780601f10610a5957610100808354040283529160200191610a84565b820191906000526020600020905b815481529060010190602001808311610a6757829003601f168201915b505050505081565b6000816000803373ffffffffffffffffffffffffffffffffffffffff1673ffffffffffffffffffffffffffffffffffffffff168152602001908152602001600020541015610b25576040517f08c379a000000000000000000000000000000000000000000000000000000000815260040180806020018281038252602f815260200180610cb4602f913960400191505060405180910390fd5b816000803373ffffffffffffffffffffffffffffffffffffffff1673ffffffffffffffffffffffffffffffffffffffff16815260200190815260200160002060008282540392505081905550816000808573ffffffffffffffffffffffffffffffffffffffff1673ffffffffffffffffffffffffffffffffffffffff168152602001908152602001600020600082825401925050819055508273ffffffffffffffffffffffffffffffffffffffff163373ffffffffffffffffffffffffffffffffffffffff167fddf252ad1be2c89b69c2b068fc378daa952ba7f163c4a11628f55a4df523b3ef846040518082815260200191505060405180910390a36001905092915050565b6000600160008473ffffffffffffffffffffffffffffffffffffffff1673ffffffffffffffffffffffffffffffffffffffff16815260200190815260200160002060008373ffffffffffffffffffffffffffffffffffffffff1673ffffffffffffffffffffffffffffffffffffffff1681526020019081526020016000205490509291505056fe746f6b656e2062616c616e6365206973206c6f776572207468616e207468652076616c756520726571756573746564746f6b656e2062616c616e6365206f7220616c6c6f77616e6365206973206c6f776572207468616e20616d6f756e7420726571756573746564a26469706673582212205a0bd9b2483865c9fd5a664061b216ce90493b4c666c9b1d8c3f029e4b06500c64736f6c63430007050033",
  "immutableReferences": {
    "1349": [
      {
        "length": 32,
        "start": 671
      },
      {
        "length": 32,
        "start": 1667
      },
      {
        "length": 32,
        "start": 3146
      },
      {
        "length": 32,
        "start": 3332
      }
    ],
    "1351": [
      {
        "length": 32,
        "start": 1527
      },
      {
        "length": 32,
        "start": 3368
      }
    ],
    "1353": [
      {
        "length": 32,
        "start": 2152
      },
      {
        "length": 32,
        "start": 2957
      },
      {
        "length": 32,
        "start": 3641
      }
    ],
    "1358": [
      {
        "length": 32,
        "start": 1257
      },
      {
        "length": 32,
        "start": 2571
      }
    ],
    "1363": [
      {
        "length": 32,
        "start": 485
      },
      {
        "length": 32,
        "start": 1470
      },
      {
        "length": 32,
        "start": 1916
      },
      {
        "length": 32,
        "start": 2092
      },
      {
        "length": 32,
        "start": 2775
      },
      {
        "length": 32,
        "start": 3404
      },
      {
        "length": 32,
        "start": 3581
      }
    ]
  },
  "source": "// SPDX-License-Identifier: MIT\npragma solidity >=0.7.5;\npragma abicoder v2;\n\nimport '@uniswap/v3-periphery/contracts/libraries/TransferHelper.sol';\nimport '@uniswap/v3-periphery/contracts/interfaces/ISwapRouter.sol';\nimport '@uniswap/v3-periphery/contracts/interfaces/IPeripheryPayments.sol';\nimport '@openzeppelin/contracts/token/ERC20/ERC20.sol';\n\nimport './PriceOracle.sol';\nimport './IndexToken.sol';\n\n\ncontract BaseIndex {\n\n    /// @notice TokenPrice shows you the returned price of any token in the index\n    struct TokenPrice{\n        address token;\n        string name;\n        uint256 price;\n    }\n\n    /// @notice TokenSwapPool is used in order to add tokens to the index\n    /// @param tokenAddress - address of the token that we want to add\n    /// @param poolFee - fee that will be paid to the pool of buyToken/tokenAddress\n    /// @param priceOracleAddress - address of the priceOracle that will be used to get the price of the token\n    struct TokenSwapPool{\n        address tokenAddress;\n        uint24 poolFee;\n        address priceOracleAddress;\n    }\n\n    /// @notice IndexInitiailParameters is used to give the parameters to the index when it is created\n    struct IndexInitialParameters{\n        string tokenName;\n        uint8 decimalUnits;\n        uint initialAmount;\n        string tokenSymbol;\n        uint minimalFundAddition;\n    }\n\n    uint private totalUsedTokens;     // how many tokens were sent to the users\n    IndexToken public immutable indexToken;     // IERC20 token that is used in the index\n    uint256 public immutable minimalFundAddition;   // minimal amount of money you need to add to the index\n    ISwapRouter private immutable uniswapRouter;    // Uniswap router that we use to swap tokens\n    PriceOracle private immutable priceOracle = new PriceOracle();  // price oracle to get the price of the tokens\n    BaseIndex.TokenSwapPool[] public tokenContracts;    // array of tokens that are used in the index\n    address public immutable buyToken;\n\n    constructor(BaseIndex.IndexInitialParameters memory params, address uniswapAddress, address _buyToken){\n        indexToken = new IndexToken(\n            params.initialAmount, address(this), params.tokenName,\n            params.decimalUnits, params.tokenSymbol\n        );\n        minimalFundAddition = params.minimalFundAddition;\n        uniswapRouter = ISwapRouter(uniswapAddress);\n        buyToken = _buyToken;\n    }\n\n    function test() public {\n        IERC20(buyToken).transferFrom(msg.sender, address(this), 100);\n        IERC20(buyToken).approve(address(uniswapRouter), 100);\n    }\n\n    function a() public view returns(uint){\n        return IERC20(buyToken).allowance(msg.sender, address(this));\n    }\n\n    /// @notice That function is used to buy the index tokens\n    /// @dev I use Chainlink oracles in order to get the amount of the tokens, maybe need to use UniswapV3 Oracle\n    /// @param amountIn uint - amount of money that we want to send to the index\n    /// @return uint - amount of tokens that were bought\n    function addFunds(uint amountIn) public returns(uint){\n        require(amountIn >= minimalFundAddition, \"Not enough funds to add to the index\");\n\n        uint buyAmount = amountIn / tokenContracts.length;\n        uint tokensAmount = amountIn / getIndexPrice();\n\n        require(\n            indexToken.balanceOf(address(this)) >= tokensAmount,\n            \"Not enough tokens in the index, you can only buy it on secondary markets\"\n        );\n        totalUsedTokens += tokensAmount;\n\n        // TransferHelper.safeTransferFrom(buyToken, msg.sender, address(this), amountIn);\n        // TransferHelper.safeApprove(buyToken, address(uniswapRouter), amountIn);\n        IERC20(buyToken).transferFrom(msg.sender, address(this), amountIn);\n        IERC20(buyToken).approve(address(uniswapRouter), amountIn);\n\n        for (uint256 index = 0; index < tokenContracts.length; index++) {\n            TokenSwapPool memory token = tokenContracts[index];\n            uint tokenAmountOut = buyAmount / priceOracle.getPrice(token.priceOracleAddress);\n\n            ISwapRouter.ExactInputSingleParams memory params = ISwapRouter.ExactInputSingleParams({\n                tokenIn: buyToken,\n                tokenOut: token.tokenAddress,\n                fee: token.poolFee,\n                recipient: address(this),\n                deadline: block.timestamp,\n                amountIn: buyAmount,\n                amountOutMinimum: tokenAmountOut,\n                sqrtPriceLimitX96: 0\n            });\n\n            uniswapRouter.exactInputSingle(params);\n        }\n\n        indexToken.transferFrom(address(this), msg.sender, tokensAmount);\n        return tokensAmount;\n    }\n\n    function getIndexPrice() public view returns(uint){\n        uint totalTokensPrice;\n\n        for (uint256 i = 0; i < tokenContracts.length; i++) {\n            TokenSwapPool memory token = tokenContracts[i];\n            totalTokensPrice += priceOracle.getPrice(token.priceOracleAddress);\n        }\n\n        return totalTokensPrice / tokenContracts.length;\n    }\n\n    function getTotalLockedValue() public view returns(uint){\n        return totalUsedTokens * getIndexPrice();\n    }\n\n    function getMyTokensPrice() public view returns(uint){\n        return indexToken.balanceOf(msg.sender) * getIndexPrice();\n    }\n\n}\n",
  "sourcePath": "F:\\JavascriptProjects\\crypto-index\\contracts\\BaseIndex.sol",
  "compiler": {
    "name": "solc",
    "version": "0.7.5+commit.eb77ed08.Linux.g++"
  },
  "schemaVersion": "3.4.3",
  "updatedAt": "2022-03-15T14:59:46.820Z",
  "devdoc": {
    "kind": "dev",
    "methods": {
      "addFunds(uint256)": {
        "details": "I use Chainlink oracles in order to get the amount of the tokens, maybe need to use UniswapV3 Oracle",
        "params": {
          "amountIn": "uint - amount of money that we want to send to the index"
        },
        "returns": {
          "_0": "uint - amount of tokens that were bought"
        }
      }
    },
    "version": 1
  },
  "userdoc": {
    "kind": "user",
    "methods": {
      "addFunds(uint256)": {
        "notice": "That function is used to buy the index tokens"
      }
    },
    "version": 1
  }
}