{
  "contractName": "BaseIndex",
  "abi": [
    {
      "inputs": [],
      "name": "minimalFundAddition",
      "outputs": [
        {
          "internalType": "uint256",
          "name": "",
          "type": "uint256"
        }
      ],
      "stateMutability": "view",
      "type": "function"
    },
    {
      "inputs": [],
      "name": "name",
      "outputs": [
        {
          "internalType": "string",
          "name": "",
          "type": "string"
        }
      ],
      "stateMutability": "view",
      "type": "function"
    },
    {
      "inputs": [],
      "name": "poolFee",
      "outputs": [
        {
          "internalType": "uint24",
          "name": "",
          "type": "uint24"
        }
      ],
      "stateMutability": "view",
      "type": "function"
    },
    {
      "inputs": [
        {
          "internalType": "uint256",
          "name": "",
          "type": "uint256"
        }
      ],
      "name": "priceConsumers",
      "outputs": [
        {
          "internalType": "address",
          "name": "",
          "type": "address"
        }
      ],
      "stateMutability": "view",
      "type": "function"
    },
    {
      "inputs": [],
      "name": "symbol",
      "outputs": [
        {
          "internalType": "string",
          "name": "",
          "type": "string"
        }
      ],
      "stateMutability": "view",
      "type": "function"
    },
    {
      "inputs": [
        {
          "internalType": "uint256",
          "name": "",
          "type": "uint256"
        }
      ],
      "name": "tokenContracts",
      "outputs": [
        {
          "internalType": "address",
          "name": "",
          "type": "address"
        }
      ],
      "stateMutability": "view",
      "type": "function"
    },
    {
      "stateMutability": "payable",
      "type": "receive"
    },
    {
      "inputs": [],
      "name": "getPrice",
      "outputs": [
        {
          "internalType": "uint256",
          "name": "",
          "type": "uint256"
        }
      ],
      "stateMutability": "view",
      "type": "function"
    },
    {
      "inputs": [],
      "name": "addFunds",
      "outputs": [],
      "stateMutability": "payable",
      "type": "function"
    },
    {
      "inputs": [],
      "name": "getTVL",
      "outputs": [
        {
          "internalType": "uint256",
          "name": "",
          "type": "uint256"
        }
      ],
      "stateMutability": "view",
      "type": "function"
    },
    {
      "inputs": [],
      "name": "getMyTokensPrice",
      "outputs": [
        {
          "internalType": "uint256",
          "name": "",
          "type": "uint256"
        }
      ],
      "stateMutability": "view",
      "type": "function"
    },
    {
      "inputs": [],
      "name": "getMyTokens",
      "outputs": [
        {
          "internalType": "uint256",
          "name": "",
          "type": "uint256"
        }
      ],
      "stateMutability": "view",
      "type": "function"
    }
  ],
  "bytecode": "0x608060405234801561001057600080fd5b506106b0806100206000396000f3fe6080604052600436106100a05760003560e01c806367ebf8861161006457806367ebf8861461015d57806395d89b411461017d57806397b3fcaa1461019257806398d5fdca146101a7578063a26759cb146101bc578063f3b755c7146101c6576100a7565b806306fdde03146100ac578063089fe6aa146100d75780631d85b415146100f95780631d9fb3091461011b5780635b3b136a14610148576100a7565b366100a757005b600080fd5b3480156100b857600080fd5b506100c16101db565b6040516100ce9190610561565b60405180910390f35b3480156100e357600080fd5b506100ec610269565b6040516100ce9190610661565b34801561010557600080fd5b5061010e61026f565b6040516100ce9190610671565b34801561012757600080fd5b5061013b61013636600461051d565b610287565b6040516100ce919061054d565b34801561015457600080fd5b5061010e6102b1565b34801561016957600080fd5b5061013b61017836600461051d565b6102c4565b34801561018957600080fd5b506100c16102d4565b34801561019e57600080fd5b5061010e61032f565b3480156101b357600080fd5b5061010e610342565b6101c4610370565b005b3480156101d257600080fd5b5061010e6104d3565b6003805460408051602060026001851615610100026000190190941693909304601f810184900484028201840190925281815292918301828280156102615780601f1061023657610100808354040283529160200191610261565b820191906000526020600020905b81548152906001019060200180831161024457829003601f168201915b505050505081565b610bb881565b6000610279610342565b6102816102b1565b02905090565b6006818154811061029757600080fd5b6000918252602090912001546001600160a01b0316905081565b3360009081526001602052604090205490565b6005818154811061029757600080fd5b6004805460408051602060026001851615610100026000190190941693909304601f810184900484028201840190925281815292918301828280156102615780601f1061023657610100808354040283529160200191610261565b6000610339610342565b60005402905090565b600080805b60055481101561035d5790810190600101610347565b50600554818161036957fe5b0491505090565b600254341161039a5760405162461bcd60e51b8152600401610391906105b4565b60405180910390fd5b6000805434908101825533825260016020819052604083208054820190556006805492939290919081106103ca57fe5b6000918252602090912001546001600160a01b031690506103e96104d9565b50604080516101008101825273c02aaa39b223fe8d0a0e5c4f27ead9083c756cc281526001600160a01b0383166020820152610bb88183015230606082015242608082015260a08101849052600060c0820181905260e0820152905163414bf38960e01b815273e592427a0aece92de3edee1f18e0157c058615649063414bf38990349061047b9085906004016105f8565b6020604051808303818588803b15801561049457600080fd5b505af11580156104a8573d6000803e3d6000fd5b50505050506040513d601f19601f820116820180604052508101906104cd9190610535565b50505050565b60025481565b6040805161010081018252600080825260208201819052918101829052606081018290526080810182905260a0810182905260c0810182905260e081019190915290565b60006020828403121561052e578081fd5b5035919050565b600060208284031215610546578081fd5b5051919050565b6001600160a01b0391909116815260200190565b6000602080835283518082850152825b8181101561058d57858101830151858201604001528201610571565b8181111561059e5783604083870101525b50601f01601f1916929092016040019392505050565b60208082526024908201527f4e6f7420656e6f7567682066756e647320746f2061646420746f2074686520696040820152630dcc8caf60e31b606082015260800190565b81516001600160a01b03908116825260208084015182169083015260408084015162ffffff16908301526060808401518216908301526080808401519083015260a0838101519083015260c0808401519083015260e09283015116918101919091526101000190565b62ffffff91909116815260200190565b9081526020019056fea2646970667358221220e6018cd363ae26f71ba5b852214dc953baa714bffe068a783a1eb6b610095db764736f6c63430007050033",
  "immutableReferences": {},
  "source": "// SPDX-License-Identifier: MIT\npragma solidity >=0.7.5;\npragma abicoder v2;\n\nimport '@uniswap/v3-periphery/contracts/libraries/TransferHelper.sol';\nimport '@uniswap/v3-periphery/contracts/interfaces/ISwapRouter.sol';\nimport '@uniswap/v3-periphery/contracts/interfaces/IPeripheryPayments.sol';\n\n\ncontract BaseIndex {\n\n    uint256 private totalFunds;\n    mapping(address => uint256) private investors;\n    uint256 public minimalFundAddition;\n\n    string public name;\n    string public symbol;\n\n    address[] public priceConsumers;\n    address[] public tokenContracts;\n\n    uint24 public constant poolFee = 3000;\n    address private constant WETH = 0xC02aaA39b223FE8D0A0e5C4F27eAD9083C756Cc2;\n    ISwapRouter private constant uniswapRouter = ISwapRouter(0xE592427A0AEce92De3Edee1F18E0157C05861564);\n\n    function getPrice() public view returns (uint) {\n        uint totalPrice = 0;\n\n        for (uint index = 0; index < priceConsumers.length; index++) {\n            totalPrice += index;\n        }\n\n        return totalPrice / priceConsumers.length;\n    }\n\n    function addFunds() public payable {\n        require(msg.value > minimalFundAddition, \"Not enough funds to add to the index\");\n        totalFunds += msg.value;\n        investors[msg.sender] += 1; //msg.value / getPrice();\n\n        uint _amountIn = msg.value;\n        address token = tokenContracts[1];\n\n        // TransferHelper.safeTransferFrom(WETH, msg.sender, address(this), _amountIn);\n        // TransferHelper.safeApprove(WETH, address(uniswapRouter), _amountIn);\n\n        ISwapRouter.ExactInputSingleParams memory params = ISwapRouter.ExactInputSingleParams({\n            tokenIn: WETH,\n            tokenOut: token,\n            fee: poolFee,\n            recipient: address(this),\n            deadline: block.timestamp,\n            amountIn: _amountIn,\n            amountOutMinimum: 0,    // TODO: that should be a real amount from the oracles\n            sqrtPriceLimitX96: 0\n        });\n\n        uniswapRouter.exactInputSingle{ value: msg.value }(params);\n    }\n\n    receive() payable external {}\n\n    function getTVL() public view returns(uint256){\n        return totalFunds * getPrice();\n    }\n\n    function getMyTokensPrice() public view returns(uint256){\n        return getMyTokens() * getPrice();\n    }\n\n    function getMyTokens() public view returns(uint256){\n        return investors[msg.sender];\n    }\n\n}\n\n\ncontract CorrelationIndex is BaseIndex {\n\n    constructor(){\n        minimalFundAddition = 100;\n        name = \"Correlation Index\";\n        symbol = \"CI\";\n\n        priceConsumers = [\n            // BSC mainnet\n            // 0x0567F2323251f0Aab15c8dFb1967E4e8A7D42aeE,    // BNB\n            // 0x7CA57b0cA6367191c94C8914d7Df09A57655905f,    // MATIC\n            // 0x264990fbd0A4796A3E3d8E37C4d5F87a3aCa5Ebf,    // WBTC\n            // 0xca236E327F629f9Fc2c30A4E95775EbF0B89fac8,    // LINK\n            // 0xF4C5e535756D11994fCBB12Ba8adD0192D9b88be,    // TRX\n            // 0xb57f259E7C24e56a1dA00F66b55A5640d9f9E7e4,    // UNI\n\n            // ETH mainnet\n            0x5f4eC3Df9cbd43714FE2740f5E3616155c5b8419,    // ETH\n            0xF4030086522a5bEEa4988F8cA5B36dbC97BeE88c,    // BTC\n            0x2c1d072e956AFFC0D435Cb7AC38EF18d24d9127c    // LINK\n        ];\n\n        tokenContracts = [\n            // ETH mainnet\n            // 0xB8c77482e45F1F44dE1745F52C74426C631bDD52,     // BNB\n            // 0x7D1AfA7B718fb893dB30A3aBc0Cfc608AaCfeBB0,     // MATIC\n            // 0xE1Be5D3f34e89dE342Ee97E6e90D405884dA6c67,     // TRX\n            // 0x1f9840a85d5aF5bf1D1762F925BDADdC4201F984,     // UNI\n\n            0xC02aaA39b223FE8D0A0e5C4F27eAD9083C756Cc2,    // WETH\n            0x2260FAC5E5542a773Aa44fBCfeDf7C193bc2C599,     // WBTC\n            0x514910771AF9Ca656af840dff83E8264EcF986CA     // LINK\n        ];\n    }\n\n}\n",
  "sourcePath": "F:\\JavascriptProjects\\crypto-index\\contracts\\Index.sol",
  "compiler": {
    "name": "solc",
    "version": "0.7.5+commit.eb77ed08.Linux.g++"
  },
  "schemaVersion": "3.4.3",
  "updatedAt": "2022-03-08T16:00:52.503Z",
  "devdoc": {
    "kind": "dev",
    "methods": {},
    "version": 1
  },
  "userdoc": {
    "kind": "user",
    "methods": {},
    "version": 1
  }
}