{
  "contractName": "BaseIndex",
  "abi": [
    {
      "inputs": [],
      "stateMutability": "nonpayable",
      "type": "constructor"
    },
    {
      "anonymous": false,
      "inputs": [
        {
          "indexed": true,
          "internalType": "address",
          "name": "previousOwner",
          "type": "address"
        },
        {
          "indexed": true,
          "internalType": "address",
          "name": "newOwner",
          "type": "address"
        }
      ],
      "name": "OwnershipTransferred",
      "type": "event"
    },
    {
      "inputs": [],
      "name": "buyTokenAddress",
      "outputs": [
        {
          "internalType": "address",
          "name": "",
          "type": "address"
        }
      ],
      "stateMutability": "view",
      "type": "function"
    },
    {
      "inputs": [],
      "name": "dexRouterAddress",
      "outputs": [
        {
          "internalType": "address",
          "name": "",
          "type": "address"
        }
      ],
      "stateMutability": "view",
      "type": "function"
    },
    {
      "inputs": [],
      "name": "indexToken",
      "outputs": [
        {
          "internalType": "contract IndexToken",
          "name": "",
          "type": "address"
        }
      ],
      "stateMutability": "view",
      "type": "function"
    },
    {
      "inputs": [],
      "name": "isLocked",
      "outputs": [
        {
          "internalType": "bool",
          "name": "",
          "type": "bool"
        }
      ],
      "stateMutability": "view",
      "type": "function"
    },
    {
      "inputs": [],
      "name": "owner",
      "outputs": [
        {
          "internalType": "address",
          "name": "",
          "type": "address"
        }
      ],
      "stateMutability": "view",
      "type": "function"
    },
    {
      "inputs": [],
      "name": "renounceOwnership",
      "outputs": [],
      "stateMutability": "nonpayable",
      "type": "function"
    },
    {
      "inputs": [
        {
          "internalType": "uint256",
          "name": "",
          "type": "uint256"
        }
      ],
      "name": "tokens",
      "outputs": [
        {
          "internalType": "address",
          "name": "tokenAddress",
          "type": "address"
        },
        {
          "internalType": "address",
          "name": "priceOracleAddress",
          "type": "address"
        },
        {
          "internalType": "uint24",
          "name": "poolFee",
          "type": "uint24"
        },
        {
          "internalType": "uint256",
          "name": "priceAdjustment",
          "type": "uint256"
        },
        {
          "internalType": "uint256",
          "name": "withdrawAdjustment",
          "type": "uint256"
        }
      ],
      "stateMutability": "view",
      "type": "function"
    },
    {
      "inputs": [
        {
          "internalType": "address",
          "name": "newOwner",
          "type": "address"
        }
      ],
      "name": "transferOwnership",
      "outputs": [],
      "stateMutability": "nonpayable",
      "type": "function"
    },
    {
      "inputs": [],
      "name": "indexFee",
      "outputs": [
        {
          "internalType": "uint256",
          "name": "",
          "type": "uint256"
        }
      ],
      "stateMutability": "view",
      "type": "function"
    },
    {
      "inputs": [
        {
          "internalType": "uint256",
          "name": "amount",
          "type": "uint256"
        }
      ],
      "name": "addFunds",
      "outputs": [],
      "stateMutability": "nonpayable",
      "type": "function"
    },
    {
      "inputs": [],
      "name": "getIndexPrice",
      "outputs": [
        {
          "internalType": "uint256",
          "name": "",
          "type": "uint256"
        }
      ],
      "stateMutability": "view",
      "type": "function"
    },
    {
      "inputs": [
        {
          "internalType": "uint256",
          "name": "amount",
          "type": "uint256"
        }
      ],
      "name": "withdrawFunds",
      "outputs": [],
      "stateMutability": "nonpayable",
      "type": "function"
    }
  ],
  "bytecode": "0x6101206040523480156200001257600080fd5b50600062000025620006dd60201b60201c565b9050806000806101000a81548173ffffffffffffffffffffffffffffffffffffffff021916908373ffffffffffffffffffffffffffffffffffffffff1602179055508073ffffffffffffffffffffffffffffffffffffffff16600073ffffffffffffffffffffffffffffffffffffffff167f8be0079c531659141344cd1fd0a4f28419497f9722a3daafe3b4186f6b6457e060405160405180910390a35073e592427a0aece92de3edee1f18e0157c0586156473ffffffffffffffffffffffffffffffffffffffff1660808173ffffffffffffffffffffffffffffffffffffffff1660601b8152505073a0b86991c6218b36c1d19d4a2e9eb0ce3606eb4873ffffffffffffffffffffffffffffffffffffffff1660a08173ffffffffffffffffffffffffffffffffffffffff1660601b81525050600560c081815250506103e860e081815250503060126040516200017d90620006e5565b6200018a929190620007a7565b604051809103906000f080158015620001a7573d6000803e3d6000fd5b50600360006101000a81548173ffffffffffffffffffffffffffffffffffffffff021916908373ffffffffffffffffffffffffffffffffffffffff160217905550604051620001f690620006f3565b604051809103906000f08015801562000213573d6000803e3d6000fd5b50600260006101000a81548173ffffffffffffffffffffffffffffffffffffffff021916908373ffffffffffffffffffffffffffffffffffffffff1602179055506000151561010081151560f81b8152505060016040518060a0016040528073c02aaa39b223fe8d0a0e5c4f27ead9083c756cc273ffffffffffffffffffffffffffffffffffffffff168152602001735f4ec3df9cbd43714fe2740f5e3616155c5b841973ffffffffffffffffffffffffffffffffffffffff168152602001610bb862ffffff168152602001600181526020016305f5e100815250908060018154018082558091505060019003906000526020600020906004020160009091909190915060008201518160000160006101000a81548173ffffffffffffffffffffffffffffffffffffffff021916908373ffffffffffffffffffffffffffffffffffffffff16021790555060208201518160010160006101000a81548173ffffffffffffffffffffffffffffffffffffffff021916908373ffffffffffffffffffffffffffffffffffffffff16021790555060408201518160010160146101000a81548162ffffff021916908362ffffff1602179055506060820151816002015560808201518160030155505060016040518060a00160405280732260fac5e5542a773aa44fbcfedf7c193bc2c59973ffffffffffffffffffffffffffffffffffffffff16815260200173f4030086522a5beea4988f8ca5b36dbc97bee88c73ffffffffffffffffffffffffffffffffffffffff168152602001610bb862ffffff1681526020016402540be40081526020016001815250908060018154018082558091505060019003906000526020600020906004020160009091909190915060008201518160000160006101000a81548173ffffffffffffffffffffffffffffffffffffffff021916908373ffffffffffffffffffffffffffffffffffffffff16021790555060208201518160010160006101000a81548173ffffffffffffffffffffffffffffffffffffffff021916908373ffffffffffffffffffffffffffffffffffffffff16021790555060408201518160010160146101000a81548162ffffff021916908362ffffff1602179055506060820151816002015560808201518160030155505060016040518060a0016040528073514910771af9ca656af840dff83e8264ecf986ca73ffffffffffffffffffffffffffffffffffffffff168152602001732c1d072e956affc0d435cb7ac38ef18d24d9127c73ffffffffffffffffffffffffffffffffffffffff168152602001610bb862ffffff168152602001600181526020016305f5e100815250908060018154018082558091505060019003906000526020600020906004020160009091909190915060008201518160000160006101000a81548173ffffffffffffffffffffffffffffffffffffffff021916908373ffffffffffffffffffffffffffffffffffffffff16021790555060208201518160010160006101000a81548173ffffffffffffffffffffffffffffffffffffffff021916908373ffffffffffffffffffffffffffffffffffffffff16021790555060408201518160010160146101000a81548162ffffff021916908362ffffff1602179055506060820151816002015560808201518160030155505062000864565b600033905090565b6112e9806200290c83390190565b61019f8062003bf583390190565b6200070c816200080f565b82525050565b6200071d8162000850565b82525050565b600062000732600783620007fe565b91507f43525950544958000000000000000000000000000000000000000000000000006000830152602082019050919050565b600062000774601283620007fe565b91507f43727970746f20696e64657820746f6b656e00000000000000000000000000006000830152602082019050919050565b6000608082019050620007be600083018562000701565b8181036020830152620007d18162000765565b9050620007e2604083018462000712565b8181036060830152620007f58162000723565b90509392505050565b600082825260208201905092915050565b60006200081c8262000823565b9050919050565b600073ffffffffffffffffffffffffffffffffffffffff82169050919050565b600060ff82169050919050565b60006200085d8262000843565b9050919050565b60805160601c60a05160601c60c05160e0516101005160f81c612023620008e96000398061020f5280610bfa52508061146552508061077552806114445250806102f152806106385280610a405280610c895280610cb55280610cfd5280610f225250806103bb52806105dd5280610cd65280610dc8528061122952506120236000f3fe608060405234801561001057600080fd5b50600436106100a45760003560e01c8063155dd5ee146100a957806317ff37a5146100c55780634f64b2be146100e357806358c0994a1461011757806360ebbf8114610135578063715018a6146101535780638da5cb5b1461015d578063a4e2d6341461017b578063be99970514610199578063e7d015f2146101b5578063e7f67fb1146101d3578063f2fde38b146101f1575b600080fd5b6100c360048036038101906100be9190611a77565b61020d565b005b6100cd610771565b6040516100da9190611ea5565b60405180910390f35b6100fd60048036038101906100f89190611a77565b610799565b60405161010e959493929190611d77565b60405180910390f35b61011f61082e565b60405161012c9190611ea5565b60405180910390f35b61013d610a3e565b60405161014a9190611d33565b60405180910390f35b61015b610a62565b005b610165610bcf565b6040516101729190611d33565b60405180910390f35b610183610bf8565b6040516101909190611df3565b60405180910390f35b6101b360048036038101906101ae9190611a77565b610c1c565b005b6101bd611201565b6040516101ca9190611e0e565b60405180910390f35b6101db611227565b6040516101e89190611d33565b60405180910390f35b61020b60048036038101906102069190611a25565b61124b565b005b7f00000000000000000000000000000000000000000000000000000000000000001561026e576040517f08c379a000000000000000000000000000000000000000000000000000000000815260040161026590611e29565b60405180910390fd5b600181116102b1576040517f08c379a00000000000000000000000000000000000000000000000000000000081526004016102a890611e69565b60405180910390fd5b6000806102bd8361143d565b915091506102ef600360009054906101000a900473ffffffffffffffffffffffffffffffffffffffff163330866114a4565b7f000000000000000000000000000000000000000000000000000000000000000073ffffffffffffffffffffffffffffffffffffffff1663a9059cbb610333610bcf565b846040518363ffffffff1660e01b8152600401610351929190611dca565b602060405180830381600087803b15801561036b57600080fd5b505af115801561037f573d6000803e3d6000fd5b505050506040513d601f19601f820116820180604052508101906103a39190611a4e565b50600060018054905082816103b457fe5b04905060007f0000000000000000000000000000000000000000000000000000000000000000905060005b600180549050811015610769576103f46118cf565b6001828154811061040157fe5b90600052602060002090600402016040518060a00160405290816000820160009054906101000a900473ffffffffffffffffffffffffffffffffffffffff1673ffffffffffffffffffffffffffffffffffffffff1673ffffffffffffffffffffffffffffffffffffffff1681526020016001820160009054906101000a900473ffffffffffffffffffffffffffffffffffffffff1673ffffffffffffffffffffffffffffffffffffffff1673ffffffffffffffffffffffffffffffffffffffff1681526020016001820160149054906101000a900462ffffff1662ffffff1662ffffff16815260200160028201548152602001600382015481525050905060008160800151600260009054906101000a900473ffffffffffffffffffffffffffffffffffffffff1673ffffffffffffffffffffffffffffffffffffffff166341976e0984602001516040518263ffffffff1660e01b81526004016105659190611d33565b60206040518083038186803b15801561057d57600080fd5b505afa158015610591573d6000803e3d6000fd5b505050506040513d601f19601f820116820180604052508101906105b59190611aa0565b816105bc57fe5b04905060008183606001518702816105d057fe5b04905061060283600001517f0000000000000000000000000000000000000000000000000000000000000000836116c5565b61060a61192f565b604051806101000160405280856000015173ffffffffffffffffffffffffffffffffffffffff1681526020017f000000000000000000000000000000000000000000000000000000000000000073ffffffffffffffffffffffffffffffffffffffff168152602001856040015162ffffff1681526020013373ffffffffffffffffffffffffffffffffffffffff168152602001428152602001838152602001838152602001600073ffffffffffffffffffffffffffffffffffffffff1681525090508573ffffffffffffffffffffffffffffffffffffffff1663414bf389826040518263ffffffff1660e01b81526004016107059190611e89565b602060405180830381600087803b15801561071f57600080fd5b505af1158015610733573d6000803e3d6000fd5b505050506040513d601f19601f820116820180604052508101906107579190611aa0565b505050505080806001019150506103df565b505050505050565b60007f0000000000000000000000000000000000000000000000000000000000000000905090565b600181815481106107a957600080fd5b90600052602060002090600402016000915090508060000160009054906101000a900473ffffffffffffffffffffffffffffffffffffffff16908060010160009054906101000a900473ffffffffffffffffffffffffffffffffffffffff16908060010160149054906101000a900462ffffff16908060020154908060030154905085565b60008060005b600180549050811015610a28576108496118cf565b6001828154811061085657fe5b90600052602060002090600402016040518060a00160405290816000820160009054906101000a900473ffffffffffffffffffffffffffffffffffffffff1673ffffffffffffffffffffffffffffffffffffffff1673ffffffffffffffffffffffffffffffffffffffff1681526020016001820160009054906101000a900473ffffffffffffffffffffffffffffffffffffffff1673ffffffffffffffffffffffffffffffffffffffff1673ffffffffffffffffffffffffffffffffffffffff1681526020016001820160149054906101000a900462ffffff1662ffffff1662ffffff16815260200160028201548152602001600382015481525050905060008160800151600260009054906101000a900473ffffffffffffffffffffffffffffffffffffffff1673ffffffffffffffffffffffffffffffffffffffff166341976e0984602001516040518263ffffffff1660e01b81526004016109ba9190611d33565b60206040518083038186803b1580156109d257600080fd5b505afa1580156109e6573d6000803e3d6000fd5b505050506040513d601f19601f82011682018060405250810190610a0a9190611aa0565b81610a1157fe5b049050808401935050508080600101915050610834565b506001805490508181610a3757fe5b0491505090565b7f000000000000000000000000000000000000000000000000000000000000000081565b610a6a6118c7565b73ffffffffffffffffffffffffffffffffffffffff16610a88610bcf565b73ffffffffffffffffffffffffffffffffffffffff1614610b11576040517f08c379a00000000000000000000000000000000000000000000000000000000081526004018080602001828103825260208152602001807f4f776e61626c653a2063616c6c6572206973206e6f7420746865206f776e657281525060200191505060405180910390fd5b600073ffffffffffffffffffffffffffffffffffffffff1660008054906101000a900473ffffffffffffffffffffffffffffffffffffffff1673ffffffffffffffffffffffffffffffffffffffff167f8be0079c531659141344cd1fd0a4f28419497f9722a3daafe3b4186f6b6457e060405160405180910390a360008060006101000a81548173ffffffffffffffffffffffffffffffffffffffff021916908373ffffffffffffffffffffffffffffffffffffffff160217905550565b60008060009054906101000a900473ffffffffffffffffffffffffffffffffffffffff16905090565b7f000000000000000000000000000000000000000000000000000000000000000081565b6000610c2661082e565b9050600080610c348461143d565b915091506000838281610c4357fe5b0411610c84576040517f08c379a0000000000000000000000000000000000000000000000000000000008152600401610c7b90611e49565b60405180910390fd5b610cb07f00000000000000000000000000000000000000000000000000000000000000003330876114a4565b610cfb7f00000000000000000000000000000000000000000000000000000000000000007f0000000000000000000000000000000000000000000000000000000000000000836116c5565b7f000000000000000000000000000000000000000000000000000000000000000073ffffffffffffffffffffffffffffffffffffffff1663a9059cbb610d3f610bcf565b846040518363ffffffff1660e01b8152600401610d5d929190611dca565b602060405180830381600087803b158015610d7757600080fd5b505af1158015610d8b573d6000803e3d6000fd5b505050506040513d601f19601f82011682018060405250810190610daf9190611a4e565b506000806001805490508381610dc157fe5b04905060007f0000000000000000000000000000000000000000000000000000000000000000905060005b60018054905081101561113e57610e016118cf565b60018281548110610e0e57fe5b90600052602060002090600402016040518060a00160405290816000820160009054906101000a900473ffffffffffffffffffffffffffffffffffffffff1673ffffffffffffffffffffffffffffffffffffffff1673ffffffffffffffffffffffffffffffffffffffff1681526020016001820160009054906101000a900473ffffffffffffffffffffffffffffffffffffffff1673ffffffffffffffffffffffffffffffffffffffff1673ffffffffffffffffffffffffffffffffffffffff1681526020016001820160149054906101000a900462ffffff1662ffffff1662ffffff168152602001600282015481526020016003820154815250509050610f1461192f565b6040518061010001604052807f000000000000000000000000000000000000000000000000000000000000000073ffffffffffffffffffffffffffffffffffffffff168152602001836000015173ffffffffffffffffffffffffffffffffffffffff168152602001836040015162ffffff1681526020013073ffffffffffffffffffffffffffffffffffffffff168152602001428152602001868152602001600260009054906101000a900473ffffffffffffffffffffffffffffffffffffffff1673ffffffffffffffffffffffffffffffffffffffff166341976e0985602001516040518263ffffffff1660e01b81526004016110129190611d33565b60206040518083038186803b15801561102a57600080fd5b505afa15801561103e573d6000803e3d6000fd5b505050506040513d601f19601f820116820180604052508101906110629190611aa0565b8460600151888161106f57fe5b048161107757fe5b048152602001600073ffffffffffffffffffffffffffffffffffffffff16815250905060008473ffffffffffffffffffffffffffffffffffffffff1663414bf389836040518263ffffffff1660e01b81526004016110d59190611e89565b602060405180830381600087803b1580156110ef57600080fd5b505af1158015611103573d6000803e3d6000fd5b505050506040513d601f19601f820116820180604052508101906111279190611aa0565b905080870196505050508080600101915050610dec565b50600360009054906101000a900473ffffffffffffffffffffffffffffffffffffffff1673ffffffffffffffffffffffffffffffffffffffff1663a9059cbb3388868161118757fe5b046040518363ffffffff1660e01b81526004016111a5929190611d4e565b602060405180830381600087803b1580156111bf57600080fd5b505af11580156111d3573d6000803e3d6000fd5b505050506040513d601f19601f820116820180604052508101906111f79190611a4e565b5050505050505050565b600360009054906101000a900473ffffffffffffffffffffffffffffffffffffffff1681565b7f000000000000000000000000000000000000000000000000000000000000000081565b6112536118c7565b73ffffffffffffffffffffffffffffffffffffffff16611271610bcf565b73ffffffffffffffffffffffffffffffffffffffff16146112fa576040517f08c379a00000000000000000000000000000000000000000000000000000000081526004018080602001828103825260208152602001807f4f776e61626c653a2063616c6c6572206973206e6f7420746865206f776e657281525060200191505060405180910390fd5b600073ffffffffffffffffffffffffffffffffffffffff168173ffffffffffffffffffffffffffffffffffffffff161415611380576040517f08c379a0000000000000000000000000000000000000000000000000000000008152600401808060200182810382526026815260200180611fc86026913960400191505060405180910390fd5b8073ffffffffffffffffffffffffffffffffffffffff1660008054906101000a900473ffffffffffffffffffffffffffffffffffffffff1673ffffffffffffffffffffffffffffffffffffffff167f8be0079c531659141344cd1fd0a4f28419497f9722a3daafe3b4186f6b6457e060405160405180910390a3806000806101000a81548173ffffffffffffffffffffffffffffffffffffffff021916908373ffffffffffffffffffffffffffffffffffffffff16021790555050565b60008060007f00000000000000000000000000000000000000000000000000000000000000007f0000000000000000000000000000000000000000000000000000000000000000858161148c57fe5b04029050600081850390508181935093505050915091565b600060608573ffffffffffffffffffffffffffffffffffffffff166323b872dd60e01b868686604051602401808473ffffffffffffffffffffffffffffffffffffffff1681526020018373ffffffffffffffffffffffffffffffffffffffff1681526020018281526020019350505050604051602081830303815290604052907bffffffffffffffffffffffffffffffffffffffffffffffffffffffff19166020820180517bffffffffffffffffffffffffffffffffffffffffffffffffffffffff83818316178352505050506040518082805190602001908083835b602083106115a45780518252602082019150602081019050602083039250611581565b6001836020036101000a0380198251168184511680821785525050505050509050019150506000604051808303816000865af19150503d8060008114611606576040519150601f19603f3d011682016040523d82523d6000602084013e61160b565b606091505b509150915081801561164b575060008151148061164a575080806020019051602081101561163857600080fd5b81019080805190602001909291905050505b5b6116bd576040517f08c379a00000000000000000000000000000000000000000000000000000000081526004018080602001828103825260038152602001807f535446000000000000000000000000000000000000000000000000000000000081525060200191505060405180910390fd5b505050505050565b600060608473ffffffffffffffffffffffffffffffffffffffff1663095ea7b360e01b8585604051602401808373ffffffffffffffffffffffffffffffffffffffff16815260200182815260200192505050604051602081830303815290604052907bffffffffffffffffffffffffffffffffffffffffffffffffffffffff19166020820180517bffffffffffffffffffffffffffffffffffffffffffffffffffffffff83818316178352505050506040518082805190602001908083835b602083106117a75780518252602082019150602081019050602083039250611784565b6001836020036101000a0380198251168184511680821785525050505050509050019150506000604051808303816000865af19150503d8060008114611809576040519150601f19603f3d011682016040523d82523d6000602084013e61180e565b606091505b509150915081801561184e575060008151148061184d575080806020019051602081101561183b57600080fd5b81019080805190602001909291905050505b5b6118c0576040517f08c379a00000000000000000000000000000000000000000000000000000000081526004018080602001828103825260028152602001807f534100000000000000000000000000000000000000000000000000000000000081525060200191505060405180910390fd5b5050505050565b600033905090565b6040518060a00160405280600073ffffffffffffffffffffffffffffffffffffffff168152602001600073ffffffffffffffffffffffffffffffffffffffff168152602001600062ffffff16815260200160008152602001600081525090565b604051806101000160405280600073ffffffffffffffffffffffffffffffffffffffff168152602001600073ffffffffffffffffffffffffffffffffffffffff168152602001600062ffffff168152602001600073ffffffffffffffffffffffffffffffffffffffff168152602001600081526020016000815260200160008152602001600073ffffffffffffffffffffffffffffffffffffffff1681525090565b6000813590506119e081611f82565b92915050565b6000815190506119f581611f99565b92915050565b600081359050611a0a81611fb0565b92915050565b600081519050611a1f81611fb0565b92915050565b600060208284031215611a3757600080fd5b6000611a45848285016119d1565b91505092915050565b600060208284031215611a6057600080fd5b6000611a6e848285016119e6565b91505092915050565b600060208284031215611a8957600080fd5b6000611a97848285016119fb565b91505092915050565b600060208284031215611ab257600080fd5b6000611ac084828501611a10565b91505092915050565b611ad281611f28565b82525050565b611ae181611ed1565b82525050565b611af081611ed1565b82525050565b611aff81611ee3565b82525050565b611b0e81611f3a565b82525050565b6000611b21603483611ec0565b91507f496e646578206973206c6f636b65642e20596f752063616e206f6e6c7920747260008301527f6164652074686520696e64657820746f6b656e730000000000000000000000006020830152604082019050919050565b6000611b87602483611ec0565b91507f596f75206d75737420616464206d6f72652066756e647320746f20746865206960008301527f6e646578000000000000000000000000000000000000000000000000000000006020830152604082019050919050565b6000611bed602b83611ec0565b91507f596f75206d757374207769746864726177206d6f72652066756e64732066726f60008301527f6d2074686520696e6465780000000000000000000000000000000000000000006020830152604082019050919050565b61010082016000820151611c5d6000850182611ad8565b506020820151611c706020850182611ad8565b506040820151611c836040850182611cf7565b506060820151611c966060850182611ad8565b506080820151611ca96080850182611d15565b5060a0820151611cbc60a0850182611d15565b5060c0820151611ccf60c0850182611d15565b5060e0820151611ce260e0850182611ce8565b50505050565b611cf181611eef565b82525050565b611d0081611f0f565b82525050565b611d0f81611f0f565b82525050565b611d1e81611f1e565b82525050565b611d2d81611f1e565b82525050565b6000602082019050611d486000830184611ae7565b92915050565b6000604082019050611d636000830185611ac9565b611d706020830184611d24565b9392505050565b600060a082019050611d8c6000830188611ae7565b611d996020830187611ae7565b611da66040830186611d06565b611db36060830185611d24565b611dc06080830184611d24565b9695505050505050565b6000604082019050611ddf6000830185611ae7565b611dec6020830184611d24565b9392505050565b6000602082019050611e086000830184611af6565b92915050565b6000602082019050611e236000830184611b05565b92915050565b60006020820190508181036000830152611e4281611b14565b9050919050565b60006020820190508181036000830152611e6281611b7a565b9050919050565b60006020820190508181036000830152611e8281611be0565b9050919050565b600061010082019050611e9f6000830184611c46565b92915050565b6000602082019050611eba6000830184611d24565b92915050565b600082825260208201905092915050565b6000611edc82611eef565b9050919050565b60008115159050919050565b600073ffffffffffffffffffffffffffffffffffffffff82169050919050565b600062ffffff82169050919050565b6000819050919050565b6000611f3382611f5e565b9050919050565b6000611f4582611f4c565b9050919050565b6000611f5782611eef565b9050919050565b6000611f6982611f70565b9050919050565b6000611f7b82611eef565b9050919050565b611f8b81611ed1565b8114611f9657600080fd5b50565b611fa281611ee3565b8114611fad57600080fd5b50565b611fb981611f1e565b8114611fc457600080fd5b5056fe4f776e61626c653a206e6577206f776e657220697320746865207a65726f2061646472657373a264697066735822122034539990578c19f4bc55f6823f103f6bc6d58e1a3e229d20c3b3d027199d098764736f6c6343000705003360806040523480156200001157600080fd5b50604051620012e9380380620012e983398181016040528101906200003791906200020f565b83600560006101000a81548173ffffffffffffffffffffffffffffffffffffffff021916908373ffffffffffffffffffffffffffffffffffffffff160217905550826002908051906020019062000090929190620000cf565b5081600360006101000a81548160ff021916908360ff1602179055508060049080519060200190620000c4929190620000cf565b5050505050620003c1565b828054600181600116156101000203166002900490600052602060002090601f01602090048101928262000107576000855562000153565b82601f106200012257805160ff191683800117855562000153565b8280016001018555821562000153579182015b828111156200015257825182559160200191906001019062000135565b5b50905062000162919062000166565b5090565b5b808211156200018157600081600090555060010162000167565b5090565b60008151905062000196816200038d565b92915050565b600082601f830112620001ae57600080fd5b8151620001c5620001bf82620002e1565b620002ad565b91508082526020830160208301858383011115620001e257600080fd5b620001ef83828462000355565b50505092915050565b6000815190506200020981620003a7565b92915050565b600080600080608085870312156200022657600080fd5b6000620002368782880162000185565b945050602085015167ffffffffffffffff8111156200025457600080fd5b62000262878288016200019c565b93505060406200027587828801620001f8565b925050606085015167ffffffffffffffff8111156200029357600080fd5b620002a1878288016200019c565b91505092959194509250565b6000604051905081810181811067ffffffffffffffff82111715620002d757620002d66200038b565b5b8060405250919050565b600067ffffffffffffffff821115620002ff57620002fe6200038b565b5b601f19601f8301169050602081019050919050565b6000620003218262000328565b9050919050565b600073ffffffffffffffffffffffffffffffffffffffff82169050919050565b600060ff82169050919050565b60005b838110156200037557808201518184015260208101905062000358565b8381111562000385576000848401525b50505050565bfe5b620003988162000314565b8114620003a457600080fd5b50565b620003b28162000348565b8114620003be57600080fd5b50565b610f1880620003d16000396000f3fe608060405234801561001057600080fd5b50600436106100995760003560e01c806306fdde031461009e578063095ea7b3146100bc5780630cf1fd36146100ec57806323b872dd1461010a57806327e235e31461013a578063313ce5671461016a5780635c6581651461018857806370a08231146101b857806395d89b41146101e8578063a9059cbb14610206578063dd62ed3e14610236575b600080fd5b6100a6610266565b6040516100b39190610d67565b60405180910390f35b6100d660048036038101906100d19190610bb4565b610304565b6040516100e39190610d4c565b60405180910390f35b6100f46103f6565b6040516101019190610d31565b60405180910390f35b610124600480360381019061011f9190610b65565b61041c565b6040516101319190610d4c565b60405180910390f35b610154600480360381019061014f9190610b00565b6106e7565b6040516101619190610dc9565b60405180910390f35b6101726106ff565b60405161017f9190610de4565b60405180910390f35b6101a2600480360381019061019d9190610b29565b610712565b6040516101af9190610dc9565b60405180910390f35b6101d260048036038101906101cd9190610b00565b610737565b6040516101df9190610dc9565b60405180910390f35b6101f061077f565b6040516101fd9190610d67565b60405180910390f35b610220600480360381019061021b9190610bb4565b61081d565b60405161022d9190610d4c565b60405180910390f35b610250600480360381019061024b9190610b29565b610a4f565b60405161025d9190610dc9565b60405180910390f35b60028054600181600116156101000203166002900480601f0160208091040260200160405190810160405280929190818152602001828054600181600116156101000203166002900480156102fc5780601f106102d1576101008083540402835291602001916102fc565b820191906000526020600020905b8154815290600101906020018083116102df57829003601f168201915b505050505081565b600081600160003373ffffffffffffffffffffffffffffffffffffffff1673ffffffffffffffffffffffffffffffffffffffff16815260200190815260200160002060008573ffffffffffffffffffffffffffffffffffffffff1673ffffffffffffffffffffffffffffffffffffffff168152602001908152602001600020819055508273ffffffffffffffffffffffffffffffffffffffff163373ffffffffffffffffffffffffffffffffffffffff167f8c5be1e5ebec7d5bd14f71427d1e84f3dd0314c0f7b2291e5b200ac8c7c3b925846040516103e49190610dc9565b60405180910390a36001905092915050565b600560009054906101000a900473ffffffffffffffffffffffffffffffffffffffff1681565b600080600160008673ffffffffffffffffffffffffffffffffffffffff1673ffffffffffffffffffffffffffffffffffffffff16815260200190815260200160002060003373ffffffffffffffffffffffffffffffffffffffff1673ffffffffffffffffffffffffffffffffffffffff168152602001908152602001600020549050826000808773ffffffffffffffffffffffffffffffffffffffff1673ffffffffffffffffffffffffffffffffffffffff16815260200190815260200160002054101580156104ec5750828110155b61052b576040517f08c379a000000000000000000000000000000000000000000000000000000000815260040161052290610da9565b60405180910390fd5b826000808673ffffffffffffffffffffffffffffffffffffffff1673ffffffffffffffffffffffffffffffffffffffff16815260200190815260200160002060008282540192505081905550826000808773ffffffffffffffffffffffffffffffffffffffff1673ffffffffffffffffffffffffffffffffffffffff168152602001908152602001600020600082825403925050819055507fffffffffffffffffffffffffffffffffffffffffffffffffffffffffffffffff8110156106765782600160008773ffffffffffffffffffffffffffffffffffffffff1673ffffffffffffffffffffffffffffffffffffffff16815260200190815260200160002060003373ffffffffffffffffffffffffffffffffffffffff1673ffffffffffffffffffffffffffffffffffffffff168152602001908152602001600020600082825403925050819055505b8373ffffffffffffffffffffffffffffffffffffffff168573ffffffffffffffffffffffffffffffffffffffff167fddf252ad1be2c89b69c2b068fc378daa952ba7f163c4a11628f55a4df523b3ef856040516106d39190610dc9565b60405180910390a360019150509392505050565b60006020528060005260406000206000915090505481565b600360009054906101000a900460ff1681565b6001602052816000526040600020602052806000526040600020600091509150505481565b60008060008373ffffffffffffffffffffffffffffffffffffffff1673ffffffffffffffffffffffffffffffffffffffff168152602001908152602001600020549050919050565b60048054600181600116156101000203166002900480601f0160208091040260200160405190810160405280929190818152602001828054600181600116156101000203166002900480156108155780601f106107ea57610100808354040283529160200191610815565b820191906000526020600020905b8154815290600101906020018083116107f857829003601f168201915b505050505081565b6000600560009054906101000a900473ffffffffffffffffffffffffffffffffffffffff1673ffffffffffffffffffffffffffffffffffffffff163373ffffffffffffffffffffffffffffffffffffffff1614156108c657816000808573ffffffffffffffffffffffffffffffffffffffff1673ffffffffffffffffffffffffffffffffffffffff16815260200190815260200160002060008282540192505081905550610994565b816000803373ffffffffffffffffffffffffffffffffffffffff1673ffffffffffffffffffffffffffffffffffffffff168152602001908152602001600020541015610947576040517f08c379a000000000000000000000000000000000000000000000000000000000815260040161093e90610d89565b60405180910390fd5b816000803373ffffffffffffffffffffffffffffffffffffffff1673ffffffffffffffffffffffffffffffffffffffff168152602001908152602001600020600082825403925050819055505b816000808573ffffffffffffffffffffffffffffffffffffffff1673ffffffffffffffffffffffffffffffffffffffff168152602001908152602001600020600082825401925050819055508273ffffffffffffffffffffffffffffffffffffffff163373ffffffffffffffffffffffffffffffffffffffff167fddf252ad1be2c89b69c2b068fc378daa952ba7f163c4a11628f55a4df523b3ef84604051610a3d9190610dc9565b60405180910390a36001905092915050565b6000600160008473ffffffffffffffffffffffffffffffffffffffff1673ffffffffffffffffffffffffffffffffffffffff16815260200190815260200160002060008373ffffffffffffffffffffffffffffffffffffffff1673ffffffffffffffffffffffffffffffffffffffff16815260200190815260200160002054905092915050565b600081359050610ae581610eb4565b92915050565b600081359050610afa81610ecb565b92915050565b600060208284031215610b1257600080fd5b6000610b2084828501610ad6565b91505092915050565b60008060408385031215610b3c57600080fd5b6000610b4a85828601610ad6565b9250506020610b5b85828601610ad6565b9150509250929050565b600080600060608486031215610b7a57600080fd5b6000610b8886828701610ad6565b9350506020610b9986828701610ad6565b9250506040610baa86828701610aeb565b9150509250925092565b60008060408385031215610bc757600080fd5b6000610bd585828601610ad6565b9250506020610be685828601610aeb565b9150509250929050565b610bf981610e1b565b82525050565b610c0881610e2d565b82525050565b6000610c1982610dff565b610c238185610e0a565b9350610c33818560208601610e70565b610c3c81610ea3565b840191505092915050565b6000610c54602f83610e0a565b91507f746f6b656e2062616c616e6365206973206c6f776572207468616e207468652060008301527f76616c75652072657175657374656400000000000000000000000000000000006020830152604082019050919050565b6000610cba603983610e0a565b91507f746f6b656e2062616c616e6365206f7220616c6c6f77616e6365206973206c6f60008301527f776572207468616e20616d6f756e7420726571756573746564000000000000006020830152604082019050919050565b610d1c81610e59565b82525050565b610d2b81610e63565b82525050565b6000602082019050610d466000830184610bf0565b92915050565b6000602082019050610d616000830184610bff565b92915050565b60006020820190508181036000830152610d818184610c0e565b905092915050565b60006020820190508181036000830152610da281610c47565b9050919050565b60006020820190508181036000830152610dc281610cad565b9050919050565b6000602082019050610dde6000830184610d13565b92915050565b6000602082019050610df96000830184610d22565b92915050565b600081519050919050565b600082825260208201905092915050565b6000610e2682610e39565b9050919050565b60008115159050919050565b600073ffffffffffffffffffffffffffffffffffffffff82169050919050565b6000819050919050565b600060ff82169050919050565b60005b83811015610e8e578082015181840152602081019050610e73565b83811115610e9d576000848401525b50505050565b6000601f19601f8301169050919050565b610ebd81610e1b565b8114610ec857600080fd5b50565b610ed481610e59565b8114610edf57600080fd5b5056fea2646970667358221220436d3543a213922d11dc974e97144f0938875094033c4fef647452f93c3f5b2764736f6c63430007050033608060405234801561001057600080fd5b5061017f806100206000396000f3fe608060405234801561001057600080fd5b506004361061002b5760003560e01c806341976e0914610030575b600080fd5b6100726004803603602081101561004657600080fd5b81019080803573ffffffffffffffffffffffffffffffffffffffff169060200190929190505050610088565b6040518082815260200191505060405180910390f35b60008082905060008173ffffffffffffffffffffffffffffffffffffffff1663feaf968c6040518163ffffffff1660e01b815260040160a06040518083038186803b1580156100d657600080fd5b505afa1580156100ea573d6000803e3d6000fd5b505050506040513d60a081101561010057600080fd5b810190808051906020019092919080519060200190929190805190602001909291908051906020019092919080519060200190929190505050505050915050809250505091905056fea264697066735822122091a6a7ae0028a114ff99e2284684fef05858df73df43f8e3873d1c9aeb3ae50664736f6c63430007050033",
  "immutableReferences": {
    "1435": [
      {
        "length": 32,
        "start": 955
      },
      {
        "length": 32,
        "start": 1501
      },
      {
        "length": 32,
        "start": 3286
      },
      {
        "length": 32,
        "start": 3528
      },
      {
        "length": 32,
        "start": 4649
      }
    ],
    "1437": [
      {
        "length": 32,
        "start": 753
      },
      {
        "length": 32,
        "start": 1592
      },
      {
        "length": 32,
        "start": 2624
      },
      {
        "length": 32,
        "start": 3209
      },
      {
        "length": 32,
        "start": 3253
      },
      {
        "length": 32,
        "start": 3325
      },
      {
        "length": 32,
        "start": 3874
      }
    ],
    "1457": [
      {
        "length": 32,
        "start": 1909
      },
      {
        "length": 32,
        "start": 5188
      }
    ],
    "1459": [
      {
        "length": 32,
        "start": 5221
      }
    ],
    "1461": [
      {
        "length": 32,
        "start": 527
      },
      {
        "length": 32,
        "start": 3066
      }
    ]
  },
  "source": "// SPDX-License-Identifier: MIT\npragma solidity >=0.7.5;\npragma abicoder v2;\n\nimport \"@openzeppelin/contracts/token/ERC20/ERC20.sol\";\nimport \"@openzeppelin/contracts/access/Ownable.sol\";\nimport \"@uniswap/v3-periphery/contracts/libraries/TransferHelper.sol\";\nimport \"@uniswap/v3-periphery/contracts/interfaces/ISwapRouter.sol\";\nimport \"@uniswap/v3-periphery/contracts/interfaces/IPeripheryPayments.sol\";\n\nimport \"./PriceOracle.sol\";\nimport \"./IndexToken.sol\";\n\n\n\ncontract BaseIndex is Ownable{\n    address public immutable dexRouterAddress;\n    address public immutable buyTokenAddress;\n\n    struct TokenInfo{\n        address tokenAddress;\n        address priceOracleAddress;\n        uint24 poolFee;\n        uint priceAdjustment;\n        uint withdrawAdjustment;\n    }\n\n    TokenInfo[] public tokens;\n    PriceOracle private priceOracle;\n    IndexToken public indexToken;\n    uint private immutable _indexFee;\n    uint private immutable _indexFeeTotal;\n    bool public immutable isLocked;\n\n    constructor(){\n        dexRouterAddress = 0xE592427A0AEce92De3Edee1F18E0157C05861564;     // Uniswap V3 Router\n        buyTokenAddress = 0xA0b86991c6218b36c1d19D4a2e9Eb0cE3606eB48;     // DAI\n        _indexFee = 5;\n        _indexFeeTotal = 1000;\n        indexToken = new IndexToken(address(this), \"Crypto index token\", 18, \"CRYPTIX\");\n        priceOracle = new PriceOracle();\n        isLocked = false;\n\n        tokens.push(TokenInfo({     // WETH\n            tokenAddress: 0xC02aaA39b223FE8D0A0e5C4F27eAD9083C756Cc2,\n            priceOracleAddress: 0x5f4eC3Df9cbd43714FE2740f5E3616155c5b8419,\n            poolFee: 3000,\n            priceAdjustment: 1,\n            withdrawAdjustment: 100000000\n        }));\n        tokens.push(TokenInfo({     // WBTC\n            tokenAddress: 0x2260FAC5E5542a773Aa44fBCfeDf7C193bc2C599,\n            priceOracleAddress: 0xF4030086522a5bEEa4988F8cA5B36dbC97BeE88c,\n            poolFee: 3000,\n            priceAdjustment: 10000000000,\n            withdrawAdjustment: 1\n        }));\n        tokens.push(TokenInfo({    // LINK\n            tokenAddress: 0x514910771AF9Ca656af840dff83E8264EcF986CA,\n            priceOracleAddress: 0x2c1d072e956AFFC0D435Cb7AC38EF18d24d9127c,\n            poolFee: 3000,\n            priceAdjustment: 1,\n            withdrawAdjustment: 100000000\n        }));\n        // tokens.push(TokenInfo({    // UNI\n        //     tokenAddress: 0x1f9840a85d5aF5bf1D1762F925BDADdC4201F984,\n        //     priceOracleAddress: 0x553303d460EE0afB37EdFf9bE42922D8FF63220e,\n        //     poolFee: 3000,\n        //     priceAdjustment: 1,\n        //     withdrawAdjustment: 100000000\n        // }));\n        // tokens.push(TokenInfo({    // BNB\n        //     tokenAddress: 0xB8c77482e45F1F44dE1745F52C74426C631bDD52,\n        //     priceOracleAddress: 0x14e613AC84a31f709eadbdF89C6CC390fDc9540A,\n        //     poolFee: 3000,\n        //     priceAdjustment: 1,\n        //     withdrawAdjustment: 100000000\n        // }));\n        // tokens.push(TokenInfo({    //   SNX\n        //     tokenAddress: 0xC011a73ee8576Fb46F5E1c5751cA3B9Fe0af2a6F,\n        //     priceOracleAddress: 0xDC3EA94CD0AC27d9A86C180091e7f78C683d3699,\n        //     poolFee: 3000,\n        //     priceAdjustment: 1,\n        //     withdrawAdjustment: 100000000\n        // }));\n        // tokens.push(TokenInfo({    //   YFI\n        //     tokenAddress: 0x0bc529c00C6401aEF6D220BE8C6Ea1667F6Ad93e,\n        //     priceOracleAddress: 0xA027702dbb89fbd58938e4324ac03B58d812b0E1,\n        //     poolFee: 3000,\n        //     priceAdjustment: 1,\n        //     withdrawAdjustment: 100000000\n        // }));\n        // tokens.push(TokenInfo({    //   COMP\n        //     tokenAddress: 0xc00e94Cb662C3520282E6f5717214004A7f26888,\n        //     priceOracleAddress: 0xdbd020CAeF83eFd542f4De03e3cF0C28A4428bd5,\n        //     poolFee: 3000,\n        //     priceAdjustment: 1,\n        //     withdrawAdjustment: 100000000\n        // }));\n        // tokens.push(TokenInfo({    //   1INCH\n        //     tokenAddress: 0x111111111117dC0aa78b770fA6A738034120C302,\n        //     priceOracleAddress: 0xc929ad75B72593967DE83E7F7Cda0493458261D9,\n        //     poolFee: 3000,\n        //     priceAdjustment: 1,\n        //     withdrawAdjustment: 100000000\n        // }));\n        // tokens.push(TokenInfo({    //   MKR\n        //     tokenAddress: 0x9f8F72aA9304c8B593d555F12eF6589cC3A579A2,\n        //     priceOracleAddress: 0xec1D1B3b0443256cc3860e24a46F108e699484Aa,\n        //     poolFee: 3000,\n        //     priceAdjustment: 1,\n        //     withdrawAdjustment: 100000000\n        // }));\n    }\n\n    function indexFee() external view returns(uint){\n        return _indexFee;\n    }\n\n    function calculateFee(uint amount) private view returns(uint, uint){\n        uint indexFeeAmount = (amount / _indexFeeTotal) * _indexFee;\n        uint realAmount = amount - indexFeeAmount;\n        return (indexFeeAmount, realAmount);\n    }\n\n    function addFunds(uint amount) external{\n        uint indexPrice = getIndexPrice();\n\n        (uint fee, uint realAmount) = calculateFee(amount);\n        require(realAmount / indexPrice > 0, \"You must add more funds to the index\");\n\n        TransferHelper.safeTransferFrom(buyTokenAddress, msg.sender, address(this), amount);\n        TransferHelper.safeApprove(buyTokenAddress, dexRouterAddress, realAmount);\n        IERC20(buyTokenAddress).transfer(owner(), fee);\n        uint totalTokens;\n\n        uint singleTokenAmount = realAmount / tokens.length;\n        ISwapRouter dexRouter = ISwapRouter(dexRouterAddress);\n\n        for (uint256 index = 0; index < tokens.length; index++) {            \n            TokenInfo memory token = tokens[index];\n\n            ISwapRouter.ExactInputSingleParams memory params = ISwapRouter.ExactInputSingleParams({\n                tokenIn: buyTokenAddress,\n                tokenOut: token.tokenAddress,\n                fee: token.poolFee,\n                recipient: address(this),\n                deadline: block.timestamp,\n                amountIn: singleTokenAmount,\n                amountOutMinimum: (singleTokenAmount / token.priceAdjustment) /\n                    priceOracle.getPrice(token.priceOracleAddress),\n                sqrtPriceLimitX96: 0\n            });\n\n            uint tokenOut = dexRouter.exactInputSingle(params);\n            totalTokens += tokenOut;\n        }\n\n        indexToken.transfer(msg.sender, totalTokens / indexPrice);\n    }\n\n    function getIndexPrice() public view returns(uint){\n        uint indexTotalPrice;\n\n        for(uint i = 0; i < tokens.length; i++){\n            TokenInfo memory token = tokens[i];\n            uint price = priceOracle.getPrice(token.priceOracleAddress) / token.withdrawAdjustment;\n            indexTotalPrice += price;\n        }\n\n        return indexTotalPrice / tokens.length;\n    }\n\n    function withdrawFunds(uint amount) external {\n        if(isLocked){\n            revert(\"Index is locked. You can only trade the index tokens\");\n        }\n\n        require(amount > 1, \"You must withdraw more funds from the index\");\n        (uint fee, uint realAmount) = calculateFee(amount);\n\n        TransferHelper.safeTransferFrom(address(indexToken), msg.sender, address(this), amount);\n        IERC20(buyTokenAddress).transfer(owner(), fee);\n\n        uint singleTokenAmount = realAmount / tokens.length;\n        ISwapRouter dexRouter = ISwapRouter(dexRouterAddress);\n\n        for (uint256 index = 0; index < tokens.length; index++) {\n            TokenInfo memory token = tokens[index];\n\n            uint tokenPrice = priceOracle.getPrice(token.priceOracleAddress) / token.withdrawAdjustment;\n            uint tokenAmount = (singleTokenAmount * token.priceAdjustment) / tokenPrice;\n\n            TransferHelper.safeApprove(token.tokenAddress, dexRouterAddress, tokenAmount);\n            ISwapRouter.ExactInputSingleParams memory params = ISwapRouter.ExactInputSingleParams({\n                tokenIn: token.tokenAddress,\n                tokenOut: buyTokenAddress,\n                fee: token.poolFee,\n                recipient: msg.sender,\n                deadline: block.timestamp,\n                amountIn: tokenAmount,\n                amountOutMinimum: tokenAmount,\n                sqrtPriceLimitX96: 0\n            });\n\n            dexRouter.exactInputSingle(params);\n        }\n\n    }\n\n}\n",
  "sourcePath": "D:\\JavascriptProjects\\crypto-index\\contracts\\BaseIndex.sol",
  "compiler": {
    "name": "solc",
    "version": "0.7.5+commit.eb77ed08.Linux.g++"
  },
  "schemaVersion": "3.4.6",
  "updatedAt": "2022-03-30T09:16:59.179Z",
  "devdoc": {
    "kind": "dev",
    "methods": {
      "owner()": {
        "details": "Returns the address of the current owner."
      },
      "renounceOwnership()": {
        "details": "Leaves the contract without owner. It will not be possible to call `onlyOwner` functions anymore. Can only be called by the current owner. NOTE: Renouncing ownership will leave the contract without an owner, thereby removing any functionality that is only available to the owner."
      },
      "transferOwnership(address)": {
        "details": "Transfers ownership of the contract to a new account (`newOwner`). Can only be called by the current owner."
      }
    },
    "version": 1
  },
  "userdoc": {
    "kind": "user",
    "methods": {},
    "version": 1
  }
}