{
  "contractName": "BaseIndex",
  "abi": [
    {
      "inputs": [],
      "stateMutability": "nonpayable",
      "type": "constructor"
    },
    {
      "anonymous": false,
      "inputs": [
        {
          "indexed": false,
          "internalType": "address",
          "name": "account",
          "type": "address"
        },
        {
          "indexed": false,
          "internalType": "uint256",
          "name": "debtAmount",
          "type": "uint256"
        }
      ],
      "name": "DebtRetrieved",
      "type": "event"
    },
    {
      "anonymous": false,
      "inputs": [
        {
          "indexed": true,
          "internalType": "address",
          "name": "previousOwner",
          "type": "address"
        },
        {
          "indexed": true,
          "internalType": "address",
          "name": "newOwner",
          "type": "address"
        }
      ],
      "name": "OwnershipTransferred",
      "type": "event"
    },
    {
      "anonymous": false,
      "inputs": [
        {
          "indexed": false,
          "internalType": "address",
          "name": "account",
          "type": "address"
        },
        {
          "indexed": false,
          "internalType": "uint256",
          "name": "buyTokenAmount",
          "type": "uint256"
        },
        {
          "indexed": false,
          "internalType": "uint256",
          "name": "indexTokenAmount",
          "type": "uint256"
        }
      ],
      "name": "ProductBought",
      "type": "event"
    },
    {
      "anonymous": false,
      "inputs": [
        {
          "indexed": false,
          "internalType": "address",
          "name": "account",
          "type": "address"
        },
        {
          "indexed": false,
          "internalType": "uint256",
          "name": "buyTokenAmount",
          "type": "uint256"
        },
        {
          "indexed": false,
          "internalType": "uint256",
          "name": "indexTokenAmount",
          "type": "uint256"
        }
      ],
      "name": "ProductSold",
      "type": "event"
    },
    {
      "inputs": [],
      "name": "buyTokenAddress",
      "outputs": [
        {
          "internalType": "address",
          "name": "",
          "type": "address"
        }
      ],
      "stateMutability": "view",
      "type": "function"
    },
    {
      "inputs": [
        {
          "internalType": "uint256",
          "name": "amount",
          "type": "uint256"
        }
      ],
      "name": "calculateFee",
      "outputs": [
        {
          "internalType": "uint256",
          "name": "",
          "type": "uint256"
        },
        {
          "internalType": "uint256",
          "name": "",
          "type": "uint256"
        }
      ],
      "stateMutability": "view",
      "type": "function"
    },
    {
      "inputs": [],
      "name": "getFee",
      "outputs": [
        {
          "internalType": "uint256",
          "name": "",
          "type": "uint256"
        },
        {
          "internalType": "uint256",
          "name": "",
          "type": "uint256"
        }
      ],
      "stateMutability": "view",
      "type": "function"
    },
    {
      "inputs": [],
      "name": "indexToken",
      "outputs": [
        {
          "internalType": "contract IndexToken",
          "name": "",
          "type": "address"
        }
      ],
      "stateMutability": "view",
      "type": "function"
    },
    {
      "inputs": [],
      "name": "isLocked",
      "outputs": [
        {
          "internalType": "bool",
          "name": "",
          "type": "bool"
        }
      ],
      "stateMutability": "view",
      "type": "function"
    },
    {
      "inputs": [],
      "name": "owner",
      "outputs": [
        {
          "internalType": "address",
          "name": "",
          "type": "address"
        }
      ],
      "stateMutability": "view",
      "type": "function"
    },
    {
      "inputs": [],
      "name": "renounceOwnership",
      "outputs": [],
      "stateMutability": "nonpayable",
      "type": "function"
    },
    {
      "inputs": [
        {
          "internalType": "uint256",
          "name": "",
          "type": "uint256"
        }
      ],
      "name": "tokens",
      "outputs": [
        {
          "internalType": "uint8",
          "name": "indexPercentage",
          "type": "uint8"
        },
        {
          "internalType": "uint24",
          "name": "poolFee",
          "type": "uint24"
        },
        {
          "internalType": "address",
          "name": "tokenAddress",
          "type": "address"
        },
        {
          "internalType": "address",
          "name": "priceOracleAddress",
          "type": "address"
        }
      ],
      "stateMutability": "view",
      "type": "function"
    },
    {
      "inputs": [],
      "name": "tokensToBuy",
      "outputs": [
        {
          "internalType": "uint256",
          "name": "",
          "type": "uint256"
        }
      ],
      "stateMutability": "view",
      "type": "function"
    },
    {
      "inputs": [],
      "name": "tokensToSell",
      "outputs": [
        {
          "internalType": "uint256",
          "name": "",
          "type": "uint256"
        }
      ],
      "stateMutability": "view",
      "type": "function"
    },
    {
      "inputs": [],
      "name": "totalAvailableDebt",
      "outputs": [
        {
          "internalType": "uint256",
          "name": "",
          "type": "uint256"
        }
      ],
      "stateMutability": "view",
      "type": "function"
    },
    {
      "inputs": [
        {
          "internalType": "address",
          "name": "newOwner",
          "type": "address"
        }
      ],
      "name": "transferOwnership",
      "outputs": [],
      "stateMutability": "nonpayable",
      "type": "function"
    },
    {
      "inputs": [
        {
          "internalType": "address",
          "name": "",
          "type": "address"
        }
      ],
      "name": "usersDebt",
      "outputs": [
        {
          "internalType": "uint256",
          "name": "",
          "type": "uint256"
        }
      ],
      "stateMutability": "view",
      "type": "function"
    },
    {
      "inputs": [],
      "name": "name",
      "outputs": [
        {
          "internalType": "string",
          "name": "",
          "type": "string"
        }
      ],
      "stateMutability": "pure",
      "type": "function"
    },
    {
      "inputs": [],
      "name": "symbol",
      "outputs": [
        {
          "internalType": "string",
          "name": "",
          "type": "string"
        }
      ],
      "stateMutability": "pure",
      "type": "function"
    },
    {
      "inputs": [],
      "name": "shortDescription",
      "outputs": [
        {
          "internalType": "string",
          "name": "",
          "type": "string"
        }
      ],
      "stateMutability": "pure",
      "type": "function"
    },
    {
      "inputs": [],
      "name": "longDescription",
      "outputs": [
        {
          "internalType": "string",
          "name": "",
          "type": "string"
        }
      ],
      "stateMutability": "pure",
      "type": "function"
    },
    {
      "inputs": [],
      "name": "getComponents",
      "outputs": [
        {
          "components": [
            {
              "internalType": "uint8",
              "name": "indexPercentage",
              "type": "uint8"
            },
            {
              "internalType": "uint24",
              "name": "poolFee",
              "type": "uint24"
            },
            {
              "internalType": "address",
              "name": "tokenAddress",
              "type": "address"
            },
            {
              "internalType": "address",
              "name": "priceOracleAddress",
              "type": "address"
            }
          ],
          "internalType": "struct BaseIndex.TokenInfo[]",
          "name": "",
          "type": "tuple[]"
        }
      ],
      "stateMutability": "view",
      "type": "function"
    },
    {
      "inputs": [
        {
          "internalType": "address",
          "name": "tokenOracleAddress",
          "type": "address"
        }
      ],
      "name": "getTokenPrice",
      "outputs": [
        {
          "internalType": "uint256",
          "name": "",
          "type": "uint256"
        }
      ],
      "stateMutability": "view",
      "type": "function"
    },
    {
      "inputs": [],
      "name": "image",
      "outputs": [
        {
          "internalType": "string",
          "name": "",
          "type": "string"
        }
      ],
      "stateMutability": "pure",
      "type": "function"
    },
    {
      "inputs": [],
      "name": "getTotalLockedValue",
      "outputs": [
        {
          "internalType": "uint256",
          "name": "",
          "type": "uint256"
        }
      ],
      "stateMutability": "view",
      "type": "function"
    },
    {
      "inputs": [
        {
          "internalType": "uint256",
          "name": "amount",
          "type": "uint256"
        }
      ],
      "name": "buy",
      "outputs": [],
      "stateMutability": "nonpayable",
      "type": "function"
    },
    {
      "inputs": [
        {
          "internalType": "uint256",
          "name": "amount",
          "type": "uint256"
        }
      ],
      "name": "retrieveDebt",
      "outputs": [],
      "stateMutability": "nonpayable",
      "type": "function"
    },
    {
      "inputs": [
        {
          "internalType": "uint256",
          "name": "amount",
          "type": "uint256"
        }
      ],
      "name": "sell",
      "outputs": [],
      "stateMutability": "nonpayable",
      "type": "function"
    },
    {
      "inputs": [
        {
          "internalType": "address",
          "name": "tokenAddress",
          "type": "address"
        }
      ],
      "name": "manageTokens",
      "outputs": [],
      "stateMutability": "nonpayable",
      "type": "function"
    },
    {
      "inputs": [],
      "name": "getPrice",
      "outputs": [
        {
          "internalType": "uint256",
          "name": "",
          "type": "uint256"
        }
      ],
      "stateMutability": "view",
      "type": "function"
    }
  ],
  "bytecode": "0x60a06040523480156200001157600080fd5b506000620000246200192e60201b60201c565b9050806000806101000a81548173ffffffffffffffffffffffffffffffffffffffff021916908373ffffffffffffffffffffffffffffffffffffffff1602179055508073ffffffffffffffffffffffffffffffffffffffff16600073ffffffffffffffffffffffffffffffffffffffff167f8be0079c531659141344cd1fd0a4f28419497f9722a3daafe3b4186f6b6457e060405160405180910390a3506001808190555073e592427a0aece92de3edee1f18e0157c0586156473ffffffffffffffffffffffffffffffffffffffff1660808173ffffffffffffffffffffffffffffffffffffffff1660601b81525050736b175474e89094c44da98b954eedeac495271d0f600260016101000a81548173ffffffffffffffffffffffffffffffffffffffff021916908373ffffffffffffffffffffffffffffffffffffffff1602179055506032600260156101000a81548160ff021916908360ff1602179055506103e86003819055506064600481905550306012604051620001a79062001936565b620001b4929190620019f8565b604051809103906000f080158015620001d1573d6000803e3d6000fd5b50600760006101000a81548173ffffffffffffffffffffffffffffffffffffffff021916908373ffffffffffffffffffffffffffffffffffffffff160217905550604051620002209062001944565b604051809103906000f0801580156200023d573d6000803e3d6000fd5b50600660006101000a81548173ffffffffffffffffffffffffffffffffffffffff021916908373ffffffffffffffffffffffffffffffffffffffff1602179055506000600260006101000a81548160ff02191690831515021790555060056040518060800160405280600f60ff168152602001610bb862ffffff16815260200173c02aaa39b223fe8d0a0e5c4f27ead9083c756cc273ffffffffffffffffffffffffffffffffffffffff168152602001735f4ec3df9cbd43714fe2740f5e3616155c5b841973ffffffffffffffffffffffffffffffffffffffff16815250908060018154018082558091505060019003906000526020600020906002020160009091909190915060008201518160000160006101000a81548160ff021916908360ff16021790555060208201518160000160016101000a81548162ffffff021916908362ffffff16021790555060408201518160000160046101000a81548173ffffffffffffffffffffffffffffffffffffffff021916908373ffffffffffffffffffffffffffffffffffffffff16021790555060608201518160010160006101000a81548173ffffffffffffffffffffffffffffffffffffffff021916908373ffffffffffffffffffffffffffffffffffffffff160217905550505060056040518060800160405280600560ff168152602001610bb862ffffff16815260200173514910771af9ca656af840dff83e8264ecf986ca73ffffffffffffffffffffffffffffffffffffffff168152602001732c1d072e956affc0d435cb7ac38ef18d24d9127c73ffffffffffffffffffffffffffffffffffffffff16815250908060018154018082558091505060019003906000526020600020906002020160009091909190915060008201518160000160006101000a81548160ff021916908360ff16021790555060208201518160000160016101000a81548162ffffff021916908362ffffff16021790555060408201518160000160046101000a81548173ffffffffffffffffffffffffffffffffffffffff021916908373ffffffffffffffffffffffffffffffffffffffff16021790555060608201518160010160006101000a81548173ffffffffffffffffffffffffffffffffffffffff021916908373ffffffffffffffffffffffffffffffffffffffff160217905550505060056040518060800160405280601460ff168152602001610bb862ffffff16815260200173418d75f65a02b3d53b2418fb8e1fe493759c760573ffffffffffffffffffffffffffffffffffffffff1681526020017314e613ac84a31f709eadbdf89c6cc390fdc9540a73ffffffffffffffffffffffffffffffffffffffff16815250908060018154018082558091505060019003906000526020600020906002020160009091909190915060008201518160000160006101000a81548160ff021916908360ff16021790555060208201518160000160016101000a81548162ffffff021916908362ffffff16021790555060408201518160000160046101000a81548173ffffffffffffffffffffffffffffffffffffffff021916908373ffffffffffffffffffffffffffffffffffffffff16021790555060608201518160010160006101000a81548173ffffffffffffffffffffffffffffffffffffffff021916908373ffffffffffffffffffffffffffffffffffffffff160217905550505060056040518060800160405280600560ff168152602001610bb862ffffff168152602001731f9840a85d5af5bf1d1762f925bdaddc4201f98473ffffffffffffffffffffffffffffffffffffffff16815260200173553303d460ee0afb37edff9be42922d8ff63220e73ffffffffffffffffffffffffffffffffffffffff16815250908060018154018082558091505060019003906000526020600020906002020160009091909190915060008201518160000160006101000a81548160ff021916908360ff16021790555060208201518160000160016101000a81548162ffffff021916908362ffffff16021790555060408201518160000160046101000a81548173ffffffffffffffffffffffffffffffffffffffff021916908373ffffffffffffffffffffffffffffffffffffffff16021790555060608201518160010160006101000a81548173ffffffffffffffffffffffffffffffffffffffff021916908373ffffffffffffffffffffffffffffffffffffffff160217905550505060056040518060800160405280600560ff168152602001610bb862ffffff16815260200173111111111117dc0aa78b770fa6a738034120c30273ffffffffffffffffffffffffffffffffffffffff16815260200173c929ad75b72593967de83e7f7cda0493458261d973ffffffffffffffffffffffffffffffffffffffff16815250908060018154018082558091505060019003906000526020600020906002020160009091909190915060008201518160000160006101000a81548160ff021916908360ff16021790555060208201518160000160016101000a81548162ffffff021916908362ffffff16021790555060408201518160000160046101000a81548173ffffffffffffffffffffffffffffffffffffffff021916908373ffffffffffffffffffffffffffffffffffffffff16021790555060608201518160010160006101000a81548173ffffffffffffffffffffffffffffffffffffffff021916908373ffffffffffffffffffffffffffffffffffffffff160217905550505060056040518060800160405280600560ff168152602001610bb862ffffff16815260200173c011a73ee8576fb46f5e1c5751ca3b9fe0af2a6f73ffffffffffffffffffffffffffffffffffffffff16815260200173dc3ea94cd0ac27d9a86c180091e7f78c683d369973ffffffffffffffffffffffffffffffffffffffff16815250908060018154018082558091505060019003906000526020600020906002020160009091909190915060008201518160000160006101000a81548160ff021916908360ff16021790555060208201518160000160016101000a81548162ffffff021916908362ffffff16021790555060408201518160000160046101000a81548173ffffffffffffffffffffffffffffffffffffffff021916908373ffffffffffffffffffffffffffffffffffffffff16021790555060608201518160010160006101000a81548173ffffffffffffffffffffffffffffffffffffffff021916908373ffffffffffffffffffffffffffffffffffffffff160217905550505060056040518060800160405280600560ff168152602001610bb862ffffff168152602001730bc529c00c6401aef6d220be8c6ea1667f6ad93e73ffffffffffffffffffffffffffffffffffffffff16815260200173a027702dbb89fbd58938e4324ac03b58d812b0e173ffffffffffffffffffffffffffffffffffffffff16815250908060018154018082558091505060019003906000526020600020906002020160009091909190915060008201518160000160006101000a81548160ff021916908360ff16021790555060208201518160000160016101000a81548162ffffff021916908362ffffff16021790555060408201518160000160046101000a81548173ffffffffffffffffffffffffffffffffffffffff021916908373ffffffffffffffffffffffffffffffffffffffff16021790555060608201518160010160006101000a81548173ffffffffffffffffffffffffffffffffffffffff021916908373ffffffffffffffffffffffffffffffffffffffff160217905550505060056040518060800160405280600560ff168152602001610bb862ffffff16815260200173c00e94cb662c3520282e6f5717214004a7f2688873ffffffffffffffffffffffffffffffffffffffff16815260200173dbd020caef83efd542f4de03e3cf0c28a4428bd573ffffffffffffffffffffffffffffffffffffffff16815250908060018154018082558091505060019003906000526020600020906002020160009091909190915060008201518160000160006101000a81548160ff021916908360ff16021790555060208201518160000160016101000a81548162ffffff021916908362ffffff16021790555060408201518160000160046101000a81548173ffffffffffffffffffffffffffffffffffffffff021916908373ffffffffffffffffffffffffffffffffffffffff16021790555060608201518160010160006101000a81548173ffffffffffffffffffffffffffffffffffffffff021916908373ffffffffffffffffffffffffffffffffffffffff160217905550505060056040518060800160405280600560ff168152602001610bb862ffffff168152602001739f8f72aa9304c8b593d555f12ef6589cc3a579a273ffffffffffffffffffffffffffffffffffffffff16815260200173ec1d1b3b0443256cc3860e24a46f108e699484aa73ffffffffffffffffffffffffffffffffffffffff16815250908060018154018082558091505060019003906000526020600020906002020160009091909190915060008201518160000160006101000a81548160ff021916908360ff16021790555060208201518160000160016101000a81548162ffffff021916908362ffffff16021790555060408201518160000160046101000a81548173ffffffffffffffffffffffffffffffffffffffff021916908373ffffffffffffffffffffffffffffffffffffffff16021790555060608201518160010160006101000a81548173ffffffffffffffffffffffffffffffffffffffff021916908373ffffffffffffffffffffffffffffffffffffffff160217905550505060056040518060800160405280600560ff168152602001610bb862ffffff168152602001736b3595068778dd592e39a122f4f5a5cf09c90fe273ffffffffffffffffffffffffffffffffffffffff16815260200173cc70f09a6cc17553b2e31954cd36e4a2d89501f773ffffffffffffffffffffffffffffffffffffffff16815250908060018154018082558091505060019003906000526020600020906002020160009091909190915060008201518160000160006101000a81548160ff021916908360ff16021790555060208201518160000160016101000a81548162ffffff021916908362ffffff16021790555060408201518160000160046101000a81548173ffffffffffffffffffffffffffffffffffffffff021916908373ffffffffffffffffffffffffffffffffffffffff16021790555060608201518160010160006101000a81548173ffffffffffffffffffffffffffffffffffffffff021916908373ffffffffffffffffffffffffffffffffffffffff160217905550505060056040518060800160405280600560ff168152602001610bb862ffffff16815260200173ae9e8333a1bc59751e566bc43c91b48477eb41df73ffffffffffffffffffffffffffffffffffffffff16815260200173ced2660c6dd1ffd856a5a82c67f3482d88c50b1273ffffffffffffffffffffffffffffffffffffffff16815250908060018154018082558091505060019003906000526020600020906002020160009091909190915060008201518160000160006101000a81548160ff021916908360ff16021790555060208201518160000160016101000a81548162ffffff021916908362ffffff16021790555060408201518160000160046101000a81548173ffffffffffffffffffffffffffffffffffffffff021916908373ffffffffffffffffffffffffffffffffffffffff16021790555060608201518160010160006101000a81548173ffffffffffffffffffffffffffffffffffffffff021916908373ffffffffffffffffffffffffffffffffffffffff160217905550505060056040518060800160405280600560ff168152602001610bb862ffffff16815260200173d533a949740bb3306d119cc777fa900ba034cd5273ffffffffffffffffffffffffffffffffffffffff16815260200173cd627aa160a6fa45eb793d19ef54f5062f20f33f73ffffffffffffffffffffffffffffffffffffffff16815250908060018154018082558091505060019003906000526020600020906002020160009091909190915060008201518160000160006101000a81548160ff021916908360ff16021790555060208201518160000160016101000a81548162ffffff021916908362ffffff16021790555060408201518160000160046101000a81548173ffffffffffffffffffffffffffffffffffffffff021916908373ffffffffffffffffffffffffffffffffffffffff16021790555060608201518160010160006101000a81548173ffffffffffffffffffffffffffffffffffffffff021916908373ffffffffffffffffffffffffffffffffffffffff160217905550505060056040518060800160405280600560ff168152602001610bb862ffffff168152602001736f259637dcd74c767781e37bc6133cd6a68aa16173ffffffffffffffffffffffffffffffffffffffff16815260200173e1329b3f6513912caf589659777b66011aee588073ffffffffffffffffffffffffffffffffffffffff16815250908060018154018082558091505060019003906000526020600020906002020160009091909190915060008201518160000160006101000a81548160ff021916908360ff16021790555060208201518160000160016101000a81548162ffffff021916908362ffffff16021790555060408201518160000160046101000a81548173ffffffffffffffffffffffffffffffffffffffff021916908373ffffffffffffffffffffffffffffffffffffffff16021790555060608201518160010160006101000a81548173ffffffffffffffffffffffffffffffffffffffff021916908373ffffffffffffffffffffffffffffffffffffffff160217905550505060056040518060800160405280600560ff168152602001610bb862ffffff168152602001731f573d6fb3f13d689ff844b4ce37794d79a7ff1c73ffffffffffffffffffffffffffffffffffffffff168152602001731e6cf0d433de4fe882a437abc654f58e1e78548c73ffffffffffffffffffffffffffffffffffffffff16815250908060018154018082558091505060019003906000526020600020906002020160009091909190915060008201518160000160006101000a81548160ff021916908360ff16021790555060208201518160000160016101000a81548162ffffff021916908362ffffff16021790555060408201518160000160046101000a81548173ffffffffffffffffffffffffffffffffffffffff021916908373ffffffffffffffffffffffffffffffffffffffff16021790555060608201518160010160006101000a81548173ffffffffffffffffffffffffffffffffffffffff021916908373ffffffffffffffffffffffffffffffffffffffff160217905550505060056040518060800160405280600560ff168152602001610bb862ffffff16815260200173e28b3b32b6c345a34ff64674606124dd5aceca3073ffffffffffffffffffffffffffffffffffffffff16815260200173ae2ebe3c4d20ce13ce47cbb49b6d7ee631cd816e73ffffffffffffffffffffffffffffffffffffffff16815250908060018154018082558091505060019003906000526020600020906002020160009091909190915060008201518160000160006101000a81548160ff021916908360ff16021790555060208201518160000160016101000a81548162ffffff021916908362ffffff16021790555060408201518160000160046101000a81548173ffffffffffffffffffffffffffffffffffffffff021916908373ffffffffffffffffffffffffffffffffffffffff16021790555060608201518160010160006101000a81548173ffffffffffffffffffffffffffffffffffffffff021916908373ffffffffffffffffffffffffffffffffffffffff160217905550505062001ab5565b600033905090565b6112e98062004d8d83390190565b61025d806200607683390190565b6200195d8162001a60565b82525050565b6200196e8162001aa1565b82525050565b60006200198360078362001a4f565b91507f43525950544958000000000000000000000000000000000000000000000000006000830152602082019050919050565b6000620019c560128362001a4f565b91507f43727970746f20696e64657820746f6b656e00000000000000000000000000006000830152602082019050919050565b600060808201905062001a0f600083018562001952565b818103602083015262001a2281620019b6565b905062001a33604083018462001963565b818103606083015262001a468162001974565b90509392505050565b600082825260208201905092915050565b600062001a6d8262001a74565b9050919050565b600073ffffffffffffffffffffffffffffffffffffffff82169050919050565b600060ff82169050919050565b600062001aae8262001a94565b9050919050565b60805160601c6132b062001add6000398061058e528061075a5280610a2352506132b06000f3fe608060405234801561001057600080fd5b506004361061013e5760003560e01c806306fdde03146101435780631da989601461016157806332ef2d661461017f57806339cb683d1461019b5780633d956691146101b75780634f64b2be146101d557806360ebbf811461020857806366869d9514610226578063715018a6146102445780638da5cb5b1461024e5780638e96347b1461026c57806395d89b411461028a57806398d5fdca146102a857806399a5d747146102c657806399d50d5d146102f7578063a4e2d63414610315578063b759791414610333578063ba25d94414610351578063ced72f871461036f578063d02641a01461038e578063d96a094a146103be578063e4849b32146103da578063e7d015f2146103f6578063ef5bf5c814610414578063f2fde38b14610444578063f3ccaac014610460575b600080fd5b61014b61047e565b6040516101589190612ea6565b60405180910390f35b6101696104bb565b6040516101769190612ea6565b60405180910390f35b61019960048036038101906101949190612946565b6104db565b005b6101b560048036038101906101b09190612998565b610c29565b005b6101bf610f31565b6040516101cc9190612f84565b60405180910390f35b6101ef60048036038101906101ea9190612998565b610f37565b6040516101ff9493929190612fc8565b60405180910390f35b610210610fd3565b60405161021d9190612daa565b60405180910390f35b61022e610ff9565b60405161023b9190612f84565b60405180910390f35b61024c610fff565b005b61025661116c565b6040516102639190612daa565b60405180910390f35b610274611195565b6040516102819190612f84565b60405180910390f35b61029261119b565b60405161029f9190612ea6565b60405180910390f35b6102b06111d8565b6040516102bd9190612f84565b60405180910390f35b6102e060048036038101906102db9190612998565b611426565b6040516102ee929190612f9f565b60405180910390f35b6102ff61148a565b60405161030c9190612e4e565b60405180910390f35b61031d6115d5565b60405161032a9190612e70565b60405180910390f35b61033b6115e8565b6040516103489190612f84565b60405180910390f35b6103596118ae565b6040516103669190612ea6565b60405180910390f35b6103776118ce565b604051610385929190612f9f565b60405180910390f35b6103a860048036038101906103a39190612946565b6118f2565b6040516103b59190612f84565b60405180910390f35b6103d860048036038101906103d39190612998565b6119a6565b005b6103f460048036038101906103ef9190612998565b611d04565b005b6103fe61203e565b60405161040b9190612e8b565b60405180910390f35b61042e60048036038101906104299190612946565b612064565b60405161043b9190612f84565b60405180910390f35b61045e60048036038101906104599190612946565b61207c565b005b61046861226e565b6040516104759190612ea6565b60405180910390f35b60606040518060400160405280600b81526020017f43727970746f496e646578000000000000000000000000000000000000000000815250905090565b606060405180608001604052806049815260200161323260499139905090565b6104e361228e565b73ffffffffffffffffffffffffffffffffffffffff1661050161116c565b73ffffffffffffffffffffffffffffffffffffffff161461058a576040517f08c379a00000000000000000000000000000000000000000000000000000000081526004018080602001828103825260208152602001807f4f776e61626c653a2063616c6c6572206973206e6f7420746865206f776e657281525060200191505060405180910390fd5b60007f000000000000000000000000000000000000000000000000000000000000000090506105b7612896565b6105c083612296565b905060006105f3826000015160ff166105e5606460095461245b90919063ffffffff16565b6124e490919063ffffffff16565b90506000610626836000015160ff16610618606460085461245b90919063ffffffff16565b6124e490919063ffffffff16565b90506000600660009054906101000a900473ffffffffffffffffffffffffffffffffffffffff1673ffffffffffffffffffffffffffffffffffffffff166341976e0985606001516040518263ffffffff1660e01b81526004016106899190612daa565b60206040518083038186803b1580156106a157600080fd5b505afa1580156106b5573d6000803e3d6000fd5b505050506040513d601f19601f820116820180604052508101906106d991906129c1565b90506106f08360095461256a90919063ffffffff16565b60098190555061070b8260085461256a90919063ffffffff16565b60088190555060008311156109f857600260019054906101000a900473ffffffffffffffffffffffffffffffffffffffff1673ffffffffffffffffffffffffffffffffffffffff1663095ea7b37f0000000000000000000000000000000000000000000000000000000000000000856040518363ffffffff1660e01b8152600401610797929190612e25565b602060405180830381600087803b1580156107b157600080fd5b505af11580156107c5573d6000803e3d6000fd5b505050506040513d601f19601f820116820180604052508101906107e9919061296f565b508473ffffffffffffffffffffffffffffffffffffffff1663414bf389604051806101000160405280600260019054906101000a900473ffffffffffffffffffffffffffffffffffffffff1673ffffffffffffffffffffffffffffffffffffffff168152602001876040015173ffffffffffffffffffffffffffffffffffffffff168152602001876020015162ffffff1681526020013073ffffffffffffffffffffffffffffffffffffffff168152602001428152602001868152602001610968600660009054906101000a900473ffffffffffffffffffffffffffffffffffffffff1673ffffffffffffffffffffffffffffffffffffffff166341976e098a606001516040518263ffffffff1660e01b81526004016109099190612daa565b60206040518083038186803b15801561092157600080fd5b505afa158015610935573d6000803e3d6000fd5b505050506040513d601f19601f8201168201806040525081019061095991906129c1565b8861245b90919063ffffffff16565b8152602001600073ffffffffffffffffffffffffffffffffffffffff168152506040518263ffffffff1660e01b81526004016109a49190612f68565b602060405180830381600087803b1580156109be57600080fd5b505af11580156109d2573d6000803e3d6000fd5b505050506040513d601f19601f820116820180604052508101906109f691906129c1565b505b6000821115610c2157836040015173ffffffffffffffffffffffffffffffffffffffff1663095ea7b37f0000000000000000000000000000000000000000000000000000000000000000846040518363ffffffff1660e01b8152600401610a60929190612e25565b602060405180830381600087803b158015610a7a57600080fd5b505af1158015610a8e573d6000803e3d6000fd5b505050506040513d601f19601f82011682018060405250810190610ab2919061296f565b508473ffffffffffffffffffffffffffffffffffffffff1663414bf389604051806101000160405280876040015173ffffffffffffffffffffffffffffffffffffffff168152602001600260019054906101000a900473ffffffffffffffffffffffffffffffffffffffff1673ffffffffffffffffffffffffffffffffffffffff168152602001876020015162ffffff1681526020013073ffffffffffffffffffffffffffffffffffffffff168152602001428152602001858152602001610b8385876124e490919063ffffffff16565b8152602001600073ffffffffffffffffffffffffffffffffffffffff168152506040518263ffffffff1660e01b8152600401610bbf9190612f68565b602060405180830381600087803b158015610bd957600080fd5b505af1158015610bed573d6000803e3d6000fd5b505050506040513d601f19601f82011682018060405250810190610c1191906129c1565b600a600082825401925050819055505b505050505050565b60026001541415610ca2576040517f08c379a000000000000000000000000000000000000000000000000000000000815260040180806020018281038252601f8152602001807f5265656e7472616e637947756172643a207265656e7472616e742063616c6c0081525060200191505060405180910390fd5b6002600181905550600260009054906101000a900460ff1615610cfa576040517f08c379a0000000000000000000000000000000000000000000000000000000008152600401610cf190612f28565b60405180910390fd5b6000610d4e82600b60003373ffffffffffffffffffffffffffffffffffffffff1673ffffffffffffffffffffffffffffffffffffffff1681526020019081526020016000205461256a90919063ffffffff16565b11610d8e576040517f08c379a0000000000000000000000000000000000000000000000000000000008152600401610d8590612ee8565b60405180910390fd5b610de081600b60003373ffffffffffffffffffffffffffffffffffffffff1673ffffffffffffffffffffffffffffffffffffffff1681526020019081526020016000205461256a90919063ffffffff16565b600b60003373ffffffffffffffffffffffffffffffffffffffff1673ffffffffffffffffffffffffffffffffffffffff16815260200190815260200160002081905550610e3881600a5461256a90919063ffffffff16565b600a81905550600260019054906101000a900473ffffffffffffffffffffffffffffffffffffffff1673ffffffffffffffffffffffffffffffffffffffff1663a9059cbb33836040518363ffffffff1660e01b8152600401610e9b929190612dc5565b602060405180830381600087803b158015610eb557600080fd5b505af1158015610ec9573d6000803e3d6000fd5b505050506040513d601f19601f82011682018060405250810190610eed919061296f565b507f152a793a1c0b3c4f63c36f92139ab735e60f27cd005a6dd2fd0154687bfeded13382604051610f1f929190612dc5565b60405180910390a16001808190555050565b60085481565b60058181548110610f4757600080fd5b90600052602060002090600202016000915090508060000160009054906101000a900460ff16908060000160019054906101000a900462ffffff16908060000160049054906101000a900473ffffffffffffffffffffffffffffffffffffffff16908060010160009054906101000a900473ffffffffffffffffffffffffffffffffffffffff16905084565b600260019054906101000a900473ffffffffffffffffffffffffffffffffffffffff1681565b600a5481565b61100761228e565b73ffffffffffffffffffffffffffffffffffffffff1661102561116c565b73ffffffffffffffffffffffffffffffffffffffff16146110ae576040517f08c379a00000000000000000000000000000000000000000000000000000000081526004018080602001828103825260208152602001807f4f776e61626c653a2063616c6c6572206973206e6f7420746865206f776e657281525060200191505060405180910390fd5b600073ffffffffffffffffffffffffffffffffffffffff1660008054906101000a900473ffffffffffffffffffffffffffffffffffffffff1673ffffffffffffffffffffffffffffffffffffffff167f8be0079c531659141344cd1fd0a4f28419497f9722a3daafe3b4186f6b6457e060405160405180910390a360008060006101000a81548173ffffffffffffffffffffffffffffffffffffffff021916908373ffffffffffffffffffffffffffffffffffffffff160217905550565b60008060009054906101000a900473ffffffffffffffffffffffffffffffffffffffff16905090565b60095481565b60606040518060400160405280600781526020017f4352595054495800000000000000000000000000000000000000000000000000815250905090565b60008060005b60058054905081101561140a576111f3612896565b6005828154811061120057fe5b90600052602060002090600202016040518060800160405290816000820160009054906101000a900460ff1660ff1660ff1681526020016000820160019054906101000a900462ffffff1662ffffff1662ffffff1681526020016000820160049054906101000a900473ffffffffffffffffffffffffffffffffffffffff1673ffffffffffffffffffffffffffffffffffffffff1673ffffffffffffffffffffffffffffffffffffffff1681526020016001820160009054906101000a900473ffffffffffffffffffffffffffffffffffffffff1673ffffffffffffffffffffffffffffffffffffffff1673ffffffffffffffffffffffffffffffffffffffff168152505090506000600660009054906101000a900473ffffffffffffffffffffffffffffffffffffffff1673ffffffffffffffffffffffffffffffffffffffff166341976e0983606001516040518263ffffffff1660e01b81526004016113689190612daa565b60206040518083038186803b15801561138057600080fd5b505afa158015611394573d6000803e3d6000fd5b505050506040513d601f19601f820116820180604052508101906113b891906129c1565b90506113f96113ea836000015160ff166113dc60648561245b90919063ffffffff16565b6124e490919063ffffffff16565b856125ed90919063ffffffff16565b9350505080806001019150506111de565b506114206004548261245b90919063ffffffff16565b91505090565b6000806000611464600260159054906101000a900460ff1660ff166114566003548761245b90919063ffffffff16565b6124e490919063ffffffff16565b9050600061147b828661256a90919063ffffffff16565b90508181935093505050915091565b60606005805480602002602001604051908101604052809291908181526020016000905b828210156115cc57838290600052602060002090600202016040518060800160405290816000820160009054906101000a900460ff1660ff1660ff1681526020016000820160019054906101000a900462ffffff1662ffffff1662ffffff1681526020016000820160049054906101000a900473ffffffffffffffffffffffffffffffffffffffff1673ffffffffffffffffffffffffffffffffffffffff1673ffffffffffffffffffffffffffffffffffffffff1681526020016001820160009054906101000a900473ffffffffffffffffffffffffffffffffffffffff1673ffffffffffffffffffffffffffffffffffffffff1673ffffffffffffffffffffffffffffffffffffffff1681525050815260200190600101906114ae565b50505050905090565b600260009054906101000a900460ff1681565b60008060005b6005805490508110156118a657611603612896565b6005828154811061161057fe5b90600052602060002090600202016040518060800160405290816000820160009054906101000a900460ff1660ff1660ff1681526020016000820160019054906101000a900462ffffff1662ffffff1662ffffff1681526020016000820160049054906101000a900473ffffffffffffffffffffffffffffffffffffffff1673ffffffffffffffffffffffffffffffffffffffff1673ffffffffffffffffffffffffffffffffffffffff1681526020016001820160009054906101000a900473ffffffffffffffffffffffffffffffffffffffff1673ffffffffffffffffffffffffffffffffffffffff1673ffffffffffffffffffffffffffffffffffffffff16815250509050600081604001519050611895611886600660009054906101000a900473ffffffffffffffffffffffffffffffffffffffff1673ffffffffffffffffffffffffffffffffffffffff166341976e0985606001516040518263ffffffff1660e01b81526004016117859190612daa565b60206040518083038186803b15801561179d57600080fd5b505afa1580156117b1573d6000803e3d6000fd5b505050506040513d601f19601f820116820180604052508101906117d591906129c1565b611878670de0b6b3a76400008573ffffffffffffffffffffffffffffffffffffffff166370a08231306040518263ffffffff1660e01b815260040161181a9190612daa565b60206040518083038186803b15801561183257600080fd5b505afa158015611846573d6000803e3d6000fd5b505050506040513d601f19601f8201168201806040525081019061186a91906129c1565b6124e490919063ffffffff16565b61245b90919063ffffffff16565b856125ed90919063ffffffff16565b9350505080806001019150506115ee565b508091505090565b606060405180608001604052806049815260200161323260499139905090565b600080600260159054906101000a900460ff166003548160ff169150915091509091565b6000600660009054906101000a900473ffffffffffffffffffffffffffffffffffffffff1673ffffffffffffffffffffffffffffffffffffffff166341976e09836040518263ffffffff1660e01b815260040161194f9190612daa565b60206040518083038186803b15801561196757600080fd5b505afa15801561197b573d6000803e3d6000fd5b505050506040513d601f19601f8201168201806040525081019061199f91906129c1565b9050919050565b60026001541415611a1f576040517f08c379a000000000000000000000000000000000000000000000000000000000815260040180806020018281038252601f8152602001807f5265656e7472616e637947756172643a207265656e7472616e742063616c6c0081525060200191505060405180910390fd5b60026001819055506000611a316111d8565b9050600080611a3f84611426565b915091506001811015611a87576040517f08c379a0000000000000000000000000000000000000000000000000000000008152600401611a7e90612f08565b60405180910390fd5b6000611ab684611aa8670de0b6b3a7640000856124e490919063ffffffff16565b61245b90919063ffffffff16565b905080600960008282540192505081905550600760009054906101000a900473ffffffffffffffffffffffffffffffffffffffff1673ffffffffffffffffffffffffffffffffffffffff1663a9059cbb33846040518363ffffffff1660e01b8152600401611b25929190612dc5565b602060405180830381600087803b158015611b3f57600080fd5b505af1158015611b53573d6000803e3d6000fd5b505050506040513d601f19601f82011682018060405250810190611b77919061296f565b50611bd2600260019054906101000a900473ffffffffffffffffffffffffffffffffffffffff163330611bcd88611bbf670de0b6b3a76400008c6124e490919063ffffffff16565b61245b90919063ffffffff16565b612675565b6000600260019054906101000a900473ffffffffffffffffffffffffffffffffffffffff1690508073ffffffffffffffffffffffffffffffffffffffff1663a9059cbb611c1d61116c565b611c4a88611c3c670de0b6b3a76400008a6124e490919063ffffffff16565b61245b90919063ffffffff16565b6040518363ffffffff1660e01b8152600401611c67929190612e25565b602060405180830381600087803b158015611c8157600080fd5b505af1158015611c95573d6000803e3d6000fd5b505050506040513d601f19601f82011682018060405250810190611cb9919061296f565b507fc032f62758cac23a902e648ab54b6825665b9bc19e7cd0a8ab915cbf3eea4fa0338385604051611ced93929190612dee565b60405180910390a150505050506001808190555050565b60026001541415611d7d576040517f08c379a000000000000000000000000000000000000000000000000000000000815260040180806020018281038252601f8152602001807f5265656e7472616e637947756172643a207265656e7472616e742063616c6c0081525060200191505060405180910390fd5b6002600181905550600260009054906101000a900460ff1615611dd5576040517f08c379a0000000000000000000000000000000000000000000000000000000008152600401611dcc90612f28565b60405180910390fd5b600080611de183611426565b915091506001811015611e29576040517f08c379a0000000000000000000000000000000000000000000000000000000008152600401611e2090612f48565b60405180910390fd5b6000611e5f611e366111d8565b611e51670de0b6b3a7640000856124e490919063ffffffff16565b61245b90919063ffffffff16565b9050611eb381600b60003373ffffffffffffffffffffffffffffffffffffffff1673ffffffffffffffffffffffffffffffffffffffff168152602001908152602001600020546125ed90919063ffffffff16565b600b60003373ffffffffffffffffffffffffffffffffffffffff1673ffffffffffffffffffffffffffffffffffffffff16815260200190815260200160002081905550611f0b600854836125ed90919063ffffffff16565b600881905550611f3f600760009054906101000a900473ffffffffffffffffffffffffffffffffffffffff16333087612675565b600760009054906101000a900473ffffffffffffffffffffffffffffffffffffffff1673ffffffffffffffffffffffffffffffffffffffff1663a9059cbb611f8561116c565b856040518363ffffffff1660e01b8152600401611fa3929190612e25565b602060405180830381600087803b158015611fbd57600080fd5b505af1158015611fd1573d6000803e3d6000fd5b505050506040513d601f19601f82011682018060405250810190611ff5919061296f565b507fc779ed4173ee0a3293a6575326fb4fcb5c81023bbc481cf910100c0fbe836e3333828460405161202993929190612dee565b60405180910390a15050506001808190555050565b600760009054906101000a900473ffffffffffffffffffffffffffffffffffffffff1681565b600b6020528060005260406000206000915090505481565b61208461228e565b73ffffffffffffffffffffffffffffffffffffffff166120a261116c565b73ffffffffffffffffffffffffffffffffffffffff161461212b576040517f08c379a00000000000000000000000000000000000000000000000000000000081526004018080602001828103825260208152602001807f4f776e61626c653a2063616c6c6572206973206e6f7420746865206f776e657281525060200191505060405180910390fd5b600073ffffffffffffffffffffffffffffffffffffffff168173ffffffffffffffffffffffffffffffffffffffff1614156121b1576040517f08c379a00000000000000000000000000000000000000000000000000000000081526004018080602001828103825260268152602001806131aa6026913960400191505060405180910390fd5b8073ffffffffffffffffffffffffffffffffffffffff1660008054906101000a900473ffffffffffffffffffffffffffffffffffffffff1673ffffffffffffffffffffffffffffffffffffffff167f8be0079c531659141344cd1fd0a4f28419497f9722a3daafe3b4186f6b6457e060405160405180910390a3806000806101000a81548173ffffffffffffffffffffffffffffffffffffffff021916908373ffffffffffffffffffffffffffffffffffffffff16021790555050565b60606040518060800160405280604181526020016131d060419139905090565b600033905090565b61229e612896565b60005b60058054905081101561241a576122b6612896565b600582815481106122c357fe5b90600052602060002090600202016040518060800160405290816000820160009054906101000a900460ff1660ff1660ff1681526020016000820160019054906101000a900462ffffff1662ffffff1662ffffff1681526020016000820160049054906101000a900473ffffffffffffffffffffffffffffffffffffffff1673ffffffffffffffffffffffffffffffffffffffff1673ffffffffffffffffffffffffffffffffffffffff1681526020016001820160009054906101000a900473ffffffffffffffffffffffffffffffffffffffff1673ffffffffffffffffffffffffffffffffffffffff1673ffffffffffffffffffffffffffffffffffffffff168152505090508373ffffffffffffffffffffffffffffffffffffffff16816040015173ffffffffffffffffffffffffffffffffffffffff16141561240c578092505050612456565b5080806001019150506122a1565b506040517f08c379a000000000000000000000000000000000000000000000000000000000815260040161244d90612ec8565b60405180910390fd5b919050565b60008082116124d2576040517f08c379a000000000000000000000000000000000000000000000000000000000815260040180806020018281038252601a8152602001807f536166654d6174683a206469766973696f6e206279207a65726f00000000000081525060200191505060405180910390fd5b8183816124db57fe5b04905092915050565b6000808314156124f75760009050612564565b600082840290508284828161250857fe5b041461255f576040517f08c379a00000000000000000000000000000000000000000000000000000000081526004018080602001828103825260218152602001806132116021913960400191505060405180910390fd5b809150505b92915050565b6000828211156125e2576040517f08c379a000000000000000000000000000000000000000000000000000000000815260040180806020018281038252601e8152602001807f536166654d6174683a207375627472616374696f6e206f766572666c6f77000081525060200191505060405180910390fd5b818303905092915050565b60008082840190508381101561266b576040517f08c379a000000000000000000000000000000000000000000000000000000000815260040180806020018281038252601b8152602001807f536166654d6174683a206164646974696f6e206f766572666c6f77000000000081525060200191505060405180910390fd5b8091505092915050565b600060608573ffffffffffffffffffffffffffffffffffffffff166323b872dd60e01b868686604051602401808473ffffffffffffffffffffffffffffffffffffffff1681526020018373ffffffffffffffffffffffffffffffffffffffff1681526020018281526020019350505050604051602081830303815290604052907bffffffffffffffffffffffffffffffffffffffffffffffffffffffff19166020820180517bffffffffffffffffffffffffffffffffffffffffffffffffffffffff83818316178352505050506040518082805190602001908083835b602083106127755780518252602082019150602081019050602083039250612752565b6001836020036101000a0380198251168184511680821785525050505050509050019150506000604051808303816000865af19150503d80600081146127d7576040519150601f19603f3d011682016040523d82523d6000602084013e6127dc565b606091505b509150915081801561281c575060008151148061281b575080806020019051602081101561280957600080fd5b81019080805190602001909291905050505b5b61288e576040517f08c379a00000000000000000000000000000000000000000000000000000000081526004018080602001828103825260038152602001807f535446000000000000000000000000000000000000000000000000000000000081525060200191505060405180910390fd5b505050505050565b6040518060800160405280600060ff168152602001600062ffffff168152602001600073ffffffffffffffffffffffffffffffffffffffff168152602001600073ffffffffffffffffffffffffffffffffffffffff1681525090565b60008135905061290181613164565b92915050565b6000815190506129168161317b565b92915050565b60008135905061292b81613192565b92915050565b60008151905061294081613192565b92915050565b60006020828403121561295857600080fd5b6000612966848285016128f2565b91505092915050565b60006020828403121561298157600080fd5b600061298f84828501612907565b91505092915050565b6000602082840312156129aa57600080fd5b60006129b88482850161291c565b91505092915050565b6000602082840312156129d357600080fd5b60006129e184828501612931565b91505092915050565b60006129f68383612cec565b60808301905092915050565b612a0b816130c6565b82525050565b612a1a81613062565b82525050565b612a2981613062565b82525050565b6000612a3a8261301d565b612a448185613040565b9350612a4f8361300d565b8060005b83811015612a80578151612a6788826129ea565b9750612a7283613033565b925050600181019050612a53565b5085935050505092915050565b612a9681613074565b82525050565b612aa5816130d8565b82525050565b6000612ab682613028565b612ac08185613051565b9350612ad0818560208601613120565b612ad981613153565b840191505092915050565b6000612af1600d83613051565b91507f4e6f207375636820746f6b656e000000000000000000000000000000000000006000830152602082019050919050565b6000612b31602e83613051565b91507f4e6f7420656e6f75676820646562742c207472792073656c6c696e6720796f7560008301527f7220746f6b656e732066697273740000000000000000000000000000000000006020830152604082019050919050565b6000612b97601683613051565b91507f4e6f7420656e6f75676820746f6b656e732073656e74000000000000000000006000830152602082019050919050565b6000612bd7601183613051565b91507f50726f64756374206973206c6f636b65640000000000000000000000000000006000830152602082019050919050565b6000612c17601983613051565b91507f596f75206d7573742073656c6c206d6f726520746f6b656e73000000000000006000830152602082019050919050565b61010082016000820151612c616000850182612a11565b506020820151612c746020850182612a11565b506040820151612c876040850182612d50565b506060820151612c9a6060850182612a11565b506080820151612cad6080850182612d6e565b5060a0820151612cc060a0850182612d6e565b5060c0820151612cd360c0850182612d6e565b5060e0820151612ce660e0850182612d41565b50505050565b608082016000820151612d026000850182612d8c565b506020820151612d156020850182612d50565b506040820151612d286040850182612a11565b506060820151612d3b6060850182612a11565b50505050565b612d4a81613080565b82525050565b612d59816130a0565b82525050565b612d68816130a0565b82525050565b612d77816130af565b82525050565b612d86816130af565b82525050565b612d95816130b9565b82525050565b612da4816130b9565b82525050565b6000602082019050612dbf6000830184612a20565b92915050565b6000604082019050612dda6000830185612a02565b612de76020830184612d7d565b9392505050565b6000606082019050612e036000830186612a02565b612e106020830185612d7d565b612e1d6040830184612d7d565b949350505050565b6000604082019050612e3a6000830185612a20565b612e476020830184612d7d565b9392505050565b60006020820190508181036000830152612e688184612a2f565b905092915050565b6000602082019050612e856000830184612a8d565b92915050565b6000602082019050612ea06000830184612a9c565b92915050565b60006020820190508181036000830152612ec08184612aab565b905092915050565b60006020820190508181036000830152612ee181612ae4565b9050919050565b60006020820190508181036000830152612f0181612b24565b9050919050565b60006020820190508181036000830152612f2181612b8a565b9050919050565b60006020820190508181036000830152612f4181612bca565b9050919050565b60006020820190508181036000830152612f6181612c0a565b9050919050565b600061010082019050612f7e6000830184612c4a565b92915050565b6000602082019050612f996000830184612d7d565b92915050565b6000604082019050612fb46000830185612d7d565b612fc16020830184612d7d565b9392505050565b6000608082019050612fdd6000830187612d9b565b612fea6020830186612d5f565b612ff76040830185612a20565b6130046060830184612a20565b95945050505050565b6000819050602082019050919050565b600081519050919050565b600081519050919050565b6000602082019050919050565b600082825260208201905092915050565b600082825260208201905092915050565b600061306d82613080565b9050919050565b60008115159050919050565b600073ffffffffffffffffffffffffffffffffffffffff82169050919050565b600062ffffff82169050919050565b6000819050919050565b600060ff82169050919050565b60006130d1826130fc565b9050919050565b60006130e3826130ea565b9050919050565b60006130f582613080565b9050919050565b60006131078261310e565b9050919050565b600061311982613080565b9050919050565b60005b8381101561313e578082015181840152602081019050613123565b8381111561314d576000848401525b50505050565b6000601f19601f8301169050919050565b61316d81613062565b811461317857600080fd5b50565b61318481613074565b811461318f57600080fd5b50565b61319b816130af565b81146131a657600080fd5b5056fe4f776e61626c653a206e6577206f776e657220697320746865207a65726f206164647265737368747470733a2f2f63727970746f6c6f676f732e63632f6c6f676f732f706f6c796d6174682d6e6574776f726b2d706f6c792d6c6f676f2e706e673f763d303232536166654d6174683a206d756c7469706c69636174696f6e206f766572666c6f77436f7272656c6174696f6e20696e646578206973206120746f6f6c207468617420616c6c6f777320796f7520746f2064697665727369667920796f757220696e766573746d656e7473a26469706673582212205b07feac28116b33d2a6e0dd1ad041a0ed8f5710881a090926d94bf98075f00464736f6c6343000705003360806040523480156200001157600080fd5b50604051620012e9380380620012e983398181016040528101906200003791906200020f565b83600560006101000a81548173ffffffffffffffffffffffffffffffffffffffff021916908373ffffffffffffffffffffffffffffffffffffffff160217905550826002908051906020019062000090929190620000cf565b5081600360006101000a81548160ff021916908360ff1602179055508060049080519060200190620000c4929190620000cf565b5050505050620003c1565b828054600181600116156101000203166002900490600052602060002090601f01602090048101928262000107576000855562000153565b82601f106200012257805160ff191683800117855562000153565b8280016001018555821562000153579182015b828111156200015257825182559160200191906001019062000135565b5b50905062000162919062000166565b5090565b5b808211156200018157600081600090555060010162000167565b5090565b60008151905062000196816200038d565b92915050565b600082601f830112620001ae57600080fd5b8151620001c5620001bf82620002e1565b620002ad565b91508082526020830160208301858383011115620001e257600080fd5b620001ef83828462000355565b50505092915050565b6000815190506200020981620003a7565b92915050565b600080600080608085870312156200022657600080fd5b6000620002368782880162000185565b945050602085015167ffffffffffffffff8111156200025457600080fd5b62000262878288016200019c565b93505060406200027587828801620001f8565b925050606085015167ffffffffffffffff8111156200029357600080fd5b620002a1878288016200019c565b91505092959194509250565b6000604051905081810181811067ffffffffffffffff82111715620002d757620002d66200038b565b5b8060405250919050565b600067ffffffffffffffff821115620002ff57620002fe6200038b565b5b601f19601f8301169050602081019050919050565b6000620003218262000328565b9050919050565b600073ffffffffffffffffffffffffffffffffffffffff82169050919050565b600060ff82169050919050565b60005b838110156200037557808201518184015260208101905062000358565b8381111562000385576000848401525b50505050565bfe5b620003988162000314565b8114620003a457600080fd5b50565b620003b28162000348565b8114620003be57600080fd5b50565b610f1880620003d16000396000f3fe608060405234801561001057600080fd5b50600436106100995760003560e01c806306fdde031461009e578063095ea7b3146100bc5780630cf1fd36146100ec57806323b872dd1461010a57806327e235e31461013a578063313ce5671461016a5780635c6581651461018857806370a08231146101b857806395d89b41146101e8578063a9059cbb14610206578063dd62ed3e14610236575b600080fd5b6100a6610266565b6040516100b39190610d67565b60405180910390f35b6100d660048036038101906100d19190610bb4565b610304565b6040516100e39190610d4c565b60405180910390f35b6100f46103f6565b6040516101019190610d31565b60405180910390f35b610124600480360381019061011f9190610b65565b61041c565b6040516101319190610d4c565b60405180910390f35b610154600480360381019061014f9190610b00565b6106e7565b6040516101619190610dc9565b60405180910390f35b6101726106ff565b60405161017f9190610de4565b60405180910390f35b6101a2600480360381019061019d9190610b29565b610712565b6040516101af9190610dc9565b60405180910390f35b6101d260048036038101906101cd9190610b00565b610737565b6040516101df9190610dc9565b60405180910390f35b6101f061077f565b6040516101fd9190610d67565b60405180910390f35b610220600480360381019061021b9190610bb4565b61081d565b60405161022d9190610d4c565b60405180910390f35b610250600480360381019061024b9190610b29565b610a4f565b60405161025d9190610dc9565b60405180910390f35b60028054600181600116156101000203166002900480601f0160208091040260200160405190810160405280929190818152602001828054600181600116156101000203166002900480156102fc5780601f106102d1576101008083540402835291602001916102fc565b820191906000526020600020905b8154815290600101906020018083116102df57829003601f168201915b505050505081565b600081600160003373ffffffffffffffffffffffffffffffffffffffff1673ffffffffffffffffffffffffffffffffffffffff16815260200190815260200160002060008573ffffffffffffffffffffffffffffffffffffffff1673ffffffffffffffffffffffffffffffffffffffff168152602001908152602001600020819055508273ffffffffffffffffffffffffffffffffffffffff163373ffffffffffffffffffffffffffffffffffffffff167f8c5be1e5ebec7d5bd14f71427d1e84f3dd0314c0f7b2291e5b200ac8c7c3b925846040516103e49190610dc9565b60405180910390a36001905092915050565b600560009054906101000a900473ffffffffffffffffffffffffffffffffffffffff1681565b600080600160008673ffffffffffffffffffffffffffffffffffffffff1673ffffffffffffffffffffffffffffffffffffffff16815260200190815260200160002060003373ffffffffffffffffffffffffffffffffffffffff1673ffffffffffffffffffffffffffffffffffffffff168152602001908152602001600020549050826000808773ffffffffffffffffffffffffffffffffffffffff1673ffffffffffffffffffffffffffffffffffffffff16815260200190815260200160002054101580156104ec5750828110155b61052b576040517f08c379a000000000000000000000000000000000000000000000000000000000815260040161052290610da9565b60405180910390fd5b826000808673ffffffffffffffffffffffffffffffffffffffff1673ffffffffffffffffffffffffffffffffffffffff16815260200190815260200160002060008282540192505081905550826000808773ffffffffffffffffffffffffffffffffffffffff1673ffffffffffffffffffffffffffffffffffffffff168152602001908152602001600020600082825403925050819055507fffffffffffffffffffffffffffffffffffffffffffffffffffffffffffffffff8110156106765782600160008773ffffffffffffffffffffffffffffffffffffffff1673ffffffffffffffffffffffffffffffffffffffff16815260200190815260200160002060003373ffffffffffffffffffffffffffffffffffffffff1673ffffffffffffffffffffffffffffffffffffffff168152602001908152602001600020600082825403925050819055505b8373ffffffffffffffffffffffffffffffffffffffff168573ffffffffffffffffffffffffffffffffffffffff167fddf252ad1be2c89b69c2b068fc378daa952ba7f163c4a11628f55a4df523b3ef856040516106d39190610dc9565b60405180910390a360019150509392505050565b60006020528060005260406000206000915090505481565b600360009054906101000a900460ff1681565b6001602052816000526040600020602052806000526040600020600091509150505481565b60008060008373ffffffffffffffffffffffffffffffffffffffff1673ffffffffffffffffffffffffffffffffffffffff168152602001908152602001600020549050919050565b60048054600181600116156101000203166002900480601f0160208091040260200160405190810160405280929190818152602001828054600181600116156101000203166002900480156108155780601f106107ea57610100808354040283529160200191610815565b820191906000526020600020905b8154815290600101906020018083116107f857829003601f168201915b505050505081565b6000600560009054906101000a900473ffffffffffffffffffffffffffffffffffffffff1673ffffffffffffffffffffffffffffffffffffffff163373ffffffffffffffffffffffffffffffffffffffff1614156108c657816000808573ffffffffffffffffffffffffffffffffffffffff1673ffffffffffffffffffffffffffffffffffffffff168152602001908152602001600020600082825401925050819055506109e0565b816000803373ffffffffffffffffffffffffffffffffffffffff1673ffffffffffffffffffffffffffffffffffffffff168152602001908152602001600020541015610947576040517f08c379a000000000000000000000000000000000000000000000000000000000815260040161093e90610d89565b60405180910390fd5b816000803373ffffffffffffffffffffffffffffffffffffffff1673ffffffffffffffffffffffffffffffffffffffff16815260200190815260200160002060008282540392505081905550816000808573ffffffffffffffffffffffffffffffffffffffff1673ffffffffffffffffffffffffffffffffffffffff168152602001908152602001600020600082825401925050819055505b8273ffffffffffffffffffffffffffffffffffffffff163373ffffffffffffffffffffffffffffffffffffffff167fddf252ad1be2c89b69c2b068fc378daa952ba7f163c4a11628f55a4df523b3ef84604051610a3d9190610dc9565b60405180910390a36001905092915050565b6000600160008473ffffffffffffffffffffffffffffffffffffffff1673ffffffffffffffffffffffffffffffffffffffff16815260200190815260200160002060008373ffffffffffffffffffffffffffffffffffffffff1673ffffffffffffffffffffffffffffffffffffffff16815260200190815260200160002054905092915050565b600081359050610ae581610eb4565b92915050565b600081359050610afa81610ecb565b92915050565b600060208284031215610b1257600080fd5b6000610b2084828501610ad6565b91505092915050565b60008060408385031215610b3c57600080fd5b6000610b4a85828601610ad6565b9250506020610b5b85828601610ad6565b9150509250929050565b600080600060608486031215610b7a57600080fd5b6000610b8886828701610ad6565b9350506020610b9986828701610ad6565b9250506040610baa86828701610aeb565b9150509250925092565b60008060408385031215610bc757600080fd5b6000610bd585828601610ad6565b9250506020610be685828601610aeb565b9150509250929050565b610bf981610e1b565b82525050565b610c0881610e2d565b82525050565b6000610c1982610dff565b610c238185610e0a565b9350610c33818560208601610e70565b610c3c81610ea3565b840191505092915050565b6000610c54602f83610e0a565b91507f746f6b656e2062616c616e6365206973206c6f776572207468616e207468652060008301527f76616c75652072657175657374656400000000000000000000000000000000006020830152604082019050919050565b6000610cba603983610e0a565b91507f746f6b656e2062616c616e6365206f7220616c6c6f77616e6365206973206c6f60008301527f776572207468616e20616d6f756e7420726571756573746564000000000000006020830152604082019050919050565b610d1c81610e59565b82525050565b610d2b81610e63565b82525050565b6000602082019050610d466000830184610bf0565b92915050565b6000602082019050610d616000830184610bff565b92915050565b60006020820190508181036000830152610d818184610c0e565b905092915050565b60006020820190508181036000830152610da281610c47565b9050919050565b60006020820190508181036000830152610dc281610cad565b9050919050565b6000602082019050610dde6000830184610d13565b92915050565b6000602082019050610df96000830184610d22565b92915050565b600081519050919050565b600082825260208201905092915050565b6000610e2682610e39565b9050919050565b60008115159050919050565b600073ffffffffffffffffffffffffffffffffffffffff82169050919050565b6000819050919050565b600060ff82169050919050565b60005b83811015610e8e578082015181840152602081019050610e73565b83811115610e9d576000848401525b50505050565b6000601f19601f8301169050919050565b610ebd81610e1b565b8114610ec857600080fd5b50565b610ed481610e59565b8114610edf57600080fd5b5056fea2646970667358221220261c7001b859f4cf8eed0764cb1d10c651594e8c83b8d6b3d68095d79987e69c64736f6c63430007050033608060405234801561001057600080fd5b5061023d806100206000396000f3fe608060405234801561001057600080fd5b506004361061002b5760003560e01c806341976e0914610030575b600080fd5b6100726004803603602081101561004657600080fd5b81019080803573ffffffffffffffffffffffffffffffffffffffff169060200190929190505050610088565b6040518082815260200191505060405180910390f35b60008082905060008173ffffffffffffffffffffffffffffffffffffffff1663feaf968c6040518163ffffffff1660e01b815260040160a06040518083038186803b1580156100d657600080fd5b505afa1580156100ea573d6000803e3d6000fd5b505050506040513d60a081101561010057600080fd5b8101908080519060200190929190805190602001909291908051906020019092919080519060200190929190805190602001909291905050505050509150506101576402540be4008261016090919063ffffffff16565b92505050919050565b60008083141561017357600090506101e0565b600082840290508284828161018457fe5b04146101db576040517f08c379a00000000000000000000000000000000000000000000000000000000081526004018080602001828103825260218152602001806101e76021913960400191505060405180910390fd5b809150505b9291505056fe536166654d6174683a206d756c7469706c69636174696f6e206f766572666c6f77a2646970667358221220f59fc895cb2c7c489e50fc09f53dd2797feeebd798cb2025b57defd64d34548064736f6c63430007050033",
  "immutableReferences": {
    "1528": [
      {
        "length": 32,
        "start": 1422
      },
      {
        "length": 32,
        "start": 1882
      },
      {
        "length": 32,
        "start": 2595
      }
    ]
  },
  "source": "// SPDX-License-Identifier: MIT\npragma solidity >=0.7.5;\npragma abicoder v2;\n\nimport \"@openzeppelin/contracts/token/ERC20/ERC20.sol\";\nimport \"@openzeppelin/contracts/math/SafeMath.sol\";\nimport \"@uniswap/v3-periphery/contracts/libraries/TransferHelper.sol\";\nimport \"@uniswap/v3-periphery/contracts/interfaces/ISwapRouter.sol\";\nimport \"@uniswap/v3-periphery/contracts/interfaces/IPeripheryPayments.sol\";\n\nimport \"./PriceOracle.sol\";\nimport \"./IndexToken.sol\";\nimport \"../management/BaseProduct.sol\";\n\ncontract BaseIndex is Product {\n    using SafeMath for uint256;\n\n    struct TokenInfo {\n        uint8 indexPercentage;\n        uint24 poolFee;\n        address tokenAddress;\n        address priceOracleAddress;\n    }\n\n    TokenInfo[] public tokens;\n    PriceOracle private priceOracle;\n    IndexToken public indexToken;\n    address private immutable dexRouterAddress;\n\n    uint public tokensToSell;    // index tokens that will be sold\n    uint public tokensToBuy;    // usd tokens that will be bought\n    uint public totalAvailableDebt;    // total debt for the index\n    mapping(address => uint) public usersDebt;    // debt to each user\n\n    event DebtRetrieved(address account, uint debtAmount);\n\n    function name() external pure override returns (string memory) {\n        return \"CryptoIndex\";\n    }\n\n    function symbol() external pure override returns (string memory) {\n        return \"CRYPTIX\";\n    }\n\n    function shortDescription() external pure override returns (string memory) {\n        return \"Correlation index is a tool that allows you to diversify your investments\";\n    }\n\n    function longDescription() external pure override returns (string memory) {\n        return \"Correlation index is a tool that allows you to diversify your investments\";\n    }\n\n    function getComponents() external view returns (TokenInfo[] memory) {\n        return tokens;\n    }\n\n    function getTokenPrice(address tokenOracleAddress) external view returns (uint256) {\n        return priceOracle.getPrice(tokenOracleAddress);\n    }\n\n    function image() external pure override returns (string memory) {\n        return \"https://cryptologos.cc/logos/polymath-network-poly-logo.png?v=022\";\n    }\n\n    function getTotalLockedValue() external view override returns (uint256) {\n        uint totalValue;\n\n        for (uint i = 0; i < tokens.length; i++) {\n            TokenInfo memory tokenInfo = tokens[i];\n            IERC20 token = IERC20(tokenInfo.tokenAddress);\n            totalValue = totalValue.add(token.balanceOf(address(this)).mul(1 ether).div(\n                priceOracle.getPrice(tokenInfo.priceOracleAddress)));\n        }\n\n        return totalValue;\n    }\n\n    constructor() {\n        dexRouterAddress = 0xE592427A0AEce92De3Edee1F18E0157C05861564; // Uniswap V3 Router\n        buyTokenAddress = 0x6B175474E89094C44Da98b954EedeAC495271d0F; // USDC\n        productFee = 50;\n        productFeeTotal = 1000;\n        indexPriceAdjustment = 100;\n        indexToken = new IndexToken( address(this), \"Crypto index token\", 18, \"CRYPTIX\");\n        priceOracle = new PriceOracle();\n        isLocked = false;\n\n        tokens.push(\n            TokenInfo({ // WETH\n                tokenAddress: 0xC02aaA39b223FE8D0A0e5C4F27eAD9083C756Cc2,\n                priceOracleAddress: 0x5f4eC3Df9cbd43714FE2740f5E3616155c5b8419,\n                poolFee: 3000,\n                indexPercentage: 15\n            })\n        );\n        tokens.push(\n            TokenInfo({ // LINK\n                tokenAddress: 0x514910771AF9Ca656af840dff83E8264EcF986CA,\n                priceOracleAddress: 0x2c1d072e956AFFC0D435Cb7AC38EF18d24d9127c,\n                poolFee: 3000,\n                indexPercentage: 5\n            })\n        );\n        tokens.push(\n            TokenInfo({ // BNB\n                tokenAddress: 0x418D75f65a02b3D53B2418FB8E1fe493759c7605,\n                priceOracleAddress: 0x14e613AC84a31f709eadbdF89C6CC390fDc9540A,\n                poolFee: 3000,\n                indexPercentage: 20\n            })\n        );\n        tokens.push(\n            TokenInfo({ // UNI\n                tokenAddress: 0x1f9840a85d5aF5bf1D1762F925BDADdC4201F984,\n                priceOracleAddress: 0x553303d460EE0afB37EdFf9bE42922D8FF63220e,\n                poolFee: 3000,\n                indexPercentage: 5\n            })\n        );\n        tokens.push(\n            TokenInfo({ //   1INCH\n                tokenAddress: 0x111111111117dC0aa78b770fA6A738034120C302,\n                priceOracleAddress: 0xc929ad75B72593967DE83E7F7Cda0493458261D9,\n                poolFee: 3000,\n                indexPercentage: 5\n            })\n        );\n        tokens.push(TokenInfo({    //   SNX\n            tokenAddress: 0xC011a73ee8576Fb46F5E1c5751cA3B9Fe0af2a6F,\n            priceOracleAddress: 0xDC3EA94CD0AC27d9A86C180091e7f78C683d3699,\n            poolFee: 3000,\n            indexPercentage: 5\n        }));\n        tokens.push(TokenInfo({    //   YFI\n            tokenAddress: 0x0bc529c00C6401aEF6D220BE8C6Ea1667F6Ad93e,\n            priceOracleAddress: 0xA027702dbb89fbd58938e4324ac03B58d812b0E1,\n            poolFee: 3000,\n            indexPercentage: 5\n        }));\n        tokens.push(TokenInfo({    //   COMP\n            tokenAddress: 0xc00e94Cb662C3520282E6f5717214004A7f26888,\n            priceOracleAddress: 0xdbd020CAeF83eFd542f4De03e3cF0C28A4428bd5,\n            poolFee: 3000,\n            indexPercentage: 5\n        }));\n        tokens.push(TokenInfo({    //   MKR\n            tokenAddress: 0x9f8F72aA9304c8B593d555F12eF6589cC3A579A2,\n            priceOracleAddress: 0xec1D1B3b0443256cc3860e24a46F108e699484Aa,\n            poolFee: 3000,\n            indexPercentage: 5\n        }));\n        tokens.push(TokenInfo({    //   SUSHI\n            tokenAddress: 0x6B3595068778DD592e39A122f4f5a5cF09C90fE2,\n            priceOracleAddress: 0xCc70F09A6CC17553b2E31954cD36E4A2d89501f7,\n            poolFee: 3000,\n            indexPercentage: 5\n        }));\n        tokens.push(TokenInfo({    //   XRP\n            tokenAddress: 0xAE9e8333a1Bc59751E566bc43C91B48477EB41df,\n            priceOracleAddress: 0xCed2660c6Dd1Ffd856A5A82C67f3482d88C50b12,\n            poolFee: 3000,\n            indexPercentage: 5\n        }));\n        tokens.push(TokenInfo({    //   CRV\n            tokenAddress: 0xD533a949740bb3306d119CC777fa900bA034cd52,\n            priceOracleAddress: 0xCd627aA160A6fA45Eb793D19Ef54f5062F20f33f,\n            poolFee: 3000,\n            indexPercentage: 5\n        }));\n        tokens.push(TokenInfo({    //   Huobi Token\n            tokenAddress: 0x6f259637dcD74C767781E37Bc6133cd6A68aa161,\n            priceOracleAddress: 0xE1329B3f6513912CAf589659777b66011AEE5880,\n            poolFee: 3000,\n            indexPercentage: 5\n        }));\n        tokens.push(TokenInfo({    //   BNT\n            tokenAddress: 0x1F573D6Fb3F13d689FF844B4cE37794d79a7FF1C,\n            priceOracleAddress: 0x1E6cF0D433de4FE882A437ABC654F58E1e78548c,\n            poolFee: 3000,\n            indexPercentage: 5\n        }));\n        tokens.push(TokenInfo({    //   INJ\n            tokenAddress: 0xe28b3B32B6c345A34Ff64674606124Dd5Aceca30,\n            priceOracleAddress: 0xaE2EbE3c4D20cE13cE47cbb49b6d7ee631Cd816e,\n            poolFee: 3000,\n            indexPercentage: 5\n        }));\n    }\n\n    function buy(uint256 amount) external nonReentrant override {\n        uint256 indexPrice = getPrice();\n        (uint productFee, uint256 realAmount) = calculateFee(amount);\n        require(realAmount >= 1, \"Not enough tokens sent\");\n\n        uint buyTokenAmount = realAmount.mul(1 ether).div(indexPrice);\n        tokensToBuy += buyTokenAmount;\n\n        indexToken.transfer(msg.sender, realAmount);\n        TransferHelper.safeTransferFrom(buyTokenAddress, msg.sender, address(this), amount.mul(1 ether).div(indexPrice));\n        IERC20 _buyToken = IERC20(buyTokenAddress);\n        _buyToken.transfer(owner(), productFee.mul(1 ether).div(indexPrice));\n\n        emit ProductBought(msg.sender, buyTokenAmount, realAmount);\n    }\n\n    function retrieveDebt(uint amount) external nonReentrant checkUnlocked{\n        require(usersDebt[msg.sender].sub(amount) > 0, \"Not enough debt, try selling your tokens first\");\n        \n        usersDebt[msg.sender] = usersDebt[msg.sender].sub(amount);\n        totalAvailableDebt = totalAvailableDebt.sub(amount);\n\n        IERC20(buyTokenAddress).transfer(msg.sender, amount);\n        emit DebtRetrieved(msg.sender, amount);\n    }\n\n    function sell(uint amount) external override nonReentrant checkUnlocked {\n        (uint productFee, uint256 realAmount) = calculateFee(amount);\n        require(realAmount >= 1, \"You must sell more tokens\");\n\n        uint newUserDebt = realAmount.mul(1 ether).div(getPrice());\n        usersDebt[msg.sender] = usersDebt[msg.sender].add(newUserDebt);\n        tokensToSell = realAmount.add(tokensToSell);\n\n        TransferHelper.safeTransferFrom(address(indexToken), msg.sender, address(this), amount);\n        indexToken.transfer(owner(), productFee);\n\n        emit ProductSold(msg.sender, newUserDebt, realAmount);\n    }\n\n    function findToken(address tokenAddress) private view returns(TokenInfo memory){\n        for (uint256 index = 0; index < tokens.length; index++) {\n            TokenInfo memory token = tokens[index];\n            if (token.tokenAddress == tokenAddress) {\n                return token;\n            }\n        }\n\n        revert(\"No such token\");\n    }\n\n    function manageTokens(address tokenAddress) external onlyOwner {\n        ISwapRouter dexRouter = ISwapRouter(dexRouterAddress);\n\n        // buy - usd\n        // sell - tokens\n\n        TokenInfo memory token = findToken(tokenAddress);\n        uint tokensToBuyAmount = tokensToBuy.div(100).mul(token.indexPercentage);\n        uint tokensToSellAmount = tokensToSell.div(100).mul(token.indexPercentage);\n        uint tokenPrice = priceOracle.getPrice(token.priceOracleAddress);\n\n        tokensToBuy = tokensToBuy.sub(tokensToBuyAmount);\n        tokensToSell = tokensToSell.sub(tokensToSellAmount);\n\n        if(tokensToBuyAmount > 0) {\n            ERC20(buyTokenAddress).approve(dexRouterAddress, tokensToBuyAmount);\n            dexRouter.exactInputSingle(\n                ISwapRouter.ExactInputSingleParams({\n                    tokenIn: buyTokenAddress,\n                    tokenOut: token.tokenAddress,\n                    fee: token.poolFee,\n                    recipient: address(this),\n                    deadline: block.timestamp,\n                    amountIn: tokensToBuyAmount,\n                    amountOutMinimum: tokensToBuyAmount.div(priceOracle.getPrice(token.priceOracleAddress)),\n                    sqrtPriceLimitX96: 0\n                })\n            );\n        }\n\n        if(tokensToSellAmount > 0){\n            ERC20(token.tokenAddress).approve(dexRouterAddress, tokensToSellAmount);\n            totalAvailableDebt += dexRouter.exactInputSingle(\n                ISwapRouter.ExactInputSingleParams({\n                    tokenIn: token.tokenAddress,\n                    tokenOut: buyTokenAddress,\n                    fee: token.poolFee,\n                    recipient: address(this),\n                    deadline: block.timestamp,\n                    amountIn: tokensToSellAmount,\n                    amountOutMinimum: tokensToSellAmount.mul(tokenPrice),\n                    sqrtPriceLimitX96: 0\n                })\n            );\n        }\n\n    }\n\n    function getPrice() public view override returns (uint256) {\n        uint256 indexTotalPrice;\n\n        for (uint256 i = 0; i < tokens.length; i++) {\n            TokenInfo memory token = tokens[i];\n            uint256 price = priceOracle.getPrice(token.priceOracleAddress);\n            indexTotalPrice = indexTotalPrice.add(price.div(100).mul(token.indexPercentage));\n        }\n\n        return indexTotalPrice.div(indexPriceAdjustment);\n    }\n\n}\n",
  "sourcePath": "D:\\JavascriptProjects\\crypto-index\\contracts\\indices\\BaseIndex.sol",
  "compiler": {
    "name": "solc",
    "version": "0.7.5+commit.eb77ed08.Linux.g++"
  },
  "schemaVersion": "3.4.6",
  "updatedAt": "2022-05-02T12:44:31.061Z",
  "devdoc": {
    "kind": "dev",
    "methods": {
      "owner()": {
        "details": "Returns the address of the current owner."
      },
      "renounceOwnership()": {
        "details": "Leaves the contract without owner. It will not be possible to call `onlyOwner` functions anymore. Can only be called by the current owner. NOTE: Renouncing ownership will leave the contract without an owner, thereby removing any functionality that is only available to the owner."
      },
      "transferOwnership(address)": {
        "details": "Transfers ownership of the contract to a new account (`newOwner`). Can only be called by the current owner."
      }
    },
    "version": 1
  },
  "userdoc": {
    "kind": "user",
    "methods": {},
    "version": 1
  }
}