{
  "contractName": "BaseIndex",
  "abi": [
    {
      "anonymous": false,
      "inputs": [
        {
          "indexed": true,
          "internalType": "address",
          "name": "previousOwner",
          "type": "address"
        },
        {
          "indexed": true,
          "internalType": "address",
          "name": "newOwner",
          "type": "address"
        }
      ],
      "name": "OwnershipTransferred",
      "type": "event"
    },
    {
      "inputs": [],
      "name": "minimalFundAddition",
      "outputs": [
        {
          "internalType": "uint256",
          "name": "",
          "type": "uint256"
        }
      ],
      "stateMutability": "view",
      "type": "function"
    },
    {
      "inputs": [],
      "name": "name",
      "outputs": [
        {
          "internalType": "string",
          "name": "",
          "type": "string"
        }
      ],
      "stateMutability": "view",
      "type": "function"
    },
    {
      "inputs": [],
      "name": "owner",
      "outputs": [
        {
          "internalType": "address",
          "name": "",
          "type": "address"
        }
      ],
      "stateMutability": "view",
      "type": "function"
    },
    {
      "inputs": [
        {
          "internalType": "uint256",
          "name": "",
          "type": "uint256"
        }
      ],
      "name": "priceConsumers",
      "outputs": [
        {
          "internalType": "contract PriceConsumerV3",
          "name": "",
          "type": "address"
        }
      ],
      "stateMutability": "view",
      "type": "function"
    },
    {
      "inputs": [],
      "name": "renounceOwnership",
      "outputs": [],
      "stateMutability": "nonpayable",
      "type": "function"
    },
    {
      "inputs": [],
      "name": "symbol",
      "outputs": [
        {
          "internalType": "string",
          "name": "",
          "type": "string"
        }
      ],
      "stateMutability": "view",
      "type": "function"
    },
    {
      "inputs": [
        {
          "internalType": "uint256",
          "name": "",
          "type": "uint256"
        }
      ],
      "name": "tokenContracts",
      "outputs": [
        {
          "internalType": "contract IERC20",
          "name": "",
          "type": "address"
        }
      ],
      "stateMutability": "view",
      "type": "function"
    },
    {
      "inputs": [
        {
          "internalType": "uint256",
          "name": "",
          "type": "uint256"
        }
      ],
      "name": "tokens",
      "outputs": [
        {
          "internalType": "string",
          "name": "",
          "type": "string"
        }
      ],
      "stateMutability": "view",
      "type": "function"
    },
    {
      "inputs": [
        {
          "internalType": "address",
          "name": "newOwner",
          "type": "address"
        }
      ],
      "name": "transferOwnership",
      "outputs": [],
      "stateMutability": "nonpayable",
      "type": "function"
    },
    {
      "inputs": [],
      "name": "getPrice",
      "outputs": [
        {
          "internalType": "uint256",
          "name": "",
          "type": "uint256"
        }
      ],
      "stateMutability": "view",
      "type": "function"
    },
    {
      "inputs": [],
      "name": "addFunds",
      "outputs": [],
      "stateMutability": "payable",
      "type": "function"
    },
    {
      "inputs": [],
      "name": "getTotalPrice",
      "outputs": [
        {
          "internalType": "uint256",
          "name": "",
          "type": "uint256"
        }
      ],
      "stateMutability": "payable",
      "type": "function"
    },
    {
      "inputs": [],
      "name": "getMyTokensPrice",
      "outputs": [
        {
          "internalType": "uint256",
          "name": "",
          "type": "uint256"
        }
      ],
      "stateMutability": "view",
      "type": "function"
    },
    {
      "inputs": [],
      "name": "getMyTokens",
      "outputs": [
        {
          "internalType": "uint256",
          "name": "",
          "type": "uint256"
        }
      ],
      "stateMutability": "view",
      "type": "function"
    }
  ],
  "bytecode": "0x608060405234801561001057600080fd5b50610033610025640100000000610038810204565b64010000000061003c810204565b61008c565b3390565b60008054600160a060020a03838116600160a060020a0319831681178455604051919092169283917f8be0079c531659141344cd1fd0a4f28419497f9722a3daafe3b4186f6b6457e09190a35050565b6109358061009b6000396000f3fe6080604052600436106100fa576000357c0100000000000000000000000000000000000000000000000000000000900480638da5cb5b1161009c578063a26759cb11610076578063a26759cb14610224578063f2fde38b1461022c578063f3b755c71461024c578063f475409f14610261576100fa565b80638da5cb5b146101e557806395d89b41146101fa57806398d5fdca1461020f576100fa565b80634f64b2be116100d85780634f64b2be146101795780635b3b136a1461019957806367ebf886146101ae578063715018a6146101ce576100fa565b806306fdde03146100ff5780631d85b4151461012a5780631d9fb3091461014c575b600080fd5b34801561010b57600080fd5b50610114610269565b60405161012191906106e8565b60405180910390f35b34801561013657600080fd5b5061013f6102f7565b604051610121919061082a565b34801561015857600080fd5b5061016c6101673660046106bc565b610318565b60405161012191906106d4565b34801561018557600080fd5b506101146101943660046106bc565b610342565b3480156101a557600080fd5b5061013f61036d565b3480156101ba57600080fd5b5061016c6101c93660046106bc565b610380565b3480156101da57600080fd5b506101e3610390565b005b3480156101f157600080fd5b5061016c6103e7565b34801561020657600080fd5b506101146103f6565b34801561021b57600080fd5b5061013f610403565b6101e361050d565b34801561023857600080fd5b506101e3610247366004610676565b610581565b34801561025857600080fd5b5061013f6105f8565b61013f6105fe565b600580546102769061088d565b80601f01602080910402602001604051908101604052809291908181526020018280546102a29061088d565b80156102ef5780601f106102c4576101008083540402835291602001916102ef565b820191906000526020600020905b8154815290600101906020018083116102d257829003601f168201915b505050505081565b6000610301610403565b61030961036d565b610313919061086e565b905090565b6008818154811061032857600080fd5b600091825260209091200154600160a060020a0316905081565b6004818154811061035257600080fd5b9060005260206000200160009150905080546102769061088d565b3360009081526002602052604090205490565b6007818154811061032857600080fd5b610398610615565b600160a060020a03166103a96103e7565b600160a060020a0316146103db5760405160e560020a62461bcd0281526004016103d290610798565b60405180910390fd5b6103e56000610619565b565b600054600160a060020a031690565b600680546102769061088d565b600080805b6007548110156104f9576000600782815481106104385760e060020a634e487b7102600052603260045260246000fd5b6000918252602080832090910154604080517f8e15f4730000000000000000000000000000000000000000000000000000000081529051600160a060020a0390921694508492638e15f47392600480840193829003018186803b15801561049e57600080fd5b505afa1580156104b2573d6000803e3d6000fd5b505050506040513d601f19601f820116820180604052508101906104d691906106a4565b90506104e28185610833565b9350505080806104f1906108cb565b915050610408565b50600754610507908261084b565b91505090565b60035434116105315760405160e560020a62461bcd0281526004016103d2906107cd565b34600160008282546105439190610833565b909155506105519050610403565b61055b903461084b565b336000908152600260205260408120805490919061057a908490610833565b9091555050565b610589610615565b600160a060020a031661059a6103e7565b600160a060020a0316146105c35760405160e560020a62461bcd0281526004016103d290610798565b600160a060020a0381166105ec5760405160e560020a62461bcd0281526004016103d29061073b565b6105f581610619565b50565b60035481565b6000610608610403565b600154610313919061086e565b3390565b60008054600160a060020a0383811673ffffffffffffffffffffffffffffffffffffffff19831681178455604051919092169283917f8be0079c531659141344cd1fd0a4f28419497f9722a3daafe3b4186f6b6457e09190a35050565b600060208284031215610687578081fd5b8135600160a060020a038116811461069d578182fd5b9392505050565b6000602082840312156106b5578081fd5b5051919050565b6000602082840312156106cd578081fd5b5035919050565b600160a060020a0391909116815260200190565b6000602080835283518082850152825b81811015610714578581018301518582016040015282016106f8565b818111156107255783604083870101525b50601f01601f1916929092016040019392505050565b60208082526026908201527f4f776e61626c653a206e6577206f776e657220697320746865207a65726f206160408201527f6464726573730000000000000000000000000000000000000000000000000000606082015260800190565b6020808252818101527f4f776e61626c653a2063616c6c6572206973206e6f7420746865206f776e6572604082015260600190565b60208082526024908201527f4e6f7420656e6f7567682066756e647320746f2061646420746f20746865206960408201527f6e64657800000000000000000000000000000000000000000000000000000000606082015260800190565b90815260200190565b60008219821115610846576108466108e6565b500190565b6000826108695760e060020a634e487b710281526012600452602481fd5b500490565b6000816000190483118215151615610888576108886108e6565b500290565b6002810460018216806108a157607f821691505b602082108114156108c55760e060020a634e487b7102600052602260045260246000fd5b50919050565b60006000198214156108df576108df6108e6565b5060010190565b60e060020a634e487b7102600052601160045260246000fdfea26469706673582212202305d169622fb9054a040993f7dd3f6741b276386625867c478beaa50ccbe6e264736f6c63430008000033",
  "immutableReferences": {},
  "source": "// SPDX-License-Identifier: MIT\npragma solidity ^0.8.0;\n\nimport './Token.sol';\nimport './PriceProtocol.sol';\nimport \"@openzeppelin/contracts/access/Ownable.sol\";\nimport \"@openzeppelin/contracts/utils/Strings.sol\";\nimport \"@chainlink/contracts/src/v0.8/interfaces/AggregatorV3Interface.sol\";\n\n\ncontract BaseIndex is Ownable {\n\n    uint256 private totalFunds;\n    mapping(address => uint256) private investors;\n    uint256 public minimalFundAddition;\n\n    string[] public tokens;\n    string public name;\n    string public symbol;\n\n    PriceConsumerV3[] public priceConsumers;\n    IERC20[] public tokenContracts;\n\n    function getPrice() public view returns (uint256) {\n        uint256 totalPrice = 0;\n\n        for (uint256 index = 0; index < priceConsumers.length; index++) {\n            PriceConsumerV3 consumer = priceConsumers[index];\n            int256 latestPrice = consumer.getLatestPrice();\n            totalPrice += uint256(latestPrice);\n        }\n\n        return totalPrice / priceConsumers.length;\n    }\n\n    function addFunds() public payable {\n        require(msg.value > minimalFundAddition, \"Not enough funds to add to the index\");\n        totalFunds += msg.value;\n        investors[msg.sender] += msg.value / getPrice();\n\n    }\n\n    function getTotalPrice() public payable returns(uint256){\n        return totalFunds * getPrice();\n    }\n\n    function getMyTokensPrice() public view returns(uint256){\n        return getMyTokens() * getPrice();\n    }\n\n    function getMyTokens() public view returns(uint256){\n        return investors[msg.sender];\n    }\n\n}\n\n\ncontract CorrelationIndex is BaseIndex {\n\n    constructor(){\n        minimalFundAddition = 100000;\n        tokens = [\"BTC\", \"ETH\", \"BNB\", \"LINK\", \"DOT\"];\n        name = \"Correlation Index\";\n        symbol = \"CI\";\n        priceConsumers = [\n            PriceConsumerV3(0x0567F2323251f0Aab15c8dFb1967E4e8A7D42aeE),    // BNB\n            PriceConsumerV3(0x7CA57b0cA6367191c94C8914d7Df09A57655905f),    // MATIC\n            PriceConsumerV3(0x264990fbd0A4796A3E3d8E37C4d5F87a3aCa5Ebf),    // WBTC\n            PriceConsumerV3(0xca236E327F629f9Fc2c30A4E95775EbF0B89fac8),    // LINK\n            PriceConsumerV3(0xF4C5e535756D11994fCBB12Ba8adD0192D9b88be),    // TRX\n            PriceConsumerV3(0xb57f259E7C24e56a1dA00F66b55A5640d9f9E7e4)    // UNI\n        ];\n        tokenContracts = [\n            IERC20(0xB8c77482e45F1F44dE1745F52C74426C631bDD52),     // BNB\n            IERC20(0x7D1AfA7B718fb893dB30A3aBc0Cfc608AaCfeBB0),     // MATIC\n            IERC20(0x2260FAC5E5542a773Aa44fBCfeDf7C193bc2C599),     // WBTC\n            IERC20(0x514910771AF9Ca656af840dff83E8264EcF986CA),     // LINK\n            IERC20(0xE1Be5D3f34e89dE342Ee97E6e90D405884dA6c67),     // TRX\n            IERC20(0x1f9840a85d5aF5bf1D1762F925BDADdC4201F984)     // UNI\n        ];\n    }\n\n}\n",
  "sourcePath": "F:\\JavascriptProjects\\crypto-index\\contracts\\Index.sol",
  "compiler": {
    "name": "solc",
    "version": "0.8.0+commit.c7dfd78e.Linux.g++"
  },
  "schemaVersion": "3.4.3",
  "updatedAt": "2022-02-28T15:11:19.897Z",
  "devdoc": {
    "kind": "dev",
    "methods": {
      "owner()": {
        "details": "Returns the address of the current owner."
      },
      "renounceOwnership()": {
        "details": "Leaves the contract without owner. It will not be possible to call `onlyOwner` functions anymore. Can only be called by the current owner. NOTE: Renouncing ownership will leave the contract without an owner, thereby removing any functionality that is only available to the owner."
      },
      "transferOwnership(address)": {
        "details": "Transfers ownership of the contract to a new account (`newOwner`). Can only be called by the current owner."
      }
    },
    "version": 1
  },
  "userdoc": {
    "kind": "user",
    "methods": {},
    "version": 1
  }
}