{
  "contractName": "BaseIndex",
  "abi": [
    {
      "inputs": [],
      "stateMutability": "nonpayable",
      "type": "constructor"
    },
    {
      "anonymous": false,
      "inputs": [
        {
          "indexed": true,
          "internalType": "address",
          "name": "previousOwner",
          "type": "address"
        },
        {
          "indexed": true,
          "internalType": "address",
          "name": "newOwner",
          "type": "address"
        }
      ],
      "name": "OwnershipTransferred",
      "type": "event"
    },
    {
      "anonymous": false,
      "inputs": [
        {
          "indexed": false,
          "internalType": "address",
          "name": "account",
          "type": "address"
        },
        {
          "indexed": false,
          "internalType": "uint256",
          "name": "buyTokenAmount",
          "type": "uint256"
        },
        {
          "indexed": false,
          "internalType": "uint256",
          "name": "indexTokenAmount",
          "type": "uint256"
        }
      ],
      "name": "ProductBought",
      "type": "event"
    },
    {
      "anonymous": false,
      "inputs": [
        {
          "indexed": false,
          "internalType": "address",
          "name": "account",
          "type": "address"
        },
        {
          "indexed": false,
          "internalType": "uint256",
          "name": "buyTokenAmount",
          "type": "uint256"
        },
        {
          "indexed": false,
          "internalType": "uint256",
          "name": "indexTokenAmount",
          "type": "uint256"
        }
      ],
      "name": "ProductSold",
      "type": "event"
    },
    {
      "inputs": [],
      "name": "WETH",
      "outputs": [
        {
          "internalType": "address",
          "name": "",
          "type": "address"
        }
      ],
      "stateMutability": "view",
      "type": "function"
    },
    {
      "inputs": [],
      "name": "buyTokenAddress",
      "outputs": [
        {
          "internalType": "address",
          "name": "",
          "type": "address"
        }
      ],
      "stateMutability": "view",
      "type": "function"
    },
    {
      "inputs": [
        {
          "internalType": "uint256",
          "name": "amount",
          "type": "uint256"
        }
      ],
      "name": "calculateFee",
      "outputs": [
        {
          "internalType": "uint256",
          "name": "",
          "type": "uint256"
        },
        {
          "internalType": "uint256",
          "name": "",
          "type": "uint256"
        }
      ],
      "stateMutability": "view",
      "type": "function"
    },
    {
      "inputs": [
        {
          "internalType": "uint8",
          "name": "_fee",
          "type": "uint8"
        },
        {
          "internalType": "uint256",
          "name": "_feeTotal",
          "type": "uint256"
        }
      ],
      "name": "changeFee",
      "outputs": [],
      "stateMutability": "nonpayable",
      "type": "function"
    },
    {
      "inputs": [],
      "name": "getFee",
      "outputs": [
        {
          "internalType": "uint256",
          "name": "",
          "type": "uint256"
        },
        {
          "internalType": "uint256",
          "name": "",
          "type": "uint256"
        }
      ],
      "stateMutability": "view",
      "type": "function"
    },
    {
      "inputs": [],
      "name": "indexToken",
      "outputs": [
        {
          "internalType": "contract IndexToken",
          "name": "",
          "type": "address"
        }
      ],
      "stateMutability": "view",
      "type": "function"
    },
    {
      "inputs": [],
      "name": "isLocked",
      "outputs": [
        {
          "internalType": "bool",
          "name": "",
          "type": "bool"
        }
      ],
      "stateMutability": "view",
      "type": "function"
    },
    {
      "inputs": [],
      "name": "isSettlementActive",
      "outputs": [
        {
          "internalType": "bool",
          "name": "",
          "type": "bool"
        }
      ],
      "stateMutability": "view",
      "type": "function"
    },
    {
      "inputs": [],
      "name": "lastManagedToken",
      "outputs": [
        {
          "internalType": "uint256",
          "name": "",
          "type": "uint256"
        }
      ],
      "stateMutability": "view",
      "type": "function"
    },
    {
      "inputs": [],
      "name": "owner",
      "outputs": [
        {
          "internalType": "address",
          "name": "",
          "type": "address"
        }
      ],
      "stateMutability": "view",
      "type": "function"
    },
    {
      "inputs": [],
      "name": "renounceOwnership",
      "outputs": [],
      "stateMutability": "nonpayable",
      "type": "function"
    },
    {
      "inputs": [
        {
          "internalType": "uint256",
          "name": "",
          "type": "uint256"
        }
      ],
      "name": "tokens",
      "outputs": [
        {
          "internalType": "uint8",
          "name": "indexPercentage",
          "type": "uint8"
        },
        {
          "internalType": "address",
          "name": "tokenAddress",
          "type": "address"
        },
        {
          "internalType": "address",
          "name": "priceOracleAddress",
          "type": "address"
        },
        {
          "internalType": "address",
          "name": "intermediateToken",
          "type": "address"
        }
      ],
      "stateMutability": "view",
      "type": "function"
    },
    {
      "inputs": [],
      "name": "tokensToBuy",
      "outputs": [
        {
          "internalType": "uint256",
          "name": "",
          "type": "uint256"
        }
      ],
      "stateMutability": "view",
      "type": "function"
    },
    {
      "inputs": [],
      "name": "tokensToSell",
      "outputs": [
        {
          "internalType": "uint256",
          "name": "",
          "type": "uint256"
        }
      ],
      "stateMutability": "view",
      "type": "function"
    },
    {
      "inputs": [
        {
          "internalType": "address",
          "name": "newOwner",
          "type": "address"
        }
      ],
      "name": "transferOwnership",
      "outputs": [],
      "stateMutability": "nonpayable",
      "type": "function"
    },
    {
      "inputs": [],
      "name": "name",
      "outputs": [
        {
          "internalType": "string",
          "name": "",
          "type": "string"
        }
      ],
      "stateMutability": "pure",
      "type": "function"
    },
    {
      "inputs": [],
      "name": "symbol",
      "outputs": [
        {
          "internalType": "string",
          "name": "",
          "type": "string"
        }
      ],
      "stateMutability": "pure",
      "type": "function"
    },
    {
      "inputs": [],
      "name": "getComponents",
      "outputs": [
        {
          "components": [
            {
              "internalType": "uint8",
              "name": "indexPercentage",
              "type": "uint8"
            },
            {
              "internalType": "address",
              "name": "tokenAddress",
              "type": "address"
            },
            {
              "internalType": "address",
              "name": "priceOracleAddress",
              "type": "address"
            },
            {
              "internalType": "uint24[2]",
              "name": "poolFees",
              "type": "uint24[2]"
            },
            {
              "internalType": "address",
              "name": "intermediateToken",
              "type": "address"
            }
          ],
          "internalType": "struct BaseIndex.TokenInfo[]",
          "name": "",
          "type": "tuple[]"
        }
      ],
      "stateMutability": "view",
      "type": "function"
    },
    {
      "inputs": [],
      "name": "shortDescription",
      "outputs": [
        {
          "internalType": "string",
          "name": "",
          "type": "string"
        }
      ],
      "stateMutability": "pure",
      "type": "function"
    },
    {
      "inputs": [],
      "name": "longDescription",
      "outputs": [
        {
          "internalType": "string",
          "name": "",
          "type": "string"
        }
      ],
      "stateMutability": "pure",
      "type": "function"
    },
    {
      "inputs": [
        {
          "components": [
            {
              "internalType": "uint8",
              "name": "indexPercentage",
              "type": "uint8"
            },
            {
              "internalType": "address",
              "name": "tokenAddress",
              "type": "address"
            },
            {
              "internalType": "address",
              "name": "priceOracleAddress",
              "type": "address"
            },
            {
              "internalType": "uint24[2]",
              "name": "poolFees",
              "type": "uint24[2]"
            },
            {
              "internalType": "address",
              "name": "intermediateToken",
              "type": "address"
            }
          ],
          "internalType": "struct BaseIndex.TokenInfo",
          "name": "token",
          "type": "tuple"
        }
      ],
      "name": "getTokenPrice",
      "outputs": [
        {
          "internalType": "uint256",
          "name": "",
          "type": "uint256"
        }
      ],
      "stateMutability": "view",
      "type": "function"
    },
    {
      "inputs": [],
      "name": "image",
      "outputs": [
        {
          "internalType": "string",
          "name": "",
          "type": "string"
        }
      ],
      "stateMutability": "pure",
      "type": "function"
    },
    {
      "inputs": [],
      "name": "getTotalLockedValue",
      "outputs": [
        {
          "internalType": "uint256",
          "name": "",
          "type": "uint256"
        }
      ],
      "stateMutability": "view",
      "type": "function"
    },
    {
      "inputs": [
        {
          "internalType": "uint256",
          "name": "amount",
          "type": "uint256"
        }
      ],
      "name": "buy",
      "outputs": [],
      "stateMutability": "nonpayable",
      "type": "function"
    },
    {
      "inputs": [
        {
          "internalType": "uint256",
          "name": "amount",
          "type": "uint256"
        },
        {
          "internalType": "bool",
          "name": "isBuyDebt",
          "type": "bool"
        }
      ],
      "name": "retrieveDebt",
      "outputs": [],
      "stateMutability": "nonpayable",
      "type": "function"
    },
    {
      "inputs": [
        {
          "internalType": "uint256",
          "name": "amount",
          "type": "uint256"
        }
      ],
      "name": "sell",
      "outputs": [],
      "stateMutability": "nonpayable",
      "type": "function"
    },
    {
      "inputs": [
        {
          "internalType": "bool",
          "name": "isBuy",
          "type": "bool"
        }
      ],
      "name": "getTotalDebt",
      "outputs": [
        {
          "internalType": "uint256",
          "name": "",
          "type": "uint256"
        }
      ],
      "stateMutability": "view",
      "type": "function"
    },
    {
      "inputs": [
        {
          "internalType": "bool",
          "name": "isBuy",
          "type": "bool"
        },
        {
          "internalType": "address",
          "name": "user",
          "type": "address"
        }
      ],
      "name": "getUserDebt",
      "outputs": [
        {
          "internalType": "uint256",
          "name": "",
          "type": "uint256"
        }
      ],
      "stateMutability": "view",
      "type": "function"
    },
    {
      "inputs": [],
      "name": "beginSettlement",
      "outputs": [],
      "stateMutability": "nonpayable",
      "type": "function"
    },
    {
      "inputs": [],
      "name": "endSettlement",
      "outputs": [],
      "stateMutability": "nonpayable",
      "type": "function"
    },
    {
      "inputs": [],
      "name": "manageTokens",
      "outputs": [],
      "stateMutability": "nonpayable",
      "type": "function"
    },
    {
      "inputs": [],
      "name": "getPrice",
      "outputs": [
        {
          "internalType": "uint256",
          "name": "",
          "type": "uint256"
        }
      ],
      "stateMutability": "view",
      "type": "function"
    }
  ],
  "bytecode": "0x60a06040526000600c553480156200001657600080fd5b5060006200002962001d2060201b60201c565b9050806000806101000a81548173ffffffffffffffffffffffffffffffffffffffff021916908373ffffffffffffffffffffffffffffffffffffffff1602179055508073ffffffffffffffffffffffffffffffffffffffff16600073ffffffffffffffffffffffffffffffffffffffff167f8be0079c531659141344cd1fd0a4f28419497f9722a3daafe3b4186f6b6457e060405160405180910390a3506001808190555073e592427a0aece92de3edee1f18e0157c0586156473ffffffffffffffffffffffffffffffffffffffff1660808173ffffffffffffffffffffffffffffffffffffffff1660601b81525050736b175474e89094c44da98b954eedeac495271d0f600260016101000a81548173ffffffffffffffffffffffffffffffffffffffff021916908373ffffffffffffffffffffffffffffffffffffffff16021790555073c02aaa39b223fe8d0a0e5c4f27ead9083c756cc2600960006101000a81548173ffffffffffffffffffffffffffffffffffffffff021916908373ffffffffffffffffffffffffffffffffffffffff160217905550600a600260156101000a81548160ff021916908360ff16021790555060646003819055506064600481905550306012604051620002009062001d28565b6200020d92919062001ebe565b604051809103906000f0801580156200022a573d6000803e3d6000fd5b50600860006101000a81548173ffffffffffffffffffffffffffffffffffffffff021916908373ffffffffffffffffffffffffffffffffffffffff160217905550604051620002799062001d36565b604051809103906000f08015801562000296573d6000803e3d6000fd5b50600760006101000a81548173ffffffffffffffffffffffffffffffffffffffff021916908373ffffffffffffffffffffffffffffffffffffffff1602179055506000600260006101000a81548160ff021916908315150217905550604051620003009062001d44565b604051809103906000f0801580156200031d573d6000803e3d6000fd5b50600a60006101000a81548173ffffffffffffffffffffffffffffffffffffffff021916908373ffffffffffffffffffffffffffffffffffffffff1602179055506040516200036c9062001d44565b604051809103906000f08015801562000389573d6000803e3d6000fd5b50600b60006101000a81548173ffffffffffffffffffffffffffffffffffffffff021916908373ffffffffffffffffffffffffffffffffffffffff16021790555060066040518060a00160405280600f60ff16815260200173c02aaa39b223fe8d0a0e5c4f27ead9083c756cc273ffffffffffffffffffffffffffffffffffffffff168152602001735f4ec3df9cbd43714fe2740f5e3616155c5b841973ffffffffffffffffffffffffffffffffffffffff1681526020016040518060400160405280610bb862ffffff1662ffffff168152602001610bb862ffffff1662ffffff168152508152602001600073ffffffffffffffffffffffffffffffffffffffff16815250908060018154018082558091505060019003906000526020600020906004020160009091909190915060008201518160000160006101000a81548160ff021916908360ff16021790555060208201518160000160016101000a81548173ffffffffffffffffffffffffffffffffffffffff021916908373ffffffffffffffffffffffffffffffffffffffff16021790555060408201518160010160006101000a81548173ffffffffffffffffffffffffffffffffffffffff021916908373ffffffffffffffffffffffffffffffffffffffff1602179055506060820151816002019060026200057f92919062001d52565b5060808201518160030160006101000a81548173ffffffffffffffffffffffffffffffffffffffff021916908373ffffffffffffffffffffffffffffffffffffffff160217905550505060066040518060a00160405280600560ff16815260200173514910771af9ca656af840dff83e8264ecf986ca73ffffffffffffffffffffffffffffffffffffffff168152602001732c1d072e956affc0d435cb7ac38ef18d24d9127c73ffffffffffffffffffffffffffffffffffffffff1681526020016040518060400160405280610bb862ffffff1662ffffff168152602001610bb862ffffff1662ffffff168152508152602001600960009054906101000a900473ffffffffffffffffffffffffffffffffffffffff1673ffffffffffffffffffffffffffffffffffffffff16815250908060018154018082558091505060019003906000526020600020906004020160009091909190915060008201518160000160006101000a81548160ff021916908360ff16021790555060208201518160000160016101000a81548173ffffffffffffffffffffffffffffffffffffffff021916908373ffffffffffffffffffffffffffffffffffffffff16021790555060408201518160010160006101000a81548173ffffffffffffffffffffffffffffffffffffffff021916908373ffffffffffffffffffffffffffffffffffffffff1602179055506060820151816002019060026200079f92919062001d52565b5060808201518160030160006101000a81548173ffffffffffffffffffffffffffffffffffffffff021916908373ffffffffffffffffffffffffffffffffffffffff160217905550505060066040518060a00160405280600560ff16815260200173418d75f65a02b3d53b2418fb8e1fe493759c760573ffffffffffffffffffffffffffffffffffffffff1681526020017314e613ac84a31f709eadbdf89c6cc390fdc9540a73ffffffffffffffffffffffffffffffffffffffff1681526020016040518060400160405280610bb862ffffff1662ffffff168152602001610bb862ffffff1662ffffff168152508152602001600960009054906101000a900473ffffffffffffffffffffffffffffffffffffffff1673ffffffffffffffffffffffffffffffffffffffff16815250908060018154018082558091505060019003906000526020600020906004020160009091909190915060008201518160000160006101000a81548160ff021916908360ff16021790555060208201518160000160016101000a81548173ffffffffffffffffffffffffffffffffffffffff021916908373ffffffffffffffffffffffffffffffffffffffff16021790555060408201518160010160006101000a81548173ffffffffffffffffffffffffffffffffffffffff021916908373ffffffffffffffffffffffffffffffffffffffff160217905550606082015181600201906002620009bf92919062001d52565b5060808201518160030160006101000a81548173ffffffffffffffffffffffffffffffffffffffff021916908373ffffffffffffffffffffffffffffffffffffffff160217905550505060066040518060a00160405280600a60ff168152602001731f9840a85d5af5bf1d1762f925bdaddc4201f98473ffffffffffffffffffffffffffffffffffffffff16815260200173553303d460ee0afb37edff9be42922d8ff63220e73ffffffffffffffffffffffffffffffffffffffff1681526020016040518060400160405280610bb862ffffff1662ffffff168152602001610bb862ffffff1662ffffff168152508152602001600960009054906101000a900473ffffffffffffffffffffffffffffffffffffffff1673ffffffffffffffffffffffffffffffffffffffff16815250908060018154018082558091505060019003906000526020600020906004020160009091909190915060008201518160000160006101000a81548160ff021916908360ff16021790555060208201518160000160016101000a81548173ffffffffffffffffffffffffffffffffffffffff021916908373ffffffffffffffffffffffffffffffffffffffff16021790555060408201518160010160006101000a81548173ffffffffffffffffffffffffffffffffffffffff021916908373ffffffffffffffffffffffffffffffffffffffff16021790555060608201518160020190600262000bdf92919062001d52565b5060808201518160030160006101000a81548173ffffffffffffffffffffffffffffffffffffffff021916908373ffffffffffffffffffffffffffffffffffffffff160217905550505060066040518060a00160405280600560ff16815260200173111111111117dc0aa78b770fa6a738034120c30273ffffffffffffffffffffffffffffffffffffffff16815260200173c929ad75b72593967de83e7f7cda0493458261d973ffffffffffffffffffffffffffffffffffffffff1681526020016040518060400160405280610bb862ffffff1662ffffff16815260200161271062ffffff168152508152602001600960009054906101000a900473ffffffffffffffffffffffffffffffffffffffff1673ffffffffffffffffffffffffffffffffffffffff16815250908060018154018082558091505060019003906000526020600020906004020160009091909190915060008201518160000160006101000a81548160ff021916908360ff16021790555060208201518160000160016101000a81548173ffffffffffffffffffffffffffffffffffffffff021916908373ffffffffffffffffffffffffffffffffffffffff16021790555060408201518160010160006101000a81548173ffffffffffffffffffffffffffffffffffffffff021916908373ffffffffffffffffffffffffffffffffffffffff16021790555060608201518160020190600262000dfa92919062001d52565b5060808201518160030160006101000a81548173ffffffffffffffffffffffffffffffffffffffff021916908373ffffffffffffffffffffffffffffffffffffffff160217905550505060066040518060a00160405280600560ff16815260200173c011a73ee8576fb46f5e1c5751ca3b9fe0af2a6f73ffffffffffffffffffffffffffffffffffffffff16815260200173dc3ea94cd0ac27d9a86c180091e7f78c683d369973ffffffffffffffffffffffffffffffffffffffff1681526020016040518060400160405280610bb862ffffff1662ffffff16815260200161271062ffffff168152508152602001600960009054906101000a900473ffffffffffffffffffffffffffffffffffffffff1673ffffffffffffffffffffffffffffffffffffffff16815250908060018154018082558091505060019003906000526020600020906004020160009091909190915060008201518160000160006101000a81548160ff021916908360ff16021790555060208201518160000160016101000a81548173ffffffffffffffffffffffffffffffffffffffff021916908373ffffffffffffffffffffffffffffffffffffffff16021790555060408201518160010160006101000a81548173ffffffffffffffffffffffffffffffffffffffff021916908373ffffffffffffffffffffffffffffffffffffffff1602179055506060820151816002019060026200101592919062001d52565b5060808201518160030160006101000a81548173ffffffffffffffffffffffffffffffffffffffff021916908373ffffffffffffffffffffffffffffffffffffffff160217905550505060066040518060a00160405280600560ff168152602001730bc529c00c6401aef6d220be8c6ea1667f6ad93e73ffffffffffffffffffffffffffffffffffffffff16815260200173a027702dbb89fbd58938e4324ac03b58d812b0e173ffffffffffffffffffffffffffffffffffffffff1681526020016040518060400160405280610bb862ffffff1662ffffff168152602001610bb862ffffff1662ffffff168152508152602001600960009054906101000a900473ffffffffffffffffffffffffffffffffffffffff1673ffffffffffffffffffffffffffffffffffffffff16815250908060018154018082558091505060019003906000526020600020906004020160009091909190915060008201518160000160006101000a81548160ff021916908360ff16021790555060208201518160000160016101000a81548173ffffffffffffffffffffffffffffffffffffffff021916908373ffffffffffffffffffffffffffffffffffffffff16021790555060408201518160010160006101000a81548173ffffffffffffffffffffffffffffffffffffffff021916908373ffffffffffffffffffffffffffffffffffffffff1602179055506060820151816002019060026200123592919062001d52565b5060808201518160030160006101000a81548173ffffffffffffffffffffffffffffffffffffffff021916908373ffffffffffffffffffffffffffffffffffffffff160217905550505060066040518060a00160405280600560ff16815260200173c00e94cb662c3520282e6f5717214004a7f2688873ffffffffffffffffffffffffffffffffffffffff16815260200173dbd020caef83efd542f4de03e3cf0c28a4428bd573ffffffffffffffffffffffffffffffffffffffff1681526020016040518060400160405280610bb862ffffff1662ffffff168152602001610bb862ffffff1662ffffff168152508152602001600960009054906101000a900473ffffffffffffffffffffffffffffffffffffffff1673ffffffffffffffffffffffffffffffffffffffff16815250908060018154018082558091505060019003906000526020600020906004020160009091909190915060008201518160000160006101000a81548160ff021916908360ff16021790555060208201518160000160016101000a81548173ffffffffffffffffffffffffffffffffffffffff021916908373ffffffffffffffffffffffffffffffffffffffff16021790555060408201518160010160006101000a81548173ffffffffffffffffffffffffffffffffffffffff021916908373ffffffffffffffffffffffffffffffffffffffff1602179055506060820151816002019060026200145592919062001d52565b5060808201518160030160006101000a81548173ffffffffffffffffffffffffffffffffffffffff021916908373ffffffffffffffffffffffffffffffffffffffff160217905550505060066040518060a00160405280600560ff168152602001739f8f72aa9304c8b593d555f12ef6589cc3a579a273ffffffffffffffffffffffffffffffffffffffff16815260200173ec1d1b3b0443256cc3860e24a46f108e699484aa73ffffffffffffffffffffffffffffffffffffffff1681526020016040518060400160405280610bb862ffffff1662ffffff168152602001610bb862ffffff1662ffffff168152508152602001600960009054906101000a900473ffffffffffffffffffffffffffffffffffffffff1673ffffffffffffffffffffffffffffffffffffffff16815250908060018154018082558091505060019003906000526020600020906004020160009091909190915060008201518160000160006101000a81548160ff021916908360ff16021790555060208201518160000160016101000a81548173ffffffffffffffffffffffffffffffffffffffff021916908373ffffffffffffffffffffffffffffffffffffffff16021790555060408201518160010160006101000a81548173ffffffffffffffffffffffffffffffffffffffff021916908373ffffffffffffffffffffffffffffffffffffffff1602179055506060820151816002019060026200167592919062001d52565b5060808201518160030160006101000a81548173ffffffffffffffffffffffffffffffffffffffff021916908373ffffffffffffffffffffffffffffffffffffffff160217905550505060066040518060a00160405280600a60ff168152602001736b3595068778dd592e39a122f4f5a5cf09c90fe273ffffffffffffffffffffffffffffffffffffffff16815260200173cc70f09a6cc17553b2e31954cd36e4a2d89501f773ffffffffffffffffffffffffffffffffffffffff1681526020016040518060400160405280610bb862ffffff1662ffffff168152602001610bb862ffffff1662ffffff168152508152602001600960009054906101000a900473ffffffffffffffffffffffffffffffffffffffff1673ffffffffffffffffffffffffffffffffffffffff16815250908060018154018082558091505060019003906000526020600020906004020160009091909190915060008201518160000160006101000a81548160ff021916908360ff16021790555060208201518160000160016101000a81548173ffffffffffffffffffffffffffffffffffffffff021916908373ffffffffffffffffffffffffffffffffffffffff16021790555060408201518160010160006101000a81548173ffffffffffffffffffffffffffffffffffffffff021916908373ffffffffffffffffffffffffffffffffffffffff1602179055506060820151816002019060026200189592919062001d52565b5060808201518160030160006101000a81548173ffffffffffffffffffffffffffffffffffffffff021916908373ffffffffffffffffffffffffffffffffffffffff160217905550505060066040518060a00160405280600a60ff168152602001734d224452801aced8b2f0aebe155379bb5d59438173ffffffffffffffffffffffffffffffffffffffff16815260200173d10abbc76679a20055e167bb80a24ac851b3705673ffffffffffffffffffffffffffffffffffffffff1681526020016040518060400160405280610bb862ffffff1662ffffff168152602001610bb862ffffff1662ffffff168152508152602001600960009054906101000a900473ffffffffffffffffffffffffffffffffffffffff1673ffffffffffffffffffffffffffffffffffffffff16815250908060018154018082558091505060019003906000526020600020906004020160009091909190915060008201518160000160006101000a81548160ff021916908360ff16021790555060208201518160000160016101000a81548173ffffffffffffffffffffffffffffffffffffffff021916908373ffffffffffffffffffffffffffffffffffffffff16021790555060408201518160010160006101000a81548173ffffffffffffffffffffffffffffffffffffffff021916908373ffffffffffffffffffffffffffffffffffffffff16021790555060608201518160020190600262001ab592919062001d52565b5060808201518160030160006101000a81548173ffffffffffffffffffffffffffffffffffffffff021916908373ffffffffffffffffffffffffffffffffffffffff160217905550505060066040518060a00160405280600560ff16815260200173d533a949740bb3306d119cc777fa900ba034cd5273ffffffffffffffffffffffffffffffffffffffff16815260200173cd627aa160a6fa45eb793d19ef54f5062f20f33f73ffffffffffffffffffffffffffffffffffffffff1681526020016040518060400160405280610bb862ffffff1662ffffff16815260200161271062ffffff168152508152602001600960009054906101000a900473ffffffffffffffffffffffffffffffffffffffff1673ffffffffffffffffffffffffffffffffffffffff16815250908060018154018082558091505060019003906000526020600020906004020160009091909190915060008201518160000160006101000a81548160ff021916908360ff16021790555060208201518160000160016101000a81548173ffffffffffffffffffffffffffffffffffffffff021916908373ffffffffffffffffffffffffffffffffffffffff16021790555060408201518160010160006101000a81548173ffffffffffffffffffffffffffffffffffffffff021916908373ffffffffffffffffffffffffffffffffffffffff16021790555060608201518160020190600262001cd092919062001d52565b5060808201518160030160006101000a81548173ffffffffffffffffffffffffffffffffffffffff021916908373ffffffffffffffffffffffffffffffffffffffff160217905550505062001f7b565b600033905090565b6112ff806200650e83390190565b61025d806200780d83390190565b6105458062007a6a83390190565b826002600901600a9004810192821562001de65791602002820160005b8382111562001db357835183826101000a81548162ffffff021916908362ffffff160217905550926020019260030160208160020104928301926001030262001d6f565b801562001de45782816101000a81549062ffffff021916905560030160208160020104928301926001030262001db3565b505b50905062001df5919062001df9565b5090565b5b8082111562001e1457600081600090555060010162001dfa565b5090565b62001e238162001f26565b82525050565b62001e348162001f67565b82525050565b600062001e4960078362001f15565b91507f43525950544958000000000000000000000000000000000000000000000000006000830152602082019050919050565b600062001e8b60128362001f15565b91507f43727970746f20696e64657820746f6b656e00000000000000000000000000006000830152602082019050919050565b600060808201905062001ed5600083018562001e18565b818103602083015262001ee88162001e7c565b905062001ef9604083018462001e29565b818103606083015262001f0c8162001e3a565b90509392505050565b600082825260208201905092915050565b600062001f338262001f3a565b9050919050565b600073ffffffffffffffffffffffffffffffffffffffff82169050919050565b600060ff82169050919050565b600062001f748262001f5a565b9050919050565b60805160601c61456662001fa86000398061279c52806127eb5280612d3652806130b152506145666000f3fe608060405234801561001057600080fd5b50600436106101805760003560e01c806306fdde031461018557806313a7e54e146101a35780631da98960146101bf5780633d956691146101dd5780634f64b2be146101fb57806360ebbf811461022e578063715018a61461024c5780637805d4be14610256578063782fa9c9146102865780638da5cb5b146102a25780638e96347b146102c057806395d89b41146102de57806398d5fdca146102fc57806399a5d7471461031a57806399d50d5d1461034b578063a4e2d63414610369578063a70989ee14610387578063ad5c4648146103b7578063b7597914146103d5578063ba25d944146103f3578063c20120b514610411578063cd8445541461042f578063ced72f871461045f578063d96a094a1461047e578063e4849b321461049a578063e7d015f2146104b6578063ea4c1b45146104d4578063eed8c66d146104de578063f2fde38b146104fc578063f3ccaac014610518578063f510d90814610536578063fa2dcd9314610540575b600080fd5b61018d61054a565b60405161019a919061401a565b60405180910390f35b6101bd60048036038101906101b8919061393c565b610587565b005b6101c761065c565b6040516101d4919061401a565b60405180910390f35b6101e561067c565b6040516101f2919061411a565b60405180910390f35b610215600480360381019061021091906138ae565b610682565b604051610225949392919061415e565b60405180910390f35b61023661072f565b6040516102439190613ee7565b60405180910390f35b610254610755565b005b610270600480360381019061026b91906137f7565b6108c2565b60405161027d919061411a565b60405180910390f35b6102a0600480360381019061029b9190613900565b610a19565b005b6102aa610da9565b6040516102b79190613ee7565b60405180910390f35b6102c8610dd2565b6040516102d5919061411a565b60405180910390f35b6102e6610dd8565b6040516102f3919061401a565b60405180910390f35b610304610e15565b604051610311919061411a565b60405180910390f35b610334600480360381019061032f91906138ae565b6110f9565b604051610342929190614135565b60405180910390f35b61035361115d565b6040516103609190613fc2565b60405180910390f35b61037161134a565b60405161037e9190613fe4565b60405180910390f35b6103a1600480360381019061039c9190613849565b61135d565b6040516103ae919061411a565b60405180910390f35b6103bf6114cb565b6040516103cc9190613ee7565b60405180910390f35b6103dd6114f1565b6040516103ea919061411a565b60405180910390f35b6103fb611859565b604051610408919061401a565b60405180910390f35b610419611879565b6040516104269190613fe4565b60405180910390f35b61044960048036038101906104449190613885565b611890565b604051610456919061411a565b60405180910390f35b610467611948565b604051610475929190614135565b60405180910390f35b610498600480360381019061049391906138ae565b61196c565b005b6104b460048036038101906104af91906138ae565b611d07565b005b6104be61208e565b6040516104cb9190613fff565b60405180910390f35b6104dc6120b4565b005b6104e6612492565b6040516104f3919061411a565b60405180910390f35b610516600480360381019061051191906137ce565b612498565b005b61052061268a565b60405161052d919061401a565b60405180910390f35b61053e6126aa565b005b610548612814565b005b60606040518060400160405280600b81526020017f43727970746f496e646578000000000000000000000000000000000000000000815250905090565b61058f6128f0565b73ffffffffffffffffffffffffffffffffffffffff166105ad610da9565b73ffffffffffffffffffffffffffffffffffffffff1614610636576040517f08c379a00000000000000000000000000000000000000000000000000000000081526004018080602001828103825260208152602001807f4f776e61626c653a2063616c6c6572206973206e6f7420746865206f776e657281525060200191505060405180910390fd5b81600260156101000a81548160ff021916908360ff160217905550806003819055505050565b60606040518060800160405280604981526020016144e860499139905090565b600d5481565b6006818154811061069257600080fd5b90600052602060002090600402016000915090508060000160009054906101000a900460ff16908060000160019054906101000a900473ffffffffffffffffffffffffffffffffffffffff16908060010160009054906101000a900473ffffffffffffffffffffffffffffffffffffffff16908060030160009054906101000a900473ffffffffffffffffffffffffffffffffffffffff16905084565b600260019054906101000a900473ffffffffffffffffffffffffffffffffffffffff1681565b61075d6128f0565b73ffffffffffffffffffffffffffffffffffffffff1661077b610da9565b73ffffffffffffffffffffffffffffffffffffffff1614610804576040517f08c379a00000000000000000000000000000000000000000000000000000000081526004018080602001828103825260208152602001807f4f776e61626c653a2063616c6c6572206973206e6f7420746865206f776e657281525060200191505060405180910390fd5b600073ffffffffffffffffffffffffffffffffffffffff1660008054906101000a900473ffffffffffffffffffffffffffffffffffffffff1673ffffffffffffffffffffffffffffffffffffffff167f8be0079c531659141344cd1fd0a4f28419497f9722a3daafe3b4186f6b6457e060405160405180910390a360008060006101000a81548173ffffffffffffffffffffffffffffffffffffffff021916908373ffffffffffffffffffffffffffffffffffffffff160217905550565b6000811561097157600b60009054906101000a900473ffffffffffffffffffffffffffffffffffffffff1673ffffffffffffffffffffffffffffffffffffffff166334ce998a6040518163ffffffff1660e01b815260040160206040518083038186803b15801561093257600080fd5b505afa158015610946573d6000803e3d6000fd5b505050506040513d601f19601f8201168201806040525081019061096a91906138d7565b9050610a14565b600a60009054906101000a900473ffffffffffffffffffffffffffffffffffffffff1673ffffffffffffffffffffffffffffffffffffffff166334ce998a6040518163ffffffff1660e01b815260040160206040518083038186803b1580156109d957600080fd5b505afa1580156109ed573d6000803e3d6000fd5b505050506040513d601f19601f82011682018060405250810190610a1191906138d7565b90505b919050565b60026001541415610a92576040517f08c379a000000000000000000000000000000000000000000000000000000000815260040180806020018281038252601f8152602001807f5265656e7472616e637947756172643a207265656e7472616e742063616c6c0081525060200191505060405180910390fd5b6002600181905550600560009054906101000a900460ff1615610aea576040517f08c379a0000000000000000000000000000000000000000000000000000000008152600401610ae19061405c565b60405180910390fd5b600260009054906101000a900460ff1615610b3a576040517f08c379a0000000000000000000000000000000000000000000000000000000008152600401610b319061409c565b60405180910390fd5b600081610b6957600a60009054906101000a900473ffffffffffffffffffffffffffffffffffffffff16610b8d565b600b60009054906101000a900473ffffffffffffffffffffffffffffffffffffffff165b9050828173ffffffffffffffffffffffffffffffffffffffff166334ce998a6040518163ffffffff1660e01b815260040160206040518083038186803b158015610bd657600080fd5b505afa158015610bea573d6000803e3d6000fd5b505050506040513d601f19601f82011682018060405250810190610c0e91906138d7565b1015610c4f576040517f08c379a0000000000000000000000000000000000000000000000000000000008152600401610c469061407c565b60405180910390fd5b81610c7c57600260019054906101000a900473ffffffffffffffffffffffffffffffffffffffff16610ca0565b600860009054906101000a900473ffffffffffffffffffffffffffffffffffffffff165b73ffffffffffffffffffffffffffffffffffffffff1663a9059cbb33856040518363ffffffff1660e01b8152600401610cda929190613f02565b602060405180830381600087803b158015610cf457600080fd5b505af1158015610d08573d6000803e3d6000fd5b505050506040513d601f19601f82011682018060405250810190610d2c9190613820565b508073ffffffffffffffffffffffffffffffffffffffff1663cca5e4b1338560006040518463ffffffff1660e01b8152600401610d6b93929190613f2b565b600060405180830381600087803b158015610d8557600080fd5b505af1158015610d99573d6000803e3d6000fd5b5050505050600180819055505050565b60008060009054906101000a900473ffffffffffffffffffffffffffffffffffffffff16905090565b600e5481565b60606040518060400160405280600781526020017f4352595054495800000000000000000000000000000000000000000000000000815250905090565b60008060005b6006805490508110156110dd57600060068281548110610e3757fe5b90600052602060002090600402016040518060a00160405290816000820160009054906101000a900460ff1660ff1660ff1681526020016000820160019054906101000a900473ffffffffffffffffffffffffffffffffffffffff1673ffffffffffffffffffffffffffffffffffffffff1673ffffffffffffffffffffffffffffffffffffffff1681526020016001820160009054906101000a900473ffffffffffffffffffffffffffffffffffffffff1673ffffffffffffffffffffffffffffffffffffffff1673ffffffffffffffffffffffffffffffffffffffff16815260200160028201600280602002604051908101604052809291908260028015610f7f576020028201916000905b82829054906101000a900462ffffff1662ffffff1681526020019060030190602082600201049283019260010382029150808411610f445790505b505050505081526020016003820160009054906101000a900473ffffffffffffffffffffffffffffffffffffffff1673ffffffffffffffffffffffffffffffffffffffff1673ffffffffffffffffffffffffffffffffffffffff168152505090506110cd6110be60646110b0846000015160ff16600760009054906101000a900473ffffffffffffffffffffffffffffffffffffffff1673ffffffffffffffffffffffffffffffffffffffff166341976e0987604001516040518263ffffffff1660e01b81526004016110529190613ee7565b60206040518083038186803b15801561106a57600080fd5b505afa15801561107e573d6000803e3d6000fd5b505050506040513d601f19601f820116820180604052508101906110a291906138d7565b6128f890919063ffffffff16565b61297e90919063ffffffff16565b84612a0790919063ffffffff16565b9250508080600101915050610e1b565b506110f36004548261297e90919063ffffffff16565b91505090565b6000806000611137600260159054906101000a900460ff1660ff166111296003548761297e90919063ffffffff16565b6128f890919063ffffffff16565b9050600061114e8286612a8f90919063ffffffff16565b90508181935093505050915091565b60606006805480602002602001604051908101604052809291908181526020016000905b8282101561134157838290600052602060002090600402016040518060a00160405290816000820160009054906101000a900460ff1660ff1660ff1681526020016000820160019054906101000a900473ffffffffffffffffffffffffffffffffffffffff1673ffffffffffffffffffffffffffffffffffffffff1673ffffffffffffffffffffffffffffffffffffffff1681526020016001820160009054906101000a900473ffffffffffffffffffffffffffffffffffffffff1673ffffffffffffffffffffffffffffffffffffffff1673ffffffffffffffffffffffffffffffffffffffff168152602001600282016002806020026040519081016040528092919082600280156112d3576020028201916000905b82829054906101000a900462ffffff1662ffffff16815260200190600301906020826002010492830192600103820291508084116112985790505b505050505081526020016003820160009054906101000a900473ffffffffffffffffffffffffffffffffffffffff1673ffffffffffffffffffffffffffffffffffffffff1673ffffffffffffffffffffffffffffffffffffffff168152505081526020019060010190611181565b50505050905090565b600260009054906101000a900460ff1681565b6000821561141757600b60009054906101000a900473ffffffffffffffffffffffffffffffffffffffff1673ffffffffffffffffffffffffffffffffffffffff1663e65896c9836040518263ffffffff1660e01b81526004016113c09190613ee7565b60206040518083038186803b1580156113d857600080fd5b505afa1580156113ec573d6000803e3d6000fd5b505050506040513d601f19601f8201168201806040525081019061141091906138d7565b90506114c5565b600a60009054906101000a900473ffffffffffffffffffffffffffffffffffffffff1673ffffffffffffffffffffffffffffffffffffffff1663e65896c9836040518263ffffffff1660e01b81526004016114729190613ee7565b60206040518083038186803b15801561148a57600080fd5b505afa15801561149e573d6000803e3d6000fd5b505050506040513d601f19601f820116820180604052508101906114c291906138d7565b90505b92915050565b600960009054906101000a900473ffffffffffffffffffffffffffffffffffffffff1681565b60008060005b6006805490508110156118515760006006828154811061151357fe5b90600052602060002090600402016040518060a00160405290816000820160009054906101000a900460ff1660ff1660ff1681526020016000820160019054906101000a900473ffffffffffffffffffffffffffffffffffffffff1673ffffffffffffffffffffffffffffffffffffffff1673ffffffffffffffffffffffffffffffffffffffff1681526020016001820160009054906101000a900473ffffffffffffffffffffffffffffffffffffffff1673ffffffffffffffffffffffffffffffffffffffff1673ffffffffffffffffffffffffffffffffffffffff1681526020016002820160028060200260405190810160405280929190826002801561165b576020028201916000905b82829054906101000a900462ffffff1662ffffff16815260200190600301906020826002010492830192600103820291508084116116205790505b505050505081526020016003820160009054906101000a900473ffffffffffffffffffffffffffffffffffffffff1673ffffffffffffffffffffffffffffffffffffffff1673ffffffffffffffffffffffffffffffffffffffff168152505090506000816020015190506000611810600760009054906101000a900473ffffffffffffffffffffffffffffffffffffffff1673ffffffffffffffffffffffffffffffffffffffff166341976e0985604001516040518263ffffffff1660e01b81526004016117299190613ee7565b60206040518083038186803b15801561174157600080fd5b505afa158015611755573d6000803e3d6000fd5b505050506040513d601f19601f8201168201806040525081019061177991906138d7565b8373ffffffffffffffffffffffffffffffffffffffff166370a08231306040518263ffffffff1660e01b81526004016117b29190613ee7565b60206040518083038186803b1580156117ca57600080fd5b505afa1580156117de573d6000803e3d6000fd5b505050506040513d601f19601f8201168201806040525081019061180291906138d7565b6128f890919063ffffffff16565b905061183f611830670de0b6b3a76400008361297e90919063ffffffff16565b86612a0790919063ffffffff16565b945050505080806001019150506114f7565b508091505090565b60606040518060800160405280604981526020016144e860499139905090565b6000600560009054906101000a900460ff16905090565b6000600760009054906101000a900473ffffffffffffffffffffffffffffffffffffffff1673ffffffffffffffffffffffffffffffffffffffff166341976e0983604001516040518263ffffffff1660e01b81526004016118f19190613ee7565b60206040518083038186803b15801561190957600080fd5b505afa15801561191d573d6000803e3d6000fd5b505050506040513d601f19601f8201168201806040525081019061194191906138d7565b9050919050565b600080600260159054906101000a900460ff166003548160ff169150915091509091565b600260015414156119e5576040517f08c379a000000000000000000000000000000000000000000000000000000000815260040180806020018281038252601f8152602001807f5265656e7472616e637947756172643a207265656e7472616e742063616c6c0081525060200191505060405180910390fd5b6002600181905550600560009054906101000a900460ff1615611a3d576040517f08c379a0000000000000000000000000000000000000000000000000000000008152600401611a349061405c565b60405180910390fd5b6000611a47610e15565b9050600080611a55846110f9565b915091506001811015611a9d576040517f08c379a0000000000000000000000000000000000000000000000000000000008152600401611a949061403c565b60405180910390fd5b6000611acc670de0b6b3a7640000611abe86856128f890919063ffffffff16565b61297e90919063ffffffff16565b9050611ae381600e54612a0790919063ffffffff16565b600e81905550600b60009054906101000a900473ffffffffffffffffffffffffffffffffffffffff1673ffffffffffffffffffffffffffffffffffffffff1663cca5e4b1338360016040518463ffffffff1660e01b8152600401611b4993929190613f2b565b600060405180830381600087803b158015611b6357600080fd5b505af1158015611b77573d6000803e3d6000fd5b50505050611bd5600260019054906101000a900473ffffffffffffffffffffffffffffffffffffffff163330611bd0670de0b6b3a7640000611bc28a8c6128f890919063ffffffff16565b61297e90919063ffffffff16565b612b12565b6000600260019054906101000a900473ffffffffffffffffffffffffffffffffffffffff1690508073ffffffffffffffffffffffffffffffffffffffff1663a9059cbb611c20610da9565b611c4d670de0b6b3a7640000611c3f8a8a6128f890919063ffffffff16565b61297e90919063ffffffff16565b6040518363ffffffff1660e01b8152600401611c6a929190613f99565b602060405180830381600087803b158015611c8457600080fd5b505af1158015611c98573d6000803e3d6000fd5b505050506040513d601f19601f82011682018060405250810190611cbc9190613820565b507fc032f62758cac23a902e648ab54b6825665b9bc19e7cd0a8ab915cbf3eea4fa0338385604051611cf093929190613f62565b60405180910390a150505050506001808190555050565b60026001541415611d80576040517f08c379a000000000000000000000000000000000000000000000000000000000815260040180806020018281038252601f8152602001807f5265656e7472616e637947756172643a207265656e7472616e742063616c6c0081525060200191505060405180910390fd5b6002600181905550600560009054906101000a900460ff1615611dd8576040517f08c379a0000000000000000000000000000000000000000000000000000000008152600401611dcf9061405c565b60405180910390fd5b600260009054906101000a900460ff1615611e28576040517f08c379a0000000000000000000000000000000000000000000000000000000008152600401611e1f9061409c565b60405180910390fd5b600080611e34836110f9565b915091506001811015611e7c576040517f08c379a0000000000000000000000000000000000000000000000000000000008152600401611e73906140bc565b60405180910390fd5b6000611eb2670de0b6b3a7640000611ea4611e95610e15565b856128f890919063ffffffff16565b61297e90919063ffffffff16565b9050611ec9600d5483612a0790919063ffffffff16565b600d81905550600a60009054906101000a900473ffffffffffffffffffffffffffffffffffffffff1673ffffffffffffffffffffffffffffffffffffffff1663cca5e4b1338360016040518463ffffffff1660e01b8152600401611f2f93929190613f2b565b600060405180830381600087803b158015611f4957600080fd5b505af1158015611f5d573d6000803e3d6000fd5b50505050611f8f600860009054906101000a900473ffffffffffffffffffffffffffffffffffffffff16333087612b12565b600860009054906101000a900473ffffffffffffffffffffffffffffffffffffffff1673ffffffffffffffffffffffffffffffffffffffff1663a9059cbb611fd5610da9565b856040518363ffffffff1660e01b8152600401611ff3929190613f99565b602060405180830381600087803b15801561200d57600080fd5b505af1158015612021573d6000803e3d6000fd5b505050506040513d601f19601f820116820180604052508101906120459190613820565b507fc779ed4173ee0a3293a6575326fb4fcb5c81023bbc481cf910100c0fbe836e3333828460405161207993929190613f62565b60405180910390a15050506001808190555050565b600860009054906101000a900473ffffffffffffffffffffffffffffffffffffffff1681565b6120bc6128f0565b73ffffffffffffffffffffffffffffffffffffffff166120da610da9565b73ffffffffffffffffffffffffffffffffffffffff1614612163576040517f08c379a00000000000000000000000000000000000000000000000000000000081526004018080602001828103825260208152602001807f4f776e61626c653a2063616c6c6572206973206e6f7420746865206f776e657281525060200191505060405180910390fd5b6001600c60008282540192505081905550600160068054905003600c54111561218f576000600c819055505b60006006600c54815481106121a057fe5b90600052602060002090600402016040518060a00160405290816000820160009054906101000a900460ff1660ff1660ff1681526020016000820160019054906101000a900473ffffffffffffffffffffffffffffffffffffffff1673ffffffffffffffffffffffffffffffffffffffff1673ffffffffffffffffffffffffffffffffffffffff1681526020016001820160009054906101000a900473ffffffffffffffffffffffffffffffffffffffff1673ffffffffffffffffffffffffffffffffffffffff1673ffffffffffffffffffffffffffffffffffffffff168152602001600282016002806020026040519081016040528092919082600280156122e8576020028201916000905b82829054906101000a900462ffffff1662ffffff16815260200190600301906020826002010492830192600103820291508084116122ad5790505b505050505081526020016003820160009054906101000a900473ffffffffffffffffffffffffffffffffffffffff1673ffffffffffffffffffffffffffffffffffffffff1673ffffffffffffffffffffffffffffffffffffffff16815250509050600061237a826000015160ff1661236c6064600e5461297e90919063ffffffff16565b6128f890919063ffffffff16565b905060006123ad836000015160ff1661239f6064600d5461297e90919063ffffffff16565b6128f890919063ffffffff16565b90506000600760009054906101000a900473ffffffffffffffffffffffffffffffffffffffff1673ffffffffffffffffffffffffffffffffffffffff166341976e0985604001516040518263ffffffff1660e01b81526004016124109190613ee7565b60206040518083038186803b15801561242857600080fd5b505afa15801561243c573d6000803e3d6000fd5b505050506040513d601f19601f8201168201806040525081019061246091906138d7565b9050600083111561247757612476848483612d32565b5b600082111561248c5761248b8483836130ad565b5b50505050565b600c5481565b6124a06128f0565b73ffffffffffffffffffffffffffffffffffffffff166124be610da9565b73ffffffffffffffffffffffffffffffffffffffff1614612547576040517f08c379a00000000000000000000000000000000000000000000000000000000081526004018080602001828103825260208152602001807f4f776e61626c653a2063616c6c6572206973206e6f7420746865206f776e657281525060200191505060405180910390fd5b600073ffffffffffffffffffffffffffffffffffffffff168173ffffffffffffffffffffffffffffffffffffffff1614156125cd576040517f08c379a00000000000000000000000000000000000000000000000000000000081526004018080602001828103825260268152602001806144606026913960400191505060405180910390fd5b8073ffffffffffffffffffffffffffffffffffffffff1660008054906101000a900473ffffffffffffffffffffffffffffffffffffffff1673ffffffffffffffffffffffffffffffffffffffff167f8be0079c531659141344cd1fd0a4f28419497f9722a3daafe3b4186f6b6457e060405160405180910390a3806000806101000a81548173ffffffffffffffffffffffffffffffffffffffff021916908373ffffffffffffffffffffffffffffffffffffffff16021790555050565b606060405180608001604052806041815260200161448660419139905090565b6126b26128f0565b73ffffffffffffffffffffffffffffffffffffffff166126d0610da9565b73ffffffffffffffffffffffffffffffffffffffff1614612759576040517f08c379a00000000000000000000000000000000000000000000000000000000081526004018080602001828103825260208152602001807f4f776e61626c653a2063616c6c6572206973206e6f7420746865206f776e657281525060200191505060405180910390fd5b6001600560006101000a81548160ff0219169083151502179055506127c3600260019054906101000a900473ffffffffffffffffffffffffffffffffffffffff167f0000000000000000000000000000000000000000000000000000000000000000600e54613428565b612812600860009054906101000a900473ffffffffffffffffffffffffffffffffffffffff167f0000000000000000000000000000000000000000000000000000000000000000600d54613428565b565b61281c6128f0565b73ffffffffffffffffffffffffffffffffffffffff1661283a610da9565b73ffffffffffffffffffffffffffffffffffffffff16146128c3576040517f08c379a00000000000000000000000000000000000000000000000000000000081526004018080602001828103825260208152602001807f4f776e61626c653a2063616c6c6572206973206e6f7420746865206f776e657281525060200191505060405180910390fd5b6000600e819055506000600d819055506000600560006101000a81548160ff021916908315150217905550565b600033905090565b60008083141561290b5760009050612978565b600082840290508284828161291c57fe5b0414612973576040517f08c379a00000000000000000000000000000000000000000000000000000000081526004018080602001828103825260218152602001806144c76021913960400191505060405180910390fd5b809150505b92915050565b60008082116129f5576040517f08c379a000000000000000000000000000000000000000000000000000000000815260040180806020018281038252601a8152602001807f536166654d6174683a206469766973696f6e206279207a65726f00000000000081525060200191505060405180910390fd5b8183816129fe57fe5b04905092915050565b600080828401905083811015612a85576040517f08c379a000000000000000000000000000000000000000000000000000000000815260040180806020018281038252601b8152602001807f536166654d6174683a206164646974696f6e206f766572666c6f77000000000081525060200191505060405180910390fd5b8091505092915050565b600082821115612b07576040517f08c379a000000000000000000000000000000000000000000000000000000000815260040180806020018281038252601e8152602001807f536166654d6174683a207375627472616374696f6e206f766572666c6f77000081525060200191505060405180910390fd5b818303905092915050565b6000808573ffffffffffffffffffffffffffffffffffffffff166323b872dd60e01b868686604051602401808473ffffffffffffffffffffffffffffffffffffffff1681526020018373ffffffffffffffffffffffffffffffffffffffff1681526020018281526020019350505050604051602081830303815290604052907bffffffffffffffffffffffffffffffffffffffffffffffffffffffff19166020820180517bffffffffffffffffffffffffffffffffffffffffffffffffffffffff83818316178352505050506040518082805190602001908083835b60208310612c115780518252602082019150602081019050602083039250612bee565b6001836020036101000a0380198251168184511680821785525050505050509050019150506000604051808303816000865af19150503d8060008114612c73576040519150601f19603f3d011682016040523d82523d6000602084013e612c78565b606091505b5091509150818015612cb85750600081511480612cb75750808060200190516020811015612ca557600080fd5b81019080805190602001909291905050505b5b612d2a576040517f08c379a00000000000000000000000000000000000000000000000000000000081526004018080602001828103825260038152602001807f535446000000000000000000000000000000000000000000000000000000000081525060200191505060405180910390fd5b505050505050565b60007f000000000000000000000000000000000000000000000000000000000000000090506000612d8683612d78670de0b6b3a7640000876128f890919063ffffffff16565b61297e90919063ffffffff16565b90506000612dc3612db46064612da66001896128f890919063ffffffff16565b61297e90919063ffffffff16565b86612a0790919063ffffffff16565b9050600073ffffffffffffffffffffffffffffffffffffffff16866080015173ffffffffffffffffffffffffffffffffffffffff161415612f61578273ffffffffffffffffffffffffffffffffffffffff1663db3e2198604051806101000160405280600260019054906101000a900473ffffffffffffffffffffffffffffffffffffffff1673ffffffffffffffffffffffffffffffffffffffff168152602001896020015173ffffffffffffffffffffffffffffffffffffffff1681526020018960600151600060028110612e9557fe5b602002015162ffffff1681526020013073ffffffffffffffffffffffffffffffffffffffff168152602001428152602001858152602001848152602001600073ffffffffffffffffffffffffffffffffffffffff168152506040518263ffffffff1660e01b8152600401612f0991906140fe565b602060405180830381600087803b158015612f2357600080fd5b505af1158015612f37573d6000803e3d6000fd5b505050506040513d601f19601f82011682018060405250810190612f5b91906138d7565b506130a5565b8273ffffffffffffffffffffffffffffffffffffffff1663f28c04986040518060a0016040528089602001518a60600151600160028110612f9e57fe5b60200201518b608001518c60600151600060028110612fb957fe5b6020020151600260019054906101000a900473ffffffffffffffffffffffffffffffffffffffff16604051602001612ff5959493929190613e88565b60405160208183030381529060405281526020013073ffffffffffffffffffffffffffffffffffffffff168152602001428152602001858152602001848152506040518263ffffffff1660e01b815260040161305191906140dc565b602060405180830381600087803b15801561306b57600080fd5b505af115801561307f573d6000803e3d6000fd5b505050506040513d601f19601f820116820180604052508101906130a391906138d7565b505b505050505050565b60007f000000000000000000000000000000000000000000000000000000000000000090506000613101836130f3670de0b6b3a7640000876128f890919063ffffffff16565b61297e90919063ffffffff16565b9050600061313e61312f60646131216001896128f890919063ffffffff16565b61297e90919063ffffffff16565b86612a0790919063ffffffff16565b9050600073ffffffffffffffffffffffffffffffffffffffff16866080015173ffffffffffffffffffffffffffffffffffffffff1614156132dc578273ffffffffffffffffffffffffffffffffffffffff1663db3e2198604051806101000160405280600260019054906101000a900473ffffffffffffffffffffffffffffffffffffffff1673ffffffffffffffffffffffffffffffffffffffff168152602001896020015173ffffffffffffffffffffffffffffffffffffffff168152602001896060015160006002811061321057fe5b602002015162ffffff1681526020013073ffffffffffffffffffffffffffffffffffffffff168152602001428152602001858152602001848152602001600073ffffffffffffffffffffffffffffffffffffffff168152506040518263ffffffff1660e01b815260040161328491906140fe565b602060405180830381600087803b15801561329e57600080fd5b505af11580156132b2573d6000803e3d6000fd5b505050506040513d601f19601f820116820180604052508101906132d691906138d7565b50613420565b8273ffffffffffffffffffffffffffffffffffffffff1663f28c04986040518060a00160405280600260019054906101000a900473ffffffffffffffffffffffffffffffffffffffff168a6060015160006002811061333757fe5b60200201518b608001518c6060015160016002811061335257fe5b60200201518d60200151604051602001613370959493929190613e88565b60405160208183030381529060405281526020013073ffffffffffffffffffffffffffffffffffffffff168152602001428152602001858152602001848152506040518263ffffffff1660e01b81526004016133cc91906140dc565b602060405180830381600087803b1580156133e657600080fd5b505af11580156133fa573d6000803e3d6000fd5b505050506040513d601f19601f8201168201806040525081019061341e91906138d7565b505b505050505050565b6000808473ffffffffffffffffffffffffffffffffffffffff1663095ea7b360e01b8585604051602401808373ffffffffffffffffffffffffffffffffffffffff16815260200182815260200192505050604051602081830303815290604052907bffffffffffffffffffffffffffffffffffffffffffffffffffffffff19166020820180517bffffffffffffffffffffffffffffffffffffffffffffffffffffffff83818316178352505050506040518082805190602001908083835b6020831061350957805182526020820191506020810190506020830392506134e6565b6001836020036101000a0380198251168184511680821785525050505050509050019150506000604051808303816000865af19150503d806000811461356b576040519150601f19603f3d011682016040523d82523d6000602084013e613570565b606091505b50915091508180156135b057506000815114806135af575080806020019051602081101561359d57600080fd5b81019080805190602001909291905050505b5b613622576040517f08c379a00000000000000000000000000000000000000000000000000000000081526004018080602001828103825260028152602001807f534100000000000000000000000000000000000000000000000000000000000081525060200191505060405180910390fd5b5050505050565b600061363c613637846141d4565b6141a3565b9050808285602086028201111561365257600080fd5b60005b858110156136825781613668888261377a565b845260208401935060208301925050600181019050613655565b5050509392505050565b60008135905061369b816143ec565b92915050565b600082601f8301126136b257600080fd5b60026136bf848285613629565b91505092915050565b6000813590506136d781614403565b92915050565b6000815190506136ec81614403565b92915050565b600060c0828403121561370457600080fd5b61370e60a06141a3565b9050600061371e848285016137b9565b60008301525060206137328482850161368c565b60208301525060406137468482850161368c565b604083015250606061375a848285016136a1565b60608301525060a061376e8482850161368c565b60808301525092915050565b6000813590506137898161441a565b92915050565b60008135905061379e81614431565b92915050565b6000815190506137b381614431565b92915050565b6000813590506137c881614448565b92915050565b6000602082840312156137e057600080fd5b60006137ee8482850161368c565b91505092915050565b60006020828403121561380957600080fd5b6000613817848285016136c8565b91505092915050565b60006020828403121561383257600080fd5b6000613840848285016136dd565b91505092915050565b6000806040838503121561385c57600080fd5b600061386a858286016136c8565b925050602061387b8582860161368c565b9150509250929050565b600060c0828403121561389757600080fd5b60006138a5848285016136f2565b91505092915050565b6000602082840312156138c057600080fd5b60006138ce8482850161378f565b91505092915050565b6000602082840312156138e957600080fd5b60006138f7848285016137a4565b91505092915050565b6000806040838503121561391357600080fd5b60006139218582860161378f565b9250506020613932858286016136c8565b9150509250929050565b6000806040838503121561394f57600080fd5b600061395d858286016137b9565b925050602061396e8582860161378f565b9150509250929050565b60006139848383613daf565b60c08301905092915050565b600061399c8383613e26565b60208301905092915050565b6139b1816142fc565b82525050565b6139c081614298565b82525050565b6139cf81614298565b82525050565b6139e66139e182614298565b614389565b82525050565b60006139f782614214565b613a01818561425a565b9350613a0c836141fa565b8060005b83811015613a3d578151613a248882613978565b9750613a2f83614240565b925050600181019050613a10565b5085935050505092915050565b613a538161421f565b613a5d818461426b565b9250613a688261420a565b8060005b83811015613a99578151613a808782613990565b9650613a8b8361424d565b925050600181019050613a6c565b505050505050565b613aaa816142aa565b82525050565b6000613abb8261422a565b613ac58185614276565b9350613ad5818560208601614356565b613ade816143c1565b840191505092915050565b613af28161430e565b82525050565b6000613b0382614235565b613b0d8185614287565b9350613b1d818560208601614356565b613b26816143c1565b840191505092915050565b6000613b3e601683614287565b91507f4e6f7420656e6f75676820746f6b656e732073656e74000000000000000000006000830152602082019050919050565b6000613b7e602983614287565b91507f50726f64756374206973206265696e6720736574746c65642c2074727920616760008301527f61696e206c6174657200000000000000000000000000000000000000000000006020830152604082019050919050565b6000613be4601583614287565b91507f4e6f7420656e6f75676820746f74616c206465627400000000000000000000006000830152602082019050919050565b6000613c24601183614287565b91507f50726f64756374206973206c6f636b65640000000000000000000000000000006000830152602082019050919050565b6000613c64601983614287565b91507f596f75206d7573742073656c6c206d6f726520746f6b656e73000000000000006000830152602082019050919050565b600060a0830160008301518482036000860152613cb48282613ab0565b9150506020830151613cc960208601826139b7565b506040830151613cdc6040860182613e4c565b506060830151613cef6060860182613e4c565b506080830151613d026080860182613e4c565b508091505092915050565b61010082016000820151613d2460008501826139b7565b506020820151613d3760208501826139b7565b506040820151613d4a6040850182613e26565b506060820151613d5d60608501826139b7565b506080820151613d706080850182613e4c565b5060a0820151613d8360a0850182613e4c565b5060c0820151613d9660c0850182613e4c565b5060e0820151613da960e0850182613e17565b50505050565b60c082016000820151613dc56000850182613e6a565b506020820151613dd860208501826139b7565b506040820151613deb60408501826139b7565b506060820151613dfe6060850182613a4a565b506080820151613e1160a08501826139b7565b50505050565b613e20816142b6565b82525050565b613e2f816142d6565b82525050565b613e46613e41826142d6565b6143ad565b82525050565b613e55816142e5565b82525050565b613e64816142e5565b82525050565b613e73816142ef565b82525050565b613e82816142ef565b82525050565b6000613e9482886139d5565b601482019150613ea48287613e35565b600382019150613eb482866139d5565b601482019150613ec48285613e35565b600382019150613ed482846139d5565b6014820191508190509695505050505050565b6000602082019050613efc60008301846139c6565b92915050565b6000604082019050613f1760008301856139a8565b613f246020830184613e5b565b9392505050565b6000606082019050613f4060008301866139a8565b613f4d6020830185613e5b565b613f5a6040830184613aa1565b949350505050565b6000606082019050613f7760008301866139a8565b613f846020830185613e5b565b613f916040830184613e5b565b949350505050565b6000604082019050613fae60008301856139c6565b613fbb6020830184613e5b565b9392505050565b60006020820190508181036000830152613fdc81846139ec565b905092915050565b6000602082019050613ff96000830184613aa1565b92915050565b60006020820190506140146000830184613ae9565b92915050565b600060208201905081810360008301526140348184613af8565b905092915050565b6000602082019050818103600083015261405581613b31565b9050919050565b6000602082019050818103600083015261407581613b71565b9050919050565b6000602082019050818103600083015261409581613bd7565b9050919050565b600060208201905081810360008301526140b581613c17565b9050919050565b600060208201905081810360008301526140d581613c57565b9050919050565b600060208201905081810360008301526140f68184613c97565b905092915050565b6000610100820190506141146000830184613d0d565b92915050565b600060208201905061412f6000830184613e5b565b92915050565b600060408201905061414a6000830185613e5b565b6141576020830184613e5b565b9392505050565b60006080820190506141736000830187613e79565b61418060208301866139c6565b61418d60408301856139c6565b61419a60608301846139c6565b95945050505050565b6000604051905081810181811067ffffffffffffffff821117156141ca576141c96143bf565b5b8060405250919050565b600067ffffffffffffffff8211156141ef576141ee6143bf565b5b602082029050919050565b6000819050602082019050919050565b6000819050919050565b600081519050919050565b600060029050919050565b600081519050919050565b600081519050919050565b6000602082019050919050565b6000602082019050919050565b600082825260208201905092915050565b600081905092915050565b600082825260208201905092915050565b600082825260208201905092915050565b60006142a3826142b6565b9050919050565b60008115159050919050565b600073ffffffffffffffffffffffffffffffffffffffff82169050919050565b600062ffffff82169050919050565b6000819050919050565b600060ff82169050919050565b600061430782614332565b9050919050565b600061431982614320565b9050919050565b600061432b826142b6565b9050919050565b600061433d82614344565b9050919050565b600061434f826142b6565b9050919050565b60005b83811015614374578082015181840152602081019050614359565b83811115614383576000848401525b50505050565b60006143948261439b565b9050919050565b60006143a6826143df565b9050919050565b60006143b8826143d2565b9050919050565bfe5b6000601f19601f8301169050919050565b60008160e81b9050919050565b60008160601b9050919050565b6143f581614298565b811461440057600080fd5b50565b61440c816142aa565b811461441757600080fd5b50565b614423816142d6565b811461442e57600080fd5b50565b61443a816142e5565b811461444557600080fd5b50565b614451816142ef565b811461445c57600080fd5b5056fe4f776e61626c653a206e6577206f776e657220697320746865207a65726f206164647265737368747470733a2f2f63727970746f6c6f676f732e63632f6c6f676f732f706f6c796d6174682d6e6574776f726b2d706f6c792d6c6f676f2e706e673f763d303232536166654d6174683a206d756c7469706c69636174696f6e206f766572666c6f77436f7272656c6174696f6e20696e646578206973206120746f6f6c207468617420616c6c6f777320796f7520746f2064697665727369667920796f757220696e766573746d656e7473a26469706673582212209e81dd87e648b0ec4ff1437dae5c003fd8e9c24fb59d8117bfad31dd3f6f8ceb64736f6c6343000706003360806040523480156200001157600080fd5b50604051620012ff380380620012ff833981810160405281019062000037919062000225565b83600560006101000a81548173ffffffffffffffffffffffffffffffffffffffff021916908373ffffffffffffffffffffffffffffffffffffffff160217905550826002908051906020019062000090929190620000cf565b5081600360006101000a81548160ff021916908360ff1602179055508060049080519060200190620000c4929190620000cf565b5050505050620003d7565b828054600181600116156101000203166002900490600052602060002090601f01602090048101928262000107576000855562000153565b82601f106200012257805160ff191683800117855562000153565b8280016001018555821562000153579182015b828111156200015257825182559160200191906001019062000135565b5b50905062000162919062000166565b5090565b5b808211156200018157600081600090555060010162000167565b5090565b60006200019c6200019684620002f7565b620002c3565b905082815260208101848484011115620001b557600080fd5b620001c28482856200036b565b509392505050565b600081519050620001db81620003a3565b92915050565b600082601f830112620001f357600080fd5b81516200020584826020860162000185565b91505092915050565b6000815190506200021f81620003bd565b92915050565b600080600080608085870312156200023c57600080fd5b60006200024c87828801620001ca565b945050602085015167ffffffffffffffff8111156200026a57600080fd5b6200027887828801620001e1565b93505060406200028b878288016200020e565b925050606085015167ffffffffffffffff811115620002a957600080fd5b620002b787828801620001e1565b91505092959194509250565b6000604051905081810181811067ffffffffffffffff82111715620002ed57620002ec620003a1565b5b8060405250919050565b600067ffffffffffffffff821115620003155762000314620003a1565b5b601f19601f8301169050602081019050919050565b600062000337826200033e565b9050919050565b600073ffffffffffffffffffffffffffffffffffffffff82169050919050565b600060ff82169050919050565b60005b838110156200038b5780820151818401526020810190506200036e565b838111156200039b576000848401525b50505050565bfe5b620003ae816200032a565b8114620003ba57600080fd5b50565b620003c8816200035e565b8114620003d457600080fd5b50565b610f1880620003e76000396000f3fe608060405234801561001057600080fd5b50600436106100995760003560e01c806306fdde031461009e578063095ea7b3146100bc5780630cf1fd36146100ec57806323b872dd1461010a57806327e235e31461013a578063313ce5671461016a5780635c6581651461018857806370a08231146101b857806395d89b41146101e8578063a9059cbb14610206578063dd62ed3e14610236575b600080fd5b6100a6610266565b6040516100b39190610d67565b60405180910390f35b6100d660048036038101906100d19190610bb4565b610304565b6040516100e39190610d4c565b60405180910390f35b6100f46103f6565b6040516101019190610d31565b60405180910390f35b610124600480360381019061011f9190610b65565b61041c565b6040516101319190610d4c565b60405180910390f35b610154600480360381019061014f9190610b00565b6106e7565b6040516101619190610dc9565b60405180910390f35b6101726106ff565b60405161017f9190610de4565b60405180910390f35b6101a2600480360381019061019d9190610b29565b610712565b6040516101af9190610dc9565b60405180910390f35b6101d260048036038101906101cd9190610b00565b610737565b6040516101df9190610dc9565b60405180910390f35b6101f061077f565b6040516101fd9190610d67565b60405180910390f35b610220600480360381019061021b9190610bb4565b61081d565b60405161022d9190610d4c565b60405180910390f35b610250600480360381019061024b9190610b29565b610a4f565b60405161025d9190610dc9565b60405180910390f35b60028054600181600116156101000203166002900480601f0160208091040260200160405190810160405280929190818152602001828054600181600116156101000203166002900480156102fc5780601f106102d1576101008083540402835291602001916102fc565b820191906000526020600020905b8154815290600101906020018083116102df57829003601f168201915b505050505081565b600081600160003373ffffffffffffffffffffffffffffffffffffffff1673ffffffffffffffffffffffffffffffffffffffff16815260200190815260200160002060008573ffffffffffffffffffffffffffffffffffffffff1673ffffffffffffffffffffffffffffffffffffffff168152602001908152602001600020819055508273ffffffffffffffffffffffffffffffffffffffff163373ffffffffffffffffffffffffffffffffffffffff167f8c5be1e5ebec7d5bd14f71427d1e84f3dd0314c0f7b2291e5b200ac8c7c3b925846040516103e49190610dc9565b60405180910390a36001905092915050565b600560009054906101000a900473ffffffffffffffffffffffffffffffffffffffff1681565b600080600160008673ffffffffffffffffffffffffffffffffffffffff1673ffffffffffffffffffffffffffffffffffffffff16815260200190815260200160002060003373ffffffffffffffffffffffffffffffffffffffff1673ffffffffffffffffffffffffffffffffffffffff168152602001908152602001600020549050826000808773ffffffffffffffffffffffffffffffffffffffff1673ffffffffffffffffffffffffffffffffffffffff16815260200190815260200160002054101580156104ec5750828110155b61052b576040517f08c379a000000000000000000000000000000000000000000000000000000000815260040161052290610da9565b60405180910390fd5b826000808673ffffffffffffffffffffffffffffffffffffffff1673ffffffffffffffffffffffffffffffffffffffff16815260200190815260200160002060008282540192505081905550826000808773ffffffffffffffffffffffffffffffffffffffff1673ffffffffffffffffffffffffffffffffffffffff168152602001908152602001600020600082825403925050819055507fffffffffffffffffffffffffffffffffffffffffffffffffffffffffffffffff8110156106765782600160008773ffffffffffffffffffffffffffffffffffffffff1673ffffffffffffffffffffffffffffffffffffffff16815260200190815260200160002060003373ffffffffffffffffffffffffffffffffffffffff1673ffffffffffffffffffffffffffffffffffffffff168152602001908152602001600020600082825403925050819055505b8373ffffffffffffffffffffffffffffffffffffffff168573ffffffffffffffffffffffffffffffffffffffff167fddf252ad1be2c89b69c2b068fc378daa952ba7f163c4a11628f55a4df523b3ef856040516106d39190610dc9565b60405180910390a360019150509392505050565b60006020528060005260406000206000915090505481565b600360009054906101000a900460ff1681565b6001602052816000526040600020602052806000526040600020600091509150505481565b60008060008373ffffffffffffffffffffffffffffffffffffffff1673ffffffffffffffffffffffffffffffffffffffff168152602001908152602001600020549050919050565b60048054600181600116156101000203166002900480601f0160208091040260200160405190810160405280929190818152602001828054600181600116156101000203166002900480156108155780601f106107ea57610100808354040283529160200191610815565b820191906000526020600020905b8154815290600101906020018083116107f857829003601f168201915b505050505081565b6000600560009054906101000a900473ffffffffffffffffffffffffffffffffffffffff1673ffffffffffffffffffffffffffffffffffffffff163373ffffffffffffffffffffffffffffffffffffffff1614156108c657816000808573ffffffffffffffffffffffffffffffffffffffff1673ffffffffffffffffffffffffffffffffffffffff168152602001908152602001600020600082825401925050819055506109e0565b816000803373ffffffffffffffffffffffffffffffffffffffff1673ffffffffffffffffffffffffffffffffffffffff168152602001908152602001600020541015610947576040517f08c379a000000000000000000000000000000000000000000000000000000000815260040161093e90610d89565b60405180910390fd5b816000803373ffffffffffffffffffffffffffffffffffffffff1673ffffffffffffffffffffffffffffffffffffffff16815260200190815260200160002060008282540392505081905550816000808573ffffffffffffffffffffffffffffffffffffffff1673ffffffffffffffffffffffffffffffffffffffff168152602001908152602001600020600082825401925050819055505b8273ffffffffffffffffffffffffffffffffffffffff163373ffffffffffffffffffffffffffffffffffffffff167fddf252ad1be2c89b69c2b068fc378daa952ba7f163c4a11628f55a4df523b3ef84604051610a3d9190610dc9565b60405180910390a36001905092915050565b6000600160008473ffffffffffffffffffffffffffffffffffffffff1673ffffffffffffffffffffffffffffffffffffffff16815260200190815260200160002060008373ffffffffffffffffffffffffffffffffffffffff1673ffffffffffffffffffffffffffffffffffffffff16815260200190815260200160002054905092915050565b600081359050610ae581610eb4565b92915050565b600081359050610afa81610ecb565b92915050565b600060208284031215610b1257600080fd5b6000610b2084828501610ad6565b91505092915050565b60008060408385031215610b3c57600080fd5b6000610b4a85828601610ad6565b9250506020610b5b85828601610ad6565b9150509250929050565b600080600060608486031215610b7a57600080fd5b6000610b8886828701610ad6565b9350506020610b9986828701610ad6565b9250506040610baa86828701610aeb565b9150509250925092565b60008060408385031215610bc757600080fd5b6000610bd585828601610ad6565b9250506020610be685828601610aeb565b9150509250929050565b610bf981610e1b565b82525050565b610c0881610e2d565b82525050565b6000610c1982610dff565b610c238185610e0a565b9350610c33818560208601610e70565b610c3c81610ea3565b840191505092915050565b6000610c54602f83610e0a565b91507f746f6b656e2062616c616e6365206973206c6f776572207468616e207468652060008301527f76616c75652072657175657374656400000000000000000000000000000000006020830152604082019050919050565b6000610cba603983610e0a565b91507f746f6b656e2062616c616e6365206f7220616c6c6f77616e6365206973206c6f60008301527f776572207468616e20616d6f756e7420726571756573746564000000000000006020830152604082019050919050565b610d1c81610e59565b82525050565b610d2b81610e63565b82525050565b6000602082019050610d466000830184610bf0565b92915050565b6000602082019050610d616000830184610bff565b92915050565b60006020820190508181036000830152610d818184610c0e565b905092915050565b60006020820190508181036000830152610da281610c47565b9050919050565b60006020820190508181036000830152610dc281610cad565b9050919050565b6000602082019050610dde6000830184610d13565b92915050565b6000602082019050610df96000830184610d22565b92915050565b600081519050919050565b600082825260208201905092915050565b6000610e2682610e39565b9050919050565b60008115159050919050565b600073ffffffffffffffffffffffffffffffffffffffff82169050919050565b6000819050919050565b600060ff82169050919050565b60005b83811015610e8e578082015181840152602081019050610e73565b83811115610e9d576000848401525b50505050565b6000601f19601f8301169050919050565b610ebd81610e1b565b8114610ec857600080fd5b50565b610ed481610e59565b8114610edf57600080fd5b5056fea26469706673582212206d7b471248b37aa2cced2e9e54fa45f3c316e94e0de8f17e320014f8e6608f3c64736f6c63430007060033608060405234801561001057600080fd5b5061023d806100206000396000f3fe608060405234801561001057600080fd5b506004361061002b5760003560e01c806341976e0914610030575b600080fd5b6100726004803603602081101561004657600080fd5b81019080803573ffffffffffffffffffffffffffffffffffffffff169060200190929190505050610088565b6040518082815260200191505060405180910390f35b60008082905060008173ffffffffffffffffffffffffffffffffffffffff1663feaf968c6040518163ffffffff1660e01b815260040160a06040518083038186803b1580156100d657600080fd5b505afa1580156100ea573d6000803e3d6000fd5b505050506040513d60a081101561010057600080fd5b8101908080519060200190929190805190602001909291908051906020019092919080519060200190929190805190602001909291905050505050509150506101576402540be4008261016090919063ffffffff16565b92505050919050565b60008083141561017357600090506101e0565b600082840290508284828161018457fe5b04146101db576040517f08c379a00000000000000000000000000000000000000000000000000000000081526004018080602001828103825260218152602001806101e76021913960400191505060405180910390fd5b809150505b9291505056fe536166654d6174683a206d756c7469706c69636174696f6e206f766572666c6f77a2646970667358221220d335b7e2fe02006df7208a093b9d2312dac9a91ce32305f8c6ccf2032217dec564736f6c63430007060033608060405234801561001057600080fd5b50610525806100206000396000f3fe608060405234801561001057600080fd5b50600436106100415760003560e01c806334ce998a14610046578063cca5e4b114610064578063e65896c9146100be575b600080fd5b61004e610116565b6040518082815260200191505060405180910390f35b6100bc6004803603606081101561007a57600080fd5b81019080803573ffffffffffffffffffffffffffffffffffffffff1690602001909291908035906020019092919080351515906020019092919050505061011f565b005b610100600480360360208110156100d457600080fd5b81019080803573ffffffffffffffffffffffffffffffffffffffff16906020019092919050505061039b565b6040518082815260200191505060405180910390f35b60008054905090565b80156101da5761017782600160008673ffffffffffffffffffffffffffffffffffffffff1673ffffffffffffffffffffffffffffffffffffffff168152602001908152602001600020546103e490919063ffffffff16565b600160008573ffffffffffffffffffffffffffffffffffffffff1673ffffffffffffffffffffffffffffffffffffffff168152602001908152602001600020819055506101cf826000546103e490919063ffffffff16565b60008190555061028b565b61022c82600160008673ffffffffffffffffffffffffffffffffffffffff1673ffffffffffffffffffffffffffffffffffffffff1681526020019081526020016000205461046c90919063ffffffff16565b600160008573ffffffffffffffffffffffffffffffffffffffff1673ffffffffffffffffffffffffffffffffffffffff168152602001908152602001600020819055506102848260005461046c90919063ffffffff16565b6000819055505b6000600160008573ffffffffffffffffffffffffffffffffffffffff1673ffffffffffffffffffffffffffffffffffffffff168152602001908152602001600020541015610341576040517f08c379a00000000000000000000000000000000000000000000000000000000081526004018080602001828103825260178152602001807f446562742063616e6e6f74206265206e6567617469766500000000000000000081525060200191505060405180910390fd5b7f206b7154b31a11c2b2e6152606cd086dfceae80d3b4e43cefa0f0b39ea0e1c638383604051808373ffffffffffffffffffffffffffffffffffffffff1681526020018281526020019250505060405180910390a1505050565b6000600160008373ffffffffffffffffffffffffffffffffffffffff1673ffffffffffffffffffffffffffffffffffffffff168152602001908152602001600020549050919050565b600080828401905083811015610462576040517f08c379a000000000000000000000000000000000000000000000000000000000815260040180806020018281038252601b8152602001807f536166654d6174683a206164646974696f6e206f766572666c6f77000000000081525060200191505060405180910390fd5b8091505092915050565b6000828211156104e4576040517f08c379a000000000000000000000000000000000000000000000000000000000815260040180806020018281038252601e8152602001807f536166654d6174683a207375627472616374696f6e206f766572666c6f77000081525060200191505060405180910390fd5b81830390509291505056fea2646970667358221220e147f21f978cfe27ff72f00bedf2565405e4d807f4fc15ec636c5cca126e505164736f6c63430007060033",
  "immutableReferences": {
    "1535": [
      {
        "length": 32,
        "start": 10140
      },
      {
        "length": 32,
        "start": 10219
      },
      {
        "length": 32,
        "start": 11574
      },
      {
        "length": 32,
        "start": 12465
      }
    ]
  },
  "source": "// SPDX-License-Identifier: MIT\r\npragma solidity 0.7.6;\r\npragma abicoder v2;\r\n\r\nimport \"@openzeppelin/contracts/token/ERC20/ERC20.sol\";\r\nimport \"@openzeppelin/contracts/math/SafeMath.sol\";\r\nimport \"@uniswap/v3-periphery/contracts/libraries/TransferHelper.sol\";\r\nimport \"@uniswap/v3-periphery/contracts/interfaces/ISwapRouter.sol\";\r\nimport \"@uniswap/v3-periphery/contracts/interfaces/IPeripheryPayments.sol\";\r\n\r\nimport \"./PriceOracle.sol\";\r\nimport \"./IndexToken.sol\";\r\nimport \"./DebtManager.sol\";\r\nimport \"../management/BaseProduct.sol\";\r\n\r\ncontract BaseIndex is Product {\r\n    using SafeMath for uint256;\r\n\r\n    struct TokenInfo {\r\n        uint8 indexPercentage;\r\n        address tokenAddress;\r\n        address priceOracleAddress;\r\n        uint24[2] poolFees;\r\n        address intermediateToken;\r\n    }\r\n\r\n    TokenInfo[] public tokens;\r\n    PriceOracle private priceOracle;\r\n    IndexToken public indexToken;\r\n\r\n    address public WETH;\r\n    address private immutable dexRouterAddress;\r\n\r\n    DebtManager private sellDebtManager;\r\n    DebtManager private buyDebtManager;\r\n\r\n    uint public lastManagedToken = 0;   // TODO: change the visibility\r\n    uint public tokensToSell;    // index tokens that will be sold\r\n    uint public tokensToBuy;    // usd tokens that will be bought\r\n\r\n    function name() external pure override returns (string memory) { return \"CryptoIndex\"; }\r\n    function symbol() external pure override returns (string memory) { return \"CRYPTIX\"; }\r\n    function getComponents() external view returns (TokenInfo[] memory) { return tokens; }\r\n\r\n    function shortDescription() external pure override returns (string memory) {\r\n        return \"Correlation index is a tool that allows you to diversify your investments\";\r\n    }\r\n\r\n    function longDescription() external pure override returns (string memory) {\r\n        return \"Correlation index is a tool that allows you to diversify your investments\";\r\n    }\r\n\r\n    function getTokenPrice(TokenInfo memory token) external view returns (uint256) {\r\n        return priceOracle.getPrice(token.priceOracleAddress);\r\n    }\r\n\r\n    function image() external pure override returns (string memory) {\r\n        return \"https://cryptologos.cc/logos/polymath-network-poly-logo.png?v=022\";\r\n    }\r\n\r\n    function getTotalLockedValue() external view override returns (uint256) {\r\n        uint totalValue;\r\n\r\n        for (uint i = 0; i < tokens.length; i++) {\r\n            TokenInfo memory tokenInfo = tokens[i];\r\n            IERC20 token = IERC20(tokenInfo.tokenAddress);\r\n\r\n            uint tokenBalance = token.balanceOf(address(this)).mul(\r\n                priceOracle.getPrice(tokenInfo.priceOracleAddress)\r\n            );\r\n            totalValue = totalValue.add(tokenBalance.div(1 ether));\r\n        }\r\n\r\n        return totalValue;\r\n    }\r\n\r\n    constructor() {\r\n        dexRouterAddress = 0xE592427A0AEce92De3Edee1F18E0157C05861564;  // Uniswap V3 Router\r\n        buyTokenAddress =  0x6B175474E89094C44Da98b954EedeAC495271d0F; // DAI\r\n        WETH = 0xC02aaA39b223FE8D0A0e5C4F27eAD9083C756Cc2;\r\n\r\n        productFee = 10;\r\n        productFeeTotal = 100;\r\n        indexPriceAdjustment = 100;\r\n\r\n        indexToken = new IndexToken(address(this), \"Crypto index token\", 18, \"CRYPTIX\");\r\n        priceOracle = new PriceOracle();\r\n        isLocked = false;\r\n        sellDebtManager = new DebtManager();\r\n        buyDebtManager = new DebtManager();\r\n\r\n        tokens.push(TokenInfo({ // 0) WETH\r\n            tokenAddress: 0xC02aaA39b223FE8D0A0e5C4F27eAD9083C756Cc2,\r\n            priceOracleAddress: 0x5f4eC3Df9cbd43714FE2740f5E3616155c5b8419,\r\n            poolFees: [uint24(3000), uint24(3000)],\r\n            intermediateToken: address(0),\r\n            indexPercentage: 15\r\n        }));\r\n        tokens.push(TokenInfo({ // 1) LINK\r\n            tokenAddress: 0x514910771AF9Ca656af840dff83E8264EcF986CA,\r\n            priceOracleAddress: 0x2c1d072e956AFFC0D435Cb7AC38EF18d24d9127c,\r\n            poolFees: [uint24(3000), uint24(3000)],\r\n            intermediateToken: WETH,\r\n            indexPercentage: 5\r\n        }));\r\n        tokens.push(TokenInfo({ // 2) WBNB\r\n            tokenAddress: 0x418D75f65a02b3D53B2418FB8E1fe493759c7605,\r\n            priceOracleAddress: 0x14e613AC84a31f709eadbdF89C6CC390fDc9540A,\r\n            poolFees: [uint24(3000), uint24(3000)],\r\n            intermediateToken: WETH,\r\n            indexPercentage: 5\r\n        }));\r\n        tokens.push(TokenInfo({ // 3) UNI\r\n            tokenAddress: 0x1f9840a85d5aF5bf1D1762F925BDADdC4201F984,\r\n            priceOracleAddress: 0x553303d460EE0afB37EdFf9bE42922D8FF63220e,\r\n            poolFees: [uint24(3000), uint24(3000)],\r\n            intermediateToken: WETH,\r\n            indexPercentage: 10\r\n        }));\r\n        tokens.push(TokenInfo({ // 4) 1INCH\r\n            tokenAddress: 0x111111111117dC0aa78b770fA6A738034120C302,\r\n            priceOracleAddress: 0xc929ad75B72593967DE83E7F7Cda0493458261D9,\r\n            poolFees: [uint24(3000), 10000],\r\n            intermediateToken: WETH,\r\n            indexPercentage: 5\r\n        }));\r\n        tokens.push(TokenInfo({ // 5) SNX\r\n            tokenAddress: 0xC011a73ee8576Fb46F5E1c5751cA3B9Fe0af2a6F,\r\n            priceOracleAddress: 0xDC3EA94CD0AC27d9A86C180091e7f78C683d3699,\r\n            poolFees: [uint24(3000), 10000],\r\n            intermediateToken: WETH,\r\n            indexPercentage: 5\r\n        }));\r\n        tokens.push(TokenInfo({ // 6) YFI\r\n            tokenAddress: 0x0bc529c00C6401aEF6D220BE8C6Ea1667F6Ad93e,\r\n            priceOracleAddress: 0xA027702dbb89fbd58938e4324ac03B58d812b0E1,\r\n            poolFees: [uint24(3000), uint24(3000)],\r\n            intermediateToken: WETH,\r\n            indexPercentage: 5\r\n        }));\r\n        tokens.push(TokenInfo({ // 7) COMP\r\n            tokenAddress: 0xc00e94Cb662C3520282E6f5717214004A7f26888,\r\n            priceOracleAddress: 0xdbd020CAeF83eFd542f4De03e3cF0C28A4428bd5,\r\n            poolFees: [uint24(3000), uint24(3000)],\r\n            intermediateToken: WETH,\r\n            indexPercentage: 5\r\n        }));\r\n        tokens.push(TokenInfo({ // 8) MKR\r\n            tokenAddress: 0x9f8F72aA9304c8B593d555F12eF6589cC3A579A2,\r\n            priceOracleAddress: 0xec1D1B3b0443256cc3860e24a46F108e699484Aa,\r\n            poolFees: [uint24(3000), uint24(3000)],\r\n            intermediateToken: WETH,\r\n            indexPercentage: 5\r\n        }));\r\n        tokens.push(TokenInfo({ // 9) SUSHI\r\n            tokenAddress: 0x6B3595068778DD592e39A122f4f5a5cF09C90fE2,\r\n            priceOracleAddress: 0xCc70F09A6CC17553b2E31954cD36E4A2d89501f7,\r\n            poolFees: [uint24(3000), uint24(3000)],\r\n            intermediateToken: WETH,\r\n            indexPercentage: 10\r\n        }));\r\n        tokens.push(TokenInfo({ // 10) APE\r\n            tokenAddress: 0x4d224452801ACEd8B2F0aebE155379bb5D594381,\r\n            priceOracleAddress: 0xD10aBbC76679a20055E167BB80A24ac851b37056,\r\n            poolFees: [uint24(3000), uint24(3000)],\r\n            intermediateToken: WETH,\r\n            indexPercentage: 10\r\n        }));\r\n        tokens.push(TokenInfo({ // 11) CRV\r\n            tokenAddress: 0xD533a949740bb3306d119CC777fa900bA034cd52,\r\n            priceOracleAddress: 0xCd627aA160A6fA45Eb793D19Ef54f5062F20f33f,\r\n            poolFees: [uint24(3000), 10000],\r\n            intermediateToken: WETH,\r\n            indexPercentage: 5\r\n        }));\r\n    }\r\n\r\n    function buy(uint256 amount) external nonReentrant checkSettlement override {\r\n        uint256 indexPrice = getPrice();\r\n        (uint productFee, uint256 realAmount) = calculateFee(amount);\r\n        require(realAmount >= 1, \"Not enough tokens sent\");\r\n\r\n        uint buyTokenAmount = realAmount.mul(indexPrice).div(1 ether);\r\n        tokensToBuy = tokensToBuy.add(buyTokenAmount);\r\n        buyDebtManager.changeDebt(msg.sender, buyTokenAmount, true);\r\n\r\n        TransferHelper.safeTransferFrom(\r\n            buyTokenAddress,\r\n            msg.sender,\r\n            address(this),\r\n            amount.mul(indexPrice).div(1 ether)\r\n        );\r\n        IERC20 _buyToken = IERC20(buyTokenAddress);\r\n        _buyToken.transfer(owner(), productFee.mul(indexPrice).div(1 ether));\r\n\r\n        emit ProductBought(msg.sender, buyTokenAmount, realAmount);\r\n    }\r\n\r\n    function retrieveDebt(uint amount, bool isBuyDebt) external nonReentrant checkSettlement checkUnlocked{\r\n        DebtManager manager = isBuyDebt ? buyDebtManager : sellDebtManager;\r\n        require(manager.getTotalDebt() >= amount, \"Not enough total debt\");\r\n\r\n        ERC20(isBuyDebt ? address(indexToken) : buyTokenAddress).transfer(msg.sender, amount);\r\n        manager.changeDebt(msg.sender, amount, false);\r\n    }\r\n\r\n    function sell(uint amount) external override nonReentrant checkSettlement checkUnlocked {\r\n        (uint productFee, uint256 realAmount) = calculateFee(amount);\r\n        require(realAmount >= 1, \"You must sell more tokens\");\r\n\r\n        uint newUserDebt = realAmount.mul(getPrice()).div(1 ether);\r\n        tokensToSell = realAmount.add(tokensToSell);\r\n        sellDebtManager.changeDebt(msg.sender, newUserDebt, true);\r\n\r\n        TransferHelper.safeTransferFrom(address(indexToken), msg.sender, address(this), amount);\r\n        indexToken.transfer(owner(), productFee);\r\n\r\n        emit ProductSold(msg.sender, newUserDebt, realAmount);\r\n    }\r\n\r\n    function getTotalDebt(bool isBuy) external view returns (uint) {\r\n        if(isBuy){\r\n            return buyDebtManager.getTotalDebt();\r\n        }else{\r\n            return sellDebtManager.getTotalDebt();\r\n        }\r\n    }\r\n\r\n    function getUserDebt(bool isBuy, address user) external view returns (uint) {\r\n        if(isBuy){\r\n            return buyDebtManager.getUserDebt(user);\r\n        }else{\r\n            return sellDebtManager.getUserDebt(user);\r\n        }\r\n    }\r\n\r\n    function beginSettlement() override external onlyOwner{\r\n        isSettlement = true;\r\n        TransferHelper.safeApprove(buyTokenAddress, dexRouterAddress, tokensToBuy);\r\n        TransferHelper.safeApprove(address(indexToken), dexRouterAddress, tokensToSell);\r\n    }\r\n\r\n    function endSettlement() override external onlyOwner {\r\n        tokensToBuy = 0;\r\n        tokensToSell = 0;\r\n        isSettlement = false;\r\n    }\r\n\r\n    function manageTokensSell(TokenInfo memory token, uint amount, uint tokenPrice) private {\r\n        ISwapRouter dexRouter = ISwapRouter(dexRouterAddress);\r\n        uint amountOut = amount.mul(1 ether).div(tokenPrice);\r\n        uint amountInMaximum = amount.add(amount.mul(1).div(100));\r\n\r\n        if(token.intermediateToken == address(0)){\r\n            dexRouter.exactOutputSingle(\r\n                ISwapRouter.ExactOutputSingleParams({\r\n                    tokenIn: buyTokenAddress,\r\n                    tokenOut: token.tokenAddress,\r\n                    fee: token.poolFees[0],\r\n                    recipient: address(this),\r\n                    deadline: block.timestamp,\r\n                    amountOut: amountOut,\r\n                    amountInMaximum: amountInMaximum,\r\n                    sqrtPriceLimitX96: 0\r\n                })\r\n            );\r\n        }else{\r\n            dexRouter.exactOutput(\r\n                ISwapRouter.ExactOutputParams({\r\n                    path: abi.encodePacked(\r\n                        buyTokenAddress,\r\n                        token.poolFees[0],\r\n                        token.intermediateToken,\r\n                        token.poolFees[1],\r\n                        token.tokenAddress\r\n                    ),\r\n                    recipient: address(this),\r\n                    deadline: block.timestamp,\r\n                    amountOut: amountOut,\r\n                    amountInMaximum: amountInMaximum\r\n                })\r\n            );\r\n        }\r\n    }\r\n\r\n    function manageTokensBuy(TokenInfo memory token, uint amount, uint tokenPrice) private {\r\n        ISwapRouter dexRouter = ISwapRouter(dexRouterAddress);\r\n        uint amountOut = amount.mul(1 ether).div(tokenPrice);\r\n        uint amountInMaximum = amount.add(amount.mul(1).div(100));\r\n\r\n        if(token.intermediateToken == address(0)){\r\n            dexRouter.exactOutputSingle(\r\n                ISwapRouter.ExactOutputSingleParams({\r\n                    tokenIn: buyTokenAddress,\r\n                    tokenOut: token.tokenAddress,\r\n                    fee: token.poolFees[0],\r\n                    recipient: address(this),\r\n                    deadline: block.timestamp,\r\n                    amountOut: amountOut,\r\n                    amountInMaximum: amountInMaximum,\r\n                    sqrtPriceLimitX96: 0\r\n                })\r\n            );\r\n        }else{\r\n            dexRouter.exactOutput(\r\n                ISwapRouter.ExactOutputParams({\r\n                    path: abi.encodePacked(\r\n                        token.tokenAddress,\r\n                        token.poolFees[1],\r\n                        token.intermediateToken,\r\n                        token.poolFees[0],\r\n                        buyTokenAddress\r\n                    ),\r\n                    recipient: address(this),\r\n                    deadline: block.timestamp,\r\n                    amountOut: amountOut,\r\n                    amountInMaximum: amountInMaximum\r\n                })\r\n            );\r\n        }\r\n\r\n    }\r\n\r\n    function manageTokens() external onlyOwner {\r\n        lastManagedToken += 1;\r\n        if(lastManagedToken > tokens.length - 1){\r\n            lastManagedToken = 0;\r\n        }\r\n\r\n        TokenInfo memory token = tokens[lastManagedToken];\r\n        uint tokensToBuyAmount = tokensToBuy.div(100).mul(token.indexPercentage);\r\n        uint tokensToSellAmount = tokensToSell.div(100).mul(token.indexPercentage);\r\n        uint tokenPrice = priceOracle.getPrice(token.priceOracleAddress);\r\n\r\n        if(tokensToBuyAmount > 0){ manageTokensBuy(token, tokensToBuyAmount, tokenPrice); }\r\n        if(tokensToSellAmount > 0){ manageTokensSell(token, tokensToSellAmount, tokenPrice); }\r\n\r\n    }\r\n\r\n    function getPrice() public view override returns (uint256) {\r\n        uint256 indexTotalPrice;\r\n\r\n        for (uint256 i = 0; i < tokens.length; i++) {\r\n            TokenInfo memory token = tokens[i];\r\n            indexTotalPrice = indexTotalPrice.add(\r\n                priceOracle.getPrice(token.priceOracleAddress).mul(token.indexPercentage).div(100)\r\n            );\r\n        }\r\n\r\n        return indexTotalPrice.div(indexPriceAdjustment);\r\n    }\r\n\r\n}\r\n",
  "sourcePath": "D:\\JavascriptProjects\\crypto-index\\contracts\\indices\\BaseIndex.sol",
  "compiler": {
    "name": "solc",
    "version": "0.7.6+commit.7338295f.Linux.g++"
  },
  "schemaVersion": "3.4.6",
  "updatedAt": "2022-05-13T16:35:22.994Z",
  "devdoc": {
    "kind": "dev",
    "methods": {
      "owner()": {
        "details": "Returns the address of the current owner."
      },
      "renounceOwnership()": {
        "details": "Leaves the contract without owner. It will not be possible to call `onlyOwner` functions anymore. Can only be called by the current owner. NOTE: Renouncing ownership will leave the contract without an owner, thereby removing any functionality that is only available to the owner."
      },
      "transferOwnership(address)": {
        "details": "Transfers ownership of the contract to a new account (`newOwner`). Can only be called by the current owner."
      }
    },
    "version": 1
  },
  "userdoc": {
    "kind": "user",
    "methods": {},
    "version": 1
  }
}