{
  "contractName": "BaseIndex",
  "abi": [
    {
      "inputs": [],
      "name": "minimalFundAddition",
      "outputs": [
        {
          "internalType": "uint256",
          "name": "",
          "type": "uint256"
        }
      ],
      "stateMutability": "view",
      "type": "function"
    },
    {
      "inputs": [],
      "name": "name",
      "outputs": [
        {
          "internalType": "string",
          "name": "",
          "type": "string"
        }
      ],
      "stateMutability": "view",
      "type": "function"
    },
    {
      "inputs": [],
      "name": "poolFee",
      "outputs": [
        {
          "internalType": "uint24",
          "name": "",
          "type": "uint24"
        }
      ],
      "stateMutability": "view",
      "type": "function"
    },
    {
      "inputs": [
        {
          "internalType": "uint256",
          "name": "",
          "type": "uint256"
        }
      ],
      "name": "priceConsumers",
      "outputs": [
        {
          "internalType": "address",
          "name": "",
          "type": "address"
        }
      ],
      "stateMutability": "view",
      "type": "function"
    },
    {
      "inputs": [],
      "name": "symbol",
      "outputs": [
        {
          "internalType": "string",
          "name": "",
          "type": "string"
        }
      ],
      "stateMutability": "view",
      "type": "function"
    },
    {
      "inputs": [
        {
          "internalType": "uint256",
          "name": "",
          "type": "uint256"
        }
      ],
      "name": "tokenContracts",
      "outputs": [
        {
          "internalType": "address",
          "name": "",
          "type": "address"
        }
      ],
      "stateMutability": "view",
      "type": "function"
    },
    {
      "stateMutability": "payable",
      "type": "receive"
    },
    {
      "inputs": [],
      "name": "getPrice",
      "outputs": [
        {
          "internalType": "uint256",
          "name": "",
          "type": "uint256"
        }
      ],
      "stateMutability": "view",
      "type": "function"
    },
    {
      "inputs": [],
      "name": "addFunds",
      "outputs": [],
      "stateMutability": "payable",
      "type": "function"
    },
    {
      "inputs": [],
      "name": "getTVL",
      "outputs": [
        {
          "internalType": "uint256",
          "name": "",
          "type": "uint256"
        }
      ],
      "stateMutability": "view",
      "type": "function"
    },
    {
      "inputs": [],
      "name": "getMyTokensPrice",
      "outputs": [
        {
          "internalType": "uint256",
          "name": "",
          "type": "uint256"
        }
      ],
      "stateMutability": "view",
      "type": "function"
    },
    {
      "inputs": [],
      "name": "getMyTokens",
      "outputs": [
        {
          "internalType": "uint256",
          "name": "",
          "type": "uint256"
        }
      ],
      "stateMutability": "view",
      "type": "function"
    }
  ],
  "bytecode": "0x608060405234801561001057600080fd5b50610760806100206000396000f3fe6080604052600436106100bd576000357c01000000000000000000000000000000000000000000000000000000009004806367ebf8861161008157806367ebf8861461017a57806395d89b411461019a57806397b3fcaa146101af57806398d5fdca146101c4578063a26759cb146101d9578063f3b755c7146101e3576100c4565b806306fdde03146100c9578063089fe6aa146100f45780631d85b415146101165780631d9fb309146101385780635b3b136a14610165576100c4565b366100c457005b600080fd5b3480156100d557600080fd5b506100de6101f8565b6040516100eb91906105e5565b60405180910390f35b34801561010057600080fd5b50610109610286565b6040516100eb9190610711565b34801561012257600080fd5b5061012b61028c565b6040516100eb9190610721565b34801561014457600080fd5b50610158610153366004610594565b6102a4565b6040516100eb91906105c4565b34801561017157600080fd5b5061012b6102db565b34801561018657600080fd5b50610158610195366004610594565b6102ee565b3480156101a657600080fd5b506100de6102fe565b3480156101bb57600080fd5b5061012b610359565b3480156101d057600080fd5b5061012b61036c565b6101e161039a565b005b3480156101ef57600080fd5b5061012b61054a565b6003805460408051602060026001851615610100026000190190941693909304601f8101849004840282018401909252818152929183018282801561027e5780601f106102535761010080835404028352916020019161027e565b820191906000526020600020905b81548152906001019060200180831161026157829003601f168201915b505050505081565b610bb881565b600061029661036c565b61029e6102db565b02905090565b600681815481106102b457600080fd5b60009182526020909120015473ffffffffffffffffffffffffffffffffffffffff16905081565b3360009081526001602052604090205490565b600581815481106102b457600080fd5b6004805460408051602060026001851615610100026000190190941693909304601f8101849004840282018401909252818152929183018282801561027e5780601f106102535761010080835404028352916020019161027e565b600061036361036c565b60005402905090565b600080805b6005548110156103875790810190600101610371565b50600554818161039357fe5b0491505090565b60025434116103de576040517f08c379a00000000000000000000000000000000000000000000000000000000081526004016103d590610638565b60405180910390fd5b60008054349081018255338252600160208190526040832080548201905560068054929392909190811061040e57fe5b60009182526020909120015473ffffffffffffffffffffffffffffffffffffffff16905061043a610550565b50604080516101008101825273c02aaa39b223fe8d0a0e5c4f27ead9083c756cc2815273ffffffffffffffffffffffffffffffffffffffff83166020820152610bb88183015230606082015242608082015260a08101849052600060c0820181905260e082015290517f414bf38900000000000000000000000000000000000000000000000000000000815273e592427a0aece92de3edee1f18e0157c058615649063414bf3899034906104f2908590600401610695565b6020604051808303818588803b15801561050b57600080fd5b505af115801561051f573d6000803e3d6000fd5b50505050506040513d601f19601f8201168201806040525081019061054491906105ac565b50505050565b60025481565b6040805161010081018252600080825260208201819052918101829052606081018290526080810182905260a0810182905260c0810182905260e081019190915290565b6000602082840312156105a5578081fd5b5035919050565b6000602082840312156105bd578081fd5b5051919050565b73ffffffffffffffffffffffffffffffffffffffff91909116815260200190565b6000602080835283518082850152825b81811015610611578581018301518582016040015282016105f5565b818111156106225783604083870101525b50601f01601f1916929092016040019392505050565b60208082526024908201527f4e6f7420656e6f7567682066756e647320746f2061646420746f20746865206960408201527f6e64657800000000000000000000000000000000000000000000000000000000606082015260800190565b60006101008201905073ffffffffffffffffffffffffffffffffffffffff80845116835280602085015116602084015262ffffff60408501511660408401528060608501511660608401526080840151608084015260a084015160a084015260c084015160c08401528060e08501511660e08401525092915050565b62ffffff91909116815260200190565b9081526020019056fea2646970667358221220ea156e33d2bbad330dffdd087ab9e663715ed8bd09df498fff5d7e5a86e2a99464736f6c63430007050033",
  "immutableReferences": {},
  "source": "// SPDX-License-Identifier: MIT\npragma solidity >=0.7.5;\npragma abicoder v2;\n\nimport '@uniswap/v3-periphery/contracts/libraries/TransferHelper.sol';\nimport '@uniswap/v3-periphery/contracts/interfaces/ISwapRouter.sol';\nimport '@uniswap/v3-periphery/contracts/interfaces/IPeripheryPayments.sol';\n\n\ncontract BaseIndex {\n\n    uint256 private totalFunds;\n    mapping(address => uint256) private investors;\n    uint256 public minimalFundAddition;\n\n    string public name;\n    string public symbol;\n\n    address[] public priceConsumers;\n    address[] public tokenContracts;\n\n    uint24 public constant poolFee = 3000;\n    address private constant WETH = 0xC02aaA39b223FE8D0A0e5C4F27eAD9083C756Cc2;\n    ISwapRouter private constant uniswapRouter = ISwapRouter(0xE592427A0AEce92De3Edee1F18E0157C05861564);\n\n    function getPrice() public view returns (uint) {\n        uint totalPrice = 0;\n\n        for (uint index = 0; index < priceConsumers.length; index++) {\n            totalPrice += index;\n        }\n\n        return totalPrice / priceConsumers.length;\n    }\n\n    function addFunds() public payable {\n        require(msg.value > minimalFundAddition, \"Not enough funds to add to the index\");\n        totalFunds += msg.value;\n        investors[msg.sender] += 1; //msg.value / getPrice();\n\n        uint _amountIn = msg.value;\n        address token = tokenContracts[1];\n\n        // TransferHelper.safeTransferFrom(WETH, msg.sender, address(this), _amountIn);\n        // TransferHelper.safeApprove(WETH, address(uniswapRouter), _amountIn);\n\n        ISwapRouter.ExactInputSingleParams memory params = ISwapRouter.ExactInputSingleParams({\n            tokenIn: WETH,\n            tokenOut: token,\n            fee: poolFee,\n            recipient: address(this),\n            deadline: block.timestamp,\n            amountIn: _amountIn,\n            amountOutMinimum: 0,    // TODO: that should be a real amount from the oracles\n            sqrtPriceLimitX96: 0\n        });\n\n        uniswapRouter.exactInputSingle{ value: msg.value }(params);\n    }\n\n    receive() payable external {}\n\n    function getTVL() public view returns(uint256){\n        return totalFunds * getPrice();\n    }\n\n    function getMyTokensPrice() public view returns(uint256){\n        return getMyTokens() * getPrice();\n    }\n\n    function getMyTokens() public view returns(uint256){\n        return investors[msg.sender];\n    }\n\n}\n\n\ncontract CorrelationIndex is BaseIndex {\n\n    constructor(){\n        minimalFundAddition = 100;\n        name = \"Correlation Index\";\n        symbol = \"CI\";\n\n        priceConsumers = [\n            // BSC mainnet\n            // 0x0567F2323251f0Aab15c8dFb1967E4e8A7D42aeE,    // BNB\n            // 0x7CA57b0cA6367191c94C8914d7Df09A57655905f,    // MATIC\n            // 0x264990fbd0A4796A3E3d8E37C4d5F87a3aCa5Ebf,    // WBTC\n            // 0xca236E327F629f9Fc2c30A4E95775EbF0B89fac8,    // LINK\n            // 0xF4C5e535756D11994fCBB12Ba8adD0192D9b88be,    // TRX\n            // 0xb57f259E7C24e56a1dA00F66b55A5640d9f9E7e4,    // UNI\n\n            // ETH mainnet\n            0x5f4eC3Df9cbd43714FE2740f5E3616155c5b8419,    // ETH\n            0xF4030086522a5bEEa4988F8cA5B36dbC97BeE88c,    // BTC\n            0x2c1d072e956AFFC0D435Cb7AC38EF18d24d9127c    // LINK\n        ];\n\n        tokenContracts = [\n            // ETH mainnet\n            // 0xB8c77482e45F1F44dE1745F52C74426C631bDD52,     // BNB\n            // 0x7D1AfA7B718fb893dB30A3aBc0Cfc608AaCfeBB0,     // MATIC\n            // 0xE1Be5D3f34e89dE342Ee97E6e90D405884dA6c67,     // TRX\n            // 0x1f9840a85d5aF5bf1D1762F925BDADdC4201F984,     // UNI\n\n            0xC02aaA39b223FE8D0A0e5C4F27eAD9083C756Cc2,    // WETH\n            0x2260FAC5E5542a773Aa44fBCfeDf7C193bc2C599,     // WBTC\n            0x514910771AF9Ca656af840dff83E8264EcF986CA     // LINK\n        ];\n    }\n\n}\n",
  "sourcePath": "F:\\JavascriptProjects\\crypto-index\\contracts\\Index.sol",
  "compiler": {
    "name": "solc",
    "version": "0.7.5+commit.eb77ed08.Linux.g++"
  },
  "schemaVersion": "3.4.3",
  "updatedAt": "2022-03-08T10:47:22.729Z",
  "devdoc": {
    "kind": "dev",
    "methods": {},
    "version": 1
  },
  "userdoc": {
    "kind": "user",
    "methods": {},
    "version": 1
  }
}