{
  "contractName": "BaseIndex",
  "abi": [
    {
      "inputs": [
        {
          "components": [
            {
              "internalType": "string",
              "name": "tokenName",
              "type": "string"
            },
            {
              "internalType": "uint8",
              "name": "decimalUnits",
              "type": "uint8"
            },
            {
              "internalType": "uint256",
              "name": "initialAmount",
              "type": "uint256"
            },
            {
              "internalType": "string",
              "name": "tokenSymbol",
              "type": "string"
            },
            {
              "internalType": "uint256",
              "name": "minimalFundAddition",
              "type": "uint256"
            }
          ],
          "internalType": "struct BaseIndex.IndexInitialParameters",
          "name": "params",
          "type": "tuple"
        },
        {
          "internalType": "address",
          "name": "uniswapAddress",
          "type": "address"
        },
        {
          "internalType": "address",
          "name": "priceOracleAddress",
          "type": "address"
        },
        {
          "internalType": "address",
          "name": "_buyTokenAddress",
          "type": "address"
        }
      ],
      "stateMutability": "nonpayable",
      "type": "constructor"
    },
    {
      "inputs": [],
      "name": "indexToken",
      "outputs": [
        {
          "internalType": "contract IndexToken",
          "name": "",
          "type": "address"
        }
      ],
      "stateMutability": "view",
      "type": "function"
    },
    {
      "inputs": [],
      "name": "minimalFundAddition",
      "outputs": [
        {
          "internalType": "uint256",
          "name": "",
          "type": "uint256"
        }
      ],
      "stateMutability": "view",
      "type": "function"
    },
    {
      "inputs": [
        {
          "internalType": "uint256",
          "name": "",
          "type": "uint256"
        }
      ],
      "name": "tokenContracts",
      "outputs": [
        {
          "internalType": "address",
          "name": "tokenAddress",
          "type": "address"
        },
        {
          "internalType": "uint24",
          "name": "poolFee",
          "type": "uint24"
        }
      ],
      "stateMutability": "view",
      "type": "function"
    },
    {
      "inputs": [
        {
          "internalType": "uint256",
          "name": "amountIn",
          "type": "uint256"
        }
      ],
      "name": "addFunds",
      "outputs": [],
      "stateMutability": "nonpayable",
      "type": "function"
    },
    {
      "inputs": [
        {
          "internalType": "address",
          "name": "comparisonTokenAddress",
          "type": "address"
        }
      ],
      "name": "getTokenPrices",
      "outputs": [
        {
          "components": [
            {
              "internalType": "address",
              "name": "token",
              "type": "address"
            },
            {
              "internalType": "string",
              "name": "name",
              "type": "string"
            },
            {
              "internalType": "uint256",
              "name": "price",
              "type": "uint256"
            }
          ],
          "internalType": "struct BaseIndex.TokenPrice[]",
          "name": "",
          "type": "tuple[]"
        }
      ],
      "stateMutability": "view",
      "type": "function"
    },
    {
      "inputs": [
        {
          "internalType": "address",
          "name": "comparisonTokenAddress",
          "type": "address"
        }
      ],
      "name": "getIndexPrice",
      "outputs": [
        {
          "internalType": "uint256",
          "name": "",
          "type": "uint256"
        }
      ],
      "stateMutability": "view",
      "type": "function"
    },
    {
      "inputs": [
        {
          "internalType": "address",
          "name": "comparisonTokenAddress",
          "type": "address"
        }
      ],
      "name": "getTotalLockedValue",
      "outputs": [
        {
          "internalType": "uint256",
          "name": "",
          "type": "uint256"
        }
      ],
      "stateMutability": "view",
      "type": "function"
    },
    {
      "inputs": [
        {
          "internalType": "address",
          "name": "comparisonTokenAddress",
          "type": "address"
        }
      ],
      "name": "getMyTokensPrice",
      "outputs": [
        {
          "internalType": "uint256",
          "name": "",
          "type": "uint256"
        }
      ],
      "stateMutability": "view",
      "type": "function"
    }
  ],
  "bytecode": "0x6101006040523480156200001257600080fd5b50604051620035c7380380620035c7833981810160405281019062000038919062000340565b8360400151308560000151866020015187606001516040516200005b90620001bc565b6200006b95949392919062000456565b604051809103906000f08015801562000088573d6000803e3d6000fd5b5073ffffffffffffffffffffffffffffffffffffffff1660808173ffffffffffffffffffffffffffffffffffffffff1660601b81525050836080015160a081815250508273ffffffffffffffffffffffffffffffffffffffff1660e08173ffffffffffffffffffffffffffffffffffffffff1660601b815250508073ffffffffffffffffffffffffffffffffffffffff1660c08173ffffffffffffffffffffffffffffffffffffffff1660601b81525050816040516200014890620001ca565b62000154919062000439565b604051809103906000f08015801562000171573d6000803e3d6000fd5b50600160006101000a81548173ffffffffffffffffffffffffffffffffffffffff021916908373ffffffffffffffffffffffffffffffffffffffff1602179055505050505062000626565b61108d8062001eb483390190565b6106868062002f4183390190565b600081519050620001e981620005d8565b92915050565b600082601f8301126200020157600080fd5b8151620002186200021282620004f5565b620004c1565b915080825260208301602083018583830111156200023557600080fd5b620002428382846200058f565b50505092915050565b600060a082840312156200025e57600080fd5b6200026a60a0620004c1565b9050600082015167ffffffffffffffff8111156200028757600080fd5b6200029584828501620001ef565b6000830152506020620002ab8482850162000329565b6020830152506040620002c18482850162000312565b604083015250606082015167ffffffffffffffff811115620002e257600080fd5b620002f084828501620001ef565b6060830152506080620003068482850162000312565b60808301525092915050565b6000815190506200032381620005f2565b92915050565b6000815190506200033a816200060c565b92915050565b600080600080608085870312156200035757600080fd5b600085015167ffffffffffffffff8111156200037257600080fd5b62000380878288016200024b565b94505060206200039387828801620001d8565b9350506040620003a687828801620001d8565b9250506060620003b987828801620001d8565b91505092959194509250565b620003d08162000544565b82525050565b6000620003e38262000528565b620003ef818562000533565b9350620004018185602086016200058f565b6200040c81620005c7565b840191505092915050565b620004228162000578565b82525050565b620004338162000582565b82525050565b6000602082019050620004506000830184620003c5565b92915050565b600060a0820190506200046d600083018862000417565b6200047c6020830187620003c5565b8181036040830152620004908186620003d6565b9050620004a1606083018562000428565b8181036080830152620004b58184620003d6565b90509695505050505050565b6000604051905081810181811067ffffffffffffffff82111715620004eb57620004ea620005c5565b5b8060405250919050565b600067ffffffffffffffff821115620005135762000512620005c5565b5b601f19601f8301169050602081019050919050565b600081519050919050565b600082825260208201905092915050565b6000620005518262000558565b9050919050565b600073ffffffffffffffffffffffffffffffffffffffff82169050919050565b6000819050919050565b600060ff82169050919050565b60005b83811015620005af57808201518184015260208101905062000592565b83811115620005bf576000848401525b50505050565bfe5b6000601f19601f8301169050919050565b620005e38162000544565b8114620005ef57600080fd5b50565b620005fd8162000578565b81146200060957600080fd5b50565b620006178162000582565b81146200062357600080fd5b50565b60805160601c60a05160c05160601c60e05160601c6118276200068d600039806108545280610b48525080610768528061081852806109db5280610a915250806106f05280610df55250806102425280610c225280610d1b5280610dd152506118276000f3fe608060405234801561001057600080fd5b50600436106100885760003560e01c8063be9997051161005b578063be9997051461014e578063e7d015f21461016a578063f3b755c714610188578063ffd70a27146101a657610088565b80631d9fb3091461008d57806341efd7d9146100be578063ab17f1eb146100ee578063b263e0101461011e575b600080fd5b6100a760048036038101906100a2919061108e565b6101d6565b6040516100b59291906114e8565b60405180910390f35b6100d860048036038101906100d39190610ffb565b610235565b6040516100e591906115d3565b60405180910390f35b61010860048036038101906101039190610ffb565b6102f1565b604051610115919061153a565b60405180910390f35b61013860048036038101906101339190610ffb565b61055b565b60405161014591906115d3565b60405180910390f35b6101686004803603810190610163919061108e565b6106ee565b005b610172610dcf565b60405161017f919061155c565b60405180910390f35b610190610df3565b60405161019d91906115d3565b60405180910390f35b6101c060048036038101906101bb9190610ffb565b610e17565b6040516101cd91906115d3565b60405180910390f35b600281815481106101e657600080fd5b906000526020600020016000915090508060000160009054906101000a900473ffffffffffffffffffffffffffffffffffffffff16908060000160149054906101000a900462ffffff16905082565b60006102408261055b565b7f000000000000000000000000000000000000000000000000000000000000000073ffffffffffffffffffffffffffffffffffffffff166370a08231336040518263ffffffff1660e01b81526004016102999190611428565b60206040518083038186803b1580156102b157600080fd5b505afa1580156102c5573d6000803e3d6000fd5b505050506040513d601f19601f820116820180604052508101906102e991906110b7565b029050919050565b60608060028054905067ffffffffffffffff8111801561031057600080fd5b5060405190808252806020026020018201604052801561034a57816020015b610337610e45565b81526020019060019003908161032f5790505b50905060005b6002805490508110156105515760006002828154811061036c57fe5b9060005260206000200160000160009054906101000a900473ffffffffffffffffffffffffffffffffffffffff169050600081905060405180606001604052808373ffffffffffffffffffffffffffffffffffffffff1681526020018273ffffffffffffffffffffffffffffffffffffffff166395d89b416040518163ffffffff1660e01b815260040160006040518083038186803b15801561040e57600080fd5b505afa158015610422573d6000803e3d6000fd5b505050506040513d6000823e3d601f19601f8201168201806040525081019061044b919061104d565b8152602001600160009054906101000a900473ffffffffffffffffffffffffffffffffffffffff1673ffffffffffffffffffffffffffffffffffffffff16634613d135858a6002898154811061049d57fe5b9060005260206000200160000160149054906101000a900462ffffff166040518463ffffffff1660e01b81526004016104d8939291906114b1565b60206040518083038186803b1580156104f057600080fd5b505afa158015610504573d6000803e3d6000fd5b505050506040513d601f19601f8201168201806040525081019061052891906110b7565b81525084848151811061053757fe5b602002602001018190525050508080600101915050610350565b5080915050919050565b60008060005b6002805490508110156106dc57610576610e7c565b6002828154811061058357fe5b906000526020600020016040518060400160405290816000820160009054906101000a900473ffffffffffffffffffffffffffffffffffffffff1673ffffffffffffffffffffffffffffffffffffffff1673ffffffffffffffffffffffffffffffffffffffff1681526020016000820160149054906101000a900462ffffff1662ffffff1662ffffff16815250509050600160009054906101000a900473ffffffffffffffffffffffffffffffffffffffff1673ffffffffffffffffffffffffffffffffffffffff16634613d13582600001518784602001516040518463ffffffff1660e01b815260040161067a939291906114b1565b60206040518083038186803b15801561069257600080fd5b505afa1580156106a6573d6000803e3d6000fd5b505050506040513d601f19601f820116820180604052508101906106ca91906110b7565b83019250508080600101915050610561565b506106e681610e2d565b915050919050565b7f0000000000000000000000000000000000000000000000000000000000000000811015610751576040517f08c379a000000000000000000000000000000000000000000000000000000000815260040161074890611597565b60405180910390fd5b6000600280549050828161076157fe5b04905060007f000000000000000000000000000000000000000000000000000000000000000073ffffffffffffffffffffffffffffffffffffffff166323b872dd3330866040518463ffffffff1660e01b81526004016107c393929190611443565b602060405180830381600087803b1580156107dd57600080fd5b505af11580156107f1573d6000803e3d6000fd5b505050506040513d601f19601f820116820180604052508101906108159190611024565b507f000000000000000000000000000000000000000000000000000000000000000073ffffffffffffffffffffffffffffffffffffffff1663095ea7b37f0000000000000000000000000000000000000000000000000000000000000000856040518363ffffffff1660e01b8152600401610891929190611511565b602060405180830381600087803b1580156108ab57600080fd5b505af11580156108bf573d6000803e3d6000fd5b505050506040513d601f19601f820116820180604052508101906108e39190611024565b5060005b600280549050811015610c08576108fc610e7c565b6002828154811061090957fe5b906000526020600020016040518060400160405290816000820160009054906101000a900473ffffffffffffffffffffffffffffffffffffffff1673ffffffffffffffffffffffffffffffffffffffff1673ffffffffffffffffffffffffffffffffffffffff1681526020016000820160149054906101000a900462ffffff1662ffffff1662ffffff168152505090506000600160009054906101000a900473ffffffffffffffffffffffffffffffffffffffff1673ffffffffffffffffffffffffffffffffffffffff16634613d1357f0000000000000000000000000000000000000000000000000000000000000000846000015185602001516040518463ffffffff1660e01b8152600401610a22939291906114b1565b60206040518083038186803b158015610a3a57600080fd5b505afa158015610a4e573d6000803e3d6000fd5b505050506040513d601f19601f82011682018060405250810190610a7291906110b7565b905060008186029050610a83610eb1565b6040518061010001604052807f000000000000000000000000000000000000000000000000000000000000000073ffffffffffffffffffffffffffffffffffffffff168152602001856000015173ffffffffffffffffffffffffffffffffffffffff168152602001856020015162ffffff1681526020013073ffffffffffffffffffffffffffffffffffffffff16815260200142815260200188815260200160008152602001600073ffffffffffffffffffffffffffffffffffffffff1681525090507f000000000000000000000000000000000000000000000000000000000000000073ffffffffffffffffffffffffffffffffffffffff1663414bf389826040518263ffffffff1660e01b8152600401610b9f91906115b7565b602060405180830381600087803b158015610bb957600080fd5b505af1158015610bcd573d6000803e3d6000fd5b505050506040513d601f19601f82011682018060405250810190610bf191906110b7565b5082860195505050505080806001019150506108e7565b506000610c1482610e2d565b8481610c1c57fe5b049050807f000000000000000000000000000000000000000000000000000000000000000073ffffffffffffffffffffffffffffffffffffffff166370a08231306040518263ffffffff1660e01b8152600401610c79919061140d565b60206040518083038186803b158015610c9157600080fd5b505afa158015610ca5573d6000803e3d6000fd5b505050506040513d601f19601f82011682018060405250810190610cc991906110b7565b1015610d0a576040517f08c379a0000000000000000000000000000000000000000000000000000000008152600401610d0190611577565b60405180910390fd5b8060008082825401925050819055507f000000000000000000000000000000000000000000000000000000000000000073ffffffffffffffffffffffffffffffffffffffff166323b872dd3033846040518463ffffffff1660e01b8152600401610d769392919061147a565b602060405180830381600087803b158015610d9057600080fd5b505af1158015610da4573d6000803e3d6000fd5b505050506040513d601f19601f82011682018060405250810190610dc89190611024565b5050505050565b7f000000000000000000000000000000000000000000000000000000000000000081565b7f000000000000000000000000000000000000000000000000000000000000000081565b6000610e228261055b565b600054029050919050565b60006002805490508281610e3d57fe5b049050919050565b6040518060600160405280600073ffffffffffffffffffffffffffffffffffffffff16815260200160608152602001600081525090565b6040518060400160405280600073ffffffffffffffffffffffffffffffffffffffff168152602001600062ffffff1681525090565b604051806101000160405280600073ffffffffffffffffffffffffffffffffffffffff168152602001600073ffffffffffffffffffffffffffffffffffffffff168152602001600062ffffff168152602001600073ffffffffffffffffffffffffffffffffffffffff168152602001600081526020016000815260200160008152602001600073ffffffffffffffffffffffffffffffffffffffff1681525090565b600081359050610f62816117ac565b92915050565b600081519050610f77816117c3565b92915050565b600082601f830112610f8e57600080fd5b8151610fa1610f9c8261161f565b6115ee565b91508082526020830160208301858383011115610fbd57600080fd5b610fc8838284611766565b50505092915050565b600081359050610fe0816117da565b92915050565b600081519050610ff5816117da565b92915050565b60006020828403121561100d57600080fd5b600061101b84828501610f53565b91505092915050565b60006020828403121561103657600080fd5b600061104484828501610f68565b91505092915050565b60006020828403121561105f57600080fd5b600082015167ffffffffffffffff81111561107957600080fd5b61108584828501610f7d565b91505092915050565b6000602082840312156110a057600080fd5b60006110ae84828501610fd1565b91505092915050565b6000602082840312156110c957600080fd5b60006110d784828501610fe6565b91505092915050565b60006110ec8383611372565b905092915050565b6110fd8161170c565b82525050565b61110c816116b5565b82525050565b61111b816116b5565b82525050565b600061112c8261165f565b6111368185611682565b9350836020820285016111488561164f565b8060005b85811015611184578484038952815161116585826110e0565b945061117083611675565b925060208a0199505060018101905061114c565b50829750879550505050505092915050565b61119f8161171e565b82525050565b60006111b08261166a565b6111ba8185611693565b93506111ca818560208601611766565b6111d38161179b565b840191505092915050565b60006111eb6048836116a4565b91507f4e6f7420656e6f75676820746f6b656e7320696e2074686520696e6465782c2060008301527f796f752063616e206f6e6c7920627579206974206f6e207365636f6e6461727960208301527f206d61726b6574730000000000000000000000000000000000000000000000006040830152606082019050919050565b60006112776024836116a4565b91507f4e6f7420656e6f7567682066756e647320746f2061646420746f20746865206960008301527f6e646578000000000000000000000000000000000000000000000000000000006020830152604082019050919050565b610100820160008201516112e76000850182611103565b5060208201516112fa6020850182611103565b50604082015161130d60408501826113d1565b5060608201516113206060850182611103565b50608082015161133360808501826113ef565b5060a082015161134660a08501826113ef565b5060c082015161135960c08501826113ef565b5060e082015161136c60e08501826113c2565b50505050565b600060608301600083015161138a6000860182611103565b50602083015184820360208601526113a282826111a5565b91505060408301516113b760408601826113ef565b508091505092915050565b6113cb816116d3565b82525050565b6113da816116f3565b82525050565b6113e9816116f3565b82525050565b6113f881611702565b82525050565b61140781611702565b82525050565b60006020820190506114226000830184611112565b92915050565b600060208201905061143d60008301846110f4565b92915050565b600060608201905061145860008301866110f4565b6114656020830185611112565b61147260408301846113fe565b949350505050565b600060608201905061148f6000830186611112565b61149c60208301856110f4565b6114a960408301846113fe565b949350505050565b60006060820190506114c66000830186611112565b6114d36020830185611112565b6114e060408301846113e0565b949350505050565b60006040820190506114fd6000830185611112565b61150a60208301846113e0565b9392505050565b60006040820190506115266000830185611112565b61153360208301846113fe565b9392505050565b600060208201905081810360008301526115548184611121565b905092915050565b60006020820190506115716000830184611196565b92915050565b60006020820190508181036000830152611590816111de565b9050919050565b600060208201905081810360008301526115b08161126a565b9050919050565b6000610100820190506115cd60008301846112d0565b92915050565b60006020820190506115e860008301846113fe565b92915050565b6000604051905081810181811067ffffffffffffffff8211171561161557611614611799565b5b8060405250919050565b600067ffffffffffffffff82111561163a57611639611799565b5b601f19601f8301169050602081019050919050565b6000819050602082019050919050565b600081519050919050565b600081519050919050565b6000602082019050919050565b600082825260208201905092915050565b600082825260208201905092915050565b600082825260208201905092915050565b60006116c0826116d3565b9050919050565b60008115159050919050565b600073ffffffffffffffffffffffffffffffffffffffff82169050919050565b600062ffffff82169050919050565b6000819050919050565b600061171782611742565b9050919050565b600061172982611730565b9050919050565b600061173b826116d3565b9050919050565b600061174d82611754565b9050919050565b600061175f826116d3565b9050919050565b60005b83811015611784578082015181840152602081019050611769565b83811115611793576000848401525b50505050565bfe5b6000601f19601f8301169050919050565b6117b5816116b5565b81146117c057600080fd5b50565b6117cc816116c7565b81146117d757600080fd5b50565b6117e381611702565b81146117ee57600080fd5b5056fea2646970667358221220e555ef4358a7165c9f8a35734701f381e1ee8930f73790f8695e3fd30750504164736f6c6343000705003360806040523480156200001157600080fd5b506040516200108d3803806200108d833981810160405260a08110156200003757600080fd5b810190808051906020019092919080519060200190929190805160405193929190846401000000008211156200006c57600080fd5b838201915060208201858111156200008357600080fd5b8251866001820283011164010000000082111715620000a157600080fd5b8083526020830192505050908051906020019080838360005b83811015620000d7578082015181840152602081019050620000ba565b50505050905090810190601f168015620001055780820380516001836020036101000a031916815260200191505b5060405260200180519060200190929190805160405193929190846401000000008211156200013357600080fd5b838201915060208201858111156200014a57600080fd5b82518660018202830111640100000000821117156200016857600080fd5b8083526020830192505050908051906020019080838360005b838110156200019e57808201518184015260208101905062000181565b50505050905090810190601f168015620001cc5780820380516001836020036101000a031916815260200191505b50604052505050846000808673ffffffffffffffffffffffffffffffffffffffff1673ffffffffffffffffffffffffffffffffffffffff16815260200190815260200160002081905550600060028190555082600390805190602001906200023692919062000276565b5081600460006101000a81548160ff021916908360ff16021790555080600590805190602001906200026a92919062000276565b5050505050506200032c565b828054600181600116156101000203166002900490600052602060002090601f016020900481019282620002ae5760008555620002fa565b82601f10620002c957805160ff1916838001178555620002fa565b82800160010185558215620002fa579182015b82811115620002f9578251825591602001919060010190620002dc565b5b5090506200030991906200030d565b5090565b5b80821115620003285760008160009055506001016200030e565b5090565b610d51806200033c6000396000f3fe608060405234801561001057600080fd5b50600436106100a95760003560e01c8063313ce56711610071578063313ce5671461028f5780635c658165146102b057806370a082311461032857806395d89b4114610380578063a9059cbb14610403578063dd62ed3e14610467576100a9565b806306fdde03146100ae578063095ea7b31461013157806318160ddd1461019557806323b872dd146101b357806327e235e314610237575b600080fd5b6100b66104df565b6040518080602001828103825283818151815260200191508051906020019080838360005b838110156100f65780820151818401526020810190506100db565b50505050905090810190601f1680156101235780820380516001836020036101000a031916815260200191505b509250505060405180910390f35b61017d6004803603604081101561014757600080fd5b81019080803573ffffffffffffffffffffffffffffffffffffffff1690602001909291908035906020019092919050505061057d565b60405180821515815260200191505060405180910390f35b61019d61066f565b6040518082815260200191505060405180910390f35b61021f600480360360608110156101c957600080fd5b81019080803573ffffffffffffffffffffffffffffffffffffffff169060200190929190803573ffffffffffffffffffffffffffffffffffffffff16906020019092919080359060200190929190505050610675565b60405180821515815260200191505060405180910390f35b6102796004803603602081101561024d57600080fd5b81019080803573ffffffffffffffffffffffffffffffffffffffff169060200190929190505050610956565b6040518082815260200191505060405180910390f35b61029761096e565b604051808260ff16815260200191505060405180910390f35b610312600480360360408110156102c657600080fd5b81019080803573ffffffffffffffffffffffffffffffffffffffff169060200190929190803573ffffffffffffffffffffffffffffffffffffffff169060200190929190505050610981565b6040518082815260200191505060405180910390f35b61036a6004803603602081101561033e57600080fd5b81019080803573ffffffffffffffffffffffffffffffffffffffff1690602001909291905050506109a6565b6040518082815260200191505060405180910390f35b6103886109ee565b6040518080602001828103825283818151815260200191508051906020019080838360005b838110156103c85780820151818401526020810190506103ad565b50505050905090810190601f1680156103f55780820380516001836020036101000a031916815260200191505b509250505060405180910390f35b61044f6004803603604081101561041957600080fd5b81019080803573ffffffffffffffffffffffffffffffffffffffff16906020019092919080359060200190929190505050610a8c565b60405180821515815260200191505060405180910390f35b6104c96004803603604081101561047d57600080fd5b81019080803573ffffffffffffffffffffffffffffffffffffffff169060200190929190803573ffffffffffffffffffffffffffffffffffffffff169060200190929190505050610c2c565b6040518082815260200191505060405180910390f35b60038054600181600116156101000203166002900480601f0160208091040260200160405190810160405280929190818152602001828054600181600116156101000203166002900480156105755780601f1061054a57610100808354040283529160200191610575565b820191906000526020600020905b81548152906001019060200180831161055857829003601f168201915b505050505081565b600081600160003373ffffffffffffffffffffffffffffffffffffffff1673ffffffffffffffffffffffffffffffffffffffff16815260200190815260200160002060008573ffffffffffffffffffffffffffffffffffffffff1673ffffffffffffffffffffffffffffffffffffffff168152602001908152602001600020819055508273ffffffffffffffffffffffffffffffffffffffff163373ffffffffffffffffffffffffffffffffffffffff167f8c5be1e5ebec7d5bd14f71427d1e84f3dd0314c0f7b2291e5b200ac8c7c3b925846040518082815260200191505060405180910390a36001905092915050565b60025481565b600080600160008673ffffffffffffffffffffffffffffffffffffffff1673ffffffffffffffffffffffffffffffffffffffff16815260200190815260200160002060003373ffffffffffffffffffffffffffffffffffffffff1673ffffffffffffffffffffffffffffffffffffffff168152602001908152602001600020549050826000808773ffffffffffffffffffffffffffffffffffffffff1673ffffffffffffffffffffffffffffffffffffffff16815260200190815260200160002054101580156107455750828110155b61079a576040517f08c379a0000000000000000000000000000000000000000000000000000000008152600401808060200182810382526039815260200180610ce36039913960400191505060405180910390fd5b826000808673ffffffffffffffffffffffffffffffffffffffff1673ffffffffffffffffffffffffffffffffffffffff16815260200190815260200160002060008282540192505081905550826000808773ffffffffffffffffffffffffffffffffffffffff1673ffffffffffffffffffffffffffffffffffffffff168152602001908152602001600020600082825403925050819055507fffffffffffffffffffffffffffffffffffffffffffffffffffffffffffffffff8110156108e55782600160008773ffffffffffffffffffffffffffffffffffffffff1673ffffffffffffffffffffffffffffffffffffffff16815260200190815260200160002060003373ffffffffffffffffffffffffffffffffffffffff1673ffffffffffffffffffffffffffffffffffffffff168152602001908152602001600020600082825403925050819055505b8373ffffffffffffffffffffffffffffffffffffffff168573ffffffffffffffffffffffffffffffffffffffff167fddf252ad1be2c89b69c2b068fc378daa952ba7f163c4a11628f55a4df523b3ef856040518082815260200191505060405180910390a360019150509392505050565b60006020528060005260406000206000915090505481565b600460009054906101000a900460ff1681565b6001602052816000526040600020602052806000526040600020600091509150505481565b60008060008373ffffffffffffffffffffffffffffffffffffffff1673ffffffffffffffffffffffffffffffffffffffff168152602001908152602001600020549050919050565b60058054600181600116156101000203166002900480601f016020809104026020016040519081016040528092919081815260200182805460018160011615610100020316600290048015610a845780601f10610a5957610100808354040283529160200191610a84565b820191906000526020600020905b815481529060010190602001808311610a6757829003601f168201915b505050505081565b6000816000803373ffffffffffffffffffffffffffffffffffffffff1673ffffffffffffffffffffffffffffffffffffffff168152602001908152602001600020541015610b25576040517f08c379a000000000000000000000000000000000000000000000000000000000815260040180806020018281038252602f815260200180610cb4602f913960400191505060405180910390fd5b816000803373ffffffffffffffffffffffffffffffffffffffff1673ffffffffffffffffffffffffffffffffffffffff16815260200190815260200160002060008282540392505081905550816000808573ffffffffffffffffffffffffffffffffffffffff1673ffffffffffffffffffffffffffffffffffffffff168152602001908152602001600020600082825401925050819055508273ffffffffffffffffffffffffffffffffffffffff163373ffffffffffffffffffffffffffffffffffffffff167fddf252ad1be2c89b69c2b068fc378daa952ba7f163c4a11628f55a4df523b3ef846040518082815260200191505060405180910390a36001905092915050565b6000600160008473ffffffffffffffffffffffffffffffffffffffff1673ffffffffffffffffffffffffffffffffffffffff16815260200190815260200160002060008373ffffffffffffffffffffffffffffffffffffffff1673ffffffffffffffffffffffffffffffffffffffff1681526020019081526020016000205490509291505056fe746f6b656e2062616c616e6365206973206c6f776572207468616e207468652076616c756520726571756573746564746f6b656e2062616c616e6365206f7220616c6c6f77616e6365206973206c6f776572207468616e20616d6f756e7420726571756573746564a26469706673582212205a0bd9b2483865c9fd5a664061b216ce90493b4c666c9b1d8c3f029e4b06500c64736f6c63430007050033608060405234801561001057600080fd5b506040516106863803806106868339818101604052810190610032919061008e565b80600160006101000a81548173ffffffffffffffffffffffffffffffffffffffff021916908373ffffffffffffffffffffffffffffffffffffffff16021790555050610100565b600081519050610088816100e9565b92915050565b6000602082840312156100a057600080fd5b60006100ae84828501610079565b91505092915050565b60006100c2826100c9565b9050919050565b600073ffffffffffffffffffffffffffffffffffffffff82169050919050565b6100f2816100b7565b81146100fd57600080fd5b50565b6105778061010f6000396000f3fe608060405234801561001057600080fd5b506004361061002b5760003560e01c80634613d13514610030575b600080fd5b61004a600480360381019061004591906102b5565b610060565b6040516100579190610406565b60405180910390f35b600080600160009054906101000a900473ffffffffffffffffffffffffffffffffffffffff1673ffffffffffffffffffffffffffffffffffffffff16631698ee828686866040518463ffffffff1660e01b81526004016100c2939291906103cf565b60206040518083038186803b1580156100da57600080fd5b505afa1580156100ee573d6000803e3d6000fd5b505050506040513d601f19601f82011682018060405250810190610112919061028c565b905060008173ffffffffffffffffffffffffffffffffffffffff16633850c7bd6040518163ffffffff1660e01b815260040160e06040518083038186803b15801561015c57600080fd5b505afa158015610170573d6000803e3d6000fd5b505050506040513d601f19601f820116820180604052508101906101949190610304565b505050505050905060c0670de0b6b3a76400008273ffffffffffffffffffffffffffffffffffffffff16028273ffffffffffffffffffffffffffffffffffffffff1602901c925050509392505050565b6000813590506101f3816104a0565b92915050565b600081519050610208816104a0565b92915050565b60008151905061021d816104b7565b92915050565b600081519050610232816104ce565b92915050565b600081519050610247816104fc565b92915050565b60008151905061025c816104e5565b92915050565b60008135905061027181610513565b92915050565b6000815190506102868161052a565b92915050565b60006020828403121561029e57600080fd5b60006102ac848285016101f9565b91505092915050565b6000806000606084860312156102ca57600080fd5b60006102d8868287016101e4565b93505060206102e9868287016101e4565b92505060406102fa86828701610262565b9150509250925092565b600080600080600080600060e0888a03121561031f57600080fd5b600061032d8a828b01610238565b975050602061033e8a828b01610223565b965050604061034f8a828b0161024d565b95505060606103608a828b0161024d565b94505060806103718a828b0161024d565b93505060a06103828a828b01610277565b92505060c06103938a828b0161020e565b91505092959891949750929550565b6103ab81610421565b82525050565b6103ba8161047a565b82525050565b6103c981610489565b82525050565b60006060820190506103e460008301866103a2565b6103f160208301856103a2565b6103fe60408301846103b1565b949350505050565b600060208201905061041b60008301846103c0565b92915050565b600061042c8261045a565b9050919050565b60008115159050919050565b60008160020b9050919050565b600061ffff82169050919050565b600073ffffffffffffffffffffffffffffffffffffffff82169050919050565b600062ffffff82169050919050565b6000819050919050565b600060ff82169050919050565b6104a981610421565b81146104b457600080fd5b50565b6104c081610433565b81146104cb57600080fd5b50565b6104d78161043f565b81146104e257600080fd5b50565b6104ee8161044c565b81146104f957600080fd5b50565b6105058161045a565b811461051057600080fd5b50565b61051c8161047a565b811461052757600080fd5b50565b61053381610493565b811461053e57600080fd5b5056fea26469706673582212200801bce7f4b6a7ad80db586aaacfad25b02c550fd1f6138482746f43bb23a3a264736f6c63430007050033",
  "immutableReferences": {
    "2361": [
      {
        "length": 32,
        "start": 578
      },
      {
        "length": 32,
        "start": 3106
      },
      {
        "length": 32,
        "start": 3355
      },
      {
        "length": 32,
        "start": 3537
      }
    ],
    "2363": [
      {
        "length": 32,
        "start": 1776
      },
      {
        "length": 32,
        "start": 3573
      }
    ],
    "2365": [
      {
        "length": 32,
        "start": 1896
      },
      {
        "length": 32,
        "start": 2072
      },
      {
        "length": 32,
        "start": 2523
      },
      {
        "length": 32,
        "start": 2705
      }
    ],
    "2367": [
      {
        "length": 32,
        "start": 2132
      },
      {
        "length": 32,
        "start": 2888
      }
    ]
  },
  "source": "// SPDX-License-Identifier: MIT\npragma solidity >=0.7.5;\npragma abicoder v2;\n\nimport '@uniswap/v3-periphery/contracts/libraries/TransferHelper.sol';\nimport '@uniswap/v3-periphery/contracts/interfaces/ISwapRouter.sol';\nimport '@uniswap/v3-periphery/contracts/interfaces/IPeripheryPayments.sol';\nimport '@openzeppelin/contracts/token/ERC20/ERC20.sol';\n\nimport './PriceProtocol.sol';\nimport './IndexToken.sol';\n\n\ncontract BaseIndex {\n    struct TokenPrice{\n        address token;\n        string name;\n        uint256 price;\n    }\n\n    struct TokenSwapPool{\n        address tokenAddress;\n        uint24 poolFee;\n    }\n\n    struct IndexInitialParameters{\n        string tokenName;\n        uint8 decimalUnits;\n        uint initialAmount;\n        string tokenSymbol;\n        uint minimalFundAddition;\n    }\n\n    uint private totalLockedTokens;\n    IndexToken public immutable indexToken;\n    uint256 public immutable minimalFundAddition;\n    address private immutable buyTokenAddress;  // 0xC02aaA39b223FE8D0A0e5C4F27eAD9083C756Cc2\n    ISwapRouter private immutable uniswapRouter;    // 0xE592427A0AEce92De3Edee1F18E0157C05861564\n    PriceOracle private priceOracle; // 0x1F98431c8aD98523631AE4a59f267346ea31F984\n    BaseIndex.TokenSwapPool[] public tokenContracts;\n\n    constructor(\n        BaseIndex.IndexInitialParameters memory params,\n        address uniswapAddress, address priceOracleAddress, address _buyTokenAddress\n    ){\n        indexToken = new IndexToken(\n            params.initialAmount, address(this), params.tokenName, params.decimalUnits, params.tokenSymbol\n        );\n        minimalFundAddition = params.minimalFundAddition;\n        uniswapRouter = ISwapRouter(uniswapAddress);\n        buyTokenAddress = _buyTokenAddress;\n        priceOracle = new PriceOracle(priceOracleAddress);\n    }\n\n    function calculatePrice(uint totalTokensPrice) private view returns(uint){\n        return totalTokensPrice / tokenContracts.length;\n    }\n\n    function addFunds(uint amountIn) public{\n        require(amountIn >= minimalFundAddition, \"Not enough funds to add to the index\");\n        uint buyAmount = amountIn / tokenContracts.length;\n        uint totalPrice;\n\n        IERC20(buyTokenAddress).transferFrom(msg.sender, address(this), amountIn);\n        IERC20(buyTokenAddress).approve(address(uniswapRouter), amountIn);\n\n        for (uint256 index = 0; index < tokenContracts.length; index++) {\n            TokenSwapPool memory token = tokenContracts[index];\n\n            uint tokenPrice = priceOracle.getPrice(buyTokenAddress, token.tokenAddress, token.poolFee);\n            uint tokenAmountOut = buyAmount * tokenPrice;\n\n            ISwapRouter.ExactInputSingleParams memory params = ISwapRouter.ExactInputSingleParams({\n                tokenIn: buyTokenAddress,\n                tokenOut: token.tokenAddress,\n                fee: token.poolFee,\n                recipient: address(this),\n                deadline: block.timestamp,\n                amountIn: buyAmount,\n                amountOutMinimum: 0,\n                sqrtPriceLimitX96: 0\n            });\n\n            uniswapRouter.exactInputSingle(params);\n            totalPrice += tokenPrice;\n        }\n\n        uint tokensAmount = amountIn / calculatePrice(totalPrice);\n        require(\n            indexToken.balanceOf(address(this)) >= tokensAmount,\n            \"Not enough tokens in the index, you can only buy it on secondary markets\"\n        );\n\n        totalLockedTokens += tokensAmount;\n        indexToken.transferFrom(address(this), msg.sender, tokensAmount);\n    }\n\n    function getTokenPrices(address comparisonTokenAddress) public view returns (BaseIndex.TokenPrice[] memory) {\n        BaseIndex.TokenPrice[] memory tokenPrices = new BaseIndex.TokenPrice[](tokenContracts.length);\n\n        for (uint256 i = 0; i < tokenContracts.length; i++) {\n            address tokenAddress = tokenContracts[i].tokenAddress;\n            ERC20 token = ERC20(tokenAddress);\n\n            tokenPrices[i] = BaseIndex.TokenPrice({\n                price: priceOracle.getPrice(tokenAddress, comparisonTokenAddress, tokenContracts[i].poolFee),\n                name: token.symbol(),\n                token: tokenAddress\n            });\n        }\n\n        return tokenPrices;\n    }\n\n    function getIndexPrice(address comparisonTokenAddress) public view returns(uint){\n        uint totalTokensPrice;\n\n        for (uint256 i = 0; i < tokenContracts.length; i++) {\n            TokenSwapPool memory token = tokenContracts[i];\n            totalTokensPrice += priceOracle.getPrice(token.tokenAddress, comparisonTokenAddress, token.poolFee);\n        }\n\n        return calculatePrice(totalTokensPrice);\n    }\n\n    function getTotalLockedValue(address comparisonTokenAddress) public view returns(uint){\n        return totalLockedTokens * getIndexPrice(comparisonTokenAddress);\n    }\n\n    function getMyTokensPrice(address comparisonTokenAddress) public view returns(uint256){\n        return indexToken.balanceOf(msg.sender) * getIndexPrice(comparisonTokenAddress);\n    }\n\n}\n",
  "sourcePath": "F:\\JavascriptProjects\\crypto-index\\contracts\\BaseIndex.sol",
  "compiler": {
    "name": "solc",
    "version": "0.7.5+commit.eb77ed08.Linux.g++"
  },
  "schemaVersion": "3.4.3",
  "updatedAt": "2022-03-11T11:04:18.866Z",
  "devdoc": {
    "kind": "dev",
    "methods": {},
    "version": 1
  },
  "userdoc": {
    "kind": "user",
    "methods": {},
    "version": 1
  }
}