{
  "contractName": "CorrelationIndex",
  "abi": [
    {
      "inputs": [],
      "stateMutability": "nonpayable",
      "type": "constructor"
    },
    {
      "anonymous": false,
      "inputs": [
        {
          "indexed": true,
          "internalType": "address",
          "name": "previousOwner",
          "type": "address"
        },
        {
          "indexed": true,
          "internalType": "address",
          "name": "newOwner",
          "type": "address"
        }
      ],
      "name": "OwnershipTransferred",
      "type": "event"
    },
    {
      "inputs": [],
      "name": "addFunds",
      "outputs": [],
      "stateMutability": "payable",
      "type": "function"
    },
    {
      "inputs": [],
      "name": "getMyTokens",
      "outputs": [
        {
          "internalType": "uint256",
          "name": "",
          "type": "uint256"
        }
      ],
      "stateMutability": "view",
      "type": "function"
    },
    {
      "inputs": [],
      "name": "getMyTokensPrice",
      "outputs": [
        {
          "internalType": "uint256",
          "name": "",
          "type": "uint256"
        }
      ],
      "stateMutability": "view",
      "type": "function"
    },
    {
      "inputs": [],
      "name": "getPrice",
      "outputs": [
        {
          "internalType": "uint256",
          "name": "",
          "type": "uint256"
        }
      ],
      "stateMutability": "view",
      "type": "function"
    },
    {
      "inputs": [],
      "name": "getTVL",
      "outputs": [
        {
          "internalType": "uint256",
          "name": "",
          "type": "uint256"
        }
      ],
      "stateMutability": "view",
      "type": "function"
    },
    {
      "inputs": [],
      "name": "minimalFundAddition",
      "outputs": [
        {
          "internalType": "uint256",
          "name": "",
          "type": "uint256"
        }
      ],
      "stateMutability": "view",
      "type": "function"
    },
    {
      "inputs": [],
      "name": "name",
      "outputs": [
        {
          "internalType": "string",
          "name": "",
          "type": "string"
        }
      ],
      "stateMutability": "view",
      "type": "function"
    },
    {
      "inputs": [],
      "name": "owner",
      "outputs": [
        {
          "internalType": "address",
          "name": "",
          "type": "address"
        }
      ],
      "stateMutability": "view",
      "type": "function"
    },
    {
      "inputs": [],
      "name": "poolFee",
      "outputs": [
        {
          "internalType": "uint24",
          "name": "",
          "type": "uint24"
        }
      ],
      "stateMutability": "view",
      "type": "function"
    },
    {
      "inputs": [
        {
          "internalType": "uint256",
          "name": "",
          "type": "uint256"
        }
      ],
      "name": "priceConsumers",
      "outputs": [
        {
          "internalType": "address",
          "name": "",
          "type": "address"
        }
      ],
      "stateMutability": "view",
      "type": "function"
    },
    {
      "inputs": [],
      "name": "renounceOwnership",
      "outputs": [],
      "stateMutability": "nonpayable",
      "type": "function"
    },
    {
      "inputs": [],
      "name": "symbol",
      "outputs": [
        {
          "internalType": "string",
          "name": "",
          "type": "string"
        }
      ],
      "stateMutability": "view",
      "type": "function"
    },
    {
      "inputs": [
        {
          "internalType": "uint256",
          "name": "",
          "type": "uint256"
        }
      ],
      "name": "tokenContracts",
      "outputs": [
        {
          "internalType": "address",
          "name": "",
          "type": "address"
        }
      ],
      "stateMutability": "view",
      "type": "function"
    },
    {
      "inputs": [
        {
          "internalType": "address",
          "name": "newOwner",
          "type": "address"
        }
      ],
      "name": "transferOwnership",
      "outputs": [],
      "stateMutability": "nonpayable",
      "type": "function"
    },
    {
      "inputs": [],
      "name": "uniswapRouter",
      "outputs": [
        {
          "internalType": "contract ISwapRouter",
          "name": "",
          "type": "address"
        }
      ],
      "stateMutability": "view",
      "type": "function"
    }
  ],
  "bytecode": "0x608060405260088054600160a060020a031990811673c02aaa39b223fe8d0a0e5c4f27ead9083c756cc2179091556009805490911673e592427a0aece92de3edee1f18e0157c058615641790553480156200005957600080fd5b506200008062000071640100000000620001e9810204565b640100000000620001ed810204565b60646003556040805180820190915260118082527f436f7272656c6174696f6e20496e6465780000000000000000000000000000006020909201918252620000cb916004916200023d565b506040805180820190915260028082527f4349000000000000000000000000000000000000000000000000000000000000602090920191825262000112916005916200023d565b5060408051606081018252735f4ec3df9cbd43714fe2740f5e3616155c5b8419815273f4030086522a5beea4988f8ca5b36dbc97bee88c6020820152732c1d072e956affc0d435cb7ac38ef18d24d9127c918101919091526200017a906006906003620002cc565b506040805160608101825273c02aaa39b223fe8d0a0e5c4f27ead9083c756cc28152732260fac5e5542a773aa44fbcfedf7c193bc2c599602082015273514910771af9ca656af840dff83e8264ecf986ca91810191909152620001e2906007906003620002cc565b5062000391565b3390565b60008054600160a060020a03838116600160a060020a0319831681178455604051919092169283917f8be0079c531659141344cd1fd0a4f28419497f9722a3daafe3b4186f6b6457e09190a35050565b8280546200024b906200033b565b90600052602060002090601f0160209004810192826200026f5760008555620002ba565b82601f106200028a57805160ff1916838001178555620002ba565b82800160010185558215620002ba579182015b82811115620002ba5782518255916020019190600101906200029d565b50620002c892915062000324565b5090565b828054828255906000526020600020908101928215620002ba579160200282015b82811115620002ba5782518254600160a060020a031916600160a060020a03909116178255602090920191600190910190620002ed565b5b80821115620002c8576000815560010162000325565b6002810460018216806200035057607f821691505b602082108114156200038b577f4e487b7100000000000000000000000000000000000000000000000000000000600052602260045260246000fd5b50919050565b610adf80620003a16000396000f3fe608060405260043610610105576000357c010000000000000000000000000000000000000000000000000000000090048063735de9f7116100a757806398d5fdca1161007657806398d5fdca1461027b578063a26759cb14610290578063f2fde38b14610298578063f3b755c7146102b857600080fd5b8063735de9f7146102135780638da5cb5b1461023357806395d89b411461025157806397b3fcaa1461026657600080fd5b80631d9fb309116100e35780631d9fb309146101825780635b3b136a146101ba57806367ebf886146101dc578063715018a6146101fc57600080fd5b806306fdde031461010a578063089fe6aa146101355780631d85b4151461015f575b600080fd5b34801561011657600080fd5b5061011f6102ce565b60405161012c919061096d565b60405180910390f35b34801561014157600080fd5b5061014b610bb881565b60405162ffffff909116815260200161012c565b34801561016b57600080fd5b5061017461035c565b60405190815260200161012c565b34801561018e57600080fd5b506101a261019d3660046108eb565b610385565b604051600160a060020a03909116815260200161012c565b3480156101c657600080fd5b5033600090815260026020526040902054610174565b3480156101e857600080fd5b506101a26101f73660046108eb565b6103af565b34801561020857600080fd5b506102116103bf565b005b34801561021f57600080fd5b506009546101a290600160a060020a031681565b34801561023f57600080fd5b50600054600160a060020a03166101a2565b34801561025d57600080fd5b5061011f610444565b34801561027257600080fd5b50610174610451565b34801561028757600080fd5b50610174610468565b610211610578565b3480156102a457600080fd5b506102116102b33660046108bb565b610729565b3480156102c457600080fd5b5061017460035481565b600480546102db90610a1e565b80601f016020809104026020016040519081016040528092919081815260200182805461030790610a1e565b80156103545780601f1061032957610100808354040283529160200191610354565b820191906000526020600020905b81548152906001019060200180831161033757829003601f168201915b505050505081565b6000610366610468565b3360009081526002602052604090205461038091906109ff565b905090565b6007818154811061039557600080fd5b600091825260209091200154600160a060020a0316905081565b6006818154811061039557600080fd5b600054600160a060020a03163314610438576040517f08c379a000000000000000000000000000000000000000000000000000000000815260206004820181905260248201527f4f776e61626c653a2063616c6c6572206973206e6f7420746865206f776e657260448201526064015b60405180910390fd5b610442600061083f565b565b600580546102db90610a1e565b600061045b610468565b60015461038091906109ff565b600080805b6006548110156105645760006006828154811061048c5761048c610a90565b9060005260206000200160009054906101000a9004600160a060020a03169050600081600160a060020a031663feaf968c6040518163ffffffff167c010000000000000000000000000000000000000000000000000000000002815260040160a06040518083038186803b15801561050357600080fd5b505afa158015610517573d6000803e3d6000fd5b505050506040513d601f19601f8201168201806040525081019061053b919061091d565b505050915050808461054d91906109c2565b93505050808061055c90610a5c565b91505061046d565b5060065461057290826109da565b91505090565b346001600082825461058a91906109c2565b90915550503360009081526002602052604081208054600192906105af9084906109c2565b9091555050604080516101008101909152600854600160a060020a031681526007805460009291602083019184906105e9576105e9610a90565b60009182526020918290200154600160a060020a03168252610bb89082015230604082015260600161061d42610e106109c2565b8152346020808301919091526000604080840182905260609384019190915260095481517f414bf3890000000000000000000000000000000000000000000000000000000081528551600160a060020a03908116600483015293860151841660248201529185015162ffffff16604483015292840151821660648201526080840151608482015260a084015160a482015260c084015160c482015260e0840151821660e4820152929350169063414bf3899061010401602060405180830381600087803b1580156106ed57600080fd5b505af1158015610701573d6000803e3d6000fd5b505050506040513d601f19601f820116820180604052508101906107259190610904565b5050565b600054600160a060020a0316331461079d576040517f08c379a000000000000000000000000000000000000000000000000000000000815260206004820181905260248201527f4f776e61626c653a2063616c6c6572206973206e6f7420746865206f776e6572604482015260640161042f565b600160a060020a038116610833576040517f08c379a000000000000000000000000000000000000000000000000000000000815260206004820152602660248201527f4f776e61626c653a206e6577206f776e657220697320746865207a65726f206160448201527f6464726573730000000000000000000000000000000000000000000000000000606482015260840161042f565b61083c8161083f565b50565b60008054600160a060020a0383811673ffffffffffffffffffffffffffffffffffffffff19831681178455604051919092169283917f8be0079c531659141344cd1fd0a4f28419497f9722a3daafe3b4186f6b6457e09190a35050565b805169ffffffffffffffffffff811681146108b657600080fd5b919050565b6000602082840312156108cd57600080fd5b8135600160a060020a03811681146108e457600080fd5b9392505050565b6000602082840312156108fd57600080fd5b5035919050565b60006020828403121561091657600080fd5b5051919050565b600080600080600060a0868803121561093557600080fd5b61093e8661089c565b94506020860151935060408601519250606086015191506109616080870161089c565b90509295509295909350565b600060208083528351808285015260005b8181101561099a5785810183015185820160400152820161097e565b818111156109ac576000604083870101525b50601f01601f1916929092016040019392505050565b600082198211156109d5576109d5610a77565b500190565b6000826109fa5760e060020a634e487b7102600052601260045260246000fd5b500490565b6000816000190483118215151615610a1957610a19610a77565b500290565b600281046001821680610a3257607f821691505b60208210811415610a565760e060020a634e487b7102600052602260045260246000fd5b50919050565b6000600019821415610a7057610a70610a77565b5060010190565b60e060020a634e487b7102600052601160045260246000fd5b60e060020a634e487b7102600052603260045260246000fdfea26469706673582212202e22ac1f963c9ec1f2b7c8299a14d786b99ecb7bdafa57e93808cf93eec246fb64736f6c63430008070033",
  "immutableReferences": {},
  "source": "// SPDX-License-Identifier: MIT\npragma solidity ^0.8.7;\n\nimport './PriceProtocol.sol';\nimport \"@openzeppelin/contracts/access/Ownable.sol\";\nimport \"@openzeppelin/contracts/utils/Strings.sol\";\nimport \"@chainlink/contracts/src/v0.8/interfaces/AggregatorV3Interface.sol\";\nimport '@uniswap/v3-periphery/contracts/libraries/TransferHelper.sol';\nimport '@uniswap/v3-periphery/contracts/interfaces/ISwapRouter.sol';\nimport '@uniswap/v3-periphery/contracts/interfaces/IPeripheryPayments.sol';\n\n\ncontract BaseIndex is Ownable {\n\n    uint256 private totalFunds;\n    mapping(address => uint256) private investors;\n    uint256 public minimalFundAddition;\n\n    string public name;\n    string public symbol;\n\n    address[] public priceConsumers;\n    address[] public tokenContracts;\n\n    uint24 public constant poolFee = 3000;\n    address private WETH = 0xC02aaA39b223FE8D0A0e5C4F27eAD9083C756Cc2;\n    ISwapRouter public uniswapRouter = ISwapRouter(0xE592427A0AEce92De3Edee1F18E0157C05861564);\n\n    function getPrice() public view returns (uint) {\n        uint totalPrice = 0;\n\n        for (uint index = 0; index < priceConsumers.length; index++) {\n            AggregatorV3Interface consumer = AggregatorV3Interface(priceConsumers[index]);\n            (, int answer, , ,) = consumer.latestRoundData();\n            totalPrice += uint(answer);\n        }\n\n        return totalPrice / priceConsumers.length;\n    }\n\n    function addFunds() public payable {\n        // require(msg.value < minimalFundAddition, \"Not enough funds to add to the index\");\n        totalFunds += msg.value;\n        investors[msg.sender] += 1; //msg.value / getPrice();\n\n        // TransferHelper.safeTransferETH(indexAddress, msg.value);\n\n        ISwapRouter.ExactInputSingleParams memory params = ISwapRouter.ExactInputSingleParams({\n            tokenIn: WETH,\n            tokenOut: tokenContracts[0],\n            fee: poolFee,\n            recipient: address(this),\n            deadline: block.timestamp + 3600,\n            amountIn: msg.value,\n            amountOutMinimum: 0,\n            sqrtPriceLimitX96: 0\n        });\n\n        uniswapRouter.exactInputSingle(params);\n        // IPeripheryPayments().refundETH();\n    }\n\n    function getTVL() public view returns(uint256){\n        return totalFunds * getPrice();\n    }\n\n    function getMyTokensPrice() public view returns(uint256){\n        return getMyTokens() * getPrice();\n    }\n\n    function getMyTokens() public view returns(uint256){\n        return investors[msg.sender];\n    }\n\n}\n\n\ncontract CorrelationIndex is BaseIndex {\n\n    constructor(){\n        minimalFundAddition = 100;\n        name = \"Correlation Index\";\n        symbol = \"CI\";\n\n        priceConsumers = [\n            // BSC mainnet\n            // 0x0567F2323251f0Aab15c8dFb1967E4e8A7D42aeE,    // BNB\n            // 0x7CA57b0cA6367191c94C8914d7Df09A57655905f,    // MATIC\n            // 0x264990fbd0A4796A3E3d8E37C4d5F87a3aCa5Ebf,    // WBTC\n            // 0xca236E327F629f9Fc2c30A4E95775EbF0B89fac8,    // LINK\n            // 0xF4C5e535756D11994fCBB12Ba8adD0192D9b88be,    // TRX\n            // 0xb57f259E7C24e56a1dA00F66b55A5640d9f9E7e4,    // UNI\n\n            // ETH mainnet\n            0x5f4eC3Df9cbd43714FE2740f5E3616155c5b8419,    // ETH\n            0xF4030086522a5bEEa4988F8cA5B36dbC97BeE88c,    // BTC\n            0x2c1d072e956AFFC0D435Cb7AC38EF18d24d9127c    // LINK\n        ];\n\n        tokenContracts = [\n            // ETH mainnet\n            // 0xB8c77482e45F1F44dE1745F52C74426C631bDD52,     // BNB\n            // 0x7D1AfA7B718fb893dB30A3aBc0Cfc608AaCfeBB0,     // MATIC\n            // 0xE1Be5D3f34e89dE342Ee97E6e90D405884dA6c67,     // TRX\n            // 0x1f9840a85d5aF5bf1D1762F925BDADdC4201F984,     // UNI\n\n            0xC02aaA39b223FE8D0A0e5C4F27eAD9083C756Cc2,    // WETH\n            0x2260FAC5E5542a773Aa44fBCfeDf7C193bc2C599,     // WBTC\n            0x514910771AF9Ca656af840dff83E8264EcF986CA     // LINK\n        ];\n    }\n\n}\n",
  "sourcePath": "F:\\JavascriptProjects\\crypto-index\\contracts\\Index.sol",
  "compiler": {
    "name": "solc",
    "version": "0.8.7+commit.e28d00a7.Linux.g++"
  },
  "schemaVersion": "3.4.3",
  "updatedAt": "2022-03-03T21:54:06.523Z",
  "devdoc": {
    "kind": "dev",
    "methods": {
      "owner()": {
        "details": "Returns the address of the current owner."
      },
      "renounceOwnership()": {
        "details": "Leaves the contract without owner. It will not be possible to call `onlyOwner` functions anymore. Can only be called by the current owner. NOTE: Renouncing ownership will leave the contract without an owner, thereby removing any functionality that is only available to the owner."
      },
      "transferOwnership(address)": {
        "details": "Transfers ownership of the contract to a new account (`newOwner`). Can only be called by the current owner."
      }
    },
    "version": 1
  },
  "userdoc": {
    "kind": "user",
    "methods": {},
    "version": 1
  }
}