{
  "contractName": "CorrelationIndex",
  "abi": [
    {
      "anonymous": false,
      "inputs": [
        {
          "indexed": true,
          "internalType": "address",
          "name": "previousOwner",
          "type": "address"
        },
        {
          "indexed": true,
          "internalType": "address",
          "name": "newOwner",
          "type": "address"
        }
      ],
      "name": "OwnershipTransferred",
      "type": "event"
    },
    {
      "inputs": [
        {
          "internalType": "uint256",
          "name": "amount",
          "type": "uint256"
        }
      ],
      "name": "addFunds",
      "outputs": [],
      "stateMutability": "nonpayable",
      "type": "function"
    },
    {
      "inputs": [],
      "name": "buyTokenAddress",
      "outputs": [
        {
          "internalType": "address",
          "name": "",
          "type": "address"
        }
      ],
      "stateMutability": "view",
      "type": "function"
    },
    {
      "inputs": [],
      "name": "dexRouterAddress",
      "outputs": [
        {
          "internalType": "address",
          "name": "",
          "type": "address"
        }
      ],
      "stateMutability": "view",
      "type": "function"
    },
    {
      "inputs": [],
      "name": "getIndexPrice",
      "outputs": [
        {
          "internalType": "uint256",
          "name": "",
          "type": "uint256"
        }
      ],
      "stateMutability": "view",
      "type": "function"
    },
    {
      "inputs": [],
      "name": "indexFee",
      "outputs": [
        {
          "internalType": "uint256",
          "name": "",
          "type": "uint256"
        }
      ],
      "stateMutability": "view",
      "type": "function"
    },
    {
      "inputs": [],
      "name": "indexToken",
      "outputs": [
        {
          "internalType": "contract IndexToken",
          "name": "",
          "type": "address"
        }
      ],
      "stateMutability": "view",
      "type": "function"
    },
    {
      "inputs": [],
      "name": "owner",
      "outputs": [
        {
          "internalType": "address",
          "name": "",
          "type": "address"
        }
      ],
      "stateMutability": "view",
      "type": "function"
    },
    {
      "inputs": [],
      "name": "renounceOwnership",
      "outputs": [],
      "stateMutability": "nonpayable",
      "type": "function"
    },
    {
      "inputs": [
        {
          "internalType": "uint256",
          "name": "",
          "type": "uint256"
        }
      ],
      "name": "tokens",
      "outputs": [
        {
          "internalType": "address",
          "name": "tokenAddress",
          "type": "address"
        },
        {
          "internalType": "address",
          "name": "priceOracleAddress",
          "type": "address"
        },
        {
          "internalType": "uint24",
          "name": "poolFee",
          "type": "uint24"
        },
        {
          "internalType": "uint256",
          "name": "priceAdjustment",
          "type": "uint256"
        }
      ],
      "stateMutability": "view",
      "type": "function"
    },
    {
      "inputs": [
        {
          "internalType": "address",
          "name": "newOwner",
          "type": "address"
        }
      ],
      "name": "transferOwnership",
      "outputs": [],
      "stateMutability": "nonpayable",
      "type": "function"
    },
    {
      "inputs": [
        {
          "internalType": "uint256",
          "name": "amount",
          "type": "uint256"
        }
      ],
      "name": "withdrawFunds",
      "outputs": [],
      "stateMutability": "nonpayable",
      "type": "function"
    }
  ],
  "bytecode": "0x60c06040523480156200001157600080fd5b506000620000246200052760201b60201c565b9050806000806101000a81548173ffffffffffffffffffffffffffffffffffffffff021916908373ffffffffffffffffffffffffffffffffffffffff1602179055508073ffffffffffffffffffffffffffffffffffffffff16600073ffffffffffffffffffffffffffffffffffffffff167f8be0079c531659141344cd1fd0a4f28419497f9722a3daafe3b4186f6b6457e060405160405180910390a35073e592427a0aece92de3edee1f18e0157c0586156473ffffffffffffffffffffffffffffffffffffffff1660808173ffffffffffffffffffffffffffffffffffffffff1660601b81525050736b175474e89094c44da98b954eedeac495271d0f73ffffffffffffffffffffffffffffffffffffffff1660a08173ffffffffffffffffffffffffffffffffffffffff1660601b8152505060016004819055503062989680601260405162000175906200052f565b620001839392919062000602565b604051809103906000f080158015620001a0573d6000803e3d6000fd5b50600360006101000a81548173ffffffffffffffffffffffffffffffffffffffff021916908373ffffffffffffffffffffffffffffffffffffffff160217905550604051620001ef906200053d565b604051809103906000f0801580156200020c573d6000803e3d6000fd5b50600260006101000a81548173ffffffffffffffffffffffffffffffffffffffff021916908373ffffffffffffffffffffffffffffffffffffffff1602179055506001604051806080016040528073c02aaa39b223fe8d0a0e5c4f27ead9083c756cc273ffffffffffffffffffffffffffffffffffffffff168152602001735f4ec3df9cbd43714fe2740f5e3616155c5b841973ffffffffffffffffffffffffffffffffffffffff168152602001610bb862ffffff1681526020016305f5e100815250908060018154018082558091505060019003906000526020600020906003020160009091909190915060008201518160000160006101000a81548173ffffffffffffffffffffffffffffffffffffffff021916908373ffffffffffffffffffffffffffffffffffffffff16021790555060208201518160010160006101000a81548173ffffffffffffffffffffffffffffffffffffffff021916908373ffffffffffffffffffffffffffffffffffffffff16021790555060408201518160010160146101000a81548162ffffff021916908362ffffff16021790555060608201518160020155505060016040518060800160405280732260fac5e5542a773aa44fbcfedf7c193bc2c59973ffffffffffffffffffffffffffffffffffffffff16815260200173f4030086522a5beea4988f8ca5b36dbc97bee88c73ffffffffffffffffffffffffffffffffffffffff168152602001610bb862ffffff1681526020016305f5e100815250908060018154018082558091505060019003906000526020600020906003020160009091909190915060008201518160000160006101000a81548173ffffffffffffffffffffffffffffffffffffffff021916908373ffffffffffffffffffffffffffffffffffffffff16021790555060208201518160010160006101000a81548173ffffffffffffffffffffffffffffffffffffffff021916908373ffffffffffffffffffffffffffffffffffffffff16021790555060408201518160010160146101000a81548162ffffff021916908362ffffff160217905550606082015181600201555050620006ed565b600033905090565b611252806200248a83390190565b6101b380620036dc83390190565b62000556816200067a565b82525050565b6200056781620006c5565b82525050565b6200057881620006d9565b82525050565b60006200058d60058362000669565b91507f494e4445580000000000000000000000000000000000000000000000000000006000830152602082019050919050565b6000620005cf600b8362000669565b91507f496e64657820746f6b656e0000000000000000000000000000000000000000006000830152602082019050919050565b600060a0820190506200061960008301866200054b565b6200062860208301856200055c565b81810360408301526200063b81620005c0565b90506200064c60608301846200056d565b81810360808301526200065f816200057e565b9050949350505050565b600082825260208201905092915050565b600062000687826200068e565b9050919050565b600073ffffffffffffffffffffffffffffffffffffffff82169050919050565b6000819050919050565b600060ff82169050919050565b6000620006d282620006ae565b9050919050565b6000620006e682620006b8565b9050919050565b60805160601c60a05160601c611d46620007446000398061057b52806109505280610b755280610ba15280610be95280610e08525080610284528061048f5280610bc25280610cb3528061104e5250611d466000f3fe608060405234801561001057600080fd5b50600436106100995760003560e01c8063155dd5ee1461009e57806317ff37a5146100ba5780634f64b2be146100d857806358c0994a1461010b57806360ebbf8114610129578063715018a6146101475780638da5cb5b14610151578063be9997051461016f578063e7d015f21461018b578063e7f67fb1146101a9578063f2fde38b146101c7575b600080fd5b6100b860048036038101906100b39190611858565b6101e3565b005b6100c26106b6565b6040516100cf9190611bc8565b60405180910390f35b6100f260048036038101906100ed9190611858565b6106c0565b6040516101029493929190611ae3565b60405180910390f35b61011361074f565b6040516101209190611bc8565b60405180910390f35b61013161094e565b60405161013e9190611a9f565b60405180910390f35b61014f610972565b005b610159610adf565b6040516101669190611a9f565b60405180910390f35b61018960048036038101906101849190611858565b610b08565b005b610193611026565b6040516101a09190611b51565b60405180910390f35b6101b161104c565b6040516101be9190611a9f565b60405180910390f35b6101e160048036038101906101dc9190611806565b611070565b005b60018111610226576040517f08c379a000000000000000000000000000000000000000000000000000000000815260040161021d90611b8c565b60405180910390fd5b60008061023283611262565b91509150610264600360009054906101000a900473ffffffffffffffffffffffffffffffffffffffff1633308661128c565b600060018054905061027461074f565b83028161027d57fe5b04905060007f0000000000000000000000000000000000000000000000000000000000000000905060005b6001805490508110156106ae576102bd6116b7565b600182815481106102ca57fe5b90600052602060002090600302016040518060800160405290816000820160009054906101000a900473ffffffffffffffffffffffffffffffffffffffff1673ffffffffffffffffffffffffffffffffffffffff1673ffffffffffffffffffffffffffffffffffffffff1681526020016001820160009054906101000a900473ffffffffffffffffffffffffffffffffffffffff1673ffffffffffffffffffffffffffffffffffffffff1673ffffffffffffffffffffffffffffffffffffffff1681526020016001820160149054906101000a900462ffffff1662ffffff1662ffffff16815260200160028201548152505090506000600260009054906101000a900473ffffffffffffffffffffffffffffffffffffffff1673ffffffffffffffffffffffffffffffffffffffff1663449e815d836020015184606001516040518363ffffffff1660e01b8152600401610425929190611b28565b60206040518083038186803b15801561043d57600080fd5b505afa158015610451573d6000803e3d6000fd5b505050506040513d601f19601f820116820180604052508101906104759190611881565b9050600081868161048257fe5b0490506104b483600001517f0000000000000000000000000000000000000000000000000000000000000000836114ad565b6000836000015173ffffffffffffffffffffffffffffffffffffffff166370a08231306040518263ffffffff1660e01b81526004016104f39190611a9f565b60206040518083038186803b15801561050b57600080fd5b505afa15801561051f573d6000803e3d6000fd5b505050506040513d601f19601f820116820180604052508101906105439190611881565b905061054d611710565b604051806101000160405280866000015173ffffffffffffffffffffffffffffffffffffffff1681526020017f000000000000000000000000000000000000000000000000000000000000000073ffffffffffffffffffffffffffffffffffffffff168152602001866040015162ffffff1681526020013373ffffffffffffffffffffffffffffffffffffffff16815260200142815260200184815260200160008152602001600073ffffffffffffffffffffffffffffffffffffffff1681525090508673ffffffffffffffffffffffffffffffffffffffff1663414bf389826040518263ffffffff1660e01b81526004016106499190611bac565b602060405180830381600087803b15801561066357600080fd5b505af1158015610677573d6000803e3d6000fd5b505050506040513d601f19601f8201168201806040525081019061069b9190611881565b50505050505080806001019150506102a8565b505050505050565b6000600454905090565b600181815481106106d057600080fd5b90600052602060002090600302016000915090508060000160009054906101000a900473ffffffffffffffffffffffffffffffffffffffff16908060010160009054906101000a900473ffffffffffffffffffffffffffffffffffffffff16908060010160149054906101000a900462ffffff16908060020154905084565b60008060005b6001805490508110156109385761076a6116b7565b6001828154811061077757fe5b90600052602060002090600302016040518060800160405290816000820160009054906101000a900473ffffffffffffffffffffffffffffffffffffffff1673ffffffffffffffffffffffffffffffffffffffff1673ffffffffffffffffffffffffffffffffffffffff1681526020016001820160009054906101000a900473ffffffffffffffffffffffffffffffffffffffff1673ffffffffffffffffffffffffffffffffffffffff1673ffffffffffffffffffffffffffffffffffffffff1681526020016001820160149054906101000a900462ffffff1662ffffff1662ffffff16815260200160028201548152505090506000600260009054906101000a900473ffffffffffffffffffffffffffffffffffffffff1673ffffffffffffffffffffffffffffffffffffffff1663449e815d836020015184606001516040518363ffffffff1660e01b81526004016108d2929190611b28565b60206040518083038186803b1580156108ea57600080fd5b505afa1580156108fe573d6000803e3d6000fd5b505050506040513d601f19601f820116820180604052508101906109229190611881565b9050808401935050508080600101915050610755565b50600180549050818161094757fe5b0491505090565b7f000000000000000000000000000000000000000000000000000000000000000081565b61097a6116af565b73ffffffffffffffffffffffffffffffffffffffff16610998610adf565b73ffffffffffffffffffffffffffffffffffffffff1614610a21576040517f08c379a00000000000000000000000000000000000000000000000000000000081526004018080602001828103825260208152602001807f4f776e61626c653a2063616c6c6572206973206e6f7420746865206f776e657281525060200191505060405180910390fd5b600073ffffffffffffffffffffffffffffffffffffffff1660008054906101000a900473ffffffffffffffffffffffffffffffffffffffff1673ffffffffffffffffffffffffffffffffffffffff167f8be0079c531659141344cd1fd0a4f28419497f9722a3daafe3b4186f6b6457e060405160405180910390a360008060006101000a81548173ffffffffffffffffffffffffffffffffffffffff021916908373ffffffffffffffffffffffffffffffffffffffff160217905550565b60008060009054906101000a900473ffffffffffffffffffffffffffffffffffffffff16905090565b6000610b1261074f565b9050600080610b2084611262565b915091506000838281610b2f57fe5b0411610b70576040517f08c379a0000000000000000000000000000000000000000000000000000000008152600401610b6790611b6c565b60405180910390fd5b610b9c7f000000000000000000000000000000000000000000000000000000000000000033308761128c565b610be77f00000000000000000000000000000000000000000000000000000000000000007f0000000000000000000000000000000000000000000000000000000000000000836114ad565b7f000000000000000000000000000000000000000000000000000000000000000073ffffffffffffffffffffffffffffffffffffffff1663a9059cbb610c2b610adf565b846040518363ffffffff1660e01b8152600401610c49929190611b28565b602060405180830381600087803b158015610c6357600080fd5b505af1158015610c77573d6000803e3d6000fd5b505050506040513d601f19601f82011682018060405250810190610c9b919061182f565b5060006001805490508281610cac57fe5b04905060007f00000000000000000000000000000000000000000000000000000000000000009050600080600090505b600180549050811015610f5c57610cf16116b7565b60018281548110610cfe57fe5b90600052602060002090600302016040518060800160405290816000820160009054906101000a900473ffffffffffffffffffffffffffffffffffffffff1673ffffffffffffffffffffffffffffffffffffffff1673ffffffffffffffffffffffffffffffffffffffff1681526020016001820160009054906101000a900473ffffffffffffffffffffffffffffffffffffffff1673ffffffffffffffffffffffffffffffffffffffff1673ffffffffffffffffffffffffffffffffffffffff1681526020016001820160149054906101000a900462ffffff1662ffffff1662ffffff1681526020016002820154815250509050610dfa611710565b6040518061010001604052807f000000000000000000000000000000000000000000000000000000000000000073ffffffffffffffffffffffffffffffffffffffff168152602001836000015173ffffffffffffffffffffffffffffffffffffffff168152602001836040015162ffffff1681526020013073ffffffffffffffffffffffffffffffffffffffff168152602001600f4201815260200187815260200160008152602001600073ffffffffffffffffffffffffffffffffffffffff1681525090508473ffffffffffffffffffffffffffffffffffffffff1663414bf389826040518263ffffffff1660e01b8152600401610ef99190611bac565b602060405180830381600087803b158015610f1357600080fd5b505af1158015610f27573d6000803e3d6000fd5b505050506040513d601f19601f82011682018060405250810190610f4b9190611881565b935050508080600101915050610cdc565b50600360009054906101000a900473ffffffffffffffffffffffffffffffffffffffff1673ffffffffffffffffffffffffffffffffffffffff1663a9059cbb3388600180549050870281610fac57fe5b046040518363ffffffff1660e01b8152600401610fca929190611aba565b602060405180830381600087803b158015610fe457600080fd5b505af1158015610ff8573d6000803e3d6000fd5b505050506040513d601f19601f8201168201806040525081019061101c919061182f565b5050505050505050565b600360009054906101000a900473ffffffffffffffffffffffffffffffffffffffff1681565b7f000000000000000000000000000000000000000000000000000000000000000081565b6110786116af565b73ffffffffffffffffffffffffffffffffffffffff16611096610adf565b73ffffffffffffffffffffffffffffffffffffffff161461111f576040517f08c379a00000000000000000000000000000000000000000000000000000000081526004018080602001828103825260208152602001807f4f776e61626c653a2063616c6c6572206973206e6f7420746865206f776e657281525060200191505060405180910390fd5b600073ffffffffffffffffffffffffffffffffffffffff168173ffffffffffffffffffffffffffffffffffffffff1614156111a5576040517f08c379a0000000000000000000000000000000000000000000000000000000008152600401808060200182810382526026815260200180611ceb6026913960400191505060405180910390fd5b8073ffffffffffffffffffffffffffffffffffffffff1660008054906101000a900473ffffffffffffffffffffffffffffffffffffffff1673ffffffffffffffffffffffffffffffffffffffff167f8be0079c531659141344cd1fd0a4f28419497f9722a3daafe3b4186f6b6457e060405160405180910390a3806000806101000a81548173ffffffffffffffffffffffffffffffffffffffff021916908373ffffffffffffffffffffffffffffffffffffffff16021790555050565b60008060006004546064858161127457fe5b04029050600081850390508181935093505050915091565b600060608573ffffffffffffffffffffffffffffffffffffffff166323b872dd60e01b868686604051602401808473ffffffffffffffffffffffffffffffffffffffff1681526020018373ffffffffffffffffffffffffffffffffffffffff1681526020018281526020019350505050604051602081830303815290604052907bffffffffffffffffffffffffffffffffffffffffffffffffffffffff19166020820180517bffffffffffffffffffffffffffffffffffffffffffffffffffffffff83818316178352505050506040518082805190602001908083835b6020831061138c5780518252602082019150602081019050602083039250611369565b6001836020036101000a0380198251168184511680821785525050505050509050019150506000604051808303816000865af19150503d80600081146113ee576040519150601f19603f3d011682016040523d82523d6000602084013e6113f3565b606091505b50915091508180156114335750600081511480611432575080806020019051602081101561142057600080fd5b81019080805190602001909291905050505b5b6114a5576040517f08c379a00000000000000000000000000000000000000000000000000000000081526004018080602001828103825260038152602001807f535446000000000000000000000000000000000000000000000000000000000081525060200191505060405180910390fd5b505050505050565b600060608473ffffffffffffffffffffffffffffffffffffffff1663095ea7b360e01b8585604051602401808373ffffffffffffffffffffffffffffffffffffffff16815260200182815260200192505050604051602081830303815290604052907bffffffffffffffffffffffffffffffffffffffffffffffffffffffff19166020820180517bffffffffffffffffffffffffffffffffffffffffffffffffffffffff83818316178352505050506040518082805190602001908083835b6020831061158f578051825260208201915060208101905060208303925061156c565b6001836020036101000a0380198251168184511680821785525050505050509050019150506000604051808303816000865af19150503d80600081146115f1576040519150601f19603f3d011682016040523d82523d6000602084013e6115f6565b606091505b50915091508180156116365750600081511480611635575080806020019051602081101561162357600080fd5b81019080805190602001909291905050505b5b6116a8576040517f08c379a00000000000000000000000000000000000000000000000000000000081526004018080602001828103825260028152602001807f534100000000000000000000000000000000000000000000000000000000000081525060200191505060405180910390fd5b5050505050565b600033905090565b6040518060800160405280600073ffffffffffffffffffffffffffffffffffffffff168152602001600073ffffffffffffffffffffffffffffffffffffffff168152602001600062ffffff168152602001600081525090565b604051806101000160405280600073ffffffffffffffffffffffffffffffffffffffff168152602001600073ffffffffffffffffffffffffffffffffffffffff168152602001600062ffffff168152602001600073ffffffffffffffffffffffffffffffffffffffff168152602001600081526020016000815260200160008152602001600073ffffffffffffffffffffffffffffffffffffffff1681525090565b6000813590506117c181611ca5565b92915050565b6000815190506117d681611cbc565b92915050565b6000813590506117eb81611cd3565b92915050565b60008151905061180081611cd3565b92915050565b60006020828403121561181857600080fd5b6000611826848285016117b2565b91505092915050565b60006020828403121561184157600080fd5b600061184f848285016117c7565b91505092915050565b60006020828403121561186a57600080fd5b6000611878848285016117dc565b91505092915050565b60006020828403121561189357600080fd5b60006118a1848285016117f1565b91505092915050565b6118b381611c4b565b82525050565b6118c281611bf4565b82525050565b6118d181611bf4565b82525050565b6118e081611c5d565b82525050565b60006118f3602483611be3565b91507f596f75206d75737420616464206d6f72652066756e647320746f20746865206960008301527f6e646578000000000000000000000000000000000000000000000000000000006020830152604082019050919050565b6000611959602b83611be3565b91507f596f75206d757374207769746864726177206d6f72652066756e64732066726f60008301527f6d2074686520696e6465780000000000000000000000000000000000000000006020830152604082019050919050565b610100820160008201516119c960008501826118b9565b5060208201516119dc60208501826118b9565b5060408201516119ef6040850182611a63565b506060820151611a0260608501826118b9565b506080820151611a156080850182611a81565b5060a0820151611a2860a0850182611a81565b5060c0820151611a3b60c0850182611a81565b5060e0820151611a4e60e0850182611a54565b50505050565b611a5d81611c12565b82525050565b611a6c81611c32565b82525050565b611a7b81611c32565b82525050565b611a8a81611c41565b82525050565b611a9981611c41565b82525050565b6000602082019050611ab460008301846118c8565b92915050565b6000604082019050611acf60008301856118aa565b611adc6020830184611a90565b9392505050565b6000608082019050611af860008301876118c8565b611b0560208301866118c8565b611b126040830185611a72565b611b1f6060830184611a90565b95945050505050565b6000604082019050611b3d60008301856118c8565b611b4a6020830184611a90565b9392505050565b6000602082019050611b6660008301846118d7565b92915050565b60006020820190508181036000830152611b85816118e6565b9050919050565b60006020820190508181036000830152611ba58161194c565b9050919050565b600061010082019050611bc260008301846119b2565b92915050565b6000602082019050611bdd6000830184611a90565b92915050565b600082825260208201905092915050565b6000611bff82611c12565b9050919050565b60008115159050919050565b600073ffffffffffffffffffffffffffffffffffffffff82169050919050565b600062ffffff82169050919050565b6000819050919050565b6000611c5682611c81565b9050919050565b6000611c6882611c6f565b9050919050565b6000611c7a82611c12565b9050919050565b6000611c8c82611c93565b9050919050565b6000611c9e82611c12565b9050919050565b611cae81611bf4565b8114611cb957600080fd5b50565b611cc581611c06565b8114611cd057600080fd5b50565b611cdc81611c41565b8114611ce757600080fd5b5056fe4f776e61626c653a206e6577206f776e657220697320746865207a65726f2061646472657373a26469706673582212202e662ed4b032e903e589b72281dccd8431b477948336e4d6db2f55313610bb6d64736f6c6343000705003360806040523480156200001157600080fd5b506040516200125238038062001252833981810160405281019062000037919062000230565b836000808773ffffffffffffffffffffffffffffffffffffffff1673ffffffffffffffffffffffffffffffffffffffff1681526020019081526020016000208190555083600281905550826003908051906020019062000099929190620000d9565b5081600460006101000a81548160ff021916908360ff1602179055508060059080519060200190620000cd929190620000d9565b5050505050506200041c565b828054600181600116156101000203166002900490600052602060002090601f0160209004810192826200011157600085556200015d565b82601f106200012c57805160ff19168380011785556200015d565b828001600101855582156200015d579182015b828111156200015c5782518255916020019190600101906200013f565b5b5090506200016c919062000170565b5090565b5b808211156200018b57600081600090555060010162000171565b5090565b600081519050620001a081620003ce565b92915050565b600082601f830112620001b857600080fd5b8151620001cf620001c98262000318565b620002e4565b91508082526020830160208301858383011115620001ec57600080fd5b620001f983828462000396565b50505092915050565b6000815190506200021381620003e8565b92915050565b6000815190506200022a8162000402565b92915050565b600080600080600060a086880312156200024957600080fd5b600062000259888289016200018f565b95505060206200026c8882890162000202565b945050604086015167ffffffffffffffff8111156200028a57600080fd5b6200029888828901620001a6565b9350506060620002ab8882890162000219565b925050608086015167ffffffffffffffff811115620002c957600080fd5b620002d788828901620001a6565b9150509295509295909350565b6000604051905081810181811067ffffffffffffffff821117156200030e576200030d620003cc565b5b8060405250919050565b600067ffffffffffffffff821115620003365762000335620003cc565b5b601f19601f8301169050602081019050919050565b600062000358826200035f565b9050919050565b600073ffffffffffffffffffffffffffffffffffffffff82169050919050565b6000819050919050565b600060ff82169050919050565b60005b83811015620003b657808201518184015260208101905062000399565b83811115620003c6576000848401525b50505050565bfe5b620003d9816200034b565b8114620003e557600080fd5b50565b620003f3816200037f565b8114620003ff57600080fd5b50565b6200040d8162000389565b81146200041957600080fd5b50565b610e26806200042c6000396000f3fe608060405234801561001057600080fd5b50600436106100995760003560e01c806306fdde031461009e578063095ea7b3146100bc57806318160ddd146100ec57806323b872dd1461010a57806327e235e31461013a578063313ce5671461016a5780635c6581651461018857806370a08231146101b857806395d89b41146101e8578063a9059cbb14610206578063dd62ed3e14610236575b600080fd5b6100a6610266565b6040516100b39190610c75565b60405180910390f35b6100d660048036038101906100d19190610aec565b610304565b6040516100e39190610c5a565b60405180910390f35b6100f46103f6565b6040516101019190610cd7565b60405180910390f35b610124600480360381019061011f9190610a9d565b6103fc565b6040516101319190610c5a565b60405180910390f35b610154600480360381019061014f9190610a38565b6106c7565b6040516101619190610cd7565b60405180910390f35b6101726106df565b60405161017f9190610cf2565b60405180910390f35b6101a2600480360381019061019d9190610a61565b6106f2565b6040516101af9190610cd7565b60405180910390f35b6101d260048036038101906101cd9190610a38565b610717565b6040516101df9190610cd7565b60405180910390f35b6101f061075f565b6040516101fd9190610c75565b60405180910390f35b610220600480360381019061021b9190610aec565b6107fd565b60405161022d9190610c5a565b60405180910390f35b610250600480360381019061024b9190610a61565b610987565b60405161025d9190610cd7565b60405180910390f35b60038054600181600116156101000203166002900480601f0160208091040260200160405190810160405280929190818152602001828054600181600116156101000203166002900480156102fc5780601f106102d1576101008083540402835291602001916102fc565b820191906000526020600020905b8154815290600101906020018083116102df57829003601f168201915b505050505081565b600081600160003373ffffffffffffffffffffffffffffffffffffffff1673ffffffffffffffffffffffffffffffffffffffff16815260200190815260200160002060008573ffffffffffffffffffffffffffffffffffffffff1673ffffffffffffffffffffffffffffffffffffffff168152602001908152602001600020819055508273ffffffffffffffffffffffffffffffffffffffff163373ffffffffffffffffffffffffffffffffffffffff167f8c5be1e5ebec7d5bd14f71427d1e84f3dd0314c0f7b2291e5b200ac8c7c3b925846040516103e49190610cd7565b60405180910390a36001905092915050565b60025481565b600080600160008673ffffffffffffffffffffffffffffffffffffffff1673ffffffffffffffffffffffffffffffffffffffff16815260200190815260200160002060003373ffffffffffffffffffffffffffffffffffffffff1673ffffffffffffffffffffffffffffffffffffffff168152602001908152602001600020549050826000808773ffffffffffffffffffffffffffffffffffffffff1673ffffffffffffffffffffffffffffffffffffffff16815260200190815260200160002054101580156104cc5750828110155b61050b576040517f08c379a000000000000000000000000000000000000000000000000000000000815260040161050290610cb7565b60405180910390fd5b826000808673ffffffffffffffffffffffffffffffffffffffff1673ffffffffffffffffffffffffffffffffffffffff16815260200190815260200160002060008282540192505081905550826000808773ffffffffffffffffffffffffffffffffffffffff1673ffffffffffffffffffffffffffffffffffffffff168152602001908152602001600020600082825403925050819055507fffffffffffffffffffffffffffffffffffffffffffffffffffffffffffffffff8110156106565782600160008773ffffffffffffffffffffffffffffffffffffffff1673ffffffffffffffffffffffffffffffffffffffff16815260200190815260200160002060003373ffffffffffffffffffffffffffffffffffffffff1673ffffffffffffffffffffffffffffffffffffffff168152602001908152602001600020600082825403925050819055505b8373ffffffffffffffffffffffffffffffffffffffff168573ffffffffffffffffffffffffffffffffffffffff167fddf252ad1be2c89b69c2b068fc378daa952ba7f163c4a11628f55a4df523b3ef856040516106b39190610cd7565b60405180910390a360019150509392505050565b60006020528060005260406000206000915090505481565b600460009054906101000a900460ff1681565b6001602052816000526040600020602052806000526040600020600091509150505481565b60008060008373ffffffffffffffffffffffffffffffffffffffff1673ffffffffffffffffffffffffffffffffffffffff168152602001908152602001600020549050919050565b60058054600181600116156101000203166002900480601f0160208091040260200160405190810160405280929190818152602001828054600181600116156101000203166002900480156107f55780601f106107ca576101008083540402835291602001916107f5565b820191906000526020600020905b8154815290600101906020018083116107d857829003601f168201915b505050505081565b6000816000803373ffffffffffffffffffffffffffffffffffffffff1673ffffffffffffffffffffffffffffffffffffffff168152602001908152602001600020541015610880576040517f08c379a000000000000000000000000000000000000000000000000000000000815260040161087790610c97565b60405180910390fd5b816000803373ffffffffffffffffffffffffffffffffffffffff1673ffffffffffffffffffffffffffffffffffffffff16815260200190815260200160002060008282540392505081905550816000808573ffffffffffffffffffffffffffffffffffffffff1673ffffffffffffffffffffffffffffffffffffffff168152602001908152602001600020600082825401925050819055508273ffffffffffffffffffffffffffffffffffffffff163373ffffffffffffffffffffffffffffffffffffffff167fddf252ad1be2c89b69c2b068fc378daa952ba7f163c4a11628f55a4df523b3ef846040516109759190610cd7565b60405180910390a36001905092915050565b6000600160008473ffffffffffffffffffffffffffffffffffffffff1673ffffffffffffffffffffffffffffffffffffffff16815260200190815260200160002060008373ffffffffffffffffffffffffffffffffffffffff1673ffffffffffffffffffffffffffffffffffffffff16815260200190815260200160002054905092915050565b600081359050610a1d81610dc2565b92915050565b600081359050610a3281610dd9565b92915050565b600060208284031215610a4a57600080fd5b6000610a5884828501610a0e565b91505092915050565b60008060408385031215610a7457600080fd5b6000610a8285828601610a0e565b9250506020610a9385828601610a0e565b9150509250929050565b600080600060608486031215610ab257600080fd5b6000610ac086828701610a0e565b9350506020610ad186828701610a0e565b9250506040610ae286828701610a23565b9150509250925092565b60008060408385031215610aff57600080fd5b6000610b0d85828601610a0e565b9250506020610b1e85828601610a23565b9150509250929050565b610b3181610d3b565b82525050565b6000610b4282610d0d565b610b4c8185610d18565b9350610b5c818560208601610d7e565b610b6581610db1565b840191505092915050565b6000610b7d602f83610d18565b91507f746f6b656e2062616c616e6365206973206c6f776572207468616e207468652060008301527f76616c75652072657175657374656400000000000000000000000000000000006020830152604082019050919050565b6000610be3603983610d18565b91507f746f6b656e2062616c616e6365206f7220616c6c6f77616e6365206973206c6f60008301527f776572207468616e20616d6f756e7420726571756573746564000000000000006020830152604082019050919050565b610c4581610d67565b82525050565b610c5481610d71565b82525050565b6000602082019050610c6f6000830184610b28565b92915050565b60006020820190508181036000830152610c8f8184610b37565b905092915050565b60006020820190508181036000830152610cb081610b70565b9050919050565b60006020820190508181036000830152610cd081610bd6565b9050919050565b6000602082019050610cec6000830184610c3c565b92915050565b6000602082019050610d076000830184610c4b565b92915050565b600081519050919050565b600082825260208201905092915050565b6000610d3482610d47565b9050919050565b60008115159050919050565b600073ffffffffffffffffffffffffffffffffffffffff82169050919050565b6000819050919050565b600060ff82169050919050565b60005b83811015610d9c578082015181840152602081019050610d81565b83811115610dab576000848401525b50505050565b6000601f19601f8301169050919050565b610dcb81610d29565b8114610dd657600080fd5b50565b610de281610d67565b8114610ded57600080fd5b5056fea264697066735822122053e7f5a6d83497c520d0cb47cfb7b35d8e2cd94fcc8eee20d9b20572db3928fc64736f6c63430007050033608060405234801561001057600080fd5b50610193806100206000396000f3fe608060405234801561001057600080fd5b506004361061002b5760003560e01c8063449e815d14610030575b600080fd5b61007c6004803603604081101561004657600080fd5b81019080803573ffffffffffffffffffffffffffffffffffffffff16906020019092919080359060200190929190505050610092565b6040518082815260200191505060405180910390f35b60008083905060008173ffffffffffffffffffffffffffffffffffffffff1663feaf968c6040518163ffffffff1660e01b815260040160a06040518083038186803b1580156100e057600080fd5b505afa1580156100f4573d6000803e3d6000fd5b505050506040513d60a081101561010a57600080fd5b81019080805190602001909291908051906020019092919080519060200190929190805190602001909291908051906020019092919050505050505091505083818161015257fe5b04925050509291505056fea2646970667358221220fde3fea3ecf4f71a621fd6b5ef1159f25c7ec30671664bfe4c121b82951c6b1a64736f6c63430007050033",
  "immutableReferences": {
    "1435": [
      {
        "length": 32,
        "start": 644
      },
      {
        "length": 32,
        "start": 1167
      },
      {
        "length": 32,
        "start": 3010
      },
      {
        "length": 32,
        "start": 3251
      },
      {
        "length": 32,
        "start": 4174
      }
    ],
    "1437": [
      {
        "length": 32,
        "start": 1403
      },
      {
        "length": 32,
        "start": 2384
      },
      {
        "length": 32,
        "start": 2933
      },
      {
        "length": 32,
        "start": 2977
      },
      {
        "length": 32,
        "start": 3049
      },
      {
        "length": 32,
        "start": 3592
      }
    ]
  },
  "source": "// SPDX-License-Identifier: MIT\r\npragma solidity >=0.7.5;\r\npragma abicoder v2;\r\n\r\nimport '../BaseIndex.sol';\r\n\r\n\r\ncontract CorrelationIndex is BaseIndex{\r\n    //constructor() BaseIndex(\r\n    //    BaseIndex.IndexInitialParameters({\r\n    //        tokenName: \"Correlation Index Token\",\r\n    //        decimalUnits: 18,\r\n    //        initialAmount: 1000000000000000,\r\n    //        tokenSymbol: \"CORRIN\",\r\n    //        minimalFundAddition: 0\r\n    //    }),\r\n    //    0xE592427A0AEce92De3Edee1F18E0157C05861564,     // Uniswap V3 Router\r\n    //    0x6B175474E89094C44Da98b954EedeAC495271d0F      // DAI\r\n    //){\r\n    //    tokenContracts.push(BaseIndex.TokenSwapPool({   // MATIC\r\n    //        tokenAddress: 0x7D1AfA7B718fb893dB30A3aBc0Cfc608AaCfeBB0,\r\n    //        priceOracleAddress: 0x7bAC85A8a13A4BcD8abb3eB7d6b4d632c5a57676,\r\n    //        poolFee: 3000\r\n    //    }));\r\n    //    tokenContracts.push(BaseIndex.TokenSwapPool({   // WBTC\r\n    //        tokenAddress: 0x2260FAC5E5542a773Aa44fBCfeDf7C193bc2C599,\r\n    //        priceOracleAddress: 0xF4030086522a5bEEa4988F8cA5B36dbC97BeE88c,\r\n    //        poolFee: 3000\r\n    //    }));\r\n    // }\r\n}\r\n",
  "sourcePath": "F:\\JavascriptProjects\\crypto-index\\contracts\\indices\\CorrelationIndex.sol",
  "compiler": {
    "name": "solc",
    "version": "0.7.5+commit.eb77ed08.Linux.g++"
  },
  "schemaVersion": "3.4.3",
  "updatedAt": "2022-03-28T08:30:59.832Z",
  "devdoc": {
    "kind": "dev",
    "methods": {
      "owner()": {
        "details": "Returns the address of the current owner."
      },
      "renounceOwnership()": {
        "details": "Leaves the contract without owner. It will not be possible to call `onlyOwner` functions anymore. Can only be called by the current owner. NOTE: Renouncing ownership will leave the contract without an owner, thereby removing any functionality that is only available to the owner."
      },
      "transferOwnership(address)": {
        "details": "Transfers ownership of the contract to a new account (`newOwner`). Can only be called by the current owner."
      }
    },
    "version": 1
  },
  "userdoc": {
    "kind": "user",
    "methods": {},
    "version": 1
  }
}