{
  "contractName": "CorrelationIndex",
  "abi": [
    {
      "inputs": [],
      "stateMutability": "nonpayable",
      "type": "constructor"
    },
    {
      "anonymous": false,
      "inputs": [
        {
          "indexed": true,
          "internalType": "address",
          "name": "previousOwner",
          "type": "address"
        },
        {
          "indexed": true,
          "internalType": "address",
          "name": "newOwner",
          "type": "address"
        }
      ],
      "name": "OwnershipTransferred",
      "type": "event"
    },
    {
      "inputs": [],
      "name": "addFunds",
      "outputs": [],
      "stateMutability": "payable",
      "type": "function"
    },
    {
      "inputs": [],
      "name": "getMyTokens",
      "outputs": [
        {
          "internalType": "uint256",
          "name": "",
          "type": "uint256"
        }
      ],
      "stateMutability": "view",
      "type": "function"
    },
    {
      "inputs": [],
      "name": "getMyTokensPrice",
      "outputs": [
        {
          "internalType": "uint256",
          "name": "",
          "type": "uint256"
        }
      ],
      "stateMutability": "view",
      "type": "function"
    },
    {
      "inputs": [],
      "name": "getPrice",
      "outputs": [
        {
          "internalType": "uint256",
          "name": "",
          "type": "uint256"
        }
      ],
      "stateMutability": "view",
      "type": "function"
    },
    {
      "inputs": [],
      "name": "getTVL",
      "outputs": [
        {
          "internalType": "uint256",
          "name": "",
          "type": "uint256"
        }
      ],
      "stateMutability": "view",
      "type": "function"
    },
    {
      "inputs": [],
      "name": "minimalFundAddition",
      "outputs": [
        {
          "internalType": "uint256",
          "name": "",
          "type": "uint256"
        }
      ],
      "stateMutability": "view",
      "type": "function"
    },
    {
      "inputs": [],
      "name": "name",
      "outputs": [
        {
          "internalType": "string",
          "name": "",
          "type": "string"
        }
      ],
      "stateMutability": "view",
      "type": "function"
    },
    {
      "inputs": [],
      "name": "owner",
      "outputs": [
        {
          "internalType": "address",
          "name": "",
          "type": "address"
        }
      ],
      "stateMutability": "view",
      "type": "function"
    },
    {
      "inputs": [],
      "name": "poolFee",
      "outputs": [
        {
          "internalType": "uint24",
          "name": "",
          "type": "uint24"
        }
      ],
      "stateMutability": "view",
      "type": "function"
    },
    {
      "inputs": [
        {
          "internalType": "uint256",
          "name": "",
          "type": "uint256"
        }
      ],
      "name": "priceConsumers",
      "outputs": [
        {
          "internalType": "address",
          "name": "",
          "type": "address"
        }
      ],
      "stateMutability": "view",
      "type": "function"
    },
    {
      "inputs": [],
      "name": "renounceOwnership",
      "outputs": [],
      "stateMutability": "nonpayable",
      "type": "function"
    },
    {
      "inputs": [],
      "name": "symbol",
      "outputs": [
        {
          "internalType": "string",
          "name": "",
          "type": "string"
        }
      ],
      "stateMutability": "view",
      "type": "function"
    },
    {
      "inputs": [
        {
          "internalType": "uint256",
          "name": "",
          "type": "uint256"
        }
      ],
      "name": "tokenContracts",
      "outputs": [
        {
          "internalType": "address",
          "name": "",
          "type": "address"
        }
      ],
      "stateMutability": "view",
      "type": "function"
    },
    {
      "inputs": [
        {
          "internalType": "address",
          "name": "newOwner",
          "type": "address"
        }
      ],
      "name": "transferOwnership",
      "outputs": [],
      "stateMutability": "nonpayable",
      "type": "function"
    },
    {
      "stateMutability": "payable",
      "type": "receive"
    }
  ],
  "bytecode": "0x60806040523480156200001157600080fd5b506200003862000029640100000000620001a1810204565b640100000000620001a5810204565b60646003556040805180820190915260118082527f436f7272656c6174696f6e20496e64657800000000000000000000000000000060209092019182526200008391600491620001f5565b506040805180820190915260028082527f43490000000000000000000000000000000000000000000000000000000000006020909201918252620000ca91600591620001f5565b5060408051606081018252735f4ec3df9cbd43714fe2740f5e3616155c5b8419815273f4030086522a5beea4988f8ca5b36dbc97bee88c6020820152732c1d072e956affc0d435cb7ac38ef18d24d9127c918101919091526200013290600690600362000284565b506040805160608101825273c02aaa39b223fe8d0a0e5c4f27ead9083c756cc28152732260fac5e5542a773aa44fbcfedf7c193bc2c599602082015273514910771af9ca656af840dff83e8264ecf986ca918101919091526200019a90600790600362000284565b5062000349565b3390565b60008054600160a060020a03838116600160a060020a0319831681178455604051919092169283917f8be0079c531659141344cd1fd0a4f28419497f9722a3daafe3b4186f6b6457e09190a35050565b8280546200020390620002f3565b90600052602060002090601f01602090048101928262000227576000855562000272565b82601f106200024257805160ff191683800117855562000272565b8280016001018555821562000272579182015b828111156200027257825182559160200191906001019062000255565b5062000280929150620002dc565b5090565b82805482825590600052602060002090810192821562000272579160200282015b82811115620002725782518254600160a060020a031916600160a060020a03909116178255602090920191600190910190620002a5565b5b80821115620002805760008155600101620002dd565b6002810460018216806200030857607f821691505b6020821081141562000343577f4e487b7100000000000000000000000000000000000000000000000000000000600052602260045260246000fd5b50919050565b610aee80620003596000396000f3fe6080604052600436106100fe576000357c0100000000000000000000000000000000000000000000000000000000900480638da5cb5b1161009c57806398d5fdca1161007657806398d5fdca1461025b578063a26759cb14610270578063f2fde38b14610278578063f3b755c71461029857600080fd5b80638da5cb5b1461021357806395d89b411461023157806397b3fcaa1461024657600080fd5b80631d9fb309116100d85780631d9fb309146101825780635b3b136a146101ba57806367ebf886146101dc578063715018a6146101fc57600080fd5b806306fdde031461010a578063089fe6aa146101355780631d85b4151461015f57600080fd5b3661010557005b600080fd5b34801561011657600080fd5b5061011f6102ae565b60405161012c919061097c565b60405180910390f35b34801561014157600080fd5b5061014b610bb881565b60405162ffffff909116815260200161012c565b34801561016b57600080fd5b5061017461033c565b60405190815260200161012c565b34801561018e57600080fd5b506101a261019d3660046108fa565b610365565b604051600160a060020a03909116815260200161012c565b3480156101c657600080fd5b5033600090815260026020526040902054610174565b3480156101e857600080fd5b506101a26101f73660046108fa565b61038f565b34801561020857600080fd5b5061021161039f565b005b34801561021f57600080fd5b50600054600160a060020a03166101a2565b34801561023d57600080fd5b5061011f61040d565b34801561025257600080fd5b5061017461041a565b34801561026757600080fd5b50610174610431565b610211610541565b34801561028457600080fd5b506102116102933660046108ca565b610766565b3480156102a457600080fd5b5061017460035481565b600480546102bb90610a2d565b80601f01602080910402602001604051908101604052809291908181526020018280546102e790610a2d565b80156103345780601f1061030957610100808354040283529160200191610334565b820191906000526020600020905b81548152906001019060200180831161031757829003601f168201915b505050505081565b6000610346610431565b336000908152600260205260409020546103609190610a0e565b905090565b6007818154811061037557600080fd5b600091825260209091200154600160a060020a0316905081565b6006818154811061037557600080fd5b600054600160a060020a031633146104015760405160e560020a62461bcd02815260206004820181905260248201527f4f776e61626c653a2063616c6c6572206973206e6f7420746865206f776e657260448201526064015b60405180910390fd5b61040b600061084e565b565b600580546102bb90610a2d565b6000610424610431565b6001546103609190610a0e565b600080805b60065481101561052d5760006006828154811061045557610455610a9f565b9060005260206000200160009054906101000a9004600160a060020a03169050600081600160a060020a031663feaf968c6040518163ffffffff167c010000000000000000000000000000000000000000000000000000000002815260040160a06040518083038186803b1580156104cc57600080fd5b505afa1580156104e0573d6000803e3d6000fd5b505050506040513d601f19601f82011682018060405250810190610504919061092c565b505050915050808461051691906109d1565b93505050808061052590610a6b565b915050610436565b5060065461053b90826109e9565b91505090565b60035434116105ba5760405160e560020a62461bcd028152602060048201526024808201527f4e6f7420656e6f7567682066756e647320746f2061646420746f20746865206960448201527f6e6465780000000000000000000000000000000000000000000000000000000060648201526084016103f8565b34600160008282546105cc91906109d1565b90915550503360009081526002602052604081208054600192906105f19084906109d1565b9091555050600780543491600091600190811061061057610610610a9f565b600091825260208083209190910154604080516101008101825273c02aaa39b223fe8d0a0e5c4f27ead9083c756cc28152600160a060020a03928316938101848152610bb88284019081523060608401908152426080850190815260a085018b815260c086018a815260e087019a8b5296517f414bf389000000000000000000000000000000000000000000000000000000008152865189166004820152945188166024860152925162ffffff1660448501529051861660648401525160848301525160a4820152915160c4830152935190911660e482015290925073e592427a0aece92de3edee1f18e0157c058615649063414bf389903490610104016020604051808303818588803b15801561072757600080fd5b505af115801561073b573d6000803e3d6000fd5b50505050506040513d601f19601f820116820180604052508101906107609190610913565b50505050565b600054600160a060020a031633146107c35760405160e560020a62461bcd02815260206004820181905260248201527f4f776e61626c653a2063616c6c6572206973206e6f7420746865206f776e657260448201526064016103f8565b600160a060020a0381166108425760405160e560020a62461bcd02815260206004820152602660248201527f4f776e61626c653a206e6577206f776e657220697320746865207a65726f206160448201527f646472657373000000000000000000000000000000000000000000000000000060648201526084016103f8565b61084b8161084e565b50565b60008054600160a060020a0383811673ffffffffffffffffffffffffffffffffffffffff19831681178455604051919092169283917f8be0079c531659141344cd1fd0a4f28419497f9722a3daafe3b4186f6b6457e09190a35050565b805169ffffffffffffffffffff811681146108c557600080fd5b919050565b6000602082840312156108dc57600080fd5b8135600160a060020a03811681146108f357600080fd5b9392505050565b60006020828403121561090c57600080fd5b5035919050565b60006020828403121561092557600080fd5b5051919050565b600080600080600060a0868803121561094457600080fd5b61094d866108ab565b9450602086015193506040860151925060608601519150610970608087016108ab565b90509295509295909350565b600060208083528351808285015260005b818110156109a95785810183015185820160400152820161098d565b818111156109bb576000604083870101525b50601f01601f1916929092016040019392505050565b600082198211156109e4576109e4610a86565b500190565b600082610a095760e060020a634e487b7102600052601260045260246000fd5b500490565b6000816000190483118215151615610a2857610a28610a86565b500290565b600281046001821680610a4157607f821691505b60208210811415610a655760e060020a634e487b7102600052602260045260246000fd5b50919050565b6000600019821415610a7f57610a7f610a86565b5060010190565b60e060020a634e487b7102600052601160045260246000fd5b60e060020a634e487b7102600052603260045260246000fdfea2646970667358221220dff9ca8d70bb2e6a91d8d1ab44004cb1a82f98a8bbe3d490b1c41318ff458be664736f6c63430008070033",
  "immutableReferences": {},
  "source": "// SPDX-License-Identifier: MIT\npragma solidity ^0.8.7;\n\nimport \"@openzeppelin/contracts/access/Ownable.sol\";\nimport \"@openzeppelin/contracts/utils/Strings.sol\";\nimport \"@chainlink/contracts/src/v0.8/interfaces/AggregatorV3Interface.sol\";\nimport '@uniswap/v3-periphery/contracts/libraries/TransferHelper.sol';\nimport '@uniswap/v3-periphery/contracts/interfaces/ISwapRouter.sol';\nimport '@uniswap/v3-periphery/contracts/interfaces/IPeripheryPayments.sol';\n\n\ncontract BaseIndex is Ownable {\n\n    uint256 private totalFunds;\n    mapping(address => uint256) private investors;\n    uint256 public minimalFundAddition;\n\n    string public name;\n    string public symbol;\n\n    address[] public priceConsumers;\n    address[] public tokenContracts;\n\n    uint24 public constant poolFee = 3000;\n    address private constant WETH = 0xC02aaA39b223FE8D0A0e5C4F27eAD9083C756Cc2;\n    ISwapRouter private constant uniswapRouter = ISwapRouter(0xE592427A0AEce92De3Edee1F18E0157C05861564);\n\n    function getPrice() public view returns (uint) {\n        uint totalPrice = 0;\n\n        for (uint index = 0; index < priceConsumers.length; index++) {\n            AggregatorV3Interface consumer = AggregatorV3Interface(priceConsumers[index]);\n            (, int answer, , ,) = consumer.latestRoundData();\n            totalPrice += uint(answer);\n        }\n\n        return totalPrice / priceConsumers.length;\n    }\n\n    function addFunds() public payable {\n        require(msg.value > minimalFundAddition, \"Not enough funds to add to the index\");\n        totalFunds += msg.value;\n        investors[msg.sender] += 1; //msg.value / getPrice();\n\n        uint _amountIn = msg.value;\n        address token = tokenContracts[1];\n\n        // TransferHelper.safeTransferFrom(WETH, msg.sender, address(this), _amountIn);\n        // TransferHelper.safeApprove(WETH, address(uniswapRouter), _amountIn);\n\n        ISwapRouter.ExactInputSingleParams memory params = ISwapRouter.ExactInputSingleParams({\n            tokenIn: WETH,\n            tokenOut: token,\n            fee: poolFee,\n            recipient: address(this),\n            deadline: block.timestamp,\n            amountIn: _amountIn,\n            amountOutMinimum: 0,    // TODO: that should be a real amount from the oracles\n            sqrtPriceLimitX96: 0\n        });\n\n        uniswapRouter.exactInputSingle{ value: msg.value }(params);\n    }\n\n    receive() payable external {}\n\n    function getTVL() public view returns(uint256){\n        return totalFunds * getPrice();\n    }\n\n    function getMyTokensPrice() public view returns(uint256){\n        return getMyTokens() * getPrice();\n    }\n\n    function getMyTokens() public view returns(uint256){\n        return investors[msg.sender];\n    }\n\n}\n\n\ncontract CorrelationIndex is BaseIndex {\n\n    constructor(){\n        minimalFundAddition = 100;\n        name = \"Correlation Index\";\n        symbol = \"CI\";\n\n        priceConsumers = [\n            // BSC mainnet\n            // 0x0567F2323251f0Aab15c8dFb1967E4e8A7D42aeE,    // BNB\n            // 0x7CA57b0cA6367191c94C8914d7Df09A57655905f,    // MATIC\n            // 0x264990fbd0A4796A3E3d8E37C4d5F87a3aCa5Ebf,    // WBTC\n            // 0xca236E327F629f9Fc2c30A4E95775EbF0B89fac8,    // LINK\n            // 0xF4C5e535756D11994fCBB12Ba8adD0192D9b88be,    // TRX\n            // 0xb57f259E7C24e56a1dA00F66b55A5640d9f9E7e4,    // UNI\n\n            // ETH mainnet\n            0x5f4eC3Df9cbd43714FE2740f5E3616155c5b8419,    // ETH\n            0xF4030086522a5bEEa4988F8cA5B36dbC97BeE88c,    // BTC\n            0x2c1d072e956AFFC0D435Cb7AC38EF18d24d9127c    // LINK\n        ];\n\n        tokenContracts = [\n            // ETH mainnet\n            // 0xB8c77482e45F1F44dE1745F52C74426C631bDD52,     // BNB\n            // 0x7D1AfA7B718fb893dB30A3aBc0Cfc608AaCfeBB0,     // MATIC\n            // 0xE1Be5D3f34e89dE342Ee97E6e90D405884dA6c67,     // TRX\n            // 0x1f9840a85d5aF5bf1D1762F925BDADdC4201F984,     // UNI\n\n            0xC02aaA39b223FE8D0A0e5C4F27eAD9083C756Cc2,    // WETH\n            0x2260FAC5E5542a773Aa44fBCfeDf7C193bc2C599,     // WBTC\n            0x514910771AF9Ca656af840dff83E8264EcF986CA     // LINK\n        ];\n    }\n\n}\n",
  "sourcePath": "F:\\JavascriptProjects\\crypto-index\\contracts\\Index.sol",
  "compiler": {
    "name": "solc",
    "version": "0.8.7+commit.e28d00a7.Linux.g++"
  },
  "schemaVersion": "3.4.3",
  "updatedAt": "2022-03-08T09:52:02.056Z",
  "devdoc": {
    "kind": "dev",
    "methods": {
      "owner()": {
        "details": "Returns the address of the current owner."
      },
      "renounceOwnership()": {
        "details": "Leaves the contract without owner. It will not be possible to call `onlyOwner` functions anymore. Can only be called by the current owner. NOTE: Renouncing ownership will leave the contract without an owner, thereby removing any functionality that is only available to the owner."
      },
      "transferOwnership(address)": {
        "details": "Transfers ownership of the contract to a new account (`newOwner`). Can only be called by the current owner."
      }
    },
    "version": 1
  },
  "userdoc": {
    "kind": "user",
    "methods": {},
    "version": 1
  }
}