{
  "contractName": "CorrelationIndex",
  "abi": [
    {
      "inputs": [],
      "stateMutability": "nonpayable",
      "type": "constructor"
    },
    {
      "inputs": [
        {
          "internalType": "uint256",
          "name": "amountIn",
          "type": "uint256"
        }
      ],
      "name": "addFunds",
      "outputs": [
        {
          "internalType": "uint256",
          "name": "",
          "type": "uint256"
        }
      ],
      "stateMutability": "nonpayable",
      "type": "function"
    },
    {
      "inputs": [],
      "name": "buyToken",
      "outputs": [
        {
          "internalType": "address",
          "name": "",
          "type": "address"
        }
      ],
      "stateMutability": "view",
      "type": "function"
    },
    {
      "inputs": [],
      "name": "getIndexPrice",
      "outputs": [
        {
          "internalType": "uint256",
          "name": "",
          "type": "uint256"
        }
      ],
      "stateMutability": "view",
      "type": "function"
    },
    {
      "inputs": [],
      "name": "getMyTokensPrice",
      "outputs": [
        {
          "internalType": "uint256",
          "name": "",
          "type": "uint256"
        }
      ],
      "stateMutability": "view",
      "type": "function"
    },
    {
      "inputs": [],
      "name": "getTotalLockedValue",
      "outputs": [
        {
          "internalType": "uint256",
          "name": "",
          "type": "uint256"
        }
      ],
      "stateMutability": "view",
      "type": "function"
    },
    {
      "inputs": [],
      "name": "indexToken",
      "outputs": [
        {
          "internalType": "contract IndexToken",
          "name": "",
          "type": "address"
        }
      ],
      "stateMutability": "view",
      "type": "function"
    },
    {
      "inputs": [],
      "name": "minimalFundAddition",
      "outputs": [
        {
          "internalType": "uint256",
          "name": "",
          "type": "uint256"
        }
      ],
      "stateMutability": "view",
      "type": "function"
    },
    {
      "inputs": [
        {
          "internalType": "uint256",
          "name": "",
          "type": "uint256"
        }
      ],
      "name": "tokenContracts",
      "outputs": [
        {
          "internalType": "address",
          "name": "tokenAddress",
          "type": "address"
        },
        {
          "internalType": "uint24",
          "name": "poolFee",
          "type": "uint24"
        },
        {
          "internalType": "address",
          "name": "priceOracleAddress",
          "type": "address"
        }
      ],
      "stateMutability": "view",
      "type": "function"
    }
  ],
  "bytecode": "0x61012060405260405162000013906200052c565b604051809103906000f08015801562000030573d6000803e3d6000fd5b5073ffffffffffffffffffffffffffffffffffffffff1660c09073ffffffffffffffffffffffffffffffffffffffff1660601b8152503480156200007357600080fd5b506040518060a001604052806040518060400160405280601781526020017f436f7272656c6174696f6e20496e64657820546f6b656e0000000000000000008152508152602001601260ff16815260200166038d7ea4c6800081526020016040518060400160405280600681526020017f434f5252494e00000000000000000000000000000000000000000000000000008152508152602001600081525073e592427a0aece92de3edee1f18e0157c05861564736b175474e89094c44da98b954eedeac495271d0f8260400151308460000151856020015186606001516040516200015e906200053a565b6200016e959493929190620005f7565b604051809103906000f0801580156200018b573d6000803e3d6000fd5b5073ffffffffffffffffffffffffffffffffffffffff1660808173ffffffffffffffffffffffffffffffffffffffff1660601b81525050826080015160a081815250508130604051620001de9062000548565b620001eb929190620005ca565b604051809103906000f08015801562000208573d6000803e3d6000fd5b5073ffffffffffffffffffffffffffffffffffffffff166101008173ffffffffffffffffffffffffffffffffffffffff1660601b815250508073ffffffffffffffffffffffffffffffffffffffff1660e08173ffffffffffffffffffffffffffffffffffffffff1660601b8152505050505060016040518060600160405280737d1afa7b718fb893db30a3abc0cfc608aacfebb073ffffffffffffffffffffffffffffffffffffffff168152602001610bb862ffffff168152602001737bac85a8a13a4bcd8abb3eb7d6b4d632c5a5767673ffffffffffffffffffffffffffffffffffffffff16815250908060018154018082558091505060019003906000526020600020906002020160009091909190915060008201518160000160006101000a81548173ffffffffffffffffffffffffffffffffffffffff021916908373ffffffffffffffffffffffffffffffffffffffff16021790555060208201518160000160146101000a81548162ffffff021916908362ffffff16021790555060408201518160010160006101000a81548173ffffffffffffffffffffffffffffffffffffffff021916908373ffffffffffffffffffffffffffffffffffffffff160217905550505060016040518060600160405280732260fac5e5542a773aa44fbcfedf7c193bc2c59973ffffffffffffffffffffffffffffffffffffffff168152602001610bb862ffffff16815260200173f4030086522a5beea4988f8ca5b36dbc97bee88c73ffffffffffffffffffffffffffffffffffffffff16815250908060018154018082558091505060019003906000526020600020906002020160009091909190915060008201518160000160006101000a81548173ffffffffffffffffffffffffffffffffffffffff021916908373ffffffffffffffffffffffffffffffffffffffff16021790555060208201518160000160146101000a81548162ffffff021916908362ffffff16021790555060408201518160010160006101000a81548173ffffffffffffffffffffffffffffffffffffffff021916908373ffffffffffffffffffffffffffffffffffffffff160217905550505062000710565b61019f806200172f83390190565b61108d80620018ce83390190565b61093c806200295b83390190565b62000561816200067e565b82525050565b6000620005748262000662565b6200058081856200066d565b935062000592818560208601620006c9565b6200059d81620006ff565b840191505092915050565b620005b381620006b2565b82525050565b620005c481620006bc565b82525050565b6000604082019050620005e1600083018562000556565b620005f0602083018462000556565b9392505050565b600060a0820190506200060e6000830188620005a8565b6200061d602083018762000556565b818103604083015262000631818662000567565b9050620006426060830185620005b9565b818103608083015262000656818462000567565b90509695505050505050565b600081519050919050565b600082825260208201905092915050565b60006200068b8262000692565b9050919050565b600073ffffffffffffffffffffffffffffffffffffffff82169050919050565b6000819050919050565b600060ff82169050919050565b60005b83811015620006e9578082015181840152602081019050620006cc565b83811115620006f9576000848401525b50505050565b6000601f19601f8301169050919050565b60805160601c60a05160c05160601c60e05160601c6101005160601c610fab620007846000398061068c52806109045250806104ce52806106c852806109405250806103f9528061084c5250806105075280610aad5250806101af528061059352806109cf5280610a895250610fab6000f3fe608060405234801561001057600080fd5b50600436106100885760003560e01c8063b75979141161005b578063b759791414610119578063be99970514610137578063e7d015f214610167578063f3b755c71461018557610088565b80631d85b4151461008d5780631d9fb309146100ab57806358c0994a146100dd578063a4821719146100fb575b600080fd5b6100956101a3565b6040516100a29190610e6a565b60405180910390f35b6100c560048036038101906100c09190610b89565b61025c565b6040516100d493929190610dd8565b60405180910390f35b6100e56102e5565b6040516100f29190610e6a565b60405180910390f35b6101036104cc565b6040516101109190610d18565b60405180910390f35b6101216104f0565b60405161012e9190610e6a565b60405180910390f35b610151600480360381019061014c9190610b89565b610503565b60405161015e9190610e6a565b60405180910390f35b61016f610a87565b60405161017c9190610e0f565b60405180910390f35b61018d610aab565b60405161019a9190610e6a565b60405180910390f35b60006101ad6102e5565b7f000000000000000000000000000000000000000000000000000000000000000073ffffffffffffffffffffffffffffffffffffffff166370a08231336040518263ffffffff1660e01b81526004016102069190610d33565b60206040518083038186803b15801561021e57600080fd5b505afa158015610232573d6000803e3d6000fd5b505050506040513d601f19601f820116820180604052508101906102569190610bb2565b02905090565b6001818154811061026c57600080fd5b90600052602060002090600202016000915090508060000160009054906101000a900473ffffffffffffffffffffffffffffffffffffffff16908060000160149054906101000a900462ffffff16908060010160009054906101000a900473ffffffffffffffffffffffffffffffffffffffff16905083565b60008060005b6001805490508110156104b657610300610acf565b6001828154811061030d57fe5b90600052602060002090600202016040518060600160405290816000820160009054906101000a900473ffffffffffffffffffffffffffffffffffffffff1673ffffffffffffffffffffffffffffffffffffffff1673ffffffffffffffffffffffffffffffffffffffff1681526020016000820160149054906101000a900462ffffff1662ffffff1662ffffff1681526020016001820160009054906101000a900473ffffffffffffffffffffffffffffffffffffffff1673ffffffffffffffffffffffffffffffffffffffff1673ffffffffffffffffffffffffffffffffffffffff168152505090507f000000000000000000000000000000000000000000000000000000000000000073ffffffffffffffffffffffffffffffffffffffff166341976e0982604001516040518263ffffffff1660e01b81526004016104549190610d18565b60206040518083038186803b15801561046c57600080fd5b505afa158015610480573d6000803e3d6000fd5b505050506040513d601f19601f820116820180604052508101906104a49190610bb2565b830192505080806001019150506102eb565b5060018054905081816104c557fe5b0491505090565b7f000000000000000000000000000000000000000000000000000000000000000081565b60006104fa6102e5565b60005402905090565b60007f0000000000000000000000000000000000000000000000000000000000000000821015610568576040517f08c379a000000000000000000000000000000000000000000000000000000000815260040161055f90610e4a565b60405180910390fd5b6000600180549050838161057857fe5b04905060006105856102e5565b848161058d57fe5b049050807f000000000000000000000000000000000000000000000000000000000000000073ffffffffffffffffffffffffffffffffffffffff166370a08231306040518263ffffffff1660e01b81526004016105ea9190610d18565b60206040518083038186803b15801561060257600080fd5b505afa158015610616573d6000803e3d6000fd5b505050506040513d601f19601f8201168201806040525081019061063a9190610bb2565b101561067b576040517f08c379a000000000000000000000000000000000000000000000000000000000815260040161067290610e2a565b60405180910390fd5b8060008082825401925050819055507f000000000000000000000000000000000000000000000000000000000000000073ffffffffffffffffffffffffffffffffffffffff1663af0cce807f000000000000000000000000000000000000000000000000000000000000000033876040518463ffffffff1660e01b815260040161070793929190610d4e565b600060405180830381600087803b15801561072157600080fd5b505af1158015610735573d6000803e3d6000fd5b5050505060005b6001805490508110156109cc57610751610acf565b6001828154811061075e57fe5b90600052602060002090600202016040518060600160405290816000820160009054906101000a900473ffffffffffffffffffffffffffffffffffffffff1673ffffffffffffffffffffffffffffffffffffffff1673ffffffffffffffffffffffffffffffffffffffff1681526020016000820160149054906101000a900462ffffff1662ffffff1662ffffff1681526020016001820160009054906101000a900473ffffffffffffffffffffffffffffffffffffffff1673ffffffffffffffffffffffffffffffffffffffff1673ffffffffffffffffffffffffffffffffffffffff1681525050905060007f000000000000000000000000000000000000000000000000000000000000000073ffffffffffffffffffffffffffffffffffffffff166341976e0983604001516040518263ffffffff1660e01b81526004016108a79190610d18565b60206040518083038186803b1580156108bf57600080fd5b505afa1580156108d3573d6000803e3d6000fd5b505050506040513d601f19601f820116820180604052508101906108f79190610bb2565b85816108ff57fe5b0490507f000000000000000000000000000000000000000000000000000000000000000073ffffffffffffffffffffffffffffffffffffffff16633bf237d57f00000000000000000000000000000000000000000000000000000000000000008460000151856020015189866040518663ffffffff1660e01b815260040161098b959493929190610d85565b600060405180830381600087803b1580156109a557600080fd5b505af11580156109b9573d6000803e3d6000fd5b505050505050808060010191505061073c565b507f000000000000000000000000000000000000000000000000000000000000000073ffffffffffffffffffffffffffffffffffffffff166323b872dd3033846040518463ffffffff1660e01b8152600401610a2a93929190610d4e565b602060405180830381600087803b158015610a4457600080fd5b505af1158015610a58573d6000803e3d6000fd5b505050506040513d601f19601f82011682018060405250810190610a7c9190610b60565b508092505050919050565b7f000000000000000000000000000000000000000000000000000000000000000081565b7f000000000000000000000000000000000000000000000000000000000000000081565b6040518060600160405280600073ffffffffffffffffffffffffffffffffffffffff168152602001600062ffffff168152602001600073ffffffffffffffffffffffffffffffffffffffff1681525090565b600081519050610b3081610f47565b92915050565b600081359050610b4581610f5e565b92915050565b600081519050610b5a81610f5e565b92915050565b600060208284031215610b7257600080fd5b6000610b8084828501610b21565b91505092915050565b600060208284031215610b9b57600080fd5b6000610ba984828501610b36565b91505092915050565b600060208284031215610bc457600080fd5b6000610bd284828501610b4b565b91505092915050565b610be481610eed565b82525050565b610bf381610e96565b82525050565b610c0281610eff565b82525050565b6000610c15604883610e85565b91507f4e6f7420656e6f75676820746f6b656e7320696e2074686520696e6465782c2060008301527f796f752063616e206f6e6c7920627579206974206f6e207365636f6e6461727960208301527f206d61726b6574730000000000000000000000000000000000000000000000006040830152606082019050919050565b6000610ca1602483610e85565b91507f4e6f7420656e6f7567682066756e647320746f2061646420746f20746865206960008301527f6e646578000000000000000000000000000000000000000000000000000000006020830152604082019050919050565b610d0381610ed4565b82525050565b610d1281610ee3565b82525050565b6000602082019050610d2d6000830184610bea565b92915050565b6000602082019050610d486000830184610bdb565b92915050565b6000606082019050610d636000830186610bea565b610d706020830185610bdb565b610d7d6040830184610d09565b949350505050565b600060a082019050610d9a6000830188610bea565b610da76020830187610bea565b610db46040830186610cfa565b610dc16060830185610d09565b610dce6080830184610d09565b9695505050505050565b6000606082019050610ded6000830186610bea565b610dfa6020830185610cfa565b610e076040830184610bea565b949350505050565b6000602082019050610e246000830184610bf9565b92915050565b60006020820190508181036000830152610e4381610c08565b9050919050565b60006020820190508181036000830152610e6381610c94565b9050919050565b6000602082019050610e7f6000830184610d09565b92915050565b600082825260208201905092915050565b6000610ea182610eb4565b9050919050565b60008115159050919050565b600073ffffffffffffffffffffffffffffffffffffffff82169050919050565b600062ffffff82169050919050565b6000819050919050565b6000610ef882610f23565b9050919050565b6000610f0a82610f11565b9050919050565b6000610f1c82610eb4565b9050919050565b6000610f2e82610f35565b9050919050565b6000610f4082610eb4565b9050919050565b610f5081610ea8565b8114610f5b57600080fd5b50565b610f6781610ee3565b8114610f7257600080fd5b5056fea264697066735822122053f3acd36e5ba3ae04e13c7e263d7d789748d925363ba3dc9d4413d97cda98dd64736f6c63430007050033608060405234801561001057600080fd5b5061017f806100206000396000f3fe608060405234801561001057600080fd5b506004361061002b5760003560e01c806341976e0914610030575b600080fd5b6100726004803603602081101561004657600080fd5b81019080803573ffffffffffffffffffffffffffffffffffffffff169060200190929190505050610088565b6040518082815260200191505060405180910390f35b60008082905060008173ffffffffffffffffffffffffffffffffffffffff1663feaf968c6040518163ffffffff1660e01b815260040160a06040518083038186803b1580156100d657600080fd5b505afa1580156100ea573d6000803e3d6000fd5b505050506040513d60a081101561010057600080fd5b810190808051906020019092919080519060200190929190805190602001909291908051906020019092919080519060200190929190505050505050915050809250505091905056fea26469706673582212204ef8f33cef2d9ab55791ad48d2d9535fc93d8a36662b48939a4489c62bd4b7c864736f6c6343000705003360806040523480156200001157600080fd5b506040516200108d3803806200108d833981810160405260a08110156200003757600080fd5b810190808051906020019092919080519060200190929190805160405193929190846401000000008211156200006c57600080fd5b838201915060208201858111156200008357600080fd5b8251866001820283011164010000000082111715620000a157600080fd5b8083526020830192505050908051906020019080838360005b83811015620000d7578082015181840152602081019050620000ba565b50505050905090810190601f168015620001055780820380516001836020036101000a031916815260200191505b5060405260200180519060200190929190805160405193929190846401000000008211156200013357600080fd5b838201915060208201858111156200014a57600080fd5b82518660018202830111640100000000821117156200016857600080fd5b8083526020830192505050908051906020019080838360005b838110156200019e57808201518184015260208101905062000181565b50505050905090810190601f168015620001cc5780820380516001836020036101000a031916815260200191505b50604052505050846000808673ffffffffffffffffffffffffffffffffffffffff1673ffffffffffffffffffffffffffffffffffffffff16815260200190815260200160002081905550600060028190555082600390805190602001906200023692919062000276565b5081600460006101000a81548160ff021916908360ff16021790555080600590805190602001906200026a92919062000276565b5050505050506200032c565b828054600181600116156101000203166002900490600052602060002090601f016020900481019282620002ae5760008555620002fa565b82601f10620002c957805160ff1916838001178555620002fa565b82800160010185558215620002fa579182015b82811115620002f9578251825591602001919060010190620002dc565b5b5090506200030991906200030d565b5090565b5b80821115620003285760008160009055506001016200030e565b5090565b610d51806200033c6000396000f3fe608060405234801561001057600080fd5b50600436106100a95760003560e01c8063313ce56711610071578063313ce5671461028f5780635c658165146102b057806370a082311461032857806395d89b4114610380578063a9059cbb14610403578063dd62ed3e14610467576100a9565b806306fdde03146100ae578063095ea7b31461013157806318160ddd1461019557806323b872dd146101b357806327e235e314610237575b600080fd5b6100b66104df565b6040518080602001828103825283818151815260200191508051906020019080838360005b838110156100f65780820151818401526020810190506100db565b50505050905090810190601f1680156101235780820380516001836020036101000a031916815260200191505b509250505060405180910390f35b61017d6004803603604081101561014757600080fd5b81019080803573ffffffffffffffffffffffffffffffffffffffff1690602001909291908035906020019092919050505061057d565b60405180821515815260200191505060405180910390f35b61019d61066f565b6040518082815260200191505060405180910390f35b61021f600480360360608110156101c957600080fd5b81019080803573ffffffffffffffffffffffffffffffffffffffff169060200190929190803573ffffffffffffffffffffffffffffffffffffffff16906020019092919080359060200190929190505050610675565b60405180821515815260200191505060405180910390f35b6102796004803603602081101561024d57600080fd5b81019080803573ffffffffffffffffffffffffffffffffffffffff169060200190929190505050610956565b6040518082815260200191505060405180910390f35b61029761096e565b604051808260ff16815260200191505060405180910390f35b610312600480360360408110156102c657600080fd5b81019080803573ffffffffffffffffffffffffffffffffffffffff169060200190929190803573ffffffffffffffffffffffffffffffffffffffff169060200190929190505050610981565b6040518082815260200191505060405180910390f35b61036a6004803603602081101561033e57600080fd5b81019080803573ffffffffffffffffffffffffffffffffffffffff1690602001909291905050506109a6565b6040518082815260200191505060405180910390f35b6103886109ee565b6040518080602001828103825283818151815260200191508051906020019080838360005b838110156103c85780820151818401526020810190506103ad565b50505050905090810190601f1680156103f55780820380516001836020036101000a031916815260200191505b509250505060405180910390f35b61044f6004803603604081101561041957600080fd5b81019080803573ffffffffffffffffffffffffffffffffffffffff16906020019092919080359060200190929190505050610a8c565b60405180821515815260200191505060405180910390f35b6104c96004803603604081101561047d57600080fd5b81019080803573ffffffffffffffffffffffffffffffffffffffff169060200190929190803573ffffffffffffffffffffffffffffffffffffffff169060200190929190505050610c2c565b6040518082815260200191505060405180910390f35b60038054600181600116156101000203166002900480601f0160208091040260200160405190810160405280929190818152602001828054600181600116156101000203166002900480156105755780601f1061054a57610100808354040283529160200191610575565b820191906000526020600020905b81548152906001019060200180831161055857829003601f168201915b505050505081565b600081600160003373ffffffffffffffffffffffffffffffffffffffff1673ffffffffffffffffffffffffffffffffffffffff16815260200190815260200160002060008573ffffffffffffffffffffffffffffffffffffffff1673ffffffffffffffffffffffffffffffffffffffff168152602001908152602001600020819055508273ffffffffffffffffffffffffffffffffffffffff163373ffffffffffffffffffffffffffffffffffffffff167f8c5be1e5ebec7d5bd14f71427d1e84f3dd0314c0f7b2291e5b200ac8c7c3b925846040518082815260200191505060405180910390a36001905092915050565b60025481565b600080600160008673ffffffffffffffffffffffffffffffffffffffff1673ffffffffffffffffffffffffffffffffffffffff16815260200190815260200160002060003373ffffffffffffffffffffffffffffffffffffffff1673ffffffffffffffffffffffffffffffffffffffff168152602001908152602001600020549050826000808773ffffffffffffffffffffffffffffffffffffffff1673ffffffffffffffffffffffffffffffffffffffff16815260200190815260200160002054101580156107455750828110155b61079a576040517f08c379a0000000000000000000000000000000000000000000000000000000008152600401808060200182810382526039815260200180610ce36039913960400191505060405180910390fd5b826000808673ffffffffffffffffffffffffffffffffffffffff1673ffffffffffffffffffffffffffffffffffffffff16815260200190815260200160002060008282540192505081905550826000808773ffffffffffffffffffffffffffffffffffffffff1673ffffffffffffffffffffffffffffffffffffffff168152602001908152602001600020600082825403925050819055507fffffffffffffffffffffffffffffffffffffffffffffffffffffffffffffffff8110156108e55782600160008773ffffffffffffffffffffffffffffffffffffffff1673ffffffffffffffffffffffffffffffffffffffff16815260200190815260200160002060003373ffffffffffffffffffffffffffffffffffffffff1673ffffffffffffffffffffffffffffffffffffffff168152602001908152602001600020600082825403925050819055505b8373ffffffffffffffffffffffffffffffffffffffff168573ffffffffffffffffffffffffffffffffffffffff167fddf252ad1be2c89b69c2b068fc378daa952ba7f163c4a11628f55a4df523b3ef856040518082815260200191505060405180910390a360019150509392505050565b60006020528060005260406000206000915090505481565b600460009054906101000a900460ff1681565b6001602052816000526040600020602052806000526040600020600091509150505481565b60008060008373ffffffffffffffffffffffffffffffffffffffff1673ffffffffffffffffffffffffffffffffffffffff168152602001908152602001600020549050919050565b60058054600181600116156101000203166002900480601f016020809104026020016040519081016040528092919081815260200182805460018160011615610100020316600290048015610a845780601f10610a5957610100808354040283529160200191610a84565b820191906000526020600020905b815481529060010190602001808311610a6757829003601f168201915b505050505081565b6000816000803373ffffffffffffffffffffffffffffffffffffffff1673ffffffffffffffffffffffffffffffffffffffff168152602001908152602001600020541015610b25576040517f08c379a000000000000000000000000000000000000000000000000000000000815260040180806020018281038252602f815260200180610cb4602f913960400191505060405180910390fd5b816000803373ffffffffffffffffffffffffffffffffffffffff1673ffffffffffffffffffffffffffffffffffffffff16815260200190815260200160002060008282540392505081905550816000808573ffffffffffffffffffffffffffffffffffffffff1673ffffffffffffffffffffffffffffffffffffffff168152602001908152602001600020600082825401925050819055508273ffffffffffffffffffffffffffffffffffffffff163373ffffffffffffffffffffffffffffffffffffffff167fddf252ad1be2c89b69c2b068fc378daa952ba7f163c4a11628f55a4df523b3ef846040518082815260200191505060405180910390a36001905092915050565b6000600160008473ffffffffffffffffffffffffffffffffffffffff1673ffffffffffffffffffffffffffffffffffffffff16815260200190815260200160002060008373ffffffffffffffffffffffffffffffffffffffff1673ffffffffffffffffffffffffffffffffffffffff1681526020019081526020016000205490509291505056fe746f6b656e2062616c616e6365206973206c6f776572207468616e207468652076616c756520726571756573746564746f6b656e2062616c616e6365206f7220616c6c6f77616e6365206973206c6f776572207468616e20616d6f756e7420726571756573746564a26469706673582212205a0bd9b2483865c9fd5a664061b216ce90493b4c666c9b1d8c3f029e4b06500c64736f6c6343000705003360a060405234801561001057600080fd5b5060405161093c38038061093c833981810160405281019061003291906100c5565b8173ffffffffffffffffffffffffffffffffffffffff1660808173ffffffffffffffffffffffffffffffffffffffff1660601b81525050806000806101000a81548173ffffffffffffffffffffffffffffffffffffffff021916908373ffffffffffffffffffffffffffffffffffffffff160217905550505061014a565b6000815190506100bf81610133565b92915050565b600080604083850312156100d857600080fd5b60006100e6858286016100b0565b92505060206100f7858286016100b0565b9150509250929050565b600061010c82610113565b9050919050565b600073ffffffffffffffffffffffffffffffffffffffff82169050919050565b61013c81610101565b811461014757600080fd5b50565b60805160601c6107d061016c6000398061013752806102b752506107d06000f3fe608060405234801561001057600080fd5b50600436106100365760003560e01c80633bf237d51461003b578063af0cce8014610057575b600080fd5b61005560048036038101906100509190610457565b610073565b005b610071600480360381019061006c91906104ce565b6101e9565b005b61007b61034c565b6040518061010001604052808773ffffffffffffffffffffffffffffffffffffffff1681526020018673ffffffffffffffffffffffffffffffffffffffff1681526020018562ffffff16815260200160008054906101000a900473ffffffffffffffffffffffffffffffffffffffff1673ffffffffffffffffffffffffffffffffffffffff168152602001428152602001848152602001838152602001600073ffffffffffffffffffffffffffffffffffffffff1681525090507f000000000000000000000000000000000000000000000000000000000000000073ffffffffffffffffffffffffffffffffffffffff1663414bf389826040518263ffffffff1660e01b815260040161018e91906106cb565b602060405180830381600087803b1580156101a857600080fd5b505af11580156101bc573d6000803e3d6000fd5b505050506040513d601f19601f820116820180604052508101906101e09190610546565b50505050505050565b8273ffffffffffffffffffffffffffffffffffffffff166323b872dd8360008054906101000a900473ffffffffffffffffffffffffffffffffffffffff16846040518463ffffffff1660e01b81526004016102469392919061066b565b602060405180830381600087803b15801561026057600080fd5b505af1158015610274573d6000803e3d6000fd5b505050506040513d601f19601f82011682018060405250810190610298919061051d565b508273ffffffffffffffffffffffffffffffffffffffff1663095ea7b37f0000000000000000000000000000000000000000000000000000000000000000836040518363ffffffff1660e01b81526004016102f49291906106a2565b602060405180830381600087803b15801561030e57600080fd5b505af1158015610322573d6000803e3d6000fd5b505050506040513d601f19601f82011682018060405250810190610346919061051d565b50505050565b604051806101000160405280600073ffffffffffffffffffffffffffffffffffffffff168152602001600073ffffffffffffffffffffffffffffffffffffffff168152602001600062ffffff168152602001600073ffffffffffffffffffffffffffffffffffffffff168152602001600081526020016000815260200160008152602001600073ffffffffffffffffffffffffffffffffffffffff1681525090565b6000813590506103fd8161073e565b92915050565b60008151905061041281610755565b92915050565b6000813590506104278161076c565b92915050565b60008135905061043c81610783565b92915050565b60008151905061045181610783565b92915050565b600080600080600060a0868803121561046f57600080fd5b600061047d888289016103ee565b955050602061048e888289016103ee565b945050604061049f88828901610418565b93505060606104b08882890161042d565b92505060806104c18882890161042d565b9150509295509295909350565b6000806000606084860312156104e357600080fd5b60006104f1868287016103ee565b9350506020610502868287016103ee565b92505060406105138682870161042d565b9150509250925092565b60006020828403121561052f57600080fd5b600061053d84828501610403565b91505092915050565b60006020828403121561055857600080fd5b600061056684828501610442565b91505092915050565b610578816106e7565b82525050565b610587816106e7565b82525050565b610100820160008201516105a4600085018261056f565b5060208201516105b7602085018261056f565b5060408201516105ca604085018261063e565b5060608201516105dd606085018261056f565b5060808201516105f0608085018261064d565b5060a082015161060360a085018261064d565b5060c082015161061660c085018261064d565b5060e082015161062960e085018261062f565b50505050565b61063881610705565b82525050565b61064781610725565b82525050565b61065681610734565b82525050565b61066581610734565b82525050565b6000606082019050610680600083018661057e565b61068d602083018561057e565b61069a604083018461065c565b949350505050565b60006040820190506106b7600083018561057e565b6106c4602083018461065c565b9392505050565b6000610100820190506106e1600083018461058d565b92915050565b60006106f282610705565b9050919050565b60008115159050919050565b600073ffffffffffffffffffffffffffffffffffffffff82169050919050565b600062ffffff82169050919050565b6000819050919050565b610747816106e7565b811461075257600080fd5b50565b61075e816106f9565b811461076957600080fd5b50565b61077581610725565b811461078057600080fd5b50565b61078c81610734565b811461079757600080fd5b5056fea2646970667358221220b5b636e0d719022ec3ad9f2c8d4cfde50ccdaf23f5e16b2ba4cc4cae4e5a191564736f6c63430007050033",
  "immutableReferences": {
    "1347": [
      {
        "length": 32,
        "start": 431
      },
      {
        "length": 32,
        "start": 1427
      },
      {
        "length": 32,
        "start": 2511
      },
      {
        "length": 32,
        "start": 2697
      }
    ],
    "1349": [
      {
        "length": 32,
        "start": 1287
      },
      {
        "length": 32,
        "start": 2733
      }
    ],
    "1354": [
      {
        "length": 32,
        "start": 1017
      },
      {
        "length": 32,
        "start": 2124
      }
    ],
    "1359": [
      {
        "length": 32,
        "start": 1230
      },
      {
        "length": 32,
        "start": 1736
      },
      {
        "length": 32,
        "start": 2368
      }
    ],
    "1361": [
      {
        "length": 32,
        "start": 1676
      },
      {
        "length": 32,
        "start": 2308
      }
    ]
  },
  "source": "// SPDX-License-Identifier: MIT\r\npragma solidity >=0.7.5;\r\npragma abicoder v2;\r\n\r\nimport '../BaseIndex.sol';\r\n\r\n\r\ncontract CorrelationIndex is BaseIndex{\r\n    constructor() BaseIndex(\r\n        BaseIndex.IndexInitialParameters({\r\n            tokenName: \"Correlation Index Token\",\r\n            decimalUnits: 18,\r\n            initialAmount: 1000000000000000,\r\n            tokenSymbol: \"CORRIN\",\r\n            minimalFundAddition: 0\r\n        }),\r\n        0xE592427A0AEce92De3Edee1F18E0157C05861564,     // Uniswap V3 Router\r\n        0x6B175474E89094C44Da98b954EedeAC495271d0F      // DAI\r\n    ){\r\n        tokenContracts.push(BaseIndex.TokenSwapPool({   // MATIC\r\n            tokenAddress: 0x7D1AfA7B718fb893dB30A3aBc0Cfc608AaCfeBB0,\r\n            priceOracleAddress: 0x7bAC85A8a13A4BcD8abb3eB7d6b4d632c5a57676,\r\n            poolFee: 3000\r\n        }));\r\n        tokenContracts.push(BaseIndex.TokenSwapPool({   // WBTC\r\n            tokenAddress: 0x2260FAC5E5542a773Aa44fBCfeDf7C193bc2C599,\r\n            priceOracleAddress: 0xF4030086522a5bEEa4988F8cA5B36dbC97BeE88c,\r\n            poolFee: 3000\r\n        }));\r\n    }\r\n}\r\n",
  "sourcePath": "F:\\JavascriptProjects\\crypto-index\\contracts\\indices\\CorrelationIndex.sol",
  "compiler": {
    "name": "solc",
    "version": "0.7.5+commit.eb77ed08.Linux.g++"
  },
  "schemaVersion": "3.4.3",
  "updatedAt": "2022-03-15T19:05:28.596Z",
  "devdoc": {
    "kind": "dev",
    "methods": {
      "addFunds(uint256)": {
        "details": "I use Chainlink oracles in order to get the amount of the tokens, maybe need to use UniswapV3 Oracle",
        "params": {
          "amountIn": "uint - amount of money that we want to send to the index"
        },
        "returns": {
          "_0": "uint - amount of tokens that were bought"
        }
      }
    },
    "version": 1
  },
  "userdoc": {
    "kind": "user",
    "methods": {
      "addFunds(uint256)": {
        "notice": "That function is used to buy the index tokens"
      }
    },
    "version": 1
  }
}