{
  "contractName": "CorrelationIndex",
  "abi": [
    {
      "inputs": [
        {
          "internalType": "uint256",
          "name": "amount",
          "type": "uint256"
        }
      ],
      "name": "addFunds",
      "outputs": [],
      "stateMutability": "nonpayable",
      "type": "function"
    },
    {
      "inputs": [],
      "name": "buyTokenAddress",
      "outputs": [
        {
          "internalType": "address",
          "name": "",
          "type": "address"
        }
      ],
      "stateMutability": "view",
      "type": "function"
    },
    {
      "inputs": [],
      "name": "dexRouterAddress",
      "outputs": [
        {
          "internalType": "address",
          "name": "",
          "type": "address"
        }
      ],
      "stateMutability": "view",
      "type": "function"
    },
    {
      "inputs": [],
      "name": "getIndexPrice",
      "outputs": [
        {
          "internalType": "uint256",
          "name": "",
          "type": "uint256"
        }
      ],
      "stateMutability": "view",
      "type": "function"
    },
    {
      "inputs": [],
      "name": "indexToken",
      "outputs": [
        {
          "internalType": "contract IndexToken",
          "name": "",
          "type": "address"
        }
      ],
      "stateMutability": "view",
      "type": "function"
    },
    {
      "inputs": [
        {
          "internalType": "uint256",
          "name": "amount",
          "type": "uint256"
        }
      ],
      "name": "removeFunds",
      "outputs": [
        {
          "internalType": "uint256",
          "name": "",
          "type": "uint256"
        }
      ],
      "stateMutability": "view",
      "type": "function"
    },
    {
      "inputs": [
        {
          "internalType": "uint256",
          "name": "",
          "type": "uint256"
        }
      ],
      "name": "tokens",
      "outputs": [
        {
          "internalType": "address",
          "name": "tokenAddress",
          "type": "address"
        },
        {
          "internalType": "address",
          "name": "priceOracleAddress",
          "type": "address"
        },
        {
          "internalType": "uint24",
          "name": "poolFee",
          "type": "uint24"
        },
        {
          "internalType": "uint256",
          "name": "priceAdjustment",
          "type": "uint256"
        }
      ],
      "stateMutability": "view",
      "type": "function"
    }
  ],
  "bytecode": "0x60c06040523480156200001157600080fd5b5073e592427a0aece92de3edee1f18e0157c0586156473ffffffffffffffffffffffffffffffffffffffff1660808173ffffffffffffffffffffffffffffffffffffffff1660601b81525050736b175474e89094c44da98b954eedeac495271d0f73ffffffffffffffffffffffffffffffffffffffff1660a08173ffffffffffffffffffffffffffffffffffffffff1660601b8152505030629896806012604051620000bd906200046f565b620000cb9392919062000542565b604051809103906000f080158015620000e8573d6000803e3d6000fd5b50600260006101000a81548173ffffffffffffffffffffffffffffffffffffffff021916908373ffffffffffffffffffffffffffffffffffffffff16021790555060405162000137906200047d565b604051809103906000f08015801562000154573d6000803e3d6000fd5b50600160006101000a81548173ffffffffffffffffffffffffffffffffffffffff021916908373ffffffffffffffffffffffffffffffffffffffff1602179055506000604051806080016040528073c02aaa39b223fe8d0a0e5c4f27ead9083c756cc273ffffffffffffffffffffffffffffffffffffffff168152602001735f4ec3df9cbd43714fe2740f5e3616155c5b841973ffffffffffffffffffffffffffffffffffffffff168152602001610bb862ffffff1681526020016305f5e100815250908060018154018082558091505060019003906000526020600020906003020160009091909190915060008201518160000160006101000a81548173ffffffffffffffffffffffffffffffffffffffff021916908373ffffffffffffffffffffffffffffffffffffffff16021790555060208201518160010160006101000a81548173ffffffffffffffffffffffffffffffffffffffff021916908373ffffffffffffffffffffffffffffffffffffffff16021790555060408201518160010160146101000a81548162ffffff021916908362ffffff16021790555060608201518160020155505060006040518060800160405280732260fac5e5542a773aa44fbcfedf7c193bc2c59973ffffffffffffffffffffffffffffffffffffffff16815260200173f4030086522a5beea4988f8ca5b36dbc97bee88c73ffffffffffffffffffffffffffffffffffffffff168152602001610bb862ffffff1681526020016305f5e100815250908060018154018082558091505060019003906000526020600020906003020160009091909190915060008201518160000160006101000a81548173ffffffffffffffffffffffffffffffffffffffff021916908373ffffffffffffffffffffffffffffffffffffffff16021790555060208201518160010160006101000a81548173ffffffffffffffffffffffffffffffffffffffff021916908373ffffffffffffffffffffffffffffffffffffffff16021790555060408201518160010160146101000a81548162ffffff021916908362ffffff1602179055506060820151816002015550506200062d565b611252806200160783390190565b61019f806200285983390190565b6200049681620005ba565b82525050565b620004a78162000605565b82525050565b620004b88162000619565b82525050565b6000620004cd600583620005a9565b91507f494e4445580000000000000000000000000000000000000000000000000000006000830152602082019050919050565b60006200050f600b83620005a9565b91507f496e64657820746f6b656e0000000000000000000000000000000000000000006000830152602082019050919050565b600060a0820190506200055960008301866200048b565b6200056860208301856200049c565b81810360408301526200057b8162000500565b90506200058c6060830184620004ad565b81810360808301526200059f81620004be565b9050949350505050565b600082825260208201905092915050565b6000620005c782620005ce565b9050919050565b600073ffffffffffffffffffffffffffffffffffffffff82169050919050565b6000819050919050565b600060ff82169050919050565b60006200061282620005ee565b9050919050565b60006200062682620005f8565b9050919050565b60805160601c60a05160601c610f97620006706000398061040d5280610434528061046052806105c5525080610481528061067c52806107535250610f976000f3fe608060405234801561001057600080fd5b506004361061006d5760003560e01c80632f384523146100725780634f64b2be146100a257806358c0994a146100d557806360ebbf81146100f3578063be99970514610111578063e7d015f21461012d578063e7f67fb11461014b575b600080fd5b61008c60048036038101906100879190610cbd565b610169565b6040516100999190610ec0565b60405180910390f35b6100bc60048036038101906100b79190610cbd565b610183565b6040516100cc9493929190610e44565b60405180910390f35b6100dd610212565b6040516100ea9190610ec0565b60405180910390f35b6100fb61040b565b6040516101089190610e29565b60405180910390f35b61012b60048036038101906101269190610cbd565b61042f565b005b61013561072b565b6040516101429190610e89565b60405180910390f35b610153610751565b6040516101609190610e29565b60405180910390f35b6000610173610212565b828161017b57fe5b049050919050565b6000818154811061019357600080fd5b90600052602060002090600302016000915090508060000160009054906101000a900473ffffffffffffffffffffffffffffffffffffffff16908060010160009054906101000a900473ffffffffffffffffffffffffffffffffffffffff16908060010160149054906101000a900462ffffff16908060020154905084565b60008060005b6000805490508110156103f55761022d610b98565b6000828154811061023a57fe5b90600052602060002090600302016040518060800160405290816000820160009054906101000a900473ffffffffffffffffffffffffffffffffffffffff1673ffffffffffffffffffffffffffffffffffffffff1673ffffffffffffffffffffffffffffffffffffffff1681526020016001820160009054906101000a900473ffffffffffffffffffffffffffffffffffffffff1673ffffffffffffffffffffffffffffffffffffffff1673ffffffffffffffffffffffffffffffffffffffff1681526020016001820160149054906101000a900462ffffff1662ffffff1662ffffff16815260200160028201548152505090506000600160009054906101000a900473ffffffffffffffffffffffffffffffffffffffff1673ffffffffffffffffffffffffffffffffffffffff166341976e0983602001516040518263ffffffff1660e01b815260040161038f9190610e29565b60206040518083038186803b1580156103a757600080fd5b505afa1580156103bb573d6000803e3d6000fd5b505050506040513d601f19601f820116820180604052508101906103df9190610ce6565b9050808401935050508080600101915050610218565b50600080549050818161040457fe5b0491505090565b7f000000000000000000000000000000000000000000000000000000000000000081565b61045b7f0000000000000000000000000000000000000000000000000000000000000000333084610775565b6104a67f00000000000000000000000000000000000000000000000000000000000000007f000000000000000000000000000000000000000000000000000000000000000083610996565b6104ae610b98565b600080815481106104bb57fe5b90600052602060002090600302016040518060800160405290816000820160009054906101000a900473ffffffffffffffffffffffffffffffffffffffff1673ffffffffffffffffffffffffffffffffffffffff1673ffffffffffffffffffffffffffffffffffffffff1681526020016001820160009054906101000a900473ffffffffffffffffffffffffffffffffffffffff1673ffffffffffffffffffffffffffffffffffffffff1673ffffffffffffffffffffffffffffffffffffffff1681526020016001820160149054906101000a900462ffffff1662ffffff1662ffffff16815260200160028201548152505090506105b7610bf1565b6040518061010001604052807f000000000000000000000000000000000000000000000000000000000000000073ffffffffffffffffffffffffffffffffffffffff168152602001836000015173ffffffffffffffffffffffffffffffffffffffff168152602001836040015162ffffff1681526020013073ffffffffffffffffffffffffffffffffffffffff16815260200142815260200184815260200160008152602001600073ffffffffffffffffffffffffffffffffffffffff1681525090507f000000000000000000000000000000000000000000000000000000000000000073ffffffffffffffffffffffffffffffffffffffff1663414bf389826040518263ffffffff1660e01b81526004016106d39190610ea4565b602060405180830381600087803b1580156106ed57600080fd5b505af1158015610701573d6000803e3d6000fd5b505050506040513d601f19601f820116820180604052508101906107259190610ce6565b50505050565b600260009054906101000a900473ffffffffffffffffffffffffffffffffffffffff1681565b7f000000000000000000000000000000000000000000000000000000000000000081565b600060608573ffffffffffffffffffffffffffffffffffffffff166323b872dd60e01b868686604051602401808473ffffffffffffffffffffffffffffffffffffffff1681526020018373ffffffffffffffffffffffffffffffffffffffff1681526020018281526020019350505050604051602081830303815290604052907bffffffffffffffffffffffffffffffffffffffffffffffffffffffff19166020820180517bffffffffffffffffffffffffffffffffffffffffffffffffffffffff83818316178352505050506040518082805190602001908083835b602083106108755780518252602082019150602081019050602083039250610852565b6001836020036101000a0380198251168184511680821785525050505050509050019150506000604051808303816000865af19150503d80600081146108d7576040519150601f19603f3d011682016040523d82523d6000602084013e6108dc565b606091505b509150915081801561091c575060008151148061091b575080806020019051602081101561090957600080fd5b81019080805190602001909291905050505b5b61098e576040517f08c379a00000000000000000000000000000000000000000000000000000000081526004018080602001828103825260038152602001807f535446000000000000000000000000000000000000000000000000000000000081525060200191505060405180910390fd5b505050505050565b600060608473ffffffffffffffffffffffffffffffffffffffff1663095ea7b360e01b8585604051602401808373ffffffffffffffffffffffffffffffffffffffff16815260200182815260200192505050604051602081830303815290604052907bffffffffffffffffffffffffffffffffffffffffffffffffffffffff19166020820180517bffffffffffffffffffffffffffffffffffffffffffffffffffffffff83818316178352505050506040518082805190602001908083835b60208310610a785780518252602082019150602081019050602083039250610a55565b6001836020036101000a0380198251168184511680821785525050505050509050019150506000604051808303816000865af19150503d8060008114610ada576040519150601f19603f3d011682016040523d82523d6000602084013e610adf565b606091505b5091509150818015610b1f5750600081511480610b1e5750808060200190516020811015610b0c57600080fd5b81019080805190602001909291905050505b5b610b91576040517f08c379a00000000000000000000000000000000000000000000000000000000081526004018080602001828103825260028152602001807f534100000000000000000000000000000000000000000000000000000000000081525060200191505060405180910390fd5b5050505050565b6040518060800160405280600073ffffffffffffffffffffffffffffffffffffffff168152602001600073ffffffffffffffffffffffffffffffffffffffff168152602001600062ffffff168152602001600081525090565b604051806101000160405280600073ffffffffffffffffffffffffffffffffffffffff168152602001600073ffffffffffffffffffffffffffffffffffffffff168152602001600062ffffff168152602001600073ffffffffffffffffffffffffffffffffffffffff168152602001600081526020016000815260200160008152602001600073ffffffffffffffffffffffffffffffffffffffff1681525090565b600081359050610ca281610f4a565b92915050565b600081519050610cb781610f4a565b92915050565b600060208284031215610ccf57600080fd5b6000610cdd84828501610c93565b91505092915050565b600060208284031215610cf857600080fd5b6000610d0684828501610ca8565b91505092915050565b610d1881610edb565b82525050565b610d2781610edb565b82525050565b610d3681610f26565b82525050565b61010082016000820151610d536000850182610d0f565b506020820151610d666020850182610d0f565b506040820151610d796040850182610ded565b506060820151610d8c6060850182610d0f565b506080820151610d9f6080850182610e0b565b5060a0820151610db260a0850182610e0b565b5060c0820151610dc560c0850182610e0b565b5060e0820151610dd860e0850182610dde565b50505050565b610de781610eed565b82525050565b610df681610f0d565b82525050565b610e0581610f0d565b82525050565b610e1481610f1c565b82525050565b610e2381610f1c565b82525050565b6000602082019050610e3e6000830184610d1e565b92915050565b6000608082019050610e596000830187610d1e565b610e666020830186610d1e565b610e736040830185610dfc565b610e806060830184610e1a565b95945050505050565b6000602082019050610e9e6000830184610d2d565b92915050565b600061010082019050610eba6000830184610d3c565b92915050565b6000602082019050610ed56000830184610e1a565b92915050565b6000610ee682610eed565b9050919050565b600073ffffffffffffffffffffffffffffffffffffffff82169050919050565b600062ffffff82169050919050565b6000819050919050565b6000610f3182610f38565b9050919050565b6000610f4382610eed565b9050919050565b610f5381610f1c565b8114610f5e57600080fd5b5056fea2646970667358221220391d1a34a523956e59cf1ee79d7098bb1750e1e00f123e0ff3a856026a389ff064736f6c6343000705003360806040523480156200001157600080fd5b506040516200125238038062001252833981810160405281019062000037919062000230565b836000808773ffffffffffffffffffffffffffffffffffffffff1673ffffffffffffffffffffffffffffffffffffffff1681526020019081526020016000208190555083600281905550826003908051906020019062000099929190620000d9565b5081600460006101000a81548160ff021916908360ff1602179055508060059080519060200190620000cd929190620000d9565b5050505050506200041c565b828054600181600116156101000203166002900490600052602060002090601f0160209004810192826200011157600085556200015d565b82601f106200012c57805160ff19168380011785556200015d565b828001600101855582156200015d579182015b828111156200015c5782518255916020019190600101906200013f565b5b5090506200016c919062000170565b5090565b5b808211156200018b57600081600090555060010162000171565b5090565b600081519050620001a081620003ce565b92915050565b600082601f830112620001b857600080fd5b8151620001cf620001c98262000318565b620002e4565b91508082526020830160208301858383011115620001ec57600080fd5b620001f983828462000396565b50505092915050565b6000815190506200021381620003e8565b92915050565b6000815190506200022a8162000402565b92915050565b600080600080600060a086880312156200024957600080fd5b600062000259888289016200018f565b95505060206200026c8882890162000202565b945050604086015167ffffffffffffffff8111156200028a57600080fd5b6200029888828901620001a6565b9350506060620002ab8882890162000219565b925050608086015167ffffffffffffffff811115620002c957600080fd5b620002d788828901620001a6565b9150509295509295909350565b6000604051905081810181811067ffffffffffffffff821117156200030e576200030d620003cc565b5b8060405250919050565b600067ffffffffffffffff821115620003365762000335620003cc565b5b601f19601f8301169050602081019050919050565b600062000358826200035f565b9050919050565b600073ffffffffffffffffffffffffffffffffffffffff82169050919050565b6000819050919050565b600060ff82169050919050565b60005b83811015620003b657808201518184015260208101905062000399565b83811115620003c6576000848401525b50505050565bfe5b620003d9816200034b565b8114620003e557600080fd5b50565b620003f3816200037f565b8114620003ff57600080fd5b50565b6200040d8162000389565b81146200041957600080fd5b50565b610e26806200042c6000396000f3fe608060405234801561001057600080fd5b50600436106100995760003560e01c806306fdde031461009e578063095ea7b3146100bc57806318160ddd146100ec57806323b872dd1461010a57806327e235e31461013a578063313ce5671461016a5780635c6581651461018857806370a08231146101b857806395d89b41146101e8578063a9059cbb14610206578063dd62ed3e14610236575b600080fd5b6100a6610266565b6040516100b39190610c75565b60405180910390f35b6100d660048036038101906100d19190610aec565b610304565b6040516100e39190610c5a565b60405180910390f35b6100f46103f6565b6040516101019190610cd7565b60405180910390f35b610124600480360381019061011f9190610a9d565b6103fc565b6040516101319190610c5a565b60405180910390f35b610154600480360381019061014f9190610a38565b6106c7565b6040516101619190610cd7565b60405180910390f35b6101726106df565b60405161017f9190610cf2565b60405180910390f35b6101a2600480360381019061019d9190610a61565b6106f2565b6040516101af9190610cd7565b60405180910390f35b6101d260048036038101906101cd9190610a38565b610717565b6040516101df9190610cd7565b60405180910390f35b6101f061075f565b6040516101fd9190610c75565b60405180910390f35b610220600480360381019061021b9190610aec565b6107fd565b60405161022d9190610c5a565b60405180910390f35b610250600480360381019061024b9190610a61565b610987565b60405161025d9190610cd7565b60405180910390f35b60038054600181600116156101000203166002900480601f0160208091040260200160405190810160405280929190818152602001828054600181600116156101000203166002900480156102fc5780601f106102d1576101008083540402835291602001916102fc565b820191906000526020600020905b8154815290600101906020018083116102df57829003601f168201915b505050505081565b600081600160003373ffffffffffffffffffffffffffffffffffffffff1673ffffffffffffffffffffffffffffffffffffffff16815260200190815260200160002060008573ffffffffffffffffffffffffffffffffffffffff1673ffffffffffffffffffffffffffffffffffffffff168152602001908152602001600020819055508273ffffffffffffffffffffffffffffffffffffffff163373ffffffffffffffffffffffffffffffffffffffff167f8c5be1e5ebec7d5bd14f71427d1e84f3dd0314c0f7b2291e5b200ac8c7c3b925846040516103e49190610cd7565b60405180910390a36001905092915050565b60025481565b600080600160008673ffffffffffffffffffffffffffffffffffffffff1673ffffffffffffffffffffffffffffffffffffffff16815260200190815260200160002060003373ffffffffffffffffffffffffffffffffffffffff1673ffffffffffffffffffffffffffffffffffffffff168152602001908152602001600020549050826000808773ffffffffffffffffffffffffffffffffffffffff1673ffffffffffffffffffffffffffffffffffffffff16815260200190815260200160002054101580156104cc5750828110155b61050b576040517f08c379a000000000000000000000000000000000000000000000000000000000815260040161050290610cb7565b60405180910390fd5b826000808673ffffffffffffffffffffffffffffffffffffffff1673ffffffffffffffffffffffffffffffffffffffff16815260200190815260200160002060008282540192505081905550826000808773ffffffffffffffffffffffffffffffffffffffff1673ffffffffffffffffffffffffffffffffffffffff168152602001908152602001600020600082825403925050819055507fffffffffffffffffffffffffffffffffffffffffffffffffffffffffffffffff8110156106565782600160008773ffffffffffffffffffffffffffffffffffffffff1673ffffffffffffffffffffffffffffffffffffffff16815260200190815260200160002060003373ffffffffffffffffffffffffffffffffffffffff1673ffffffffffffffffffffffffffffffffffffffff168152602001908152602001600020600082825403925050819055505b8373ffffffffffffffffffffffffffffffffffffffff168573ffffffffffffffffffffffffffffffffffffffff167fddf252ad1be2c89b69c2b068fc378daa952ba7f163c4a11628f55a4df523b3ef856040516106b39190610cd7565b60405180910390a360019150509392505050565b60006020528060005260406000206000915090505481565b600460009054906101000a900460ff1681565b6001602052816000526040600020602052806000526040600020600091509150505481565b60008060008373ffffffffffffffffffffffffffffffffffffffff1673ffffffffffffffffffffffffffffffffffffffff168152602001908152602001600020549050919050565b60058054600181600116156101000203166002900480601f0160208091040260200160405190810160405280929190818152602001828054600181600116156101000203166002900480156107f55780601f106107ca576101008083540402835291602001916107f5565b820191906000526020600020905b8154815290600101906020018083116107d857829003601f168201915b505050505081565b6000816000803373ffffffffffffffffffffffffffffffffffffffff1673ffffffffffffffffffffffffffffffffffffffff168152602001908152602001600020541015610880576040517f08c379a000000000000000000000000000000000000000000000000000000000815260040161087790610c97565b60405180910390fd5b816000803373ffffffffffffffffffffffffffffffffffffffff1673ffffffffffffffffffffffffffffffffffffffff16815260200190815260200160002060008282540392505081905550816000808573ffffffffffffffffffffffffffffffffffffffff1673ffffffffffffffffffffffffffffffffffffffff168152602001908152602001600020600082825401925050819055508273ffffffffffffffffffffffffffffffffffffffff163373ffffffffffffffffffffffffffffffffffffffff167fddf252ad1be2c89b69c2b068fc378daa952ba7f163c4a11628f55a4df523b3ef846040516109759190610cd7565b60405180910390a36001905092915050565b6000600160008473ffffffffffffffffffffffffffffffffffffffff1673ffffffffffffffffffffffffffffffffffffffff16815260200190815260200160002060008373ffffffffffffffffffffffffffffffffffffffff1673ffffffffffffffffffffffffffffffffffffffff16815260200190815260200160002054905092915050565b600081359050610a1d81610dc2565b92915050565b600081359050610a3281610dd9565b92915050565b600060208284031215610a4a57600080fd5b6000610a5884828501610a0e565b91505092915050565b60008060408385031215610a7457600080fd5b6000610a8285828601610a0e565b9250506020610a9385828601610a0e565b9150509250929050565b600080600060608486031215610ab257600080fd5b6000610ac086828701610a0e565b9350506020610ad186828701610a0e565b9250506040610ae286828701610a23565b9150509250925092565b60008060408385031215610aff57600080fd5b6000610b0d85828601610a0e565b9250506020610b1e85828601610a23565b9150509250929050565b610b3181610d3b565b82525050565b6000610b4282610d0d565b610b4c8185610d18565b9350610b5c818560208601610d7e565b610b6581610db1565b840191505092915050565b6000610b7d602f83610d18565b91507f746f6b656e2062616c616e6365206973206c6f776572207468616e207468652060008301527f76616c75652072657175657374656400000000000000000000000000000000006020830152604082019050919050565b6000610be3603983610d18565b91507f746f6b656e2062616c616e6365206f7220616c6c6f77616e6365206973206c6f60008301527f776572207468616e20616d6f756e7420726571756573746564000000000000006020830152604082019050919050565b610c4581610d67565b82525050565b610c5481610d71565b82525050565b6000602082019050610c6f6000830184610b28565b92915050565b60006020820190508181036000830152610c8f8184610b37565b905092915050565b60006020820190508181036000830152610cb081610b70565b9050919050565b60006020820190508181036000830152610cd081610bd6565b9050919050565b6000602082019050610cec6000830184610c3c565b92915050565b6000602082019050610d076000830184610c4b565b92915050565b600081519050919050565b600082825260208201905092915050565b6000610d3482610d47565b9050919050565b60008115159050919050565b600073ffffffffffffffffffffffffffffffffffffffff82169050919050565b6000819050919050565b600060ff82169050919050565b60005b83811015610d9c578082015181840152602081019050610d81565b83811115610dab576000848401525b50505050565b6000601f19601f8301169050919050565b610dcb81610d29565b8114610dd657600080fd5b50565b610de281610d67565b8114610ded57600080fd5b5056fea264697066735822122053e7f5a6d83497c520d0cb47cfb7b35d8e2cd94fcc8eee20d9b20572db3928fc64736f6c63430007050033608060405234801561001057600080fd5b5061017f806100206000396000f3fe608060405234801561001057600080fd5b506004361061002b5760003560e01c806341976e0914610030575b600080fd5b6100726004803603602081101561004657600080fd5b81019080803573ffffffffffffffffffffffffffffffffffffffff169060200190929190505050610088565b6040518082815260200191505060405180910390f35b60008082905060008173ffffffffffffffffffffffffffffffffffffffff1663feaf968c6040518163ffffffff1660e01b815260040160a06040518083038186803b1580156100d657600080fd5b505afa1580156100ea573d6000803e3d6000fd5b505050506040513d60a081101561010057600080fd5b810190808051906020019092919080519060200190929190805190602001909291908051906020019092919080519060200190929190505050505050915050809250505091905056fea264697066735822122091a6a7ae0028a114ff99e2284684fef05858df73df43f8e3873d1c9aeb3ae50664736f6c63430007050033",
  "immutableReferences": {
    "1322": [
      {
        "length": 32,
        "start": 1153
      },
      {
        "length": 32,
        "start": 1660
      },
      {
        "length": 32,
        "start": 1875
      }
    ],
    "1324": [
      {
        "length": 32,
        "start": 1037
      },
      {
        "length": 32,
        "start": 1076
      },
      {
        "length": 32,
        "start": 1120
      },
      {
        "length": 32,
        "start": 1477
      }
    ]
  },
  "source": "// SPDX-License-Identifier: MIT\r\npragma solidity >=0.7.5;\r\npragma abicoder v2;\r\n\r\nimport '../BaseIndex.sol';\r\n\r\n\r\ncontract CorrelationIndex is BaseIndex{\r\n    //constructor() BaseIndex(\r\n    //    BaseIndex.IndexInitialParameters({\r\n    //        tokenName: \"Correlation Index Token\",\r\n    //        decimalUnits: 18,\r\n    //        initialAmount: 1000000000000000,\r\n    //        tokenSymbol: \"CORRIN\",\r\n    //        minimalFundAddition: 0\r\n    //    }),\r\n    //    0xE592427A0AEce92De3Edee1F18E0157C05861564,     // Uniswap V3 Router\r\n    //    0x6B175474E89094C44Da98b954EedeAC495271d0F      // DAI\r\n    //){\r\n    //    tokenContracts.push(BaseIndex.TokenSwapPool({   // MATIC\r\n    //        tokenAddress: 0x7D1AfA7B718fb893dB30A3aBc0Cfc608AaCfeBB0,\r\n    //        priceOracleAddress: 0x7bAC85A8a13A4BcD8abb3eB7d6b4d632c5a57676,\r\n    //        poolFee: 3000\r\n    //    }));\r\n    //    tokenContracts.push(BaseIndex.TokenSwapPool({   // WBTC\r\n    //        tokenAddress: 0x2260FAC5E5542a773Aa44fBCfeDf7C193bc2C599,\r\n    //        priceOracleAddress: 0xF4030086522a5bEEa4988F8cA5B36dbC97BeE88c,\r\n    //        poolFee: 3000\r\n    //    }));\r\n    // }\r\n}\r\n",
  "sourcePath": "F:\\JavascriptProjects\\crypto-index\\contracts\\indices\\CorrelationIndex.sol",
  "compiler": {
    "name": "solc",
    "version": "0.7.5+commit.eb77ed08.Linux.g++"
  },
  "schemaVersion": "3.4.3",
  "updatedAt": "2022-03-23T19:10:04.886Z",
  "devdoc": {
    "kind": "dev",
    "methods": {},
    "version": 1
  },
  "userdoc": {
    "kind": "user",
    "methods": {},
    "version": 1
  }
}