{
  "contractName": "CorrelationIndex",
  "abi": [
    {
      "inputs": [],
      "stateMutability": "nonpayable",
      "type": "constructor"
    },
    {
      "anonymous": false,
      "inputs": [
        {
          "indexed": true,
          "internalType": "address",
          "name": "previousOwner",
          "type": "address"
        },
        {
          "indexed": true,
          "internalType": "address",
          "name": "newOwner",
          "type": "address"
        }
      ],
      "name": "OwnershipTransferred",
      "type": "event"
    },
    {
      "inputs": [],
      "name": "addFunds",
      "outputs": [],
      "stateMutability": "payable",
      "type": "function"
    },
    {
      "inputs": [],
      "name": "getMyTokens",
      "outputs": [
        {
          "internalType": "uint256",
          "name": "",
          "type": "uint256"
        }
      ],
      "stateMutability": "view",
      "type": "function"
    },
    {
      "inputs": [],
      "name": "getMyTokensPrice",
      "outputs": [
        {
          "internalType": "uint256",
          "name": "",
          "type": "uint256"
        }
      ],
      "stateMutability": "view",
      "type": "function"
    },
    {
      "inputs": [],
      "name": "getPrice",
      "outputs": [
        {
          "internalType": "uint256",
          "name": "",
          "type": "uint256"
        }
      ],
      "stateMutability": "view",
      "type": "function"
    },
    {
      "inputs": [],
      "name": "getTVL",
      "outputs": [
        {
          "internalType": "uint256",
          "name": "",
          "type": "uint256"
        }
      ],
      "stateMutability": "view",
      "type": "function"
    },
    {
      "inputs": [],
      "name": "minimalFundAddition",
      "outputs": [
        {
          "internalType": "uint256",
          "name": "",
          "type": "uint256"
        }
      ],
      "stateMutability": "view",
      "type": "function"
    },
    {
      "inputs": [],
      "name": "name",
      "outputs": [
        {
          "internalType": "string",
          "name": "",
          "type": "string"
        }
      ],
      "stateMutability": "view",
      "type": "function"
    },
    {
      "inputs": [],
      "name": "owner",
      "outputs": [
        {
          "internalType": "address",
          "name": "",
          "type": "address"
        }
      ],
      "stateMutability": "view",
      "type": "function"
    },
    {
      "inputs": [],
      "name": "poolFee",
      "outputs": [
        {
          "internalType": "uint24",
          "name": "",
          "type": "uint24"
        }
      ],
      "stateMutability": "view",
      "type": "function"
    },
    {
      "inputs": [
        {
          "internalType": "uint256",
          "name": "",
          "type": "uint256"
        }
      ],
      "name": "priceConsumers",
      "outputs": [
        {
          "internalType": "address",
          "name": "",
          "type": "address"
        }
      ],
      "stateMutability": "view",
      "type": "function"
    },
    {
      "inputs": [],
      "name": "renounceOwnership",
      "outputs": [],
      "stateMutability": "nonpayable",
      "type": "function"
    },
    {
      "inputs": [],
      "name": "symbol",
      "outputs": [
        {
          "internalType": "string",
          "name": "",
          "type": "string"
        }
      ],
      "stateMutability": "view",
      "type": "function"
    },
    {
      "inputs": [
        {
          "internalType": "uint256",
          "name": "",
          "type": "uint256"
        }
      ],
      "name": "tokenContracts",
      "outputs": [
        {
          "internalType": "address",
          "name": "",
          "type": "address"
        }
      ],
      "stateMutability": "view",
      "type": "function"
    },
    {
      "inputs": [
        {
          "internalType": "address",
          "name": "newOwner",
          "type": "address"
        }
      ],
      "name": "transferOwnership",
      "outputs": [],
      "stateMutability": "nonpayable",
      "type": "function"
    },
    {
      "inputs": [],
      "name": "uniswapRouter",
      "outputs": [
        {
          "internalType": "contract ISwapRouter",
          "name": "",
          "type": "address"
        }
      ],
      "stateMutability": "view",
      "type": "function"
    },
    {
      "stateMutability": "payable",
      "type": "receive"
    }
  ],
  "bytecode": "0x60806040523480156200001157600080fd5b506200003862000029640100000000620001a1810204565b640100000000620001a5810204565b60646003556040805180820190915260118082527f436f7272656c6174696f6e20496e64657800000000000000000000000000000060209092019182526200008391600491620001f5565b506040805180820190915260028082527f43490000000000000000000000000000000000000000000000000000000000006020909201918252620000ca91600591620001f5565b5060408051606081018252735f4ec3df9cbd43714fe2740f5e3616155c5b8419815273f4030086522a5beea4988f8ca5b36dbc97bee88c6020820152732c1d072e956affc0d435cb7ac38ef18d24d9127c918101919091526200013290600690600362000284565b506040805160608101825273c02aaa39b223fe8d0a0e5c4f27ead9083c756cc28152732260fac5e5542a773aa44fbcfedf7c193bc2c599602082015273514910771af9ca656af840dff83e8264ecf986ca918101919091526200019a90600790600362000284565b5062000349565b3390565b60008054600160a060020a03838116600160a060020a0319831681178455604051919092169283917f8be0079c531659141344cd1fd0a4f28419497f9722a3daafe3b4186f6b6457e09190a35050565b8280546200020390620002f3565b90600052602060002090601f01602090048101928262000227576000855562000272565b82601f106200024257805160ff191683800117855562000272565b8280016001018555821562000272579182015b828111156200027257825182559160200191906001019062000255565b5062000280929150620002dc565b5090565b82805482825590600052602060002090810192821562000272579160200282015b82811115620002725782518254600160a060020a031916600160a060020a03909116178255602090920191600190910190620002a5565b5b80821115620002805760008155600101620002dd565b6002810460018216806200030857607f821691505b6020821081141562000343577f4e487b7100000000000000000000000000000000000000000000000000000000600052602260045260246000fd5b50919050565b610e7680620003596000396000f3fe608060405260043610610109576000357c010000000000000000000000000000000000000000000000000000000090048063735de9f7116100a757806398d5fdca1161007657806398d5fdca1461028e578063a26759cb146102a3578063f2fde38b146102ab578063f3b755c7146102cb57600080fd5b8063735de9f71461021e5780638da5cb5b1461024657806395d89b411461026457806397b3fcaa1461027957600080fd5b80631d9fb309116100e35780631d9fb3091461018d5780635b3b136a146101c557806367ebf886146101e7578063715018a61461020757600080fd5b806306fdde0314610115578063089fe6aa146101405780631d85b4151461016a57600080fd5b3661011057005b600080fd5b34801561012157600080fd5b5061012a6102e1565b6040516101379190610cf6565b60405180910390f35b34801561014c57600080fd5b50610156610bb881565b60405162ffffff9091168152602001610137565b34801561017657600080fd5b5061017f61036f565b604051908152602001610137565b34801561019957600080fd5b506101ad6101a8366004610c58565b610398565b604051600160a060020a039091168152602001610137565b3480156101d157600080fd5b503360009081526002602052604090205461017f565b3480156101f357600080fd5b506101ad610202366004610c58565b6103c2565b34801561021357600080fd5b5061021c6103d2565b005b34801561022a57600080fd5b506101ad73e592427a0aece92de3edee1f18e0157c0586156481565b34801561025257600080fd5b50600054600160a060020a03166101ad565b34801561027057600080fd5b5061012a610440565b34801561028557600080fd5b5061017f61044d565b34801561029a57600080fd5b5061017f610464565b61021c610574565b3480156102b757600080fd5b5061021c6102c6366004610c06565b610811565b3480156102d757600080fd5b5061017f60035481565b600480546102ee90610db5565b80601f016020809104026020016040519081016040528092919081815260200182805461031a90610db5565b80156103675780601f1061033c57610100808354040283529160200191610367565b820191906000526020600020905b81548152906001019060200180831161034a57829003601f168201915b505050505081565b6000610379610464565b336000908152600260205260409020546103939190610d66565b905090565b600781815481106103a857600080fd5b600091825260209091200154600160a060020a0316905081565b600681815481106103a857600080fd5b600054600160a060020a031633146104345760405160e560020a62461bcd02815260206004820181905260248201527f4f776e61626c653a2063616c6c6572206973206e6f7420746865206f776e657260448201526064015b60405180910390fd5b61043e60006108f9565b565b600580546102ee90610db5565b6000610457610464565b6001546103939190610d66565b600080805b6006548110156105605760006006828154811061048857610488610e27565b9060005260206000200160009054906101000a9004600160a060020a03169050600081600160a060020a031663feaf968c6040518163ffffffff167c010000000000000000000000000000000000000000000000000000000002815260040160a06040518083038186803b1580156104ff57600080fd5b505afa158015610513573d6000803e3d6000fd5b505050506040513d601f19601f820116820180604052508101906105379190610c8a565b50505091505080846105499190610d29565b93505050808061055890610df3565b915050610469565b5060065461056e9082610d41565b91505090565b60035434116105ed5760405160e560020a62461bcd028152602060048201526024808201527f4e6f7420656e6f7567682066756e647320746f2061646420746f20746865206960448201527f6e64657800000000000000000000000000000000000000000000000000000000606482015260840161042b565b34600160008282546105ff9190610d29565b9091555050336000908152600260205260408120805460019290610624908490610d29565b90915550610649905073d0a1e359811322d97991e03f863a0c30c2cf029c3034610956565b61067c73d0a1e359811322d97991e03f863a0c30c2cf029c73e592427a0aece92de3edee1f18e0157c0586156434610aa2565b600060405180610100016040528073d0a1e359811322d97991e03f863a0c30c2cf029c600160a060020a0316815260200160076001815481106106c1576106c1610e27565b60009182526020918290200154600160a060020a03168252610bb8908201523060408201526060016106f542610e10610d29565b8152346020808301919091526000604080840182905260609384019190915280517f414bf3890000000000000000000000000000000000000000000000000000000081528451600160a060020a03908116600483015292850151831660248201529084015162ffffff16604482015291830151811660648301526080830151608483015260a083015160a483015260c083015160c483015260e08301511660e482015290915073e592427a0aece92de3edee1f18e0157c058615649063414bf3899061010401602060405180830381600087803b1580156107d557600080fd5b505af11580156107e9573d6000803e3d6000fd5b505050506040513d601f19601f8201168201806040525081019061080d9190610c71565b5050565b600054600160a060020a0316331461086e5760405160e560020a62461bcd02815260206004820181905260248201527f4f776e61626c653a2063616c6c6572206973206e6f7420746865206f776e6572604482015260640161042b565b600160a060020a0381166108ed5760405160e560020a62461bcd02815260206004820152602660248201527f4f776e61626c653a206e6577206f776e657220697320746865207a65726f206160448201527f6464726573730000000000000000000000000000000000000000000000000000606482015260840161042b565b6108f6816108f9565b50565b60008054600160a060020a0383811673ffffffffffffffffffffffffffffffffffffffff19831681178455604051919092169283917f8be0079c531659141344cd1fd0a4f28419497f9722a3daafe3b4186f6b6457e09190a35050565b60408051600160a060020a038481166024830152604480830185905283518084039091018152606490920183526020820180517bffffffffffffffffffffffffffffffffffffffffffffffffffffffff167fa9059cbb0000000000000000000000000000000000000000000000000000000017905291516000928392908716916109e09190610cda565b6000604051808303816000865af19150503d8060008114610a1d576040519150601f19603f3d011682016040523d82523d6000602084013e610a22565b606091505b5091509150818015610a4c575080511580610a4c575080806020019051810190610a4c9190610c36565b610a9b5760405160e560020a62461bcd02815260206004820152600260248201527f5354000000000000000000000000000000000000000000000000000000000000604482015260640161042b565b5050505050565b60408051600160a060020a038481166024830152604480830185905283518084039091018152606490920183526020820180517bffffffffffffffffffffffffffffffffffffffffffffffffffffffff167f095ea7b3000000000000000000000000000000000000000000000000000000001790529151600092839290871691610b2c9190610cda565b6000604051808303816000865af19150503d8060008114610b69576040519150601f19603f3d011682016040523d82523d6000602084013e610b6e565b606091505b5091509150818015610b98575080511580610b98575080806020019051810190610b989190610c36565b610a9b5760405160e560020a62461bcd02815260206004820152600260248201527f5341000000000000000000000000000000000000000000000000000000000000604482015260640161042b565b805169ffffffffffffffffffff81168114610c0157600080fd5b919050565b600060208284031215610c1857600080fd5b8135600160a060020a0381168114610c2f57600080fd5b9392505050565b600060208284031215610c4857600080fd5b81518015158114610c2f57600080fd5b600060208284031215610c6a57600080fd5b5035919050565b600060208284031215610c8357600080fd5b5051919050565b600080600080600060a08688031215610ca257600080fd5b610cab86610be7565b9450602086015193506040860151925060608601519150610cce60808701610be7565b90509295509295909350565b60008251610cec818460208701610d85565b9190910192915050565b6020815260008251806020840152610d15816040850160208701610d85565b601f01601f19169190910160400192915050565b60008219821115610d3c57610d3c610e0e565b500190565b600082610d615760e060020a634e487b7102600052601260045260246000fd5b500490565b6000816000190483118215151615610d8057610d80610e0e565b500290565b60005b83811015610da0578181015183820152602001610d88565b83811115610daf576000848401525b50505050565b600281046001821680610dc957607f821691505b60208210811415610ded5760e060020a634e487b7102600052602260045260246000fd5b50919050565b6000600019821415610e0757610e07610e0e565b5060010190565b60e060020a634e487b7102600052601160045260246000fd5b60e060020a634e487b7102600052603260045260246000fdfea26469706673582212208041ddd159038e5ddc3570a211f3632c6abfc65741b0079f71fb028e021f487864736f6c63430008070033",
  "immutableReferences": {},
  "source": "// SPDX-License-Identifier: MIT\npragma solidity ^0.8.7;\n\nimport './PriceProtocol.sol';\nimport \"@openzeppelin/contracts/access/Ownable.sol\";\nimport \"@openzeppelin/contracts/utils/Strings.sol\";\nimport \"@chainlink/contracts/src/v0.8/interfaces/AggregatorV3Interface.sol\";\nimport '@uniswap/v3-periphery/contracts/libraries/TransferHelper.sol';\nimport '@uniswap/v3-periphery/contracts/interfaces/ISwapRouter.sol';\nimport '@uniswap/v3-periphery/contracts/interfaces/IPeripheryPayments.sol';\n\n\ncontract BaseIndex is Ownable {\n\n    uint256 private totalFunds;\n    mapping(address => uint256) private investors;\n    uint256 public minimalFundAddition;\n\n    string public name;\n    string public symbol;\n\n    address[] public priceConsumers;\n    address[] public tokenContracts;\n\n    uint24 public constant poolFee = 3000;\n    address private constant WETH = 0xd0A1E359811322d97991E03f863a0C30C2cF029C;\n    ISwapRouter public constant uniswapRouter = ISwapRouter(0xE592427A0AEce92De3Edee1F18E0157C05861564);\n\n    function getPrice() public view returns (uint) {\n        uint totalPrice = 0;\n\n        for (uint index = 0; index < priceConsumers.length; index++) {\n            AggregatorV3Interface consumer = AggregatorV3Interface(priceConsumers[index]);\n            (, int answer, , ,) = consumer.latestRoundData();\n            totalPrice += uint(answer);\n        }\n\n        return totalPrice / priceConsumers.length;\n    }\n\n    function addFunds() public payable {\n        require(msg.value > minimalFundAddition, \"Not enough funds to add to the index\");\n        totalFunds += msg.value;\n        investors[msg.sender] += 1; //msg.value / getPrice();\n\n        TransferHelper.safeTransfer(WETH, address(this), msg.value);\n        TransferHelper.safeApprove(WETH, address(uniswapRouter), msg.value);\n\n        ISwapRouter.ExactInputSingleParams memory params = ISwapRouter.ExactInputSingleParams({\n            tokenIn: WETH,\n            tokenOut: tokenContracts[1],\n            fee: poolFee,\n            recipient: address(this),\n            deadline: block.timestamp + 3600,\n            amountIn: msg.value,\n            amountOutMinimum: 0,\n            sqrtPriceLimitX96: 0\n        });\n\n        uniswapRouter.exactInputSingle(params);\n        // uniswapRouter.refundEth();\n    }\n\n    receive() payable external {}\n\n    function getTVL() public view returns(uint256){\n        return totalFunds * getPrice();\n    }\n\n    function getMyTokensPrice() public view returns(uint256){\n        return getMyTokens() * getPrice();\n    }\n\n    function getMyTokens() public view returns(uint256){\n        return investors[msg.sender];\n    }\n\n}\n\n\ncontract CorrelationIndex is BaseIndex {\n\n    constructor(){\n        minimalFundAddition = 100;\n        name = \"Correlation Index\";\n        symbol = \"CI\";\n\n        priceConsumers = [\n            // BSC mainnet\n            // 0x0567F2323251f0Aab15c8dFb1967E4e8A7D42aeE,    // BNB\n            // 0x7CA57b0cA6367191c94C8914d7Df09A57655905f,    // MATIC\n            // 0x264990fbd0A4796A3E3d8E37C4d5F87a3aCa5Ebf,    // WBTC\n            // 0xca236E327F629f9Fc2c30A4E95775EbF0B89fac8,    // LINK\n            // 0xF4C5e535756D11994fCBB12Ba8adD0192D9b88be,    // TRX\n            // 0xb57f259E7C24e56a1dA00F66b55A5640d9f9E7e4,    // UNI\n\n            // ETH mainnet\n            0x5f4eC3Df9cbd43714FE2740f5E3616155c5b8419,    // ETH\n            0xF4030086522a5bEEa4988F8cA5B36dbC97BeE88c,    // BTC\n            0x2c1d072e956AFFC0D435Cb7AC38EF18d24d9127c    // LINK\n        ];\n\n        tokenContracts = [\n            // ETH mainnet\n            // 0xB8c77482e45F1F44dE1745F52C74426C631bDD52,     // BNB\n            // 0x7D1AfA7B718fb893dB30A3aBc0Cfc608AaCfeBB0,     // MATIC\n            // 0xE1Be5D3f34e89dE342Ee97E6e90D405884dA6c67,     // TRX\n            // 0x1f9840a85d5aF5bf1D1762F925BDADdC4201F984,     // UNI\n\n            0xC02aaA39b223FE8D0A0e5C4F27eAD9083C756Cc2,    // WETH\n            0x2260FAC5E5542a773Aa44fBCfeDf7C193bc2C599,     // WBTC\n            0x514910771AF9Ca656af840dff83E8264EcF986CA     // LINK\n        ];\n    }\n\n}\n",
  "sourcePath": "F:\\JavascriptProjects\\crypto-index\\contracts\\Index.sol",
  "compiler": {
    "name": "solc",
    "version": "0.8.7+commit.e28d00a7.Linux.g++"
  },
  "schemaVersion": "3.4.3",
  "updatedAt": "2022-03-07T10:05:49.244Z",
  "devdoc": {
    "kind": "dev",
    "methods": {
      "owner()": {
        "details": "Returns the address of the current owner."
      },
      "renounceOwnership()": {
        "details": "Leaves the contract without owner. It will not be possible to call `onlyOwner` functions anymore. Can only be called by the current owner. NOTE: Renouncing ownership will leave the contract without an owner, thereby removing any functionality that is only available to the owner."
      },
      "transferOwnership(address)": {
        "details": "Transfers ownership of the contract to a new account (`newOwner`). Can only be called by the current owner."
      }
    },
    "version": 1
  },
  "userdoc": {
    "kind": "user",
    "methods": {},
    "version": 1
  }
}