{
  "contractName": "DebtManager",
  "abi": [
    {
      "anonymous": false,
      "inputs": [
        {
          "indexed": false,
          "internalType": "address",
          "name": "account",
          "type": "address"
        },
        {
          "indexed": false,
          "internalType": "uint256",
          "name": "debtAmount",
          "type": "uint256"
        }
      ],
      "name": "DebtChanged",
      "type": "event"
    },
    {
      "inputs": [
        {
          "internalType": "address",
          "name": "account",
          "type": "address"
        }
      ],
      "name": "getUserDebt",
      "outputs": [
        {
          "internalType": "uint256",
          "name": "",
          "type": "uint256"
        }
      ],
      "stateMutability": "view",
      "type": "function"
    },
    {
      "inputs": [],
      "name": "getTotalDebt",
      "outputs": [
        {
          "internalType": "uint256",
          "name": "",
          "type": "uint256"
        }
      ],
      "stateMutability": "view",
      "type": "function"
    },
    {
      "inputs": [],
      "name": "getAllUsers",
      "outputs": [
        {
          "internalType": "address[]",
          "name": "",
          "type": "address[]"
        }
      ],
      "stateMutability": "view",
      "type": "function"
    },
    {
      "inputs": [
        {
          "internalType": "uint256",
          "name": "debtAmount",
          "type": "uint256"
        },
        {
          "internalType": "bool",
          "name": "isAddition",
          "type": "bool"
        }
      ],
      "name": "changeTotalDebt",
      "outputs": [],
      "stateMutability": "nonpayable",
      "type": "function"
    },
    {
      "inputs": [
        {
          "internalType": "address",
          "name": "account",
          "type": "address"
        },
        {
          "internalType": "uint256",
          "name": "debtAmount",
          "type": "uint256"
        },
        {
          "internalType": "bool",
          "name": "isAddition",
          "type": "bool"
        }
      ],
      "name": "changeDebt",
      "outputs": [],
      "stateMutability": "nonpayable",
      "type": "function"
    }
  ],
  "bytecode": "0x60806040526040516100109061007f565b604051809103906000f08015801561002c573d6000803e3d6000fd5b50600160006101000a81548173ffffffffffffffffffffffffffffffffffffffff021916908373ffffffffffffffffffffffffffffffffffffffff16021790555034801561007957600080fd5b5061008c565b6106928061071083390190565b6106758061009b6000396000f3fe608060405234801561001057600080fd5b50600436106100575760003560e01c806334ce998a1461005c578063cca5e4b11461007a578063e2842d79146100d4578063e65896c914610133578063f8c493d61461018b575b600080fd5b6100646101c5565b6040518082815260200191505060405180910390f35b6100d26004803603606081101561009057600080fd5b81019080803573ffffffffffffffffffffffffffffffffffffffff169060200190929190803590602001909291908035151590602001909291905050506101ce565b005b6100dc6102dd565b6040518080602001828103825283818151815260200191508051906020019060200280838360005b8381101561011f578082015181840152602081019050610104565b505050509050019250505060405180910390f35b6101756004803603602081101561014957600080fd5b81019080803573ffffffffffffffffffffffffffffffffffffffff169060200190929190505050610421565b6040518082815260200191505060405180910390f35b6101c3600480360360408110156101a157600080fd5b81019080803590602001909291908035151590602001909291905050506104ee565b005b60008054905090565b600160009054906101000a900473ffffffffffffffffffffffffffffffffffffffff1673ffffffffffffffffffffffffffffffffffffffff1663cca5e4b18484846040518463ffffffff1660e01b8152600401808473ffffffffffffffffffffffffffffffffffffffff16815260200183815260200182151581526020019350505050600060405180830381600087803b15801561026b57600080fd5b505af115801561027f573d6000803e3d6000fd5b505050507f206b7154b31a11c2b2e6152606cd086dfceae80d3b4e43cefa0f0b39ea0e1c638383604051808373ffffffffffffffffffffffffffffffffffffffff1681526020018281526020019250505060405180910390a1505050565b6060600160009054906101000a900473ffffffffffffffffffffffffffffffffffffffff1673ffffffffffffffffffffffffffffffffffffffff1663e2842d796040518163ffffffff1660e01b815260040160006040518083038186803b15801561034757600080fd5b505afa15801561035b573d6000803e3d6000fd5b505050506040513d6000823e3d601f19601f82011682018060405250602081101561038557600080fd5b81019080805160405193929190846401000000008211156103a557600080fd5b838201915060208201858111156103bb57600080fd5b82518660208202830111640100000000821117156103d857600080fd5b8083526020830192505050908051906020019060200280838360005b8381101561040f5780820151818401526020810190506103f4565b50505050905001604052505050905090565b6000600160009054906101000a900473ffffffffffffffffffffffffffffffffffffffff1673ffffffffffffffffffffffffffffffffffffffff1663e65896c9836040518263ffffffff1660e01b8152600401808273ffffffffffffffffffffffffffffffffffffffff16815260200191505060206040518083038186803b1580156104ac57600080fd5b505afa1580156104c0573d6000803e3d6000fd5b505050506040513d60208110156104d657600080fd5b81019080805190602001909291905050509050919050565b8015610514576105098260005461053490919063ffffffff16565b600081905550610530565b610529826000546105bc90919063ffffffff16565b6000819055505b5050565b6000808284019050838110156105b2576040517f08c379a000000000000000000000000000000000000000000000000000000000815260040180806020018281038252601b8152602001807f536166654d6174683a206164646974696f6e206f766572666c6f77000000000081525060200191505060405180910390fd5b8091505092915050565b600082821115610634576040517f08c379a000000000000000000000000000000000000000000000000000000000815260040180806020018281038252601e8152602001807f536166654d6174683a207375627472616374696f6e206f766572666c6f77000081525060200191505060405180910390fd5b81830390509291505056fea2646970667358221220b175b75cabd20a9ce180ef4c6f71d0a65c894b12c7a17f8ae8159a12b391254264736f6c63430007060033608060405234801561001057600080fd5b50610672806100206000396000f3fe608060405234801561001057600080fd5b50600436106100415760003560e01c8063cca5e4b114610046578063e2842d79146100a0578063e65896c9146100ff575b600080fd5b61009e6004803603606081101561005c57600080fd5b81019080803573ffffffffffffffffffffffffffffffffffffffff16906020019092919080359060200190929190803515159060200190929190505050610157565b005b6100a861034c565b6040518080602001828103825283818151815260200191508051906020019060200280838360005b838110156100eb5780820151818401526020810190506100d0565b505050509050019250505060405180910390f35b6101416004803603602081101561011557600080fd5b81019080803573ffffffffffffffffffffffffffffffffffffffff1690602001909291905050506103da565b6040518082815260200191505060405180910390f35b80156101f5576101ae826000808673ffffffffffffffffffffffffffffffffffffffff1673ffffffffffffffffffffffffffffffffffffffff1681526020019081526020016000205461042290919063ffffffff16565b6000808573ffffffffffffffffffffffffffffffffffffffff1673ffffffffffffffffffffffffffffffffffffffff16815260200190815260200160002081905550610289565b610246826000808673ffffffffffffffffffffffffffffffffffffffff1673ffffffffffffffffffffffffffffffffffffffff168152602001908152602001600020546104aa90919063ffffffff16565b6000808573ffffffffffffffffffffffffffffffffffffffff1673ffffffffffffffffffffffffffffffffffffffff168152602001908152602001600020819055505b6102928361052d565b60008060008573ffffffffffffffffffffffffffffffffffffffff1673ffffffffffffffffffffffffffffffffffffffff168152602001908152602001600020541015610347576040517f08c379a00000000000000000000000000000000000000000000000000000000081526004018080602001828103825260178152602001807f446562742063616e6e6f74206265206e6567617469766500000000000000000081525060200191505060405180910390fd5b505050565b606060028054806020026020016040519081016040528092919081815260200182805480156103d057602002820191906000526020600020905b8160009054906101000a900473ffffffffffffffffffffffffffffffffffffffff1673ffffffffffffffffffffffffffffffffffffffff1681526020019060010190808311610386575b5050505050905090565b60008060008373ffffffffffffffffffffffffffffffffffffffff1673ffffffffffffffffffffffffffffffffffffffff168152602001908152602001600020549050919050565b6000808284019050838110156104a0576040517f08c379a000000000000000000000000000000000000000000000000000000000815260040180806020018281038252601b8152602001807f536166654d6174683a206164646974696f6e206f766572666c6f77000000000081525060200191505060405180910390fd5b8091505092915050565b600082821115610522576040517f08c379a000000000000000000000000000000000000000000000000000000000815260040180806020018281038252601e8152602001807f536166654d6174683a207375627472616374696f6e206f766572666c6f77000081525060200191505060405180910390fd5b818303905092915050565b600160008273ffffffffffffffffffffffffffffffffffffffff1673ffffffffffffffffffffffffffffffffffffffff16815260200190815260200160002060009054906101000a900460ff166106395760018060008373ffffffffffffffffffffffffffffffffffffffff1673ffffffffffffffffffffffffffffffffffffffff16815260200190815260200160002060006101000a81548160ff0219169083151502179055506002819080600181540180825580915050600190039060005260206000200160009091909190916101000a81548173ffffffffffffffffffffffffffffffffffffffff021916908373ffffffffffffffffffffffffffffffffffffffff1602179055505b5056fea2646970667358221220f79b75dcb3bbf1bd65f99e6fb7a1ac8b8aab6ba30d0842d5343110101d3614a864736f6c63430007060033",
  "immutableReferences": {},
  "source": "// SPDX-License-Identifier: MIT\r\npragma solidity 0.7.6;\r\n\r\nimport \"@openzeppelin/contracts/math/SafeMath.sol\";\r\n\r\n\r\ncontract UserDebtData{\r\n    using SafeMath for uint256;\r\n\r\n    mapping(address => uint) private debtData;\r\n    mapping(address => bool) private userInSet;\r\n    address[] private users;\r\n\r\n    function addUser(address _addr) private {\r\n        if(!userInSet[_addr]){\r\n            userInSet[_addr] = true;\r\n            users.push(_addr);\r\n        }\r\n    }\r\n\r\n    function changeDebt(address account, uint debtAmount, bool isAddition) external {\r\n        if (isAddition) {\r\n            debtData[account] = debtData[account].add(debtAmount);\r\n        }else{\r\n            debtData[account] = debtData[account].sub(debtAmount);\r\n        }\r\n\r\n        addUser(account);\r\n        require(debtData[account] >= 0, \"Debt cannot be negative\");\r\n    }\r\n\r\n    function getUserDebt(address account) external view returns(uint) { return debtData[account]; }    \r\n    function getAllUsers() external view returns(address[] memory){ return users; }\r\n\r\n}\r\n\r\n\r\ncontract DebtManager{\r\n\r\n    using SafeMath for uint256;\r\n    uint private totalAvailableDebt;\r\n    UserDebtData private debtData = new UserDebtData();\r\n    event DebtChanged(address account, uint debtAmount);\r\n\r\n    function getUserDebt(address account) external view returns (uint) { return debtData.getUserDebt(account); }\r\n    function getTotalDebt() external view returns (uint) { return totalAvailableDebt; }\r\n    function getAllUsers() external view returns (address[] memory) { return debtData.getAllUsers(); }\r\n\r\n    function changeTotalDebt(uint debtAmount, bool isAddition) external {\r\n        if (isAddition) {\r\n            totalAvailableDebt = totalAvailableDebt.add(debtAmount);\r\n        }else{\r\n            totalAvailableDebt = totalAvailableDebt.sub(debtAmount);\r\n        }\r\n    }\r\n\r\n    function changeDebt(address account, uint debtAmount, bool isAddition) external {\r\n        debtData.changeDebt(account, debtAmount, isAddition);\r\n        emit DebtChanged(account, debtAmount);\r\n    }\r\n\r\n}\r\n",
  "sourcePath": "D:\\JavascriptProjects\\crypto-index\\contracts\\indices\\DebtManager.sol",
  "compiler": {
    "name": "solc",
    "version": "0.7.6+commit.7338295f.Emscripten.clang"
  },
  "schemaVersion": "3.4.6",
  "updatedAt": "2022-05-30T12:59:48.426Z",
  "devdoc": {
    "kind": "dev",
    "methods": {},
    "version": 1
  },
  "userdoc": {
    "kind": "user",
    "methods": {},
    "version": 1
  }
}