{
  "contractName": "DebtManager",
  "abi": [
    {
      "anonymous": false,
      "inputs": [
        {
          "indexed": false,
          "internalType": "uint256",
          "name": "totalDebt",
          "type": "uint256"
        },
        {
          "indexed": false,
          "internalType": "uint256",
          "name": "debtChange",
          "type": "uint256"
        },
        {
          "indexed": false,
          "internalType": "bool",
          "name": "isAddition",
          "type": "bool"
        }
      ],
      "name": "TotalDebtChanged",
      "type": "event"
    },
    {
      "anonymous": false,
      "inputs": [
        {
          "indexed": false,
          "internalType": "address",
          "name": "account",
          "type": "address"
        },
        {
          "indexed": false,
          "internalType": "uint256",
          "name": "debtAmount",
          "type": "uint256"
        }
      ],
      "name": "UserDebtChanged",
      "type": "event"
    },
    {
      "inputs": [
        {
          "internalType": "address",
          "name": "account",
          "type": "address"
        }
      ],
      "name": "getUserDebt",
      "outputs": [
        {
          "internalType": "uint256",
          "name": "",
          "type": "uint256"
        }
      ],
      "stateMutability": "view",
      "type": "function"
    },
    {
      "inputs": [],
      "name": "getTotalDebt",
      "outputs": [
        {
          "internalType": "uint256",
          "name": "",
          "type": "uint256"
        }
      ],
      "stateMutability": "view",
      "type": "function"
    },
    {
      "inputs": [],
      "name": "getAllUsers",
      "outputs": [
        {
          "internalType": "address[]",
          "name": "",
          "type": "address[]"
        }
      ],
      "stateMutability": "view",
      "type": "function"
    },
    {
      "inputs": [
        {
          "internalType": "uint256",
          "name": "debtAmount",
          "type": "uint256"
        },
        {
          "internalType": "bool",
          "name": "isAddition",
          "type": "bool"
        }
      ],
      "name": "changeTotalDebt",
      "outputs": [],
      "stateMutability": "nonpayable",
      "type": "function"
    },
    {
      "inputs": [
        {
          "internalType": "address",
          "name": "account",
          "type": "address"
        },
        {
          "internalType": "uint256",
          "name": "debtAmount",
          "type": "uint256"
        },
        {
          "internalType": "bool",
          "name": "isAddition",
          "type": "bool"
        }
      ],
      "name": "changeDebt",
      "outputs": [],
      "stateMutability": "nonpayable",
      "type": "function"
    }
  ],
  "bytecode": "0x60806040526040516100109061005f565b604051809103906000f08015801561002c573d6000803e3d6000fd5b50600180546001600160a01b0319166001600160a01b039290921691909117905534801561005957600080fd5b5061006c565b61045d8061068683390190565b61060b8061007b6000396000f3fe608060405234801561001057600080fd5b50600436106100675760003560e01c8063e2842d7911610050578063e2842d79146100c9578063e65896c914610121578063f8c493d61461015457610067565b806334ce998a1461006c578063cca5e4b114610086575b600080fd5b610074610179565b60408051918252519081900360200190f35b6100c76004803603606081101561009c57600080fd5b5073ffffffffffffffffffffffffffffffffffffffff8135169060208101359060400135151561017f565b005b6100d1610270565b60408051602080825283518183015283519192839290830191858101910280838360005b8381101561010d5781810151838201526020016100f5565b505050509050019250505060405180910390f35b6100746004803603602081101561013757600080fd5b503573ffffffffffffffffffffffffffffffffffffffff166103c7565b6100c76004803603604081101561016a57600080fd5b50803590602001351515610470565b60005490565b600154604080517fcca5e4b100000000000000000000000000000000000000000000000000000000815273ffffffffffffffffffffffffffffffffffffffff86811660048301526024820186905284151560448301529151919092169163cca5e4b191606480830192600092919082900301818387803b15801561020257600080fd5b505af1158015610216573d6000803e3d6000fd5b50506040805173ffffffffffffffffffffffffffffffffffffffff871681526020810186905281517fbdbcd24495abd6f63a1ff87418df04429000c6f9d53015ef4d5c91f353d827429450908190039091019150a1505050565b600154604080517fe2842d79000000000000000000000000000000000000000000000000000000008152905160609273ffffffffffffffffffffffffffffffffffffffff169163e2842d79916004808301926000929190829003018186803b1580156102db57600080fd5b505afa1580156102ef573d6000803e3d6000fd5b505050506040513d6000823e601f3d9081017fffffffffffffffffffffffffffffffffffffffffffffffffffffffffffffffe0168201604052602081101561033657600080fd5b810190808051604051939291908464010000000082111561035657600080fd5b90830190602082018581111561036b57600080fd5b825186602082028301116401000000008211171561038857600080fd5b82525081516020918201928201910280838360005b838110156103b557818101518382015260200161039d565b50505050905001604052505050905090565b600154604080517fe65896c900000000000000000000000000000000000000000000000000000000815273ffffffffffffffffffffffffffffffffffffffff84811660048301529151600093929092169163e65896c991602480820192602092909190829003018186803b15801561043e57600080fd5b505afa158015610452573d6000803e3d6000fd5b505050506040513d602081101561046857600080fd5b505192915050565b801561048b5760005461048390836104e3565b60005561049c565b600054610498908361055e565b6000555b600054604080519182526020820184905282151582820152517fe3a346931856fab43b7f9bcf4167ed53663e69d0195323a374d0f89a432d0f439181900360600190a15050565b60008282018381101561055757604080517f08c379a000000000000000000000000000000000000000000000000000000000815260206004820152601b60248201527f536166654d6174683a206164646974696f6e206f766572666c6f770000000000604482015290519081900360640190fd5b9392505050565b6000828211156105cf57604080517f08c379a000000000000000000000000000000000000000000000000000000000815260206004820152601e60248201527f536166654d6174683a207375627472616374696f6e206f766572666c6f770000604482015290519081900360640190fd5b5090039056fea2646970667358221220208857a3067afb5832338ff9a6b9dc3d23a3043010bc4cc771ef56da940cc28f64736f6c63430007060033608060405234801561001057600080fd5b5061043d806100206000396000f3fe608060405234801561001057600080fd5b50600436106100415760003560e01c8063cca5e4b114610046578063e2842d7914610089578063e65896c9146100e1575b600080fd5b6100876004803603606081101561005c57600080fd5b5073ffffffffffffffffffffffffffffffffffffffff81351690602081013590604001351515610126565b005b6100916101a7565b60408051602080825283518183015283519192839290830191858101910280838360005b838110156100cd5781810151838201526020016100b5565b505050509050019250505060405180910390f35b610114600480360360208110156100f757600080fd5b503573ffffffffffffffffffffffffffffffffffffffff16610216565b60408051918252519081900360200190f35b73ffffffffffffffffffffffffffffffffffffffff831660009081526020819052604090205481156101635761015c818461023e565b9050610170565b61016d81846102b9565b90505b73ffffffffffffffffffffffffffffffffffffffff841660009081526020819052604090208190556101a184610330565b50505050565b6060600280548060200260200160405190810160405280929190818152602001828054801561020c57602002820191906000526020600020905b815473ffffffffffffffffffffffffffffffffffffffff1681526001909101906020018083116101e1575b5050505050905090565b73ffffffffffffffffffffffffffffffffffffffff1660009081526020819052604090205490565b6000828201838110156102b257604080517f08c379a000000000000000000000000000000000000000000000000000000000815260206004820152601b60248201527f536166654d6174683a206164646974696f6e206f766572666c6f770000000000604482015290519081900360640190fd5b9392505050565b60008282111561032a57604080517f08c379a000000000000000000000000000000000000000000000000000000000815260206004820152601e60248201527f536166654d6174683a207375627472616374696f6e206f766572666c6f770000604482015290519081900360640190fd5b50900390565b73ffffffffffffffffffffffffffffffffffffffff811660009081526001602052604090205460ff166104045773ffffffffffffffffffffffffffffffffffffffff81166000818152600160208190526040822080547fffffffffffffffffffffffffffffffffffffffffffffffffffffffffffffff0016821790556002805491820181559091527f405787fa12a823e0f2b7631cc41b3ba8828b3321ca811111fa75cd3aa3bb5ace0180547fffffffffffffffffffffffff00000000000000000000000000000000000000001690911790555b5056fea2646970667358221220687dc2a43aa21187a93147969b0c6d21b545c3e3424529d1b183d503bc62c18864736f6c63430007060033",
  "immutableReferences": {},
  "source": "// SPDX-License-Identifier: MIT\r\npragma solidity 0.7.6;\r\n\r\nimport \"@openzeppelin/contracts/math/SafeMath.sol\";\r\n\r\n\r\ncontract UserDebtData{\r\n    using SafeMath for uint256;\r\n\r\n    mapping(address => uint) private debtData;\r\n    mapping(address => bool) private userInSet;\r\n    address[] private users;\r\n\r\n    function addUser(address _addr) private {\r\n        if(!userInSet[_addr]){\r\n            userInSet[_addr] = true;\r\n            users.push(_addr);\r\n        }\r\n    }\r\n\r\n    function changeDebt(address account, uint debtAmount, bool isAddition) external {\r\n        uint accountDebt = debtData[account];\r\n\r\n        if (isAddition) {\r\n            accountDebt = accountDebt.add(debtAmount);\r\n        }else{\r\n            accountDebt = accountDebt.sub(debtAmount);\r\n        }\r\n\r\n        debtData[account] = accountDebt;\r\n        addUser(account);\r\n    }\r\n\r\n    function getUserDebt(address account) external view returns(uint) { return debtData[account]; }    \r\n    function getAllUsers() external view returns(address[] memory){ return users; }\r\n\r\n}\r\n\r\n\r\ncontract DebtManager{\r\n    using SafeMath for uint256;\r\n\r\n    uint private totalAvailableDebt;\r\n    UserDebtData private debtData = new UserDebtData();\r\n\r\n    event UserDebtChanged(address account, uint debtAmount);\r\n    event TotalDebtChanged(uint totalDebt, uint debtChange, bool isAddition);\r\n\r\n    function getUserDebt(address account) external view returns (uint) { return debtData.getUserDebt(account); }\r\n    function getTotalDebt() external view returns (uint) { return totalAvailableDebt; }\r\n    function getAllUsers() external view returns (address[] memory) { return debtData.getAllUsers(); }\r\n\r\n    function changeTotalDebt(uint debtAmount, bool isAddition) external {\r\n        if (isAddition) {\r\n            totalAvailableDebt = totalAvailableDebt.add(debtAmount);\r\n        }else{\r\n            totalAvailableDebt = totalAvailableDebt.sub(debtAmount);\r\n        }\r\n\r\n        emit TotalDebtChanged(totalAvailableDebt, debtAmount, isAddition);\r\n    }\r\n\r\n    function changeDebt(address account, uint debtAmount, bool isAddition) external {\r\n        debtData.changeDebt(account, debtAmount, isAddition);\r\n        emit UserDebtChanged(account, debtAmount);\r\n    }\r\n\r\n}\r\n",
  "sourcePath": "D:\\JavascriptProjects\\crypto-index\\contracts\\indices\\DebtManager.sol",
  "compiler": {
    "name": "solc",
    "version": "0.7.6+commit.7338295f.Emscripten.clang"
  },
  "schemaVersion": "3.4.7",
  "updatedAt": "2022-06-09T06:37:58.025Z",
  "devdoc": {
    "kind": "dev",
    "methods": {},
    "version": 1
  },
  "userdoc": {
    "kind": "user",
    "methods": {},
    "version": 1
  }
}