{
  "contractName": "DexConnector",
  "abi": [
    {
      "inputs": [
        {
          "internalType": "address",
          "name": "_dexAddress",
          "type": "address"
        },
        {
          "internalType": "address",
          "name": "_indexAddress",
          "type": "address"
        }
      ],
      "stateMutability": "nonpayable",
      "type": "constructor"
    },
    {
      "inputs": [
        {
          "internalType": "address",
          "name": "token",
          "type": "address"
        },
        {
          "internalType": "address",
          "name": "_user",
          "type": "address"
        },
        {
          "internalType": "uint256",
          "name": "_amount",
          "type": "uint256"
        }
      ],
      "name": "transferUserTokens",
      "outputs": [],
      "stateMutability": "nonpayable",
      "type": "function"
    },
    {
      "inputs": [
        {
          "internalType": "address",
          "name": "fromToken",
          "type": "address"
        },
        {
          "internalType": "address",
          "name": "toToken",
          "type": "address"
        },
        {
          "internalType": "uint24",
          "name": "poolFee",
          "type": "uint24"
        },
        {
          "internalType": "uint256",
          "name": "buyAmount",
          "type": "uint256"
        },
        {
          "internalType": "uint256",
          "name": "amountOut",
          "type": "uint256"
        }
      ],
      "name": "swap",
      "outputs": [],
      "stateMutability": "nonpayable",
      "type": "function"
    }
  ],
  "bytecode": "0x60a060405234801561001057600080fd5b5060405161093c38038061093c833981810160405281019061003291906100c5565b8173ffffffffffffffffffffffffffffffffffffffff1660808173ffffffffffffffffffffffffffffffffffffffff1660601b81525050806000806101000a81548173ffffffffffffffffffffffffffffffffffffffff021916908373ffffffffffffffffffffffffffffffffffffffff160217905550505061014a565b6000815190506100bf81610133565b92915050565b600080604083850312156100d857600080fd5b60006100e6858286016100b0565b92505060206100f7858286016100b0565b9150509250929050565b600061010c82610113565b9050919050565b600073ffffffffffffffffffffffffffffffffffffffff82169050919050565b61013c81610101565b811461014757600080fd5b50565b60805160601c6107d061016c6000398061013752806102b752506107d06000f3fe608060405234801561001057600080fd5b50600436106100365760003560e01c80633bf237d51461003b578063af0cce8014610057575b600080fd5b61005560048036038101906100509190610457565b610073565b005b610071600480360381019061006c91906104ce565b6101e9565b005b61007b61034c565b6040518061010001604052808773ffffffffffffffffffffffffffffffffffffffff1681526020018673ffffffffffffffffffffffffffffffffffffffff1681526020018562ffffff16815260200160008054906101000a900473ffffffffffffffffffffffffffffffffffffffff1673ffffffffffffffffffffffffffffffffffffffff168152602001428152602001848152602001838152602001600073ffffffffffffffffffffffffffffffffffffffff1681525090507f000000000000000000000000000000000000000000000000000000000000000073ffffffffffffffffffffffffffffffffffffffff1663414bf389826040518263ffffffff1660e01b815260040161018e91906106cb565b602060405180830381600087803b1580156101a857600080fd5b505af11580156101bc573d6000803e3d6000fd5b505050506040513d601f19601f820116820180604052508101906101e09190610546565b50505050505050565b8273ffffffffffffffffffffffffffffffffffffffff166323b872dd8360008054906101000a900473ffffffffffffffffffffffffffffffffffffffff16846040518463ffffffff1660e01b81526004016102469392919061066b565b602060405180830381600087803b15801561026057600080fd5b505af1158015610274573d6000803e3d6000fd5b505050506040513d601f19601f82011682018060405250810190610298919061051d565b508273ffffffffffffffffffffffffffffffffffffffff1663095ea7b37f0000000000000000000000000000000000000000000000000000000000000000836040518363ffffffff1660e01b81526004016102f49291906106a2565b602060405180830381600087803b15801561030e57600080fd5b505af1158015610322573d6000803e3d6000fd5b505050506040513d601f19601f82011682018060405250810190610346919061051d565b50505050565b604051806101000160405280600073ffffffffffffffffffffffffffffffffffffffff168152602001600073ffffffffffffffffffffffffffffffffffffffff168152602001600062ffffff168152602001600073ffffffffffffffffffffffffffffffffffffffff168152602001600081526020016000815260200160008152602001600073ffffffffffffffffffffffffffffffffffffffff1681525090565b6000813590506103fd8161073e565b92915050565b60008151905061041281610755565b92915050565b6000813590506104278161076c565b92915050565b60008135905061043c81610783565b92915050565b60008151905061045181610783565b92915050565b600080600080600060a0868803121561046f57600080fd5b600061047d888289016103ee565b955050602061048e888289016103ee565b945050604061049f88828901610418565b93505060606104b08882890161042d565b92505060806104c18882890161042d565b9150509295509295909350565b6000806000606084860312156104e357600080fd5b60006104f1868287016103ee565b9350506020610502868287016103ee565b92505060406105138682870161042d565b9150509250925092565b60006020828403121561052f57600080fd5b600061053d84828501610403565b91505092915050565b60006020828403121561055857600080fd5b600061056684828501610442565b91505092915050565b610578816106e7565b82525050565b610587816106e7565b82525050565b610100820160008201516105a4600085018261056f565b5060208201516105b7602085018261056f565b5060408201516105ca604085018261063e565b5060608201516105dd606085018261056f565b5060808201516105f0608085018261064d565b5060a082015161060360a085018261064d565b5060c082015161061660c085018261064d565b5060e082015161062960e085018261062f565b50505050565b61063881610705565b82525050565b61064781610725565b82525050565b61065681610734565b82525050565b61066581610734565b82525050565b6000606082019050610680600083018661057e565b61068d602083018561057e565b61069a604083018461065c565b949350505050565b60006040820190506106b7600083018561057e565b6106c4602083018461065c565b9392505050565b6000610100820190506106e1600083018461058d565b92915050565b60006106f282610705565b9050919050565b60008115159050919050565b600073ffffffffffffffffffffffffffffffffffffffff82169050919050565b600062ffffff82169050919050565b6000819050919050565b610747816106e7565b811461075257600080fd5b50565b61075e816106f9565b811461076957600080fd5b50565b61077581610725565b811461078057600080fd5b50565b61078c81610734565b811461079757600080fd5b5056fea2646970667358221220b5b636e0d719022ec3ad9f2c8d4cfde50ccdaf23f5e16b2ba4cc4cae4e5a191564736f6c63430007050033",
  "immutableReferences": {
    "1596": [
      {
        "length": 32,
        "start": 311
      },
      {
        "length": 32,
        "start": 695
      }
    ]
  },
  "source": "// SPDX-License-Identifier: MIT\r\npragma solidity >=0.7.5;\r\npragma abicoder v2;\r\n\r\nimport '@uniswap/v3-periphery/contracts/libraries/TransferHelper.sol';\r\nimport '@uniswap/v3-periphery/contracts/interfaces/ISwapRouter.sol';\r\nimport '@uniswap/v3-periphery/contracts/interfaces/IPeripheryPayments.sol';\r\n\r\ncontract DexConnector {\r\n    ISwapRouter private immutable uniswapRouter;    // Uniswap router that we use to swap tokens\r\n    address private indexAddress;\r\n\r\n    constructor(address _dexAddress, address _indexAddress){\r\n        uniswapRouter = ISwapRouter(_dexAddress);\r\n        indexAddress = _indexAddress;\r\n    }\r\n\r\n    function transferUserTokens(address token, address _user, uint _amount) public {\r\n        // TransferHelper.safeTransferFrom(buyToken, msg.sender, address(this), amountIn);\r\n        // TransferHelper.safeApprove(buyToken, address(uniswapRouter), amountIn);\r\n        IERC20(token).transferFrom(_user, indexAddress, _amount);\r\n        IERC20(token).approve(address(uniswapRouter), _amount);\r\n    }\r\n\r\n    function swap(\r\n        address fromToken, address toToken, uint24 poolFee, uint buyAmount, uint amountOut\r\n    ) public{\r\n        ISwapRouter.ExactInputSingleParams memory params = ISwapRouter.ExactInputSingleParams({\r\n            tokenIn: fromToken,\r\n            tokenOut: toToken,\r\n            fee: poolFee,\r\n            recipient: indexAddress,\r\n            deadline: block.timestamp,\r\n            amountIn: buyAmount,\r\n            amountOutMinimum: amountOut,\r\n            sqrtPriceLimitX96: 0\r\n        });\r\n\r\n        uniswapRouter.exactInputSingle(params);\r\n    }\r\n}\r\n",
  "sourcePath": "F:\\JavascriptProjects\\crypto-index\\contracts\\DexConnector.sol",
  "compiler": {
    "name": "solc",
    "version": "0.7.5+commit.eb77ed08.Linux.g++"
  },
  "schemaVersion": "3.4.3",
  "updatedAt": "2022-03-15T19:05:28.562Z",
  "devdoc": {
    "kind": "dev",
    "methods": {},
    "version": 1
  },
  "userdoc": {
    "kind": "user",
    "methods": {},
    "version": 1
  }
}