{
  "contractName": "Index",
  "abi": [
    {
      "inputs": [],
      "stateMutability": "nonpayable",
      "type": "constructor"
    },
    {
      "anonymous": false,
      "inputs": [
        {
          "indexed": true,
          "internalType": "address",
          "name": "previousOwner",
          "type": "address"
        },
        {
          "indexed": true,
          "internalType": "address",
          "name": "newOwner",
          "type": "address"
        }
      ],
      "name": "OwnershipTransferred",
      "type": "event"
    },
    {
      "anonymous": false,
      "inputs": [
        {
          "indexed": false,
          "internalType": "address",
          "name": "account",
          "type": "address"
        },
        {
          "indexed": false,
          "internalType": "uint256",
          "name": "buyTokenAmount",
          "type": "uint256"
        },
        {
          "indexed": false,
          "internalType": "uint256",
          "name": "indexTokenAmount",
          "type": "uint256"
        }
      ],
      "name": "ProductBought",
      "type": "event"
    },
    {
      "anonymous": false,
      "inputs": [
        {
          "indexed": false,
          "internalType": "address",
          "name": "account",
          "type": "address"
        },
        {
          "indexed": false,
          "internalType": "uint256",
          "name": "buyTokenAmount",
          "type": "uint256"
        },
        {
          "indexed": false,
          "internalType": "uint256",
          "name": "indexTokenAmount",
          "type": "uint256"
        }
      ],
      "name": "ProductSold",
      "type": "event"
    },
    {
      "inputs": [],
      "name": "availableTokens",
      "outputs": [
        {
          "internalType": "uint256",
          "name": "",
          "type": "uint256"
        }
      ],
      "stateMutability": "view",
      "type": "function"
    },
    {
      "inputs": [],
      "name": "buyTokenAddress",
      "outputs": [
        {
          "internalType": "address",
          "name": "",
          "type": "address"
        }
      ],
      "stateMutability": "view",
      "type": "function"
    },
    {
      "inputs": [
        {
          "internalType": "uint256",
          "name": "amount",
          "type": "uint256"
        }
      ],
      "name": "calculateFee",
      "outputs": [
        {
          "internalType": "uint256",
          "name": "",
          "type": "uint256"
        },
        {
          "internalType": "uint256",
          "name": "",
          "type": "uint256"
        }
      ],
      "stateMutability": "view",
      "type": "function"
    },
    {
      "inputs": [
        {
          "internalType": "uint8",
          "name": "_fee",
          "type": "uint8"
        },
        {
          "internalType": "uint256",
          "name": "_feeTotal",
          "type": "uint256"
        }
      ],
      "name": "changeFee",
      "outputs": [],
      "stateMutability": "nonpayable",
      "type": "function"
    },
    {
      "inputs": [],
      "name": "getFee",
      "outputs": [
        {
          "internalType": "uint256",
          "name": "",
          "type": "uint256"
        },
        {
          "internalType": "uint256",
          "name": "",
          "type": "uint256"
        }
      ],
      "stateMutability": "view",
      "type": "function"
    },
    {
      "inputs": [],
      "name": "indexToken",
      "outputs": [
        {
          "internalType": "contract IndexToken",
          "name": "",
          "type": "address"
        }
      ],
      "stateMutability": "view",
      "type": "function"
    },
    {
      "inputs": [],
      "name": "isSettlementActive",
      "outputs": [
        {
          "internalType": "bool",
          "name": "",
          "type": "bool"
        }
      ],
      "stateMutability": "view",
      "type": "function"
    },
    {
      "inputs": [],
      "name": "maxTokens",
      "outputs": [
        {
          "internalType": "uint256",
          "name": "",
          "type": "uint256"
        }
      ],
      "stateMutability": "view",
      "type": "function"
    },
    {
      "inputs": [],
      "name": "owner",
      "outputs": [
        {
          "internalType": "address",
          "name": "",
          "type": "address"
        }
      ],
      "stateMutability": "view",
      "type": "function"
    },
    {
      "inputs": [],
      "name": "renounceOwnership",
      "outputs": [],
      "stateMutability": "nonpayable",
      "type": "function"
    },
    {
      "inputs": [],
      "name": "tokensToBuy",
      "outputs": [
        {
          "internalType": "uint256",
          "name": "",
          "type": "uint256"
        }
      ],
      "stateMutability": "view",
      "type": "function"
    },
    {
      "inputs": [],
      "name": "tokensToSell",
      "outputs": [
        {
          "internalType": "uint256",
          "name": "",
          "type": "uint256"
        }
      ],
      "stateMutability": "view",
      "type": "function"
    },
    {
      "inputs": [
        {
          "internalType": "address",
          "name": "newOwner",
          "type": "address"
        }
      ],
      "name": "transferOwnership",
      "outputs": [],
      "stateMutability": "nonpayable",
      "type": "function"
    },
    {
      "inputs": [],
      "name": "name",
      "outputs": [
        {
          "internalType": "string",
          "name": "",
          "type": "string"
        }
      ],
      "stateMutability": "pure",
      "type": "function"
    },
    {
      "inputs": [],
      "name": "symbol",
      "outputs": [
        {
          "internalType": "string",
          "name": "",
          "type": "string"
        }
      ],
      "stateMutability": "pure",
      "type": "function"
    },
    {
      "inputs": [],
      "name": "getComponents",
      "outputs": [
        {
          "components": [
            {
              "internalType": "uint8",
              "name": "indexPercentage",
              "type": "uint8"
            },
            {
              "internalType": "address",
              "name": "tokenAddress",
              "type": "address"
            },
            {
              "internalType": "uint24[2]",
              "name": "poolFees",
              "type": "uint24[2]"
            },
            {
              "internalType": "address",
              "name": "intermediateToken",
              "type": "address"
            }
          ],
          "internalType": "struct Index.TokenInfo[10]",
          "name": "",
          "type": "tuple[10]"
        }
      ],
      "stateMutability": "view",
      "type": "function"
    },
    {
      "inputs": [],
      "name": "shortDescription",
      "outputs": [
        {
          "internalType": "string",
          "name": "",
          "type": "string"
        }
      ],
      "stateMutability": "pure",
      "type": "function"
    },
    {
      "inputs": [],
      "name": "longDescription",
      "outputs": [
        {
          "internalType": "string",
          "name": "",
          "type": "string"
        }
      ],
      "stateMutability": "pure",
      "type": "function"
    },
    {
      "inputs": [
        {
          "components": [
            {
              "internalType": "uint8",
              "name": "indexPercentage",
              "type": "uint8"
            },
            {
              "internalType": "address",
              "name": "tokenAddress",
              "type": "address"
            },
            {
              "internalType": "uint24[2]",
              "name": "poolFees",
              "type": "uint24[2]"
            },
            {
              "internalType": "address",
              "name": "intermediateToken",
              "type": "address"
            }
          ],
          "internalType": "struct Index.TokenInfo",
          "name": "token",
          "type": "tuple"
        }
      ],
      "name": "getTokenPrice",
      "outputs": [
        {
          "internalType": "uint256",
          "name": "",
          "type": "uint256"
        }
      ],
      "stateMutability": "view",
      "type": "function"
    },
    {
      "inputs": [],
      "name": "image",
      "outputs": [
        {
          "internalType": "string",
          "name": "",
          "type": "string"
        }
      ],
      "stateMutability": "pure",
      "type": "function"
    },
    {
      "inputs": [],
      "name": "getTotalLockedValue",
      "outputs": [
        {
          "internalType": "uint256",
          "name": "",
          "type": "uint256"
        }
      ],
      "stateMutability": "view",
      "type": "function"
    },
    {
      "inputs": [],
      "name": "getAvailableLiquidity",
      "outputs": [
        {
          "internalType": "uint256",
          "name": "",
          "type": "uint256"
        }
      ],
      "stateMutability": "view",
      "type": "function"
    },
    {
      "inputs": [
        {
          "internalType": "uint256",
          "name": "amount",
          "type": "uint256"
        }
      ],
      "name": "buy",
      "outputs": [],
      "stateMutability": "nonpayable",
      "type": "function"
    },
    {
      "inputs": [
        {
          "internalType": "uint256",
          "name": "amount",
          "type": "uint256"
        }
      ],
      "name": "sell",
      "outputs": [],
      "stateMutability": "nonpayable",
      "type": "function"
    },
    {
      "inputs": [
        {
          "internalType": "uint256",
          "name": "amount",
          "type": "uint256"
        },
        {
          "internalType": "bool",
          "name": "isBuyDebt",
          "type": "bool"
        }
      ],
      "name": "retrieveDebt",
      "outputs": [],
      "stateMutability": "nonpayable",
      "type": "function"
    },
    {
      "inputs": [
        {
          "internalType": "bool",
          "name": "isBuy",
          "type": "bool"
        }
      ],
      "name": "getTotalDebt",
      "outputs": [
        {
          "internalType": "uint256",
          "name": "",
          "type": "uint256"
        }
      ],
      "stateMutability": "view",
      "type": "function"
    },
    {
      "inputs": [
        {
          "internalType": "address",
          "name": "user",
          "type": "address"
        },
        {
          "internalType": "bool",
          "name": "isBuy",
          "type": "bool"
        }
      ],
      "name": "getUserDebt",
      "outputs": [
        {
          "internalType": "uint256",
          "name": "",
          "type": "uint256"
        }
      ],
      "stateMutability": "view",
      "type": "function"
    },
    {
      "inputs": [],
      "name": "beginSettlement",
      "outputs": [],
      "stateMutability": "nonpayable",
      "type": "function"
    },
    {
      "inputs": [],
      "name": "endSettlement",
      "outputs": [],
      "stateMutability": "nonpayable",
      "type": "function"
    },
    {
      "inputs": [],
      "name": "manageTokens",
      "outputs": [],
      "stateMutability": "nonpayable",
      "type": "function"
    },
    {
      "inputs": [],
      "name": "getPrice",
      "outputs": [
        {
          "internalType": "uint256",
          "name": "",
          "type": "uint256"
        }
      ],
      "stateMutability": "view",
      "type": "function"
    }
  ],
  "bytecode": "0x6101406040526005600260006101000a81548160ff021916908360ff160217905550606460035573c02aaa39b223fe8d0a0e5c4f27ead9083c756cc273ffffffffffffffffffffffffffffffffffffffff1660a09073ffffffffffffffffffffffffffffffffffffffff1660601b81525073e592427a0aece92de3edee1f18e0157c0586156473ffffffffffffffffffffffffffffffffffffffff1660c09073ffffffffffffffffffffffffffffffffffffffff1660601b815250604051620000c89062001251565b604051809103906000f080158015620000e5573d6000803e3d6000fd5b5073ffffffffffffffffffffffffffffffffffffffff1660e09073ffffffffffffffffffffffffffffffffffffffff1660601b815250604051620001299062001251565b604051809103906000f08015801562000146573d6000803e3d6000fd5b5073ffffffffffffffffffffffffffffffffffffffff166101009073ffffffffffffffffffffffffffffffffffffffff1660601b8152506040516200018b906200125f565b604051809103906000f080158015620001a8573d6000803e3d6000fd5b5073ffffffffffffffffffffffffffffffffffffffff166101209073ffffffffffffffffffffffffffffffffffffffff1660601b81525060006023556000602455600060255560006026556000602755680ad78ebc5ac62000006028553480156200021257600080fd5b506000620002256200124960201b60201c565b9050806000806101000a81548173ffffffffffffffffffffffffffffffffffffffff021916908373ffffffffffffffffffffffffffffffffffffffff1602179055508073ffffffffffffffffffffffffffffffffffffffff16600073ffffffffffffffffffffffffffffffffffffffff167f8be0079c531659141344cd1fd0a4f28419497f9722a3daafe3b4186f6b6457e060405160405180910390a3506001808190555030604051620002d9906200126d565b620002e5919062001352565b604051809103906000f08015801562000302573d6000803e3d6000fd5b5073ffffffffffffffffffffffffffffffffffffffff1660808173ffffffffffffffffffffffffffffffffffffffff1660601b815250506040518060800160405280601960ff16815260200173c02aaa39b223fe8d0a0e5c4f27ead9083c756cc273ffffffffffffffffffffffffffffffffffffffff1681526020016040518060400160405280610bb862ffffff1662ffffff168152602001610bb862ffffff1662ffffff168152508152602001600073ffffffffffffffffffffffffffffffffffffffff1681525060056000600a8110620003da57fe5b6003020160008201518160000160006101000a81548160ff021916908360ff16021790555060208201518160000160016101000a81548173ffffffffffffffffffffffffffffffffffffffff021916908373ffffffffffffffffffffffffffffffffffffffff1602179055506040820151816001019060026200045f9291906200127b565b5060608201518160020160006101000a81548173ffffffffffffffffffffffffffffffffffffffff021916908373ffffffffffffffffffffffffffffffffffffffff1602179055509050506040518060800160405280600f60ff16815260200173514910771af9ca656af840dff83e8264ecf986ca73ffffffffffffffffffffffffffffffffffffffff1681526020016040518060400160405280610bb862ffffff1662ffffff168152602001610bb862ffffff1662ffffff16815250815260200173c02aaa39b223fe8d0a0e5c4f27ead9083c756cc273ffffffffffffffffffffffffffffffffffffffff1681525060056001600a81106200055e57fe5b6003020160008201518160000160006101000a81548160ff021916908360ff16021790555060208201518160000160016101000a81548173ffffffffffffffffffffffffffffffffffffffff021916908373ffffffffffffffffffffffffffffffffffffffff160217905550604082015181600101906002620005e39291906200127b565b5060608201518160020160006101000a81548173ffffffffffffffffffffffffffffffffffffffff021916908373ffffffffffffffffffffffffffffffffffffffff1602179055509050506040518060800160405280601460ff168152602001731f9840a85d5af5bf1d1762f925bdaddc4201f98473ffffffffffffffffffffffffffffffffffffffff1681526020016040518060400160405280610bb862ffffff1662ffffff168152602001610bb862ffffff1662ffffff16815250815260200173c02aaa39b223fe8d0a0e5c4f27ead9083c756cc273ffffffffffffffffffffffffffffffffffffffff1681525060056002600a8110620006e257fe5b6003020160008201518160000160006101000a81548160ff021916908360ff16021790555060208201518160000160016101000a81548173ffffffffffffffffffffffffffffffffffffffff021916908373ffffffffffffffffffffffffffffffffffffffff160217905550604082015181600101906002620007679291906200127b565b5060608201518160020160006101000a81548173ffffffffffffffffffffffffffffffffffffffff021916908373ffffffffffffffffffffffffffffffffffffffff1602179055509050506040518060800160405280600a60ff16815260200173111111111117dc0aa78b770fa6a738034120c30273ffffffffffffffffffffffffffffffffffffffff1681526020016040518060400160405280610bb862ffffff1662ffffff16815260200161271062ffffff16815250815260200173c02aaa39b223fe8d0a0e5c4f27ead9083c756cc273ffffffffffffffffffffffffffffffffffffffff1681525060056003600a81106200086157fe5b6003020160008201518160000160006101000a81548160ff021916908360ff16021790555060208201518160000160016101000a81548173ffffffffffffffffffffffffffffffffffffffff021916908373ffffffffffffffffffffffffffffffffffffffff160217905550604082015181600101906002620008e69291906200127b565b5060608201518160020160006101000a81548173ffffffffffffffffffffffffffffffffffffffff021916908373ffffffffffffffffffffffffffffffffffffffff1602179055509050506040518060800160405280600560ff16815260200173c011a73ee8576fb46f5e1c5751ca3b9fe0af2a6f73ffffffffffffffffffffffffffffffffffffffff1681526020016040518060400160405280610bb862ffffff1662ffffff16815260200161271062ffffff16815250815260200173c02aaa39b223fe8d0a0e5c4f27ead9083c756cc273ffffffffffffffffffffffffffffffffffffffff1681525060056004600a8110620009e057fe5b6003020160008201518160000160006101000a81548160ff021916908360ff16021790555060208201518160000160016101000a81548173ffffffffffffffffffffffffffffffffffffffff021916908373ffffffffffffffffffffffffffffffffffffffff16021790555060408201518160010190600262000a659291906200127b565b5060608201518160020160006101000a81548173ffffffffffffffffffffffffffffffffffffffff021916908373ffffffffffffffffffffffffffffffffffffffff1602179055509050506040518060800160405280600560ff16815260200173c00e94cb662c3520282e6f5717214004a7f2688873ffffffffffffffffffffffffffffffffffffffff1681526020016040518060400160405280610bb862ffffff1662ffffff168152602001610bb862ffffff1662ffffff16815250815260200173c02aaa39b223fe8d0a0e5c4f27ead9083c756cc273ffffffffffffffffffffffffffffffffffffffff16815250600580600a811062000b6357fe5b6003020160008201518160000160006101000a81548160ff021916908360ff16021790555060208201518160000160016101000a81548173ffffffffffffffffffffffffffffffffffffffff021916908373ffffffffffffffffffffffffffffffffffffffff16021790555060408201518160010190600262000be89291906200127b565b5060608201518160020160006101000a81548173ffffffffffffffffffffffffffffffffffffffff021916908373ffffffffffffffffffffffffffffffffffffffff1602179055509050506040518060800160405280600360ff168152602001739f8f72aa9304c8b593d555f12ef6589cc3a579a273ffffffffffffffffffffffffffffffffffffffff1681526020016040518060400160405280610bb862ffffff1662ffffff168152602001610bb862ffffff1662ffffff16815250815260200173c02aaa39b223fe8d0a0e5c4f27ead9083c756cc273ffffffffffffffffffffffffffffffffffffffff1681525060056006600a811062000ce757fe5b6003020160008201518160000160006101000a81548160ff021916908360ff16021790555060208201518160000160016101000a81548173ffffffffffffffffffffffffffffffffffffffff021916908373ffffffffffffffffffffffffffffffffffffffff16021790555060408201518160010190600262000d6c9291906200127b565b5060608201518160020160006101000a81548173ffffffffffffffffffffffffffffffffffffffff021916908373ffffffffffffffffffffffffffffffffffffffff1602179055509050506040518060800160405280600760ff168152602001734d224452801aced8b2f0aebe155379bb5d59438173ffffffffffffffffffffffffffffffffffffffff1681526020016040518060400160405280610bb862ffffff1662ffffff168152602001610bb862ffffff1662ffffff16815250815260200173c02aaa39b223fe8d0a0e5c4f27ead9083c756cc273ffffffffffffffffffffffffffffffffffffffff1681525060056007600a811062000e6b57fe5b6003020160008201518160000160006101000a81548160ff021916908360ff16021790555060208201518160000160016101000a81548173ffffffffffffffffffffffffffffffffffffffff021916908373ffffffffffffffffffffffffffffffffffffffff16021790555060408201518160010190600262000ef09291906200127b565b5060608201518160020160006101000a81548173ffffffffffffffffffffffffffffffffffffffff021916908373ffffffffffffffffffffffffffffffffffffffff1602179055509050506040518060800160405280600560ff168152602001737fc66500c84a76ad7e9c93437bfc5ac33e2ddae973ffffffffffffffffffffffffffffffffffffffff1681526020016040518060400160405280610bb862ffffff1662ffffff168152602001610bb862ffffff1662ffffff16815250815260200173c02aaa39b223fe8d0a0e5c4f27ead9083c756cc273ffffffffffffffffffffffffffffffffffffffff1681525060056008600a811062000fef57fe5b6003020160008201518160000160006101000a81548160ff021916908360ff16021790555060208201518160000160016101000a81548173ffffffffffffffffffffffffffffffffffffffff021916908373ffffffffffffffffffffffffffffffffffffffff160217905550604082015181600101906002620010749291906200127b565b5060608201518160020160006101000a81548173ffffffffffffffffffffffffffffffffffffffff021916908373ffffffffffffffffffffffffffffffffffffffff1602179055509050506040518060800160405280600560ff168152602001737d1afa7b718fb893db30a3abc0cfc608aacfebb073ffffffffffffffffffffffffffffffffffffffff1681526020016040518060400160405280610bb862ffffff1662ffffff168152602001610bb862ffffff1662ffffff16815250815260200173c02aaa39b223fe8d0a0e5c4f27ead9083c756cc273ffffffffffffffffffffffffffffffffffffffff1681525060056009600a81106200117357fe5b6003020160008201518160000160006101000a81548160ff021916908360ff16021790555060208201518160000160016101000a81548173ffffffffffffffffffffffffffffffffffffffff021916908373ffffffffffffffffffffffffffffffffffffffff160217905550604082015181600101906002620011f89291906200127b565b5060608201518160020160006101000a81548173ffffffffffffffffffffffffffffffffffffffff021916908373ffffffffffffffffffffffffffffffffffffffff160217905550905050620013a3565b600033905090565b610cc38062005d9583390190565b6119aa8062006a5883390190565b610f4f806200840283390190565b826002600901600a900481019282156200130f5791602002820160005b83821115620012dc57835183826101000a81548162ffffff021916908362ffffff160217905550926020019260030160208160020104928301926001030262001298565b80156200130d5782816101000a81549062ffffff0219169055600301602081600201049283019260010302620012dc565b505b5090506200131e919062001322565b5090565b5b808211156200133d57600081600090555060010162001323565b5090565b6200134c816200136f565b82525050565b600060208201905062001369600083018462001341565b92915050565b60006200137c8262001383565b9050919050565b600073ffffffffffffffffffffffffffffffffffffffff82169050919050565b60805160601c60a05160601c60c05160601c60e05160601c6101005160601c6101205160601c61495562001440600039806111dc52806119365250806107fe52806109a252806117bc528061245452806125b55250806107d8528061097c5280611bad5280611c69528061242e528061267852508061205d52806123e9528061326852505080610b3b5280611d2f5280611db952506149556000f3fe608060405234801561001057600080fd5b50600436106101755760003560e01c806306fdde031461017a57806313a7e54e146101985780631da98960146101b45780633d956691146101d257806360ebbf81146101f057806369bb4dc21461020e578063715018a61461022c5780637805d4be14610236578063782fa9c9146102665780638da5cb5b146102825780638e96347b146102a057806395d89b41146102be57806398d5fdca146102dc57806399a5d747146102fa57806399d50d5d1461032b5780639b745aec14610349578063b759791414610367578063ba25d94414610385578063c20120b5146103a3578063ced72f87146103c1578063d96a094a146103e0578063e43e3803146103fc578063e4849b321461042c578063e7d015f214610448578063e831574214610466578063ea4c1b4514610484578063f2fde38b1461048e578063f3ccaac0146104aa578063f510d908146104c8578063f76f691c146104d2578063fa2dcd9314610502575b600080fd5b61018261050c565b60405161018f919061435e565b60405180910390f35b6101b260048036038101906101ad9190613afb565b610549565b005b6101bc61061e565b6040516101c9919061435e565b60405180910390f35b6101da61063e565b6040516101e7919061449c565b60405180910390f35b6101f8610644565b60405161020591906141ec565b60405180910390f35b61021661065c565b604051610223919061449c565b60405180910390f35b610234610662565b005b610250600480360381019061024b9190613a1b565b6107cf565b60405161025d919061449c565b60405180910390f35b610280600480360381019061027b9190613abf565b6108a2565b005b61028a610c53565b60405161029791906141ec565b60405180910390f35b6102a8610c7c565b6040516102b5919061449c565b60405180910390f35b6102c6610c82565b6040516102d3919061435e565b60405180910390f35b6102e4610cbf565b6040516102f1919061449c565b60405180910390f35b610314600480360381019061030f9190613a6d565b610e89565b6040516103229291906144e0565b60405180910390f35b610333610ee7565b604051610340919061430c565b60405180910390f35b610351611071565b60405161035e919061449c565b60405180910390f35b61036f61130c565b60405161037c919061449c565b60405180910390f35b61038d611564565b60405161039a919061435e565b60405180910390f35b6103ab611584565b6040516103b89190614328565b60405180910390f35b6103c961159b565b6040516103d79291906144e0565b60405180910390f35b6103fa60048036038101906103f59190613a6d565b6115bf565b005b61041660048036038101906104119190613a44565b611932565b604051610423919061449c565b60405180910390f35b61044660048036038101906104419190613a6d565b611a0a565b005b610450611db7565b60405161045d9190614343565b60405180910390f35b61046e611ddb565b60405161047b919061449c565b60405180910390f35b61048c611de8565b005b6104a860048036038101906104a391906139b6565b6120b4565b005b6104b26122a6565b6040516104bf919061435e565b60405180910390f35b6104d06122c6565b005b6104ec60048036038101906104e791906139df565b612425565b6040516104f9919061449c565b60405180910390f35b61050a612504565b005b60606040518060400160405280600581526020017f496e646578000000000000000000000000000000000000000000000000000000815250905090565b61055161279b565b73ffffffffffffffffffffffffffffffffffffffff1661056f610c53565b73ffffffffffffffffffffffffffffffffffffffff16146105f8576040517f08c379a00000000000000000000000000000000000000000000000000000000081526004018080602001828103825260208152602001807f4f776e61626c653a2063616c6c6572206973206e6f7420746865206f776e657281525060200191505060405180910390fd5b81600260006101000a81548160ff021916908360ff160217905550806003819055505050565b60606040518060600160405280602681526020016148b160269139905090565b60245481565b736b175474e89094c44da98b954eedeac495271d0f81565b60285481565b61066a61279b565b73ffffffffffffffffffffffffffffffffffffffff16610688610c53565b73ffffffffffffffffffffffffffffffffffffffff1614610711576040517f08c379a00000000000000000000000000000000000000000000000000000000081526004018080602001828103825260208152602001807f4f776e61626c653a2063616c6c6572206973206e6f7420746865206f776e657281525060200191505060405180910390fd5b600073ffffffffffffffffffffffffffffffffffffffff1660008054906101000a900473ffffffffffffffffffffffffffffffffffffffff1673ffffffffffffffffffffffffffffffffffffffff167f8be0079c531659141344cd1fd0a4f28419497f9722a3daafe3b4186f6b6457e060405160405180910390a360008060006101000a81548173ffffffffffffffffffffffffffffffffffffffff021916908373ffffffffffffffffffffffffffffffffffffffff160217905550565b6000816107fc577f000000000000000000000000000000000000000000000000000000000000000061081e565b7f00000000000000000000000000000000000000000000000000000000000000005b73ffffffffffffffffffffffffffffffffffffffff166334ce998a6040518163ffffffff1660e01b815260040160206040518083038186803b15801561086357600080fd5b505afa158015610877573d6000803e3d6000fd5b505050506040513d601f19601f8201168201806040525081019061089b9190613a96565b9050919050565b6002600154141561091b576040517f08c379a000000000000000000000000000000000000000000000000000000000815260040180806020018281038252601f8152602001807f5265656e7472616e637947756172643a207265656e7472616e742063616c6c0081525060200191505060405180910390fd5b6002600181905550600460009054906101000a900460ff1615610973576040517f08c379a000000000000000000000000000000000000000000000000000000000815260040161096a906143c0565b60405180910390fd5b6000816109a0577f00000000000000000000000000000000000000000000000000000000000000006109c2565b7f00000000000000000000000000000000000000000000000000000000000000005b9050828173ffffffffffffffffffffffffffffffffffffffff166334ce998a6040518163ffffffff1660e01b815260040160206040518083038186803b158015610a0b57600080fd5b505afa158015610a1f573d6000803e3d6000fd5b505050506040513d601f19601f82011682018060405250810190610a439190613a96565b10158015610ad95750828173ffffffffffffffffffffffffffffffffffffffff1663e65896c9336040518263ffffffff1660e01b8152600401610a869190614207565b60206040518083038186803b158015610a9e57600080fd5b505afa158015610ab2573d6000803e3d6000fd5b505050506040513d601f19601f82011682018060405250810190610ad69190613a96565b10155b610b18576040517f08c379a0000000000000000000000000000000000000000000000000000000008152600401610b0f906143a0565b60405180910390fd5b600082610b3957736b175474e89094c44da98b954eedeac495271d0f610b5b565b7f00000000000000000000000000000000000000000000000000000000000000005b9050610b688133866127a3565b8173ffffffffffffffffffffffffffffffffffffffff1663cca5e4b1338660006040518463ffffffff1660e01b8152600401610ba693929190614222565b600060405180830381600087803b158015610bc057600080fd5b505af1158015610bd4573d6000803e3d6000fd5b505050508173ffffffffffffffffffffffffffffffffffffffff1663f8c493d68560006040518363ffffffff1660e01b8152600401610c149291906144b7565b600060405180830381600087803b158015610c2e57600080fd5b505af1158015610c42573d6000803e3d6000fd5b505050505050600180819055505050565b60008060009054906101000a900473ffffffffffffffffffffffffffffffffffffffff16905090565b60255481565b60606040518060400160405280600381526020017f5649440000000000000000000000000000000000000000000000000000000000815250905090565b6000806000905060005b600a811015610e81576000600582600a8110610ce157fe5b600302016040518060800160405290816000820160009054906101000a900460ff1660ff1660ff1681526020016000820160019054906101000a900473ffffffffffffffffffffffffffffffffffffffff1673ffffffffffffffffffffffffffffffffffffffff1673ffffffffffffffffffffffffffffffffffffffff16815260200160018201600280602002604051908101604052809291908260028015610dc9576020028201916000905b82829054906101000a900462ffffff1662ffffff1681526020019060030190602082600201049283019260010382029150808411610d8e5790505b505050505081526020016002820160009054906101000a900473ffffffffffffffffffffffffffffffffffffffff1673ffffffffffffffffffffffffffffffffffffffff1673ffffffffffffffffffffffffffffffffffffffff16815250509050610e71610e626064610e54846000015160ff16610e4686611932565b6129a490919063ffffffff16565b612a2a90919063ffffffff16565b84612ab390919063ffffffff16565b9250508080600101915050610cc9565b508091505090565b6000806000610ec7600260009054906101000a900460ff1660ff16610eb960035487612a2a90919063ffffffff16565b6129a490919063ffffffff16565b905080610edd8286612b3b90919063ffffffff16565b9250925050915091565b610eef61378d565b6005600a80602002604051908101604052809291906000905b82821015611068578382600302016040518060800160405290816000820160009054906101000a900460ff1660ff1660ff1681526020016000820160019054906101000a900473ffffffffffffffffffffffffffffffffffffffff1673ffffffffffffffffffffffffffffffffffffffff1673ffffffffffffffffffffffffffffffffffffffff16815260200160018201600280602002604051908101604052809291908260028015610ffa576020028201916000905b82829054906101000a900462ffffff1662ffffff1681526020019060030190602082600201049283019260010382029150808411610fbf5790505b505050505081526020016002820160009054906101000a900473ffffffffffffffffffffffffffffffffffffffff1673ffffffffffffffffffffffffffffffffffffffff1673ffffffffffffffffffffffffffffffffffffffff168152505081526020019060010190610f08565b50505050905090565b60008060005b600a8110156112d1576000600582600a811061108f57fe5b600302016040518060800160405290816000820160009054906101000a900460ff1660ff1660ff1681526020016000820160019054906101000a900473ffffffffffffffffffffffffffffffffffffffff1673ffffffffffffffffffffffffffffffffffffffff1673ffffffffffffffffffffffffffffffffffffffff16815260200160018201600280602002604051908101604052809291908260028015611177576020028201916000905b82829054906101000a900462ffffff1662ffffff168152602001906003019060208260020104928301926001038202915080841161113c5790505b505050505081526020016002820160009054906101000a900473ffffffffffffffffffffffffffffffffffffffff1673ffffffffffffffffffffffffffffffffffffffff1673ffffffffffffffffffffffffffffffffffffffff1681525050905060007f000000000000000000000000000000000000000000000000000000000000000073ffffffffffffffffffffffffffffffffffffffff1663ad72a0a1736b175474e89094c44da98b954eedeac495271d0f8460200151856040015186606001516040518563ffffffff1660e01b81526004016112599493929190614290565b60206040518083038186803b15801561127157600080fd5b505afa158015611285573d6000803e3d6000fd5b505050506040513d601f19601f820116820180604052508101906112a99190613a96565b9050838110806112b95750600084145b156112c2578093505b50508080600101915050611077565b506113066112dd610cbf565b6112f8670de0b6b3a7640000846129a490919063ffffffff16565b612a2a90919063ffffffff16565b91505090565b60008060005b600a81101561155c576000600582600a811061132a57fe5b600302016040518060800160405290816000820160009054906101000a900460ff1660ff1660ff1681526020016000820160019054906101000a900473ffffffffffffffffffffffffffffffffffffffff1673ffffffffffffffffffffffffffffffffffffffff1673ffffffffffffffffffffffffffffffffffffffff16815260200160018201600280602002604051908101604052809291908260028015611412576020028201916000905b82829054906101000a900462ffffff1662ffffff16815260200190600301906020826002010492830192600103820291508084116113d75790505b505050505081526020016002820160009054906101000a900473ffffffffffffffffffffffffffffffffffffffff1673ffffffffffffffffffffffffffffffffffffffff1673ffffffffffffffffffffffffffffffffffffffff16815250509050600061151c61148183611932565b836020015173ffffffffffffffffffffffffffffffffffffffff166370a08231306040518263ffffffff1660e01b81526004016114be91906141ec565b60206040518083038186803b1580156114d657600080fd5b505afa1580156114ea573d6000803e3d6000fd5b505050506040513d601f19601f8201168201806040525081019061150e9190613a96565b6129a490919063ffffffff16565b905061154b61153c670de0b6b3a764000083612a2a90919063ffffffff16565b85612ab390919063ffffffff16565b935050508080600101915050611312565b508091505090565b60606040518060e0016040528060a581526020016147c560a59139905090565b6000600460009054906101000a900460ff16905090565b600080600260009054906101000a900460ff166003548160ff169150915091509091565b60026001541415611638576040517f08c379a000000000000000000000000000000000000000000000000000000000815260040180806020018281038252601f8152602001807f5265656e7472616e637947756172643a207265656e7472616e742063616c6c0081525060200191505060405180910390fd5b6002600181905550600460009054906101000a900460ff1615611690576040517f08c379a0000000000000000000000000000000000000000000000000000000008152600401611687906143c0565b60405180910390fd5b60008061169c83610e89565b915091506000811180156116b05750600082115b6116ef576040517f08c379a00000000000000000000000000000000000000000000000000000000081526004016116e690614380565b60405180910390fd5b826116f8611071565b1015801561170857506028548111155b611747576040517f08c379a000000000000000000000000000000000000000000000000000000000815260040161173e906143e0565b60405180910390fd5b61175c81602854612b3b90919063ffffffff16565b602881905550600061176c610cbf565b9050600061179d670de0b6b3a764000061178f84866129a490919063ffffffff16565b612a2a90919063ffffffff16565b90506117b481602554612ab390919063ffffffff16565b6025819055507f000000000000000000000000000000000000000000000000000000000000000073ffffffffffffffffffffffffffffffffffffffff1663cca5e4b1338560016040518463ffffffff1660e01b815260040161181893929190614222565b600060405180830381600087803b15801561183257600080fd5b505af1158015611846573d6000803e3d6000fd5b50505050611896736b175474e89094c44da98b954eedeac495271d0f3330611891670de0b6b3a7640000611883888c6129a490919063ffffffff16565b612a2a90919063ffffffff16565b612bbe565b6118e9736b175474e89094c44da98b954eedeac495271d0f306118b7610c53565b6118e4671bc16d674ec800006118d6888b6129a490919063ffffffff16565b612a2a90919063ffffffff16565b612bbe565b7fc032f62758cac23a902e648ab54b6825665b9bc19e7cd0a8ab915cbf3eea4fa033828560405161191c93929190614259565b60405180910390a1505050506001808190555050565b60007f000000000000000000000000000000000000000000000000000000000000000073ffffffffffffffffffffffffffffffffffffffff1663c5f0e3b4736b175474e89094c44da98b954eedeac495271d0f8460200151856040015186606001516040518563ffffffff1660e01b81526004016119b39493929190614290565b60206040518083038186803b1580156119cb57600080fd5b505afa1580156119df573d6000803e3d6000fd5b505050506040513d601f19601f82011682018060405250810190611a039190613a96565b9050919050565b60026001541415611a83576040517f08c379a000000000000000000000000000000000000000000000000000000000815260040180806020018281038252601f8152602001807f5265656e7472616e637947756172643a207265656e7472616e742063616c6c0081525060200191505060405180910390fd5b6002600181905550600460009054906101000a900460ff1615611adb576040517f08c379a0000000000000000000000000000000000000000000000000000000008152600401611ad2906143c0565b60405180910390fd5b600080611ae783610e89565b91509150600081118015611afb5750600082115b611b3a576040517f08c379a0000000000000000000000000000000000000000000000000000000008152600401611b3190614400565b60405180910390fd5b82611b43611071565b1015611b84576040517f08c379a0000000000000000000000000000000000000000000000000000000008152600401611b7b906143e0565b60405180910390fd5b6000611b8e610cbf565b9050611ba584602454612ab390919063ffffffff16565b6024819055507f000000000000000000000000000000000000000000000000000000000000000073ffffffffffffffffffffffffffffffffffffffff1663cca5e4b133611c15670de0b6b3a7640000611c0786886129a490919063ffffffff16565b612a2a90919063ffffffff16565b60016040518463ffffffff1660e01b8152600401611c3593929190614222565b600060405180830381600087803b158015611c4f57600080fd5b505af1158015611c63573d6000803e3d6000fd5b505050507f000000000000000000000000000000000000000000000000000000000000000073ffffffffffffffffffffffffffffffffffffffff1663cca5e4b1611cab610c53565b611cd8670de0b6b3a7640000611cca86896129a490919063ffffffff16565b612a2a90919063ffffffff16565b60016040518463ffffffff1660e01b8152600401611cf8939291906142d5565b600060405180830381600087803b158015611d1257600080fd5b505af1158015611d26573d6000803e3d6000fd5b50505050611d567f0000000000000000000000000000000000000000000000000000000000000000333087612bbe565b7fc779ed4173ee0a3293a6575326fb4fcb5c81023bbc481cf910100c0fbe836e3333611d92611d83610cbf565b856129a490919063ffffffff16565b84604051611da293929190614259565b60405180910390a15050506001808190555050565b7f000000000000000000000000000000000000000000000000000000000000000081565b680ad78ebc5ac620000081565b611df061279b565b73ffffffffffffffffffffffffffffffffffffffff16611e0e610c53565b73ffffffffffffffffffffffffffffffffffffffff1614611e97576040517f08c379a00000000000000000000000000000000000000000000000000000000081526004018080602001828103825260208152602001807f4f776e61626c653a2063616c6c6572206973206e6f7420746865206f776e657281525060200191505060405180910390fd5b60016023600082825401925050819055506001600a036023541115611ebf5760006023819055505b60006005602354600a8110611ed057fe5b600302016040518060800160405290816000820160009054906101000a900460ff1660ff1660ff1681526020016000820160019054906101000a900473ffffffffffffffffffffffffffffffffffffffff1673ffffffffffffffffffffffffffffffffffffffff1673ffffffffffffffffffffffffffffffffffffffff16815260200160018201600280602002604051908101604052809291908260028015611fb8576020028201916000905b82829054906101000a900462ffffff1662ffffff1681526020019060030190602082600201049283019260010382029150808411611f7d5790505b505050505081526020016002820160009054906101000a900473ffffffffffffffffffffffffffffffffffffffff1673ffffffffffffffffffffffffffffffffffffffff1673ffffffffffffffffffffffffffffffffffffffff16815250509050600061204a606461203c846000015160ff166025546129a490919063ffffffff16565b612a2a90919063ffffffff16565b9050600061205783611932565b905060007f0000000000000000000000000000000000000000000000000000000000000000905060008311156120945761209384828585612dde565b5b600060245411156120ae576120ad84826024548561316f565b5b50505050565b6120bc61279b565b73ffffffffffffffffffffffffffffffffffffffff166120da610c53565b73ffffffffffffffffffffffffffffffffffffffff1614612163576040517f08c379a00000000000000000000000000000000000000000000000000000000081526004018080602001828103825260208152602001807f4f776e61626c653a2063616c6c6572206973206e6f7420746865206f776e657281525060200191505060405180910390fd5b600073ffffffffffffffffffffffffffffffffffffffff168173ffffffffffffffffffffffffffffffffffffffff1614156121e9576040517f08c379a000000000000000000000000000000000000000000000000000000000815260040180806020018281038252602681526020018061486a6026913960400191505060405180910390fd5b8073ffffffffffffffffffffffffffffffffffffffff1660008054906101000a900473ffffffffffffffffffffffffffffffffffffffff1673ffffffffffffffffffffffffffffffffffffffff167f8be0079c531659141344cd1fd0a4f28419497f9722a3daafe3b4186f6b6457e060405160405180910390a3806000806101000a81548173ffffffffffffffffffffffffffffffffffffffff021916908373ffffffffffffffffffffffffffffffffffffffff16021790555050565b60606040518060800160405280604981526020016148d760499139905090565b6122ce61279b565b73ffffffffffffffffffffffffffffffffffffffff166122ec610c53565b73ffffffffffffffffffffffffffffffffffffffff1614612375576040517f08c379a00000000000000000000000000000000000000000000000000000000081526004018080602001828103825260208152602001807f4f776e61626c653a2063616c6c6572206973206e6f7420746865206f776e657281525060200191505060405180910390fd5b6001600460006101000a81548160ff02191690831515021790555060006123cd6003546123bf600260009054906101000a900460ff1660ff166025546129a490919063ffffffff16565b612a2a90919063ffffffff16565b9050612422736b175474e89094c44da98b954eedeac495271d0f7f000000000000000000000000000000000000000000000000000000000000000061241d84602554612ab390919063ffffffff16565b61358c565b50565b600081612452577f0000000000000000000000000000000000000000000000000000000000000000612474565b7f00000000000000000000000000000000000000000000000000000000000000005b73ffffffffffffffffffffffffffffffffffffffff1663e65896c9846040518263ffffffff1660e01b81526004016124ac91906141ec565b60206040518083038186803b1580156124c457600080fd5b505afa1580156124d8573d6000803e3d6000fd5b505050506040513d601f19601f820116820180604052508101906124fc9190613a96565b905092915050565b61250c61279b565b73ffffffffffffffffffffffffffffffffffffffff1661252a610c53565b73ffffffffffffffffffffffffffffffffffffffff16146125b3576040517f08c379a00000000000000000000000000000000000000000000000000000000081526004018080602001828103825260208152602001807f4f776e61626c653a2063616c6c6572206973206e6f7420746865206f776e657281525060200191505060405180910390fd5b7f000000000000000000000000000000000000000000000000000000000000000073ffffffffffffffffffffffffffffffffffffffff1663f8c493d66126256125fa610cbf565b612617670de0b6b3a76400006025546129a490919063ffffffff16565b612a2a90919063ffffffff16565b60016040518363ffffffff1660e01b81526004016126449291906144b7565b600060405180830381600087803b15801561265e57600080fd5b505af1158015612672573d6000803e3d6000fd5b505050507f000000000000000000000000000000000000000000000000000000000000000073ffffffffffffffffffffffffffffffffffffffff1663f8c493d660265460016040518363ffffffff1660e01b81526004016126d49291906144b7565b600060405180830381600087803b1580156126ee57600080fd5b505af1158015612702573d6000803e3d6000fd5b5050505060255460275410801561271c5750600060275414155b1561275e5761275d736b175474e89094c44da98b954eedeac495271d0f612741610c53565b612758602754602554612b3b90919063ffffffff16565b6127a3565b5b60006025819055506000602781905550600060248190555060006026819055506000600460006101000a81548160ff021916908315150217905550565b600033905090565b6000808473ffffffffffffffffffffffffffffffffffffffff1663a9059cbb60e01b8585604051602401808373ffffffffffffffffffffffffffffffffffffffff16815260200182815260200192505050604051602081830303815290604052907bffffffffffffffffffffffffffffffffffffffffffffffffffffffff19166020820180517bffffffffffffffffffffffffffffffffffffffffffffffffffffffff83818316178352505050506040518082805190602001908083835b602083106128845780518252602082019150602081019050602083039250612861565b6001836020036101000a0380198251168184511680821785525050505050509050019150506000604051808303816000865af19150503d80600081146128e6576040519150601f19603f3d011682016040523d82523d6000602084013e6128eb565b606091505b509150915081801561292b575060008151148061292a575080806020019051602081101561291857600080fd5b81019080805190602001909291905050505b5b61299d576040517f08c379a00000000000000000000000000000000000000000000000000000000081526004018080602001828103825260028152602001807f535400000000000000000000000000000000000000000000000000000000000081525060200191505060405180910390fd5b5050505050565b6000808314156129b75760009050612a24565b60008284029050828482816129c857fe5b0414612a1f576040517f08c379a00000000000000000000000000000000000000000000000000000000081526004018080602001828103825260218152602001806148906021913960400191505060405180910390fd5b809150505b92915050565b6000808211612aa1576040517f08c379a000000000000000000000000000000000000000000000000000000000815260040180806020018281038252601a8152602001807f536166654d6174683a206469766973696f6e206279207a65726f00000000000081525060200191505060405180910390fd5b818381612aaa57fe5b04905092915050565b600080828401905083811015612b31576040517f08c379a000000000000000000000000000000000000000000000000000000000815260040180806020018281038252601b8152602001807f536166654d6174683a206164646974696f6e206f766572666c6f77000000000081525060200191505060405180910390fd5b8091505092915050565b600082821115612bb3576040517f08c379a000000000000000000000000000000000000000000000000000000000815260040180806020018281038252601e8152602001807f536166654d6174683a207375627472616374696f6e206f766572666c6f77000081525060200191505060405180910390fd5b818303905092915050565b6000808573ffffffffffffffffffffffffffffffffffffffff166323b872dd60e01b868686604051602401808473ffffffffffffffffffffffffffffffffffffffff1681526020018373ffffffffffffffffffffffffffffffffffffffff1681526020018281526020019350505050604051602081830303815290604052907bffffffffffffffffffffffffffffffffffffffffffffffffffffffff19166020820180517bffffffffffffffffffffffffffffffffffffffffffffffffffffffff83818316178352505050506040518082805190602001908083835b60208310612cbd5780518252602082019150602081019050602083039250612c9a565b6001836020036101000a0380198251168184511680821785525050505050509050019150506000604051808303816000865af19150503d8060008114612d1f576040519150601f19603f3d011682016040523d82523d6000602084013e612d24565b606091505b5091509150818015612d645750600081511480612d635750808060200190516020811015612d5157600080fd5b81019080805190602001909291905050505b5b612dd6576040517f08c379a00000000000000000000000000000000000000000000000000000000081526004018080602001828103825260038152602001807f535446000000000000000000000000000000000000000000000000000000000081525060200191505060405180910390fd5b505050505050565b6000612e0d82612dff670de0b6b3a7640000866129a490919063ffffffff16565b612a2a90919063ffffffff16565b90506000612e6f612e60600354612e52600a612e44600260009054906101000a900460ff1660ff168a6129a490919063ffffffff16565b6129a490919063ffffffff16565b612a2a90919063ffffffff16565b85612ab390919063ffffffff16565b9050600073ffffffffffffffffffffffffffffffffffffffff16866060015173ffffffffffffffffffffffffffffffffffffffff1614156130185761300d8573ffffffffffffffffffffffffffffffffffffffff1663db3e2198604051806101000160405280736b175474e89094c44da98b954eedeac495271d0f73ffffffffffffffffffffffffffffffffffffffff1681526020018a6020015173ffffffffffffffffffffffffffffffffffffffff1681526020018a60400151600060028110612f3657fe5b602002015162ffffff1681526020013073ffffffffffffffffffffffffffffffffffffffff168152602001428152602001868152602001858152602001600073ffffffffffffffffffffffffffffffffffffffff168152506040518263ffffffff1660e01b8152600401612faa9190614480565b602060405180830381600087803b158015612fc457600080fd5b505af1158015612fd8573d6000803e3d6000fd5b505050506040513d601f19601f82011682018060405250810190612ffc9190613a96565b602754612ab390919063ffffffff16565b602781905550613167565b6131608573ffffffffffffffffffffffffffffffffffffffff1663f28c04986040518060a001604052808a602001518b6040015160016002811061305857fe5b60200201518c606001518d6040015160006002811061307357fe5b6020020151736b175474e89094c44da98b954eedeac495271d0f6040516020016130a195949392919061418d565b60405160208183030381529060405281526020013073ffffffffffffffffffffffffffffffffffffffff168152602001428152602001868152602001858152506040518263ffffffff1660e01b81526004016130fd919061445e565b602060405180830381600087803b15801561311757600080fd5b505af115801561312b573d6000803e3d6000fd5b505050506040513d601f19601f8201168201806040525081019061314f9190613a96565b602754612ab390919063ffffffff16565b6027819055505b505050505050565b60006131c9826131bb60646131ad896000015160ff1661319f613190610cbf565b8a6129a490919063ffffffff16565b6129a490919063ffffffff16565b612a2a90919063ffffffff16565b612a2a90919063ffffffff16565b905060006131fa670de0b6b3a76400006131ec85856129a490919063ffffffff16565b612a2a90919063ffffffff16565b9050600061325c61324d60035461323f600a613231600260009054906101000a900460ff1660ff16886129a490919063ffffffff16565b6129a490919063ffffffff16565b612a2a90919063ffffffff16565b83612b3b90919063ffffffff16565b905061328d87602001517f00000000000000000000000000000000000000000000000000000000000000008561358c565b600073ffffffffffffffffffffffffffffffffffffffff16876060015173ffffffffffffffffffffffffffffffffffffffff161415613434576134298673ffffffffffffffffffffffffffffffffffffffff1663414bf3896040518061010001604052808b6020015173ffffffffffffffffffffffffffffffffffffffff168152602001736b175474e89094c44da98b954eedeac495271d0f73ffffffffffffffffffffffffffffffffffffffff1681526020018b6040015160006002811061335257fe5b602002015162ffffff1681526020013073ffffffffffffffffffffffffffffffffffffffff168152602001428152602001878152602001858152602001600073ffffffffffffffffffffffffffffffffffffffff168152506040518263ffffffff1660e01b81526004016133c69190614442565b602060405180830381600087803b1580156133e057600080fd5b505af11580156133f4573d6000803e3d6000fd5b505050506040513d601f19601f820116820180604052508101906134189190613a96565b602654612ab390919063ffffffff16565b602681905550613583565b61357c8673ffffffffffffffffffffffffffffffffffffffff1663c04b8d596040518060a001604052808b602001518c6040015160016002811061347457fe5b60200201518d606001518e6040015160006002811061348f57fe5b6020020151736b175474e89094c44da98b954eedeac495271d0f6040516020016134bd95949392919061418d565b60405160208183030381529060405281526020013073ffffffffffffffffffffffffffffffffffffffff168152602001428152602001878152602001858152506040518263ffffffff1660e01b81526004016135199190614420565b602060405180830381600087803b15801561353357600080fd5b505af1158015613547573d6000803e3d6000fd5b505050506040513d601f19601f8201168201806040525081019061356b9190613a96565b602654612ab390919063ffffffff16565b6026819055505b50505050505050565b6000808473ffffffffffffffffffffffffffffffffffffffff1663095ea7b360e01b8585604051602401808373ffffffffffffffffffffffffffffffffffffffff16815260200182815260200192505050604051602081830303815290604052907bffffffffffffffffffffffffffffffffffffffffffffffffffffffff19166020820180517bffffffffffffffffffffffffffffffffffffffffffffffffffffffff83818316178352505050506040518082805190602001908083835b6020831061366d578051825260208201915060208101905060208303925061364a565b6001836020036101000a0380198251168184511680821785525050505050509050019150506000604051808303816000865af19150503d80600081146136cf576040519150601f19603f3d011682016040523d82523d6000602084013e6136d4565b606091505b50915091508180156137145750600081511480613713575080806020019051602081101561370157600080fd5b81019080805190602001909291905050505b5b613786576040517f08c379a00000000000000000000000000000000000000000000000000000000081526004018080602001828103825260028152602001807f534100000000000000000000000000000000000000000000000000000000000081525060200191505060405180910390fd5b5050505050565b604051806101400160405280600a905b6137a56137bb565b81526020019060019003908161379d5790505090565b6040518060800160405280600060ff168152602001600073ffffffffffffffffffffffffffffffffffffffff1681526020016137f5613818565b8152602001600073ffffffffffffffffffffffffffffffffffffffff1681525090565b6040518060400160405280600290602082028036833780820191505090505090565b600061384d6138488461453a565b614509565b9050808285602086028201111561386357600080fd5b60005b8581101561389357816138798882613962565b845260208401935060208301925050600181019050613866565b5050509392505050565b6000813590506138ac81614751565b92915050565b600082601f8301126138c357600080fd5b60026138d084828561383a565b91505092915050565b6000813590506138e881614768565b92915050565b600060a0828403121561390057600080fd5b61390a6080614509565b9050600061391a848285016139a1565b600083015250602061392e8482850161389d565b6020830152506040613942848285016138b2565b60408301525060806139568482850161389d565b60608301525092915050565b6000813590506139718161477f565b92915050565b60008135905061398681614796565b92915050565b60008151905061399b81614796565b92915050565b6000813590506139b0816147ad565b92915050565b6000602082840312156139c857600080fd5b60006139d68482850161389d565b91505092915050565b600080604083850312156139f257600080fd5b6000613a008582860161389d565b9250506020613a11858286016138d9565b9150509250929050565b600060208284031215613a2d57600080fd5b6000613a3b848285016138d9565b91505092915050565b600060a08284031215613a5657600080fd5b6000613a64848285016138ee565b91505092915050565b600060208284031215613a7f57600080fd5b6000613a8d84828501613977565b91505092915050565b600060208284031215613aa857600080fd5b6000613ab68482850161398c565b91505092915050565b60008060408385031215613ad257600080fd5b6000613ae085828601613977565b9250506020613af1858286016138d9565b9150509250929050565b60008060408385031215613b0e57600080fd5b6000613b1c858286016139a1565b9250506020613b2d85828601613977565b9150509250929050565b6000613b4383836140d6565b60a08301905092915050565b6000613b5b838361413a565b60208301905092915050565b613b7081614661565b82525050565b613b7f816145fd565b82525050565b613b8e816145fd565b82525050565b613ba5613ba0826145fd565b6146ee565b82525050565b613bb481614574565b613bbe81846145ba565b9250613bc982614560565b8060005b83811015613bfa578151613be18782613b37565b9650613bec836145a0565b925050600181019050613bcd565b505050505050565b613c0b8161457f565b613c1581846145c5565b9250613c208261456a565b8060005b83811015613c51578151613c388782613b4f565b9650613c43836145ad565b925050600181019050613c24565b505050505050565b613c628161457f565b613c6c81846145d0565b9250613c778261456a565b8060005b83811015613ca8578151613c8f8782613b4f565b9650613c9a836145ad565b925050600181019050613c7b565b505050505050565b613cb98161460f565b82525050565b6000613cca8261458a565b613cd481856145db565b9350613ce48185602086016146bb565b613ced81614726565b840191505092915050565b613d0181614673565b82525050565b6000613d1282614595565b613d1c81856145ec565b9350613d2c8185602086016146bb565b613d3581614726565b840191505092915050565b6000613d4d6016836145ec565b91507f4e6f7420656e6f75676820746f6b656e732073656e74000000000000000000006000830152602082019050919050565b6000613d8d600f836145ec565b91507f4e6f7420656e6f756768206465627400000000000000000000000000000000006000830152602082019050919050565b6000613dcd6029836145ec565b91507f50726f64756374206973206265696e6720736574746c65642c2074727920616760008301527f61696e206c6174657200000000000000000000000000000000000000000000006020830152604082019050919050565b6000613e336014836145ec565b91507f4e6f7420656e6f756768206c69717569646974790000000000000000000000006000830152602082019050919050565b6000613e736019836145ec565b91507f596f75206d7573742073656c6c206d6f726520746f6b656e73000000000000006000830152602082019050919050565b600060a0830160008301518482036000860152613ec38282613cbf565b9150506020830151613ed86020860182613b76565b506040830151613eeb6040860182614160565b506060830151613efe6060860182614160565b506080830151613f116080860182614160565b508091505092915050565b61010082016000820151613f336000850182613b76565b506020820151613f466020850182613b76565b506040820151613f59604085018261413a565b506060820151613f6c6060850182613b76565b506080820151613f7f6080850182614160565b5060a0820151613f9260a0850182614160565b5060c0820151613fa560c0850182614160565b5060e0820151613fb860e085018261412b565b50505050565b600060a0830160008301518482036000860152613fdb8282613cbf565b9150506020830151613ff06020860182613b76565b5060408301516140036040860182614160565b5060608301516140166060860182614160565b5060808301516140296080860182614160565b508091505092915050565b6101008201600082015161404b6000850182613b76565b50602082015161405e6020850182613b76565b506040820151614071604085018261413a565b5060608201516140846060850182613b76565b5060808201516140976080850182614160565b5060a08201516140aa60a0850182614160565b5060c08201516140bd60c0850182614160565b5060e08201516140d060e085018261412b565b50505050565b60a0820160008201516140ec600085018261417e565b5060208201516140ff6020850182613b76565b5060408201516141126040850182613c02565b5060608201516141256080850182613b76565b50505050565b6141348161461b565b82525050565b6141438161463b565b82525050565b61415a6141558261463b565b614712565b82525050565b6141698161464a565b82525050565b6141788161464a565b82525050565b61418781614654565b82525050565b60006141998288613b94565b6014820191506141a98287614149565b6003820191506141b98286613b94565b6014820191506141c98285614149565b6003820191506141d98284613b94565b6014820191508190509695505050505050565b60006020820190506142016000830184613b85565b92915050565b600060208201905061421c6000830184613b67565b92915050565b60006060820190506142376000830186613b67565b614244602083018561416f565b6142516040830184613cb0565b949350505050565b600060608201905061426e6000830186613b67565b61427b602083018561416f565b614288604083018461416f565b949350505050565b600060a0820190506142a56000830187613b85565b6142b26020830186613b85565b6142bf6040830185613c59565b6142cc6080830184613b85565b95945050505050565b60006060820190506142ea6000830186613b85565b6142f7602083018561416f565b6143046040830184613cb0565b949350505050565b6000610640820190506143226000830184613bab565b92915050565b600060208201905061433d6000830184613cb0565b92915050565b60006020820190506143586000830184613cf8565b92915050565b600060208201905081810360008301526143788184613d07565b905092915050565b6000602082019050818103600083015261439981613d40565b9050919050565b600060208201905081810360008301526143b981613d80565b9050919050565b600060208201905081810360008301526143d981613dc0565b9050919050565b600060208201905081810360008301526143f981613e26565b9050919050565b6000602082019050818103600083015261441981613e66565b9050919050565b6000602082019050818103600083015261443a8184613ea6565b905092915050565b6000610100820190506144586000830184613f1c565b92915050565b600060208201905081810360008301526144788184613fbe565b905092915050565b6000610100820190506144966000830184614034565b92915050565b60006020820190506144b1600083018461416f565b92915050565b60006040820190506144cc600083018561416f565b6144d96020830184613cb0565b9392505050565b60006040820190506144f5600083018561416f565b614502602083018461416f565b9392505050565b6000604051905081810181811067ffffffffffffffff821117156145305761452f614724565b5b8060405250919050565b600067ffffffffffffffff82111561455557614554614724565b5b602082029050919050565b6000819050919050565b6000819050919050565b6000600a9050919050565b600060029050919050565b600081519050919050565b600081519050919050565b6000602082019050919050565b6000602082019050919050565b600081905092915050565b600081905092915050565b600081905092915050565b600082825260208201905092915050565b600082825260208201905092915050565b60006146088261461b565b9050919050565b60008115159050919050565b600073ffffffffffffffffffffffffffffffffffffffff82169050919050565b600062ffffff82169050919050565b6000819050919050565b600060ff82169050919050565b600061466c82614697565b9050919050565b600061467e82614685565b9050919050565b60006146908261461b565b9050919050565b60006146a2826146a9565b9050919050565b60006146b48261461b565b9050919050565b60005b838110156146d95780820151818401526020810190506146be565b838111156146e8576000848401525b50505050565b60006146f982614700565b9050919050565b600061470b82614744565b9050919050565b600061471d82614737565b9050919050565bfe5b6000601f19601f8301169050919050565b60008160e81b9050919050565b60008160601b9050919050565b61475a816145fd565b811461476557600080fd5b50565b6147718161460f565b811461477c57600080fd5b50565b6147888161463b565b811461479357600080fd5b50565b61479f8161464a565b81146147aa57600080fd5b50565b6147b681614654565b81146147c157600080fd5b5056fe566f696420496e646578202d2066756c6c7920646563656e7472616c697a656420696e6465782e20497420666561747572657320313720455243323020746f6b656e732c20616e6420616c6c6f777320796f7520746f20627579206f722073656c6c207468656d206174206f6e63652e20596f7520726563656976652056494420746f6b656e7320617320612070726f6f66206f662066756e6473206f776e6572736869704f776e61626c653a206e6577206f776e657220697320746865207a65726f2061646472657373536166654d6174683a206d756c7469706c69636174696f6e206f766572666c6f77566f696420496e646578202d2066756c6c7920646563656e7472616c697a656420696e64657868747470733a2f2f766f69646d616e6167656d656e7473746f726167652e626c6f622e636f72652e77696e646f77732e6e65742f6173736574732f6c6f676f5f696e6465782e706e67a26469706673582212209f89c7840ce79827f2b954dcf0202d28ac7ad93b3b7387990494b1f6101b518164736f6c6343000706003360806040526040516100109061007f565b604051809103906000f08015801561002c573d6000803e3d6000fd5b50600160006101000a81548173ffffffffffffffffffffffffffffffffffffffff021916908373ffffffffffffffffffffffffffffffffffffffff16021790555034801561007957600080fd5b5061008c565b6105688061075b83390190565b6106c08061009b6000396000f3fe608060405234801561001057600080fd5b50600436106100575760003560e01c806334ce998a1461005c578063cca5e4b11461007a578063e2842d79146100d4578063e65896c914610133578063f8c493d61461018b575b600080fd5b6100646101c5565b6040518082815260200191505060405180910390f35b6100d26004803603606081101561009057600080fd5b81019080803573ffffffffffffffffffffffffffffffffffffffff169060200190929190803590602001909291908035151590602001909291905050506101ce565b005b6100dc6102dd565b6040518080602001828103825283818151815260200191508051906020019060200280838360005b8381101561011f578082015181840152602081019050610104565b505050509050019250505060405180910390f35b6101756004803603602081101561014957600080fd5b81019080803573ffffffffffffffffffffffffffffffffffffffff169060200190929190505050610421565b6040518082815260200191505060405180910390f35b6101c3600480360360408110156101a157600080fd5b81019080803590602001909291908035151590602001909291905050506104ee565b005b60008054905090565b600160009054906101000a900473ffffffffffffffffffffffffffffffffffffffff1673ffffffffffffffffffffffffffffffffffffffff1663cca5e4b18484846040518463ffffffff1660e01b8152600401808473ffffffffffffffffffffffffffffffffffffffff16815260200183815260200182151581526020019350505050600060405180830381600087803b15801561026b57600080fd5b505af115801561027f573d6000803e3d6000fd5b505050507fbdbcd24495abd6f63a1ff87418df04429000c6f9d53015ef4d5c91f353d827428383604051808373ffffffffffffffffffffffffffffffffffffffff1681526020018281526020019250505060405180910390a1505050565b6060600160009054906101000a900473ffffffffffffffffffffffffffffffffffffffff1673ffffffffffffffffffffffffffffffffffffffff1663e2842d796040518163ffffffff1660e01b815260040160006040518083038186803b15801561034757600080fd5b505afa15801561035b573d6000803e3d6000fd5b505050506040513d6000823e3d601f19601f82011682018060405250602081101561038557600080fd5b81019080805160405193929190846401000000008211156103a557600080fd5b838201915060208201858111156103bb57600080fd5b82518660208202830111640100000000821117156103d857600080fd5b8083526020830192505050908051906020019060200280838360005b8381101561040f5780820151818401526020810190506103f4565b50505050905001604052505050905090565b6000600160009054906101000a900473ffffffffffffffffffffffffffffffffffffffff1673ffffffffffffffffffffffffffffffffffffffff1663e65896c9836040518263ffffffff1660e01b8152600401808273ffffffffffffffffffffffffffffffffffffffff16815260200191505060206040518083038186803b1580156104ac57600080fd5b505afa1580156104c0573d6000803e3d6000fd5b505050506040513d60208110156104d657600080fd5b81019080805190602001909291905050509050919050565b8015610514576105098260005461057f90919063ffffffff16565b600081905550610530565b6105298260005461060790919063ffffffff16565b6000819055505b7fe3a346931856fab43b7f9bcf4167ed53663e69d0195323a374d0f89a432d0f436000548383604051808481526020018381526020018215158152602001935050505060405180910390a15050565b6000808284019050838110156105fd576040517f08c379a000000000000000000000000000000000000000000000000000000000815260040180806020018281038252601b8152602001807f536166654d6174683a206164646974696f6e206f766572666c6f77000000000081525060200191505060405180910390fd5b8091505092915050565b60008282111561067f576040517f08c379a000000000000000000000000000000000000000000000000000000000815260040180806020018281038252601e8152602001807f536166654d6174683a207375627472616374696f6e206f766572666c6f77000081525060200191505060405180910390fd5b81830390509291505056fea26469706673582212204a33ecacfe95dfdd6fc7b3c256850d270b0b9b7010d2cf48428ea7cb7e29837164736f6c63430007060033608060405234801561001057600080fd5b50610548806100206000396000f3fe608060405234801561001057600080fd5b50600436106100415760003560e01c8063cca5e4b114610046578063e2842d79146100a0578063e65896c9146100ff575b600080fd5b61009e6004803603606081101561005c57600080fd5b81019080803573ffffffffffffffffffffffffffffffffffffffff16906020019092919080359060200190929190803515159060200190929190505050610157565b005b6100a8610222565b6040518080602001828103825283818151815260200191508051906020019060200280838360005b838110156100eb5780820151818401526020810190506100d0565b505050509050019250505060405180910390f35b6101416004803603602081101561011557600080fd5b81019080803573ffffffffffffffffffffffffffffffffffffffff1690602001909291905050506102b0565b6040518082815260200191505060405180910390f35b60008060008573ffffffffffffffffffffffffffffffffffffffff1673ffffffffffffffffffffffffffffffffffffffff16815260200190815260200160002054905081156101ba576101b383826102f890919063ffffffff16565b90506101d0565b6101cd838261038090919063ffffffff16565b90505b806000808673ffffffffffffffffffffffffffffffffffffffff1673ffffffffffffffffffffffffffffffffffffffff1681526020019081526020016000208190555061021c84610403565b50505050565b606060028054806020026020016040519081016040528092919081815260200182805480156102a657602002820191906000526020600020905b8160009054906101000a900473ffffffffffffffffffffffffffffffffffffffff1673ffffffffffffffffffffffffffffffffffffffff168152602001906001019080831161025c575b5050505050905090565b60008060008373ffffffffffffffffffffffffffffffffffffffff1673ffffffffffffffffffffffffffffffffffffffff168152602001908152602001600020549050919050565b600080828401905083811015610376576040517f08c379a000000000000000000000000000000000000000000000000000000000815260040180806020018281038252601b8152602001807f536166654d6174683a206164646974696f6e206f766572666c6f77000000000081525060200191505060405180910390fd5b8091505092915050565b6000828211156103f8576040517f08c379a000000000000000000000000000000000000000000000000000000000815260040180806020018281038252601e8152602001807f536166654d6174683a207375627472616374696f6e206f766572666c6f77000081525060200191505060405180910390fd5b818303905092915050565b600160008273ffffffffffffffffffffffffffffffffffffffff1673ffffffffffffffffffffffffffffffffffffffff16815260200190815260200160002060009054906101000a900460ff1661050f5760018060008373ffffffffffffffffffffffffffffffffffffffff1673ffffffffffffffffffffffffffffffffffffffff16815260200190815260200160002060006101000a81548160ff0219169083151502179055506002819080600181540180825580915050600190039060005260206000200160009091909190916101000a81548173ffffffffffffffffffffffffffffffffffffffff021916908373ffffffffffffffffffffffffffffffffffffffff1602179055505b5056fea26469706673582212203959871efe3a9e212aeec78cc26f3642dd8091beba1752abf674871417ded03e64736f6c634300070600336080604052731f98431c8ad98523631ae4a59f267346ea31f9846000806101000a81548173ffffffffffffffffffffffffffffffffffffffff021916908373ffffffffffffffffffffffffffffffffffffffff16021790555034801561006457600080fd5b50611936806100746000396000f3fe608060405234801561001057600080fd5b50600436106100365760003560e01c8063ad72a0a11461003b578063c5f0e3b41461006b575b600080fd5b6100556004803603810190610050919061158a565b61009b565b6040516100629190611718565b60405180910390f35b6100856004803603810190610080919061158a565b610196565b6040516100929190611718565b60405180910390f35b60008073ffffffffffffffffffffffffffffffffffffffff168273ffffffffffffffffffffffffffffffffffffffff1614156100f4576100ed8585856000600281106100e357fe5b6020020151610280565b905061018e565b600061011286848660006002811061010857fe5b6020020151610280565b9050600061013284878760016002811061012857fe5b6020020151610280565b905060006101438886886000610196565b9050610172670de0b6b3a764000061016483856103cf90919063ffffffff16565b61045590919063ffffffff16565b9150818311156101875781935050505061018e565b8293505050505b949350505050565b60008073ffffffffffffffffffffffffffffffffffffffff168273ffffffffffffffffffffffffffffffffffffffff1614156102085760006101ea8686866000600281106101e057fe5b60200201516104de565b905061020081670de0b6b3a76400008789610624565b915050610278565b600061022683868660016002811061021c57fe5b60200201516104de565b9050600061023e82670de0b6b3a76400008887610624565b9050600061025e88868860006002811061025457fe5b60200201516104de565b9050600061026e8284888c610624565b9050809450505050505b949350505050565b6000806000806000610293888888610827565b93509350935093506000808973ffffffffffffffffffffffffffffffffffffffff168473ffffffffffffffffffffffffffffffffffffffff16141561033f576000610305858560405180604001604052808d62ffffff1662ffffff168152602001600062ffffff168152506000610196565b9050610334670de0b6b3a764000061032683896103cf90919063ffffffff16565b61045590919063ffffffff16565b9250869150506103a8565b6000610372848660405180604001604052808d62ffffff1662ffffff168152602001600062ffffff168152506000610196565b90506103a1670de0b6b3a7640000610393838a6103cf90919063ffffffff16565b61045590919063ffffffff16565b9250859150505b818111156103be578196505050505050506103c8565b8096505050505050505b9392505050565b6000808314156103e2576000905061044f565b60008284029050828482816103f357fe5b041461044a576040517f08c379a00000000000000000000000000000000000000000000000000000000081526004018080602001828103825260218152602001806118e06021913960400191505060405180910390fd5b809150505b92915050565b60008082116104cc576040517f08c379a000000000000000000000000000000000000000000000000000000000815260040180806020018281038252601a8152602001807f536166654d6174683a206469766973696f6e206279207a65726f00000000000081525060200191505060405180910390fd5b8183816104d557fe5b04905092915050565b60008060008054906101000a900473ffffffffffffffffffffffffffffffffffffffff1673ffffffffffffffffffffffffffffffffffffffff16631698ee828686866040518463ffffffff1660e01b815260040161053e939291906116e1565b60206040518083038186803b15801561055657600080fd5b505afa15801561056a573d6000803e3d6000fd5b505050506040513d601f19601f8201168201806040525081019061058e9190611561565b905060008173ffffffffffffffffffffffffffffffffffffffff16633850c7bd6040518163ffffffff1660e01b815260040160e06040518083038186803b1580156105d857600080fd5b505afa1580156105ec573d6000803e3d6000fd5b505050506040513d601f19601f820116820180604052508101906106109190611616565b505050505091505080925050509392505050565b60008061063086610bc1565b90506fffffffffffffffffffffffffffffffff80168173ffffffffffffffffffffffffffffffffffffffff16116107415760008173ffffffffffffffffffffffffffffffffffffffff168273ffffffffffffffffffffffffffffffffffffffff160290508373ffffffffffffffffffffffffffffffffffffffff168573ffffffffffffffffffffffffffffffffffffffff1610610702576106fd7801000000000000000000000000000000000000000000000000876fffffffffffffffffffffffffffffffff1683610ffc565b610739565b61073881876fffffffffffffffffffffffffffffffff167801000000000000000000000000000000000000000000000000610ffc565b5b92505061081e565b60006107838273ffffffffffffffffffffffffffffffffffffffff168373ffffffffffffffffffffffffffffffffffffffff1668010000000000000000610ffc565b90508373ffffffffffffffffffffffffffffffffffffffff168573ffffffffffffffffffffffffffffffffffffffff16106107eb576107e6700100000000000000000000000000000000876fffffffffffffffffffffffffffffffff1683610ffc565b61081a565b61081981876fffffffffffffffffffffffffffffffff16700100000000000000000000000000000000610ffc565b5b9250505b50949350505050565b60008060008060008060009054906101000a900473ffffffffffffffffffffffffffffffffffffffff1673ffffffffffffffffffffffffffffffffffffffff16631698ee828989896040518463ffffffff1660e01b815260040161088d939291906116e1565b60206040518083038186803b1580156108a557600080fd5b505afa1580156108b9573d6000803e3d6000fd5b505050506040513d601f19601f820116820180604052508101906108dd9190611561565b905060008173ffffffffffffffffffffffffffffffffffffffff16633850c7bd6040518163ffffffff1660e01b815260040160e06040518083038186803b15801561092757600080fd5b505afa15801561093b573d6000803e3d6000fd5b505050506040513d601f19601f8201168201806040525081019061095f9190611616565b5050505050509050600061099360028373ffffffffffffffffffffffffffffffffffffffff1661045590919063ffffffff16565b905060006109d68273ffffffffffffffffffffffffffffffffffffffff168473ffffffffffffffffffffffffffffffffffffffff166110d690919063ffffffff16565b90506000610a198373ffffffffffffffffffffffffffffffffffffffff168573ffffffffffffffffffffffffffffffffffffffff1661115e90919063ffffffff16565b9050600080610aa78684868a73ffffffffffffffffffffffffffffffffffffffff16631a6865026040518163ffffffff1660e01b815260040160206040518083038186803b158015610a6a57600080fd5b505afa158015610a7e573d6000803e3d6000fd5b505050506040513d601f19601f82011682018060405250810190610aa291906115ed565b6111e1565b9150915081818873ffffffffffffffffffffffffffffffffffffffff16630dfe16816040518163ffffffff1660e01b815260040160206040518083038186803b158015610af357600080fd5b505afa158015610b07573d6000803e3d6000fd5b505050506040513d601f19601f82011682018060405250810190610b2b9190611561565b8973ffffffffffffffffffffffffffffffffffffffff1663d21220a76040518163ffffffff1660e01b815260040160206040518083038186803b158015610b7157600080fd5b505afa158015610b85573d6000803e3d6000fd5b505050506040513d601f19601f82011682018060405250810190610ba99190611561565b9a509a509a509a505050505050505093509350935093565b60008060008360020b12610bd8578260020b610be0565b8260020b6000035b90507ffffffffffffffffffffffffffffffffffffffffffffffffffffffffffff2761860000360020b811115610c7e576040517f08c379a00000000000000000000000000000000000000000000000000000000081526004018080602001828103825260018152602001807f540000000000000000000000000000000000000000000000000000000000000081525060200191505060405180910390fd5b600080600183161415610ca257700100000000000000000000000000000000610cb4565b6ffffcb933bd6fad37aa2d162d1a5940015b70ffffffffffffffffffffffffffffffffff16905060006002831614610cee5760806ffff97272373d413259a46990580e213a8202901c90505b60006004831614610d135760806ffff2e50f5f656932ef12357cf3c7fdcc8202901c90505b60006008831614610d385760806fffe5caca7e10e4e61c3624eaa0941cd08202901c90505b60006010831614610d5d5760806fffcb9843d60f6159c9db58835c9266448202901c90505b60006020831614610d825760806fff973b41fa98c081472e6896dfb254c08202901c90505b60006040831614610da75760806fff2ea16466c96a3843ec78b326b528618202901c90505b60006080831614610dcc5760806ffe5dee046a99a2a811c461f1969c30538202901c90505b6000610100831614610df25760806ffcbe86c7900a88aedcffc83b479aa3a48202901c90505b6000610200831614610e185760806ff987a7253ac413176f2b074cf7815e548202901c90505b6000610400831614610e3e5760806ff3392b0822b70005940c7a398e4b70f38202901c90505b6000610800831614610e645760806fe7159475a2c29b7443b29c7fa6e889d98202901c90505b6000611000831614610e8a5760806fd097f3bdfd2022b8845ad8f792aa58258202901c90505b6000612000831614610eb05760806fa9f746462d870fdf8a65dc1f90e061e58202901c90505b6000614000831614610ed65760806f70d869a156d2a1b890bb3df62baf32f78202901c90505b6000618000831614610efc5760806f31be135f97d08fd981231505542fcfa68202901c90505b600062010000831614610f235760806f09aa508b5b7a84e1c677de54f3e99bc98202901c90505b600062020000831614610f495760806e5d6af8dedb81196699c329225ee6048202901c90505b600062040000831614610f6e5760806d2216e584f5fa1ea926041bedfe988202901c90505b600062080000831614610f915760806b048a170391f7dc42444e8fa28202901c90505b60008460020b1315610fca57807fffffffffffffffffffffffffffffffffffffffffffffffffffffffffffffffff81610fc657fe5b0490505b60006401000000008281610fda57fe5b0614610fe7576001610fea565b60005b60ff16602082901c0192505050919050565b600080600080198587098587029250828110838203039150506000811415611037576000841161102b57600080fd5b838204925050506110cf565b80841161104357600080fd5b600084868809905082811182039150808303925060008586600003169050808604955080840493506001818260000304019050808302841793506000600287600302189050808702600203810290508087026002038102905080870260020381029050808702600203810290508087026002038102905080870260020381029050808502955050505050505b9392505050565b600080828401905083811015611154576040517f08c379a000000000000000000000000000000000000000000000000000000000815260040180806020018281038252601b8152602001807f536166654d6174683a206164646974696f6e206f766572666c6f77000000000081525060200191505060405180910390fd5b8091505092915050565b6000828211156111d6576040517f08c379a000000000000000000000000000000000000000000000000000000000815260040180806020018281038252601e8152602001807f536166654d6174683a207375627472616374696f6e206f766572666c6f77000081525060200191505060405180910390fd5b818303905092915050565b6000808373ffffffffffffffffffffffffffffffffffffffff168573ffffffffffffffffffffffffffffffffffffffff16111561122357838580955081965050505b8473ffffffffffffffffffffffffffffffffffffffff168673ffffffffffffffffffffffffffffffffffffffff1611611268576112618585856112d3565b91506112ca565b8373ffffffffffffffffffffffffffffffffffffffff168673ffffffffffffffffffffffffffffffffffffffff1610156112bb576112a78685856112d3565b91506112b485878561138e565b90506112c9565b6112c685858561138e565b90505b5b94509492505050565b60008273ffffffffffffffffffffffffffffffffffffffff168473ffffffffffffffffffffffffffffffffffffffff16111561131457828480945081955050505b8373ffffffffffffffffffffffffffffffffffffffff1661137d606060ff16846fffffffffffffffffffffffffffffffff16901b86860373ffffffffffffffffffffffffffffffffffffffff168673ffffffffffffffffffffffffffffffffffffffff16610ffc565b8161138457fe5b0490509392505050565b60008273ffffffffffffffffffffffffffffffffffffffff168473ffffffffffffffffffffffffffffffffffffffff1611156113cf57828480945081955050505b611411826fffffffffffffffffffffffffffffffff1685850373ffffffffffffffffffffffffffffffffffffffff166c01000000000000000000000000610ffc565b90509392505050565b600061142d61142884611764565b611733565b9050808285602086028201111561144357600080fd5b60005b8581101561147357816114598882611537565b845260208401935060208301925050600181019050611446565b5050509392505050565b60008135905061148c81611827565b92915050565b6000815190506114a181611827565b92915050565b600082601f8301126114b857600080fd5b60026114c584828561141a565b91505092915050565b6000815190506114dd8161183e565b92915050565b6000815190506114f281611855565b92915050565b6000815190506115078161186c565b92915050565b60008151905061151c8161189a565b92915050565b60008151905061153181611883565b92915050565b600081359050611546816118b1565b92915050565b60008151905061155b816118c8565b92915050565b60006020828403121561157357600080fd5b600061158184828501611492565b91505092915050565b60008060008060a085870312156115a057600080fd5b60006115ae8782880161147d565b94505060206115bf8782880161147d565b93505060406115d0878288016114a7565b92505060806115e18782880161147d565b91505092959194509250565b6000602082840312156115ff57600080fd5b600061160d848285016114f8565b91505092915050565b600080600080600080600060e0888a03121561163157600080fd5b600061163f8a828b0161150d565b97505060206116508a828b016114e3565b96505060406116618a828b01611522565b95505060606116728a828b01611522565b94505060806116838a828b01611522565b93505060a06116948a828b0161154c565b92505060c06116a58a828b016114ce565b91505092959891949750929550565b6116bd8161178a565b82525050565b6116cc816117ff565b82525050565b6116db8161180e565b82525050565b60006060820190506116f660008301866116b4565b61170360208301856116b4565b61171060408301846116c3565b949350505050565b600060208201905061172d60008301846116d2565b92915050565b6000604051905081810181811067ffffffffffffffff8211171561175a57611759611825565b5b8060405250919050565b600067ffffffffffffffff82111561177f5761177e611825565b5b602082029050919050565b6000611795826117df565b9050919050565b60008115159050919050565b60008160020b9050919050565b60006fffffffffffffffffffffffffffffffff82169050919050565b600061ffff82169050919050565b600073ffffffffffffffffffffffffffffffffffffffff82169050919050565b600062ffffff82169050919050565b6000819050919050565b600060ff82169050919050565bfe5b6118308161178a565b811461183b57600080fd5b50565b6118478161179c565b811461185257600080fd5b50565b61185e816117a8565b811461186957600080fd5b50565b611875816117b5565b811461188057600080fd5b50565b61188c816117d1565b811461189757600080fd5b50565b6118a3816117df565b81146118ae57600080fd5b50565b6118ba816117ff565b81146118c557600080fd5b50565b6118d181611818565b81146118dc57600080fd5b5056fe536166654d6174683a206d756c7469706c69636174696f6e206f766572666c6f77a2646970667358221220d67d7687e7254a158be90d12263f3f48165751997d793c0f201b2d8f1f60a86a64736f6c63430007060033608060405234801561001057600080fd5b50604051610f4f380380610f4f8339818101604052810190610032919061008e565b80600260006101000a81548173ffffffffffffffffffffffffffffffffffffffff021916908373ffffffffffffffffffffffffffffffffffffffff16021790555050610100565b600081519050610088816100e9565b92915050565b6000602082840312156100a057600080fd5b60006100ae84828501610079565b91505092915050565b60006100c2826100c9565b9050919050565b600073ffffffffffffffffffffffffffffffffffffffff82169050919050565b6100f2816100b7565b81146100fd57600080fd5b50565b610e408061010f6000396000f3fe608060405234801561001057600080fd5b50600436106100995760003560e01c806306fdde031461009e578063095ea7b3146100bc5780630cf1fd36146100ec57806323b872dd1461010a57806327e235e31461013a578063313ce5671461016a5780635c6581651461018857806370a08231146101b857806395d89b41146101e8578063a9059cbb14610206578063dd62ed3e14610236575b600080fd5b6100a6610266565b6040516100b39190610c8f565b60405180910390f35b6100d660048036038101906100d19190610adc565b61029f565b6040516100e39190610c74565b60405180910390f35b6100f4610391565b6040516101019190610c59565b60405180910390f35b610124600480360381019061011f9190610a8d565b6103b7565b6040516101319190610c74565b60405180910390f35b610154600480360381019061014f9190610a28565b610682565b6040516101619190610cf1565b60405180910390f35b61017261069a565b60405161017f9190610d0c565b60405180910390f35b6101a2600480360381019061019d9190610a51565b61069f565b6040516101af9190610cf1565b60405180910390f35b6101d260048036038101906101cd9190610a28565b6106c4565b6040516101df9190610cf1565b60405180910390f35b6101f061070c565b6040516101fd9190610c8f565b60405180910390f35b610220600480360381019061021b9190610adc565b610745565b60405161022d9190610c74565b60405180910390f35b610250600480360381019061024b9190610a51565b610977565b60405161025d9190610cf1565b60405180910390f35b6040518060400160405280601081526020017f566f696420496e64657820546f6b656e0000000000000000000000000000000081525081565b600081600160003373ffffffffffffffffffffffffffffffffffffffff1673ffffffffffffffffffffffffffffffffffffffff16815260200190815260200160002060008573ffffffffffffffffffffffffffffffffffffffff1673ffffffffffffffffffffffffffffffffffffffff168152602001908152602001600020819055508273ffffffffffffffffffffffffffffffffffffffff163373ffffffffffffffffffffffffffffffffffffffff167f8c5be1e5ebec7d5bd14f71427d1e84f3dd0314c0f7b2291e5b200ac8c7c3b9258460405161037f9190610cf1565b60405180910390a36001905092915050565b600260009054906101000a900473ffffffffffffffffffffffffffffffffffffffff1681565b600080600160008673ffffffffffffffffffffffffffffffffffffffff1673ffffffffffffffffffffffffffffffffffffffff16815260200190815260200160002060003373ffffffffffffffffffffffffffffffffffffffff1673ffffffffffffffffffffffffffffffffffffffff168152602001908152602001600020549050826000808773ffffffffffffffffffffffffffffffffffffffff1673ffffffffffffffffffffffffffffffffffffffff16815260200190815260200160002054101580156104875750828110155b6104c6576040517f08c379a00000000000000000000000000000000000000000000000000000000081526004016104bd90610cd1565b60405180910390fd5b826000808673ffffffffffffffffffffffffffffffffffffffff1673ffffffffffffffffffffffffffffffffffffffff16815260200190815260200160002060008282540192505081905550826000808773ffffffffffffffffffffffffffffffffffffffff1673ffffffffffffffffffffffffffffffffffffffff168152602001908152602001600020600082825403925050819055507fffffffffffffffffffffffffffffffffffffffffffffffffffffffffffffffff8110156106115782600160008773ffffffffffffffffffffffffffffffffffffffff1673ffffffffffffffffffffffffffffffffffffffff16815260200190815260200160002060003373ffffffffffffffffffffffffffffffffffffffff1673ffffffffffffffffffffffffffffffffffffffff168152602001908152602001600020600082825403925050819055505b8373ffffffffffffffffffffffffffffffffffffffff168573ffffffffffffffffffffffffffffffffffffffff167fddf252ad1be2c89b69c2b068fc378daa952ba7f163c4a11628f55a4df523b3ef8560405161066e9190610cf1565b60405180910390a360019150509392505050565b60006020528060005260406000206000915090505481565b601281565b6001602052816000526040600020602052806000526040600020600091509150505481565b60008060008373ffffffffffffffffffffffffffffffffffffffff1673ffffffffffffffffffffffffffffffffffffffff168152602001908152602001600020549050919050565b6040518060400160405280600381526020017f564944000000000000000000000000000000000000000000000000000000000081525081565b6000600260009054906101000a900473ffffffffffffffffffffffffffffffffffffffff1673ffffffffffffffffffffffffffffffffffffffff163373ffffffffffffffffffffffffffffffffffffffff1614156107ee57816000808573ffffffffffffffffffffffffffffffffffffffff1673ffffffffffffffffffffffffffffffffffffffff16815260200190815260200160002060008282540192505081905550610908565b816000803373ffffffffffffffffffffffffffffffffffffffff1673ffffffffffffffffffffffffffffffffffffffff16815260200190815260200160002054101561086f576040517f08c379a000000000000000000000000000000000000000000000000000000000815260040161086690610cb1565b60405180910390fd5b816000803373ffffffffffffffffffffffffffffffffffffffff1673ffffffffffffffffffffffffffffffffffffffff16815260200190815260200160002060008282540392505081905550816000808573ffffffffffffffffffffffffffffffffffffffff1673ffffffffffffffffffffffffffffffffffffffff168152602001908152602001600020600082825401925050819055505b8273ffffffffffffffffffffffffffffffffffffffff163373ffffffffffffffffffffffffffffffffffffffff167fddf252ad1be2c89b69c2b068fc378daa952ba7f163c4a11628f55a4df523b3ef846040516109659190610cf1565b60405180910390a36001905092915050565b6000600160008473ffffffffffffffffffffffffffffffffffffffff1673ffffffffffffffffffffffffffffffffffffffff16815260200190815260200160002060008373ffffffffffffffffffffffffffffffffffffffff1673ffffffffffffffffffffffffffffffffffffffff16815260200190815260200160002054905092915050565b600081359050610a0d81610ddc565b92915050565b600081359050610a2281610df3565b92915050565b600060208284031215610a3a57600080fd5b6000610a48848285016109fe565b91505092915050565b60008060408385031215610a6457600080fd5b6000610a72858286016109fe565b9250506020610a83858286016109fe565b9150509250929050565b600080600060608486031215610aa257600080fd5b6000610ab0868287016109fe565b9350506020610ac1868287016109fe565b9250506040610ad286828701610a13565b9150509250925092565b60008060408385031215610aef57600080fd5b6000610afd858286016109fe565b9250506020610b0e85828601610a13565b9150509250929050565b610b2181610d43565b82525050565b610b3081610d55565b82525050565b6000610b4182610d27565b610b4b8185610d32565b9350610b5b818560208601610d98565b610b6481610dcb565b840191505092915050565b6000610b7c602f83610d32565b91507f746f6b656e2062616c616e6365206973206c6f776572207468616e207468652060008301527f76616c75652072657175657374656400000000000000000000000000000000006020830152604082019050919050565b6000610be2603983610d32565b91507f746f6b656e2062616c616e6365206f7220616c6c6f77616e6365206973206c6f60008301527f776572207468616e20616d6f756e7420726571756573746564000000000000006020830152604082019050919050565b610c4481610d81565b82525050565b610c5381610d8b565b82525050565b6000602082019050610c6e6000830184610b18565b92915050565b6000602082019050610c896000830184610b27565b92915050565b60006020820190508181036000830152610ca98184610b36565b905092915050565b60006020820190508181036000830152610cca81610b6f565b9050919050565b60006020820190508181036000830152610cea81610bd5565b9050919050565b6000602082019050610d066000830184610c3b565b92915050565b6000602082019050610d216000830184610c4a565b92915050565b600081519050919050565b600082825260208201905092915050565b6000610d4e82610d61565b9050919050565b60008115159050919050565b600073ffffffffffffffffffffffffffffffffffffffff82169050919050565b6000819050919050565b600060ff82169050919050565b60005b83811015610db6578082015181840152602081019050610d9b565b83811115610dc5576000848401525b50505050565b6000601f19601f8301169050919050565b610de581610d43565b8114610df057600080fd5b50565b610dfc81610d81565b8114610e0757600080fd5b5056fea26469706673582212209f3b6dcf56f54040ee770d3d9e971f10dcdc982e14debb2c5401fe2e7ad1a10564736f6c63430007060033",
  "immutableReferences": {
    "3869": [
      {
        "length": 32,
        "start": 2875
      },
      {
        "length": 32,
        "start": 7471
      },
      {
        "length": 32,
        "start": 7609
      }
    ],
    "3875": [
      {
        "length": 32,
        "start": 8285
      },
      {
        "length": 32,
        "start": 9193
      },
      {
        "length": 32,
        "start": 12904
      }
    ],
    "3880": [
      {
        "length": 32,
        "start": 2008
      },
      {
        "length": 32,
        "start": 2428
      },
      {
        "length": 32,
        "start": 7085
      },
      {
        "length": 32,
        "start": 7273
      },
      {
        "length": 32,
        "start": 9262
      },
      {
        "length": 32,
        "start": 9848
      }
    ],
    "3885": [
      {
        "length": 32,
        "start": 2046
      },
      {
        "length": 32,
        "start": 2466
      },
      {
        "length": 32,
        "start": 6076
      },
      {
        "length": 32,
        "start": 9300
      },
      {
        "length": 32,
        "start": 9653
      }
    ],
    "3890": [
      {
        "length": 32,
        "start": 4572
      },
      {
        "length": 32,
        "start": 6454
      }
    ]
  },
  "source": "// SPDX-License-Identifier: MIT\r\npragma solidity 0.7.6;\r\npragma abicoder v2;\r\n\r\nimport \"@openzeppelin/contracts/token/ERC20/ERC20.sol\";\r\nimport \"@openzeppelin/contracts/math/SafeMath.sol\";\r\nimport \"@uniswap/v3-periphery/contracts/libraries/TransferHelper.sol\";\r\nimport \"@uniswap/v3-periphery/contracts/interfaces/ISwapRouter.sol\";\r\nimport \"@uniswap/v3-periphery/contracts/interfaces/IPeripheryPayments.sol\";\r\n\r\nimport \"./PriceOracle.sol\";\r\nimport \"./IndexToken.sol\";\r\nimport \"./DebtManager.sol\";\r\nimport \"../management/BaseProduct.sol\";\r\n\r\n\r\ncontract Index is Product {\r\n    using SafeMath for uint256;\r\n\r\n    struct TokenInfo {\r\n        uint8 indexPercentage;\r\n        address tokenAddress;\r\n        uint24[2] poolFees;\r\n        address intermediateToken;\r\n    }\r\n\r\n    TokenInfo[10] private tokens;\r\n    IndexToken public immutable indexToken;\r\n\r\n    address private immutable WETH = 0xC02aaA39b223FE8D0A0e5C4F27eAD9083C756Cc2;\r\n    address private immutable dexRouterAddress = 0xE592427A0AEce92De3Edee1F18E0157C05861564;\r\n\r\n    DebtManager private immutable sellDebtManager = new DebtManager();\r\n    DebtManager private immutable buyDebtManager = new DebtManager();\r\n    PriceOracle private immutable priceOracle = new PriceOracle();\r\n\r\n    uint private lastManagedToken = 0;\r\n    uint public tokensToSell = 0;\r\n    uint public tokensToBuy = 0;\r\n    uint private tokensSold = 0;\r\n    uint private buyAmountRequired = 0;\r\n    uint public constant maxTokens = 200000000000000000000;\r\n    uint public availableTokens = 200000000000000000000;\r\n\r\n    function name() external pure override returns (string memory) { return \"Index\"; }\r\n    function symbol() external pure override returns (string memory) { return \"VID\"; }\r\n    function getComponents() external view returns (TokenInfo[10] memory) { return tokens; }\r\n\r\n    function shortDescription() external pure override returns (string memory) {\r\n        return \"Void Index - fully decentralized index\";\r\n    }\r\n\r\n    function longDescription() external pure override returns (string memory) {\r\n        return \"Void Index - fully decentralized index. It features 17 ERC20 tokens, and allows you to buy or sell them at once. You receive VID tokens as a proof of funds ownership\";\r\n    }\r\n\r\n    function getTokenPrice(TokenInfo memory token) public view returns (uint256) {\r\n        return priceOracle.getPrice(buyTokenAddress, token.tokenAddress, token.poolFees, token.intermediateToken);\r\n    }\r\n\r\n    function image() external pure override returns (string memory) {\r\n        return \"https://voidmanagementstorage.blob.core.windows.net/assets/logo_index.png\";\r\n    }\r\n\r\n    function getTotalLockedValue() external view override returns (uint256) {\r\n        uint totalValue;\r\n\r\n        for (uint i = 0; i < tokens.length; i++) {\r\n            TokenInfo memory tokenInfo = tokens[i];\r\n            uint tokenUsdBalance = IERC20(tokenInfo.tokenAddress).balanceOf(address(this)).mul(getTokenPrice(tokenInfo));\r\n            totalValue = totalValue.add(tokenUsdBalance.div(1 ether));\r\n        }\r\n\r\n        return totalValue;\r\n    }\r\n\r\n    function getAvailableLiquidity() public view returns(uint){\r\n        uint minLiquidity;\r\n\r\n        for(uint i = 0; i < tokens.length; i++){\r\n\r\n            TokenInfo memory token = tokens[i];\r\n            uint poolLiquidity = priceOracle.getLiquidity(\r\n                buyTokenAddress,\r\n                token.tokenAddress,\r\n                token.poolFees,\r\n                token.intermediateToken\r\n            );\r\n\r\n            if(poolLiquidity < minLiquidity || minLiquidity == 0){\r\n                minLiquidity = poolLiquidity;\r\n            }\r\n        }\r\n\r\n        return minLiquidity.mul(1 ether).div(getPrice());\r\n    }\r\n\r\n    constructor() {\r\n        indexToken = new IndexToken(address(this));\r\n\r\n        tokens[0] = TokenInfo({ // 0) WETH\r\n            tokenAddress: 0xC02aaA39b223FE8D0A0e5C4F27eAD9083C756Cc2,\r\n            poolFees: [uint24(3000), uint24(3000)],\r\n            intermediateToken: address(0),\r\n            indexPercentage: 25\r\n        });\r\n        tokens[1] = TokenInfo({ // 1) LINK\r\n            tokenAddress: 0x514910771AF9Ca656af840dff83E8264EcF986CA,\r\n            poolFees: [uint24(3000), uint24(3000)],\r\n            intermediateToken: 0xC02aaA39b223FE8D0A0e5C4F27eAD9083C756Cc2,\r\n            indexPercentage: 15\r\n        });\r\n        tokens[2] = TokenInfo({ // 3) UNI\r\n            tokenAddress: 0x1f9840a85d5aF5bf1D1762F925BDADdC4201F984,\r\n            poolFees: [uint24(3000), uint24(3000)],\r\n            intermediateToken: 0xC02aaA39b223FE8D0A0e5C4F27eAD9083C756Cc2,\r\n            indexPercentage: 20\r\n        });\r\n        tokens[3] = TokenInfo({ // 4) 1INCH\r\n            tokenAddress: 0x111111111117dC0aa78b770fA6A738034120C302,\r\n            poolFees: [uint24(3000), 10000],\r\n            intermediateToken: 0xC02aaA39b223FE8D0A0e5C4F27eAD9083C756Cc2,\r\n            indexPercentage: 10\r\n        });\r\n        tokens[4] = TokenInfo({ // 5) SNX\r\n            tokenAddress: 0xC011a73ee8576Fb46F5E1c5751cA3B9Fe0af2a6F,\r\n            poolFees: [uint24(3000), 10000],\r\n            intermediateToken: 0xC02aaA39b223FE8D0A0e5C4F27eAD9083C756Cc2,\r\n            indexPercentage: 5\r\n        });\r\n        tokens[5] = TokenInfo({ // 7) COMP\r\n            tokenAddress: 0xc00e94Cb662C3520282E6f5717214004A7f26888,\r\n            poolFees: [uint24(3000), uint24(3000)],\r\n            intermediateToken: 0xC02aaA39b223FE8D0A0e5C4F27eAD9083C756Cc2,\r\n            indexPercentage: 5\r\n        });\r\n        tokens[6] = TokenInfo({ // 8) MKR\r\n            tokenAddress: 0x9f8F72aA9304c8B593d555F12eF6589cC3A579A2,\r\n            poolFees: [uint24(3000), uint24(3000)],\r\n            intermediateToken: 0xC02aaA39b223FE8D0A0e5C4F27eAD9083C756Cc2,\r\n            indexPercentage: 3\r\n        });\r\n        tokens[7] = TokenInfo({ // 10) APE\r\n            tokenAddress: 0x4d224452801ACEd8B2F0aebE155379bb5D594381,\r\n            poolFees: [uint24(3000), uint24(3000)],\r\n            intermediateToken: 0xC02aaA39b223FE8D0A0e5C4F27eAD9083C756Cc2,\r\n            indexPercentage: 7\r\n        });\r\n        tokens[8] = TokenInfo({ // 13) AAVE\r\n            tokenAddress: 0x7Fc66500c84A76Ad7e9c93437bFc5Ac33E2DDaE9,\r\n            poolFees: [uint24(3000), uint24(3000)],\r\n            intermediateToken: 0xC02aaA39b223FE8D0A0e5C4F27eAD9083C756Cc2,\r\n            indexPercentage: 5\r\n        });\r\n        tokens[9] = TokenInfo({ // 14) MATIC\r\n            tokenAddress: 0x7D1AfA7B718fb893dB30A3aBc0Cfc608AaCfeBB0,\r\n            poolFees: [uint24(3000), uint24(3000)],\r\n            intermediateToken: 0xC02aaA39b223FE8D0A0e5C4F27eAD9083C756Cc2,\r\n            indexPercentage: 5\r\n        });\r\n        // tokens[2] = TokenInfo({ // 2) WBNB\r\n        //     tokenAddress: 0x418D75f65a02b3D53B2418FB8E1fe493759c7605,\r\n        //     poolFees: [uint24(3000), uint24(3000)],\r\n        //     intermediateToken: 0xC02aaA39b223FE8D0A0e5C4F27eAD9083C756Cc2,\r\n        //     indexPercentage: 10\r\n        // });\r\n        // tokens[6] = TokenInfo({ // 6) YFI\r\n        //     tokenAddress: 0x0bc529c00C6401aEF6D220BE8C6Ea1667F6Ad93e,\r\n        //     poolFees: [uint24(3000), uint24(3000)],\r\n        //     intermediateToken: 0xC02aaA39b223FE8D0A0e5C4F27eAD9083C756Cc2,\r\n        //     indexPercentage: 2\r\n        // });\r\n        // tokens[9] = TokenInfo({ // 9) SUSHI\r\n        //     tokenAddress: 0x6B3595068778DD592e39A122f4f5a5cF09C90fE2,\r\n        //     poolFees: [uint24(3000), uint24(3000)],\r\n        //     intermediateToken: 0xC02aaA39b223FE8D0A0e5C4F27eAD9083C756Cc2,\r\n        //     indexPercentage: 8\r\n        // });\r\n        // tokens[11] = TokenInfo({ // 11) CRV\r\n        //     tokenAddress: 0xD533a949740bb3306d119CC777fa900bA034cd52,\r\n        //     poolFees: [uint24(3000), 10000],\r\n        //     intermediateToken: 0xC02aaA39b223FE8D0A0e5C4F27eAD9083C756Cc2,\r\n        //     indexPercentage: 5\r\n        // });\r\n        // tokens[12] = TokenInfo({ // 12) LOOKS\r\n        //     tokenAddress: 0xf4d2888d29D722226FafA5d9B24F9164c092421E,\r\n        //     poolFees: [uint24(3000), uint24(3000)],\r\n        //     intermediateToken: 0xC02aaA39b223FE8D0A0e5C4F27eAD9083C756Cc2,\r\n        //     indexPercentage: 2\r\n        // });\r\n        // tokens[15] = TokenInfo({ // 14) FTX\r\n        //     tokenAddress: 0x50D1c9771902476076eCFc8B2A83Ad6b9355a4c9,\r\n        //     poolFees: [uint24(3000), uint24(3000)],\r\n        //     intermediateToken: 0xC02aaA39b223FE8D0A0e5C4F27eAD9083C756Cc2,\r\n        //     indexPercentage: 5\r\n        // });\r\n        // tokens[16] = TokenInfo({ // 15) GNOSIS\r\n        //     tokenAddress: 0x6810e776880C02933D47DB1b9fc05908e5386b96,\r\n        //     poolFees: [uint24(3000), uint24(3000)],\r\n        //     intermediateToken: 0xC02aaA39b223FE8D0A0e5C4F27eAD9083C756Cc2,\r\n        //     indexPercentage: 3\r\n        // });\r\n    }\r\n\r\n    function buy(uint256 amount) external override nonReentrant checkSettlement {\r\n        (uint productFee, uint256 realAmount) = calculateFee(amount);\r\n        require(realAmount > 0 && productFee > 0, \"Not enough tokens sent\");\r\n        require(getAvailableLiquidity() >= amount && realAmount <= availableTokens, \"Not enough liquidity\");\r\n\r\n        availableTokens = availableTokens.sub(realAmount);\r\n\r\n        uint256 indexPrice = getPrice();\r\n        uint buyTokenAmount = realAmount.mul(indexPrice).div(1 ether);\r\n\r\n        tokensToBuy = tokensToBuy.add(buyTokenAmount);\r\n        buyDebtManager.changeDebt(msg.sender, realAmount, true);\r\n\r\n        TransferHelper.safeTransferFrom(buyTokenAddress, msg.sender, address(this), amount.mul(indexPrice).div(1 ether));\r\n        TransferHelper.safeTransferFrom(buyTokenAddress, address(this), owner(), productFee.mul(indexPrice).div(2 ether));\r\n\r\n        emit ProductBought(msg.sender, buyTokenAmount, realAmount);\r\n    }\r\n\r\n    function sell(uint amount) external override nonReentrant checkSettlement{\r\n        (uint productFee, uint256 realAmount) = calculateFee(amount);\r\n        require(realAmount > 0 && productFee > 0, \"You must sell more tokens\");\r\n        require(getAvailableLiquidity() >= amount, \"Not enough liquidity\");\r\n\r\n        uint indexPrice = getPrice();\r\n\r\n        tokensToSell = tokensToSell.add(amount);\r\n        sellDebtManager.changeDebt(msg.sender, realAmount.mul(indexPrice).div(1 ether), true);\r\n        sellDebtManager.changeDebt(owner(), productFee.mul(indexPrice).div(1 ether), true);\r\n\r\n        TransferHelper.safeTransferFrom(address(indexToken), msg.sender, address(this), amount);\r\n        emit ProductSold(msg.sender, realAmount.mul(getPrice()), realAmount);\r\n    }\r\n\r\n    function retrieveDebt(uint amount, bool isBuyDebt) external nonReentrant checkSettlement{\r\n        DebtManager manager = isBuyDebt ? buyDebtManager : sellDebtManager;\r\n        require(manager.getTotalDebt() >= amount && manager.getUserDebt(msg.sender) >= amount, \"Not enough debt\");\r\n\r\n        address token = isBuyDebt ? address(indexToken) : buyTokenAddress;\r\n\r\n        TransferHelper.safeTransfer(token, msg.sender, amount);\r\n        manager.changeDebt(msg.sender, amount, false);\r\n        manager.changeTotalDebt(amount, false);\r\n    }\r\n\r\n    function getTotalDebt(bool isBuy) external view returns (uint) {\r\n        return (isBuy ? buyDebtManager : sellDebtManager).getTotalDebt();\r\n    }\r\n\r\n    function getUserDebt(address user, bool isBuy) external view returns (uint) {\r\n        return (isBuy ? buyDebtManager : sellDebtManager).getUserDebt(user);\r\n    }\r\n\r\n    function beginSettlement() override external onlyOwner{\r\n        isSettlement = true;\r\n\r\n        uint totalBuyFees = tokensToBuy.mul(productFee).div(productFeeTotal);\r\n        TransferHelper.safeApprove(buyTokenAddress, dexRouterAddress, tokensToBuy.add(totalBuyFees));\r\n    }\r\n\r\n    function endSettlement() override external onlyOwner {\r\n        buyDebtManager.changeTotalDebt(tokensToBuy.mul(1 ether).div(getPrice()), true);\r\n        sellDebtManager.changeTotalDebt(tokensSold, true);\r\n\r\n        if (buyAmountRequired < tokensToBuy && buyAmountRequired != 0) {\r\n            TransferHelper.safeTransfer(buyTokenAddress, owner(), tokensToBuy.sub(buyAmountRequired));\r\n        }\r\n\r\n        tokensToBuy = 0;\r\n        buyAmountRequired = 0;\r\n        tokensToSell = 0;\r\n        tokensSold = 0;\r\n        isSettlement = false;\r\n    }\r\n\r\n    function manageTokensSell(TokenInfo memory token, ISwapRouter dexRouter, uint amount, uint tokenPrice) private {\r\n        uint amountIn = amount.mul(getPrice()).mul(token.indexPercentage).div(100).div(tokenPrice);\r\n\r\n        uint usdAmountIn = amountIn.mul(tokenPrice).div(1 ether);\r\n        uint amountOutMinimum = usdAmountIn.sub(usdAmountIn.mul(productFee).mul(10).div(productFeeTotal));\r\n\r\n        TransferHelper.safeApprove(token.tokenAddress, dexRouterAddress, amountIn);\r\n\r\n        if(token.intermediateToken == address(0)){\r\n            tokensSold = tokensSold.add(dexRouter.exactInputSingle(\r\n                ISwapRouter.ExactInputSingleParams({\r\n                    tokenIn: token.tokenAddress,\r\n                    tokenOut: buyTokenAddress,\r\n                    fee: token.poolFees[0],\r\n                    recipient: address(this),\r\n                    deadline: block.timestamp,\r\n                    amountIn: amountIn,\r\n                    amountOutMinimum: amountOutMinimum,\r\n                    sqrtPriceLimitX96: 0\r\n                })\r\n            ));\r\n        }else{\r\n            tokensSold = tokensSold.add(dexRouter.exactInput(\r\n                ISwapRouter.ExactInputParams({\r\n                    path: abi.encodePacked(\r\n                        token.tokenAddress,\r\n                        token.poolFees[1],\r\n                        token.intermediateToken,\r\n                        token.poolFees[0],\r\n                        buyTokenAddress\r\n                    ),\r\n                    recipient: address(this),\r\n                    deadline: block.timestamp,\r\n                    amountIn: amountIn,\r\n                    amountOutMinimum: amountOutMinimum\r\n                })\r\n            ));\r\n        }\r\n    }\r\n\r\n    function manageTokensBuy(TokenInfo memory token, ISwapRouter dexRouter, uint amount, uint tokenPrice) private {\r\n        uint amountOut = amount.mul(1 ether).div(tokenPrice);\r\n        uint amountInMaximum = amount.add(amount.mul(productFee).mul(10).div(productFeeTotal));\r\n\r\n        if(token.intermediateToken == address(0)){\r\n            buyAmountRequired = buyAmountRequired.add(dexRouter.exactOutputSingle(\r\n                ISwapRouter.ExactOutputSingleParams({\r\n                    tokenIn: buyTokenAddress,\r\n                    tokenOut: token.tokenAddress,\r\n                    fee: token.poolFees[0],\r\n                    recipient: address(this),\r\n                    deadline: block.timestamp,\r\n                    amountOut: amountOut,\r\n                    amountInMaximum: amountInMaximum,\r\n                    sqrtPriceLimitX96: 0\r\n                })\r\n            ));\r\n        }else{\r\n            buyAmountRequired = buyAmountRequired.add(dexRouter.exactOutput(\r\n                ISwapRouter.ExactOutputParams({\r\n                    path: abi.encodePacked(\r\n                        token.tokenAddress,\r\n                        token.poolFees[1],\r\n                        token.intermediateToken,\r\n                        token.poolFees[0],\r\n                        buyTokenAddress\r\n                    ),\r\n                    recipient: address(this),\r\n                    deadline: block.timestamp,\r\n                    amountOut: amountOut,\r\n                    amountInMaximum: amountInMaximum\r\n                })\r\n            ));\r\n        }\r\n    }\r\n\r\n    function manageTokens() external onlyOwner {\r\n        lastManagedToken += 1;\r\n        if(lastManagedToken > tokens.length - 1){ lastManagedToken = 0; }\r\n\r\n        TokenInfo memory token = tokens[lastManagedToken];\r\n        uint tokensToBuyAmount = tokensToBuy.mul(token.indexPercentage).div(100);\r\n        uint tokenPrice = getTokenPrice(token);\r\n        ISwapRouter dexRouter = ISwapRouter(dexRouterAddress);\r\n\r\n        if(tokensToBuyAmount > 0){\r\n            manageTokensBuy(token, dexRouter, tokensToBuyAmount, tokenPrice);\r\n        }\r\n\r\n        if(tokensToSell > 0){\r\n            manageTokensSell(token, dexRouter, tokensToSell, tokenPrice);\r\n        }\r\n    }\r\n\r\n    function getPrice() public view override returns (uint) {\r\n        uint indexTotalPrice = 0;\r\n\r\n        for (uint i = 0; i < tokens.length; i++) {\r\n            TokenInfo memory token = tokens[i];\r\n            indexTotalPrice = indexTotalPrice.add(\r\n                getTokenPrice(token).mul(token.indexPercentage).div(100)\r\n            );\r\n        }\r\n\r\n        return indexTotalPrice;\r\n    }\r\n\r\n}\r\n",
  "sourcePath": "D:\\JavascriptProjects\\crypto-index\\contracts\\indices\\Index.sol",
  "compiler": {
    "name": "solc",
    "version": "0.7.6+commit.7338295f.Emscripten.clang"
  },
  "schemaVersion": "3.4.7",
  "updatedAt": "2022-06-08T12:47:09.606Z",
  "devdoc": {
    "kind": "dev",
    "methods": {
      "owner()": {
        "details": "Returns the address of the current owner."
      },
      "renounceOwnership()": {
        "details": "Leaves the contract without owner. It will not be possible to call `onlyOwner` functions anymore. Can only be called by the current owner. NOTE: Renouncing ownership will leave the contract without an owner, thereby removing any functionality that is only available to the owner."
      },
      "transferOwnership(address)": {
        "details": "Transfers ownership of the contract to a new account (`newOwner`). Can only be called by the current owner."
      }
    },
    "version": 1
  },
  "userdoc": {
    "kind": "user",
    "methods": {},
    "version": 1
  }
}