{
  "contractName": "Index",
  "abi": [
    {
      "inputs": [],
      "stateMutability": "nonpayable",
      "type": "constructor"
    },
    {
      "anonymous": false,
      "inputs": [
        {
          "indexed": true,
          "internalType": "address",
          "name": "_owner",
          "type": "address"
        },
        {
          "indexed": true,
          "internalType": "address",
          "name": "_spender",
          "type": "address"
        },
        {
          "indexed": false,
          "internalType": "uint256",
          "name": "_value",
          "type": "uint256"
        }
      ],
      "name": "Approval",
      "type": "event"
    },
    {
      "anonymous": false,
      "inputs": [
        {
          "indexed": true,
          "internalType": "address",
          "name": "_from",
          "type": "address"
        },
        {
          "indexed": true,
          "internalType": "address",
          "name": "_to",
          "type": "address"
        },
        {
          "indexed": false,
          "internalType": "uint256",
          "name": "_value",
          "type": "uint256"
        }
      ],
      "name": "Transfer",
      "type": "event"
    },
    {
      "inputs": [
        {
          "internalType": "address",
          "name": "",
          "type": "address"
        },
        {
          "internalType": "address",
          "name": "",
          "type": "address"
        }
      ],
      "name": "allowed",
      "outputs": [
        {
          "internalType": "uint256",
          "name": "",
          "type": "uint256"
        }
      ],
      "stateMutability": "view",
      "type": "function",
      "constant": true
    },
    {
      "inputs": [
        {
          "internalType": "address",
          "name": "",
          "type": "address"
        }
      ],
      "name": "balances",
      "outputs": [
        {
          "internalType": "uint256",
          "name": "",
          "type": "uint256"
        }
      ],
      "stateMutability": "view",
      "type": "function",
      "constant": true
    },
    {
      "inputs": [],
      "name": "decimals",
      "outputs": [
        {
          "internalType": "uint8",
          "name": "",
          "type": "uint8"
        }
      ],
      "stateMutability": "view",
      "type": "function",
      "constant": true
    },
    {
      "inputs": [
        {
          "internalType": "address",
          "name": "",
          "type": "address"
        }
      ],
      "name": "investors",
      "outputs": [
        {
          "internalType": "uint256",
          "name": "",
          "type": "uint256"
        }
      ],
      "stateMutability": "view",
      "type": "function",
      "constant": true
    },
    {
      "inputs": [],
      "name": "name",
      "outputs": [
        {
          "internalType": "string",
          "name": "",
          "type": "string"
        }
      ],
      "stateMutability": "view",
      "type": "function",
      "constant": true
    },
    {
      "inputs": [],
      "name": "symbol",
      "outputs": [
        {
          "internalType": "string",
          "name": "",
          "type": "string"
        }
      ],
      "stateMutability": "view",
      "type": "function",
      "constant": true
    },
    {
      "inputs": [
        {
          "internalType": "uint256",
          "name": "",
          "type": "uint256"
        }
      ],
      "name": "tokens",
      "outputs": [
        {
          "internalType": "string",
          "name": "",
          "type": "string"
        }
      ],
      "stateMutability": "view",
      "type": "function",
      "constant": true
    },
    {
      "inputs": [],
      "name": "totalFunds",
      "outputs": [
        {
          "internalType": "uint256",
          "name": "",
          "type": "uint256"
        }
      ],
      "stateMutability": "view",
      "type": "function",
      "constant": true
    },
    {
      "inputs": [],
      "name": "totalSupply",
      "outputs": [
        {
          "internalType": "uint256",
          "name": "",
          "type": "uint256"
        }
      ],
      "stateMutability": "view",
      "type": "function",
      "constant": true
    },
    {
      "inputs": [
        {
          "internalType": "address",
          "name": "_to",
          "type": "address"
        },
        {
          "internalType": "uint256",
          "name": "_value",
          "type": "uint256"
        }
      ],
      "name": "transfer",
      "outputs": [
        {
          "internalType": "bool",
          "name": "success",
          "type": "bool"
        }
      ],
      "stateMutability": "nonpayable",
      "type": "function"
    },
    {
      "inputs": [
        {
          "internalType": "address",
          "name": "_from",
          "type": "address"
        },
        {
          "internalType": "address",
          "name": "_to",
          "type": "address"
        },
        {
          "internalType": "uint256",
          "name": "_value",
          "type": "uint256"
        }
      ],
      "name": "transferFrom",
      "outputs": [
        {
          "internalType": "bool",
          "name": "success",
          "type": "bool"
        }
      ],
      "stateMutability": "nonpayable",
      "type": "function"
    },
    {
      "inputs": [
        {
          "internalType": "address",
          "name": "_owner",
          "type": "address"
        }
      ],
      "name": "balanceOf",
      "outputs": [
        {
          "internalType": "uint256",
          "name": "balance",
          "type": "uint256"
        }
      ],
      "stateMutability": "view",
      "type": "function",
      "constant": true
    },
    {
      "inputs": [
        {
          "internalType": "address",
          "name": "_spender",
          "type": "address"
        },
        {
          "internalType": "uint256",
          "name": "_value",
          "type": "uint256"
        }
      ],
      "name": "approve",
      "outputs": [
        {
          "internalType": "bool",
          "name": "success",
          "type": "bool"
        }
      ],
      "stateMutability": "nonpayable",
      "type": "function"
    },
    {
      "inputs": [
        {
          "internalType": "address",
          "name": "_owner",
          "type": "address"
        },
        {
          "internalType": "address",
          "name": "_spender",
          "type": "address"
        }
      ],
      "name": "allowance",
      "outputs": [
        {
          "internalType": "uint256",
          "name": "remaining",
          "type": "uint256"
        }
      ],
      "stateMutability": "view",
      "type": "function",
      "constant": true
    },
    {
      "inputs": [],
      "name": "getPrice",
      "outputs": [
        {
          "internalType": "uint256",
          "name": "",
          "type": "uint256"
        }
      ],
      "stateMutability": "pure",
      "type": "function",
      "constant": true
    },
    {
      "inputs": [],
      "name": "addFunds",
      "outputs": [],
      "stateMutability": "payable",
      "type": "function",
      "payable": true
    },
    {
      "inputs": [],
      "name": "getTotalPrice",
      "outputs": [
        {
          "internalType": "uint256",
          "name": "",
          "type": "uint256"
        }
      ],
      "stateMutability": "payable",
      "type": "function",
      "payable": true
    }
  ],
  "bytecode": "0x66038d7ea4c6800060049081556101208181527f574254430000000000000000000000000000000000000000000000000000000061014052608090815260036101608181527f45544800000000000000000000000000000000000000000000000000000000006101805260a0526101a09081527f424e4200000000000000000000000000000000000000000000000000000000006101c05260c0526101e08281527f4d414e41000000000000000000000000000000000000000000000000000000006102005260e0526102606040526102209182527f4842415200000000000000000000000000000000000000000000000000000000610240526101009190915262000110906006906005620001e8565b503480156200011e57600080fd5b5033600090815260208181526040808320839055600792909255815180830190925260118083527f436f7272656c6174696f6e20496e646578000000000000000000000000000000929091019182526200017b916008916200024c565b50600a805460ff191660121790556040805180820190915260028082527f43490000000000000000000000000000000000000000000000000000000000006020909201918252620001cf916009916200024c565b5060058054600160a060020a03191633179055620003aa565b8280548282559060005260206000209081019282156200023a579160200282015b828111156200023a5782518051620002299184916020909101906200024c565b509160200191906001019062000209565b5062000248929150620002d7565b5090565b8280546200025a9062000354565b90600052602060002090601f0160209004810192826200027e5760008555620002c9565b82601f106200029957805160ff1916838001178555620002c9565b82800160010185558215620002c9579182015b82811115620002c9578251825591602001919060010190620002ac565b5062000248929150620002f8565b8082111562000248576000620002ee82826200030f565b50600101620002d7565b5b80821115620002485760008155600101620002f9565b5080546200031d9062000354565b6000825580601f1062000331575062000351565b601f016020900490600052602060002090810190620003519190620002f8565b50565b6002810460018216806200036957607f821691505b60208210811415620003a4577f4e487b7100000000000000000000000000000000000000000000000000000000600052602260045260246000fd5b50919050565b610b1280620003ba6000396000f3fe60806040526004361061011b576000357c0100000000000000000000000000000000000000000000000000000000900480636f7bc9be116100b257806398d5fdca1161008157806398d5fdca146102a6578063a26759cb146102bb578063a9059cbb146102c5578063dd62ed3e146102e5578063f475409f146103055761011b565b80636f7bc9be1461023c57806370a082311461025c57806395d89b411461027c578063968ed600146102915761011b565b806327e235e3116100ee57806327e235e3146101ba578063313ce567146101da5780634f64b2be146101fc5780635c6581651461021c5761011b565b806306fdde0314610120578063095ea7b31461014b57806318160ddd1461017857806323b872dd1461019a575b600080fd5b34801561012c57600080fd5b5061013561030d565b60405161014291906108b0565b60405180910390f35b34801561015757600080fd5b5061016b610166366004610864565b61039b565b60405161014291906108a5565b34801561018457600080fd5b5061018d610405565b60405161014291906109f4565b3480156101a657600080fd5b5061016b6101b5366004610829565b61040b565b3480156101c657600080fd5b5061018d6101d53660046107d6565b61057d565b3480156101e657600080fd5b506101ef61058f565b60405161014291906109fd565b34801561020857600080fd5b5061013561021736600461088d565b610598565b34801561022857600080fd5b5061018d6102373660046107f7565b6105c3565b34801561024857600080fd5b5061018d6102573660046107d6565b6105e0565b34801561026857600080fd5b5061018d6102773660046107d6565b6105f2565b34801561028857600080fd5b50610135610611565b34801561029d57600080fd5b5061018d61061e565b3480156102b257600080fd5b5061018d610624565b6102c3610629565b005b3480156102d157600080fd5b5061016b6102e0366004610864565b6106a1565b3480156102f157600080fd5b5061018d6103003660046107f7565b610778565b61018d6107a3565b6008805461031a90610a59565b80601f016020809104026020016040519081016040528092919081815260200182805461034690610a59565b80156103935780601f1061036857610100808354040283529160200191610393565b820191906000526020600020905b81548152906001019060200180831161037657829003601f168201915b505050505081565b336000818152600160209081526040808320600160a060020a038716808552925280832085905551919290917f8c5be1e5ebec7d5bd14f71427d1e84f3dd0314c0f7b2291e5b200ac8c7c3b925906103f49086906109f4565b60405180910390a350600192915050565b60075481565b600160a060020a038316600081815260016020908152604080832033845282528083205493835290829052812054909190831180159061044b5750828110155b61048a576040517f08c379a000000000000000000000000000000000000000000000000000000000815260040161048190610997565b60405180910390fd5b600160a060020a038416600090815260208190526040812080548592906104b2908490610a0b565b9091555050600160a060020a038516600090815260208190526040812080548592906104df908490610a42565b909155505060001981101561052757600160a060020a038516600090815260016020908152604080832033845290915281208054859290610521908490610a42565b90915550505b83600160a060020a031685600160a060020a03167fddf252ad1be2c89b69c2b068fc378daa952ba7f163c4a11628f55a4df523b3ef8560405161056a91906109f4565b60405180910390a3506001949350505050565b60006020819052908152604090205481565b600a5460ff1681565b600681815481106105a857600080fd5b90600052602060002001600091509050805461031a90610a59565b600160209081526000928352604080842090915290825290205481565b60036020526000908152604090205481565b600160a060020a0381166000908152602081905260409020545b919050565b6009805461031a90610a59565b60025481565b606490565b6004543411610664576040517f08c379a000000000000000000000000000000000000000000000000000000000815260040161048190610960565b34600260008282546106769190610a0b565b9091555050336000908152600360205260408120805434929061069a908490610a0b565b9091555050565b336000908152602081905260408120548211156106ea576040517f08c379a000000000000000000000000000000000000000000000000000000000815260040161048190610903565b3360009081526020819052604081208054849290610709908490610a42565b9091555050600160a060020a03831660009081526020819052604081208054849290610736908490610a0b565b9091555050604051600160a060020a0384169033907fddf252ad1be2c89b69c2b068fc378daa952ba7f163c4a11628f55a4df523b3ef906103f49086906109f4565b600160a060020a03918216600090815260016020908152604080832093909416825291909152205490565b60006107ad610624565b6002546107ba9190610a23565b905090565b8035600160a060020a038116811461060c57600080fd5b6000602082840312156107e7578081fd5b6107f0826107bf565b9392505050565b60008060408385031215610809578081fd5b610812836107bf565b9150610820602084016107bf565b90509250929050565b60008060006060848603121561083d578081fd5b610846846107bf565b9250610854602085016107bf565b9150604084013590509250925092565b60008060408385031215610876578182fd5b61087f836107bf565b946020939093013593505050565b60006020828403121561089e578081fd5b5035919050565b901515815260200190565b6000602080835283518082850152825b818110156108dc578581018301518582016040015282016108c0565b818111156108ed5783604083870101525b50601f01601f1916929092016040019392505050565b6020808252602f908201527f746f6b656e2062616c616e6365206973206c6f776572207468616e207468652060408201527f76616c7565207265717565737465640000000000000000000000000000000000606082015260800190565b60208082526013908201527f596f75206d7573742073656e642066756e647300000000000000000000000000604082015260600190565b60208082526039908201527f746f6b656e2062616c616e6365206f7220616c6c6f77616e6365206973206c6f60408201527f776572207468616e20616d6f756e742072657175657374656400000000000000606082015260800190565b90815260200190565b60ff91909116815260200190565b60008219821115610a1e57610a1e610aad565b500190565b6000816000190483118215151615610a3d57610a3d610aad565b500290565b600082821015610a5457610a54610aad565b500390565b600281046001821680610a6d57607f821691505b60208210811415610aa7577f4e487b7100000000000000000000000000000000000000000000000000000000600052602260045260246000fd5b50919050565b7f4e487b7100000000000000000000000000000000000000000000000000000000600052601160045260246000fdfea264697066735822122069e96e61859f3b01951aad263f8ed5558d7d5fe9f875b062d2384b8c8bb29ca164736f6c63430008000033",
  "immutableReferences": {},
  "source": "// SPDX-License-Identifier: MIT\npragma solidity 0.8.0;\nimport './Token.sol';\n\n\ncontract Index is Token {\n    uint256 constant private MAX_UINT256 = 2 ** 256 - 1;\n    mapping (address => uint256) public balances;\n    mapping (address => mapping (address => uint256)) public allowed;\n\n    uint256 public totalFunds;\n    mapping(address => uint256) public investors;\n    uint256 private minimalFundAddition = 1000000000000000;\n    address private owner;\n    string[] public tokens = [\"WBTC\", \"ETH\", \"BNB\", \"MANA\", \"HBAR\"];\n\n    uint256 public totalSupply;\n    string public name;\n    string public symbol;\n    uint8 public decimals;\n\n    constructor() {\n        balances[msg.sender] = 0;\n        totalSupply = 0;\n        name = \"Correlation Index\";\n        decimals = 18;\n        symbol = \"CI\";\n        owner = msg.sender;\n    }\n\n    function transfer(address _to, uint256 _value) public override returns (bool success) {\n        require(balances[msg.sender] >= _value, \"token balance is lower than the value requested\");\n        balances[msg.sender] -= _value;\n        balances[_to] += _value;\n        emit Transfer(msg.sender, _to, _value); //solhint-disable-line indent, no-unused-vars\n        return true;\n    }\n\n    function transferFrom(address _from, address _to, uint256 _value) public override returns (bool success) {\n        uint256 allowedTransfer = allowed[_from][msg.sender];\n        require(\n            balances[_from] >= _value && allowedTransfer >= _value,\n            \"token balance or allowance is lower than amount requested\"\n        );\n        balances[_to] += _value;\n        balances[_from] -= _value;\n        if (allowedTransfer < MAX_UINT256) {\n            allowed[_from][msg.sender] -= _value;\n        }\n        emit Transfer(_from, _to, _value); //solhint-disable-line indent, no-unused-vars\n        return true;\n    }\n\n    function balanceOf(address _owner) public override view returns (uint256 balance) {\n        return balances[_owner];\n    }\n\n    function approve(address _spender, uint256 _value) public override returns (bool success) {\n        allowed[msg.sender][_spender] = _value;\n        emit Approval(msg.sender, _spender, _value); //solhint-disable-line indent, no-unused-vars\n        return true;\n    }\n\n    function allowance(address _owner, address _spender) public override view returns (uint256 remaining) {\n        return allowed[_owner][_spender];\n    }\n\n    function getPrice() public pure returns (uint256) {\n        return 100;\n    }\n\n    function addFunds() public payable {\n        require(msg.value > minimalFundAddition, \"You must send funds\");\n        totalFunds += msg.value;\n        investors[msg.sender] += msg.value;\n    }\n\n    function getTotalPrice() public payable returns(uint256){\n        return totalFunds * getPrice();\n    }\n\n}",
  "sourcePath": "F:\\JavascriptProjects\\hedera-project\\contracts\\Index.sol",
  "compiler": {
    "name": "solc",
    "version": "0.8.0+commit.c7dfd78e.Linux.g++"
  },
  "schemaVersion": "3.4.3",
  "updatedAt": "2022-02-25T22:05:06.082Z",
  "networkType": "ethereum",
  "devdoc": {
    "kind": "dev",
    "methods": {
      "allowance(address,address)": {
        "params": {
          "_owner": "The address of the account owning tokens",
          "_spender": "The address of the account able to transfer the tokens"
        },
        "returns": {
          "remaining": "Amount of remaining tokens allowed to spent"
        }
      },
      "approve(address,uint256)": {
        "params": {
          "_spender": "The address of the account able to transfer the tokens",
          "_value": "The amount of wei to be approved for transfer"
        },
        "returns": {
          "success": "Whether the approval was successful or not"
        }
      },
      "balanceOf(address)": {
        "params": {
          "_owner": "The address from which the balance will be retrieved"
        },
        "returns": {
          "balance": "the balance"
        }
      },
      "transfer(address,uint256)": {
        "params": {
          "_to": "The address of the recipient",
          "_value": "The amount of token to be transferred"
        },
        "returns": {
          "success": "Whether the transfer was successful or not"
        }
      },
      "transferFrom(address,address,uint256)": {
        "params": {
          "_from": "The address of the sender",
          "_to": "The address of the recipient",
          "_value": "The amount of token to be transferred"
        },
        "returns": {
          "success": "Whether the transfer was successful or not"
        }
      }
    },
    "version": 1
  },
  "userdoc": {
    "kind": "user",
    "methods": {
      "approve(address,uint256)": {
        "notice": "`msg.sender` approves `_addr` to spend `_value` tokens"
      },
      "transfer(address,uint256)": {
        "notice": "send `_value` token to `_to` from `msg.sender`"
      },
      "transferFrom(address,address,uint256)": {
        "notice": "send `_value` token to `_to` from `_from` on the condition it is approved by `_from`"
      }
    },
    "version": 1
  }
}