{
  "contractName": "Index",
  "abi": [
    {
      "inputs": [
        {
          "internalType": "uint256",
          "name": "_initialAmount",
          "type": "uint256"
        }
      ],
      "stateMutability": "nonpayable",
      "type": "constructor"
    },
    {
      "anonymous": false,
      "inputs": [
        {
          "indexed": true,
          "internalType": "address",
          "name": "_owner",
          "type": "address"
        },
        {
          "indexed": true,
          "internalType": "address",
          "name": "_spender",
          "type": "address"
        },
        {
          "indexed": false,
          "internalType": "uint256",
          "name": "_value",
          "type": "uint256"
        }
      ],
      "name": "Approval",
      "type": "event"
    },
    {
      "anonymous": false,
      "inputs": [
        {
          "indexed": true,
          "internalType": "address",
          "name": "_from",
          "type": "address"
        },
        {
          "indexed": true,
          "internalType": "address",
          "name": "_to",
          "type": "address"
        },
        {
          "indexed": false,
          "internalType": "uint256",
          "name": "_value",
          "type": "uint256"
        }
      ],
      "name": "Transfer",
      "type": "event"
    },
    {
      "inputs": [
        {
          "internalType": "address",
          "name": "",
          "type": "address"
        },
        {
          "internalType": "address",
          "name": "",
          "type": "address"
        }
      ],
      "name": "allowed",
      "outputs": [
        {
          "internalType": "uint256",
          "name": "",
          "type": "uint256"
        }
      ],
      "stateMutability": "view",
      "type": "function"
    },
    {
      "inputs": [
        {
          "internalType": "address",
          "name": "",
          "type": "address"
        }
      ],
      "name": "balances",
      "outputs": [
        {
          "internalType": "uint256",
          "name": "",
          "type": "uint256"
        }
      ],
      "stateMutability": "view",
      "type": "function"
    },
    {
      "inputs": [],
      "name": "decimals",
      "outputs": [
        {
          "internalType": "uint8",
          "name": "",
          "type": "uint8"
        }
      ],
      "stateMutability": "view",
      "type": "function"
    },
    {
      "inputs": [
        {
          "internalType": "address",
          "name": "",
          "type": "address"
        }
      ],
      "name": "investors",
      "outputs": [
        {
          "internalType": "uint256",
          "name": "",
          "type": "uint256"
        }
      ],
      "stateMutability": "view",
      "type": "function"
    },
    {
      "inputs": [],
      "name": "name",
      "outputs": [
        {
          "internalType": "string",
          "name": "",
          "type": "string"
        }
      ],
      "stateMutability": "view",
      "type": "function"
    },
    {
      "inputs": [],
      "name": "symbol",
      "outputs": [
        {
          "internalType": "string",
          "name": "",
          "type": "string"
        }
      ],
      "stateMutability": "view",
      "type": "function"
    },
    {
      "inputs": [
        {
          "internalType": "uint256",
          "name": "",
          "type": "uint256"
        }
      ],
      "name": "tokens",
      "outputs": [
        {
          "internalType": "string",
          "name": "",
          "type": "string"
        }
      ],
      "stateMutability": "view",
      "type": "function"
    },
    {
      "inputs": [],
      "name": "totalFunds",
      "outputs": [
        {
          "internalType": "uint256",
          "name": "",
          "type": "uint256"
        }
      ],
      "stateMutability": "view",
      "type": "function"
    },
    {
      "inputs": [],
      "name": "totalSupply",
      "outputs": [
        {
          "internalType": "uint256",
          "name": "",
          "type": "uint256"
        }
      ],
      "stateMutability": "view",
      "type": "function"
    },
    {
      "inputs": [
        {
          "internalType": "address",
          "name": "_to",
          "type": "address"
        },
        {
          "internalType": "uint256",
          "name": "_value",
          "type": "uint256"
        }
      ],
      "name": "transfer",
      "outputs": [
        {
          "internalType": "bool",
          "name": "success",
          "type": "bool"
        }
      ],
      "stateMutability": "nonpayable",
      "type": "function"
    },
    {
      "inputs": [
        {
          "internalType": "address",
          "name": "_from",
          "type": "address"
        },
        {
          "internalType": "address",
          "name": "_to",
          "type": "address"
        },
        {
          "internalType": "uint256",
          "name": "_value",
          "type": "uint256"
        }
      ],
      "name": "transferFrom",
      "outputs": [
        {
          "internalType": "bool",
          "name": "success",
          "type": "bool"
        }
      ],
      "stateMutability": "nonpayable",
      "type": "function"
    },
    {
      "inputs": [
        {
          "internalType": "address",
          "name": "_owner",
          "type": "address"
        }
      ],
      "name": "balanceOf",
      "outputs": [
        {
          "internalType": "uint256",
          "name": "balance",
          "type": "uint256"
        }
      ],
      "stateMutability": "view",
      "type": "function"
    },
    {
      "inputs": [
        {
          "internalType": "address",
          "name": "_spender",
          "type": "address"
        },
        {
          "internalType": "uint256",
          "name": "_value",
          "type": "uint256"
        }
      ],
      "name": "approve",
      "outputs": [
        {
          "internalType": "bool",
          "name": "success",
          "type": "bool"
        }
      ],
      "stateMutability": "nonpayable",
      "type": "function"
    },
    {
      "inputs": [
        {
          "internalType": "address",
          "name": "_owner",
          "type": "address"
        },
        {
          "internalType": "address",
          "name": "_spender",
          "type": "address"
        }
      ],
      "name": "allowance",
      "outputs": [
        {
          "internalType": "uint256",
          "name": "remaining",
          "type": "uint256"
        }
      ],
      "stateMutability": "view",
      "type": "function"
    },
    {
      "inputs": [],
      "name": "getPrice",
      "outputs": [
        {
          "internalType": "uint256",
          "name": "",
          "type": "uint256"
        }
      ],
      "stateMutability": "pure",
      "type": "function"
    },
    {
      "inputs": [],
      "name": "addFunds",
      "outputs": [],
      "stateMutability": "payable",
      "type": "function"
    },
    {
      "inputs": [],
      "name": "getTotalPrice",
      "outputs": [
        {
          "internalType": "uint256",
          "name": "",
          "type": "uint256"
        }
      ],
      "stateMutability": "payable",
      "type": "function"
    }
  ],
  "bytecode": "0x608060405266038d7ea4c680006004556040518060a001604052806040518060400160405280600481526020017f574254430000000000000000000000000000000000000000000000000000000081525081526020016040518060400160405280600381526020017f455448000000000000000000000000000000000000000000000000000000000081525081526020016040518060400160405280600381526020017f424e42000000000000000000000000000000000000000000000000000000000081525081526020016040518060400160405280600481526020017f4d414e410000000000000000000000000000000000000000000000000000000081525081526020016040518060400160405280600481526020017f4842415200000000000000000000000000000000000000000000000000000000815250815250600690600562000151929190620002c8565b506040518060400160405280601181526020017f436f7272656c6174696f6e20496e646578000000000000000000000000000000815250600890805190602001906200019f9291906200032f565b506040518060400160405280600281526020017f434900000000000000000000000000000000000000000000000000000000000081525060099080519060200190620001ed9291906200032f565b506012600a60006101000a81548160ff021916908360ff1602179055503480156200021757600080fd5b50604051620018e9380380620018e983398181016040528101906200023d919062000464565b806000803373ffffffffffffffffffffffffffffffffffffffff1673ffffffffffffffffffffffffffffffffffffffff1681526020019081526020016000208190555033600560006101000a81548173ffffffffffffffffffffffffffffffffffffffff021916908373ffffffffffffffffffffffffffffffffffffffff1602179055505062000519565b8280548282559060005260206000209081019282156200031c579160200282015b828111156200031b5782518290805190602001906200030a9291906200032f565b5091602001919060010190620002e9565b5b5090506200032b9190620003c0565b5090565b8280546200033d906200049a565b90600052602060002090601f016020900481019282620003615760008555620003ad565b82601f106200037c57805160ff1916838001178555620003ad565b82800160010185558215620003ad579182015b82811115620003ac5782518255916020019190600101906200038f565b5b509050620003bc9190620003e8565b5090565b5b80821115620003e45760008181620003da919062000407565b50600101620003c1565b5090565b5b8082111562000403576000816000905550600101620003e9565b5090565b50805462000415906200049a565b6000825580601f106200042957506200044a565b601f016020900490600052602060002090810190620004499190620003e8565b5b50565b6000815190506200045e81620004ff565b92915050565b6000602082840312156200047757600080fd5b600062000487848285016200044d565b91505092915050565b6000819050919050565b60006002820490506001821680620004b357607f821691505b60208210811415620004ca57620004c9620004d0565b5b50919050565b7f4e487b7100000000000000000000000000000000000000000000000000000000600052602260045260246000fd5b6200050a8162000490565b81146200051657600080fd5b50565b6113c080620005296000396000f3fe6080604052600436106100fe5760003560e01c80636f7bc9be1161009557806398d5fdca1161006457806398d5fdca14610385578063a26759cb146103b0578063a9059cbb146103ba578063dd62ed3e146103f7578063f475409f14610434576100fe565b80636f7bc9be146102b557806370a08231146102f257806395d89b411461032f578063968ed6001461035a576100fe565b806327e235e3116100d157806327e235e3146101d3578063313ce567146102105780634f64b2be1461023b5780635c65816514610278576100fe565b806306fdde0314610103578063095ea7b31461012e57806318160ddd1461016b57806323b872dd14610196575b600080fd5b34801561010f57600080fd5b50610118610452565b604051610125919061107b565b60405180910390f35b34801561013a57600080fd5b5061015560048036038101906101509190610e89565b6104e0565b6040516101629190611060565b60405180910390f35b34801561017757600080fd5b506101806105d2565b60405161018d91906110fd565b60405180910390f35b3480156101a257600080fd5b506101bd60048036038101906101b89190610e3a565b6105d8565b6040516101ca9190611060565b60405180910390f35b3480156101df57600080fd5b506101fa60048036038101906101f59190610dd5565b6108be565b60405161020791906110fd565b60405180910390f35b34801561021c57600080fd5b506102256108d6565b6040516102329190611118565b60405180910390f35b34801561024757600080fd5b50610262600480360381019061025d9190610ec5565b6108e9565b60405161026f919061107b565b60405180910390f35b34801561028457600080fd5b5061029f600480360381019061029a9190610dfe565b610995565b6040516102ac91906110fd565b60405180910390f35b3480156102c157600080fd5b506102dc60048036038101906102d79190610dd5565b6109ba565b6040516102e991906110fd565b60405180910390f35b3480156102fe57600080fd5b5061031960048036038101906103149190610dd5565b6109d2565b60405161032691906110fd565b60405180910390f35b34801561033b57600080fd5b50610344610a1a565b604051610351919061107b565b60405180910390f35b34801561036657600080fd5b5061036f610aa8565b60405161037c91906110fd565b60405180910390f35b34801561039157600080fd5b5061039a610aae565b6040516103a791906110fd565b60405180910390f35b6103b8610ab7565b005b3480156103c657600080fd5b506103e160048036038101906103dc9190610e89565b610b6c565b6040516103ee9190611060565b60405180910390f35b34801561040357600080fd5b5061041e60048036038101906104199190610dfe565b610d08565b60405161042b91906110fd565b60405180910390f35b61043c610d8f565b60405161044991906110fd565b60405180910390f35b6008805461045f906112bb565b80601f016020809104026020016040519081016040528092919081815260200182805461048b906112bb565b80156104d85780601f106104ad576101008083540402835291602001916104d8565b820191906000526020600020905b8154815290600101906020018083116104bb57829003601f168201915b505050505081565b600081600160003373ffffffffffffffffffffffffffffffffffffffff1673ffffffffffffffffffffffffffffffffffffffff16815260200190815260200160002060008573ffffffffffffffffffffffffffffffffffffffff1673ffffffffffffffffffffffffffffffffffffffff168152602001908152602001600020819055508273ffffffffffffffffffffffffffffffffffffffff163373ffffffffffffffffffffffffffffffffffffffff167f8c5be1e5ebec7d5bd14f71427d1e84f3dd0314c0f7b2291e5b200ac8c7c3b925846040516105c091906110fd565b60405180910390a36001905092915050565b60075481565b600080600160008673ffffffffffffffffffffffffffffffffffffffff1673ffffffffffffffffffffffffffffffffffffffff16815260200190815260200160002060003373ffffffffffffffffffffffffffffffffffffffff1673ffffffffffffffffffffffffffffffffffffffff168152602001908152602001600020549050826000808773ffffffffffffffffffffffffffffffffffffffff1673ffffffffffffffffffffffffffffffffffffffff16815260200190815260200160002054101580156106a85750828110155b6106e7576040517f08c379a00000000000000000000000000000000000000000000000000000000081526004016106de906110dd565b60405180910390fd5b826000808673ffffffffffffffffffffffffffffffffffffffff1673ffffffffffffffffffffffffffffffffffffffff1681526020019081526020016000206000828254610735919061114f565b92505081905550826000808773ffffffffffffffffffffffffffffffffffffffff1673ffffffffffffffffffffffffffffffffffffffff168152602001908152602001600020600082825461078a91906111ff565b925050819055507fffffffffffffffffffffffffffffffffffffffffffffffffffffffffffffffff81101561084d5782600160008773ffffffffffffffffffffffffffffffffffffffff1673ffffffffffffffffffffffffffffffffffffffff16815260200190815260200160002060003373ffffffffffffffffffffffffffffffffffffffff1673ffffffffffffffffffffffffffffffffffffffff168152602001908152602001600020600082825461084591906111ff565b925050819055505b8373ffffffffffffffffffffffffffffffffffffffff168573ffffffffffffffffffffffffffffffffffffffff167fddf252ad1be2c89b69c2b068fc378daa952ba7f163c4a11628f55a4df523b3ef856040516108aa91906110fd565b60405180910390a360019150509392505050565b60006020528060005260406000206000915090505481565b600a60009054906101000a900460ff1681565b600681815481106108f957600080fd5b906000526020600020016000915090508054610914906112bb565b80601f0160208091040260200160405190810160405280929190818152602001828054610940906112bb565b801561098d5780601f106109625761010080835404028352916020019161098d565b820191906000526020600020905b81548152906001019060200180831161097057829003601f168201915b505050505081565b6001602052816000526040600020602052806000526040600020600091509150505481565b60036020528060005260406000206000915090505481565b60008060008373ffffffffffffffffffffffffffffffffffffffff1673ffffffffffffffffffffffffffffffffffffffff168152602001908152602001600020549050919050565b60098054610a27906112bb565b80601f0160208091040260200160405190810160405280929190818152602001828054610a53906112bb565b8015610aa05780601f10610a7557610100808354040283529160200191610aa0565b820191906000526020600020905b815481529060010190602001808311610a8357829003601f168201915b505050505081565b60025481565b60006064905090565b6004543411610afb576040517f08c379a0000000000000000000000000000000000000000000000000000000008152600401610af2906110bd565b60405180910390fd5b3460026000828254610b0d919061114f565b9250508190555034600360003373ffffffffffffffffffffffffffffffffffffffff1673ffffffffffffffffffffffffffffffffffffffff1681526020019081526020016000206000828254610b63919061114f565b92505081905550565b6000816000803373ffffffffffffffffffffffffffffffffffffffff1673ffffffffffffffffffffffffffffffffffffffff168152602001908152602001600020541015610bef576040517f08c379a0000000000000000000000000000000000000000000000000000000008152600401610be69061109d565b60405180910390fd5b816000803373ffffffffffffffffffffffffffffffffffffffff1673ffffffffffffffffffffffffffffffffffffffff1681526020019081526020016000206000828254610c3d91906111ff565b92505081905550816000808573ffffffffffffffffffffffffffffffffffffffff1673ffffffffffffffffffffffffffffffffffffffff1681526020019081526020016000206000828254610c92919061114f565b925050819055508273ffffffffffffffffffffffffffffffffffffffff163373ffffffffffffffffffffffffffffffffffffffff167fddf252ad1be2c89b69c2b068fc378daa952ba7f163c4a11628f55a4df523b3ef84604051610cf691906110fd565b60405180910390a36001905092915050565b6000600160008473ffffffffffffffffffffffffffffffffffffffff1673ffffffffffffffffffffffffffffffffffffffff16815260200190815260200160002060008373ffffffffffffffffffffffffffffffffffffffff1673ffffffffffffffffffffffffffffffffffffffff16815260200190815260200160002054905092915050565b6000610d99610aae565b600254610da691906111a5565b905090565b600081359050610dba8161135c565b92915050565b600081359050610dcf81611373565b92915050565b600060208284031215610de757600080fd5b6000610df584828501610dab565b91505092915050565b60008060408385031215610e1157600080fd5b6000610e1f85828601610dab565b9250506020610e3085828601610dab565b9150509250929050565b600080600060608486031215610e4f57600080fd5b6000610e5d86828701610dab565b9350506020610e6e86828701610dab565b9250506040610e7f86828701610dc0565b9150509250925092565b60008060408385031215610e9c57600080fd5b6000610eaa85828601610dab565b9250506020610ebb85828601610dc0565b9150509250929050565b600060208284031215610ed757600080fd5b6000610ee584828501610dc0565b91505092915050565b610ef781611245565b82525050565b6000610f0882611133565b610f12818561113e565b9350610f22818560208601611288565b610f2b8161134b565b840191505092915050565b6000610f43602f8361113e565b91507f746f6b656e2062616c616e6365206973206c6f776572207468616e207468652060008301527f76616c75652072657175657374656400000000000000000000000000000000006020830152604082019050919050565b6000610fa960138361113e565b91507f596f75206d7573742073656e642066756e6473000000000000000000000000006000830152602082019050919050565b6000610fe960398361113e565b91507f746f6b656e2062616c616e6365206f7220616c6c6f77616e6365206973206c6f60008301527f776572207468616e20616d6f756e7420726571756573746564000000000000006020830152604082019050919050565b61104b81611271565b82525050565b61105a8161127b565b82525050565b60006020820190506110756000830184610eee565b92915050565b600060208201905081810360008301526110958184610efd565b905092915050565b600060208201905081810360008301526110b681610f36565b9050919050565b600060208201905081810360008301526110d681610f9c565b9050919050565b600060208201905081810360008301526110f681610fdc565b9050919050565b60006020820190506111126000830184611042565b92915050565b600060208201905061112d6000830184611051565b92915050565b600081519050919050565b600082825260208201905092915050565b600061115a82611271565b915061116583611271565b9250827fffffffffffffffffffffffffffffffffffffffffffffffffffffffffffffffff0382111561119a576111996112ed565b5b828201905092915050565b60006111b082611271565b91506111bb83611271565b9250817fffffffffffffffffffffffffffffffffffffffffffffffffffffffffffffffff04831182151516156111f4576111f36112ed565b5b828202905092915050565b600061120a82611271565b915061121583611271565b925082821015611228576112276112ed565b5b828203905092915050565b600061123e82611251565b9050919050565b60008115159050919050565b600073ffffffffffffffffffffffffffffffffffffffff82169050919050565b6000819050919050565b600060ff82169050919050565b60005b838110156112a657808201518184015260208101905061128b565b838111156112b5576000848401525b50505050565b600060028204905060018216806112d357607f821691505b602082108114156112e7576112e661131c565b5b50919050565b7f4e487b7100000000000000000000000000000000000000000000000000000000600052601160045260246000fd5b7f4e487b7100000000000000000000000000000000000000000000000000000000600052602260045260246000fd5b6000601f19601f8301169050919050565b61136581611233565b811461137057600080fd5b50565b61137c81611271565b811461138757600080fd5b5056fea264697066735822122007a187e95d6edfbe9009bf68a2380e0cebce324b90d647cbcd17606f57e82f7664736f6c63430008000033",
  "immutableReferences": {},
  "source": "// SPDX-License-Identifier: MIT\npragma solidity ^0.8.0;\nimport './Token.sol';\n\n\ncontract Index is Token {\n    uint256 constant private MAX_UINT256 = 2 ** 256 - 1;\n    mapping (address => uint256) public balances;\n    mapping (address => mapping (address => uint256)) public allowed;\n\n    uint256 public totalFunds;\n    mapping(address => uint256) public investors;\n    uint256 private minimalFundAddition = 1000000000000000;\n    address private owner;\n    string[] public tokens = [\"WBTC\", \"ETH\", \"BNB\", \"MANA\", \"HBAR\"];\n\n    uint256 public totalSupply;\n    string public name = \"Correlation Index\";\n    string public symbol = \"CI\";\n    uint8 public decimals = 18;\n\n    constructor(uint256 _initialAmount) {\n        balances[msg.sender] = _initialAmount;\n        owner = msg.sender;\n    }\n\n    function transfer(address _to, uint256 _value) public override returns (bool success) {\n        require(balances[msg.sender] >= _value, \"token balance is lower than the value requested\");\n        balances[msg.sender] -= _value;\n        balances[_to] += _value;\n        emit Transfer(msg.sender, _to, _value); //solhint-disable-line indent, no-unused-vars\n        return true;\n    }\n\n    function transferFrom(address _from, address _to, uint256 _value) public override returns (bool success) {\n        uint256 allowedTransfer = allowed[_from][msg.sender];\n        require(\n            balances[_from] >= _value && allowedTransfer >= _value,\n            \"token balance or allowance is lower than amount requested\"\n        );\n        balances[_to] += _value;\n        balances[_from] -= _value;\n        if (allowedTransfer < MAX_UINT256) {\n            allowed[_from][msg.sender] -= _value;\n        }\n        emit Transfer(_from, _to, _value); //solhint-disable-line indent, no-unused-vars\n        return true;\n    }\n\n    function balanceOf(address _owner) public override view returns (uint256 balance) {\n        return balances[_owner];\n    }\n\n    function approve(address _spender, uint256 _value) public override returns (bool success) {\n        allowed[msg.sender][_spender] = _value;\n        emit Approval(msg.sender, _spender, _value); //solhint-disable-line indent, no-unused-vars\n        return true;\n    }\n\n    function allowance(address _owner, address _spender) public override view returns (uint256 remaining) {\n        return allowed[_owner][_spender];\n    }\n\n    function getPrice() public pure returns (uint256) {\n        return 100;\n    }\n\n    function addFunds() public payable {\n        require(msg.value > minimalFundAddition, \"You must send funds\");\n        totalFunds += msg.value;\n        investors[msg.sender] += msg.value;\n    }\n\n    function getTotalPrice() public payable returns(uint256){\n        return totalFunds * getPrice();\n    }\n\n}",
  "sourcePath": "F:\\JavascriptProjects\\hedera-project\\contracts\\Index.sol",
  "compiler": {
    "name": "solc",
    "version": "0.8.0+commit.c7dfd78e.Linux.g++"
  },
  "schemaVersion": "3.4.3",
  "updatedAt": "2022-02-24T19:10:46.538Z",
  "devdoc": {
    "kind": "dev",
    "methods": {
      "allowance(address,address)": {
        "params": {
          "_owner": "The address of the account owning tokens",
          "_spender": "The address of the account able to transfer the tokens"
        },
        "returns": {
          "remaining": "Amount of remaining tokens allowed to spent"
        }
      },
      "approve(address,uint256)": {
        "params": {
          "_spender": "The address of the account able to transfer the tokens",
          "_value": "The amount of wei to be approved for transfer"
        },
        "returns": {
          "success": "Whether the approval was successful or not"
        }
      },
      "balanceOf(address)": {
        "params": {
          "_owner": "The address from which the balance will be retrieved"
        },
        "returns": {
          "balance": "the balance"
        }
      },
      "transfer(address,uint256)": {
        "params": {
          "_to": "The address of the recipient",
          "_value": "The amount of token to be transferred"
        },
        "returns": {
          "success": "Whether the transfer was successful or not"
        }
      },
      "transferFrom(address,address,uint256)": {
        "params": {
          "_from": "The address of the sender",
          "_to": "The address of the recipient",
          "_value": "The amount of token to be transferred"
        },
        "returns": {
          "success": "Whether the transfer was successful or not"
        }
      }
    },
    "version": 1
  },
  "userdoc": {
    "kind": "user",
    "methods": {
      "approve(address,uint256)": {
        "notice": "`msg.sender` approves `_addr` to spend `_value` tokens"
      },
      "transfer(address,uint256)": {
        "notice": "send `_value` token to `_to` from `msg.sender`"
      },
      "transferFrom(address,address,uint256)": {
        "notice": "send `_value` token to `_to` from `_from` on the condition it is approved by `_from`"
      }
    },
    "version": 1
  }
}