{
  "contractName": "Index",
  "abi": [
    {
      "anonymous": false,
      "inputs": [
        {
          "indexed": true,
          "internalType": "address",
          "name": "previousOwner",
          "type": "address"
        },
        {
          "indexed": true,
          "internalType": "address",
          "name": "newOwner",
          "type": "address"
        }
      ],
      "name": "OwnershipTransferred",
      "type": "event"
    },
    {
      "inputs": [
        {
          "internalType": "address",
          "name": "",
          "type": "address"
        }
      ],
      "name": "investors",
      "outputs": [
        {
          "internalType": "uint256",
          "name": "",
          "type": "uint256"
        }
      ],
      "stateMutability": "view",
      "type": "function"
    },
    {
      "inputs": [],
      "name": "name",
      "outputs": [
        {
          "internalType": "string",
          "name": "",
          "type": "string"
        }
      ],
      "stateMutability": "view",
      "type": "function"
    },
    {
      "inputs": [],
      "name": "owner",
      "outputs": [
        {
          "internalType": "address",
          "name": "",
          "type": "address"
        }
      ],
      "stateMutability": "view",
      "type": "function"
    },
    {
      "inputs": [],
      "name": "renounceOwnership",
      "outputs": [],
      "stateMutability": "nonpayable",
      "type": "function"
    },
    {
      "inputs": [],
      "name": "symbol",
      "outputs": [
        {
          "internalType": "string",
          "name": "",
          "type": "string"
        }
      ],
      "stateMutability": "view",
      "type": "function"
    },
    {
      "inputs": [
        {
          "internalType": "uint256",
          "name": "",
          "type": "uint256"
        }
      ],
      "name": "tokenContracts",
      "outputs": [
        {
          "internalType": "contract IERC20",
          "name": "",
          "type": "address"
        }
      ],
      "stateMutability": "view",
      "type": "function"
    },
    {
      "inputs": [
        {
          "internalType": "uint256",
          "name": "",
          "type": "uint256"
        }
      ],
      "name": "tokens",
      "outputs": [
        {
          "internalType": "string",
          "name": "",
          "type": "string"
        }
      ],
      "stateMutability": "view",
      "type": "function"
    },
    {
      "inputs": [],
      "name": "totalFunds",
      "outputs": [
        {
          "internalType": "uint256",
          "name": "",
          "type": "uint256"
        }
      ],
      "stateMutability": "view",
      "type": "function"
    },
    {
      "inputs": [
        {
          "internalType": "address",
          "name": "newOwner",
          "type": "address"
        }
      ],
      "name": "transferOwnership",
      "outputs": [],
      "stateMutability": "nonpayable",
      "type": "function"
    },
    {
      "inputs": [],
      "name": "getPrice",
      "outputs": [
        {
          "internalType": "uint256",
          "name": "",
          "type": "uint256"
        }
      ],
      "stateMutability": "view",
      "type": "function"
    },
    {
      "inputs": [],
      "name": "addFunds",
      "outputs": [],
      "stateMutability": "payable",
      "type": "function"
    },
    {
      "inputs": [],
      "name": "getTotalPrice",
      "outputs": [
        {
          "internalType": "uint256",
          "name": "",
          "type": "uint256"
        }
      ],
      "stateMutability": "payable",
      "type": "function"
    }
  ],
  "bytecode": "0x66038d7ea4c6800060039081556101208181527f42544300000000000000000000000000000000000000000000000000000000006101405260809081526101608281527f45544800000000000000000000000000000000000000000000000000000000006101805260a0526101a08281527f424e4200000000000000000000000000000000000000000000000000000000006101c05260c05260046101e08181527f4c494e4b000000000000000000000000000000000000000000000000000000006102005260e0526102606040526102209283527f444f54000000000000000000000000000000000000000000000000000000000061024052610100929092526200010e91906005620003b1565b506040805160e081018252600360a082018181527f555344000000000000000000000000000000000000000000000000000000000060c084018190529083528351808501855282815260208181018390528085019190915284518086018652838152808201839052848601528451808601865283815280820183905260608501528451808601909552918452908301526080810191909152620001b59060059081620003b1565b506040805180820190915260118082527f436f7272656c6174696f6e20496e6465780000000000000000000000000000006020909201918252620001fc9160069162000415565b506040805180820190915260028082527f43490000000000000000000000000000000000000000000000000000000000006020909201918252620002439160079162000415565b5060088054600160a060020a031990811673da7a001b254cd22e46d3eab04d937489c93174c3179182905560098054909116600160a060020a03929092169190911790556040805160a0810182527364ff637fb478863b7468bc97d30a5bf3a428a1fd8152733ee2200efb3400fabb9aacf31297cbdd1d435d476020820152731ce0c2827e2ef14d5c4f29a091d735a20479404191810191909152737130d2a12b9bcbfae4f2634d864a1ee1ce3ead9c606082015273bb4cdb9cbd36b01bd1cbaebf2de08d9173bc095c60808201526200032290600a906005620004a0565b503480156200033057600080fd5b5062000357620003486401000000006200035d810204565b64010000000062000361810204565b620005cb565b3390565b60008054600160a060020a03838116600160a060020a0319831681178455604051919092169283917f8be0079c531659141344cd1fd0a4f28419497f9722a3daafe3b4186f6b6457e09190a35050565b82805482825590600052602060002090810192821562000403579160200282015b82811115620004035782518051620003f291849160209091019062000415565b5091602001919060010190620003d2565b5062000411929150620004f8565b5090565b828054620004239062000575565b90600052602060002090601f01602090048101928262000447576000855562000492565b82601f106200046257805160ff191683800117855562000492565b8280016001018555821562000492579182015b828111156200049257825182559160200191906001019062000475565b506200041192915062000519565b82805482825590600052602060002090810192821562000492579160200282015b82811115620004925782518254600160a060020a031916600160a060020a03909116178255602090920191600190910190620004c1565b80821115620004115760006200050f828262000530565b50600101620004f8565b5b808211156200041157600081556001016200051a565b5080546200053e9062000575565b6000825580601f1062000552575062000572565b601f01602090049060005260206000209081019062000572919062000519565b50565b6002810460018216806200058a57607f821691505b60208210811415620005c5577f4e487b7100000000000000000000000000000000000000000000000000000000600052602260045260246000fd5b50919050565b610ad780620005db6000396000f3fe6080604052600436106100c4576000357c01000000000000000000000000000000000000000000000000000000009004806395d89b411161008157806395d89b411461019a578063968ed600146101af57806398d5fdca146101c4578063a26759cb146101d9578063f2fde38b146101e1578063f475409f14610201576100c4565b806306fdde03146100c95780631d9fb309146100f45780634f64b2be146101215780636f7bc9be14610141578063715018a61461016e5780638da5cb5b14610185575b600080fd5b3480156100d557600080fd5b506100de610209565b6040516100eb919061083b565b60405180910390f35b34801561010057600080fd5b5061011461010f3660046106fc565b610297565b6040516100eb91906107f9565b34801561012d57600080fd5b506100de61013c3660046106fc565b6102c1565b34801561014d57600080fd5b5061016161015c3660046105e2565b6102ec565b6040516100eb919061097d565b34801561017a57600080fd5b506101836102fe565b005b34801561019157600080fd5b50610114610355565b3480156101a657600080fd5b506100de610364565b3480156101bb57600080fd5b50610161610371565b3480156101d057600080fd5b50610161610377565b61018361048d565b3480156101ed57600080fd5b506101836101fc3660046105e2565b6104ee565b610161610565565b6006805461021690610a16565b80601f016020809104026020016040519081016040528092919081815260200182805461024290610a16565b801561028f5780601f106102645761010080835404028352916020019161028f565b820191906000526020600020905b81548152906001019060200180831161027257829003601f168201915b505050505081565b600a81815481106102a757600080fd5b600091825260209091200154600160a060020a0316905081565b600481815481106102d157600080fd5b90600052602060002001600091509050805461021690610a16565b60026020526000908152604090205481565b610306610581565b600160a060020a0316610317610355565b600160a060020a0316146103495760405160e560020a62461bcd02815260040161034090610948565b60405180910390fd5b6103536000610585565b565b600054600160a060020a031690565b6007805461021690610a16565b60015481565b6009546040517fe42a071b0000000000000000000000000000000000000000000000000000000081526000918291600160a060020a039091169063e42a071b906103c890600490600590820161080d565b60006040518083038186803b1580156103e057600080fd5b505afa1580156103f4573d6000803e3d6000fd5b505050506040513d6000823e601f3d908101601f1916820160405261041c9190810190610610565b90506000805b82518110156104795782818151811061044e5760e060020a634e487b7102600052603260045260246000fd5b6020026020010151600001518261046591906109bc565b91508061047181610a54565b915050610422565b50815161048690826109d4565b9250505090565b60035434116104b15760405160e560020a62461bcd0281526004016103409061088e565b34600160008282546104c391906109bc565b909155505033600090815260026020526040812080543492906104e79084906109bc565b9091555050565b6104f6610581565b600160a060020a0316610507610355565b600160a060020a0316146105305760405160e560020a62461bcd02815260040161034090610948565b600160a060020a0381166105595760405160e560020a62461bcd028152600401610340906108eb565b61056281610585565b50565b600061056f610377565b60015461057c91906109f7565b905090565b3390565b60008054600160a060020a0383811673ffffffffffffffffffffffffffffffffffffffff19831681178455604051919092169283917f8be0079c531659141344cd1fd0a4f28419497f9722a3daafe3b4186f6b6457e09190a35050565b6000602082840312156105f3578081fd5b8135600160a060020a0381168114610609578182fd5b9392505050565b60006020808385031215610622578182fd5b825167ffffffffffffffff80821115610639578384fd5b818501915085601f83011261064c578384fd5b81518181111561065e5761065e610a88565b61066b8485830201610986565b818152848101908486016060808502870188018b1015610689578889fd5b8896505b848710156106ed5780828c0312156106a3578889fd5b6040805182810181811089821117156106be576106be610a88565b825283518152898401518a8201528382015191810191909152845260019690960195928701929081019061068d565b50909998505050505050505050565b60006020828403121561070d578081fd5b5035919050565b6000815480845260208085018081965082840281019150858552828520855b858110156107ec578284038952815487906002810460018083168061075957607f831692505b89831081141561077a5760e060020a634e487b71028c52602260045260248cfd5b610784838a61097d565b81801561079857600181146107a9576107d3565b60ff19861682528b820196506107d3565b6107b2896109b0565b8e5b868110156107cd57815484820152908501908d016107b4565b83019750505b5050509b88019b92965050509190910190600101610733565b5091979650505050505050565b600160a060020a0391909116815260200190565b6000604082526108206040830185610714565b82810360208401526108328185610714565b95945050505050565b6000602080835283518082850152825b818110156108675785810183015185820160400152820161084b565b818111156108785783604083870101525b50601f01601f1916929092016040019392505050565b6020808252602d908201527f596f75206d7573742073656e64206174206c656173742031303030303030303060408201527f303030303030302066756e647300000000000000000000000000000000000000606082015260800190565b60208082526026908201527f4f776e61626c653a206e6577206f776e657220697320746865207a65726f206160408201527f6464726573730000000000000000000000000000000000000000000000000000606082015260800190565b6020808252818101527f4f776e61626c653a2063616c6c6572206973206e6f7420746865206f776e6572604082015260600190565b90815260200190565b60405181810167ffffffffffffffff811182821017156109a8576109a8610a88565b604052919050565b60009081526020902090565b600082198211156109cf576109cf610a6f565b500190565b6000826109f25760e060020a634e487b710281526012600452602481fd5b500490565b6000816000190483118215151615610a1157610a11610a6f565b500290565b600281046001821680610a2a57607f821691505b60208210811415610a4e5760e060020a634e487b7102600052602260045260246000fd5b50919050565b6000600019821415610a6857610a68610a6f565b5060010190565b60e060020a634e487b7102600052601160045260246000fd5b60e060020a634e487b7102600052604160045260246000fdfea26469706673582212204f2494b74190ea56db7be751e0dec047bc9b5813fefc1e57f4b9f73adb2fc0a664736f6c63430008000033",
  "immutableReferences": {},
  "source": "// SPDX-License-Identifier: MIT\npragma solidity 0.8.0;\nimport './Token.sol';\nimport './PriceProtocol.sol';\nimport \"@openzeppelin/contracts/access/Ownable.sol\";\nimport \"@chainlink/contracts/src/v0.8/interfaces/AggregatorV3Interface.sol\";\n\n\ncontract Index is Ownable {\n    uint256 public totalFunds;\n    mapping(address => uint256) public investors;\n    uint256 private minimalFundAddition = 1000000000000000;\n\n    string[] public tokens = [\"BTC\", \"ETH\", \"BNB\", \"LINK\", \"DOT\"];\n    string[] private baseTokens = [\"USD\", \"USD\", \"USD\", \"USD\", \"USD\"];\n    string public name = \"Correlation Index\";\n    string public symbol = \"CI\";\n\n    address private testnetPriceProtocol = 0xDA7a001b254CD22e46d3eAB04d937489c93174C3;\n    PriceProtocol private priceProtocol = PriceProtocol(testnetPriceProtocol);\n\n    IERC20[] public tokenContracts = [\n        IERC20(0x64FF637fB478863B7468bc97D30a5bF3A428a1fD),     // ETH\n        IERC20(0x3EE2200Efb3400fAbB9AacF31297cBdD1d435D47),     // CARDANO\n        IERC20(0x1CE0c2827e2eF14D5C4f29a091d735A204794041),   // AVAX\n        IERC20(0x7130d2A12B9BCbFAe4f2634d864A1Ee1Ce3Ead9c),     // BTC\n        IERC20(0xbb4CdB9CBd36B01bD1cBaEBF2De08d9173bc095c)     // BNB\n    ];\n\n    function getPrice() public view returns (uint256) {\n        PriceProtocol.ReferenceData[] memory priceData = priceProtocol.getReferenceDataBulk(tokens, baseTokens);\n        uint256 totalPrice = 0;\n\n        for (uint256 index = 0; index < priceData.length; index++) {\n            totalPrice += priceData[index].rate;\n        }\n\n        return totalPrice / priceData.length;\n    }\n\n    function addFunds() public payable {\n        require(msg.value > minimalFundAddition, \"You must send at least 1000000000000000 funds\");\n        totalFunds += msg.value;\n        investors[msg.sender] += msg.value;\n\n        \n    }\n\n    function getTotalPrice() public payable returns(uint256){\n        return totalFunds * getPrice();\n    }\n\n}",
  "sourcePath": "F:\\JavascriptProjects\\hedera-project\\contracts\\Index.sol",
  "compiler": {
    "name": "solc",
    "version": "0.8.0+commit.c7dfd78e.Linux.g++"
  },
  "schemaVersion": "3.4.3",
  "updatedAt": "2022-02-26T10:13:13.721Z",
  "devdoc": {
    "kind": "dev",
    "methods": {
      "owner()": {
        "details": "Returns the address of the current owner."
      },
      "renounceOwnership()": {
        "details": "Leaves the contract without owner. It will not be possible to call `onlyOwner` functions anymore. Can only be called by the current owner. NOTE: Renouncing ownership will leave the contract without an owner, thereby removing any functionality that is only available to the owner."
      },
      "transferOwnership(address)": {
        "details": "Transfers ownership of the contract to a new account (`newOwner`). Can only be called by the current owner."
      }
    },
    "version": 1
  },
  "userdoc": {
    "kind": "user",
    "methods": {},
    "version": 1
  }
}