{
  "contractName": "Observer",
  "abi": [
    {
      "anonymous": false,
      "inputs": [
        {
          "indexed": true,
          "internalType": "address",
          "name": "previousOwner",
          "type": "address"
        },
        {
          "indexed": true,
          "internalType": "address",
          "name": "newOwner",
          "type": "address"
        }
      ],
      "name": "OwnershipTransferred",
      "type": "event"
    },
    {
      "anonymous": false,
      "inputs": [
        {
          "indexed": false,
          "internalType": "address",
          "name": "product",
          "type": "address"
        },
        {
          "indexed": false,
          "internalType": "string",
          "name": "productType",
          "type": "string"
        }
      ],
      "name": "ProductAdded",
      "type": "event"
    },
    {
      "anonymous": false,
      "inputs": [
        {
          "indexed": false,
          "internalType": "address",
          "name": "product",
          "type": "address"
        }
      ],
      "name": "ProductDeleted",
      "type": "event"
    },
    {
      "inputs": [],
      "name": "owner",
      "outputs": [
        {
          "internalType": "address",
          "name": "",
          "type": "address"
        }
      ],
      "stateMutability": "view",
      "type": "function",
      "constant": true
    },
    {
      "inputs": [],
      "name": "renounceOwnership",
      "outputs": [],
      "stateMutability": "nonpayable",
      "type": "function"
    },
    {
      "inputs": [
        {
          "internalType": "address",
          "name": "newOwner",
          "type": "address"
        }
      ],
      "name": "transferOwnership",
      "outputs": [],
      "stateMutability": "nonpayable",
      "type": "function"
    },
    {
      "inputs": [
        {
          "internalType": "address",
          "name": "productAddress",
          "type": "address"
        },
        {
          "internalType": "string",
          "name": "productType",
          "type": "string"
        }
      ],
      "name": "addProduct",
      "outputs": [],
      "stateMutability": "nonpayable",
      "type": "function"
    },
    {
      "inputs": [
        {
          "internalType": "address",
          "name": "productAddress",
          "type": "address"
        }
      ],
      "name": "removeProduct",
      "outputs": [],
      "stateMutability": "nonpayable",
      "type": "function"
    },
    {
      "inputs": [
        {
          "internalType": "address",
          "name": "productAddress",
          "type": "address"
        }
      ],
      "name": "checkProductExists",
      "outputs": [
        {
          "internalType": "bool",
          "name": "",
          "type": "bool"
        }
      ],
      "stateMutability": "view",
      "type": "function",
      "constant": true
    },
    {
      "inputs": [],
      "name": "getProducts",
      "outputs": [
        {
          "components": [
            {
              "internalType": "address",
              "name": "productAddress",
              "type": "address"
            },
            {
              "internalType": "string",
              "name": "productType",
              "type": "string"
            }
          ],
          "internalType": "struct Observer.ProductInfo[]",
          "name": "",
          "type": "tuple[]"
        }
      ],
      "stateMutability": "view",
      "type": "function",
      "constant": true
    },
    {
      "inputs": [
        {
          "internalType": "uint256",
          "name": "index",
          "type": "uint256"
        }
      ],
      "name": "getProductByIndex",
      "outputs": [
        {
          "components": [
            {
              "internalType": "address",
              "name": "productAddress",
              "type": "address"
            },
            {
              "internalType": "string",
              "name": "productType",
              "type": "string"
            }
          ],
          "internalType": "struct Observer.ProductInfo",
          "name": "",
          "type": "tuple"
        }
      ],
      "stateMutability": "view",
      "type": "function",
      "constant": true
    }
  ],
  "bytecode": "0x608060405234801561001057600080fd5b5060006100216100c460201b60201c565b9050806000806101000a81548173ffffffffffffffffffffffffffffffffffffffff021916908373ffffffffffffffffffffffffffffffffffffffff1602179055508073ffffffffffffffffffffffffffffffffffffffff16600073ffffffffffffffffffffffffffffffffffffffff167f8be0079c531659141344cd1fd0a4f28419497f9722a3daafe3b4186f6b6457e060405160405180910390a3506100cc565b600033905090565b6113cc806100db6000396000f3fe608060405234801561001057600080fd5b50600436106100785760003560e01c80635c60a4291461007d578063715018a614610099578063787b6725146100a357806384d35cc9146100bf5780638da5cb5b146100ef578063b61944bd1461010d578063c29b2f201461013d578063f2fde38b1461015b575b600080fd5b61009760048036038101906100929190610f15565b610177565b005b6100a161031f565b005b6100bd60048036038101906100b89190610eec565b61048c565b005b6100d960048036038101906100d49190610f69565b610752565b6040516100e691906111bc565b60405180910390f35b6100f761087f565b6040516101049190611134565b60405180910390f35b61012760048036038101906101229190610eec565b6108a8565b60405161013491906111a1565b60405180910390f35b610145610951565b604051610152919061117f565b60405180910390f35b61017560048036038101906101709190610eec565b610aa8565b005b61017f610c9a565b73ffffffffffffffffffffffffffffffffffffffff1661019d61087f565b73ffffffffffffffffffffffffffffffffffffffff1614610226576040517f08c379a00000000000000000000000000000000000000000000000000000000081526004018080602001828103825260208152602001807f4f776e61626c653a2063616c6c6572206973206e6f7420746865206f776e657281525060200191505060405180910390fd5b600160405180604001604052808473ffffffffffffffffffffffffffffffffffffffff16815260200183815250908060018154018082558091505060019003906000526020600020906002020160009091909190915060008201518160000160006101000a81548173ffffffffffffffffffffffffffffffffffffffff021916908373ffffffffffffffffffffffffffffffffffffffff16021790555060208201518160010190805190602001906102df929190610ca2565b5050507fa518d00b5a9101dfe2b168171d7513ff8da187b2c1a2945971af4fd8ea279187828260405161031392919061114f565b60405180910390a15050565b610327610c9a565b73ffffffffffffffffffffffffffffffffffffffff1661034561087f565b73ffffffffffffffffffffffffffffffffffffffff16146103ce576040517f08c379a00000000000000000000000000000000000000000000000000000000081526004018080602001828103825260208152602001807f4f776e61626c653a2063616c6c6572206973206e6f7420746865206f776e657281525060200191505060405180910390fd5b600073ffffffffffffffffffffffffffffffffffffffff1660008054906101000a900473ffffffffffffffffffffffffffffffffffffffff1673ffffffffffffffffffffffffffffffffffffffff167f8be0079c531659141344cd1fd0a4f28419497f9722a3daafe3b4186f6b6457e060405160405180910390a360008060006101000a81548173ffffffffffffffffffffffffffffffffffffffff021916908373ffffffffffffffffffffffffffffffffffffffff160217905550565b610494610c9a565b73ffffffffffffffffffffffffffffffffffffffff166104b261087f565b73ffffffffffffffffffffffffffffffffffffffff161461053b576040517f08c379a00000000000000000000000000000000000000000000000000000000081526004018080602001828103825260208152602001807f4f776e61626c653a2063616c6c6572206973206e6f7420746865206f776e657281525060200191505060405180910390fd5b60005b60018054905081101561074e578173ffffffffffffffffffffffffffffffffffffffff166001828154811061056f57fe5b906000526020600020906002020160000160009054906101000a900473ffffffffffffffffffffffffffffffffffffffff1673ffffffffffffffffffffffffffffffffffffffff1614156107415760008190505b60018080549050038110156106a9576001808201815481106105e157fe5b9060005260206000209060020201600182815481106105fc57fe5b90600052602060002090600202016000820160009054906101000a900473ffffffffffffffffffffffffffffffffffffffff168160000160006101000a81548173ffffffffffffffffffffffffffffffffffffffff021916908373ffffffffffffffffffffffffffffffffffffffff16021790555060018201816001019080546001816001161561010002031660029004610698929190610d30565b5090505080806001019150506105c3565b5060018054806106b557fe5b6001900381819060005260206000209060020201600080820160006101000a81549073ffffffffffffffffffffffffffffffffffffffff02191690556001820160006107019190610dc5565b505090557ffa0d82212023d711b71ba3811216053fe26db94fe33a9039fb205d2168512469826040516107349190611134565b60405180910390a161074e565b808060010191505061053e565b5050565b61075a610e0d565b6001828154811061076757fe5b90600052602060002090600202016040518060400160405290816000820160009054906101000a900473ffffffffffffffffffffffffffffffffffffffff1673ffffffffffffffffffffffffffffffffffffffff1673ffffffffffffffffffffffffffffffffffffffff168152602001600182018054600181600116156101000203166002900480601f01602080910402602001604051908101604052809291908181526020018280546001816001161561010002031660029004801561086f5780601f106108445761010080835404028352916020019161086f565b820191906000526020600020905b81548152906001019060200180831161085257829003601f168201915b5050505050815250509050919050565b60008060009054906101000a900473ffffffffffffffffffffffffffffffffffffffff16905090565b600080600090505b600180549050811015610946578273ffffffffffffffffffffffffffffffffffffffff16600182815481106108e157fe5b906000526020600020906002020160000160009054906101000a900473ffffffffffffffffffffffffffffffffffffffff1673ffffffffffffffffffffffffffffffffffffffff16141561093957600191505061094c565b80806001019150506108b0565b50600090505b919050565b60606001805480602002602001604051908101604052809291908181526020016000905b82821015610a9f57838290600052602060002090600202016040518060400160405290816000820160009054906101000a900473ffffffffffffffffffffffffffffffffffffffff1673ffffffffffffffffffffffffffffffffffffffff1673ffffffffffffffffffffffffffffffffffffffff168152602001600182018054600181600116156101000203166002900480601f016020809104026020016040519081016040528092919081815260200182805460018160011615610100020316600290048015610a875780601f10610a5c57610100808354040283529160200191610a87565b820191906000526020600020905b815481529060010190602001808311610a6a57829003601f168201915b50505050508152505081526020019060010190610975565b50505050905090565b610ab0610c9a565b73ffffffffffffffffffffffffffffffffffffffff16610ace61087f565b73ffffffffffffffffffffffffffffffffffffffff1614610b57576040517f08c379a00000000000000000000000000000000000000000000000000000000081526004018080602001828103825260208152602001807f4f776e61626c653a2063616c6c6572206973206e6f7420746865206f776e657281525060200191505060405180910390fd5b600073ffffffffffffffffffffffffffffffffffffffff168173ffffffffffffffffffffffffffffffffffffffff161415610bdd576040517f08c379a00000000000000000000000000000000000000000000000000000000081526004018080602001828103825260268152602001806113716026913960400191505060405180910390fd5b8073ffffffffffffffffffffffffffffffffffffffff1660008054906101000a900473ffffffffffffffffffffffffffffffffffffffff1673ffffffffffffffffffffffffffffffffffffffff167f8be0079c531659141344cd1fd0a4f28419497f9722a3daafe3b4186f6b6457e060405160405180910390a3806000806101000a81548173ffffffffffffffffffffffffffffffffffffffff021916908373ffffffffffffffffffffffffffffffffffffffff16021790555050565b600033905090565b828054600181600116156101000203166002900490600052602060002090601f016020900481019282610cd85760008555610d1f565b82601f10610cf157805160ff1916838001178555610d1f565b82800160010185558215610d1f579182015b82811115610d1e578251825591602001919060010190610d03565b5b509050610d2c9190610e3d565b5090565b828054600181600116156101000203166002900490600052602060002090601f016020900481019282610d665760008555610db4565b82601f10610d775780548555610db4565b82800160010185558215610db457600052602060002091601f016020900482015b82811115610db3578254825591600101919060010190610d98565b5b509050610dc19190610e3d565b5090565b50805460018160011615610100020316600290046000825580601f10610deb5750610e0a565b601f016020900490600052602060002090810190610e099190610e3d565b5b50565b6040518060400160405280600073ffffffffffffffffffffffffffffffffffffffff168152602001606081525090565b5b80821115610e56576000816000905550600101610e3e565b5090565b6000610e6d610e688461120f565b6111de565b905082815260208101848484011115610e8557600080fd5b610e908482856112ed565b509392505050565b600081359050610ea781611342565b92915050565b600082601f830112610ebe57600080fd5b8135610ece848260208601610e5a565b91505092915050565b600081359050610ee681611359565b92915050565b600060208284031215610efe57600080fd5b6000610f0c84828501610e98565b91505092915050565b60008060408385031215610f2857600080fd5b6000610f3685828601610e98565b925050602083013567ffffffffffffffff811115610f5357600080fd5b610f5f85828601610ead565b9150509250929050565b600060208284031215610f7b57600080fd5b6000610f8984828501610ed7565b91505092915050565b6000610f9e83836110ba565b905092915050565b610faf816112a5565b82525050565b610fbe816112a5565b82525050565b6000610fcf8261124f565b610fd98185611272565b935083602082028501610feb8561123f565b8060005b8581101561102757848403895281516110088582610f92565b945061101383611265565b925060208a01995050600181019050610fef565b50829750879550505050505092915050565b611042816112b7565b82525050565b60006110538261125a565b61105d8185611283565b935061106d8185602086016112fc565b61107681611331565b840191505092915050565b600061108c8261125a565b6110968185611294565b93506110a68185602086016112fc565b6110af81611331565b840191505092915050565b60006040830160008301516110d26000860182610fa6565b50602083015184820360208601526110ea8282611048565b9150508091505092915050565b600060408301600083015161110f6000860182610fa6565b50602083015184820360208601526111278282611048565b9150508091505092915050565b60006020820190506111496000830184610fb5565b92915050565b60006040820190506111646000830185610fb5565b81810360208301526111768184611081565b90509392505050565b600060208201905081810360008301526111998184610fc4565b905092915050565b60006020820190506111b66000830184611039565b92915050565b600060208201905081810360008301526111d681846110f7565b905092915050565b6000604051905081810181811067ffffffffffffffff821117156112055761120461132f565b5b8060405250919050565b600067ffffffffffffffff82111561122a5761122961132f565b5b601f19601f8301169050602081019050919050565b6000819050602082019050919050565b600081519050919050565b600081519050919050565b6000602082019050919050565b600082825260208201905092915050565b600082825260208201905092915050565b600082825260208201905092915050565b60006112b0826112c3565b9050919050565b60008115159050919050565b600073ffffffffffffffffffffffffffffffffffffffff82169050919050565b6000819050919050565b82818337600083830152505050565b60005b8381101561131a5780820151818401526020810190506112ff565b83811115611329576000848401525b50505050565bfe5b6000601f19601f8301169050919050565b61134b816112a5565b811461135657600080fd5b50565b611362816112e3565b811461136d57600080fd5b5056fe4f776e61626c653a206e6577206f776e657220697320746865207a65726f2061646472657373a2646970667358221220e203dd79b31830f0aeb725abba66a974cb4575552d65a73b65fa1d107b343a4464736f6c63430007060033",
  "immutableReferences": {},
  "source": "// SPDX-License-Identifier: MIT\r\npragma solidity 0.7.6;\r\npragma abicoder v2;\r\n\r\nimport \"@openzeppelin/contracts/access/Ownable.sol\";\r\nimport \"./BaseProduct.sol\";\r\n\r\n\r\ncontract Observer is Ownable{\r\n\r\n    event ProductAdded(address product, string productType);\r\n    event ProductDeleted(address product);\r\n\r\n    struct ProductInfo{\r\n        address productAddress;\r\n        string productType;\r\n    }\r\n\r\n    ProductInfo[] private products;\r\n\r\n    function addProduct(address productAddress, string memory productType) external onlyOwner {\r\n        products.push(ProductInfo(productAddress, productType));\r\n        emit ProductAdded(productAddress, productType);\r\n    }\r\n\r\n    function removeProduct(address productAddress) external onlyOwner{\r\n\r\n        for (uint256 index = 0; index < products.length; index++) {\r\n            if (products[index].productAddress == productAddress) {\r\n\r\n                for (uint i = index; i < products.length-1; i++){\r\n                    products[i] = products[i+1];\r\n                }\r\n\r\n                products.pop();\r\n                emit ProductDeleted(productAddress);\r\n                break;\r\n            }\r\n        }\r\n\r\n    }\r\n\r\n    function checkProductExists(address productAddress) public view returns (bool) {\r\n        for (uint256 index = 0; index < products.length; index++) {\r\n            if (products[index].productAddress == productAddress) {\r\n                return true;\r\n            }\r\n        }\r\n\r\n        return false;\r\n    }\r\n\r\n    function getProducts() external view returns (ProductInfo[] memory){\r\n        return products;\r\n    }\r\n\r\n    function getProductByIndex(uint index) external view returns(ProductInfo memory){\r\n        return products[index];\r\n    }\r\n\r\n}\r\n",
  "sourcePath": "D:\\JavascriptProjects\\crypto-index\\contracts\\management\\Observer.sol",
  "compiler": {
    "name": "solc",
    "version": "0.7.6+commit.7338295f.Emscripten.clang"
  },
  "schemaVersion": "3.4.7",
  "updatedAt": "2022-06-02T13:01:17.271Z",
  "networkType": "ethereum",
  "devdoc": {
    "kind": "dev",
    "methods": {
      "owner()": {
        "details": "Returns the address of the current owner."
      },
      "renounceOwnership()": {
        "details": "Leaves the contract without owner. It will not be possible to call `onlyOwner` functions anymore. Can only be called by the current owner. NOTE: Renouncing ownership will leave the contract without an owner, thereby removing any functionality that is only available to the owner."
      },
      "transferOwnership(address)": {
        "details": "Transfers ownership of the contract to a new account (`newOwner`). Can only be called by the current owner."
      }
    },
    "version": 1
  },
  "userdoc": {
    "kind": "user",
    "methods": {},
    "version": 1
  }
}