{
  "contractName": "Observer",
  "abi": [
    {
      "anonymous": false,
      "inputs": [
        {
          "indexed": true,
          "internalType": "address",
          "name": "previousOwner",
          "type": "address"
        },
        {
          "indexed": true,
          "internalType": "address",
          "name": "newOwner",
          "type": "address"
        }
      ],
      "name": "OwnershipTransferred",
      "type": "event"
    },
    {
      "anonymous": false,
      "inputs": [
        {
          "indexed": false,
          "internalType": "address",
          "name": "product",
          "type": "address"
        },
        {
          "indexed": false,
          "internalType": "string",
          "name": "productType",
          "type": "string"
        }
      ],
      "name": "ProductAdded",
      "type": "event"
    },
    {
      "anonymous": false,
      "inputs": [
        {
          "indexed": false,
          "internalType": "address",
          "name": "product",
          "type": "address"
        }
      ],
      "name": "ProductDeleted",
      "type": "event"
    },
    {
      "inputs": [],
      "name": "owner",
      "outputs": [
        {
          "internalType": "address",
          "name": "",
          "type": "address"
        }
      ],
      "stateMutability": "view",
      "type": "function"
    },
    {
      "inputs": [],
      "name": "renounceOwnership",
      "outputs": [],
      "stateMutability": "nonpayable",
      "type": "function"
    },
    {
      "inputs": [
        {
          "internalType": "address",
          "name": "newOwner",
          "type": "address"
        }
      ],
      "name": "transferOwnership",
      "outputs": [],
      "stateMutability": "nonpayable",
      "type": "function"
    },
    {
      "inputs": [
        {
          "internalType": "address",
          "name": "productAddress",
          "type": "address"
        },
        {
          "internalType": "string",
          "name": "productType",
          "type": "string"
        }
      ],
      "name": "addProduct",
      "outputs": [],
      "stateMutability": "nonpayable",
      "type": "function"
    },
    {
      "inputs": [
        {
          "internalType": "address",
          "name": "productAddress",
          "type": "address"
        }
      ],
      "name": "removeProduct",
      "outputs": [],
      "stateMutability": "nonpayable",
      "type": "function"
    },
    {
      "inputs": [],
      "name": "getProducts",
      "outputs": [
        {
          "components": [
            {
              "internalType": "address",
              "name": "productAddress",
              "type": "address"
            },
            {
              "internalType": "string",
              "name": "productType",
              "type": "string"
            }
          ],
          "internalType": "struct Observer.ProductInfo[]",
          "name": "",
          "type": "tuple[]"
        }
      ],
      "stateMutability": "view",
      "type": "function"
    },
    {
      "inputs": [
        {
          "internalType": "uint256",
          "name": "index",
          "type": "uint256"
        }
      ],
      "name": "getProductByIndex",
      "outputs": [
        {
          "components": [
            {
              "internalType": "address",
              "name": "productAddress",
              "type": "address"
            },
            {
              "internalType": "string",
              "name": "productType",
              "type": "string"
            }
          ],
          "internalType": "struct Observer.ProductInfo",
          "name": "",
          "type": "tuple"
        }
      ],
      "stateMutability": "view",
      "type": "function"
    }
  ],
  "bytecode": "0x608060405234801561001057600080fd5b5060006100216100c460201b60201c565b9050806000806101000a81548173ffffffffffffffffffffffffffffffffffffffff021916908373ffffffffffffffffffffffffffffffffffffffff1602179055508073ffffffffffffffffffffffffffffffffffffffff16600073ffffffffffffffffffffffffffffffffffffffff167f8be0079c531659141344cd1fd0a4f28419497f9722a3daafe3b4186f6b6457e060405160405180910390a3506100cc565b600033905090565b611116806100db6000396000f3fe608060405234801561001057600080fd5b506004361061006d5760003560e01c80635c60a42914610072578063715018a61461008e578063787b67251461009857806384d35cc9146100b45780638da5cb5b146100e4578063c29b2f2014610102578063f2fde38b14610120575b600080fd5b61008c60048036038101906100879190610c95565b61013c565b005b6100966102e4565b005b6100b260048036038101906100ad9190610c6c565b610451565b005b6100ce60048036038101906100c99190610ce9565b610624565b6040516100db9190610f12565b60405180910390f35b6100ec610751565b6040516100f99190610ea5565b60405180910390f35b61010a61077a565b6040516101179190610ef0565b60405180910390f35b61013a60048036038101906101359190610c6c565b6108d1565b005b610144610ac3565b73ffffffffffffffffffffffffffffffffffffffff16610162610751565b73ffffffffffffffffffffffffffffffffffffffff16146101eb576040517f08c379a00000000000000000000000000000000000000000000000000000000081526004018080602001828103825260208152602001807f4f776e61626c653a2063616c6c6572206973206e6f7420746865206f776e657281525060200191505060405180910390fd5b600160405180604001604052808473ffffffffffffffffffffffffffffffffffffffff16815260200183815250908060018154018082558091505060019003906000526020600020906002020160009091909190915060008201518160000160006101000a81548173ffffffffffffffffffffffffffffffffffffffff021916908373ffffffffffffffffffffffffffffffffffffffff16021790555060208201518160010190805190602001906102a4929190610acb565b5050507fa518d00b5a9101dfe2b168171d7513ff8da187b2c1a2945971af4fd8ea27918782826040516102d8929190610ec0565b60405180910390a15050565b6102ec610ac3565b73ffffffffffffffffffffffffffffffffffffffff1661030a610751565b73ffffffffffffffffffffffffffffffffffffffff1614610393576040517f08c379a00000000000000000000000000000000000000000000000000000000081526004018080602001828103825260208152602001807f4f776e61626c653a2063616c6c6572206973206e6f7420746865206f776e657281525060200191505060405180910390fd5b600073ffffffffffffffffffffffffffffffffffffffff1660008054906101000a900473ffffffffffffffffffffffffffffffffffffffff1673ffffffffffffffffffffffffffffffffffffffff167f8be0079c531659141344cd1fd0a4f28419497f9722a3daafe3b4186f6b6457e060405160405180910390a360008060006101000a81548173ffffffffffffffffffffffffffffffffffffffff021916908373ffffffffffffffffffffffffffffffffffffffff160217905550565b610459610ac3565b73ffffffffffffffffffffffffffffffffffffffff16610477610751565b73ffffffffffffffffffffffffffffffffffffffff1614610500576040517f08c379a00000000000000000000000000000000000000000000000000000000081526004018080602001828103825260208152602001807f4f776e61626c653a2063616c6c6572206973206e6f7420746865206f776e657281525060200191505060405180910390fd5b60005b600180549050811015610620578173ffffffffffffffffffffffffffffffffffffffff166001828154811061053457fe5b906000526020600020906002020160000160009054906101000a900473ffffffffffffffffffffffffffffffffffffffff1673ffffffffffffffffffffffffffffffffffffffff161415610613576001818154811061058f57fe5b9060005260206000209060020201600080820160006101000a81549073ffffffffffffffffffffffffffffffffffffffff02191690556001820160006105d59190610b59565b50507ffa0d82212023d711b71ba3811216053fe26db94fe33a9039fb205d2168512469826040516106069190610ea5565b60405180910390a1610620565b8080600101915050610503565b5050565b61062c610ba1565b6001828154811061063957fe5b90600052602060002090600202016040518060400160405290816000820160009054906101000a900473ffffffffffffffffffffffffffffffffffffffff1673ffffffffffffffffffffffffffffffffffffffff1673ffffffffffffffffffffffffffffffffffffffff168152602001600182018054600181600116156101000203166002900480601f0160208091040260200160405190810160405280929190818152602001828054600181600116156101000203166002900480156107415780601f1061071657610100808354040283529160200191610741565b820191906000526020600020905b81548152906001019060200180831161072457829003601f168201915b5050505050815250509050919050565b60008060009054906101000a900473ffffffffffffffffffffffffffffffffffffffff16905090565b60606001805480602002602001604051908101604052809291908181526020016000905b828210156108c857838290600052602060002090600202016040518060400160405290816000820160009054906101000a900473ffffffffffffffffffffffffffffffffffffffff1673ffffffffffffffffffffffffffffffffffffffff1673ffffffffffffffffffffffffffffffffffffffff168152602001600182018054600181600116156101000203166002900480601f0160208091040260200160405190810160405280929190818152602001828054600181600116156101000203166002900480156108b05780601f10610885576101008083540402835291602001916108b0565b820191906000526020600020905b81548152906001019060200180831161089357829003601f168201915b5050505050815250508152602001906001019061079e565b50505050905090565b6108d9610ac3565b73ffffffffffffffffffffffffffffffffffffffff166108f7610751565b73ffffffffffffffffffffffffffffffffffffffff1614610980576040517f08c379a00000000000000000000000000000000000000000000000000000000081526004018080602001828103825260208152602001807f4f776e61626c653a2063616c6c6572206973206e6f7420746865206f776e657281525060200191505060405180910390fd5b600073ffffffffffffffffffffffffffffffffffffffff168173ffffffffffffffffffffffffffffffffffffffff161415610a06576040517f08c379a00000000000000000000000000000000000000000000000000000000081526004018080602001828103825260268152602001806110bb6026913960400191505060405180910390fd5b8073ffffffffffffffffffffffffffffffffffffffff1660008054906101000a900473ffffffffffffffffffffffffffffffffffffffff1673ffffffffffffffffffffffffffffffffffffffff167f8be0079c531659141344cd1fd0a4f28419497f9722a3daafe3b4186f6b6457e060405160405180910390a3806000806101000a81548173ffffffffffffffffffffffffffffffffffffffff021916908373ffffffffffffffffffffffffffffffffffffffff16021790555050565b600033905090565b828054600181600116156101000203166002900490600052602060002090601f016020900481019282610b015760008555610b48565b82601f10610b1a57805160ff1916838001178555610b48565b82800160010185558215610b48579182015b82811115610b47578251825591602001919060010190610b2c565b5b509050610b559190610bd1565b5090565b50805460018160011615610100020316600290046000825580601f10610b7f5750610b9e565b601f016020900490600052602060002090810190610b9d9190610bd1565b5b50565b6040518060400160405280600073ffffffffffffffffffffffffffffffffffffffff168152602001606081525090565b5b80821115610bea576000816000905550600101610bd2565b5090565b600081359050610bfd8161108c565b92915050565b600082601f830112610c1457600080fd5b8135610c27610c2282610f65565b610f34565b91508082526020830160208301858383011115610c4357600080fd5b610c4e838284611037565b50505092915050565b600081359050610c66816110a3565b92915050565b600060208284031215610c7e57600080fd5b6000610c8c84828501610bee565b91505092915050565b60008060408385031215610ca857600080fd5b6000610cb685828601610bee565b925050602083013567ffffffffffffffff811115610cd357600080fd5b610cdf85828601610c03565b9150509250929050565b600060208284031215610cfb57600080fd5b6000610d0984828501610c57565b91505092915050565b6000610d1e8383610e2b565b905092915050565b610d2f81610ffb565b82525050565b610d3e81610ffb565b82525050565b6000610d4f82610fa5565b610d598185610fc8565b935083602082028501610d6b85610f95565b8060005b85811015610da75784840389528151610d888582610d12565b9450610d9383610fbb565b925060208a01995050600181019050610d6f565b50829750879550505050505092915050565b6000610dc482610fb0565b610dce8185610fd9565b9350610dde818560208601611046565b610de78161107b565b840191505092915050565b6000610dfd82610fb0565b610e078185610fea565b9350610e17818560208601611046565b610e208161107b565b840191505092915050565b6000604083016000830151610e436000860182610d26565b5060208301518482036020860152610e5b8282610db9565b9150508091505092915050565b6000604083016000830151610e806000860182610d26565b5060208301518482036020860152610e988282610db9565b9150508091505092915050565b6000602082019050610eba6000830184610d35565b92915050565b6000604082019050610ed56000830185610d35565b8181036020830152610ee78184610df2565b90509392505050565b60006020820190508181036000830152610f0a8184610d44565b905092915050565b60006020820190508181036000830152610f2c8184610e68565b905092915050565b6000604051905081810181811067ffffffffffffffff82111715610f5b57610f5a611079565b5b8060405250919050565b600067ffffffffffffffff821115610f8057610f7f611079565b5b601f19601f8301169050602081019050919050565b6000819050602082019050919050565b600081519050919050565b600081519050919050565b6000602082019050919050565b600082825260208201905092915050565b600082825260208201905092915050565b600082825260208201905092915050565b60006110068261100d565b9050919050565b600073ffffffffffffffffffffffffffffffffffffffff82169050919050565b6000819050919050565b82818337600083830152505050565b60005b83811015611064578082015181840152602081019050611049565b83811115611073576000848401525b50505050565bfe5b6000601f19601f8301169050919050565b61109581610ffb565b81146110a057600080fd5b50565b6110ac8161102d565b81146110b757600080fd5b5056fe4f776e61626c653a206e6577206f776e657220697320746865207a65726f2061646472657373a26469706673582212205b0bacfd562b3dbbfb9b1853b4e3305b97f5470ca43ce0a844e9405dcb1552af64736f6c63430007050033",
  "immutableReferences": {},
  "source": "// SPDX-License-Identifier: MIT\r\npragma solidity 0.7.5;\r\npragma abicoder v2;\r\n\r\nimport \"@openzeppelin/contracts/access/Ownable.sol\";\r\nimport \"./BaseProduct.sol\";\r\n\r\n\r\ncontract Observer is Ownable{\r\n\r\n    event ProductAdded(address product, string productType);\r\n    event ProductDeleted(address product);\r\n\r\n    struct ProductInfo{\r\n        address productAddress;\r\n        string productType;\r\n    }\r\n\r\n    ProductInfo[] private products;\r\n\r\n    function addProduct(address productAddress, string memory productType) external onlyOwner {\r\n        products.push(ProductInfo(productAddress, productType));\r\n        emit ProductAdded(productAddress, productType);\r\n    }\r\n\r\n    function removeProduct(address productAddress) external onlyOwner{\r\n\r\n        for (uint256 index = 0; index < products.length; index++) {\r\n            if (products[index].productAddress == productAddress) {\r\n                delete products[index];\r\n                emit ProductDeleted(productAddress);\r\n                break;\r\n            }\r\n        }\r\n\r\n    }\r\n\r\n    function getProducts() external view returns (ProductInfo[] memory){\r\n        return products;\r\n    }\r\n\r\n    function getProductByIndex(uint index) external view returns(ProductInfo memory){\r\n        return products[index];\r\n    }\r\n\r\n}\r\n",
  "sourcePath": "D:\\JavascriptProjects\\crypto-index\\contracts\\management\\Observer.sol",
  "compiler": {
    "name": "solc",
    "version": "0.7.5+commit.eb77ed08.Linux.g++"
  },
  "schemaVersion": "3.4.6",
  "updatedAt": "2022-05-10T13:17:12.378Z",
  "devdoc": {
    "kind": "dev",
    "methods": {
      "owner()": {
        "details": "Returns the address of the current owner."
      },
      "renounceOwnership()": {
        "details": "Leaves the contract without owner. It will not be possible to call `onlyOwner` functions anymore. Can only be called by the current owner. NOTE: Renouncing ownership will leave the contract without an owner, thereby removing any functionality that is only available to the owner."
      },
      "transferOwnership(address)": {
        "details": "Transfers ownership of the contract to a new account (`newOwner`). Can only be called by the current owner."
      }
    },
    "version": 1
  },
  "userdoc": {
    "kind": "user",
    "methods": {},
    "version": 1
  }
}