{
  "contractName": "PriceOracle",
  "abi": [
    {
      "inputs": [],
      "stateMutability": "nonpayable",
      "type": "constructor"
    },
    {
      "inputs": [
        {
          "internalType": "address",
          "name": "_secondToken",
          "type": "address"
        },
        {
          "internalType": "uint24[2]",
          "name": "poolFees",
          "type": "uint24[2]"
        },
        {
          "internalType": "address",
          "name": "intermediateToken",
          "type": "address"
        },
        {
          "internalType": "bool",
          "name": "isReverse",
          "type": "bool"
        }
      ],
      "name": "getPrice",
      "outputs": [
        {
          "internalType": "uint256",
          "name": "",
          "type": "uint256"
        }
      ],
      "stateMutability": "view",
      "type": "function"
    }
  ],
  "bytecode": "0x608060405234801561001057600080fd5b50731f98431c8ad98523631ae4a59f267346ea31f9846000806101000a81548173ffffffffffffffffffffffffffffffffffffffff021916908373ffffffffffffffffffffffffffffffffffffffff160217905550736b175474e89094c44da98b954eedeac495271d0f600160006101000a81548173ffffffffffffffffffffffffffffffffffffffff021916908373ffffffffffffffffffffffffffffffffffffffff16021790555073c02aaa39b223fe8d0a0e5c4f27ead9083c756cc2600260006101000a81548173ffffffffffffffffffffffffffffffffffffffff021916908373ffffffffffffffffffffffffffffffffffffffff160217905550610b568061011e6000396000f3fe608060405234801561001057600080fd5b506004361061002b5760003560e01c8063e5d5ed1914610030575b600080fd5b6100df600480360360a081101561004657600080fd5b81019080803573ffffffffffffffffffffffffffffffffffffffff16906020019092919080604001906002806020026040519081016040528092919082600260200280828437600081840152601f19601f8201169050808301925050505050509192919290803573ffffffffffffffffffffffffffffffffffffffff1690602001909291908035151590602001909291905050506100f5565b6040518082815260200191505060405180910390f35b6000806000831561012d57869150600160009054906101000a900473ffffffffffffffffffffffffffffffffffffffff169050610156565b600160009054906101000a900473ffffffffffffffffffffffffffffffffffffffff1691508690505b600073ffffffffffffffffffffffffffffffffffffffff168573ffffffffffffffffffffffffffffffffffffffff1614156101c95760006101a983838960006002811061019f57fe5b6020020151610243565b90506101bf81670de0b6b3a76400008486610408565b935050505061023b565b60006101e78683896001600281106101dd57fe5b6020020151610243565b905060006101ff82670de0b6b3a7640000858a610408565b9050600061021f85898b60006002811061021557fe5b6020020151610243565b9050600061022f82848b89610408565b90508096505050505050505b949350505050565b60008060008054906101000a900473ffffffffffffffffffffffffffffffffffffffff1673ffffffffffffffffffffffffffffffffffffffff16631698ee828686866040518463ffffffff1660e01b8152600401808473ffffffffffffffffffffffffffffffffffffffff1681526020018373ffffffffffffffffffffffffffffffffffffffff1681526020018262ffffff168152602001935050505060206040518083038186803b1580156102f857600080fd5b505afa15801561030c573d6000803e3d6000fd5b505050506040513d602081101561032257600080fd5b8101908080519060200190929190505050905060008173ffffffffffffffffffffffffffffffffffffffff16633850c7bd6040518163ffffffff1660e01b815260040160e06040518083038186803b15801561037d57600080fd5b505afa158015610391573d6000803e3d6000fd5b505050506040513d60e08110156103a757600080fd5b8101908080519060200190929190805190602001909291908051906020019092919080519060200190929190805190602001909291908051906020019092919080519060200190929190505050505050505091505080925050509392505050565b6000806104148661060b565b90506fffffffffffffffffffffffffffffffff80168173ffffffffffffffffffffffffffffffffffffffff16116105255760008173ffffffffffffffffffffffffffffffffffffffff168273ffffffffffffffffffffffffffffffffffffffff160290508373ffffffffffffffffffffffffffffffffffffffff168573ffffffffffffffffffffffffffffffffffffffff16106104e6576104e17801000000000000000000000000000000000000000000000000876fffffffffffffffffffffffffffffffff1683610a46565b61051d565b61051c81876fffffffffffffffffffffffffffffffff167801000000000000000000000000000000000000000000000000610a46565b5b925050610602565b60006105678273ffffffffffffffffffffffffffffffffffffffff168373ffffffffffffffffffffffffffffffffffffffff1668010000000000000000610a46565b90508373ffffffffffffffffffffffffffffffffffffffff168573ffffffffffffffffffffffffffffffffffffffff16106105cf576105ca700100000000000000000000000000000000876fffffffffffffffffffffffffffffffff1683610a46565b6105fe565b6105fd81876fffffffffffffffffffffffffffffffff16700100000000000000000000000000000000610a46565b5b9250505b50949350505050565b60008060008360020b12610622578260020b61062a565b8260020b6000035b90507ffffffffffffffffffffffffffffffffffffffffffffffffffffffffffff2761860000360020b8111156106c8576040517f08c379a00000000000000000000000000000000000000000000000000000000081526004018080602001828103825260018152602001807f540000000000000000000000000000000000000000000000000000000000000081525060200191505060405180910390fd5b6000806001831614156106ec577001000000000000000000000000000000006106fe565b6ffffcb933bd6fad37aa2d162d1a5940015b70ffffffffffffffffffffffffffffffffff169050600060028316146107385760806ffff97272373d413259a46990580e213a8202901c90505b6000600483161461075d5760806ffff2e50f5f656932ef12357cf3c7fdcc8202901c90505b600060088316146107825760806fffe5caca7e10e4e61c3624eaa0941cd08202901c90505b600060108316146107a75760806fffcb9843d60f6159c9db58835c9266448202901c90505b600060208316146107cc5760806fff973b41fa98c081472e6896dfb254c08202901c90505b600060408316146107f15760806fff2ea16466c96a3843ec78b326b528618202901c90505b600060808316146108165760806ffe5dee046a99a2a811c461f1969c30538202901c90505b600061010083161461083c5760806ffcbe86c7900a88aedcffc83b479aa3a48202901c90505b60006102008316146108625760806ff987a7253ac413176f2b074cf7815e548202901c90505b60006104008316146108885760806ff3392b0822b70005940c7a398e4b70f38202901c90505b60006108008316146108ae5760806fe7159475a2c29b7443b29c7fa6e889d98202901c90505b60006110008316146108d45760806fd097f3bdfd2022b8845ad8f792aa58258202901c90505b60006120008316146108fa5760806fa9f746462d870fdf8a65dc1f90e061e58202901c90505b60006140008316146109205760806f70d869a156d2a1b890bb3df62baf32f78202901c90505b60006180008316146109465760806f31be135f97d08fd981231505542fcfa68202901c90505b60006201000083161461096d5760806f09aa508b5b7a84e1c677de54f3e99bc98202901c90505b6000620200008316146109935760806e5d6af8dedb81196699c329225ee6048202901c90505b6000620400008316146109b85760806d2216e584f5fa1ea926041bedfe988202901c90505b6000620800008316146109db5760806b048a170391f7dc42444e8fa28202901c90505b60008460020b1315610a1457807fffffffffffffffffffffffffffffffffffffffffffffffffffffffffffffffff81610a1057fe5b0490505b60006401000000008281610a2457fe5b0614610a31576001610a34565b60005b60ff16602082901c0192505050919050565b600080600080198587098587029250828110838203039150506000811415610a815760008411610a7557600080fd5b83820492505050610b19565b808411610a8d57600080fd5b600084868809905082811182039150808303925060008586600003169050808604955080840493506001818260000304019050808302841793506000600287600302189050808702600203810290508087026002038102905080870260020381029050808702600203810290508087026002038102905080870260020381029050808502955050505050505b939250505056fea2646970667358221220b36141bb7a5a736dd9f483ec06c904d6891c51cd4cd61dfaf71efb761ede5f0064736f6c63430007060033",
  "immutableReferences": {},
  "source": "// // SPDX-License-Identifier: MIT\r\n// pragma solidity 0.7.6;\r\n// \r\n// import \"@chainlink/contracts/src/v0.7/interfaces/AggregatorV3Interface.sol\";\r\n// import \"@uniswap/v3\r\n// import \"@openzeppelin/contracts/math/SafeMath.sol\";\r\n// \r\n// \r\n// contract PriceOracle {\r\n//     using SafeMath for uint256;\r\n// \r\n//     function getPrice(address priceAggregatorAddress) external view returns (uint) {\r\n//         AggregatorV3Interface aggregator = AggregatorV3Interface(priceAggregatorAddress);\r\n//         (, int price,,,) = aggregator.latestRoundData();\r\n//         return uint256(price).mul(10000000000);\r\n//     }\r\n// \r\n// }\r\n\r\n\r\n// SPDX-License-Identifier: MIT\r\npragma solidity 0.7.6;\r\n\r\nimport \"@uniswap/v3-core/contracts/interfaces/IUniswapV3Pool.sol\";\r\nimport '@uniswap/v3-core/contracts/libraries/TickMath.sol';\r\nimport \"@uniswap/v3-core/contracts/interfaces/IUniswapV3Factory.sol\";\r\nimport \"@uniswap/v3-periphery/contracts/interfaces/IQuoterV2.sol\";\r\nimport \"@uniswap/v3-periphery/contracts/libraries/OracleLibrary.sol\";\r\nimport \"@uniswap/v3-core/contracts/libraries/FixedPoint96.sol\";\r\nimport \"@uniswap/v3-core/contracts/libraries/FullMath.sol\";\r\nimport \"@openzeppelin/contracts/token/ERC20/ERC20.sol\";\r\nimport \"@openzeppelin/contracts/math/SafeMath.sol\";\r\n\r\n\r\ncontract PriceOracle {\r\n    using SafeMath for uint256;\r\n    IUniswapV3Factory private factory;\r\n    address baseToken;\r\n    address WETH;\r\n\r\n    constructor(){\r\n        factory = IUniswapV3Factory(0x1F98431c8aD98523631AE4a59f267346ea31F984);\r\n        baseToken = 0x6B175474E89094C44Da98b954EedeAC495271d0F;\r\n        WETH = 0xC02aaA39b223FE8D0A0e5C4F27eAD9083C756Cc2;\r\n    }\r\n\r\n    function getLatestTick(address firstToken, address secondToken, uint24 fee) internal view returns(int24){\r\n        IUniswapV3Pool pool = IUniswapV3Pool(factory.getPool(firstToken, secondToken, fee));\r\n        (, int24 tick, ,,,, ) = pool.slot0();\r\n        return tick;\r\n    }\r\n\r\n    function getPrice(\r\n        address _secondToken, uint24[2] memory poolFees, address intermediateToken, bool isReverse\r\n    ) external view returns (uint) {\r\n        address firstToken;\r\n        address secondToken;\r\n\r\n        if(isReverse){\r\n            firstToken = _secondToken;\r\n            secondToken = baseToken;\r\n        } else {\r\n            firstToken = baseToken;\r\n            secondToken = _secondToken;\r\n        }\r\n\r\n\r\n        if(intermediateToken == address(0)){\r\n            int24 tick = getLatestTick(firstToken, secondToken, poolFees[0]);\r\n            return OracleLibrary.getQuoteAtTick(tick, 1 ether, secondToken, firstToken);\r\n        }else{\r\n            int24 firstTick = getLatestTick(intermediateToken, secondToken, poolFees[1]);\r\n            uint firstSwapPrice = OracleLibrary.getQuoteAtTick(firstTick, 1 ether, secondToken, intermediateToken);\r\n\r\n            int24 secondTick = getLatestTick(firstToken, intermediateToken, poolFees[0]);\r\n            uint secondSwapPrice = OracleLibrary.getQuoteAtTick(\r\n                secondTick, uint128(firstSwapPrice), intermediateToken, firstToken\r\n            );\r\n\r\n            return secondSwapPrice;\r\n        }\r\n\r\n    }\r\n\r\n}",
  "sourcePath": "D:\\JavascriptProjects\\crypto-index\\contracts\\indices\\PriceOracle.sol",
  "compiler": {
    "name": "solc",
    "version": "0.7.6+commit.7338295f.Emscripten.clang"
  },
  "schemaVersion": "3.4.6",
  "updatedAt": "2022-05-30T11:35:02.154Z",
  "devdoc": {
    "kind": "dev",
    "methods": {},
    "version": 1
  },
  "userdoc": {
    "kind": "user",
    "methods": {},
    "version": 1
  }
}