{
  "contractName": "PriceOracle",
  "abi": [
    {
      "inputs": [
        {
          "internalType": "address",
          "name": "priceAggregatorAddress",
          "type": "address"
        },
        {
          "internalType": "uint256",
          "name": "priceAdjustment",
          "type": "uint256"
        }
      ],
      "name": "getPrice",
      "outputs": [
        {
          "internalType": "uint256",
          "name": "",
          "type": "uint256"
        }
      ],
      "stateMutability": "view",
      "type": "function"
    }
  ],
  "bytecode": "0x608060405234801561001057600080fd5b50610193806100206000396000f3fe608060405234801561001057600080fd5b506004361061002b5760003560e01c8063449e815d14610030575b600080fd5b61007c6004803603604081101561004657600080fd5b81019080803573ffffffffffffffffffffffffffffffffffffffff16906020019092919080359060200190929190505050610092565b6040518082815260200191505060405180910390f35b60008083905060008173ffffffffffffffffffffffffffffffffffffffff1663feaf968c6040518163ffffffff1660e01b815260040160a06040518083038186803b1580156100e057600080fd5b505afa1580156100f4573d6000803e3d6000fd5b505050506040513d60a081101561010a57600080fd5b81019080805190602001909291908051906020019092919080519060200190929190805190602001909291908051906020019092919050505050505091505083818161015257fe5b04925050509291505056fea2646970667358221220fde3fea3ecf4f71a621fd6b5ef1159f25c7ec30671664bfe4c121b82951c6b1a64736f6c63430007050033",
  "immutableReferences": {},
  "source": "// SPDX-License-Identifier: MIT\r\npragma solidity >=0.7.5;\r\n\r\nimport \"@chainlink/contracts/src/v0.7/interfaces/AggregatorV3Interface.sol\";\r\n\r\n\r\ncontract PriceOracle {\r\n\r\n    function getPrice(address priceAggregatorAddress, uint priceAdjustment) external view returns (uint) {\r\n        AggregatorV3Interface aggregator = AggregatorV3Interface(priceAggregatorAddress);\r\n        (, int price,,,) = aggregator.latestRoundData();\r\n        return uint(price) / priceAdjustment;\r\n    }\r\n\r\n}",
  "sourcePath": "F:\\JavascriptProjects\\crypto-index\\contracts\\PriceOracle.sol",
  "compiler": {
    "name": "solc",
    "version": "0.7.5+commit.eb77ed08.Linux.g++"
  },
  "schemaVersion": "3.4.3",
  "updatedAt": "2022-03-25T13:16:23.728Z",
  "devdoc": {
    "kind": "dev",
    "methods": {},
    "version": 1
  },
  "userdoc": {
    "kind": "user",
    "methods": {},
    "version": 1
  }
}