{
  "contractName": "PriceOracle",
  "abi": [
    {
      "inputs": [
        {
          "internalType": "address",
          "name": "factoryAddress",
          "type": "address"
        },
        {
          "internalType": "address",
          "name": "_baseToken",
          "type": "address"
        }
      ],
      "stateMutability": "nonpayable",
      "type": "constructor"
    },
    {
      "inputs": [
        {
          "internalType": "address",
          "name": "secondToken",
          "type": "address"
        },
        {
          "internalType": "uint24",
          "name": "poolFee",
          "type": "uint24"
        }
      ],
      "name": "getPrice",
      "outputs": [
        {
          "internalType": "uint256",
          "name": "",
          "type": "uint256"
        }
      ],
      "stateMutability": "view",
      "type": "function"
    },
    {
      "inputs": [
        {
          "internalType": "address",
          "name": "secondToken",
          "type": "address"
        },
        {
          "internalType": "uint24",
          "name": "poolFee",
          "type": "uint24"
        }
      ],
      "name": "getPrice2",
      "outputs": [
        {
          "internalType": "uint256",
          "name": "",
          "type": "uint256"
        },
        {
          "internalType": "uint256",
          "name": "",
          "type": "uint256"
        }
      ],
      "stateMutability": "view",
      "type": "function"
    }
  ],
  "bytecode": "0x608060405234801561001057600080fd5b5060405161126b38038061126b8339818101604052604081101561003357600080fd5b810190808051906020019092919080519060200190929190505050816000806101000a81548173ffffffffffffffffffffffffffffffffffffffff021916908373ffffffffffffffffffffffffffffffffffffffff16021790555080600160006101000a81548173ffffffffffffffffffffffffffffffffffffffff021916908373ffffffffffffffffffffffffffffffffffffffff160217905550505061118b806100e06000396000f3fe608060405234801561001057600080fd5b50600436106100365760003560e01c8063282be0c41461003b57806332920548146100a9575b600080fd5b61008c6004803603604081101561005157600080fd5b81019080803573ffffffffffffffffffffffffffffffffffffffff169060200190929190803562ffffff169060200190929190505050610110565b604051808381526020018281526020019250505060405180910390f35b6100fa600480360360408110156100bf57600080fd5b81019080803573ffffffffffffffffffffffffffffffffffffffff169060200190929190803562ffffff1690602001909291905050506106ca565b6040518082815260200191505060405180910390f35b60008060008060009054906101000a900473ffffffffffffffffffffffffffffffffffffffff1673ffffffffffffffffffffffffffffffffffffffff16631698ee82600160009054906101000a900473ffffffffffffffffffffffffffffffffffffffff1687876040518463ffffffff1660e01b8152600401808473ffffffffffffffffffffffffffffffffffffffff1681526020018373ffffffffffffffffffffffffffffffffffffffff1681526020018262ffffff168152602001935050505060206040518083038186803b1580156101ea57600080fd5b505afa1580156101fe573d6000803e3d6000fd5b505050506040513d602081101561021457600080fd5b810190808051906020019092919050505090506000600267ffffffffffffffff8111801561024157600080fd5b506040519080825280602002602001820160405280156102705781602001602082028036833780820191505090505b50905060018160008151811061028257fe5b602002602001019063ffffffff16908163ffffffff16815250506000816001815181106102ab57fe5b602002602001019063ffffffff16908163ffffffff168152505060008273ffffffffffffffffffffffffffffffffffffffff1663883bdbfd836040518263ffffffff1660e01b81526004018080602001828103825283818151815260200191508051906020019060200280838360005b8381101561033657808201518184015260208101905061031b565b505050509050019250505060006040518083038186803b15801561035957600080fd5b505afa15801561036d573d6000803e3d6000fd5b505050506040513d6000823e3d601f19601f82011682018060405250604081101561039757600080fd5b81019080805160405193929190846401000000008211156103b757600080fd5b838201915060208201858111156103cd57600080fd5b82518660208202830111640100000000821117156103ea57600080fd5b8083526020830192505050908051906020019060200280838360005b83811015610421578082015181840152602081019050610406565b505050509050016040526020018051604051939291908464010000000082111561044a57600080fd5b8382019150602082018581111561046057600080fd5b825186602082028301116401000000008211171561047d57600080fd5b8083526020830192505050908051906020019060200280838360005b838110156104b4578082015181840152602081019050610499565b505050509050016040525050505090506000816000815181106104d357fe5b6020026020010151826001815181106104e857fe5b602002602001015103905060008360018151811061050257fe5b60200260200101518460008151811061051757fe5b60200260200101510363ffffffff16905060008160000360060b8360060b8161053c57fe5b05905060008673ffffffffffffffffffffffffffffffffffffffff16630dfe16816040518163ffffffff1660e01b815260040160206040518083038186803b15801561058757600080fd5b505afa15801561059b573d6000803e3d6000fd5b505050506040513d60208110156105b157600080fd5b810190808051906020019092919050505073ffffffffffffffffffffffffffffffffffffffff1663313ce5676040518163ffffffff1660e01b815260040160206040518083038186803b15801561060757600080fd5b505afa15801561061b573d6000803e3d6000fd5b505050506040513d602081101561063157600080fd5b81019080805190602001909291905050509050600061064f83610c73565b905060008173ffffffffffffffffffffffffffffffffffffffff168273ffffffffffffffffffffffffffffffffffffffff16029050600060c06106a3670de0b6b3a7640000846110ae90919063ffffffff16565b901c905060008460ff16600a0a905081819c509c5050505050505050505050509250929050565b60008060008054906101000a900473ffffffffffffffffffffffffffffffffffffffff1673ffffffffffffffffffffffffffffffffffffffff16631698ee82600160009054906101000a900473ffffffffffffffffffffffffffffffffffffffff1686866040518463ffffffff1660e01b8152600401808473ffffffffffffffffffffffffffffffffffffffff1681526020018373ffffffffffffffffffffffffffffffffffffffff1681526020018262ffffff168152602001935050505060206040518083038186803b1580156107a157600080fd5b505afa1580156107b5573d6000803e3d6000fd5b505050506040513d60208110156107cb57600080fd5b810190808051906020019092919050505090506000600267ffffffffffffffff811180156107f857600080fd5b506040519080825280602002602001820160405280156108275781602001602082028036833780820191505090505b50905060018160008151811061083957fe5b602002602001019063ffffffff16908163ffffffff168152505060008160018151811061086257fe5b602002602001019063ffffffff16908163ffffffff168152505060008273ffffffffffffffffffffffffffffffffffffffff1663883bdbfd836040518263ffffffff1660e01b81526004018080602001828103825283818151815260200191508051906020019060200280838360005b838110156108ed5780820151818401526020810190506108d2565b505050509050019250505060006040518083038186803b15801561091057600080fd5b505afa158015610924573d6000803e3d6000fd5b505050506040513d6000823e3d601f19601f82011682018060405250604081101561094e57600080fd5b810190808051604051939291908464010000000082111561096e57600080fd5b8382019150602082018581111561098457600080fd5b82518660208202830111640100000000821117156109a157600080fd5b8083526020830192505050908051906020019060200280838360005b838110156109d85780820151818401526020810190506109bd565b5050505090500160405260200180516040519392919084640100000000821115610a0157600080fd5b83820191506020820185811115610a1757600080fd5b8251866020820283011164010000000082111715610a3457600080fd5b8083526020830192505050908051906020019060200280838360005b83811015610a6b578082015181840152602081019050610a50565b50505050905001604052505050509050600081600081518110610a8a57fe5b602002602001015182600181518110610a9f57fe5b6020026020010151039050600083600181518110610ab957fe5b602002602001015184600081518110610ace57fe5b60200260200101510363ffffffff16905060008160000360060b8360060b81610af357fe5b05905060008673ffffffffffffffffffffffffffffffffffffffff16630dfe16816040518163ffffffff1660e01b815260040160206040518083038186803b158015610b3e57600080fd5b505afa158015610b52573d6000803e3d6000fd5b505050506040513d6020811015610b6857600080fd5b810190808051906020019092919050505073ffffffffffffffffffffffffffffffffffffffff1663313ce5676040518163ffffffff1660e01b815260040160206040518083038186803b158015610bbe57600080fd5b505afa158015610bd2573d6000803e3d6000fd5b505050506040513d6020811015610be857600080fd5b810190808051906020019092919050505090506000610c0683610c73565b905060008173ffffffffffffffffffffffffffffffffffffffff168273ffffffffffffffffffffffffffffffffffffffff16029050600060c0670de0b6b3a76400008302901c905060008460ff16600a0a90508163ffffffff169b50505050505050505050505092915050565b60008060008360020b12610c8a578260020b610c92565b8260020b6000035b90507ffffffffffffffffffffffffffffffffffffffffffffffffffffffffffff2761860000360020b811115610d30576040517f08c379a00000000000000000000000000000000000000000000000000000000081526004018080602001828103825260018152602001807f540000000000000000000000000000000000000000000000000000000000000081525060200191505060405180910390fd5b600080600183161415610d5457700100000000000000000000000000000000610d66565b6ffffcb933bd6fad37aa2d162d1a5940015b70ffffffffffffffffffffffffffffffffff16905060006002831614610da05760806ffff97272373d413259a46990580e213a8202901c90505b60006004831614610dc55760806ffff2e50f5f656932ef12357cf3c7fdcc8202901c90505b60006008831614610dea5760806fffe5caca7e10e4e61c3624eaa0941cd08202901c90505b60006010831614610e0f5760806fffcb9843d60f6159c9db58835c9266448202901c90505b60006020831614610e345760806fff973b41fa98c081472e6896dfb254c08202901c90505b60006040831614610e595760806fff2ea16466c96a3843ec78b326b528618202901c90505b60006080831614610e7e5760806ffe5dee046a99a2a811c461f1969c30538202901c90505b6000610100831614610ea45760806ffcbe86c7900a88aedcffc83b479aa3a48202901c90505b6000610200831614610eca5760806ff987a7253ac413176f2b074cf7815e548202901c90505b6000610400831614610ef05760806ff3392b0822b70005940c7a398e4b70f38202901c90505b6000610800831614610f165760806fe7159475a2c29b7443b29c7fa6e889d98202901c90505b6000611000831614610f3c5760806fd097f3bdfd2022b8845ad8f792aa58258202901c90505b6000612000831614610f625760806fa9f746462d870fdf8a65dc1f90e061e58202901c90505b6000614000831614610f885760806f70d869a156d2a1b890bb3df62baf32f78202901c90505b6000618000831614610fae5760806f31be135f97d08fd981231505542fcfa68202901c90505b600062010000831614610fd55760806f09aa508b5b7a84e1c677de54f3e99bc98202901c90505b600062020000831614610ffb5760806e5d6af8dedb81196699c329225ee6048202901c90505b6000620400008316146110205760806d2216e584f5fa1ea926041bedfe988202901c90505b6000620800008316146110435760806b048a170391f7dc42444e8fa28202901c90505b60008460020b131561107c57807fffffffffffffffffffffffffffffffffffffffffffffffffffffffffffffffff8161107857fe5b0490505b6000640100000000828161108c57fe5b061461109957600161109c565b60005b60ff16602082901c0192505050919050565b6000808314156110c1576000905061112e565b60008284029050828482816110d257fe5b0414611129576040517f08c379a00000000000000000000000000000000000000000000000000000000081526004018080602001828103825260218152602001806111356021913960400191505060405180910390fd5b809150505b9291505056fe536166654d6174683a206d756c7469706c69636174696f6e206f766572666c6f77a2646970667358221220918ecd2bb66b1adf60645d4372d84405f6fcee9e147a53593755427fe2a59eae64736f6c63430007060033",
  "immutableReferences": {},
  "source": "// SPDX-License-Identifier: MIT\r\npragma solidity 0.7.6;\r\n\r\nimport \"@uniswap/v3-core/contracts/interfaces/IUniswapV3Pool.sol\";\r\nimport '@uniswap/v3-core/contracts/libraries/TickMath.sol';\r\nimport \"@uniswap/v3-core/contracts/interfaces/IUniswapV3Factory.sol\";\r\nimport \"@uniswap/v3-periphery/contracts/interfaces/IQuoterV2.sol\";\r\nimport \"@openzeppelin/contracts/token/ERC20/ERC20.sol\";\r\nimport \"@openzeppelin/contracts/math/SafeMath.sol\";\r\n\r\n\r\ncontract PriceOracle {\r\n    using SafeMath for uint256;\r\n    IUniswapV3Factory private factory;\r\n    address baseToken;\r\n\r\n    constructor(address factoryAddress, address _baseToken){\r\n        factory = IUniswapV3Factory(factoryAddress);\r\n        baseToken = _baseToken;\r\n    }\r\n\r\n    function getPrice(address secondToken, uint24 poolFee) external view returns (uint) {\r\n        IUniswapV3Pool uniswapv3Pool = IUniswapV3Pool(factory.getPool(baseToken, secondToken, poolFee));\r\n\r\n        uint32[] memory secondAgos = new uint32[](2);\r\n        secondAgos[0] = 1;\r\n        secondAgos[1] = 0;\r\n\r\n        (int56[] memory tickCumulatives, ) = uniswapv3Pool.observe(secondAgos);\r\n\r\n        int56 tickCumulativesDiff = tickCumulatives[1] - tickCumulatives[0];\r\n        uint56 period = uint56(secondAgos[0]-secondAgos[1]);\r\n\r\n        int56 timeWeightedAverageTick = (tickCumulativesDiff / -int56(period));\r\n\r\n        uint8 decimalToken0 = ERC20(uniswapv3Pool.token0()).decimals();\r\n        uint160 sqrtRatioX96 = TickMath.getSqrtRatioAtTick(int24(timeWeightedAverageTick));\r\n        uint256 ratioX192 = uint256(sqrtRatioX96) * sqrtRatioX96;\r\n        \r\n        uint32 price = uint32((ratioX192 * 1e18) >> (96 * 2));\r\n        uint32 decimalAdjFactor = uint32(10**(decimalToken0));\r\n\r\n        return uint(price);\r\n\r\n    }\r\n\r\n    function getPrice2(address secondToken, uint24 poolFee) external view returns (uint, uint) {\r\n        IUniswapV3Pool uniswapv3Pool = IUniswapV3Pool(factory.getPool(baseToken, secondToken, poolFee));\r\n\r\n        uint32[] memory secondAgos = new uint32[](2);\r\n        secondAgos[0] = 1;\r\n        secondAgos[1] = 0;\r\n\r\n        (int56[] memory tickCumulatives, ) = uniswapv3Pool.observe(secondAgos);\r\n\r\n        int56 tickCumulativesDiff = tickCumulatives[1] - tickCumulatives[0];\r\n        uint56 period = uint56(secondAgos[0]-secondAgos[1]);\r\n\r\n        int56 timeWeightedAverageTick = (tickCumulativesDiff / -int56(period));\r\n\r\n        uint8 decimalToken0 = ERC20(uniswapv3Pool.token0()).decimals();\r\n        uint160 sqrtRatioX96 = TickMath.getSqrtRatioAtTick(int24(timeWeightedAverageTick));\r\n        uint256 ratioX192 = uint256(sqrtRatioX96) * sqrtRatioX96;\r\n        \r\n        uint price = (ratioX192.mul(1e18)) >> 96 * 2;\r\n        uint decimalAdjFactor = 10 ** decimalToken0;\r\n\r\n        return (price, uint256(decimalAdjFactor));\r\n\r\n    }\r\n\r\n}",
  "sourcePath": "D:\\JavascriptProjects\\crypto-index\\contracts\\indices\\PriceOracle.sol",
  "compiler": {
    "name": "solc",
    "version": "0.7.6+commit.7338295f.Linux.g++"
  },
  "schemaVersion": "3.4.6",
  "updatedAt": "2022-05-11T19:17:43.071Z",
  "devdoc": {
    "kind": "dev",
    "methods": {},
    "version": 1
  },
  "userdoc": {
    "kind": "user",
    "methods": {},
    "version": 1
  }
}