{
  "contractName": "PriceOracle",
  "abi": [
    {
      "inputs": [
        {
          "internalType": "address",
          "name": "firstToken",
          "type": "address"
        },
        {
          "internalType": "address",
          "name": "secondToken",
          "type": "address"
        },
        {
          "internalType": "uint24[2]",
          "name": "tokenFees",
          "type": "uint24[2]"
        },
        {
          "internalType": "address",
          "name": "intermediateToken",
          "type": "address"
        }
      ],
      "name": "getLiquidity",
      "outputs": [
        {
          "internalType": "uint256",
          "name": "",
          "type": "uint256"
        }
      ],
      "stateMutability": "view",
      "type": "function"
    },
    {
      "inputs": [
        {
          "internalType": "address",
          "name": "firstToken",
          "type": "address"
        },
        {
          "internalType": "address",
          "name": "secondToken",
          "type": "address"
        },
        {
          "internalType": "uint24[2]",
          "name": "poolFees",
          "type": "uint24[2]"
        },
        {
          "internalType": "address",
          "name": "intermediateToken",
          "type": "address"
        }
      ],
      "name": "getPrice",
      "outputs": [
        {
          "internalType": "uint256",
          "name": "",
          "type": "uint256"
        }
      ],
      "stateMutability": "view",
      "type": "function"
    }
  ],
  "bytecode": "0x6080604052731f98431c8ad98523631ae4a59f267346ea31f9846000806101000a81548173ffffffffffffffffffffffffffffffffffffffff021916908373ffffffffffffffffffffffffffffffffffffffff16021790555034801561006457600080fd5b50611936806100746000396000f3fe608060405234801561001057600080fd5b50600436106100365760003560e01c8063ad72a0a11461003b578063c5f0e3b41461006b575b600080fd5b6100556004803603810190610050919061158a565b61009b565b6040516100629190611718565b60405180910390f35b6100856004803603810190610080919061158a565b610196565b6040516100929190611718565b60405180910390f35b60008073ffffffffffffffffffffffffffffffffffffffff168273ffffffffffffffffffffffffffffffffffffffff1614156100f4576100ed8585856000600281106100e357fe5b6020020151610280565b905061018e565b600061011286848660006002811061010857fe5b6020020151610280565b9050600061013284878760016002811061012857fe5b6020020151610280565b905060006101438886886000610196565b9050610172670de0b6b3a764000061016483856103cf90919063ffffffff16565b61045590919063ffffffff16565b9150818311156101875781935050505061018e565b8293505050505b949350505050565b60008073ffffffffffffffffffffffffffffffffffffffff168273ffffffffffffffffffffffffffffffffffffffff1614156102085760006101ea8686866000600281106101e057fe5b60200201516104de565b905061020081670de0b6b3a76400008789610624565b915050610278565b600061022683868660016002811061021c57fe5b60200201516104de565b9050600061023e82670de0b6b3a76400008887610624565b9050600061025e88868860006002811061025457fe5b60200201516104de565b9050600061026e8284888c610624565b9050809450505050505b949350505050565b6000806000806000610293888888610827565b93509350935093506000808973ffffffffffffffffffffffffffffffffffffffff168473ffffffffffffffffffffffffffffffffffffffff16141561033f576000610305858560405180604001604052808d62ffffff1662ffffff168152602001600062ffffff168152506000610196565b9050610334670de0b6b3a764000061032683896103cf90919063ffffffff16565b61045590919063ffffffff16565b9250869150506103a8565b6000610372848660405180604001604052808d62ffffff1662ffffff168152602001600062ffffff168152506000610196565b90506103a1670de0b6b3a7640000610393838a6103cf90919063ffffffff16565b61045590919063ffffffff16565b9250859150505b818111156103be578196505050505050506103c8565b8096505050505050505b9392505050565b6000808314156103e2576000905061044f565b60008284029050828482816103f357fe5b041461044a576040517f08c379a00000000000000000000000000000000000000000000000000000000081526004018080602001828103825260218152602001806118e06021913960400191505060405180910390fd5b809150505b92915050565b60008082116104cc576040517f08c379a000000000000000000000000000000000000000000000000000000000815260040180806020018281038252601a8152602001807f536166654d6174683a206469766973696f6e206279207a65726f00000000000081525060200191505060405180910390fd5b8183816104d557fe5b04905092915050565b60008060008054906101000a900473ffffffffffffffffffffffffffffffffffffffff1673ffffffffffffffffffffffffffffffffffffffff16631698ee828686866040518463ffffffff1660e01b815260040161053e939291906116e1565b60206040518083038186803b15801561055657600080fd5b505afa15801561056a573d6000803e3d6000fd5b505050506040513d601f19601f8201168201806040525081019061058e9190611561565b905060008173ffffffffffffffffffffffffffffffffffffffff16633850c7bd6040518163ffffffff1660e01b815260040160e06040518083038186803b1580156105d857600080fd5b505afa1580156105ec573d6000803e3d6000fd5b505050506040513d601f19601f820116820180604052508101906106109190611616565b505050505091505080925050509392505050565b60008061063086610bc1565b90506fffffffffffffffffffffffffffffffff80168173ffffffffffffffffffffffffffffffffffffffff16116107415760008173ffffffffffffffffffffffffffffffffffffffff168273ffffffffffffffffffffffffffffffffffffffff160290508373ffffffffffffffffffffffffffffffffffffffff168573ffffffffffffffffffffffffffffffffffffffff1610610702576106fd7801000000000000000000000000000000000000000000000000876fffffffffffffffffffffffffffffffff1683610ffc565b610739565b61073881876fffffffffffffffffffffffffffffffff167801000000000000000000000000000000000000000000000000610ffc565b5b92505061081e565b60006107838273ffffffffffffffffffffffffffffffffffffffff168373ffffffffffffffffffffffffffffffffffffffff1668010000000000000000610ffc565b90508373ffffffffffffffffffffffffffffffffffffffff168573ffffffffffffffffffffffffffffffffffffffff16106107eb576107e6700100000000000000000000000000000000876fffffffffffffffffffffffffffffffff1683610ffc565b61081a565b61081981876fffffffffffffffffffffffffffffffff16700100000000000000000000000000000000610ffc565b5b9250505b50949350505050565b60008060008060008060009054906101000a900473ffffffffffffffffffffffffffffffffffffffff1673ffffffffffffffffffffffffffffffffffffffff16631698ee828989896040518463ffffffff1660e01b815260040161088d939291906116e1565b60206040518083038186803b1580156108a557600080fd5b505afa1580156108b9573d6000803e3d6000fd5b505050506040513d601f19601f820116820180604052508101906108dd9190611561565b905060008173ffffffffffffffffffffffffffffffffffffffff16633850c7bd6040518163ffffffff1660e01b815260040160e06040518083038186803b15801561092757600080fd5b505afa15801561093b573d6000803e3d6000fd5b505050506040513d601f19601f8201168201806040525081019061095f9190611616565b5050505050509050600061099360028373ffffffffffffffffffffffffffffffffffffffff1661045590919063ffffffff16565b905060006109d68273ffffffffffffffffffffffffffffffffffffffff168473ffffffffffffffffffffffffffffffffffffffff166110d690919063ffffffff16565b90506000610a198373ffffffffffffffffffffffffffffffffffffffff168573ffffffffffffffffffffffffffffffffffffffff1661115e90919063ffffffff16565b9050600080610aa78684868a73ffffffffffffffffffffffffffffffffffffffff16631a6865026040518163ffffffff1660e01b815260040160206040518083038186803b158015610a6a57600080fd5b505afa158015610a7e573d6000803e3d6000fd5b505050506040513d601f19601f82011682018060405250810190610aa291906115ed565b6111e1565b9150915081818873ffffffffffffffffffffffffffffffffffffffff16630dfe16816040518163ffffffff1660e01b815260040160206040518083038186803b158015610af357600080fd5b505afa158015610b07573d6000803e3d6000fd5b505050506040513d601f19601f82011682018060405250810190610b2b9190611561565b8973ffffffffffffffffffffffffffffffffffffffff1663d21220a76040518163ffffffff1660e01b815260040160206040518083038186803b158015610b7157600080fd5b505afa158015610b85573d6000803e3d6000fd5b505050506040513d601f19601f82011682018060405250810190610ba99190611561565b9a509a509a509a505050505050505093509350935093565b60008060008360020b12610bd8578260020b610be0565b8260020b6000035b90507ffffffffffffffffffffffffffffffffffffffffffffffffffffffffffff2761860000360020b811115610c7e576040517f08c379a00000000000000000000000000000000000000000000000000000000081526004018080602001828103825260018152602001807f540000000000000000000000000000000000000000000000000000000000000081525060200191505060405180910390fd5b600080600183161415610ca257700100000000000000000000000000000000610cb4565b6ffffcb933bd6fad37aa2d162d1a5940015b70ffffffffffffffffffffffffffffffffff16905060006002831614610cee5760806ffff97272373d413259a46990580e213a8202901c90505b60006004831614610d135760806ffff2e50f5f656932ef12357cf3c7fdcc8202901c90505b60006008831614610d385760806fffe5caca7e10e4e61c3624eaa0941cd08202901c90505b60006010831614610d5d5760806fffcb9843d60f6159c9db58835c9266448202901c90505b60006020831614610d825760806fff973b41fa98c081472e6896dfb254c08202901c90505b60006040831614610da75760806fff2ea16466c96a3843ec78b326b528618202901c90505b60006080831614610dcc5760806ffe5dee046a99a2a811c461f1969c30538202901c90505b6000610100831614610df25760806ffcbe86c7900a88aedcffc83b479aa3a48202901c90505b6000610200831614610e185760806ff987a7253ac413176f2b074cf7815e548202901c90505b6000610400831614610e3e5760806ff3392b0822b70005940c7a398e4b70f38202901c90505b6000610800831614610e645760806fe7159475a2c29b7443b29c7fa6e889d98202901c90505b6000611000831614610e8a5760806fd097f3bdfd2022b8845ad8f792aa58258202901c90505b6000612000831614610eb05760806fa9f746462d870fdf8a65dc1f90e061e58202901c90505b6000614000831614610ed65760806f70d869a156d2a1b890bb3df62baf32f78202901c90505b6000618000831614610efc5760806f31be135f97d08fd981231505542fcfa68202901c90505b600062010000831614610f235760806f09aa508b5b7a84e1c677de54f3e99bc98202901c90505b600062020000831614610f495760806e5d6af8dedb81196699c329225ee6048202901c90505b600062040000831614610f6e5760806d2216e584f5fa1ea926041bedfe988202901c90505b600062080000831614610f915760806b048a170391f7dc42444e8fa28202901c90505b60008460020b1315610fca57807fffffffffffffffffffffffffffffffffffffffffffffffffffffffffffffffff81610fc657fe5b0490505b60006401000000008281610fda57fe5b0614610fe7576001610fea565b60005b60ff16602082901c0192505050919050565b600080600080198587098587029250828110838203039150506000811415611037576000841161102b57600080fd5b838204925050506110cf565b80841161104357600080fd5b600084868809905082811182039150808303925060008586600003169050808604955080840493506001818260000304019050808302841793506000600287600302189050808702600203810290508087026002038102905080870260020381029050808702600203810290508087026002038102905080870260020381029050808502955050505050505b9392505050565b600080828401905083811015611154576040517f08c379a000000000000000000000000000000000000000000000000000000000815260040180806020018281038252601b8152602001807f536166654d6174683a206164646974696f6e206f766572666c6f77000000000081525060200191505060405180910390fd5b8091505092915050565b6000828211156111d6576040517f08c379a000000000000000000000000000000000000000000000000000000000815260040180806020018281038252601e8152602001807f536166654d6174683a207375627472616374696f6e206f766572666c6f77000081525060200191505060405180910390fd5b818303905092915050565b6000808373ffffffffffffffffffffffffffffffffffffffff168573ffffffffffffffffffffffffffffffffffffffff16111561122357838580955081965050505b8473ffffffffffffffffffffffffffffffffffffffff168673ffffffffffffffffffffffffffffffffffffffff1611611268576112618585856112d3565b91506112ca565b8373ffffffffffffffffffffffffffffffffffffffff168673ffffffffffffffffffffffffffffffffffffffff1610156112bb576112a78685856112d3565b91506112b485878561138e565b90506112c9565b6112c685858561138e565b90505b5b94509492505050565b60008273ffffffffffffffffffffffffffffffffffffffff168473ffffffffffffffffffffffffffffffffffffffff16111561131457828480945081955050505b8373ffffffffffffffffffffffffffffffffffffffff1661137d606060ff16846fffffffffffffffffffffffffffffffff16901b86860373ffffffffffffffffffffffffffffffffffffffff168673ffffffffffffffffffffffffffffffffffffffff16610ffc565b8161138457fe5b0490509392505050565b60008273ffffffffffffffffffffffffffffffffffffffff168473ffffffffffffffffffffffffffffffffffffffff1611156113cf57828480945081955050505b611411826fffffffffffffffffffffffffffffffff1685850373ffffffffffffffffffffffffffffffffffffffff166c01000000000000000000000000610ffc565b90509392505050565b600061142d61142884611764565b611733565b9050808285602086028201111561144357600080fd5b60005b8581101561147357816114598882611537565b845260208401935060208301925050600181019050611446565b5050509392505050565b60008135905061148c81611827565b92915050565b6000815190506114a181611827565b92915050565b600082601f8301126114b857600080fd5b60026114c584828561141a565b91505092915050565b6000815190506114dd8161183e565b92915050565b6000815190506114f281611855565b92915050565b6000815190506115078161186c565b92915050565b60008151905061151c8161189a565b92915050565b60008151905061153181611883565b92915050565b600081359050611546816118b1565b92915050565b60008151905061155b816118c8565b92915050565b60006020828403121561157357600080fd5b600061158184828501611492565b91505092915050565b60008060008060a085870312156115a057600080fd5b60006115ae8782880161147d565b94505060206115bf8782880161147d565b93505060406115d0878288016114a7565b92505060806115e18782880161147d565b91505092959194509250565b6000602082840312156115ff57600080fd5b600061160d848285016114f8565b91505092915050565b600080600080600080600060e0888a03121561163157600080fd5b600061163f8a828b0161150d565b97505060206116508a828b016114e3565b96505060406116618a828b01611522565b95505060606116728a828b01611522565b94505060806116838a828b01611522565b93505060a06116948a828b0161154c565b92505060c06116a58a828b016114ce565b91505092959891949750929550565b6116bd8161178a565b82525050565b6116cc816117ff565b82525050565b6116db8161180e565b82525050565b60006060820190506116f660008301866116b4565b61170360208301856116b4565b61171060408301846116c3565b949350505050565b600060208201905061172d60008301846116d2565b92915050565b6000604051905081810181811067ffffffffffffffff8211171561175a57611759611825565b5b8060405250919050565b600067ffffffffffffffff82111561177f5761177e611825565b5b602082029050919050565b6000611795826117df565b9050919050565b60008115159050919050565b60008160020b9050919050565b60006fffffffffffffffffffffffffffffffff82169050919050565b600061ffff82169050919050565b600073ffffffffffffffffffffffffffffffffffffffff82169050919050565b600062ffffff82169050919050565b6000819050919050565b600060ff82169050919050565bfe5b6118308161178a565b811461183b57600080fd5b50565b6118478161179c565b811461185257600080fd5b50565b61185e816117a8565b811461186957600080fd5b50565b611875816117b5565b811461188057600080fd5b50565b61188c816117d1565b811461189757600080fd5b50565b6118a3816117df565b81146118ae57600080fd5b50565b6118ba816117ff565b81146118c557600080fd5b50565b6118d181611818565b81146118dc57600080fd5b5056fe536166654d6174683a206d756c7469706c69636174696f6e206f766572666c6f77a2646970667358221220d2c670b8b87a06dee75aa92511b66b8543042c8ac0ada3a8fd73e5948407803764736f6c63430007060033",
  "immutableReferences": {},
  "source": "// SPDX-License-Identifier: MIT\r\npragma solidity 0.7.6;\r\npragma abicoder v2;\r\n\r\nimport \"@uniswap/v3-core/contracts/interfaces/IUniswapV3Pool.sol\";\r\nimport '@uniswap/v3-core/contracts/libraries/TickMath.sol';\r\nimport \"@uniswap/v3-core/contracts/interfaces/IUniswapV3Factory.sol\";\r\nimport \"@uniswap/v3-periphery/contracts/interfaces/IQuoterV2.sol\";\r\nimport \"@uniswap/v3-periphery/contracts/libraries/OracleLibrary.sol\";\r\nimport \"@uniswap/v3-core/contracts/libraries/FixedPoint96.sol\";\r\nimport \"@uniswap/v3-core/contracts/libraries/FullMath.sol\";\r\nimport \"@uniswap/v3-periphery/contracts/libraries/LiquidityAmounts.sol\";\r\nimport \"@openzeppelin/contracts/token/ERC20/ERC20.sol\";\r\nimport \"@openzeppelin/contracts/math/SafeMath.sol\";\r\n\r\n\r\ncontract PriceOracle {\r\n    using SafeMath for uint256;\r\n    using SafeMath for uint160;\r\n\r\n    IUniswapV3Factory private factory = IUniswapV3Factory(0x1F98431c8aD98523631AE4a59f267346ea31F984);\r\n\r\n    function getLatestTick(address firstToken, address secondToken, uint24 fee) private view returns(int24){\r\n        IUniswapV3Pool pool = IUniswapV3Pool(factory.getPool(firstToken, secondToken, fee));\r\n        (, int24 tick, ,,,, ) = pool.slot0();\r\n        return tick;\r\n    }\r\n\r\n    function getPoolTokensAmount(\r\n        address firstToken, address secondToken, uint24 fee\r\n    ) private view returns(uint, uint, address, address){\r\n        IUniswapV3Pool pool = IUniswapV3Pool(factory.getPool(firstToken, secondToken, fee));\r\n        (uint160 sqrtPriceX96,,,,,,) = pool.slot0();\r\n\r\n        uint160 halfRatioX96 = uint160(sqrtPriceX96.div(2));\r\n        uint160 sqrtRatioBX96 = uint160(sqrtPriceX96.add(halfRatioX96));\r\n        uint160 sqrtRatioAX96 = uint160(sqrtPriceX96.sub(halfRatioX96));\r\n\r\n        (uint amount0, uint amount1) = LiquidityAmounts.getAmountsForLiquidity(\r\n            sqrtPriceX96, sqrtRatioAX96, sqrtRatioBX96, pool.liquidity()\r\n        );\r\n        return (amount0, amount1, pool.token0(), pool.token1());\r\n    }\r\n\r\n    function getMinimalPoolLiquidity(address firstToken, address secondToken, uint24 fee) private view returns(uint){\r\n        (\r\n            uint amount0,\r\n            uint amount1,\r\n            address token0,\r\n            address token1\r\n        ) = getPoolTokensAmount(firstToken, secondToken, fee);\r\n        uint adjustedAmount;\r\n        uint anotherAmount;\r\n\r\n        if(token0 == firstToken){\r\n            uint firstTokenPrice = getPrice(token0, token1, [fee, 0], address(0));\r\n            adjustedAmount = amount1.mul(firstTokenPrice).div(1 ether);\r\n            anotherAmount = amount0;\r\n        }else{\r\n            uint firstTokenPrice = getPrice(token1, token0, [fee, 0], address(0));\r\n            adjustedAmount = amount0.mul(firstTokenPrice).div(1 ether);\r\n            anotherAmount = amount1;\r\n        }\r\n\r\n        if(anotherAmount > adjustedAmount){\r\n            return adjustedAmount;\r\n        }else{\r\n            return anotherAmount;\r\n        }\r\n    }\r\n\r\n    function getLiquidity(\r\n        address firstToken, address secondToken, uint24[2] memory tokenFees, address intermediateToken\r\n    ) external view returns(uint){\r\n        if(intermediateToken == address(0)){\r\n            return getMinimalPoolLiquidity(firstToken, secondToken, tokenFees[0]);\r\n        }else{\r\n            uint firstPoolLiquidity = getMinimalPoolLiquidity(firstToken, intermediateToken, tokenFees[0]);\r\n            uint secondPoolLiquidity = getMinimalPoolLiquidity(intermediateToken, secondToken, tokenFees[1]);\r\n\r\n            uint price = getPrice(firstToken, intermediateToken, tokenFees, address(0));\r\n            secondPoolLiquidity = secondPoolLiquidity.mul(price).div(1 ether);\r\n\r\n            if(firstPoolLiquidity > secondPoolLiquidity){\r\n                return secondPoolLiquidity;\r\n            }else{\r\n                return firstPoolLiquidity;\r\n            }\r\n\r\n        }\r\n\r\n    }\r\n\r\n    function getPrice(\r\n        address firstToken, address secondToken, uint24[2] memory poolFees, address intermediateToken\r\n    ) public view returns (uint) {\r\n\r\n        if(intermediateToken == address(0)){\r\n            int24 tick = getLatestTick(firstToken, secondToken, poolFees[0]);\r\n            return OracleLibrary.getQuoteAtTick(tick, 1 ether, secondToken, firstToken);\r\n        }else{\r\n            int24 firstTick = getLatestTick(intermediateToken, secondToken, poolFees[1]);\r\n            uint firstSwapPrice = OracleLibrary.getQuoteAtTick(firstTick, 1 ether, secondToken, intermediateToken);\r\n\r\n            int24 secondTick = getLatestTick(firstToken, intermediateToken, poolFees[0]);\r\n            uint secondSwapPrice = OracleLibrary.getQuoteAtTick(\r\n                secondTick,\r\n                uint128(firstSwapPrice),\r\n                intermediateToken,\r\n                firstToken\r\n            );\r\n\r\n            return secondSwapPrice;\r\n        }\r\n\r\n    }\r\n\r\n}",
  "sourcePath": "D:\\JavascriptProjects\\crypto-index\\contracts\\indices\\PriceOracle.sol",
  "compiler": {
    "name": "solc",
    "version": "0.7.6+commit.7338295f.Emscripten.clang"
  },
  "schemaVersion": "3.4.7",
  "updatedAt": "2022-06-08T14:03:55.942Z",
  "devdoc": {
    "kind": "dev",
    "methods": {},
    "version": 1
  },
  "userdoc": {
    "kind": "user",
    "methods": {},
    "version": 1
  }
}