{
  "contractName": "PriceOracle",
  "abi": [
    {
      "inputs": [
        {
          "internalType": "address",
          "name": "firstToken",
          "type": "address"
        },
        {
          "internalType": "address",
          "name": "secondToken",
          "type": "address"
        },
        {
          "internalType": "uint24",
          "name": "tokenFee",
          "type": "uint24"
        }
      ],
      "name": "getLiquidity",
      "outputs": [
        {
          "internalType": "uint256",
          "name": "",
          "type": "uint256"
        }
      ],
      "stateMutability": "view",
      "type": "function"
    },
    {
      "inputs": [
        {
          "internalType": "address",
          "name": "firstToken",
          "type": "address"
        },
        {
          "internalType": "address",
          "name": "secondToken",
          "type": "address"
        },
        {
          "internalType": "uint24",
          "name": "poolFee",
          "type": "uint24"
        }
      ],
      "name": "getPrice",
      "outputs": [
        {
          "internalType": "uint256",
          "name": "",
          "type": "uint256"
        }
      ],
      "stateMutability": "view",
      "type": "function"
    }
  ],
  "bytecode": "0x6080604052600080546001600160a01b031916731f98431c8ad98523631ae4a59f267346ea31f98417905534801561003657600080fd5b5061122f806100466000396000f3fe608060405234801561001057600080fd5b50600436106100365760003560e01c80634613d1351461003b578063d6556a3014610064575b600080fd5b61004e610049366004611054565b610077565b60405161005b91906111aa565b60405180910390f35b61004e610072366004611054565b6100a6565b60008061008585858561017c565b905061009b81670de0b6b3a764000086886102ba565b9150505b9392505050565b60008060008060006100b9888888610463565b93509350935093506000808973ffffffffffffffffffffffffffffffffffffffff168473ffffffffffffffffffffffffffffffffffffffff16141561012e57600061010585858b610077565b9050610123670de0b6b3a764000061011d88846107b8565b90610834565b92508691505061015a565b600061013b84868b610077565b9050610153670de0b6b3a764000061011d89846107b8565b9250859150505b8181111561016f5750945061009f9350505050565b955061009f945050505050565b600080546040517f1698ee82000000000000000000000000000000000000000000000000000000008152829173ffffffffffffffffffffffffffffffffffffffff1690631698ee82906101d790889088908890600401611175565b60206040518083038186803b1580156101ef57600080fd5b505afa158015610203573d6000803e3d6000fd5b505050506040513d601f19601f820116820180604052508101906102279190611038565b905060008173ffffffffffffffffffffffffffffffffffffffff16633850c7bd6040518163ffffffff1660e01b815260040160e06040518083038186803b15801561027157600080fd5b505afa158015610285573d6000803e3d6000fd5b505050506040513d601f19601f820116820180604052508101906102a991906110d5565b50939b9a5050505050505050505050565b6000806102c6866108b5565b90506fffffffffffffffffffffffffffffffff73ffffffffffffffffffffffffffffffffffffffff8216116103945773ffffffffffffffffffffffffffffffffffffffff80821680029084811690861610610356576103517801000000000000000000000000000000000000000000000000876fffffffffffffffffffffffffffffffff1683610c48565b61038c565b61038c81876fffffffffffffffffffffffffffffffff167801000000000000000000000000000000000000000000000000610c48565b92505061045a565b60006103c073ffffffffffffffffffffffffffffffffffffffff83168068010000000000000000610c48565b90508373ffffffffffffffffffffffffffffffffffffffff168573ffffffffffffffffffffffffffffffffffffffff161061042857610423700100000000000000000000000000000000876fffffffffffffffffffffffffffffffff1683610c48565b610456565b61045681876fffffffffffffffffffffffffffffffff16700100000000000000000000000000000000610c48565b9250505b50949350505050565b600080546040517f1698ee82000000000000000000000000000000000000000000000000000000008152829182918291829173ffffffffffffffffffffffffffffffffffffffff90911690631698ee82906104c6908b908b908b90600401611175565b60206040518083038186803b1580156104de57600080fd5b505afa1580156104f2573d6000803e3d6000fd5b505050506040513d601f19601f820116820180604052508101906105169190611038565b905060008173ffffffffffffffffffffffffffffffffffffffff16633850c7bd6040518163ffffffff1660e01b815260040160e06040518083038186803b15801561056057600080fd5b505afa158015610574573d6000803e3d6000fd5b505050506040513d601f19601f8201168201806040525081019061059891906110d5565b505050505050905060006105ed6105d06127108473ffffffffffffffffffffffffffffffffffffffff166107b890919063ffffffff16565b73ffffffffffffffffffffffffffffffffffffffff841690610d15565b9050600061061173ffffffffffffffffffffffffffffffffffffffff841680610d89565b905060008061069f8584868973ffffffffffffffffffffffffffffffffffffffff16631a6865026040518163ffffffff1660e01b815260040160206040518083038186803b15801561066257600080fd5b505afa158015610676573d6000803e3d6000fd5b505050506040513d601f19601f8201168201806040525081019061069a91906110a5565b610e00565b9150915081818773ffffffffffffffffffffffffffffffffffffffff16630dfe16816040518163ffffffff1660e01b815260040160206040518083038186803b1580156106eb57600080fd5b505afa1580156106ff573d6000803e3d6000fd5b505050506040513d601f19601f820116820180604052508101906107239190611038565b8873ffffffffffffffffffffffffffffffffffffffff1663d21220a76040518163ffffffff1660e01b815260040160206040518083038186803b15801561076957600080fd5b505afa15801561077d573d6000803e3d6000fd5b505050506040513d601f19601f820116820180604052508101906107a19190611038565b995099509950995050505050505093509350935093565b6000826107c75750600061082e565b828202828482816107d457fe5b041461082b576040517f08c379a00000000000000000000000000000000000000000000000000000000081526004018080602001828103825260218152602001806111d96021913960400191505060405180910390fd5b90505b92915050565b60008082116108a457604080517f08c379a000000000000000000000000000000000000000000000000000000000815260206004820152601a60248201527f536166654d6174683a206469766973696f6e206279207a65726f000000000000604482015290519081900360640190fd5b8183816108ad57fe5b049392505050565b60008060008360020b126108cc578260020b6108d4565b8260020b6000035b9050620d89e881111561094857604080517f08c379a000000000000000000000000000000000000000000000000000000000815260206004820152600160248201527f5400000000000000000000000000000000000000000000000000000000000000604482015290519081900360640190fd5b6000600182166109695770010000000000000000000000000000000061097b565b6ffffcb933bd6fad37aa2d162d1a5940015b70ffffffffffffffffffffffffffffffffff16905060028216156109af576ffff97272373d413259a46990580e213a0260801c5b60048216156109ce576ffff2e50f5f656932ef12357cf3c7fdcc0260801c5b60088216156109ed576fffe5caca7e10e4e61c3624eaa0941cd00260801c5b6010821615610a0c576fffcb9843d60f6159c9db58835c9266440260801c5b6020821615610a2b576fff973b41fa98c081472e6896dfb254c00260801c5b6040821615610a4a576fff2ea16466c96a3843ec78b326b528610260801c5b6080821615610a69576ffe5dee046a99a2a811c461f1969c30530260801c5b610100821615610a89576ffcbe86c7900a88aedcffc83b479aa3a40260801c5b610200821615610aa9576ff987a7253ac413176f2b074cf7815e540260801c5b610400821615610ac9576ff3392b0822b70005940c7a398e4b70f30260801c5b610800821615610ae9576fe7159475a2c29b7443b29c7fa6e889d90260801c5b611000821615610b09576fd097f3bdfd2022b8845ad8f792aa58250260801c5b612000821615610b29576fa9f746462d870fdf8a65dc1f90e061e50260801c5b614000821615610b49576f70d869a156d2a1b890bb3df62baf32f70260801c5b618000821615610b69576f31be135f97d08fd981231505542fcfa60260801c5b62010000821615610b8a576f09aa508b5b7a84e1c677de54f3e99bc90260801c5b62020000821615610baa576e5d6af8dedb81196699c329225ee6040260801c5b62040000821615610bc9576d2216e584f5fa1ea926041bedfe980260801c5b62080000821615610be6576b048a170391f7dc42444e8fa20260801c5b60008460020b1315610c1f57807fffffffffffffffffffffffffffffffffffffffffffffffffffffffffffffffff81610c1b57fe5b0490505b640100000000810615610c33576001610c36565b60005b60ff16602082901c0192505050919050565b600080807fffffffffffffffffffffffffffffffffffffffffffffffffffffffffffffffff85870986860292508281109083900303905080610c9c5760008411610c9157600080fd5b50829004905061009f565b808411610ca857600080fd5b6000848688096000868103871696879004966002600389028118808a02820302808a02820302808a02820302808a02820302808a02820302808a02909103029181900381900460010186841190950394909402919094039290920491909117919091029150509392505050565b60008282018381101561082b57604080517f08c379a000000000000000000000000000000000000000000000000000000000815260206004820152601b60248201527f536166654d6174683a206164646974696f6e206f766572666c6f770000000000604482015290519081900360640190fd5b600082821115610dfa57604080517f08c379a000000000000000000000000000000000000000000000000000000000815260206004820152601e60248201527f536166654d6174683a207375627472616374696f6e206f766572666c6f770000604482015290519081900360640190fd5b50900390565b6000808373ffffffffffffffffffffffffffffffffffffffff168573ffffffffffffffffffffffffffffffffffffffff161115610e3b579293925b8473ffffffffffffffffffffffffffffffffffffffff168673ffffffffffffffffffffffffffffffffffffffff1611610e8057610e79858585610eea565b9150610ee1565b8373ffffffffffffffffffffffffffffffffffffffff168673ffffffffffffffffffffffffffffffffffffffff161015610ed357610ebf868585610eea565b9150610ecc858785610f9d565b9050610ee1565b610ede858585610f9d565b90505b94509492505050565b60008273ffffffffffffffffffffffffffffffffffffffff168473ffffffffffffffffffffffffffffffffffffffff161115610f24579192915b8373ffffffffffffffffffffffffffffffffffffffff16610f8d606060ff16846fffffffffffffffffffffffffffffffff16901b86860373ffffffffffffffffffffffffffffffffffffffff168673ffffffffffffffffffffffffffffffffffffffff16610c48565b81610f9457fe5b04949350505050565b60008273ffffffffffffffffffffffffffffffffffffffff168473ffffffffffffffffffffffffffffffffffffffff161115610fd7579192915b611019826fffffffffffffffffffffffffffffffff1685850373ffffffffffffffffffffffffffffffffffffffff166c01000000000000000000000000610c48565b949350505050565b805161ffff8116811461103357600080fd5b919050565b600060208284031215611049578081fd5b815161082b816111b3565b600080600060608486031215611068578182fd5b8335611073816111b3565b92506020840135611083816111b3565b9150604084013562ffffff8116811461109a578182fd5b809150509250925092565b6000602082840312156110b6578081fd5b81516fffffffffffffffffffffffffffffffff8116811461082b578182fd5b600080600080600080600060e0888a0312156110ef578283fd5b87516110fa816111b3565b8097505060208801518060020b8114611111578384fd5b955061111f60408901611021565b945061112d60608901611021565b935061113b60808901611021565b925060a088015160ff81168114611150578283fd5b60c08901519092508015158114611165578182fd5b8091505092959891949750929550565b73ffffffffffffffffffffffffffffffffffffffff938416815291909216602082015262ffffff909116604082015260600190565b90815260200190565b73ffffffffffffffffffffffffffffffffffffffff811681146111d557600080fd5b5056fe536166654d6174683a206d756c7469706c69636174696f6e206f766572666c6f77a26469706673582212205b677a11759a3805f7cf1ca659ccad74cdf9af6ef751692998ca2a731379e79764736f6c63430007060033",
  "immutableReferences": {},
  "source": "// SPDX-License-Identifier: MIT\r\npragma solidity 0.7.6;\r\npragma abicoder v2;\r\n\r\nimport \"@uniswap/v3-core/contracts/interfaces/IUniswapV3Pool.sol\";\r\nimport \"@uniswap/v3-core/contracts/interfaces/IUniswapV3Factory.sol\";\r\nimport \"@uniswap/v3-periphery/contracts/libraries/OracleLibrary.sol\";\r\nimport \"@uniswap/v3-periphery/contracts/libraries/LiquidityAmounts.sol\";\r\nimport \"@openzeppelin/contracts/math/SafeMath.sol\";\r\n\r\n\r\ncontract PriceOracle {\r\n    using SafeMath for uint256;\r\n    using SafeMath for uint160;\r\n\r\n    IUniswapV3Factory private factory = IUniswapV3Factory(0x1F98431c8aD98523631AE4a59f267346ea31F984);\r\n\r\n    function getLatestTick(address firstToken, address secondToken, uint24 fee) private view returns(int24){\r\n        IUniswapV3Pool pool = IUniswapV3Pool(factory.getPool(firstToken, secondToken, fee));\r\n        (, int24 tick, ,,,, ) = pool.slot0();\r\n        return tick;\r\n    }\r\n\r\n    function getPoolTokensAmount(\r\n        address firstToken, address secondToken, uint24 fee\r\n    ) private view returns(uint, uint, address, address){\r\n        IUniswapV3Pool pool = IUniswapV3Pool(factory.getPool(firstToken, secondToken, fee));\r\n        (uint160 sqrtPriceX96,,,,,,) = pool.slot0();\r\n\r\n        uint160 sqrtRatioBX96 = uint160(sqrtPriceX96.add(sqrtPriceX96.mul(10000)));\r\n        uint160 sqrtRatioAX96 = uint160(sqrtPriceX96.sub(sqrtPriceX96));\r\n\r\n        (uint amount0, uint amount1) = LiquidityAmounts.getAmountsForLiquidity(\r\n            sqrtPriceX96, sqrtRatioAX96, sqrtRatioBX96, pool.liquidity()\r\n        );\r\n        return (amount0, amount1, pool.token0(), pool.token1());\r\n    }\r\n\r\n\r\n    function getLiquidity(address firstToken, address secondToken, uint24 tokenFee) external view returns(uint){\r\n        (\r\n            uint amount0,\r\n            uint amount1,\r\n            address token0,\r\n            address token1\r\n        ) = getPoolTokensAmount(firstToken, secondToken, tokenFee);\r\n        uint adjustedAmount;\r\n        uint anotherAmount;\r\n\r\n        if(token0 == firstToken){\r\n            uint firstTokenPrice = getPrice(token0, token1, tokenFee);\r\n            adjustedAmount = amount1.mul(firstTokenPrice).div(1 ether);\r\n            anotherAmount = amount0;\r\n        }else{\r\n            uint firstTokenPrice = getPrice(token1, token0, tokenFee);\r\n            adjustedAmount = amount0.mul(firstTokenPrice).div(1 ether);\r\n            anotherAmount = amount1;\r\n        }\r\n\r\n        if(anotherAmount > adjustedAmount){\r\n            return adjustedAmount;\r\n        }else{\r\n            return anotherAmount;\r\n        }\r\n    }\r\n\r\n    function getPrice(address firstToken, address secondToken, uint24 poolFee) public view returns (uint) {\r\n        int24 tick = getLatestTick(firstToken, secondToken, poolFee);\r\n        return OracleLibrary.getQuoteAtTick(tick, 1 ether, secondToken, firstToken);\r\n    }\r\n\r\n}",
  "sourcePath": "D:\\JavascriptProjects\\crypto-index\\contracts\\indices\\ethIndex\\PriceOracle.sol",
  "compiler": {
    "name": "solc",
    "version": "0.7.6+commit.7338295f.Emscripten.clang"
  },
  "schemaVersion": "3.4.7",
  "updatedAt": "2022-06-20T14:53:36.245Z",
  "devdoc": {
    "kind": "dev",
    "methods": {},
    "version": 1
  },
  "userdoc": {
    "kind": "user",
    "methods": {},
    "version": 1
  }
}