{
  "contractName": "PriceOracle",
  "abi": [
    {
      "inputs": [
        {
          "internalType": "address",
          "name": "_factoryAddress",
          "type": "address"
        }
      ],
      "stateMutability": "nonpayable",
      "type": "constructor"
    },
    {
      "inputs": [
        {
          "internalType": "address",
          "name": "firstToken",
          "type": "address"
        },
        {
          "internalType": "address",
          "name": "secondToken",
          "type": "address"
        },
        {
          "internalType": "uint24",
          "name": "fee",
          "type": "uint24"
        }
      ],
      "name": "getMinimalPoolLiquidity",
      "outputs": [
        {
          "internalType": "uint256",
          "name": "",
          "type": "uint256"
        }
      ],
      "stateMutability": "view",
      "type": "function"
    },
    {
      "inputs": [
        {
          "internalType": "address",
          "name": "firstToken",
          "type": "address"
        },
        {
          "internalType": "address",
          "name": "secondToken",
          "type": "address"
        },
        {
          "internalType": "uint24[2]",
          "name": "tokenFees",
          "type": "uint24[2]"
        },
        {
          "internalType": "address",
          "name": "intermediateToken",
          "type": "address"
        }
      ],
      "name": "getLiquidity",
      "outputs": [
        {
          "internalType": "uint256",
          "name": "",
          "type": "uint256"
        }
      ],
      "stateMutability": "view",
      "type": "function"
    },
    {
      "inputs": [
        {
          "internalType": "address",
          "name": "firstToken",
          "type": "address"
        },
        {
          "internalType": "address",
          "name": "secondToken",
          "type": "address"
        },
        {
          "internalType": "uint24[2]",
          "name": "poolFees",
          "type": "uint24[2]"
        },
        {
          "internalType": "address",
          "name": "intermediateToken",
          "type": "address"
        }
      ],
      "name": "getPrice",
      "outputs": [
        {
          "internalType": "uint256",
          "name": "",
          "type": "uint256"
        }
      ],
      "stateMutability": "view",
      "type": "function"
    }
  ],
  "bytecode": "0x608060405234801561001057600080fd5b506040516115a03803806115a08339818101604052602081101561003357600080fd5b8101908080519060200190929190505050806000806101000a81548173ffffffffffffffffffffffffffffffffffffffff021916908373ffffffffffffffffffffffffffffffffffffffff1602179055505061150c806100946000396000f3fe608060405234801561001057600080fd5b50600436106100415760003560e01c806379f9ee1214610046578063ad72a0a1146100cd578063c5f0e3b4146101a6575b600080fd5b6100b76004803603606081101561005c57600080fd5b81019080803573ffffffffffffffffffffffffffffffffffffffff169060200190929190803573ffffffffffffffffffffffffffffffffffffffff169060200190929190803562ffffff16906020019092919050505061027f565b6040518082815260200191505060405180910390f35b610190600480360360a08110156100e357600080fd5b81019080803573ffffffffffffffffffffffffffffffffffffffff169060200190929190803573ffffffffffffffffffffffffffffffffffffffff16906020019092919080604001906002806020026040519081016040528092919082600260200280828437600081840152601f19601f8201169050808301925050505050509192919290803573ffffffffffffffffffffffffffffffffffffffff1690602001909291905050506105e6565b6040518082815260200191505060405180910390f35b610269600480360360a08110156101bc57600080fd5b81019080803573ffffffffffffffffffffffffffffffffffffffff169060200190929190803573ffffffffffffffffffffffffffffffffffffffff16906020019092919080604001906002806020026040519081016040528092919082600260200280828437600081840152601f19601f8201169050808301925050505050509192919290803573ffffffffffffffffffffffffffffffffffffffff16906020019092919050505061069b565b6040518082815260200191505060405180910390f35b60008060008054906101000a900473ffffffffffffffffffffffffffffffffffffffff1673ffffffffffffffffffffffffffffffffffffffff16631698ee828686866040518463ffffffff1660e01b8152600401808473ffffffffffffffffffffffffffffffffffffffff1681526020018373ffffffffffffffffffffffffffffffffffffffff1681526020018262ffffff168152602001935050505060206040518083038186803b15801561033457600080fd5b505afa158015610348573d6000803e3d6000fd5b505050506040513d602081101561035e57600080fd5b8101908080519060200190929190505050905060008173ffffffffffffffffffffffffffffffffffffffff16633850c7bd6040518163ffffffff1660e01b815260040160e06040518083038186803b1580156103b957600080fd5b505afa1580156103cd573d6000803e3d6000fd5b505050506040513d60e08110156103e357600080fd5b81019080805190602001909291908051906020019092919080519060200190929190805190602001909291908051906020019092919080519060200190929190805190602001909291905050505050505050509050600061046460048373ffffffffffffffffffffffffffffffffffffffff1661078590919063ffffffff16565b90506000610491828473ffffffffffffffffffffffffffffffffffffffff1661080e90919063ffffffff16565b905060006104be838573ffffffffffffffffffffffffffffffffffffffff1661089690919063ffffffff16565b905060008061054f8684868a73ffffffffffffffffffffffffffffffffffffffff16631a6865026040518163ffffffff1660e01b815260040160206040518083038186803b15801561050f57600080fd5b505afa158015610523573d6000803e3d6000fd5b505050506040513d602081101561053957600080fd5b8101908080519060200190929190505050610919565b9150915060006105868c8c60405180604001604052808e62ffffff1662ffffff168152602001600062ffffff16815250600061069b565b905060006105b7670de0b6b3a76400006105a98486610a0b90919063ffffffff16565b61078590919063ffffffff16565b9050808411156105d2578099505050505050505050506105df565b8399505050505050505050505b9392505050565b60008073ffffffffffffffffffffffffffffffffffffffff168273ffffffffffffffffffffffffffffffffffffffff16141561063f5761063885858560006002811061062e57fe5b602002015161027f565b9050610693565b600061065d86848660006002811061065357fe5b602002015161027f565b9050600061067d84878760016002811061067357fe5b602002015161027f565b905080821161068c578161068e565b805b925050505b949350505050565b60008073ffffffffffffffffffffffffffffffffffffffff168273ffffffffffffffffffffffffffffffffffffffff16141561070d5760006106ef8686866000600281106106e557fe5b6020020151610a91565b905061070581670de0b6b3a76400008789610c56565b91505061077d565b600061072b83868660016002811061072157fe5b6020020151610a91565b9050600061074382670de0b6b3a76400008887610c56565b9050600061076388868860006002811061075957fe5b6020020151610a91565b905060006107738284888c610c56565b9050809450505050505b949350505050565b60008082116107fc576040517f08c379a000000000000000000000000000000000000000000000000000000000815260040180806020018281038252601a8152602001807f536166654d6174683a206469766973696f6e206279207a65726f00000000000081525060200191505060405180910390fd5b81838161080557fe5b04905092915050565b60008082840190508381101561088c576040517f08c379a000000000000000000000000000000000000000000000000000000000815260040180806020018281038252601b8152602001807f536166654d6174683a206164646974696f6e206f766572666c6f77000000000081525060200191505060405180910390fd5b8091505092915050565b60008282111561090e576040517f08c379a000000000000000000000000000000000000000000000000000000000815260040180806020018281038252601e8152602001807f536166654d6174683a207375627472616374696f6e206f766572666c6f77000081525060200191505060405180910390fd5b818303905092915050565b6000808373ffffffffffffffffffffffffffffffffffffffff168573ffffffffffffffffffffffffffffffffffffffff16111561095b57838580955081965050505b8473ffffffffffffffffffffffffffffffffffffffff168673ffffffffffffffffffffffffffffffffffffffff16116109a057610999858585610e59565b9150610a02565b8373ffffffffffffffffffffffffffffffffffffffff168673ffffffffffffffffffffffffffffffffffffffff1610156109f3576109df868585610e59565b91506109ec858785610f14565b9050610a01565b6109fe858585610f14565b90505b5b94509492505050565b600080831415610a1e5760009050610a8b565b6000828402905082848281610a2f57fe5b0414610a86576040517f08c379a00000000000000000000000000000000000000000000000000000000081526004018080602001828103825260218152602001806114b66021913960400191505060405180910390fd5b809150505b92915050565b60008060008054906101000a900473ffffffffffffffffffffffffffffffffffffffff1673ffffffffffffffffffffffffffffffffffffffff16631698ee828686866040518463ffffffff1660e01b8152600401808473ffffffffffffffffffffffffffffffffffffffff1681526020018373ffffffffffffffffffffffffffffffffffffffff1681526020018262ffffff168152602001935050505060206040518083038186803b158015610b4657600080fd5b505afa158015610b5a573d6000803e3d6000fd5b505050506040513d6020811015610b7057600080fd5b8101908080519060200190929190505050905060008173ffffffffffffffffffffffffffffffffffffffff16633850c7bd6040518163ffffffff1660e01b815260040160e06040518083038186803b158015610bcb57600080fd5b505afa158015610bdf573d6000803e3d6000fd5b505050506040513d60e0811015610bf557600080fd5b8101908080519060200190929190805190602001909291908051906020019092919080519060200190929190805190602001909291908051906020019092919080519060200190929190505050505050505091505080925050509392505050565b600080610c6286610fa0565b90506fffffffffffffffffffffffffffffffff80168173ffffffffffffffffffffffffffffffffffffffff1611610d735760008173ffffffffffffffffffffffffffffffffffffffff168273ffffffffffffffffffffffffffffffffffffffff160290508373ffffffffffffffffffffffffffffffffffffffff168573ffffffffffffffffffffffffffffffffffffffff1610610d3457610d2f7801000000000000000000000000000000000000000000000000876fffffffffffffffffffffffffffffffff16836113db565b610d6b565b610d6a81876fffffffffffffffffffffffffffffffff1678010000000000000000000000000000000000000000000000006113db565b5b925050610e50565b6000610db58273ffffffffffffffffffffffffffffffffffffffff168373ffffffffffffffffffffffffffffffffffffffff16680100000000000000006113db565b90508373ffffffffffffffffffffffffffffffffffffffff168573ffffffffffffffffffffffffffffffffffffffff1610610e1d57610e18700100000000000000000000000000000000876fffffffffffffffffffffffffffffffff16836113db565b610e4c565b610e4b81876fffffffffffffffffffffffffffffffff167001000000000000000000000000000000006113db565b5b9250505b50949350505050565b60008273ffffffffffffffffffffffffffffffffffffffff168473ffffffffffffffffffffffffffffffffffffffff161115610e9a57828480945081955050505b8373ffffffffffffffffffffffffffffffffffffffff16610f03606060ff16846fffffffffffffffffffffffffffffffff16901b86860373ffffffffffffffffffffffffffffffffffffffff168673ffffffffffffffffffffffffffffffffffffffff166113db565b81610f0a57fe5b0490509392505050565b60008273ffffffffffffffffffffffffffffffffffffffff168473ffffffffffffffffffffffffffffffffffffffff161115610f5557828480945081955050505b610f97826fffffffffffffffffffffffffffffffff1685850373ffffffffffffffffffffffffffffffffffffffff166c010000000000000000000000006113db565b90509392505050565b60008060008360020b12610fb7578260020b610fbf565b8260020b6000035b90507ffffffffffffffffffffffffffffffffffffffffffffffffffffffffffff2761860000360020b81111561105d576040517f08c379a00000000000000000000000000000000000000000000000000000000081526004018080602001828103825260018152602001807f540000000000000000000000000000000000000000000000000000000000000081525060200191505060405180910390fd5b60008060018316141561108157700100000000000000000000000000000000611093565b6ffffcb933bd6fad37aa2d162d1a5940015b70ffffffffffffffffffffffffffffffffff169050600060028316146110cd5760806ffff97272373d413259a46990580e213a8202901c90505b600060048316146110f25760806ffff2e50f5f656932ef12357cf3c7fdcc8202901c90505b600060088316146111175760806fffe5caca7e10e4e61c3624eaa0941cd08202901c90505b6000601083161461113c5760806fffcb9843d60f6159c9db58835c9266448202901c90505b600060208316146111615760806fff973b41fa98c081472e6896dfb254c08202901c90505b600060408316146111865760806fff2ea16466c96a3843ec78b326b528618202901c90505b600060808316146111ab5760806ffe5dee046a99a2a811c461f1969c30538202901c90505b60006101008316146111d15760806ffcbe86c7900a88aedcffc83b479aa3a48202901c90505b60006102008316146111f75760806ff987a7253ac413176f2b074cf7815e548202901c90505b600061040083161461121d5760806ff3392b0822b70005940c7a398e4b70f38202901c90505b60006108008316146112435760806fe7159475a2c29b7443b29c7fa6e889d98202901c90505b60006110008316146112695760806fd097f3bdfd2022b8845ad8f792aa58258202901c90505b600061200083161461128f5760806fa9f746462d870fdf8a65dc1f90e061e58202901c90505b60006140008316146112b55760806f70d869a156d2a1b890bb3df62baf32f78202901c90505b60006180008316146112db5760806f31be135f97d08fd981231505542fcfa68202901c90505b6000620100008316146113025760806f09aa508b5b7a84e1c677de54f3e99bc98202901c90505b6000620200008316146113285760806e5d6af8dedb81196699c329225ee6048202901c90505b60006204000083161461134d5760806d2216e584f5fa1ea926041bedfe988202901c90505b6000620800008316146113705760806b048a170391f7dc42444e8fa28202901c90505b60008460020b13156113a957807fffffffffffffffffffffffffffffffffffffffffffffffffffffffffffffffff816113a557fe5b0490505b600064010000000082816113b957fe5b06146113c65760016113c9565b60005b60ff16602082901c0192505050919050565b600080600080198587098587029250828110838203039150506000811415611416576000841161140a57600080fd5b838204925050506114ae565b80841161142257600080fd5b600084868809905082811182039150808303925060008586600003169050808604955080840493506001818260000304019050808302841793506000600287600302189050808702600203810290508087026002038102905080870260020381029050808702600203810290508087026002038102905080870260020381029050808502955050505050505b939250505056fe536166654d6174683a206d756c7469706c69636174696f6e206f766572666c6f77a264697066735822122091c6fdc0c786e5e7a802048fe63151defb6af5d2c199b21a0ba730308677d77b64736f6c63430007060033",
  "immutableReferences": {},
  "source": "// SPDX-License-Identifier: MIT\r\npragma solidity 0.7.6;\r\n\r\nimport \"@uniswap/v3-core/contracts/interfaces/IUniswapV3Pool.sol\";\r\nimport '@uniswap/v3-core/contracts/libraries/TickMath.sol';\r\nimport \"@uniswap/v3-core/contracts/interfaces/IUniswapV3Factory.sol\";\r\nimport \"@uniswap/v3-periphery/contracts/interfaces/IQuoterV2.sol\";\r\nimport \"@uniswap/v3-periphery/contracts/libraries/OracleLibrary.sol\";\r\nimport \"@uniswap/v3-core/contracts/libraries/FixedPoint96.sol\";\r\nimport \"@uniswap/v3-core/contracts/libraries/FullMath.sol\";\r\nimport \"@uniswap/v3-periphery/contracts/libraries/LiquidityAmounts.sol\";\r\nimport \"@openzeppelin/contracts/token/ERC20/ERC20.sol\";\r\nimport \"@openzeppelin/contracts/math/SafeMath.sol\";\r\n\r\n\r\ncontract PriceOracle {\r\n    using SafeMath for uint256;\r\n    using SafeMath for uint160;\r\n\r\n    IUniswapV3Factory private factory;\r\n\r\n    constructor(address _factoryAddress){\r\n        factory = IUniswapV3Factory(_factoryAddress);\r\n    }\r\n\r\n    function getLatestTick(address firstToken, address secondToken, uint24 fee) private view returns(int24){\r\n        IUniswapV3Pool pool = IUniswapV3Pool(factory.getPool(firstToken, secondToken, fee));\r\n        (, int24 tick, ,,,, ) = pool.slot0();\r\n        return tick;\r\n    }\r\n\r\n    function getMinimalPoolLiquidity(address firstToken, address secondToken, uint24 fee) public view returns(uint){\r\n        IUniswapV3Pool pool = IUniswapV3Pool(factory.getPool(firstToken, secondToken, fee));\r\n        (uint160 sqrtPriceX96,,,,,,) = pool.slot0();\r\n\r\n        uint priceQuarter = sqrtPriceX96.div(4);\r\n        uint160 sqrtRatioBX96 = uint160(sqrtPriceX96.add(priceQuarter));\r\n        uint160 sqrtRatioAX96 = uint160(sqrtPriceX96.sub(priceQuarter));\r\n\r\n        (uint amount0, uint amount1) = LiquidityAmounts.getAmountsForLiquidity(\r\n            sqrtPriceX96,\r\n            sqrtRatioAX96,\r\n            sqrtRatioBX96,\r\n            pool.liquidity()\r\n        );\r\n\r\n        uint price = getPrice(firstToken, secondToken, [fee, 0], address(0));\r\n        uint amount1InAmount0 = amount1.mul(price).div(1 ether);\r\n\r\n        if(amount0 > amount1InAmount0){\r\n            return amount1InAmount0;\r\n        }else{\r\n            return amount0;\r\n        }\r\n    }\r\n\r\n    function getLiquidity(\r\n        address firstToken, address secondToken, uint24[2] memory tokenFees, address intermediateToken\r\n    ) external view returns(uint){\r\n        if(intermediateToken == address(0)){\r\n            return getMinimalPoolLiquidity(firstToken, secondToken, tokenFees[0]);\r\n        }else{\r\n            uint firstPoolLiquidity = getMinimalPoolLiquidity(firstToken, intermediateToken, tokenFees[0]);\r\n            uint secondPoolLiquidity = getMinimalPoolLiquidity(intermediateToken, secondToken, tokenFees[1]);\r\n\r\n            return firstPoolLiquidity > secondPoolLiquidity ? secondPoolLiquidity : firstPoolLiquidity;\r\n        }\r\n\r\n    }\r\n\r\n    function getPrice(\r\n        address firstToken, address secondToken, uint24[2] memory poolFees, address intermediateToken\r\n    ) public view returns (uint) {\r\n\r\n        if(intermediateToken == address(0)){\r\n            int24 tick = getLatestTick(firstToken, secondToken, poolFees[0]);\r\n            return OracleLibrary.getQuoteAtTick(tick, 1 ether, secondToken, firstToken);\r\n        }else{\r\n            int24 firstTick = getLatestTick(intermediateToken, secondToken, poolFees[1]);\r\n            uint firstSwapPrice = OracleLibrary.getQuoteAtTick(firstTick, 1 ether, secondToken, intermediateToken);\r\n\r\n            int24 secondTick = getLatestTick(firstToken, intermediateToken, poolFees[0]);\r\n            uint secondSwapPrice = OracleLibrary.getQuoteAtTick(\r\n                secondTick,\r\n                uint128(firstSwapPrice),\r\n                intermediateToken,\r\n                firstToken\r\n            );\r\n\r\n            return secondSwapPrice;\r\n        }\r\n\r\n    }\r\n\r\n}",
  "sourcePath": "D:\\JavascriptProjects\\crypto-index\\contracts\\indices\\PriceOracle.sol",
  "compiler": {
    "name": "solc",
    "version": "0.7.6+commit.7338295f.Emscripten.clang"
  },
  "schemaVersion": "3.4.7",
  "updatedAt": "2022-06-02T08:21:01.580Z",
  "devdoc": {
    "kind": "dev",
    "methods": {},
    "version": 1
  },
  "userdoc": {
    "kind": "user",
    "methods": {},
    "version": 1
  }
}