{
  "contractName": "PriceOracle",
  "abi": [
    {
      "inputs": [
        {
          "internalType": "address",
          "name": "firstToken",
          "type": "address"
        },
        {
          "internalType": "address",
          "name": "secondToken",
          "type": "address"
        },
        {
          "internalType": "uint24[2]",
          "name": "tokenFees",
          "type": "uint24[2]"
        },
        {
          "internalType": "address",
          "name": "intermediateToken",
          "type": "address"
        }
      ],
      "name": "getLiquidity",
      "outputs": [
        {
          "internalType": "uint256",
          "name": "",
          "type": "uint256"
        }
      ],
      "stateMutability": "view",
      "type": "function"
    },
    {
      "inputs": [
        {
          "internalType": "address",
          "name": "firstToken",
          "type": "address"
        },
        {
          "internalType": "address",
          "name": "secondToken",
          "type": "address"
        },
        {
          "internalType": "uint24[2]",
          "name": "poolFees",
          "type": "uint24[2]"
        },
        {
          "internalType": "address",
          "name": "intermediateToken",
          "type": "address"
        }
      ],
      "name": "getPrice",
      "outputs": [
        {
          "internalType": "uint256",
          "name": "",
          "type": "uint256"
        }
      ],
      "stateMutability": "view",
      "type": "function"
    }
  ],
  "bytecode": "0x6080604052600080546001600160a01b031916731f98431c8ad98523631ae4a59f267346ea31f98417905534801561003657600080fd5b50611416806100466000396000f3fe608060405234801561001057600080fd5b50600436106100365760003560e01c8063ad72a0a11461003b578063c5f0e3b414610064575b600080fd5b61004e6100493660046111c8565b610077565b60405161005b9190611391565b60405180910390f35b61004e6100723660046111c8565b61011e565b600073ffffffffffffffffffffffffffffffffffffffff82166100ae576100a785858560005b60200201516101c0565b9050610116565b60006100bc8684868461009d565b905060006100cd848787600161009d565b905060006100de888688600061011e565b90506100fc670de0b6b3a76400006100f684846102e3565b9061035f565b915081831115610110575091506101169050565b50909150505b949350505050565b600073ffffffffffffffffffffffffffffffffffffffff821661016d57600061014f868686845b60200201516103e0565b905061016581670de0b6b3a7640000878961051e565b915050610116565b600061017c8386866001610145565b9050600061019482670de0b6b3a7640000888761051e565b905060006101a488868884610145565b905060006101b48284888c61051e565b94506101169350505050565b60008060008060006101d38888886106c7565b93509350935093506000808973ffffffffffffffffffffffffffffffffffffffff168473ffffffffffffffffffffffffffffffffffffffff161415610268576000610245858560405180604001604052808d62ffffff1662ffffff168152602001600062ffffff16815250600061011e565b905061025d670de0b6b3a76400006100f688846102e3565b9250869150506102ba565b600061029b848660405180604001604052808d62ffffff1662ffffff168152602001600062ffffff16815250600061011e565b90506102b3670de0b6b3a76400006100f689846102e3565b9250859150505b818111156102cf575094506102dc9350505050565b95506102dc945050505050565b9392505050565b6000826102f257506000610359565b828202828482816102ff57fe5b0414610356576040517f08c379a00000000000000000000000000000000000000000000000000000000081526004018080602001828103825260218152602001806113c06021913960400191505060405180910390fd5b90505b92915050565b60008082116103cf57604080517f08c379a000000000000000000000000000000000000000000000000000000000815260206004820152601a60248201527f536166654d6174683a206469766973696f6e206279207a65726f000000000000604482015290519081900360640190fd5b8183816103d857fe5b049392505050565b600080546040517f1698ee82000000000000000000000000000000000000000000000000000000008152829173ffffffffffffffffffffffffffffffffffffffff1690631698ee829061043b9088908890889060040161135c565b60206040518083038186803b15801561045357600080fd5b505afa158015610467573d6000803e3d6000fd5b505050506040513d601f19601f8201168201806040525081019061048b91906111ac565b905060008173ffffffffffffffffffffffffffffffffffffffff16633850c7bd6040518163ffffffff1660e01b815260040160e06040518083038186803b1580156104d557600080fd5b505afa1580156104e9573d6000803e3d6000fd5b505050506040513d601f19601f8201168201806040525081019061050d91906112bc565b50939b9a5050505050505050505050565b60008061052a86610a26565b90506fffffffffffffffffffffffffffffffff73ffffffffffffffffffffffffffffffffffffffff8216116105f85773ffffffffffffffffffffffffffffffffffffffff808216800290848116908616106105ba576105b57801000000000000000000000000000000000000000000000000876fffffffffffffffffffffffffffffffff1683610db9565b6105f0565b6105f081876fffffffffffffffffffffffffffffffff167801000000000000000000000000000000000000000000000000610db9565b9250506106be565b600061062473ffffffffffffffffffffffffffffffffffffffff83168068010000000000000000610db9565b90508373ffffffffffffffffffffffffffffffffffffffff168573ffffffffffffffffffffffffffffffffffffffff161061068c57610687700100000000000000000000000000000000876fffffffffffffffffffffffffffffffff1683610db9565b6106ba565b6106ba81876fffffffffffffffffffffffffffffffff16700100000000000000000000000000000000610db9565b9250505b50949350505050565b600080546040517f1698ee82000000000000000000000000000000000000000000000000000000008152829182918291829173ffffffffffffffffffffffffffffffffffffffff90911690631698ee829061072a908b908b908b9060040161135c565b60206040518083038186803b15801561074257600080fd5b505afa158015610756573d6000803e3d6000fd5b505050506040513d601f19601f8201168201806040525081019061077a91906111ac565b905060008173ffffffffffffffffffffffffffffffffffffffff16633850c7bd6040518163ffffffff1660e01b815260040160e06040518083038186803b1580156107c457600080fd5b505afa1580156107d8573d6000803e3d6000fd5b505050506040513d601f19601f820116820180604052508101906107fc91906112bc565b5050505050509050600061083060028373ffffffffffffffffffffffffffffffffffffffff1661035f90919063ffffffff16565b9050600061085773ffffffffffffffffffffffffffffffffffffffff848116908416610e86565b9050600061087e73ffffffffffffffffffffffffffffffffffffffff858116908516610efa565b905060008061090c8684868a73ffffffffffffffffffffffffffffffffffffffff16631a6865026040518163ffffffff1660e01b815260040160206040518083038186803b1580156108cf57600080fd5b505afa1580156108e3573d6000803e3d6000fd5b505050506040513d601f19601f82011682018060405250810190610907919061128c565b610f71565b9150915081818873ffffffffffffffffffffffffffffffffffffffff16630dfe16816040518163ffffffff1660e01b815260040160206040518083038186803b15801561095857600080fd5b505afa15801561096c573d6000803e3d6000fd5b505050506040513d601f19601f8201168201806040525081019061099091906111ac565b8973ffffffffffffffffffffffffffffffffffffffff1663d21220a76040518163ffffffff1660e01b815260040160206040518083038186803b1580156109d657600080fd5b505afa1580156109ea573d6000803e3d6000fd5b505050506040513d601f19601f82011682018060405250810190610a0e91906111ac565b9a509a509a509a505050505050505093509350935093565b60008060008360020b12610a3d578260020b610a45565b8260020b6000035b9050620d89e8811115610ab957604080517f08c379a000000000000000000000000000000000000000000000000000000000815260206004820152600160248201527f5400000000000000000000000000000000000000000000000000000000000000604482015290519081900360640190fd5b600060018216610ada57700100000000000000000000000000000000610aec565b6ffffcb933bd6fad37aa2d162d1a5940015b70ffffffffffffffffffffffffffffffffff1690506002821615610b20576ffff97272373d413259a46990580e213a0260801c5b6004821615610b3f576ffff2e50f5f656932ef12357cf3c7fdcc0260801c5b6008821615610b5e576fffe5caca7e10e4e61c3624eaa0941cd00260801c5b6010821615610b7d576fffcb9843d60f6159c9db58835c9266440260801c5b6020821615610b9c576fff973b41fa98c081472e6896dfb254c00260801c5b6040821615610bbb576fff2ea16466c96a3843ec78b326b528610260801c5b6080821615610bda576ffe5dee046a99a2a811c461f1969c30530260801c5b610100821615610bfa576ffcbe86c7900a88aedcffc83b479aa3a40260801c5b610200821615610c1a576ff987a7253ac413176f2b074cf7815e540260801c5b610400821615610c3a576ff3392b0822b70005940c7a398e4b70f30260801c5b610800821615610c5a576fe7159475a2c29b7443b29c7fa6e889d90260801c5b611000821615610c7a576fd097f3bdfd2022b8845ad8f792aa58250260801c5b612000821615610c9a576fa9f746462d870fdf8a65dc1f90e061e50260801c5b614000821615610cba576f70d869a156d2a1b890bb3df62baf32f70260801c5b618000821615610cda576f31be135f97d08fd981231505542fcfa60260801c5b62010000821615610cfb576f09aa508b5b7a84e1c677de54f3e99bc90260801c5b62020000821615610d1b576e5d6af8dedb81196699c329225ee6040260801c5b62040000821615610d3a576d2216e584f5fa1ea926041bedfe980260801c5b62080000821615610d57576b048a170391f7dc42444e8fa20260801c5b60008460020b1315610d9057807fffffffffffffffffffffffffffffffffffffffffffffffffffffffffffffffff81610d8c57fe5b0490505b640100000000810615610da4576001610da7565b60005b60ff16602082901c0192505050919050565b600080807fffffffffffffffffffffffffffffffffffffffffffffffffffffffffffffffff85870986860292508281109083900303905080610e0d5760008411610e0257600080fd5b5082900490506102dc565b808411610e1957600080fd5b6000848688096000868103871696879004966002600389028118808a02820302808a02820302808a02820302808a02820302808a02820302808a02909103029181900381900460010186841190950394909402919094039290920491909117919091029150509392505050565b60008282018381101561035657604080517f08c379a000000000000000000000000000000000000000000000000000000000815260206004820152601b60248201527f536166654d6174683a206164646974696f6e206f766572666c6f770000000000604482015290519081900360640190fd5b600082821115610f6b57604080517f08c379a000000000000000000000000000000000000000000000000000000000815260206004820152601e60248201527f536166654d6174683a207375627472616374696f6e206f766572666c6f770000604482015290519081900360640190fd5b50900390565b6000808373ffffffffffffffffffffffffffffffffffffffff168573ffffffffffffffffffffffffffffffffffffffff161115610fac579293925b8473ffffffffffffffffffffffffffffffffffffffff168673ffffffffffffffffffffffffffffffffffffffff1611610ff157610fea85858561105b565b9150611052565b8373ffffffffffffffffffffffffffffffffffffffff168673ffffffffffffffffffffffffffffffffffffffff1610156110445761103086858561105b565b915061103d85878561110e565b9050611052565b61104f85858561110e565b90505b94509492505050565b60008273ffffffffffffffffffffffffffffffffffffffff168473ffffffffffffffffffffffffffffffffffffffff161115611095579192915b8373ffffffffffffffffffffffffffffffffffffffff166110fe606060ff16846fffffffffffffffffffffffffffffffff16901b86860373ffffffffffffffffffffffffffffffffffffffff168673ffffffffffffffffffffffffffffffffffffffff16610db9565b8161110557fe5b04949350505050565b60008273ffffffffffffffffffffffffffffffffffffffff168473ffffffffffffffffffffffffffffffffffffffff161115611148579192915b610116826fffffffffffffffffffffffffffffffff1685850373ffffffffffffffffffffffffffffffffffffffff166c01000000000000000000000000610db9565b80356111958161139a565b919050565b805161ffff8116811461119557600080fd5b6000602082840312156111bd578081fd5b81516103568161139a565b60008060008060a085870312156111dd578283fd5b84356111e88161139a565b93506020858101356111f98161139a565b9350605f86018713611209578283fd5b6040805190810167ffffffffffffffff8111828210171561122657fe5b80604052508060408801608089018a811115611240578687fd5b865b600281101561126f57823562ffffff8116811461125d578889fd5b84529285019291850191600101611242565b5083965061127c8161118a565b9550505050505092959194509250565b60006020828403121561129d578081fd5b81516fffffffffffffffffffffffffffffffff81168114610356578182fd5b600080600080600080600060e0888a0312156112d6578283fd5b87516112e18161139a565b8097505060208801518060020b81146112f8578384fd5b95506113066040890161119a565b94506113146060890161119a565b93506113226080890161119a565b925060a088015160ff81168114611337578283fd5b60c0890151909250801515811461134c578182fd5b8091505092959891949750929550565b73ffffffffffffffffffffffffffffffffffffffff938416815291909216602082015262ffffff909116604082015260600190565b90815260200190565b73ffffffffffffffffffffffffffffffffffffffff811681146113bc57600080fd5b5056fe536166654d6174683a206d756c7469706c69636174696f6e206f766572666c6f77a264697066735822122076a9a92d08e86156e9c2f552f816ef84e322bf5c8f7c2b7e1f2fece22429047264736f6c63430007060033",
  "immutableReferences": {},
  "source": "// SPDX-License-Identifier: MIT\r\npragma solidity 0.7.6;\r\npragma abicoder v2;\r\n\r\nimport \"@uniswap/v3-core/contracts/interfaces/IUniswapV3Pool.sol\";\r\nimport \"@uniswap/v3-core/contracts/interfaces/IUniswapV3Factory.sol\";\r\nimport \"@uniswap/v3-periphery/contracts/libraries/OracleLibrary.sol\";\r\nimport \"@uniswap/v3-periphery/contracts/libraries/LiquidityAmounts.sol\";\r\nimport \"@openzeppelin/contracts/math/SafeMath.sol\";\r\n\r\n\r\ncontract PriceOracle {\r\n    using SafeMath for uint256;\r\n    using SafeMath for uint160;\r\n\r\n    IUniswapV3Factory private factory = IUniswapV3Factory(0x1F98431c8aD98523631AE4a59f267346ea31F984);\r\n\r\n    function getLatestTick(address firstToken, address secondToken, uint24 fee) private view returns(int24){\r\n        IUniswapV3Pool pool = IUniswapV3Pool(factory.getPool(firstToken, secondToken, fee));\r\n        (, int24 tick, ,,,, ) = pool.slot0();\r\n        return tick;\r\n    }\r\n\r\n    function getPoolTokensAmount(\r\n        address firstToken, address secondToken, uint24 fee\r\n    ) private view returns(uint, uint, address, address){\r\n        IUniswapV3Pool pool = IUniswapV3Pool(factory.getPool(firstToken, secondToken, fee));\r\n        (uint160 sqrtPriceX96,,,,,,) = pool.slot0();\r\n\r\n        uint160 halfRatioX96 = uint160(sqrtPriceX96.div(2));\r\n        uint160 sqrtRatioBX96 = uint160(sqrtPriceX96.add(halfRatioX96));\r\n        uint160 sqrtRatioAX96 = uint160(sqrtPriceX96.sub(halfRatioX96));\r\n\r\n        (uint amount0, uint amount1) = LiquidityAmounts.getAmountsForLiquidity(\r\n            sqrtPriceX96, sqrtRatioAX96, sqrtRatioBX96, pool.liquidity()\r\n        );\r\n        return (amount0, amount1, pool.token0(), pool.token1());\r\n    }\r\n\r\n    function getMinimalPoolLiquidity(address firstToken, address secondToken, uint24 fee) private view returns(uint){\r\n        (\r\n            uint amount0,\r\n            uint amount1,\r\n            address token0,\r\n            address token1\r\n        ) = getPoolTokensAmount(firstToken, secondToken, fee);\r\n        uint adjustedAmount;\r\n        uint anotherAmount;\r\n\r\n        if(token0 == firstToken){\r\n            uint firstTokenPrice = getPrice(token0, token1, [fee, 0], address(0));\r\n            adjustedAmount = amount1.mul(firstTokenPrice).div(1 ether);\r\n            anotherAmount = amount0;\r\n        }else{\r\n            uint firstTokenPrice = getPrice(token1, token0, [fee, 0], address(0));\r\n            adjustedAmount = amount0.mul(firstTokenPrice).div(1 ether);\r\n            anotherAmount = amount1;\r\n        }\r\n\r\n        if(anotherAmount > adjustedAmount){\r\n            return adjustedAmount;\r\n        }else{\r\n            return anotherAmount;\r\n        }\r\n    }\r\n\r\n    function getLiquidity(\r\n        address firstToken, address secondToken, uint24[2] memory tokenFees, address intermediateToken\r\n    ) external view returns(uint){\r\n        if(intermediateToken == address(0)){\r\n            return getMinimalPoolLiquidity(firstToken, secondToken, tokenFees[0]);\r\n        }else{\r\n            uint firstPoolLiquidity = getMinimalPoolLiquidity(firstToken, intermediateToken, tokenFees[0]);\r\n            uint secondPoolLiquidity = getMinimalPoolLiquidity(intermediateToken, secondToken, tokenFees[1]);\r\n\r\n            uint price = getPrice(firstToken, intermediateToken, tokenFees, address(0));\r\n            secondPoolLiquidity = secondPoolLiquidity.mul(price).div(1 ether);\r\n\r\n            if(firstPoolLiquidity > secondPoolLiquidity){\r\n                return secondPoolLiquidity;\r\n            }else{\r\n                return firstPoolLiquidity;\r\n            }\r\n\r\n        }\r\n\r\n    }\r\n\r\n    function getPrice(\r\n        address firstToken, address secondToken, uint24[2] memory poolFees, address intermediateToken\r\n    ) public view returns (uint) {\r\n\r\n        if(intermediateToken == address(0)){\r\n            int24 tick = getLatestTick(firstToken, secondToken, poolFees[0]);\r\n            return OracleLibrary.getQuoteAtTick(tick, 1 ether, secondToken, firstToken);\r\n        }else{\r\n            int24 firstTick = getLatestTick(intermediateToken, secondToken, poolFees[1]);\r\n            uint firstSwapPrice = OracleLibrary.getQuoteAtTick(firstTick, 1 ether, secondToken, intermediateToken);\r\n\r\n            int24 secondTick = getLatestTick(firstToken, intermediateToken, poolFees[0]);\r\n            uint secondSwapPrice = OracleLibrary.getQuoteAtTick(\r\n                secondTick,\r\n                uint128(firstSwapPrice),\r\n                intermediateToken,\r\n                firstToken\r\n            );\r\n\r\n            return secondSwapPrice;\r\n        }\r\n\r\n    }\r\n\r\n}",
  "sourcePath": "D:\\JavascriptProjects\\crypto-index\\contracts\\indices\\PriceOracle.sol",
  "compiler": {
    "name": "solc",
    "version": "0.7.6+commit.7338295f.Emscripten.clang"
  },
  "schemaVersion": "3.4.7",
  "updatedAt": "2022-06-10T10:38:27.670Z",
  "devdoc": {
    "kind": "dev",
    "methods": {},
    "version": 1
  },
  "userdoc": {
    "kind": "user",
    "methods": {},
    "version": 1
  }
}