{
  "contractName": "PriceProtocol",
  "abi": [
    {
      "inputs": [
        {
          "internalType": "address",
          "name": "tokenOut",
          "type": "address"
        },
        {
          "internalType": "uint256",
          "name": "amount",
          "type": "uint256"
        },
        {
          "internalType": "uint24",
          "name": "poolFee",
          "type": "uint24"
        }
      ],
      "name": "getPrice",
      "outputs": [
        {
          "internalType": "uint256",
          "name": "",
          "type": "uint256"
        }
      ],
      "stateMutability": "nonpayable",
      "type": "function"
    }
  ],
  "bytecode": "0x608060405260008054600160a060020a031990811673c02aaa39b223fe8d0a0e5c4f27ead9083c756cc2179091556001805490911673b27308f9f90d607463bb33ea1bebb41c27ce5ab617905534801561005857600080fd5b506102ea806100686000396000f3fe608060405234801561001057600080fd5b5060043610610047577c01000000000000000000000000000000000000000000000000000000006000350463dbdcc636811461004c575b600080fd5b61005f61005a366004610199565b610075565b60405161006c9190610286565b60405180910390f35b600061007f61016b565b506040805160a0810182526000805473ffffffffffffffffffffffffffffffffffffffff9081168352878116602084015282840187905262ffffff861660608401526080830182905260015493517fc6a5026a0000000000000000000000000000000000000000000000000000000081529293919291169063c6a5026a9061010b908590600401610231565b608060405180830381600087803b15801561012557600080fd5b505af1158015610139573d6000803e3d6000fd5b505050506040513d601f19601f8201168201806040525081019061015d91906101e1565b509198975050505050505050565b6040805160a08101825260008082526020820181905291810182905260608101829052608081019190915290565b6000806000606084860312156101ad578283fd5b83356101b88161028f565b925060208401359150604084013562ffffff811681146101d6578182fd5b809150509250925092565b600080600080608085870312156101f6578081fd5b8451935060208501516102088161028f565b604086015190935063ffffffff81168114610221578182fd5b6060959095015193969295505050565b815173ffffffffffffffffffffffffffffffffffffffff90811682526020808401518216908301526040808401519083015260608084015162ffffff1690830152608092830151169181019190915260a00190565b90815260200190565b73ffffffffffffffffffffffffffffffffffffffff811681146102b157600080fd5b5056fea264697066735822122094d1afff596a07460508ac29378761cc73e335eb38871a90a97a530a105fb70c64736f6c63430007050033",
  "immutableReferences": {},
  "source": "// SPDX-License-Identifier: MIT\r\npragma solidity >=0.7.5;\r\npragma abicoder v2;\r\n\r\nimport \"@uniswap/v3-periphery/contracts/interfaces/IQuoterV2.sol\";\r\n\r\n\r\ncontract PriceProtocol {\r\n    address WETH = 0xC02aaA39b223FE8D0A0e5C4F27eAD9083C756Cc2;\r\n    IQuoterV2 quoter = IQuoterV2(0xb27308f9F90D607463bb33eA1BeBb41C27CE5AB6);\r\n\r\n    function getPrice(address tokenOut, uint amount, uint24 poolFee) public returns (uint) {\r\n        IQuoterV2.QuoteExactInputSingleParams memory params = IQuoterV2.QuoteExactInputSingleParams({\r\n            tokenIn: WETH,\r\n            tokenOut: tokenOut,\r\n            amountIn: amount,\r\n            fee: poolFee,\r\n            sqrtPriceLimitX96: 0\r\n        });\r\n        \r\n        (uint256 amountOut, , ,) = quoter.quoteExactInputSingle(params);\r\n        return amountOut;\r\n    }\r\n}",
  "sourcePath": "F:\\JavascriptProjects\\crypto-index\\contracts\\PriceProtocol.sol",
  "compiler": {
    "name": "solc",
    "version": "0.7.5+commit.eb77ed08.Linux.g++"
  },
  "schemaVersion": "3.4.3",
  "updatedAt": "2022-03-08T10:47:22.754Z",
  "devdoc": {
    "kind": "dev",
    "methods": {},
    "version": 1
  },
  "userdoc": {
    "kind": "user",
    "methods": {},
    "version": 1
  }
}