{
  "contractName": "PriceOracle",
  "abi": [
    {
      "inputs": [
        {
          "internalType": "address",
          "name": "tokenIn",
          "type": "address"
        },
        {
          "internalType": "address",
          "name": "tokenOut",
          "type": "address"
        },
        {
          "internalType": "uint24",
          "name": "poolFee",
          "type": "uint24"
        }
      ],
      "name": "getPrice",
      "outputs": [
        {
          "internalType": "uint256",
          "name": "",
          "type": "uint256"
        }
      ],
      "stateMutability": "view",
      "type": "function"
    }
  ],
  "bytecode": "0x6080604052600180546001600160a01b031916731f98431c8ad98523631ae4a59f267346ea31f98417905534801561003657600080fd5b5061032c806100466000396000f3fe608060405234801561001057600080fd5b506004361061002b5760003560e01c80634613d13514610030575b600080fd5b61004361003e3660046101bc565b610059565b60405161005091906102d5565b60405180910390f35b600154604051630b4c774160e11b815260009182916001600160a01b0390911690631698ee8290610092908890889088906004016102ad565b60206040518083038186803b1580156100aa57600080fd5b505afa1580156100be573d6000803e3d6000fd5b505050506040513d601f19601f820116820180604052508101906100e29190610199565b90506000816001600160a01b0316633850c7bd6040518163ffffffff1660e01b815260040160e06040518083038186803b15801561011f57600080fd5b505afa158015610133573d6000803e3d6000fd5b505050506040513d601f19601f82011682018060405250810190610157919061020d565b50505050506001600160a01b039091168002670de0b6b3a76400000260c01c93505050509392505050565b805161ffff8116811461019457600080fd5b919050565b6000602082840312156101aa578081fd5b81516101b5816102de565b9392505050565b6000806000606084860312156101d0578182fd5b83356101db816102de565b925060208401356101eb816102de565b9150604084013562ffffff81168114610202578182fd5b809150509250925092565b600080600080600080600060e0888a031215610227578283fd5b8751610232816102de565b8097505060208801518060020b8114610249578384fd5b955061025760408901610182565b945061026560608901610182565b935061027360808901610182565b925060a088015160ff81168114610288578283fd5b60c0890151909250801515811461029d578182fd5b8091505092959891949750929550565b6001600160a01b03938416815291909216602082015262ffffff909116604082015260600190565b90815260200190565b6001600160a01b03811681146102f357600080fd5b5056fea2646970667358221220a145a61ec31d9b4a33387e613ebbf4e8906abfbd25550f0a669cb6b0d0e2b60f64736f6c63430007050033",
  "immutableReferences": {},
  "source": "// SPDX-License-Identifier: MIT\r\npragma solidity >=0.7.5;\r\npragma abicoder v2;\r\n\r\nimport \"@uniswap/v3-core/contracts/interfaces/IUniswapV3Pool.sol\";\r\nimport \"@uniswap/v3-core/contracts/interfaces/IUniswapV3Factory.sol\";\r\nimport '@uniswap/v3-core/contracts/libraries/TickMath.sol';\r\n\r\n\r\ncontract PriceOracle {\r\n    address private uniswapV3PoolAddress;\r\n    uint24 private twapDurationInSeconds;\r\n    IUniswapV3Factory private factory = IUniswapV3Factory(0x1F98431c8aD98523631AE4a59f267346ea31F984);\r\n\r\n    function getPrice(address tokenIn, address tokenOut, uint24 poolFee) external view returns (uint) {\r\n        IUniswapV3Pool pool = IUniswapV3Pool(factory.getPool(tokenIn, tokenOut, poolFee));\r\n        (uint160 sqrtPriceX96,,,,,,) =  pool.slot0();\r\n        return uint(sqrtPriceX96) * (uint(sqrtPriceX96) * 1e18) >> (96 * 2);\r\n    }\r\n\r\n}",
  "sourcePath": "F:\\JavascriptProjects\\crypto-index\\contracts\\PriceProtocol.sol",
  "compiler": {
    "name": "solc",
    "version": "0.7.5+commit.eb77ed08.Linux.g++"
  },
  "schemaVersion": "3.4.3",
  "updatedAt": "2022-03-09T10:36:06.547Z",
  "devdoc": {
    "kind": "dev",
    "methods": {},
    "version": 1
  },
  "userdoc": {
    "kind": "user",
    "methods": {},
    "version": 1
  }
}