{
  "contractName": "PriceOracle",
  "abi": [
    {
      "inputs": [
        {
          "internalType": "address",
          "name": "_factoryAddress",
          "type": "address"
        }
      ],
      "stateMutability": "nonpayable",
      "type": "constructor"
    },
    {
      "inputs": [
        {
          "internalType": "address",
          "name": "firstToken",
          "type": "address"
        },
        {
          "internalType": "address",
          "name": "secondToken",
          "type": "address"
        },
        {
          "internalType": "uint24",
          "name": "fee",
          "type": "uint24"
        }
      ],
      "name": "getL",
      "outputs": [
        {
          "internalType": "uint256",
          "name": "",
          "type": "uint256"
        },
        {
          "internalType": "uint256",
          "name": "",
          "type": "uint256"
        }
      ],
      "stateMutability": "view",
      "type": "function"
    },
    {
      "inputs": [
        {
          "internalType": "address",
          "name": "firstToken",
          "type": "address"
        },
        {
          "internalType": "address",
          "name": "secondToken",
          "type": "address"
        },
        {
          "internalType": "uint24",
          "name": "fee",
          "type": "uint24"
        }
      ],
      "name": "getMinimalPoolLiquidity",
      "outputs": [
        {
          "internalType": "uint256",
          "name": "",
          "type": "uint256"
        }
      ],
      "stateMutability": "view",
      "type": "function"
    },
    {
      "inputs": [
        {
          "internalType": "address",
          "name": "firstToken",
          "type": "address"
        },
        {
          "internalType": "address",
          "name": "secondToken",
          "type": "address"
        },
        {
          "internalType": "uint24[2]",
          "name": "tokenFees",
          "type": "uint24[2]"
        },
        {
          "internalType": "address",
          "name": "intermediateToken",
          "type": "address"
        }
      ],
      "name": "getLiquidity",
      "outputs": [
        {
          "internalType": "uint256",
          "name": "",
          "type": "uint256"
        }
      ],
      "stateMutability": "view",
      "type": "function"
    },
    {
      "inputs": [
        {
          "internalType": "address",
          "name": "firstToken",
          "type": "address"
        },
        {
          "internalType": "address",
          "name": "secondToken",
          "type": "address"
        },
        {
          "internalType": "uint24[2]",
          "name": "poolFees",
          "type": "uint24[2]"
        },
        {
          "internalType": "address",
          "name": "intermediateToken",
          "type": "address"
        }
      ],
      "name": "getPrice",
      "outputs": [
        {
          "internalType": "uint256",
          "name": "",
          "type": "uint256"
        }
      ],
      "stateMutability": "view",
      "type": "function"
    }
  ],
  "bytecode": "0x608060405234801561001057600080fd5b50604051611b49380380611b498339818101604052602081101561003357600080fd5b8101908080519060200190929190505050806000806101000a81548173ffffffffffffffffffffffffffffffffffffffff021916908373ffffffffffffffffffffffffffffffffffffffff16021790555050611ab5806100946000396000f3fe608060405234801561001057600080fd5b506004361061004c5760003560e01c806338230ae21461005157806379f9ee12146100df578063ad72a0a114610166578063c5f0e3b41461023f575b600080fd5b6100c26004803603606081101561006757600080fd5b81019080803573ffffffffffffffffffffffffffffffffffffffff169060200190929190803573ffffffffffffffffffffffffffffffffffffffff169060200190929190803562ffffff169060200190929190505050610318565b604051808381526020018281526020019250505060405180910390f35b610150600480360360608110156100f557600080fd5b81019080803573ffffffffffffffffffffffffffffffffffffffff169060200190929190803573ffffffffffffffffffffffffffffffffffffffff169060200190929190803562ffffff169060200190929190505050610604565b6040518082815260200191505060405180910390f35b610229600480360360a081101561017c57600080fd5b81019080803573ffffffffffffffffffffffffffffffffffffffff169060200190929190803573ffffffffffffffffffffffffffffffffffffffff16906020019092919080604001906002806020026040519081016040528092919082600260200280828437600081840152601f19601f8201169050808301925050505050509192919290803573ffffffffffffffffffffffffffffffffffffffff169060200190929190505050610753565b6040518082815260200191505060405180910390f35b610302600480360360a081101561025557600080fd5b81019080803573ffffffffffffffffffffffffffffffffffffffff169060200190929190803573ffffffffffffffffffffffffffffffffffffffff16906020019092919080604001906002806020026040519081016040528092919082600260200280828437600081840152601f19601f8201169050808301925050505050509192919290803573ffffffffffffffffffffffffffffffffffffffff16906020019092919050505061084e565b6040518082815260200191505060405180910390f35b60008060008060009054906101000a900473ffffffffffffffffffffffffffffffffffffffff1673ffffffffffffffffffffffffffffffffffffffff16631698ee828787876040518463ffffffff1660e01b8152600401808473ffffffffffffffffffffffffffffffffffffffff1681526020018373ffffffffffffffffffffffffffffffffffffffff1681526020018262ffffff168152602001935050505060206040518083038186803b1580156103d057600080fd5b505afa1580156103e4573d6000803e3d6000fd5b505050506040513d60208110156103fa57600080fd5b8101908080519060200190929190505050905060008173ffffffffffffffffffffffffffffffffffffffff16633850c7bd6040518163ffffffff1660e01b815260040160e06040518083038186803b15801561045557600080fd5b505afa158015610469573d6000803e3d6000fd5b505050506040513d60e081101561047f57600080fd5b81019080805190602001909291908051906020019092919080519060200190929190805190602001909291908051906020019092919080519060200190929190805190602001909291905050505050505050509050600061050060048373ffffffffffffffffffffffffffffffffffffffff1661093890919063ffffffff16565b9050600061052d828473ffffffffffffffffffffffffffffffffffffffff166109c190919063ffffffff16565b9050600061055a838573ffffffffffffffffffffffffffffffffffffffff16610a4990919063ffffffff16565b90506000806105eb8684868a73ffffffffffffffffffffffffffffffffffffffff16631a6865026040518163ffffffff1660e01b815260040160206040518083038186803b1580156105ab57600080fd5b505afa1580156105bf573d6000803e3d6000fd5b505050506040513d60208110156105d557600080fd5b8101908080519060200190929190505050610acc565b9150915081819850985050505050505050935093915050565b6000806000806000610617888888610bbe565b93509350935093506000808973ffffffffffffffffffffffffffffffffffffffff168473ffffffffffffffffffffffffffffffffffffffff1614156106c3576000610689858560405180604001604052808d62ffffff1662ffffff168152602001600062ffffff16815250600061084e565b90506106b8670de0b6b3a76400006106aa8389610fb490919063ffffffff16565b61093890919063ffffffff16565b92508691505061072c565b60006106f6848660405180604001604052808d62ffffff1662ffffff168152602001600062ffffff16815250600061084e565b9050610725670de0b6b3a7640000610717838a610fb490919063ffffffff16565b61093890919063ffffffff16565b9250859150505b818111156107425781965050505050505061074c565b8096505050505050505b9392505050565b60008073ffffffffffffffffffffffffffffffffffffffff168273ffffffffffffffffffffffffffffffffffffffff1614156107ac576107a585858560006002811061079b57fe5b6020020151610604565b9050610846565b60006107ca8684866000600281106107c057fe5b6020020151610604565b905060006107ea8487876001600281106107e057fe5b6020020151610604565b905060006107fb888688600061084e565b905061082a670de0b6b3a764000061081c8385610fb490919063ffffffff16565b61093890919063ffffffff16565b91508183111561083f57819350505050610846565b8293505050505b949350505050565b60008073ffffffffffffffffffffffffffffffffffffffff168273ffffffffffffffffffffffffffffffffffffffff1614156108c05760006108a286868660006002811061089857fe5b602002015161103a565b90506108b881670de0b6b3a764000087896111ff565b915050610930565b60006108de8386866001600281106108d457fe5b602002015161103a565b905060006108f682670de0b6b3a764000088876111ff565b9050600061091688868860006002811061090c57fe5b602002015161103a565b905060006109268284888c6111ff565b9050809450505050505b949350505050565b60008082116109af576040517f08c379a000000000000000000000000000000000000000000000000000000000815260040180806020018281038252601a8152602001807f536166654d6174683a206469766973696f6e206279207a65726f00000000000081525060200191505060405180910390fd5b8183816109b857fe5b04905092915050565b600080828401905083811015610a3f576040517f08c379a000000000000000000000000000000000000000000000000000000000815260040180806020018281038252601b8152602001807f536166654d6174683a206164646974696f6e206f766572666c6f77000000000081525060200191505060405180910390fd5b8091505092915050565b600082821115610ac1576040517f08c379a000000000000000000000000000000000000000000000000000000000815260040180806020018281038252601e8152602001807f536166654d6174683a207375627472616374696f6e206f766572666c6f77000081525060200191505060405180910390fd5b818303905092915050565b6000808373ffffffffffffffffffffffffffffffffffffffff168573ffffffffffffffffffffffffffffffffffffffff161115610b0e57838580955081965050505b8473ffffffffffffffffffffffffffffffffffffffff168673ffffffffffffffffffffffffffffffffffffffff1611610b5357610b4c858585611402565b9150610bb5565b8373ffffffffffffffffffffffffffffffffffffffff168673ffffffffffffffffffffffffffffffffffffffff161015610ba657610b92868585611402565b9150610b9f8587856114bd565b9050610bb4565b610bb18585856114bd565b90505b5b94509492505050565b60008060008060008060009054906101000a900473ffffffffffffffffffffffffffffffffffffffff1673ffffffffffffffffffffffffffffffffffffffff16631698ee828989896040518463ffffffff1660e01b8152600401808473ffffffffffffffffffffffffffffffffffffffff1681526020018373ffffffffffffffffffffffffffffffffffffffff1681526020018262ffffff168152602001935050505060206040518083038186803b158015610c7957600080fd5b505afa158015610c8d573d6000803e3d6000fd5b505050506040513d6020811015610ca357600080fd5b8101908080519060200190929190505050905060008173ffffffffffffffffffffffffffffffffffffffff16633850c7bd6040518163ffffffff1660e01b815260040160e06040518083038186803b158015610cfe57600080fd5b505afa158015610d12573d6000803e3d6000fd5b505050506040513d60e0811015610d2857600080fd5b810190808051906020019092919080519060200190929190805190602001909291908051906020019092919080519060200190929190805190602001909291908051906020019092919050505050505050505090506000610da960028373ffffffffffffffffffffffffffffffffffffffff1661093890919063ffffffff16565b90506000610dd6828473ffffffffffffffffffffffffffffffffffffffff166109c190919063ffffffff16565b90506000610e03838573ffffffffffffffffffffffffffffffffffffffff16610a4990919063ffffffff16565b9050600080610e948684868a73ffffffffffffffffffffffffffffffffffffffff16631a6865026040518163ffffffff1660e01b815260040160206040518083038186803b158015610e5457600080fd5b505afa158015610e68573d6000803e3d6000fd5b505050506040513d6020811015610e7e57600080fd5b8101908080519060200190929190505050610acc565b9150915081818873ffffffffffffffffffffffffffffffffffffffff16630dfe16816040518163ffffffff1660e01b815260040160206040518083038186803b158015610ee057600080fd5b505afa158015610ef4573d6000803e3d6000fd5b505050506040513d6020811015610f0a57600080fd5b81019080805190602001909291905050508973ffffffffffffffffffffffffffffffffffffffff1663d21220a76040518163ffffffff1660e01b815260040160206040518083038186803b158015610f6157600080fd5b505afa158015610f75573d6000803e3d6000fd5b505050506040513d6020811015610f8b57600080fd5b81019080805190602001909291905050509a509a509a509a505050505050505093509350935093565b600080831415610fc75760009050611034565b6000828402905082848281610fd857fe5b041461102f576040517f08c379a0000000000000000000000000000000000000000000000000000000008152600401808060200182810382526021815260200180611a5f6021913960400191505060405180910390fd5b809150505b92915050565b60008060008054906101000a900473ffffffffffffffffffffffffffffffffffffffff1673ffffffffffffffffffffffffffffffffffffffff16631698ee828686866040518463ffffffff1660e01b8152600401808473ffffffffffffffffffffffffffffffffffffffff1681526020018373ffffffffffffffffffffffffffffffffffffffff1681526020018262ffffff168152602001935050505060206040518083038186803b1580156110ef57600080fd5b505afa158015611103573d6000803e3d6000fd5b505050506040513d602081101561111957600080fd5b8101908080519060200190929190505050905060008173ffffffffffffffffffffffffffffffffffffffff16633850c7bd6040518163ffffffff1660e01b815260040160e06040518083038186803b15801561117457600080fd5b505afa158015611188573d6000803e3d6000fd5b505050506040513d60e081101561119e57600080fd5b8101908080519060200190929190805190602001909291908051906020019092919080519060200190929190805190602001909291908051906020019092919080519060200190929190505050505050505091505080925050509392505050565b60008061120b86611549565b90506fffffffffffffffffffffffffffffffff80168173ffffffffffffffffffffffffffffffffffffffff161161131c5760008173ffffffffffffffffffffffffffffffffffffffff168273ffffffffffffffffffffffffffffffffffffffff160290508373ffffffffffffffffffffffffffffffffffffffff168573ffffffffffffffffffffffffffffffffffffffff16106112dd576112d87801000000000000000000000000000000000000000000000000876fffffffffffffffffffffffffffffffff1683611984565b611314565b61131381876fffffffffffffffffffffffffffffffff167801000000000000000000000000000000000000000000000000611984565b5b9250506113f9565b600061135e8273ffffffffffffffffffffffffffffffffffffffff168373ffffffffffffffffffffffffffffffffffffffff1668010000000000000000611984565b90508373ffffffffffffffffffffffffffffffffffffffff168573ffffffffffffffffffffffffffffffffffffffff16106113c6576113c1700100000000000000000000000000000000876fffffffffffffffffffffffffffffffff1683611984565b6113f5565b6113f481876fffffffffffffffffffffffffffffffff16700100000000000000000000000000000000611984565b5b9250505b50949350505050565b60008273ffffffffffffffffffffffffffffffffffffffff168473ffffffffffffffffffffffffffffffffffffffff16111561144357828480945081955050505b8373ffffffffffffffffffffffffffffffffffffffff166114ac606060ff16846fffffffffffffffffffffffffffffffff16901b86860373ffffffffffffffffffffffffffffffffffffffff168673ffffffffffffffffffffffffffffffffffffffff16611984565b816114b357fe5b0490509392505050565b60008273ffffffffffffffffffffffffffffffffffffffff168473ffffffffffffffffffffffffffffffffffffffff1611156114fe57828480945081955050505b611540826fffffffffffffffffffffffffffffffff1685850373ffffffffffffffffffffffffffffffffffffffff166c01000000000000000000000000611984565b90509392505050565b60008060008360020b12611560578260020b611568565b8260020b6000035b90507ffffffffffffffffffffffffffffffffffffffffffffffffffffffffffff2761860000360020b811115611606576040517f08c379a00000000000000000000000000000000000000000000000000000000081526004018080602001828103825260018152602001807f540000000000000000000000000000000000000000000000000000000000000081525060200191505060405180910390fd5b60008060018316141561162a5770010000000000000000000000000000000061163c565b6ffffcb933bd6fad37aa2d162d1a5940015b70ffffffffffffffffffffffffffffffffff169050600060028316146116765760806ffff97272373d413259a46990580e213a8202901c90505b6000600483161461169b5760806ffff2e50f5f656932ef12357cf3c7fdcc8202901c90505b600060088316146116c05760806fffe5caca7e10e4e61c3624eaa0941cd08202901c90505b600060108316146116e55760806fffcb9843d60f6159c9db58835c9266448202901c90505b6000602083161461170a5760806fff973b41fa98c081472e6896dfb254c08202901c90505b6000604083161461172f5760806fff2ea16466c96a3843ec78b326b528618202901c90505b600060808316146117545760806ffe5dee046a99a2a811c461f1969c30538202901c90505b600061010083161461177a5760806ffcbe86c7900a88aedcffc83b479aa3a48202901c90505b60006102008316146117a05760806ff987a7253ac413176f2b074cf7815e548202901c90505b60006104008316146117c65760806ff3392b0822b70005940c7a398e4b70f38202901c90505b60006108008316146117ec5760806fe7159475a2c29b7443b29c7fa6e889d98202901c90505b60006110008316146118125760806fd097f3bdfd2022b8845ad8f792aa58258202901c90505b60006120008316146118385760806fa9f746462d870fdf8a65dc1f90e061e58202901c90505b600061400083161461185e5760806f70d869a156d2a1b890bb3df62baf32f78202901c90505b60006180008316146118845760806f31be135f97d08fd981231505542fcfa68202901c90505b6000620100008316146118ab5760806f09aa508b5b7a84e1c677de54f3e99bc98202901c90505b6000620200008316146118d15760806e5d6af8dedb81196699c329225ee6048202901c90505b6000620400008316146118f65760806d2216e584f5fa1ea926041bedfe988202901c90505b6000620800008316146119195760806b048a170391f7dc42444e8fa28202901c90505b60008460020b131561195257807fffffffffffffffffffffffffffffffffffffffffffffffffffffffffffffffff8161194e57fe5b0490505b6000640100000000828161196257fe5b061461196f576001611972565b60005b60ff16602082901c0192505050919050565b6000806000801985870985870292508281108382030391505060008114156119bf57600084116119b357600080fd5b83820492505050611a57565b8084116119cb57600080fd5b600084868809905082811182039150808303925060008586600003169050808604955080840493506001818260000304019050808302841793506000600287600302189050808702600203810290508087026002038102905080870260020381029050808702600203810290508087026002038102905080870260020381029050808502955050505050505b939250505056fe536166654d6174683a206d756c7469706c69636174696f6e206f766572666c6f77a26469706673582212203c6116ebb9d032ff1992723674fedd330b6279e1a04a08ab5858c040477eb2d364736f6c63430007060033",
  "immutableReferences": {},
  "source": "// SPDX-License-Identifier: MIT\r\npragma solidity 0.7.6;\r\n\r\nimport \"@uniswap/v3-core/contracts/interfaces/IUniswapV3Pool.sol\";\r\nimport '@uniswap/v3-core/contracts/libraries/TickMath.sol';\r\nimport \"@uniswap/v3-core/contracts/interfaces/IUniswapV3Factory.sol\";\r\nimport \"@uniswap/v3-periphery/contracts/interfaces/IQuoterV2.sol\";\r\nimport \"@uniswap/v3-periphery/contracts/libraries/OracleLibrary.sol\";\r\nimport \"@uniswap/v3-core/contracts/libraries/FixedPoint96.sol\";\r\nimport \"@uniswap/v3-core/contracts/libraries/FullMath.sol\";\r\nimport \"@uniswap/v3-periphery/contracts/libraries/LiquidityAmounts.sol\";\r\nimport \"@openzeppelin/contracts/token/ERC20/ERC20.sol\";\r\nimport \"@openzeppelin/contracts/math/SafeMath.sol\";\r\n\r\n\r\ncontract PriceOracle {\r\n    using SafeMath for uint256;\r\n    using SafeMath for uint160;\r\n\r\n    IUniswapV3Factory private factory;\r\n\r\n    constructor(address _factoryAddress){\r\n        factory = IUniswapV3Factory(_factoryAddress);\r\n    }\r\n\r\n    function getLatestTick(address firstToken, address secondToken, uint24 fee) private view returns(int24){\r\n        IUniswapV3Pool pool = IUniswapV3Pool(factory.getPool(firstToken, secondToken, fee));\r\n        (, int24 tick, ,,,, ) = pool.slot0();\r\n        return tick;\r\n    }\r\n\r\n    function getL(address firstToken, address secondToken, uint24 fee) public view returns(uint, uint){\r\n        IUniswapV3Pool pool = IUniswapV3Pool(factory.getPool(firstToken, secondToken, fee));\r\n        (uint160 sqrtPriceX96,,,,,,) = pool.slot0();\r\n\r\n        uint priceQuarter = sqrtPriceX96.div(4);\r\n        uint160 sqrtRatioBX96 = uint160(sqrtPriceX96.add(priceQuarter));\r\n        uint160 sqrtRatioAX96 = uint160(sqrtPriceX96.sub(priceQuarter));\r\n\r\n        (uint amount0, uint amount1) = LiquidityAmounts.getAmountsForLiquidity(\r\n            sqrtPriceX96,\r\n            sqrtRatioAX96,\r\n            sqrtRatioBX96,\r\n            pool.liquidity()\r\n        );\r\n        return (amount0, amount1);\r\n    }\r\n\r\n    function getPoolTokensAmount(\r\n        address firstToken, address secondToken, uint24 fee\r\n    ) private view returns(uint, uint, address, address){\r\n        IUniswapV3Pool pool = IUniswapV3Pool(factory.getPool(firstToken, secondToken, fee));\r\n        (uint160 sqrtPriceX96,,,,,,) = pool.slot0();\r\n\r\n        uint priceQuarter = sqrtPriceX96.div(2);\r\n        uint160 sqrtRatioBX96 = uint160(sqrtPriceX96.add(priceQuarter));\r\n        uint160 sqrtRatioAX96 = uint160(sqrtPriceX96.sub(priceQuarter));\r\n\r\n        (uint amount0, uint amount1) = LiquidityAmounts.getAmountsForLiquidity(\r\n            sqrtPriceX96,\r\n            sqrtRatioAX96,\r\n            sqrtRatioBX96,\r\n            pool.liquidity()\r\n        );\r\n        return (amount0, amount1, pool.token0(), pool.token1());\r\n\r\n    }\r\n\r\n    function getMinimalPoolLiquidity(address firstToken, address secondToken, uint24 fee) public view returns(uint){\r\n        // first = WETH\r\n        // second = SUSHI\r\n\r\n        (\r\n            uint amount0,\r\n            uint amount1,\r\n            address token0,\r\n            address token1\r\n        ) = getPoolTokensAmount(firstToken, secondToken, fee);\r\n        uint adjustedAmount;\r\n        uint anotherAmount;\r\n\r\n        if(token0 == firstToken){\r\n            uint firstTokenPrice = getPrice(token0, token1, [fee, 0], address(0));\r\n            adjustedAmount = amount1.mul(firstTokenPrice).div(1 ether);\r\n            anotherAmount = amount0;\r\n        }else{\r\n            uint firstTokenPrice = getPrice(token1, token0, [fee, 0], address(0));\r\n            adjustedAmount = amount0.mul(firstTokenPrice).div(1 ether);\r\n            anotherAmount = amount1;\r\n        }\r\n\r\n        if(anotherAmount > adjustedAmount){\r\n            return adjustedAmount;\r\n        }else{\r\n            return anotherAmount;\r\n        }\r\n    }\r\n\r\n    function getLiquidity(\r\n        address firstToken, address secondToken, uint24[2] memory tokenFees, address intermediateToken\r\n    ) external view returns(uint){\r\n        // firstToken = DAI\r\n        // secondToken = SUSHI\r\n        // intermediateToken = WETH\r\n\r\n        if(intermediateToken == address(0)){\r\n            return getMinimalPoolLiquidity(firstToken, secondToken, tokenFees[0]);\r\n        }else{\r\n            uint firstPoolLiquidity = getMinimalPoolLiquidity(firstToken, intermediateToken, tokenFees[0]);     // DAI\r\n            uint secondPoolLiquidity = getMinimalPoolLiquidity(intermediateToken, secondToken, tokenFees[1]);   // WETH\r\n\r\n            uint price = getPrice(firstToken, intermediateToken, tokenFees, address(0));    // DAI\r\n            secondPoolLiquidity = secondPoolLiquidity.mul(price).div(1 ether);\r\n\r\n            if(firstPoolLiquidity > secondPoolLiquidity){\r\n                return secondPoolLiquidity;\r\n            }else{\r\n                return firstPoolLiquidity;\r\n            }\r\n\r\n        }\r\n\r\n    }\r\n\r\n    function getPrice(\r\n        address firstToken, address secondToken, uint24[2] memory poolFees, address intermediateToken\r\n    ) public view returns (uint) {\r\n\r\n        if(intermediateToken == address(0)){\r\n            int24 tick = getLatestTick(firstToken, secondToken, poolFees[0]);\r\n            return OracleLibrary.getQuoteAtTick(tick, 1 ether, secondToken, firstToken);\r\n        }else{\r\n            int24 firstTick = getLatestTick(intermediateToken, secondToken, poolFees[1]);\r\n            uint firstSwapPrice = OracleLibrary.getQuoteAtTick(firstTick, 1 ether, secondToken, intermediateToken);\r\n\r\n            int24 secondTick = getLatestTick(firstToken, intermediateToken, poolFees[0]);\r\n            uint secondSwapPrice = OracleLibrary.getQuoteAtTick(\r\n                secondTick,\r\n                uint128(firstSwapPrice),\r\n                intermediateToken,\r\n                firstToken\r\n            );\r\n\r\n            return secondSwapPrice;\r\n        }\r\n\r\n    }\r\n\r\n}",
  "sourcePath": "D:\\JavascriptProjects\\crypto-index\\contracts\\indices\\PriceOracle.sol",
  "compiler": {
    "name": "solc",
    "version": "0.7.6+commit.7338295f.Emscripten.clang"
  },
  "schemaVersion": "3.4.7",
  "updatedAt": "2022-06-02T10:29:35.662Z",
  "devdoc": {
    "kind": "dev",
    "methods": {},
    "version": 1
  },
  "userdoc": {
    "kind": "user",
    "methods": {},
    "version": 1
  }
}