{
  "contractName": "PriceOracle",
  "abi": [
    {
      "inputs": [
        {
          "internalType": "address",
          "name": "_factoryAddress",
          "type": "address"
        },
        {
          "internalType": "address",
          "name": "_baseToken",
          "type": "address"
        },
        {
          "internalType": "address",
          "name": "_WETH",
          "type": "address"
        }
      ],
      "stateMutability": "nonpayable",
      "type": "constructor"
    },
    {
      "inputs": [
        {
          "internalType": "address",
          "name": "secondToken",
          "type": "address"
        },
        {
          "internalType": "uint24[2]",
          "name": "poolFees",
          "type": "uint24[2]"
        },
        {
          "internalType": "address",
          "name": "intermediateToken",
          "type": "address"
        }
      ],
      "name": "getPrice",
      "outputs": [
        {
          "internalType": "uint256",
          "name": "",
          "type": "uint256"
        }
      ],
      "stateMutability": "view",
      "type": "function"
    }
  ],
  "bytecode": "0x608060405234801561001057600080fd5b50604051610c99380380610c998339818101604052606081101561003357600080fd5b81019080805190602001909291908051906020019092919080519060200190929190505050826000806101000a81548173ffffffffffffffffffffffffffffffffffffffff021916908373ffffffffffffffffffffffffffffffffffffffff16021790555081600160006101000a81548173ffffffffffffffffffffffffffffffffffffffff021916908373ffffffffffffffffffffffffffffffffffffffff16021790555080600260006101000a81548173ffffffffffffffffffffffffffffffffffffffff021916908373ffffffffffffffffffffffffffffffffffffffff160217905550505050610b6d8061012c6000396000f3fe608060405234801561001057600080fd5b506004361061002b5760003560e01c8063ae5621b814610030575b600080fd5b6100d36004803603608081101561004657600080fd5b81019080803573ffffffffffffffffffffffffffffffffffffffff16906020019092919080604001906002806020026040519081016040528092919082600260200280828437600081840152601f19601f8201169050808301925050505050509192919290803573ffffffffffffffffffffffffffffffffffffffff1690602001909291905050506100e9565b6040518082815260200191505060405180910390f35b60008073ffffffffffffffffffffffffffffffffffffffff168273ffffffffffffffffffffffffffffffffffffffff16141561019f57600061015f600160009054906101000a900473ffffffffffffffffffffffffffffffffffffffff16868660006002811061015557fe5b602002015161025a565b905061019781670de0b6b3a764000087600160009054906101000a900473ffffffffffffffffffffffffffffffffffffffff1661041f565b915050610253565b60006101bd8386866001600281106101b357fe5b602002015161025a565b905060006101d582670de0b6b3a7640000888761041f565b90506000610217600160009054906101000a900473ffffffffffffffffffffffffffffffffffffffff16868860006002811061020d57fe5b602002015161025a565b90506000610249828488600160009054906101000a900473ffffffffffffffffffffffffffffffffffffffff1661041f565b9050809450505050505b9392505050565b60008060008054906101000a900473ffffffffffffffffffffffffffffffffffffffff1673ffffffffffffffffffffffffffffffffffffffff16631698ee828686866040518463ffffffff1660e01b8152600401808473ffffffffffffffffffffffffffffffffffffffff1681526020018373ffffffffffffffffffffffffffffffffffffffff1681526020018262ffffff168152602001935050505060206040518083038186803b15801561030f57600080fd5b505afa158015610323573d6000803e3d6000fd5b505050506040513d602081101561033957600080fd5b8101908080519060200190929190505050905060008173ffffffffffffffffffffffffffffffffffffffff16633850c7bd6040518163ffffffff1660e01b815260040160e06040518083038186803b15801561039457600080fd5b505afa1580156103a8573d6000803e3d6000fd5b505050506040513d60e08110156103be57600080fd5b8101908080519060200190929190805190602001909291908051906020019092919080519060200190929190805190602001909291908051906020019092919080519060200190929190505050505050505091505080925050509392505050565b60008061042b86610622565b90506fffffffffffffffffffffffffffffffff80168173ffffffffffffffffffffffffffffffffffffffff161161053c5760008173ffffffffffffffffffffffffffffffffffffffff168273ffffffffffffffffffffffffffffffffffffffff160290508373ffffffffffffffffffffffffffffffffffffffff168573ffffffffffffffffffffffffffffffffffffffff16106104fd576104f87801000000000000000000000000000000000000000000000000876fffffffffffffffffffffffffffffffff1683610a5d565b610534565b61053381876fffffffffffffffffffffffffffffffff167801000000000000000000000000000000000000000000000000610a5d565b5b925050610619565b600061057e8273ffffffffffffffffffffffffffffffffffffffff168373ffffffffffffffffffffffffffffffffffffffff1668010000000000000000610a5d565b90508373ffffffffffffffffffffffffffffffffffffffff168573ffffffffffffffffffffffffffffffffffffffff16106105e6576105e1700100000000000000000000000000000000876fffffffffffffffffffffffffffffffff1683610a5d565b610615565b61061481876fffffffffffffffffffffffffffffffff16700100000000000000000000000000000000610a5d565b5b9250505b50949350505050565b60008060008360020b12610639578260020b610641565b8260020b6000035b90507ffffffffffffffffffffffffffffffffffffffffffffffffffffffffffff2761860000360020b8111156106df576040517f08c379a00000000000000000000000000000000000000000000000000000000081526004018080602001828103825260018152602001807f540000000000000000000000000000000000000000000000000000000000000081525060200191505060405180910390fd5b60008060018316141561070357700100000000000000000000000000000000610715565b6ffffcb933bd6fad37aa2d162d1a5940015b70ffffffffffffffffffffffffffffffffff1690506000600283161461074f5760806ffff97272373d413259a46990580e213a8202901c90505b600060048316146107745760806ffff2e50f5f656932ef12357cf3c7fdcc8202901c90505b600060088316146107995760806fffe5caca7e10e4e61c3624eaa0941cd08202901c90505b600060108316146107be5760806fffcb9843d60f6159c9db58835c9266448202901c90505b600060208316146107e35760806fff973b41fa98c081472e6896dfb254c08202901c90505b600060408316146108085760806fff2ea16466c96a3843ec78b326b528618202901c90505b6000608083161461082d5760806ffe5dee046a99a2a811c461f1969c30538202901c90505b60006101008316146108535760806ffcbe86c7900a88aedcffc83b479aa3a48202901c90505b60006102008316146108795760806ff987a7253ac413176f2b074cf7815e548202901c90505b600061040083161461089f5760806ff3392b0822b70005940c7a398e4b70f38202901c90505b60006108008316146108c55760806fe7159475a2c29b7443b29c7fa6e889d98202901c90505b60006110008316146108eb5760806fd097f3bdfd2022b8845ad8f792aa58258202901c90505b60006120008316146109115760806fa9f746462d870fdf8a65dc1f90e061e58202901c90505b60006140008316146109375760806f70d869a156d2a1b890bb3df62baf32f78202901c90505b600061800083161461095d5760806f31be135f97d08fd981231505542fcfa68202901c90505b6000620100008316146109845760806f09aa508b5b7a84e1c677de54f3e99bc98202901c90505b6000620200008316146109aa5760806e5d6af8dedb81196699c329225ee6048202901c90505b6000620400008316146109cf5760806d2216e584f5fa1ea926041bedfe988202901c90505b6000620800008316146109f25760806b048a170391f7dc42444e8fa28202901c90505b60008460020b1315610a2b57807fffffffffffffffffffffffffffffffffffffffffffffffffffffffffffffffff81610a2757fe5b0490505b60006401000000008281610a3b57fe5b0614610a48576001610a4b565b60005b60ff16602082901c0192505050919050565b600080600080198587098587029250828110838203039150506000811415610a985760008411610a8c57600080fd5b83820492505050610b30565b808411610aa457600080fd5b600084868809905082811182039150808303925060008586600003169050808604955080840493506001818260000304019050808302841793506000600287600302189050808702600203810290508087026002038102905080870260020381029050808702600203810290508087026002038102905080870260020381029050808502955050505050505b939250505056fea2646970667358221220f3eb44a4de793a52cb4590303905922ce2e6e87017c369c9660e70b0c2c8994164736f6c63430007060033",
  "immutableReferences": {},
  "source": "// // SPDX-License-Identifier: MIT\r\n// pragma solidity 0.7.6;\r\n// \r\n// import \"@chainlink/contracts/src/v0.7/interfaces/AggregatorV3Interface.sol\";\r\n// import \"@uniswap/v3\r\n// import \"@openzeppelin/contracts/math/SafeMath.sol\";\r\n// \r\n// \r\n// contract PriceOracle {\r\n//     using SafeMath for uint256;\r\n// \r\n//     function getPrice(address priceAggregatorAddress) external view returns (uint) {\r\n//         AggregatorV3Interface aggregator = AggregatorV3Interface(priceAggregatorAddress);\r\n//         (, int price,,,) = aggregator.latestRoundData();\r\n//         return uint256(price).mul(10000000000);\r\n//     }\r\n// \r\n// }\r\n\r\n\r\n// SPDX-License-Identifier: MIT\r\npragma solidity 0.7.6;\r\n\r\nimport \"@uniswap/v3-core/contracts/interfaces/IUniswapV3Pool.sol\";\r\nimport '@uniswap/v3-core/contracts/libraries/TickMath.sol';\r\nimport \"@uniswap/v3-core/contracts/interfaces/IUniswapV3Factory.sol\";\r\nimport \"@uniswap/v3-periphery/contracts/interfaces/IQuoterV2.sol\";\r\nimport \"@uniswap/v3-periphery/contracts/libraries/OracleLibrary.sol\";\r\nimport \"@uniswap/v3-core/contracts/libraries/FixedPoint96.sol\";\r\nimport \"@uniswap/v3-core/contracts/libraries/FullMath.sol\";\r\nimport \"@openzeppelin/contracts/token/ERC20/ERC20.sol\";\r\nimport \"@openzeppelin/contracts/math/SafeMath.sol\";\r\n\r\n\r\ncontract PriceOracle {\r\n    using SafeMath for uint256;\r\n\r\n    IUniswapV3Factory private factory;\r\n    address baseToken;\r\n    address WETH;\r\n\r\n    constructor(address _factoryAddress, address _baseToken, address _WETH){\r\n        factory = IUniswapV3Factory(_factoryAddress);\r\n        baseToken = _baseToken;\r\n        WETH = _WETH;\r\n    }\r\n\r\n    function getLatestTick(address firstToken, address secondToken, uint24 fee) private view returns(int24){\r\n        IUniswapV3Pool pool = IUniswapV3Pool(factory.getPool(firstToken, secondToken, fee));\r\n        (, int24 tick, ,,,, ) = pool.slot0();\r\n        return tick;\r\n    }\r\n\r\n    function getPrice(\r\n        address secondToken, uint24[2] memory poolFees, address intermediateToken\r\n    ) external view returns (uint) {\r\n\r\n        if(intermediateToken == address(0)){\r\n            int24 tick = getLatestTick(baseToken, secondToken, poolFees[0]);\r\n            return OracleLibrary.getQuoteAtTick(tick, 1 ether, secondToken, baseToken);\r\n        }else{\r\n            int24 firstTick = getLatestTick(intermediateToken, secondToken, poolFees[1]);\r\n            uint firstSwapPrice = OracleLibrary.getQuoteAtTick(firstTick, 1 ether, secondToken, intermediateToken);\r\n\r\n            int24 secondTick = getLatestTick(baseToken, intermediateToken, poolFees[0]);\r\n            uint secondSwapPrice = OracleLibrary.getQuoteAtTick(\r\n                secondTick, uint128(firstSwapPrice), intermediateToken, baseToken\r\n            );\r\n\r\n            return secondSwapPrice;\r\n        }\r\n\r\n    }\r\n\r\n}",
  "sourcePath": "D:\\JavascriptProjects\\crypto-index\\contracts\\indices\\PriceOracle.sol",
  "compiler": {
    "name": "solc",
    "version": "0.7.6+commit.7338295f.Emscripten.clang"
  },
  "schemaVersion": "3.4.6",
  "updatedAt": "2022-05-31T09:56:51.023Z",
  "devdoc": {
    "kind": "dev",
    "methods": {},
    "version": 1
  },
  "userdoc": {
    "kind": "user",
    "methods": {},
    "version": 1
  }
}