{
  "contractName": "PriceOracle",
  "abi": [
    {
      "inputs": [
        {
          "internalType": "address",
          "name": "firstToken",
          "type": "address"
        },
        {
          "internalType": "address",
          "name": "secondToken",
          "type": "address"
        },
        {
          "internalType": "uint24",
          "name": "tokenFee",
          "type": "uint24"
        }
      ],
      "name": "getLiquidity",
      "outputs": [
        {
          "internalType": "uint256",
          "name": "",
          "type": "uint256"
        }
      ],
      "stateMutability": "view",
      "type": "function"
    },
    {
      "inputs": [
        {
          "internalType": "address",
          "name": "firstToken",
          "type": "address"
        },
        {
          "internalType": "address",
          "name": "secondToken",
          "type": "address"
        },
        {
          "internalType": "uint24",
          "name": "poolFee",
          "type": "uint24"
        }
      ],
      "name": "getPrice",
      "outputs": [
        {
          "internalType": "uint256",
          "name": "",
          "type": "uint256"
        }
      ],
      "stateMutability": "view",
      "type": "function"
    }
  ],
  "bytecode": "0x6080604052600080546001600160a01b031916731f98431c8ad98523631ae4a59f267346ea31f98417905534801561003657600080fd5b50611216806100466000396000f3fe608060405234801561001057600080fd5b50600436106100365760003560e01c80634613d1351461003b578063d6556a3014610064575b600080fd5b61004e61004936600461103b565b610077565b60405161005b9190611191565b60405180910390f35b61004e61007236600461103b565b6100a1565b6000610097610087858585610177565b670de0b6b3a764000085876102b5565b90505b9392505050565b60008060008060006100b488888861045e565b93509350935093506000808973ffffffffffffffffffffffffffffffffffffffff168473ffffffffffffffffffffffffffffffffffffffff16141561012957600061010085858b610077565b905061011e670de0b6b3a764000061011888846107a7565b90610823565b925086915050610155565b600061013684868b610077565b905061014e670de0b6b3a764000061011889846107a7565b9250859150505b8181111561016a5750945061009a9350505050565b955061009a945050505050565b600080546040517f1698ee82000000000000000000000000000000000000000000000000000000008152829173ffffffffffffffffffffffffffffffffffffffff1690631698ee82906101d29088908890889060040161115c565b60206040518083038186803b1580156101ea57600080fd5b505afa1580156101fe573d6000803e3d6000fd5b505050506040513d601f19601f82011682018060405250810190610222919061101f565b905060008173ffffffffffffffffffffffffffffffffffffffff16633850c7bd6040518163ffffffff1660e01b815260040160e06040518083038186803b15801561026c57600080fd5b505afa158015610280573d6000803e3d6000fd5b505050506040513d601f19601f820116820180604052508101906102a491906110bc565b50939b9a5050505050505050505050565b6000806102c1866108a4565b90506fffffffffffffffffffffffffffffffff73ffffffffffffffffffffffffffffffffffffffff82161161038f5773ffffffffffffffffffffffffffffffffffffffff808216800290848116908616106103515761034c7801000000000000000000000000000000000000000000000000876fffffffffffffffffffffffffffffffff1683610c37565b610387565b61038781876fffffffffffffffffffffffffffffffff167801000000000000000000000000000000000000000000000000610c37565b925050610455565b60006103bb73ffffffffffffffffffffffffffffffffffffffff83168068010000000000000000610c37565b90508373ffffffffffffffffffffffffffffffffffffffff168573ffffffffffffffffffffffffffffffffffffffff16106104235761041e700100000000000000000000000000000000876fffffffffffffffffffffffffffffffff1683610c37565b610451565b61045181876fffffffffffffffffffffffffffffffff16700100000000000000000000000000000000610c37565b9250505b50949350505050565b600080546040517f1698ee82000000000000000000000000000000000000000000000000000000008152829182918291829173ffffffffffffffffffffffffffffffffffffffff90911690631698ee82906104c1908b908b908b9060040161115c565b60206040518083038186803b1580156104d957600080fd5b505afa1580156104ed573d6000803e3d6000fd5b505050506040513d601f19601f82011682018060405250810190610511919061101f565b905060008173ffffffffffffffffffffffffffffffffffffffff16633850c7bd6040518163ffffffff1660e01b815260040160e06040518083038186803b15801561055b57600080fd5b505afa15801561056f573d6000803e3d6000fd5b505050506040513d601f19601f8201168201806040525081019061059391906110bc565b505050505050905060006105dc8273ffffffffffffffffffffffffffffffffffffffff168373ffffffffffffffffffffffffffffffffffffffff16610d0490919063ffffffff16565b9050600061060073ffffffffffffffffffffffffffffffffffffffff841680610d78565b905060008061068e8584868973ffffffffffffffffffffffffffffffffffffffff16631a6865026040518163ffffffff1660e01b815260040160206040518083038186803b15801561065157600080fd5b505afa158015610665573d6000803e3d6000fd5b505050506040513d601f19601f82011682018060405250810190610689919061108c565b610def565b9150915081818773ffffffffffffffffffffffffffffffffffffffff16630dfe16816040518163ffffffff1660e01b815260040160206040518083038186803b1580156106da57600080fd5b505afa1580156106ee573d6000803e3d6000fd5b505050506040513d601f19601f82011682018060405250810190610712919061101f565b8873ffffffffffffffffffffffffffffffffffffffff1663d21220a76040518163ffffffff1660e01b815260040160206040518083038186803b15801561075857600080fd5b505afa15801561076c573d6000803e3d6000fd5b505050506040513d601f19601f82011682018060405250810190610790919061101f565b995099509950995050505050505093509350935093565b6000826107b65750600061081d565b828202828482816107c357fe5b041461081a576040517f08c379a00000000000000000000000000000000000000000000000000000000081526004018080602001828103825260218152602001806111c06021913960400191505060405180910390fd5b90505b92915050565b600080821161089357604080517f08c379a000000000000000000000000000000000000000000000000000000000815260206004820152601a60248201527f536166654d6174683a206469766973696f6e206279207a65726f000000000000604482015290519081900360640190fd5b81838161089c57fe5b049392505050565b60008060008360020b126108bb578260020b6108c3565b8260020b6000035b9050620d89e881111561093757604080517f08c379a000000000000000000000000000000000000000000000000000000000815260206004820152600160248201527f5400000000000000000000000000000000000000000000000000000000000000604482015290519081900360640190fd5b6000600182166109585770010000000000000000000000000000000061096a565b6ffffcb933bd6fad37aa2d162d1a5940015b70ffffffffffffffffffffffffffffffffff169050600282161561099e576ffff97272373d413259a46990580e213a0260801c5b60048216156109bd576ffff2e50f5f656932ef12357cf3c7fdcc0260801c5b60088216156109dc576fffe5caca7e10e4e61c3624eaa0941cd00260801c5b60108216156109fb576fffcb9843d60f6159c9db58835c9266440260801c5b6020821615610a1a576fff973b41fa98c081472e6896dfb254c00260801c5b6040821615610a39576fff2ea16466c96a3843ec78b326b528610260801c5b6080821615610a58576ffe5dee046a99a2a811c461f1969c30530260801c5b610100821615610a78576ffcbe86c7900a88aedcffc83b479aa3a40260801c5b610200821615610a98576ff987a7253ac413176f2b074cf7815e540260801c5b610400821615610ab8576ff3392b0822b70005940c7a398e4b70f30260801c5b610800821615610ad8576fe7159475a2c29b7443b29c7fa6e889d90260801c5b611000821615610af8576fd097f3bdfd2022b8845ad8f792aa58250260801c5b612000821615610b18576fa9f746462d870fdf8a65dc1f90e061e50260801c5b614000821615610b38576f70d869a156d2a1b890bb3df62baf32f70260801c5b618000821615610b58576f31be135f97d08fd981231505542fcfa60260801c5b62010000821615610b79576f09aa508b5b7a84e1c677de54f3e99bc90260801c5b62020000821615610b99576e5d6af8dedb81196699c329225ee6040260801c5b62040000821615610bb8576d2216e584f5fa1ea926041bedfe980260801c5b62080000821615610bd5576b048a170391f7dc42444e8fa20260801c5b60008460020b1315610c0e57807fffffffffffffffffffffffffffffffffffffffffffffffffffffffffffffffff81610c0a57fe5b0490505b640100000000810615610c22576001610c25565b60005b60ff16602082901c0192505050919050565b600080807fffffffffffffffffffffffffffffffffffffffffffffffffffffffffffffffff85870986860292508281109083900303905080610c8b5760008411610c8057600080fd5b50829004905061009a565b808411610c9757600080fd5b6000848688096000868103871696879004966002600389028118808a02820302808a02820302808a02820302808a02820302808a02820302808a02909103029181900381900460010186841190950394909402919094039290920491909117919091029150509392505050565b60008282018381101561081a57604080517f08c379a000000000000000000000000000000000000000000000000000000000815260206004820152601b60248201527f536166654d6174683a206164646974696f6e206f766572666c6f770000000000604482015290519081900360640190fd5b600082821115610de957604080517f08c379a000000000000000000000000000000000000000000000000000000000815260206004820152601e60248201527f536166654d6174683a207375627472616374696f6e206f766572666c6f770000604482015290519081900360640190fd5b50900390565b6000808373ffffffffffffffffffffffffffffffffffffffff168573ffffffffffffffffffffffffffffffffffffffff161115610e2a579293925b8473ffffffffffffffffffffffffffffffffffffffff168673ffffffffffffffffffffffffffffffffffffffff1611610e6f57610e68858585610ed9565b9150610ed0565b8373ffffffffffffffffffffffffffffffffffffffff168673ffffffffffffffffffffffffffffffffffffffff161015610ec257610eae868585610ed9565b9150610ebb858785610f8c565b9050610ed0565b610ecd858585610f8c565b90505b94509492505050565b60008273ffffffffffffffffffffffffffffffffffffffff168473ffffffffffffffffffffffffffffffffffffffff161115610f13579192915b8373ffffffffffffffffffffffffffffffffffffffff16610f7c606060ff16846fffffffffffffffffffffffffffffffff16901b86860373ffffffffffffffffffffffffffffffffffffffff168673ffffffffffffffffffffffffffffffffffffffff16610c37565b81610f8357fe5b04949350505050565b60008273ffffffffffffffffffffffffffffffffffffffff168473ffffffffffffffffffffffffffffffffffffffff161115610fc6579192915b610097826fffffffffffffffffffffffffffffffff1685850373ffffffffffffffffffffffffffffffffffffffff166c01000000000000000000000000610c37565b805161ffff8116811461101a57600080fd5b919050565b600060208284031215611030578081fd5b815161081a8161119a565b60008060006060848603121561104f578182fd5b833561105a8161119a565b9250602084013561106a8161119a565b9150604084013562ffffff81168114611081578182fd5b809150509250925092565b60006020828403121561109d578081fd5b81516fffffffffffffffffffffffffffffffff8116811461081a578182fd5b600080600080600080600060e0888a0312156110d6578283fd5b87516110e18161119a565b8097505060208801518060020b81146110f8578384fd5b955061110660408901611008565b945061111460608901611008565b935061112260808901611008565b925060a088015160ff81168114611137578283fd5b60c0890151909250801515811461114c578182fd5b8091505092959891949750929550565b73ffffffffffffffffffffffffffffffffffffffff938416815291909216602082015262ffffff909116604082015260600190565b90815260200190565b73ffffffffffffffffffffffffffffffffffffffff811681146111bc57600080fd5b5056fe536166654d6174683a206d756c7469706c69636174696f6e206f766572666c6f77a2646970667358221220643a486dc8aa9f983fb88a6f5af800fcbf84e5ce4bbb26388520a2a65aa39bbe64736f6c63430007060033",
  "immutableReferences": {},
  "source": "// SPDX-License-Identifier: MIT\r\npragma solidity 0.7.6;\r\npragma abicoder v2;\r\n\r\nimport \"@uniswap/v3-core/contracts/interfaces/IUniswapV3Pool.sol\";\r\nimport \"@uniswap/v3-core/contracts/interfaces/IUniswapV3Factory.sol\";\r\nimport \"@uniswap/v3-periphery/contracts/libraries/OracleLibrary.sol\";\r\nimport \"@uniswap/v3-periphery/contracts/libraries/LiquidityAmounts.sol\";\r\nimport \"@openzeppelin/contracts/math/SafeMath.sol\";\r\n\r\n\r\ncontract PriceOracle {\r\n    using SafeMath for uint256;\r\n    using SafeMath for uint160;\r\n\r\n    IUniswapV3Factory private factory = IUniswapV3Factory(0x1F98431c8aD98523631AE4a59f267346ea31F984);\r\n\r\n    function getLatestTick(address firstToken, address secondToken, uint24 fee) private view returns(int24){\r\n        IUniswapV3Pool pool = IUniswapV3Pool(factory.getPool(firstToken, secondToken, fee));\r\n        (, int24 tick, ,,,, ) = pool.slot0();\r\n        return tick;\r\n    }\r\n\r\n    function getPoolTokensAmount(\r\n        address firstToken, address secondToken, uint24 fee\r\n    ) private view returns(uint, uint, address, address){\r\n        IUniswapV3Pool pool = IUniswapV3Pool(factory.getPool(firstToken, secondToken, fee));\r\n        (uint160 sqrtPriceX96,,,,,,) = pool.slot0();\r\n\r\n        uint160 sqrtRatioBX96 = uint160(sqrtPriceX96.add(sqrtPriceX96));\r\n        uint160 sqrtRatioAX96 = uint160(sqrtPriceX96.sub(sqrtPriceX96));\r\n\r\n        (uint amount0, uint amount1) = LiquidityAmounts.getAmountsForLiquidity(\r\n            sqrtPriceX96, sqrtRatioAX96, sqrtRatioBX96, pool.liquidity()\r\n        );\r\n        return (amount0, amount1, pool.token0(), pool.token1());\r\n    }\r\n\r\n\r\n    function getLiquidity(address firstToken, address secondToken, uint24 tokenFee) external view returns(uint){\r\n        (\r\n            uint amount0,\r\n            uint amount1,\r\n            address token0,\r\n            address token1\r\n        ) = getPoolTokensAmount(firstToken, secondToken, tokenFee);\r\n        uint adjustedAmount;\r\n        uint anotherAmount;\r\n\r\n        if(token0 == firstToken){\r\n            uint firstTokenPrice = getPrice(token0, token1, tokenFee);\r\n            adjustedAmount = amount1.mul(firstTokenPrice).div(1 ether);\r\n            anotherAmount = amount0;\r\n        }else{\r\n            uint firstTokenPrice = getPrice(token1, token0, tokenFee);\r\n            adjustedAmount = amount0.mul(firstTokenPrice).div(1 ether);\r\n            anotherAmount = amount1;\r\n        }\r\n\r\n        if(anotherAmount > adjustedAmount){\r\n            return adjustedAmount;\r\n        }else{\r\n            return anotherAmount;\r\n        }\r\n    }\r\n\r\n    function getPrice(address firstToken, address secondToken, uint24 poolFee) public view returns (uint) {\r\n        return OracleLibrary.getQuoteAtTick(\r\n            getLatestTick(firstToken, secondToken, poolFee), 1 ether, secondToken, firstToken\r\n        );\r\n    }\r\n\r\n}",
  "sourcePath": "D:\\JavascriptProjects\\crypto-index\\contracts\\indices\\ethIndex\\PriceOracle.sol",
  "compiler": {
    "name": "solc",
    "version": "0.7.6+commit.7338295f.Emscripten.clang"
  },
  "schemaVersion": "3.4.7",
  "updatedAt": "2022-06-21T14:42:48.578Z",
  "devdoc": {
    "kind": "dev",
    "methods": {},
    "version": 1
  },
  "userdoc": {
    "kind": "user",
    "methods": {},
    "version": 1
  }
}