{
  "contractName": "PriceConsumerV3",
  "abi": [
    {
      "inputs": [
        {
          "internalType": "address",
          "name": "priceFeedAddress",
          "type": "address"
        }
      ],
      "stateMutability": "nonpayable",
      "type": "constructor"
    },
    {
      "inputs": [],
      "name": "getLatestPrice",
      "outputs": [
        {
          "internalType": "int256",
          "name": "",
          "type": "int256"
        }
      ],
      "stateMutability": "view",
      "type": "function"
    }
  ],
  "bytecode": "0x608060405234801561001057600080fd5b5060405161025638038061025683398101604081905261002f91610054565b60008054600160a060020a031916600160a060020a0392909216919091179055610082565b600060208284031215610065578081fd5b8151600160a060020a038116811461007b578182fd5b9392505050565b6101c5806100916000396000f3fe608060405234801561001057600080fd5b5060043610610047577c010000000000000000000000000000000000000000000000000000000060003504638e15f473811461004c575b600080fd5b61005461006a565b6040516100619190610186565b60405180910390f35b60008054604080517ffeaf968c0000000000000000000000000000000000000000000000000000000081529051839273ffffffffffffffffffffffffffffffffffffffff169163feaf968c9160048083019260a0929190829003018186803b1580156100d557600080fd5b505afa1580156100e9573d6000803e3d6000fd5b505050506040513d601f19601f8201168201806040525081019061010d9190610137565b509194505050505090565b805169ffffffffffffffffffff8116811461013257600080fd5b919050565b600080600080600060a0868803121561014e578081fd5b61015786610118565b945060208601519350604086015192506060860151915061017a60808701610118565b90509295509295909350565b9081526020019056fea264697066735822122027254772ed2d32a1eb17f0aafff94d32fc9fc79ed9b9058953f096b48ad0847864736f6c63430008000033",
  "immutableReferences": {},
  "source": "// SPDX-License-Identifier: MIT\r\npragma solidity ^0.8.0;\r\nimport \"@chainlink/contracts/src/v0.8/interfaces/AggregatorV3Interface.sol\";\r\n\r\n\r\ncontract PriceConsumerV3 {\r\n\r\n    AggregatorV3Interface internal priceFeed;\r\n\r\n    constructor(address priceFeedAddress) {\r\n        priceFeed = AggregatorV3Interface(priceFeedAddress);\r\n    }\r\n\r\n    function getLatestPrice() public view returns (int256) {\r\n        (, int256 price, , ,) = priceFeed.latestRoundData();\r\n        return price;\r\n    }\r\n}",
  "sourcePath": "F:\\JavascriptProjects\\crypto-index\\contracts\\PriceProtocol.sol",
  "compiler": {
    "name": "solc",
    "version": "0.8.0+commit.c7dfd78e.Linux.g++"
  },
  "schemaVersion": "3.4.3",
  "updatedAt": "2022-02-28T15:11:19.915Z",
  "devdoc": {
    "kind": "dev",
    "methods": {},
    "version": 1
  },
  "userdoc": {
    "kind": "user",
    "methods": {},
    "version": 1
  }
}