{
  "contractName": "PriceOracle",
  "abi": [
    {
      "inputs": [
        {
          "internalType": "address",
          "name": "priceAggregatorAddress",
          "type": "address"
        }
      ],
      "name": "getPrice",
      "outputs": [
        {
          "internalType": "uint256",
          "name": "",
          "type": "uint256"
        }
      ],
      "stateMutability": "view",
      "type": "function"
    }
  ],
  "bytecode": "0x608060405234801561001057600080fd5b5061017f806100206000396000f3fe608060405234801561001057600080fd5b506004361061002b5760003560e01c806341976e0914610030575b600080fd5b6100726004803603602081101561004657600080fd5b81019080803573ffffffffffffffffffffffffffffffffffffffff169060200190929190505050610088565b6040518082815260200191505060405180910390f35b60008082905060008173ffffffffffffffffffffffffffffffffffffffff1663feaf968c6040518163ffffffff1660e01b815260040160a06040518083038186803b1580156100d657600080fd5b505afa1580156100ea573d6000803e3d6000fd5b505050506040513d60a081101561010057600080fd5b810190808051906020019092919080519060200190929190805190602001909291908051906020019092919080519060200190929190505050505050915050809250505091905056fea264697066735822122091a6a7ae0028a114ff99e2284684fef05858df73df43f8e3873d1c9aeb3ae50664736f6c63430007050033",
  "immutableReferences": {},
  "source": "// SPDX-License-Identifier: MIT\r\npragma solidity >=0.7.5;\r\n\r\nimport \"@chainlink/contracts/src/v0.7/interfaces/AggregatorV3Interface.sol\";\r\n\r\n\r\ncontract PriceOracle {\r\n\r\n    function getPrice(address priceAggregatorAddress) external view returns (uint) {\r\n        AggregatorV3Interface aggregator = AggregatorV3Interface(priceAggregatorAddress);\r\n        (, int price,,,) = aggregator.latestRoundData();\r\n        return uint(price);\r\n    }\r\n\r\n}",
  "sourcePath": "F:\\JavascriptProjects\\crypto-index\\contracts\\PriceOracle.sol",
  "compiler": {
    "name": "solc",
    "version": "0.7.5+commit.eb77ed08.Linux.g++"
  },
  "schemaVersion": "3.4.3",
  "updatedAt": "2022-03-23T19:10:04.761Z",
  "devdoc": {
    "kind": "dev",
    "methods": {},
    "version": 1
  },
  "userdoc": {
    "kind": "user",
    "methods": {},
    "version": 1
  }
}