{
  "contractName": "PriceOracle",
  "abi": [
    {
      "inputs": [
        {
          "internalType": "address",
          "name": "uniswapFactoryAddress",
          "type": "address"
        }
      ],
      "stateMutability": "nonpayable",
      "type": "constructor"
    },
    {
      "inputs": [
        {
          "internalType": "address",
          "name": "tokenIn",
          "type": "address"
        },
        {
          "internalType": "address",
          "name": "tokenOut",
          "type": "address"
        },
        {
          "internalType": "uint24",
          "name": "poolFee",
          "type": "uint24"
        }
      ],
      "name": "getPrice",
      "outputs": [
        {
          "internalType": "uint256",
          "name": "",
          "type": "uint256"
        }
      ],
      "stateMutability": "view",
      "type": "function"
    }
  ],
  "bytecode": "0x608060405234801561001057600080fd5b506040516106863803806106868339818101604052810190610032919061008e565b80600160006101000a81548173ffffffffffffffffffffffffffffffffffffffff021916908373ffffffffffffffffffffffffffffffffffffffff16021790555050610100565b600081519050610088816100e9565b92915050565b6000602082840312156100a057600080fd5b60006100ae84828501610079565b91505092915050565b60006100c2826100c9565b9050919050565b600073ffffffffffffffffffffffffffffffffffffffff82169050919050565b6100f2816100b7565b81146100fd57600080fd5b50565b6105778061010f6000396000f3fe608060405234801561001057600080fd5b506004361061002b5760003560e01c80634613d13514610030575b600080fd5b61004a600480360381019061004591906102b5565b610060565b6040516100579190610406565b60405180910390f35b600080600160009054906101000a900473ffffffffffffffffffffffffffffffffffffffff1673ffffffffffffffffffffffffffffffffffffffff16631698ee828686866040518463ffffffff1660e01b81526004016100c2939291906103cf565b60206040518083038186803b1580156100da57600080fd5b505afa1580156100ee573d6000803e3d6000fd5b505050506040513d601f19601f82011682018060405250810190610112919061028c565b905060008173ffffffffffffffffffffffffffffffffffffffff16633850c7bd6040518163ffffffff1660e01b815260040160e06040518083038186803b15801561015c57600080fd5b505afa158015610170573d6000803e3d6000fd5b505050506040513d601f19601f820116820180604052508101906101949190610304565b505050505050905060c0670de0b6b3a76400008273ffffffffffffffffffffffffffffffffffffffff16028273ffffffffffffffffffffffffffffffffffffffff1602901c925050509392505050565b6000813590506101f3816104a0565b92915050565b600081519050610208816104a0565b92915050565b60008151905061021d816104b7565b92915050565b600081519050610232816104ce565b92915050565b600081519050610247816104fc565b92915050565b60008151905061025c816104e5565b92915050565b60008135905061027181610513565b92915050565b6000815190506102868161052a565b92915050565b60006020828403121561029e57600080fd5b60006102ac848285016101f9565b91505092915050565b6000806000606084860312156102ca57600080fd5b60006102d8868287016101e4565b93505060206102e9868287016101e4565b92505060406102fa86828701610262565b9150509250925092565b600080600080600080600060e0888a03121561031f57600080fd5b600061032d8a828b01610238565b975050602061033e8a828b01610223565b965050604061034f8a828b0161024d565b95505060606103608a828b0161024d565b94505060806103718a828b0161024d565b93505060a06103828a828b01610277565b92505060c06103938a828b0161020e565b91505092959891949750929550565b6103ab81610421565b82525050565b6103ba8161047a565b82525050565b6103c981610489565b82525050565b60006060820190506103e460008301866103a2565b6103f160208301856103a2565b6103fe60408301846103b1565b949350505050565b600060208201905061041b60008301846103c0565b92915050565b600061042c8261045a565b9050919050565b60008115159050919050565b60008160020b9050919050565b600061ffff82169050919050565b600073ffffffffffffffffffffffffffffffffffffffff82169050919050565b600062ffffff82169050919050565b6000819050919050565b600060ff82169050919050565b6104a981610421565b81146104b457600080fd5b50565b6104c081610433565b81146104cb57600080fd5b50565b6104d78161043f565b81146104e257600080fd5b50565b6104ee8161044c565b81146104f957600080fd5b50565b6105058161045a565b811461051057600080fd5b50565b61051c8161047a565b811461052757600080fd5b50565b61053381610493565b811461053e57600080fd5b5056fea26469706673582212200801bce7f4b6a7ad80db586aaacfad25b02c550fd1f6138482746f43bb23a3a264736f6c63430007050033",
  "immutableReferences": {},
  "source": "// SPDX-License-Identifier: MIT\r\npragma solidity >=0.7.5;\r\npragma abicoder v2;\r\n\r\nimport \"@uniswap/v3-core/contracts/interfaces/IUniswapV3Pool.sol\";\r\nimport \"@uniswap/v3-core/contracts/interfaces/IUniswapV3Factory.sol\";\r\nimport '@uniswap/v3-core/contracts/libraries/TickMath.sol';\r\n\r\n\r\ncontract PriceOracle {\r\n    address private uniswapV3PoolAddress;\r\n    IUniswapV3Factory private factory;  // 0x1F98431c8aD98523631AE4a59f267346ea31F984\r\n\r\n    constructor(address uniswapFactoryAddress) {\r\n        factory = IUniswapV3Factory(uniswapFactoryAddress);\r\n    }\r\n\r\n    function getPrice(address tokenIn, address tokenOut, uint24 poolFee) external view returns (uint) {\r\n        IUniswapV3Pool pool = IUniswapV3Pool(factory.getPool(tokenIn, tokenOut, poolFee));\r\n        ( uint160 sqrtPriceX96,,,,,, ) =  pool.slot0();\r\n        return uint(sqrtPriceX96) * (uint(sqrtPriceX96) * 1e18) >> (96 * 2);\r\n    }\r\n\r\n}",
  "sourcePath": "F:\\JavascriptProjects\\crypto-index\\contracts\\PriceProtocol.sol",
  "compiler": {
    "name": "solc",
    "version": "0.7.5+commit.eb77ed08.Linux.g++"
  },
  "schemaVersion": "3.4.3",
  "updatedAt": "2022-03-10T17:25:54.342Z",
  "devdoc": {
    "kind": "dev",
    "methods": {},
    "version": 1
  },
  "userdoc": {
    "kind": "user",
    "methods": {},
    "version": 1
  }
}