{
  "contractName": "PriceOracle",
  "abi": [
    {
      "inputs": [],
      "stateMutability": "nonpayable",
      "type": "constructor"
    },
    {
      "inputs": [
        {
          "internalType": "address",
          "name": "secondToken",
          "type": "address"
        },
        {
          "internalType": "uint24",
          "name": "poolFee",
          "type": "uint24"
        }
      ],
      "name": "getPrice2",
      "outputs": [
        {
          "internalType": "uint256",
          "name": "",
          "type": "uint256"
        }
      ],
      "stateMutability": "view",
      "type": "function"
    },
    {
      "inputs": [
        {
          "internalType": "address",
          "name": "a",
          "type": "address"
        }
      ],
      "name": "getPrice",
      "outputs": [
        {
          "internalType": "uint256",
          "name": "",
          "type": "uint256"
        }
      ],
      "stateMutability": "pure",
      "type": "function"
    }
  ],
  "bytecode": "0x608060405234801561001057600080fd5b50731f98431c8ad98523631ae4a59f267346ea31f9846000806101000a81548173ffffffffffffffffffffffffffffffffffffffff021916908373ffffffffffffffffffffffffffffffffffffffff160217905550736b175474e89094c44da98b954eedeac495271d0f600160006101000a81548173ffffffffffffffffffffffffffffffffffffffff021916908373ffffffffffffffffffffffffffffffffffffffff160217905550610cac806100c96000396000f3fe608060405234801561001057600080fd5b50600436106100365760003560e01c8063282be0c41461003b57806341976e09146100a2575b600080fd5b61008c6004803603604081101561005157600080fd5b81019080803573ffffffffffffffffffffffffffffffffffffffff169060200190929190803562ffffff1690602001909291905050506100fa565b6040518082815260200191505060405180910390f35b6100e4600480360360208110156100b857600080fd5b81019080803573ffffffffffffffffffffffffffffffffffffffff169060200190929190505050610700565b6040518082815260200191505060405180910390f35b60008060008054906101000a900473ffffffffffffffffffffffffffffffffffffffff1673ffffffffffffffffffffffffffffffffffffffff16631698ee82600160009054906101000a900473ffffffffffffffffffffffffffffffffffffffff1686866040518463ffffffff1660e01b8152600401808473ffffffffffffffffffffffffffffffffffffffff1681526020018373ffffffffffffffffffffffffffffffffffffffff1681526020018262ffffff168152602001935050505060206040518083038186803b1580156101d157600080fd5b505afa1580156101e5573d6000803e3d6000fd5b505050506040513d60208110156101fb57600080fd5b810190808051906020019092919050505090506000600267ffffffffffffffff8111801561022857600080fd5b506040519080825280602002602001820160405280156102575781602001602082028036833780820191505090505b50905060018160008151811061026957fe5b602002602001019063ffffffff16908163ffffffff168152505060008160018151811061029257fe5b602002602001019063ffffffff16908163ffffffff168152505060008273ffffffffffffffffffffffffffffffffffffffff1663883bdbfd836040518263ffffffff1660e01b81526004018080602001828103825283818151815260200191508051906020019060200280838360005b8381101561031d578082015181840152602081019050610302565b505050509050019250505060006040518083038186803b15801561034057600080fd5b505afa158015610354573d6000803e3d6000fd5b505050506040513d6000823e3d601f19601f82011682018060405250604081101561037e57600080fd5b810190808051604051939291908464010000000082111561039e57600080fd5b838201915060208201858111156103b457600080fd5b82518660208202830111640100000000821117156103d157600080fd5b8083526020830192505050908051906020019060200280838360005b838110156104085780820151818401526020810190506103ed565b505050509050016040526020018051604051939291908464010000000082111561043157600080fd5b8382019150602082018581111561044757600080fd5b825186602082028301116401000000008211171561046457600080fd5b8083526020830192505050908051906020019060200280838360005b8381101561049b578082015181840152602081019050610480565b505050509050016040525050505090506000816000815181106104ba57fe5b6020026020010151826001815181106104cf57fe5b60200260200101510390506000836001815181106104e957fe5b6020026020010151846000815181106104fe57fe5b60200260200101510363ffffffff16905060008160000360060b8360060b8161052357fe5b05905060008673ffffffffffffffffffffffffffffffffffffffff16630dfe16816040518163ffffffff1660e01b815260040160206040518083038186803b15801561056e57600080fd5b505afa158015610582573d6000803e3d6000fd5b505050506040513d602081101561059857600080fd5b810190808051906020019092919050505073ffffffffffffffffffffffffffffffffffffffff1663313ce5676040518163ffffffff1660e01b815260040160206040518083038186803b1580156105ee57600080fd5b505afa158015610602573d6000803e3d6000fd5b505050506040513d602081101561061857600080fd5b8101908080519060200190929190505050905060006106368361070b565b905060008173ffffffffffffffffffffffffffffffffffffffff168273ffffffffffffffffffffffffffffffffffffffff160290506106ef78010000000000000000000000000000000000000000000000006106e1670de0b6b3a76400006106d38673ffffffffffffffffffffffffffffffffffffffff168773ffffffffffffffffffffffffffffffffffffffff16610b4690919063ffffffff16565b610b4690919063ffffffff16565b610bcc90919063ffffffff16565b995050505050505050505092915050565b600060649050919050565b60008060008360020b12610722578260020b61072a565b8260020b6000035b90507ffffffffffffffffffffffffffffffffffffffffffffffffffffffffffff2761860000360020b8111156107c8576040517f08c379a00000000000000000000000000000000000000000000000000000000081526004018080602001828103825260018152602001807f540000000000000000000000000000000000000000000000000000000000000081525060200191505060405180910390fd5b6000806001831614156107ec577001000000000000000000000000000000006107fe565b6ffffcb933bd6fad37aa2d162d1a5940015b70ffffffffffffffffffffffffffffffffff169050600060028316146108385760806ffff97272373d413259a46990580e213a8202901c90505b6000600483161461085d5760806ffff2e50f5f656932ef12357cf3c7fdcc8202901c90505b600060088316146108825760806fffe5caca7e10e4e61c3624eaa0941cd08202901c90505b600060108316146108a75760806fffcb9843d60f6159c9db58835c9266448202901c90505b600060208316146108cc5760806fff973b41fa98c081472e6896dfb254c08202901c90505b600060408316146108f15760806fff2ea16466c96a3843ec78b326b528618202901c90505b600060808316146109165760806ffe5dee046a99a2a811c461f1969c30538202901c90505b600061010083161461093c5760806ffcbe86c7900a88aedcffc83b479aa3a48202901c90505b60006102008316146109625760806ff987a7253ac413176f2b074cf7815e548202901c90505b60006104008316146109885760806ff3392b0822b70005940c7a398e4b70f38202901c90505b60006108008316146109ae5760806fe7159475a2c29b7443b29c7fa6e889d98202901c90505b60006110008316146109d45760806fd097f3bdfd2022b8845ad8f792aa58258202901c90505b60006120008316146109fa5760806fa9f746462d870fdf8a65dc1f90e061e58202901c90505b6000614000831614610a205760806f70d869a156d2a1b890bb3df62baf32f78202901c90505b6000618000831614610a465760806f31be135f97d08fd981231505542fcfa68202901c90505b600062010000831614610a6d5760806f09aa508b5b7a84e1c677de54f3e99bc98202901c90505b600062020000831614610a935760806e5d6af8dedb81196699c329225ee6048202901c90505b600062040000831614610ab85760806d2216e584f5fa1ea926041bedfe988202901c90505b600062080000831614610adb5760806b048a170391f7dc42444e8fa28202901c90505b60008460020b1315610b1457807fffffffffffffffffffffffffffffffffffffffffffffffffffffffffffffffff81610b1057fe5b0490505b60006401000000008281610b2457fe5b0614610b31576001610b34565b60005b60ff16602082901c0192505050919050565b600080831415610b595760009050610bc6565b6000828402905082848281610b6a57fe5b0414610bc1576040517f08c379a0000000000000000000000000000000000000000000000000000000008152600401808060200182810382526021815260200180610c566021913960400191505060405180910390fd5b809150505b92915050565b6000808211610c43576040517f08c379a000000000000000000000000000000000000000000000000000000000815260040180806020018281038252601a8152602001807f536166654d6174683a206469766973696f6e206279207a65726f00000000000081525060200191505060405180910390fd5b818381610c4c57fe5b0490509291505056fe536166654d6174683a206d756c7469706c69636174696f6e206f766572666c6f77a2646970667358221220b07b892c07b9c47c6919ea0bef664e652fcfe016547ee73fb877395cf135517664736f6c63430007060033",
  "immutableReferences": {},
  "source": "// // SPDX-License-Identifier: MIT\r\n// pragma solidity 0.7.6;\r\n// \r\n// import \"@chainlink/contracts/src/v0.7/interfaces/AggregatorV3Interface.sol\";\r\n// import \"@uniswap/v3\r\n// import \"@openzeppelin/contracts/math/SafeMath.sol\";\r\n// \r\n// \r\n// contract PriceOracle {\r\n//     using SafeMath for uint256;\r\n// \r\n//     function getPrice(address priceAggregatorAddress) external view returns (uint) {\r\n//         AggregatorV3Interface aggregator = AggregatorV3Interface(priceAggregatorAddress);\r\n//         (, int price,,,) = aggregator.latestRoundData();\r\n//         return uint256(price).mul(10000000000);\r\n//     }\r\n// \r\n// }\r\n\r\n\r\n// SPDX-License-Identifier: MIT\r\npragma solidity 0.7.6;\r\n\r\nimport \"@uniswap/v3-core/contracts/interfaces/IUniswapV3Pool.sol\";\r\nimport '@uniswap/v3-core/contracts/libraries/TickMath.sol';\r\nimport \"@uniswap/v3-core/contracts/interfaces/IUniswapV3Factory.sol\";\r\nimport \"@uniswap/v3-periphery/contracts/interfaces/IQuoterV2.sol\";\r\nimport \"@uniswap/v3-core/contracts/libraries/FixedPoint96.sol\";\r\nimport \"@uniswap/v3-core/contracts/libraries/FullMath.sol\";\r\nimport \"@openzeppelin/contracts/token/ERC20/ERC20.sol\";\r\nimport \"@openzeppelin/contracts/math/SafeMath.sol\";\r\n\r\n\r\ncontract PriceOracle {\r\n    using SafeMath for uint256;\r\n    IUniswapV3Factory private factory;\r\n    address baseToken;\r\n\r\n    constructor(){\r\n        factory = IUniswapV3Factory(0x1F98431c8aD98523631AE4a59f267346ea31F984);\r\n        baseToken = 0x6B175474E89094C44Da98b954EedeAC495271d0F;\r\n    }\r\n\r\n    function getPrice2(address secondToken, uint24 poolFee) external view returns (uint) {\r\n        IUniswapV3Pool uniswapv3Pool = IUniswapV3Pool(factory.getPool(baseToken, secondToken, poolFee));\r\n        // (uint sqrtPriceX96, , , , , , ) = uniswapv3Pool.slot0();\r\n        \r\n        uint32[] memory secondAgos = new uint32[](2);\r\n        secondAgos[0] = 1;\r\n        secondAgos[1] = 0;\r\n\r\n        (int56[] memory tickCumulatives, ) = uniswapv3Pool.observe(secondAgos);\r\n\r\n        int56 tickCumulativesDiff = tickCumulatives[1] - tickCumulatives[0];\r\n        uint56 period = uint56(secondAgos[0]-secondAgos[1]);\r\n\r\n        int56 timeWeightedAverageTick = (tickCumulativesDiff / -int56(period));\r\n\r\n        uint8 decimalToken0 = ERC20(uniswapv3Pool.token0()).decimals();\r\n        uint160 sqrtRatioX96 = TickMath.getSqrtRatioAtTick(int24(timeWeightedAverageTick));\r\n        uint256 ratioX192 = uint256(sqrtRatioX96) * sqrtRatioX96;\r\n\r\n        // sqrtRatioX96 ** 2 / 2 ** 192 = price\r\n        return uint(sqrtRatioX96).mul(uint(sqrtRatioX96)).mul(1 ether).div(2 ** 192);\r\n    }\r\n\r\n    function getPrice(address a) pure public returns(uint){ return 100; }\r\n}",
  "sourcePath": "D:\\JavascriptProjects\\crypto-index\\contracts\\indices\\PriceOracle.sol",
  "compiler": {
    "name": "solc",
    "version": "0.7.6+commit.7338295f.Emscripten.clang"
  },
  "schemaVersion": "3.4.6",
  "updatedAt": "2022-05-25T14:02:05.907Z",
  "devdoc": {
    "kind": "dev",
    "methods": {},
    "version": 1
  },
  "userdoc": {
    "kind": "user",
    "methods": {},
    "version": 1
  }
}