{
  "contractName": "UniswapV3Oracle",
  "abi": [
    {
      "inputs": [
        {
          "internalType": "address",
          "name": "pool",
          "type": "address"
        }
      ],
      "stateMutability": "nonpayable",
      "type": "constructor"
    },
    {
      "inputs": [],
      "name": "getPrice",
      "outputs": [
        {
          "internalType": "uint32",
          "name": "",
          "type": "uint32"
        }
      ],
      "stateMutability": "view",
      "type": "function"
    }
  ],
  "bytecode": "0x608060405234801561001057600080fd5b506040516107dd3803806107dd83398101604081905261002f91610054565b600080546001600160a01b0319166001600160a01b0392909216919091179055610082565b600060208284031215610065578081fd5b81516001600160a01b038116811461007b578182fd5b9392505050565b61074c806100916000396000f3fe608060405234801561001057600080fd5b506004361061002b5760003560e01c806398d5fdca14610030575b600080fd5b61003861004e565b60405161004591906106c3565b60405180910390f35b60008054604080516002808252606080830184526001600160a01b03909416939260208301908036833701905050905060018160008151811061008d57fe5b602002602001019063ffffffff16908163ffffffff16815250506000816001815181106100b657fe5b63ffffffff9092166020928302919091019091015260405163883bdbfd60e01b81526060906001600160a01b0384169063883bdbfd906100fa908590600401610679565b60006040518083038186803b15801561011257600080fd5b505afa158015610126573d6000803e3d6000fd5b505050506040513d6000823e601f3d908101601f1916820160405261014e91908101906105b1565b50905060008160008151811061016057fe5b60200260200101518260018151811061017557fe5b602002602001015103905060008360018151811061018f57fe5b6020026020010151846000815181106101a457fe5b60200260200101510363ffffffff16905060008160000360060b8360060b816101c957fe5b05905060006101d7826101fb565b6001600160a01b03168002670de0b6b3a76400000260c01c98975050505050505050565b60008060008360020b12610212578260020b61021a565b8260020b6000035b9050620d89e8811115610258576040805162461bcd60e51b81526020600482015260016024820152601560fa1b604482015290519081900360640190fd5b60006001821661026c57600160801b61027e565b6ffffcb933bd6fad37aa2d162d1a5940015b70ffffffffffffffffffffffffffffffffff16905060028216156102b2576ffff97272373d413259a46990580e213a0260801c5b60048216156102d1576ffff2e50f5f656932ef12357cf3c7fdcc0260801c5b60088216156102f0576fffe5caca7e10e4e61c3624eaa0941cd00260801c5b601082161561030f576fffcb9843d60f6159c9db58835c9266440260801c5b602082161561032e576fff973b41fa98c081472e6896dfb254c00260801c5b604082161561034d576fff2ea16466c96a3843ec78b326b528610260801c5b608082161561036c576ffe5dee046a99a2a811c461f1969c30530260801c5b61010082161561038c576ffcbe86c7900a88aedcffc83b479aa3a40260801c5b6102008216156103ac576ff987a7253ac413176f2b074cf7815e540260801c5b6104008216156103cc576ff3392b0822b70005940c7a398e4b70f30260801c5b6108008216156103ec576fe7159475a2c29b7443b29c7fa6e889d90260801c5b61100082161561040c576fd097f3bdfd2022b8845ad8f792aa58250260801c5b61200082161561042c576fa9f746462d870fdf8a65dc1f90e061e50260801c5b61400082161561044c576f70d869a156d2a1b890bb3df62baf32f70260801c5b61800082161561046c576f31be135f97d08fd981231505542fcfa60260801c5b6201000082161561048d576f09aa508b5b7a84e1c677de54f3e99bc90260801c5b620200008216156104ad576e5d6af8dedb81196699c329225ee6040260801c5b620400008216156104cc576d2216e584f5fa1ea926041bedfe980260801c5b620800008216156104e9576b048a170391f7dc42444e8fa20260801c5b60008460020b131561050457806000198161050057fe5b0490505b64010000000081061561051857600161051b565b60005b60ff16602082901c0192505050919050565b600082601f83011261053d578081fd5b815161055061054b826106f8565b6106d4565b81815291506020808301908481018184028601820187101561057157600080fd5b6000805b858110156105a55782516001600160a01b0381168114610593578283fd5b85529383019391830191600101610575565b50505050505092915050565b600080604083850312156105c3578182fd5b825167ffffffffffffffff808211156105da578384fd5b818501915085601f8301126105ed578384fd5b81516105fb61054b826106f8565b80828252602080830192508086018a82838702890101111561061b578889fd5b8896505b8487101561064b5780518060060b811461063757898afd5b84526001969096019592810192810161061f565b508801519096509350505080821115610662578283fd5b5061066f8582860161052d565b9150509250929050565b6020808252825182820181905260009190848201906040850190845b818110156106b757835163ffffffff1683529284019291840191600101610695565b50909695505050505050565b63ffffffff91909116815260200190565b60405181810167ffffffffffffffff811182821017156106f057fe5b604052919050565b600067ffffffffffffffff82111561070c57fe5b506020908102019056fea26469706673582212201269684f24193ed2e1ec81f5383ded72beea9922d4cb9a1ae2d19941b835f1e364736f6c63430007050033",
  "immutableReferences": {},
  "source": "// SPDX-License-Identifier: MIT\r\npragma solidity >=0.7.5;\r\npragma abicoder v2;\r\n\r\nimport \"@uniswap/v3-core/contracts/interfaces/IUniswapV3Pool.sol\";\r\nimport '@uniswap/v3-core/contracts/libraries/TickMath.sol';\r\n\r\n\r\ncontract UniswapV3Oracle {\r\n    address private uniswapV3PoolAddress;\r\n    uint24 private twapDurationInSeconds;\r\n\r\n    constructor(address pool) {\r\n        uniswapV3PoolAddress = address(pool);\r\n    }\r\n\r\n    function getPrice() public view returns(uint32) {\r\n        IUniswapV3Pool uniswapv3Pool = IUniswapV3Pool(uniswapV3PoolAddress);\r\n\r\n        uint32[] memory secondAgos = new uint32[](2);\r\n        secondAgos[0] = 1;\r\n        secondAgos[1] = 0;\r\n\r\n        (int56[] memory tickCumulatives, ) = uniswapv3Pool.observe(secondAgos);\r\n\r\n        int56 tickCumulativesDiff = tickCumulatives[1] - tickCumulatives[0];\r\n        uint56 period = uint56(secondAgos[0] - secondAgos[1]);\r\n        int56 timeWeightedAverageTick = (tickCumulativesDiff / -int56(period));\r\n        uint160 sqrtRatioX96 = TickMath.getSqrtRatioAtTick(int24(timeWeightedAverageTick));\r\n        uint256 ratioX192 = uint256(sqrtRatioX96) * sqrtRatioX96;\r\n        return uint32((ratioX192 * 1e18) >> (96 * 2));\r\n    }\r\n}",
  "sourcePath": "F:\\JavascriptProjects\\crypto-index\\contracts\\PriceProtocol.sol",
  "compiler": {
    "name": "solc",
    "version": "0.7.5+commit.eb77ed08.Linux.g++"
  },
  "schemaVersion": "3.4.3",
  "updatedAt": "2022-03-08T16:47:05.543Z",
  "devdoc": {
    "kind": "dev",
    "methods": {},
    "version": 1
  },
  "userdoc": {
    "kind": "user",
    "methods": {},
    "version": 1
  }
}