{
  "contractName": "UniswapV3Oracle",
  "abi": [
    {
      "inputs": [
        {
          "internalType": "address",
          "name": "pool",
          "type": "address"
        }
      ],
      "stateMutability": "nonpayable",
      "type": "constructor"
    },
    {
      "inputs": [],
      "name": "getPrice",
      "outputs": [
        {
          "internalType": "uint160",
          "name": "",
          "type": "uint160"
        }
      ],
      "stateMutability": "view",
      "type": "function"
    }
  ],
  "bytecode": "0x608060405234801561001057600080fd5b506040516105d93803806105d983398101604081905261002f91610054565b600080546001600160a01b0319166001600160a01b0392909216919091179055610082565b600060208284031215610065578081fd5b81516001600160a01b038116811461007b578182fd5b9392505050565b610548806100916000396000f3fe608060405234801561001057600080fd5b506004361061002b5760003560e01c806398d5fdca14610030575b600080fd5b61003861004e565b60405161004591906104fe565b60405180910390f35b6000805460408051633850c7bd60e01b8152905183926001600160a01b031691633850c7bd9160048083019260e0929190829003018186803b15801561009357600080fd5b505afa1580156100a7573d6000803e3d6000fd5b505050506040513d601f19601f820116820180604052508101906100cb919061045c565b505050505050905060006100de82610103565b6001600160a01b03168002670de0b6b3a76400000260c01c63ffffffff169392505050565b60008060008360020b1261011a578260020b610122565b8260020b6000035b9050620d89e8811115610160576040805162461bcd60e51b81526020600482015260016024820152601560fa1b604482015290519081900360640190fd5b60006001821661017457600160801b610186565b6ffffcb933bd6fad37aa2d162d1a5940015b70ffffffffffffffffffffffffffffffffff16905060028216156101ba576ffff97272373d413259a46990580e213a0260801c5b60048216156101d9576ffff2e50f5f656932ef12357cf3c7fdcc0260801c5b60088216156101f8576fffe5caca7e10e4e61c3624eaa0941cd00260801c5b6010821615610217576fffcb9843d60f6159c9db58835c9266440260801c5b6020821615610236576fff973b41fa98c081472e6896dfb254c00260801c5b6040821615610255576fff2ea16466c96a3843ec78b326b528610260801c5b6080821615610274576ffe5dee046a99a2a811c461f1969c30530260801c5b610100821615610294576ffcbe86c7900a88aedcffc83b479aa3a40260801c5b6102008216156102b4576ff987a7253ac413176f2b074cf7815e540260801c5b6104008216156102d4576ff3392b0822b70005940c7a398e4b70f30260801c5b6108008216156102f4576fe7159475a2c29b7443b29c7fa6e889d90260801c5b611000821615610314576fd097f3bdfd2022b8845ad8f792aa58250260801c5b612000821615610334576fa9f746462d870fdf8a65dc1f90e061e50260801c5b614000821615610354576f70d869a156d2a1b890bb3df62baf32f70260801c5b618000821615610374576f31be135f97d08fd981231505542fcfa60260801c5b62010000821615610395576f09aa508b5b7a84e1c677de54f3e99bc90260801c5b620200008216156103b5576e5d6af8dedb81196699c329225ee6040260801c5b620400008216156103d4576d2216e584f5fa1ea926041bedfe980260801c5b620800008216156103f1576b048a170391f7dc42444e8fa20260801c5b60008460020b131561040c57806000198161040857fe5b0490505b640100000000810615610420576001610423565b60005b60ff16602082901c0192505050919050565b8051801515811461044557600080fd5b919050565b805161ffff8116811461044557600080fd5b600080600080600080600060e0888a031215610476578283fd5b87516001600160a01b038116811461048c578384fd5b8097505060208801518060020b81146104a3578384fd5b95506104b16040890161044a565b94506104bf6060890161044a565b93506104cd6080890161044a565b925060a088015160ff811681146104e2578283fd5b91506104f060c08901610435565b905092959891949750929550565b6001600160a01b039190911681526020019056fea26469706673582212209e43fc8046f2f34e4a3dd42ee111557491cf015f4e77415bb651d0c49969e9dd64736f6c63430007050033",
  "immutableReferences": {},
  "source": "// SPDX-License-Identifier: MIT\r\npragma solidity >=0.7.5;\r\npragma abicoder v2;\r\n\r\nimport \"@uniswap/v3-core/contracts/interfaces/IUniswapV3Pool.sol\";\r\nimport '@uniswap/v3-core/contracts/libraries/TickMath.sol';\r\nimport '@openzeppelin/contracts/token/ERC20/ERC20.sol';\r\n\r\n\r\ncontract UniswapV3Oracle {\r\n    address private uniswapV3PoolAddress;\r\n    uint24 private twapDurationInSeconds;\r\n\r\n    constructor(address pool) {\r\n        uniswapV3PoolAddress = address(pool);\r\n    }\r\n\r\n    function getPrice() public view returns(uint160) {\r\n        (uint160 sqrtPriceX96,,,,,,) = IUniswapV3Pool(uniswapV3PoolAddress).slot0();\r\n        uint160 sqrtRatioX96 = TickMath.getSqrtRatioAtTick(int24(sqrtPriceX96));\r\n        uint256 ratioX192 = uint256(sqrtRatioX96) * sqrtRatioX96;\r\n        uint32 price = uint32((ratioX192 * 1e18) >> (96 * 2));\r\n        return price;\r\n\r\n        // uint32[] memory secondAgos = new uint32[](2);\r\n        // secondAgos[0] = 1;\r\n        // secondAgos[1] = 0;\r\n// \r\n        // (int56[] memory tickCumulatives, ) = uniswapv3Pool.observe(secondAgos);\r\n// \r\n        // int56 tickCumulativesDiff = tickCumulatives[1] - tickCumulatives[0];\r\n        // uint56 period = uint56(secondAgos[0]-secondAgos[1]);\r\n// \r\n        // int56 timeWeightedAverageTick = (tickCumulativesDiff / -int56(period));\r\n// \r\n        // uint8 decimalToken0 = ERC20(uniswapv3Pool.token0()).decimals();\r\n// \r\n        // uint160 sqrtRatioX96 = TickMath.getSqrtRatioAtTick(int24(timeWeightedAverageTick));\r\n        // uint256 ratioX192 = uint256(sqrtRatioX96) * sqrtRatioX96;\r\n        // price = uint32((ratioX192 * 1e18) >> (96 * 2));\r\n        // decimalAdjFactor = uint32(10 ** (decimalToken0));\r\n    }\r\n}",
  "sourcePath": "F:\\JavascriptProjects\\crypto-index\\contracts\\PriceProtocol.sol",
  "compiler": {
    "name": "solc",
    "version": "0.7.5+commit.eb77ed08.Linux.g++"
  },
  "schemaVersion": "3.4.3",
  "updatedAt": "2022-03-08T16:00:52.526Z",
  "devdoc": {
    "kind": "dev",
    "methods": {},
    "version": 1
  },
  "userdoc": {
    "kind": "user",
    "methods": {},
    "version": 1
  }
}