{
  "contractName": "Uniswap3",
  "abi": [
    {
      "inputs": [],
      "name": "quoter",
      "outputs": [
        {
          "internalType": "contract IQuoter",
          "name": "",
          "type": "address"
        }
      ],
      "stateMutability": "view",
      "type": "function"
    },
    {
      "inputs": [],
      "name": "uniswapRouter",
      "outputs": [
        {
          "internalType": "contract IUniswapRouter",
          "name": "",
          "type": "address"
        }
      ],
      "stateMutability": "view",
      "type": "function"
    },
    {
      "stateMutability": "payable",
      "type": "receive"
    },
    {
      "inputs": [],
      "name": "convertExactEthToDai",
      "outputs": [],
      "stateMutability": "payable",
      "type": "function"
    },
    {
      "inputs": [
        {
          "internalType": "uint256",
          "name": "daiAmount",
          "type": "uint256"
        }
      ],
      "name": "convertEthToExactDai",
      "outputs": [],
      "stateMutability": "payable",
      "type": "function"
    },
    {
      "inputs": [
        {
          "internalType": "uint256",
          "name": "daiAmount",
          "type": "uint256"
        }
      ],
      "name": "getEstimatedETHforDAI",
      "outputs": [
        {
          "internalType": "uint256",
          "name": "",
          "type": "uint256"
        }
      ],
      "stateMutability": "payable",
      "type": "function"
    }
  ],
  "bytecode": "0x608060405234801561001057600080fd5b506108d4806100206000396000f3fe6080604052600436106100515760e060020a600035046341d53ee9811461005d578063735de9f7146100675780637ed3717f146100b9578063ada8b83d146100cc578063c6bbd5a7146100ed57600080fd5b3661005857005b600080fd5b610065610115565b005b34801561007357600080fd5b5061008f73e592427a0aece92de3edee1f18e0157c0586156481565b60405173ffffffffffffffffffffffffffffffffffffffff90911681526020015b60405180910390f35b6100656100c73660046107ac565b6103bf565b6100df6100da3660046107ac565b6106b6565b6040519081526020016100b0565b3480156100f957600080fd5b5061008f73b27308f9f90d607463bb33ea1bebb41c27ce5ab681565b6000341161016d5760405160e560020a62461bcd02815260206004820152601a60248201527f4d7573742070617373206e6f6e20302045544820616d6f756e7400000000000060448201526064015b60405180910390fd5b600061017a42600f61085f565b604080516101008101825273d0a1e359811322d97991e03f863a0c30c2cf029c808252734f96fe3b7a6cf9725f59d353f723c1bdb64ca6aa60208301819052610bb88385018190523360608501819052608085018790523460a08601819052600160c08701819052600060e0880181905297517f414bf389000000000000000000000000000000000000000000000000000000008152989950949793969295919490939092919073e592427a0aece92de3edee1f18e0157c058615649063414bf38990869061024d9085906004016107de565b6020604051808303818588803b15801561026657600080fd5b505af115801561027a573d6000803e3d6000fd5b50505050506040513d601f19601f8201168201806040525081019061029f91906107c5565b5073e592427a0aece92de3edee1f18e0157c0586156473ffffffffffffffffffffffffffffffffffffffff166312210e8a6040518163ffffffff1660e060020a028152600401600060405180830381600087803b1580156102ff57600080fd5b505af1158015610313573d6000803e3d6000fd5b5050604051600092503391503031908381818185875af1925050503d806000811461035a576040519150601f19603f3d011682016040523d82523d6000602084013e61035f565b606091505b50509050806103b35760405160e560020a62461bcd02815260206004820152600d60248201527f726566756e64206661696c6564000000000000000000000000000000000000006044820152606401610164565b50505050505050505050565b600081116104125760405160e560020a62461bcd02815260206004820152601a60248201527f4d7573742070617373206e6f6e20302044414920616d6f756e740000000000006044820152606401610164565b600034116104655760405160e560020a62461bcd02815260206004820152601a60248201527f4d7573742070617373206e6f6e20302045544820616d6f756e740000000000006044820152606401610164565b600061047242600f61085f565b604080516101008101825273d0a1e359811322d97991e03f863a0c30c2cf029c808252734f96fe3b7a6cf9725f59d353f723c1bdb64ca6aa60208301819052610bb883850181905233606085018190526080850187905260a085018990523460c08601819052600060e0870181905296517fdb3e2198000000000000000000000000000000000000000000000000000000008152979850939692959194909389939092919073e592427a0aece92de3edee1f18e0157c058615649063db3e21989085906105439085906004016107de565b6020604051808303818588803b15801561055c57600080fd5b505af1158015610570573d6000803e3d6000fd5b50505050506040513d601f19601f8201168201806040525081019061059591906107c5565b5073e592427a0aece92de3edee1f18e0157c0586156473ffffffffffffffffffffffffffffffffffffffff166312210e8a6040518163ffffffff1660e060020a028152600401600060405180830381600087803b1580156105f557600080fd5b505af1158015610609573d6000803e3d6000fd5b5050604051600092503391503031908381818185875af1925050503d8060008114610650576040519150601f19603f3d011682016040523d82523d6000602084013e610655565b606091505b50509050806106a95760405160e560020a62461bcd02815260206004820152600d60248201527f726566756e64206661696c6564000000000000000000000000000000000000006044820152606401610164565b5050505050505050505050565b6040517f30d07f2100000000000000000000000000000000000000000000000000000000815273d0a1e359811322d97991e03f863a0c30c2cf029c60048201819052734f96fe3b7a6cf9725f59d353f723c1bdb64ca6aa60248301819052610bb8604484018190526064840185905260006084850181905293849073b27308f9f90d607463bb33ea1bebb41c27ce5ab6906330d07f219060a401602060405180830381600087803b15801561076a57600080fd5b505af115801561077e573d6000803e3d6000fd5b505050506040513d601f19601f820116820180604052508101906107a291906107c5565b9695505050505050565b6000602082840312156107be57600080fd5b5035919050565b6000602082840312156107d757600080fd5b5051919050565b6101008101610859828473ffffffffffffffffffffffffffffffffffffffff80825116835280602083015116602084015262ffffff60408301511660408401528060608301511660608401526080820151608084015260a082015160a084015260c082015160c08401528060e08301511660e0840152505050565b92915050565b60008219821115610899577f4e487b7100000000000000000000000000000000000000000000000000000000600052601160045260246000fd5b50019056fea264697066735822122034a05617ee5824e79b1d2789e611856e592b830e18d63eefa2dd50a7dee8567264736f6c63430008070033",
  "immutableReferences": {},
  "source": "// SPDX-License-Identifier: MIT\r\npragma solidity ^0.8.7;\r\npragma abicoder v2;\r\n\r\nimport \"@uniswap/v3-periphery/contracts/interfaces/ISwapRouter.sol\";\r\nimport \"@uniswap/v3-periphery/contracts/interfaces/IQuoter.sol\";\r\n\r\n\r\ninterface IUniswapRouter is ISwapRouter {\r\n    function refundETH() external payable;\r\n}\r\n\r\ncontract Uniswap3 {\r\n  IUniswapRouter public constant uniswapRouter = IUniswapRouter(0xE592427A0AEce92De3Edee1F18E0157C05861564);\r\n  IQuoter public constant quoter = IQuoter(0xb27308f9F90D607463bb33eA1BeBb41C27CE5AB6);\r\n  address private constant multiDaiKovan = 0x4F96Fe3b7A6Cf9725f59d353F723c1bDb64CA6Aa;\r\n  address private constant WETH9 = 0xd0A1E359811322d97991E03f863a0C30C2cF029C;\r\n\r\n  function convertExactEthToDai() external payable {\r\n    require(msg.value > 0, \"Must pass non 0 ETH amount\");\r\n\r\n    uint256 deadline = block.timestamp + 15; // using 'now' for convenience, for mainnet pass deadline from frontend!\r\n    address tokenIn = WETH9;\r\n    address tokenOut = multiDaiKovan;\r\n    uint24 fee = 3000;\r\n    address recipient = msg.sender;\r\n    uint256 amountIn = msg.value;\r\n    uint256 amountOutMinimum = 1;\r\n    uint160 sqrtPriceLimitX96 = 0;\r\n    \r\n    ISwapRouter.ExactInputSingleParams memory params = ISwapRouter.ExactInputSingleParams(\r\n        tokenIn,\r\n        tokenOut,\r\n        fee,\r\n        recipient,\r\n        deadline,\r\n        amountIn,\r\n        amountOutMinimum,\r\n        sqrtPriceLimitX96\r\n    );\r\n    \r\n    uniswapRouter.exactInputSingle{ value: msg.value }(params);\r\n    uniswapRouter.refundETH();\r\n    \r\n    // refund leftover ETH to user\r\n    (bool success,) = msg.sender.call{ value: address(this).balance }(\"\");\r\n    require(success, \"refund failed\");\r\n  }\r\n  \r\n  function convertEthToExactDai(uint256 daiAmount) external payable {\r\n    require(daiAmount > 0, \"Must pass non 0 DAI amount\");\r\n    require(msg.value > 0, \"Must pass non 0 ETH amount\");\r\n      \r\n    uint256 deadline = block.timestamp + 15; // using 'now' for convenience, for mainnet pass deadline from frontend!\r\n    address tokenIn = WETH9;\r\n    address tokenOut = multiDaiKovan;\r\n    uint24 fee = 3000;\r\n    address recipient = msg.sender;\r\n    uint256 amountOut = daiAmount;\r\n    uint256 amountInMaximum = msg.value;\r\n    uint160 sqrtPriceLimitX96 = 0;\r\n\r\n    ISwapRouter.ExactOutputSingleParams memory params = ISwapRouter.ExactOutputSingleParams(\r\n        tokenIn,\r\n        tokenOut,\r\n        fee,\r\n        recipient,\r\n        deadline,\r\n        amountOut,\r\n        amountInMaximum,\r\n        sqrtPriceLimitX96\r\n    );\r\n\r\n    uniswapRouter.exactOutputSingle{ value: msg.value }(params);\r\n    uniswapRouter.refundETH();\r\n\r\n    // refund leftover ETH to user\r\n    (bool success,) = msg.sender.call{ value: address(this).balance }(\"\");\r\n    require(success, \"refund failed\");\r\n  }\r\n  \r\n  // do not used on-chain, gas inefficient!\r\n  function getEstimatedETHforDAI(uint daiAmount) external payable returns (uint256) {\r\n    address tokenIn = WETH9;\r\n    address tokenOut = multiDaiKovan;\r\n    uint24 fee = 3000;\r\n    uint160 sqrtPriceLimitX96 = 0;\r\n\r\n    return quoter.quoteExactOutputSingle(\r\n        tokenIn,\r\n        tokenOut,\r\n        fee,\r\n        daiAmount,\r\n        sqrtPriceLimitX96\r\n    );\r\n  }\r\n  \r\n  // important to receive ETH\r\n  receive() payable external {}\r\n}",
  "sourcePath": "F:\\JavascriptProjects\\crypto-index\\contracts\\PriceProtocol.sol",
  "compiler": {
    "name": "solc",
    "version": "0.8.7+commit.e28d00a7.Linux.g++"
  },
  "schemaVersion": "3.4.3",
  "updatedAt": "2022-03-03T21:54:06.563Z",
  "devdoc": {
    "kind": "dev",
    "methods": {},
    "version": 1
  },
  "userdoc": {
    "kind": "user",
    "methods": {},
    "version": 1
  }
}