{
  "contractName": "UserDebtData",
  "abi": [
    {
      "inputs": [
        {
          "internalType": "address",
          "name": "account",
          "type": "address"
        },
        {
          "internalType": "uint256",
          "name": "debtAmount",
          "type": "uint256"
        },
        {
          "internalType": "bool",
          "name": "isAddition",
          "type": "bool"
        }
      ],
      "name": "changeDebt",
      "outputs": [],
      "stateMutability": "nonpayable",
      "type": "function"
    },
    {
      "inputs": [
        {
          "internalType": "address",
          "name": "account",
          "type": "address"
        }
      ],
      "name": "getUserDebt",
      "outputs": [
        {
          "internalType": "uint256",
          "name": "",
          "type": "uint256"
        }
      ],
      "stateMutability": "view",
      "type": "function"
    },
    {
      "inputs": [],
      "name": "getAllUsers",
      "outputs": [
        {
          "internalType": "address[]",
          "name": "",
          "type": "address[]"
        }
      ],
      "stateMutability": "view",
      "type": "function"
    }
  ],
  "bytecode": "0x608060405234801561001057600080fd5b50610548806100206000396000f3fe608060405234801561001057600080fd5b50600436106100415760003560e01c8063cca5e4b114610046578063e2842d79146100a0578063e65896c9146100ff575b600080fd5b61009e6004803603606081101561005c57600080fd5b81019080803573ffffffffffffffffffffffffffffffffffffffff16906020019092919080359060200190929190803515159060200190929190505050610157565b005b6100a8610222565b6040518080602001828103825283818151815260200191508051906020019060200280838360005b838110156100eb5780820151818401526020810190506100d0565b505050509050019250505060405180910390f35b6101416004803603602081101561011557600080fd5b81019080803573ffffffffffffffffffffffffffffffffffffffff1690602001909291905050506102b0565b6040518082815260200191505060405180910390f35b60008060008573ffffffffffffffffffffffffffffffffffffffff1673ffffffffffffffffffffffffffffffffffffffff16815260200190815260200160002054905081156101ba576101b383826102f890919063ffffffff16565b90506101d0565b6101cd838261038090919063ffffffff16565b90505b806000808673ffffffffffffffffffffffffffffffffffffffff1673ffffffffffffffffffffffffffffffffffffffff1681526020019081526020016000208190555061021c84610403565b50505050565b606060028054806020026020016040519081016040528092919081815260200182805480156102a657602002820191906000526020600020905b8160009054906101000a900473ffffffffffffffffffffffffffffffffffffffff1673ffffffffffffffffffffffffffffffffffffffff168152602001906001019080831161025c575b5050505050905090565b60008060008373ffffffffffffffffffffffffffffffffffffffff1673ffffffffffffffffffffffffffffffffffffffff168152602001908152602001600020549050919050565b600080828401905083811015610376576040517f08c379a000000000000000000000000000000000000000000000000000000000815260040180806020018281038252601b8152602001807f536166654d6174683a206164646974696f6e206f766572666c6f77000000000081525060200191505060405180910390fd5b8091505092915050565b6000828211156103f8576040517f08c379a000000000000000000000000000000000000000000000000000000000815260040180806020018281038252601e8152602001807f536166654d6174683a207375627472616374696f6e206f766572666c6f77000081525060200191505060405180910390fd5b818303905092915050565b600160008273ffffffffffffffffffffffffffffffffffffffff1673ffffffffffffffffffffffffffffffffffffffff16815260200190815260200160002060009054906101000a900460ff1661050f5760018060008373ffffffffffffffffffffffffffffffffffffffff1673ffffffffffffffffffffffffffffffffffffffff16815260200190815260200160002060006101000a81548160ff0219169083151502179055506002819080600181540180825580915050600190039060005260206000200160009091909190916101000a81548173ffffffffffffffffffffffffffffffffffffffff021916908373ffffffffffffffffffffffffffffffffffffffff1602179055505b5056fea26469706673582212203959871efe3a9e212aeec78cc26f3642dd8091beba1752abf674871417ded03e64736f6c63430007060033",
  "immutableReferences": {},
  "source": "// SPDX-License-Identifier: MIT\r\npragma solidity 0.7.6;\r\n\r\nimport \"@openzeppelin/contracts/math/SafeMath.sol\";\r\n\r\n\r\ncontract UserDebtData{\r\n    using SafeMath for uint256;\r\n\r\n    mapping(address => uint) private debtData;\r\n    mapping(address => bool) private userInSet;\r\n    address[] private users;\r\n\r\n    function addUser(address _addr) private {\r\n        if(!userInSet[_addr]){\r\n            userInSet[_addr] = true;\r\n            users.push(_addr);\r\n        }\r\n    }\r\n\r\n    function changeDebt(address account, uint debtAmount, bool isAddition) external {\r\n        uint accountDebt = debtData[account];\r\n\r\n        if (isAddition) {\r\n            accountDebt = accountDebt.add(debtAmount);\r\n        }else{\r\n            accountDebt = accountDebt.sub(debtAmount);\r\n        }\r\n\r\n        debtData[account] = accountDebt;\r\n        addUser(account);\r\n    }\r\n\r\n    function getUserDebt(address account) external view returns(uint) { return debtData[account]; }    \r\n    function getAllUsers() external view returns(address[] memory){ return users; }\r\n\r\n}\r\n\r\n\r\ncontract DebtManager{\r\n\r\n    using SafeMath for uint256;\r\n    uint private totalAvailableDebt;\r\n    UserDebtData private debtData = new UserDebtData();\r\n\r\n    event UserDebtChanged(address account, uint debtAmount);\r\n    event TotalDebtChanged(uint totalDebt, uint debtChange, bool isAddition);\r\n\r\n    function getUserDebt(address account) external view returns (uint) { return debtData.getUserDebt(account); }\r\n    function getTotalDebt() external view returns (uint) { return totalAvailableDebt; }\r\n    function getAllUsers() external view returns (address[] memory) { return debtData.getAllUsers(); }\r\n\r\n    function changeTotalDebt(uint debtAmount, bool isAddition) external {\r\n        if (isAddition) {\r\n            totalAvailableDebt = totalAvailableDebt.add(debtAmount);\r\n        }else{\r\n            totalAvailableDebt = totalAvailableDebt.sub(debtAmount);\r\n        }\r\n\r\n        emit TotalDebtChanged(totalAvailableDebt, debtAmount, isAddition);\r\n    }\r\n\r\n    function changeDebt(address account, uint debtAmount, bool isAddition) external {\r\n        debtData.changeDebt(account, debtAmount, isAddition);\r\n        emit UserDebtChanged(account, debtAmount);\r\n    }\r\n\r\n}\r\n",
  "sourcePath": "D:\\JavascriptProjects\\crypto-index\\contracts\\indices\\DebtManager.sol",
  "compiler": {
    "name": "solc",
    "version": "0.7.6+commit.7338295f.Emscripten.clang"
  },
  "schemaVersion": "3.4.6",
  "updatedAt": "2022-05-31T13:01:19.829Z",
  "devdoc": {
    "kind": "dev",
    "methods": {},
    "version": 1
  },
  "userdoc": {
    "kind": "user",
    "methods": {},
    "version": 1
  }
}