{
  "contractName": "WETH9",
  "abi": [
    {
      "anonymous": false,
      "inputs": [
        {
          "indexed": true,
          "internalType": "address",
          "name": "dst",
          "type": "address"
        },
        {
          "indexed": false,
          "internalType": "uint256",
          "name": "wad",
          "type": "uint256"
        }
      ],
      "name": "Deposit",
      "type": "event"
    },
    {
      "anonymous": false,
      "inputs": [
        {
          "indexed": true,
          "internalType": "address",
          "name": "src",
          "type": "address"
        },
        {
          "indexed": false,
          "internalType": "uint256",
          "name": "wad",
          "type": "uint256"
        }
      ],
      "name": "Withdrawal",
      "type": "event"
    },
    {
      "inputs": [
        {
          "internalType": "address",
          "name": "",
          "type": "address"
        },
        {
          "internalType": "address",
          "name": "",
          "type": "address"
        }
      ],
      "name": "allowance",
      "outputs": [
        {
          "internalType": "uint256",
          "name": "",
          "type": "uint256"
        }
      ],
      "stateMutability": "view",
      "type": "function"
    },
    {
      "inputs": [
        {
          "internalType": "address",
          "name": "",
          "type": "address"
        }
      ],
      "name": "balanceOf",
      "outputs": [
        {
          "internalType": "uint256",
          "name": "",
          "type": "uint256"
        }
      ],
      "stateMutability": "view",
      "type": "function"
    },
    {
      "inputs": [],
      "name": "decimals",
      "outputs": [
        {
          "internalType": "uint8",
          "name": "",
          "type": "uint8"
        }
      ],
      "stateMutability": "view",
      "type": "function"
    },
    {
      "inputs": [],
      "name": "name",
      "outputs": [
        {
          "internalType": "string",
          "name": "",
          "type": "string"
        }
      ],
      "stateMutability": "view",
      "type": "function"
    },
    {
      "inputs": [],
      "name": "symbol",
      "outputs": [
        {
          "internalType": "string",
          "name": "",
          "type": "string"
        }
      ],
      "stateMutability": "view",
      "type": "function"
    },
    {
      "inputs": [],
      "name": "deposit",
      "outputs": [],
      "stateMutability": "payable",
      "type": "function"
    },
    {
      "inputs": [
        {
          "internalType": "uint256",
          "name": "wad",
          "type": "uint256"
        }
      ],
      "name": "withdraw",
      "outputs": [],
      "stateMutability": "nonpayable",
      "type": "function"
    }
  ],
  "bytecode": "0x60c0604052600d60808190526c2bb930b83832b21022ba3432b960991b60a090815261002e916000919061007a565b50604080518082019091526004808252630ae8aa8960e31b602090920191825261005a9160019161007a565b506002805460ff1916601217905534801561007457600080fd5b5061011b565b828054600181600116156101000203166002900490600052602060002090601f0160209004810192826100b057600085556100f6565b82601f106100c957805160ff19168380011785556100f6565b828001600101855582156100f6579182015b828111156100f65782518255916020019190600101906100db565b50610102929150610106565b5090565b5b808211156101025760008155600101610107565b6104fa8061012a6000396000f3fe6080604052600436106100705760003560e01c806370a082311161004e57806370a08231146100e457806395d89b4114610111578063d0e30db014610126578063dd62ed3e1461012e57610070565b806306fdde03146100755780632e1a7d4d146100a0578063313ce567146100c2575b600080fd5b34801561008157600080fd5b5061008a61014e565b604051610097919061043c565b60405180910390f35b3480156100ac57600080fd5b506100c06100bb366004610424565b6101fa565b005b3480156100ce57600080fd5b506100d76102a7565b60405161009791906104b6565b3480156100f057600080fd5b506101046100ff3660046103d1565b6102b0565b60405161009791906104ad565b34801561011d57600080fd5b5061008a6102c2565b6100c061033a565b34801561013a57600080fd5b506101046101493660046103f2565b61038b565b6000805460408051602060026001851615610100027fffffffffffffffffffffffffffffffffffffffffffffffffffffffffffffffff0190941693909304601f810184900484028201840190925281815292918301828280156101f25780601f106101c7576101008083540402835291602001916101f2565b820191906000526020600020905b8154815290600101906020018083116101d557829003601f168201915b505050505081565b3360009081526003602052604090205481111561021657600080fd5b33600081815260036020526040808220805485900390555183156108fc0291849190818181858888f19350505050158015610255573d6000803e3d6000fd5b503373ffffffffffffffffffffffffffffffffffffffff167f7fcf532c15f0a6db0bd6d0e038bea71d30d808c7d98cb3bf7268a95bf5081b658260405161029c91906104ad565b60405180910390a250565b60025460ff1681565b60036020526000908152604090205481565b60018054604080516020600284861615610100027fffffffffffffffffffffffffffffffffffffffffffffffffffffffffffffffff0190941693909304601f810184900484028201840190925281815292918301828280156101f25780601f106101c7576101008083540402835291602001916101f2565b336000818152600360205260409081902080543490810190915590517fe1fffcc4923d04b559f4d29a8bfc6cda04eb5b0d3c460751c2402c5c5cc9109c91610381916104ad565b60405180910390a2565b600460209081526000928352604080842090915290825290205481565b803573ffffffffffffffffffffffffffffffffffffffff811681146103cc57600080fd5b919050565b6000602082840312156103e2578081fd5b6103eb826103a8565b9392505050565b60008060408385031215610404578081fd5b61040d836103a8565b915061041b602084016103a8565b90509250929050565b600060208284031215610435578081fd5b5035919050565b6000602080835283518082850152825b818110156104685785810183015185820160400152820161044c565b818111156104795783604083870101525b50601f017fffffffffffffffffffffffffffffffffffffffffffffffffffffffffffffffe016929092016040019392505050565b90815260200190565b60ff9190911681526020019056fea2646970667358221220240d084bf3ab47a6835a28313175da2c88cd9cc911972ba89f5fdedeba5396ae64736f6c63430007060033",
  "immutableReferences": {},
  "source": "// SPDX-License-Identifier: MIT\r\npragma solidity 0.7.6;\r\npragma abicoder v2;\r\n\r\nimport \"@openzeppelin/contracts/token/ERC20/ERC20.sol\";\r\nimport \"@openzeppelin/contracts/math/SafeMath.sol\";\r\nimport \"@uniswap/v3-periphery/contracts/libraries/TransferHelper.sol\";\r\nimport \"@uniswap/v3-periphery/contracts/interfaces/ISwapRouter.sol\";\r\n\r\nimport \"./PriceOracle.sol\";\r\nimport \"../IndexToken.sol\";\r\nimport \"../DebtManager.sol\";\r\nimport \"../../management/BaseProduct.sol\";\r\n\r\n\r\ninterface IUniswapRouter is ISwapRouter {\r\n    function refundETH() external payable;\r\n}\r\n\r\ncontract WETH9 {\r\n    string public name = \"Wrapped Ether\";\r\n    string public symbol = \"WETH\";\r\n    uint8  public decimals = 18;\r\n\r\n    event Deposit(address indexed dst, uint wad);\r\n    event Withdrawal(address indexed src, uint wad);\r\n\r\n    mapping (address => uint)                       public  balanceOf;\r\n    mapping (address => mapping (address => uint))  public  allowance;\r\n\r\n    function deposit() public payable {\r\n        balanceOf[msg.sender] += msg.value;\r\n        emit Deposit(msg.sender, msg.value);\r\n    }\r\n\r\n    function withdraw(uint wad) public {\r\n        require(balanceOf[msg.sender] >= wad);\r\n        balanceOf[msg.sender] -= wad;\r\n        msg.sender.transfer(wad);\r\n        emit Withdrawal(msg.sender, wad);\r\n    }\r\n\r\n}\r\n\r\n\r\ncontract ETHIndex is Product {\r\n    using SafeMath for uint256;\r\n\r\n    struct TokenInfo {\r\n        uint8 indexPercentage;\r\n        address tokenAddress;\r\n        uint24 poolFee;\r\n    }\r\n\r\n    TokenInfo[10] private tokens;\r\n    IndexToken public immutable indexToken;\r\n\r\n    address public buyTokenAddress = 0xC02aaA39b223FE8D0A0e5C4F27eAD9083C756Cc2;\r\n    address private immutable dexRouterAddress = 0xE592427A0AEce92De3Edee1F18E0157C05861564;\r\n\r\n    DebtManager private immutable sellDebtManager = new DebtManager();\r\n    DebtManager private immutable buyDebtManager = new DebtManager();\r\n    PriceOracle private immutable priceOracle = new PriceOracle();\r\n\r\n    uint private lastManagedToken = 0;\r\n    uint public tokensToSell = 0;\r\n    uint public tokensToBuy = 0;\r\n    uint private tokensSold = 0;\r\n    uint private buyAmountRequired = 0;\r\n    bool private allTokensManaged = false;\r\n    bool public cancellationActive = false;\r\n    uint public availableTokens = 5000000000000000000000;\r\n\r\n    function name() external pure override returns (string memory) { return \"Index ETH\"; }\r\n    function symbol() external pure override returns (string memory) { return \"VID(ETH)\"; }\r\n    function getComponents() external view returns (TokenInfo[10] memory) { return tokens; }\r\n\r\n    function shortDescription() external pure override returns (string memory) {\r\n        return \"Void Index(ETH) - fully decentralized index with ETH as the base token\";\r\n    }\r\n\r\n    function longDescription() external pure override returns (string memory) {\r\n        return \"Void Index(ETH) - fully decentralized index with ETH as the base token. It features 10 ERC20 tokens, and allows you to buy or sell them at once. You receive VID(ETH) tokens as a proof of funds ownership\";\r\n    }\r\n\r\n    function getTokenPrice(TokenInfo memory token) public view returns (uint256) {\r\n        return priceOracle.getPrice(buyTokenAddress, token.tokenAddress, token.poolFee);\r\n    }\r\n\r\n    function image() external pure override returns (string memory) {\r\n        return \"https://voidmanagementstorage.blob.core.windows.net/assets/eth_index.png\";\r\n    }\r\n\r\n    function getTotalLockedValue() external view override returns (uint256) {\r\n        uint totalValue;\r\n\r\n        for (uint i = 0; i < tokens.length; i++) {\r\n            TokenInfo memory tokenInfo = tokens[i];\r\n            totalValue = totalValue.add(\r\n                IERC20(tokenInfo.tokenAddress).balanceOf(address(this)).mul(getTokenPrice(tokenInfo))\r\n            );\r\n        }\r\n\r\n        return totalValue.div(1 ether);\r\n    }\r\n\r\n    function getAvailableLiquidity() public view returns(uint){\r\n        uint minLiquidity;\r\n\r\n        for(uint i = 0; i < tokens.length; i++){\r\n\r\n            TokenInfo memory token = tokens[i];\r\n            uint poolLiquidity = priceOracle.getLiquidity(buyTokenAddress, token.tokenAddress, token.poolFee);\r\n\r\n            if(poolLiquidity < minLiquidity || minLiquidity == 0){\r\n                minLiquidity = poolLiquidity;\r\n            }\r\n        }\r\n\r\n        return minLiquidity.mul(1 ether).div(getPrice());\r\n    }\r\n\r\n    constructor() {\r\n        indexToken = new IndexToken(address(this), availableTokens);\r\n\r\n        tokens[0] = TokenInfo({ // 2) WBNB\r\n            tokenAddress: 0x418D75f65a02b3D53B2418FB8E1fe493759c7605,\r\n            poolFee: 3000,\r\n            indexPercentage: 25\r\n        });\r\n        tokens[1] = TokenInfo({ // 1) LINK\r\n            tokenAddress: 0x514910771AF9Ca656af840dff83E8264EcF986CA,\r\n            poolFee: 3000,\r\n            indexPercentage: 15\r\n        });\r\n        tokens[2] = TokenInfo({ // 3) UNI\r\n            tokenAddress: 0x1f9840a85d5aF5bf1D1762F925BDADdC4201F984,\r\n            poolFee: 3000,\r\n            indexPercentage: 20\r\n        });\r\n        tokens[3] = TokenInfo({ // 4) 1INCH\r\n            tokenAddress: 0x111111111117dC0aa78b770fA6A738034120C302,\r\n            poolFee: 10000,\r\n            indexPercentage: 10\r\n        });\r\n        tokens[4] = TokenInfo({ // 5) SNX\r\n            tokenAddress: 0xC011a73ee8576Fb46F5E1c5751cA3B9Fe0af2a6F,\r\n            poolFee: 10000,\r\n            indexPercentage: 5\r\n        });\r\n        tokens[5] = TokenInfo({ // 7) COMP\r\n            tokenAddress: 0xc00e94Cb662C3520282E6f5717214004A7f26888,\r\n            poolFee: 3000,\r\n            indexPercentage: 5\r\n        });\r\n        tokens[6] = TokenInfo({ // 8) MKR\r\n            tokenAddress: 0x9f8F72aA9304c8B593d555F12eF6589cC3A579A2,\r\n            poolFee: 3000,\r\n            indexPercentage: 3\r\n        });\r\n        tokens[7] = TokenInfo({ // 10) APE\r\n            tokenAddress: 0x4d224452801ACEd8B2F0aebE155379bb5D594381,\r\n            poolFee: 3000,\r\n            indexPercentage: 7\r\n        });\r\n        tokens[8] = TokenInfo({ // 13) AAVE\r\n            tokenAddress: 0x7Fc66500c84A76Ad7e9c93437bFc5Ac33E2DDaE9,\r\n            poolFee: 3000,\r\n            indexPercentage: 5\r\n        });\r\n        tokens[9] = TokenInfo({ // 14) MATIC\r\n            tokenAddress: 0x7D1AfA7B718fb893dB30A3aBc0Cfc608AaCfeBB0,\r\n            poolFee: 3000,\r\n            indexPercentage: 5\r\n        });\r\n        // tokens[2] = TokenInfo({ // 2) WBNB\r\n        //     tokenAddress: 0x418D75f65a02b3D53B2418FB8E1fe493759c7605,\r\n        //     poolFees: [uint24(3000), uint24(3000)],\r\n        //     intermediateToken: 0xC02aaA39b223FE8D0A0e5C4F27eAD9083C756Cc2,\r\n        //     indexPercentage: 10\r\n        // });\r\n        // tokens[6] = TokenInfo({ // 6) YFI\r\n        //     tokenAddress: 0x0bc529c00C6401aEF6D220BE8C6Ea1667F6Ad93e,\r\n        //     poolFees: [uint24(3000), uint24(3000)],\r\n        //     intermediateToken: 0xC02aaA39b223FE8D0A0e5C4F27eAD9083C756Cc2,\r\n        //     indexPercentage: 2\r\n        // });\r\n        // tokens[9] = TokenInfo({ // 9) SUSHI\r\n        //     tokenAddress: 0x6B3595068778DD592e39A122f4f5a5cF09C90fE2,\r\n        //     poolFees: [uint24(3000), uint24(3000)],\r\n        //     intermediateToken: 0xC02aaA39b223FE8D0A0e5C4F27eAD9083C756Cc2,\r\n        //     indexPercentage: 8\r\n        // });\r\n        // tokens[11] = TokenInfo({ // 11) CRV\r\n        //     tokenAddress: 0xD533a949740bb3306d119CC777fa900bA034cd52,\r\n        //     poolFees: [uint24(3000), 10000],\r\n        //     intermediateToken: 0xC02aaA39b223FE8D0A0e5C4F27eAD9083C756Cc2,\r\n        //     indexPercentage: 5\r\n        // });\r\n        // tokens[12] = TokenInfo({ // 12) LOOKS\r\n        //     tokenAddress: 0xf4d2888d29D722226FafA5d9B24F9164c092421E,\r\n        //     poolFees: [uint24(3000), uint24(3000)],\r\n        //     intermediateToken: 0xC02aaA39b223FE8D0A0e5C4F27eAD9083C756Cc2,\r\n        //     indexPercentage: 2\r\n        // });\r\n        // tokens[15] = TokenInfo({ // 14) FTX\r\n        //     tokenAddress: 0x50D1c9771902476076eCFc8B2A83Ad6b9355a4c9,\r\n        //     poolFees: [uint24(3000), uint24(3000)],\r\n        //     intermediateToken: 0xC02aaA39b223FE8D0A0e5C4F27eAD9083C756Cc2,\r\n        //     indexPercentage: 5\r\n        // });\r\n        // tokens[16] = TokenInfo({ // 15) GNOSIS\r\n        //     tokenAddress: 0x6810e776880C02933D47DB1b9fc05908e5386b96,\r\n        //     poolFees: [uint24(3000), uint24(3000)],\r\n        //     intermediateToken: 0xC02aaA39b223FE8D0A0e5C4F27eAD9083C756Cc2,\r\n        //     indexPercentage: 3\r\n        // });\r\n    }\r\n\r\n    receive() external payable {}\r\n    fallback() external payable {}\r\n\r\n    function buy(uint _) external pure override{\r\n        revert(\"Use buyETH function to buy tokens\");\r\n    }\r\n\r\n    function buyETH(uint amount) external payable nonReentrant checkSettlement {\r\n        (uint productFee, uint256 realAmount) = calculateFee(amount);\r\n        uint256 indexPrice = getPrice();\r\n        uint availableLiquidity = getAvailableLiquidity();\r\n        uint buyTokenAmount = realAmount.mul(indexPrice).div(1 ether);\r\n\r\n        require(\r\n            realAmount > 0 &&\r\n            productFee > 0 &&\r\n            amount.mul(indexPrice).div(1 ether) <= msg.value &&\r\n            availableLiquidity >= amount &&\r\n            realAmount <= availableTokens &&\r\n            tokensToBuy.add(tokensToSell.mul(indexPrice)).add(buyTokenAmount) < availableLiquidity,\r\n            \"Not enough tokens sent or not enough liquidity\"\r\n        );\r\n\r\n        availableTokens = availableTokens.sub(realAmount);\r\n        tokensToBuy = tokensToBuy.add(buyTokenAmount);\r\n        buyDebtManager.changeDebt(msg.sender, realAmount, true);\r\n\r\n        TransferHelper.safeTransferETH(owner(), productFee.mul(indexPrice).div(2 ether));\r\n        emit ProductBought(msg.sender, buyTokenAmount, realAmount);\r\n    }\r\n\r\n    function changeCancellation() external onlyOwner{ cancellationActive = !cancellationActive; }\r\n\r\n    function cancelDebt(uint amount) external nonReentrant {\r\n        require(cancellationActive, \"Cancellation is not active\");\r\n\r\n        (uint productFee, uint256 realAmount) = calculateFee(amount);\r\n        require(realAmount > 0 && productFee > 0, \"Not enough tokens sent\");\r\n\r\n        availableTokens = availableTokens.add(realAmount);\r\n\r\n        uint256 indexPrice = getPrice();\r\n        uint buyTokenAmount = realAmount.mul(indexPrice).div(1 ether);\r\n\r\n        tokensToBuy = tokensToBuy.sub(buyTokenAmount);\r\n        buyDebtManager.changeDebt(msg.sender, realAmount, false);\r\n\r\n        TransferHelper.safeTransferETH(msg.sender, amount.mul(indexPrice).div(1 ether));\r\n    }\r\n\r\n    function sell(uint amount) external override nonReentrant checkSettlement{\r\n        (uint productFee, uint256 realAmount) = calculateFee(amount);\r\n        require(realAmount > 0 && productFee > 0, \"You must sell more tokens\");\r\n\r\n        uint availableLiquidity = getAvailableLiquidity();\r\n        require(\r\n            availableLiquidity >= amount &&\r\n            tokensToBuy.add(tokensToSell) < availableLiquidity,\r\n            \"Not enough liquidity\"\r\n        );\r\n\r\n        uint indexPrice = getPrice();\r\n\r\n        tokensToSell = tokensToSell.add(amount);\r\n        sellDebtManager.changeDebt(msg.sender, realAmount.mul(indexPrice).div(1 ether), true);\r\n        sellDebtManager.changeDebt(owner(), productFee.mul(indexPrice).div(1 ether), true);\r\n\r\n        TransferHelper.safeTransferFrom(address(indexToken), msg.sender, address(this), amount);\r\n        emit ProductSold(msg.sender, realAmount.mul(getPrice()), realAmount);\r\n    }\r\n\r\n    function retrieveDebt(uint amount, bool isBuyDebt) external nonReentrant checkSettlement{\r\n        DebtManager manager = isBuyDebt ? buyDebtManager : sellDebtManager;\r\n        require(manager.getTotalDebt() >= amount && manager.getUserDebt(msg.sender) >= amount, \"Not enough debt\");\r\n\r\n        if(isBuyDebt){\r\n            TransferHelper.safeTransfer(address(indexToken), msg.sender, amount);\r\n        } else {\r\n            WETH9(payable(buyTokenAddress)).withdraw(amount);\r\n            TransferHelper.safeTransferETH(msg.sender, amount);\r\n        }\r\n\r\n        manager.changeDebt(msg.sender, amount, false);\r\n        manager.changeTotalDebt(amount, false);\r\n    }\r\n\r\n    function getTotalDebt(bool isBuy) external view returns (uint) {\r\n        return (isBuy ? buyDebtManager : sellDebtManager).getTotalDebt();\r\n    }\r\n\r\n    function getUserDebt(address user, bool isBuy) external view returns (uint) {\r\n        return (isBuy ? buyDebtManager : sellDebtManager).getUserDebt(user);\r\n    }\r\n\r\n    function beginSettlement() override external onlyOwner{\r\n        isSettlement = true;\r\n\r\n        uint totalBuyTokens = tokensToBuy.add(tokensToBuy.mul(productFee).div(productFeeTotal).div(2));\r\n        WETH9(payable(buyTokenAddress)).deposit{ value: totalBuyTokens }();\r\n        TransferHelper.safeApprove(buyTokenAddress, dexRouterAddress, totalBuyTokens);\r\n    }\r\n\r\n    function endSettlement() override external onlyOwner {\r\n        require(allTokensManaged, \"Not all tokens were managed\");\r\n        buyDebtManager.changeTotalDebt(tokensToBuy.mul(1 ether).div(getPrice()), true);\r\n        sellDebtManager.changeTotalDebt(tokensSold, true);\r\n\r\n        if (buyAmountRequired < tokensToBuy && buyAmountRequired != 0) {\r\n            TransferHelper.safeTransferETH(owner(), tokensToBuy.sub(buyAmountRequired));\r\n        }\r\n\r\n        tokensToBuy = 0;\r\n        allTokensManaged = false;\r\n        buyAmountRequired = 0;\r\n        tokensToSell = 0;\r\n        tokensSold = 0;\r\n        isSettlement = false;\r\n    }\r\n\r\n    function manageTokensSell(TokenInfo memory token, IUniswapRouter dexRouter, uint amount, uint tokenPrice) private {\r\n        uint amountIn = amount.mul(getPrice()).mul(token.indexPercentage).div(100).div(tokenPrice);\r\n        uint usdAmountIn = amountIn.mul(tokenPrice).div(1 ether);\r\n        uint amountOutMinimum = usdAmountIn.sub(usdAmountIn.mul(productFee).mul(10).div(productFeeTotal));\r\n\r\n        TransferHelper.safeApprove(token.tokenAddress, dexRouterAddress, amountIn);\r\n        tokensSold = tokensSold.add(dexRouter.exactInputSingle(\r\n            ISwapRouter.ExactInputSingleParams({\r\n                tokenIn: token.tokenAddress,\r\n                tokenOut: buyTokenAddress,\r\n                fee: token.poolFee,\r\n                recipient: address(this),\r\n                deadline: block.timestamp,\r\n                amountIn: amountIn,\r\n                amountOutMinimum: amountOutMinimum,\r\n                sqrtPriceLimitX96: 0\r\n            })\r\n        ));\r\n    }\r\n\r\n    function manageTokensBuy(\r\n        TokenInfo memory token, IUniswapRouter dexRouter, uint amount, uint tokenPrice\r\n    ) private {\r\n        uint amountOut = amount.mul(1 ether).div(tokenPrice);\r\n        uint amountInMaximum = amount.add(amount.mul(productFee).div(productFeeTotal));\r\n\r\n        buyAmountRequired = buyAmountRequired.add(\r\n            dexRouter.exactOutputSingle(\r\n                ISwapRouter.ExactOutputSingleParams({\r\n                    tokenIn: buyTokenAddress,\r\n                    tokenOut: token.tokenAddress,\r\n                    fee: token.poolFee,\r\n                    recipient: address(this),\r\n                    deadline: block.timestamp,\r\n                    amountOut: amountOut,\r\n                    amountInMaximum: amountInMaximum,\r\n                    sqrtPriceLimitX96: 0\r\n                })\r\n            )\r\n        );\r\n\r\n        dexRouter.refundETH();\r\n    }\r\n\r\n    function manageTokens() external onlyOwner {\r\n        require(!allTokensManaged, \"Tokens are already managed or another management transaction is active\");\r\n\r\n        lastManagedToken += 1;\r\n        if(lastManagedToken > tokens.length - 1){\r\n            lastManagedToken = 0;\r\n            allTokensManaged = true;\r\n        }\r\n\r\n        TokenInfo memory token = tokens[lastManagedToken];\r\n        uint tokensToBuyAmount = tokensToBuy.mul(token.indexPercentage).div(100);\r\n        uint tokenPrice = getTokenPrice(token);\r\n        IUniswapRouter dexRouter = IUniswapRouter(dexRouterAddress);\r\n\r\n        if(tokensToBuyAmount > 0){ manageTokensBuy(token, dexRouter, tokensToBuyAmount, tokenPrice); }\r\n        if(tokensToSell > 0){ manageTokensSell(token, dexRouter, tokensToSell, tokenPrice); }\r\n    }\r\n\r\n    function getPrice() public view override returns (uint) {\r\n        uint indexTotalPrice = 0;\r\n\r\n        for (uint i = 0; i < tokens.length; i++) {\r\n            indexTotalPrice = indexTotalPrice.add(getTokenPrice(tokens[i]).mul(tokens[i].indexPercentage));\r\n        }\r\n\r\n        return indexTotalPrice.div(1000);   // total / 100 / 10\r\n    }\r\n\r\n}\r\n",
  "sourcePath": "D:\\JavascriptProjects\\crypto-index\\contracts\\indices\\ethIndex\\ETHIndex.sol",
  "compiler": {
    "name": "solc",
    "version": "0.7.6+commit.7338295f.Emscripten.clang"
  },
  "schemaVersion": "3.4.7",
  "updatedAt": "2022-06-21T14:42:48.682Z",
  "devdoc": {
    "kind": "dev",
    "methods": {},
    "version": 1
  },
  "userdoc": {
    "kind": "user",
    "methods": {},
    "version": 1
  }
}